{
  "address": "0x96F39Bd540F8E1873Ccf707F830e0f2cbF786b45",
  "abi": [
    {
      "inputs": [
        {
          "internalType": "address",
          "name": "defaultAdmin",
          "type": "address"
        }
      ],
      "stateMutability": "nonpayable",
      "type": "constructor"
    },
    {
      "inputs": [],
      "name": "AccessControlBadConfirmation",
      "type": "error"
    },
    {
      "inputs": [
        {
          "internalType": "address",
          "name": "account",
          "type": "address"
        },
        {
          "internalType": "bytes32",
          "name": "neededRole",
          "type": "bytes32"
        }
      ],
      "name": "AccessControlUnauthorizedAccount",
      "type": "error"
    },
    {
      "inputs": [],
      "name": "AppNotFound",
      "type": "error"
    },
    {
      "inputs": [],
      "name": "ExceedMaxAppFeePercent",
      "type": "error"
    },
    {
      "inputs": [],
      "name": "InsufficientPayment",
      "type": "error"
    },
    {
      "inputs": [],
      "name": "InvalidAppId",
      "type": "error"
    },
    {
      "inputs": [],
      "name": "InvalidFeeReceiver",
      "type": "error"
    },
    {
      "inputs": [],
      "name": "OnlyCreator",
      "type": "error"
    },
    {
      "inputs": [],
      "name": "ReentrancyGuardReentrantCall",
      "type": "error"
    },
    {
      "anonymous": false,
      "inputs": [
        {
          "indexed": false,
          "internalType": "uint256",
          "name": "id",
          "type": "uint256"
        },
        {
          "indexed": true,
          "internalType": "address",
          "name": "creator",
          "type": "address"
        },
        {
          "indexed": false,
          "internalType": "string",
          "name": "uri",
          "type": "string"
        },
        {
          "indexed": false,
          "internalType": "address",
          "name": "feeReceiver",
          "type": "address"
        },
        {
          "indexed": false,
          "internalType": "uint256",
          "name": "feePercent",
          "type": "uint256"
        }
      ],
      "name": "AppCreated",
      "type": "event"
    },
    {
      "anonymous": false,
      "inputs": [
        {
          "indexed": false,
          "internalType": "uint256",
          "name": "id",
          "type": "uint256"
        },
        {
          "indexed": true,
          "internalType": "address",
          "name": "creator",
          "type": "address"
        },
        {
          "indexed": false,
          "internalType": "string",
          "name": "uri",
          "type": "string"
        },
        {
          "indexed": false,
          "internalType": "address",
          "name": "feeReceiver",
          "type": "address"
        },
        {
          "indexed": false,
          "internalType": "uint256",
          "name": "feePercent",
          "type": "uint256"
        }
      ],
      "name": "AppUpdated",
      "type": "event"
    },
    {
      "anonymous": false,
      "inputs": [
        {
          "indexed": false,
          "internalType": "address",
          "name": "receiver",
          "type": "address"
        }
      ],
      "name": "FeeReceiverUpdated",
      "type": "event"
    },
    {
      "anonymous": false,
      "inputs": [
        {
          "indexed": false,
          "internalType": "uint256",
          "name": "price",
          "type": "uint256"
        }
      ],
      "name": "PriceUpdated",
      "type": "event"
    },
    {
      "anonymous": false,
      "inputs": [
        {
          "indexed": false,
          "internalType": "uint256",
          "name": "rate",
          "type": "uint256"
        }
      ],
      "name": "ReferralRewardRateUpdated",
      "type": "event"
    },
    {
      "anonymous": false,
      "inputs": [
        {
          "indexed": true,
          "internalType": "bytes32",
          "name": "role",
          "type": "bytes32"
        },
        {
          "indexed": true,
          "internalType": "bytes32",
          "name": "previousAdminRole",
          "type": "bytes32"
        },
        {
          "indexed": true,
          "internalType": "bytes32",
          "name": "newAdminRole",
          "type": "bytes32"
        }
      ],
      "name": "RoleAdminChanged",
      "type": "event"
    },
    {
      "anonymous": false,
      "inputs": [
        {
          "indexed": true,
          "internalType": "bytes32",
          "name": "role",
          "type": "bytes32"
        },
        {
          "indexed": true,
          "internalType": "address",
          "name": "account",
          "type": "address"
        },
        {
          "indexed": true,
          "internalType": "address",
          "name": "sender",
          "type": "address"
        }
      ],
      "name": "RoleGranted",
      "type": "event"
    },
    {
      "anonymous": false,
      "inputs": [
        {
          "indexed": true,
          "internalType": "bytes32",
          "name": "role",
          "type": "bytes32"
        },
        {
          "indexed": true,
          "internalType": "address",
          "name": "account",
          "type": "address"
        },
        {
          "indexed": true,
          "internalType": "address",
          "name": "sender",
          "type": "address"
        }
      ],
      "name": "RoleRevoked",
      "type": "event"
    },
    {
      "anonymous": false,
      "inputs": [
        {
          "indexed": true,
          "internalType": "uint256",
          "name": "spaceId",
          "type": "uint256"
        },
        {
          "indexed": false,
          "internalType": "address",
          "name": "spaceAddress",
          "type": "address"
        },
        {
          "indexed": false,
          "internalType": "address",
          "name": "founder",
          "type": "address"
        },
        {
          "indexed": false,
          "internalType": "string",
          "name": "spaceName",
          "type": "string"
        },
        {
          "indexed": false,
          "internalType": "string",
          "name": "symbol",
          "type": "string"
        },
        {
          "indexed": false,
          "internalType": "string",
          "name": "uri",
          "type": "string"
        },
        {
          "indexed": false,
          "internalType": "uint256",
          "name": "preBuyEthAmount",
          "type": "uint256"
        },
        {
          "indexed": false,
          "internalType": "address",
          "name": "referral",
          "type": "address"
        }
      ],
      "name": "SpaceCreated",
      "type": "event"
    },
    {
      "anonymous": false,
      "inputs": [
        {
          "indexed": true,
          "internalType": "address",
          "name": "account",
          "type": "address"
        },
        {
          "indexed": false,
          "internalType": "address",
          "name": "tokenIn",
          "type": "address"
        },
        {
          "indexed": false,
          "internalType": "address",
          "name": "tokenOut",
          "type": "address"
        },
        {
          "indexed": false,
          "internalType": "uint256",
          "name": "amountIn",
          "type": "uint256"
        },
        {
          "indexed": false,
          "internalType": "uint256",
          "name": "amountOut",
          "type": "uint256"
        }
      ],
      "name": "Swap",
      "type": "event"
    },
    {
      "anonymous": false,
      "inputs": [
        {
          "indexed": true,
          "internalType": "address",
          "name": "to",
          "type": "address"
        },
        {
          "indexed": false,
          "internalType": "uint256",
          "name": "amount",
          "type": "uint256"
        }
      ],
      "name": "WithdrawEther",
      "type": "event"
    },
    {
      "inputs": [],
      "name": "APP_ROLE",
      "outputs": [
        {
          "internalType": "bytes32",
          "name": "",
          "type": "bytes32"
        }
      ],
      "stateMutability": "view",
      "type": "function"
    },
    {
      "inputs": [],
      "name": "CONFIG_ROLE",
      "outputs": [
        {
          "internalType": "bytes32",
          "name": "",
          "type": "bytes32"
        }
      ],
      "stateMutability": "view",
      "type": "function"
    },
    {
      "inputs": [],
      "name": "DEFAULT_ADMIN_ROLE",
      "outputs": [
        {
          "internalType": "bytes32",
          "name": "",
          "type": "bytes32"
        }
      ],
      "stateMutability": "view",
      "type": "function"
    },
    {
      "inputs": [],
      "name": "appIndex",
      "outputs": [
        {
          "internalType": "uint256",
          "name": "",
          "type": "uint256"
        }
      ],
      "stateMutability": "view",
      "type": "function"
    },
    {
      "inputs": [
        {
          "internalType": "uint256",
          "name": "",
          "type": "uint256"
        }
      ],
      "name": "apps",
      "outputs": [
        {
          "internalType": "address",
          "name": "creator",
          "type": "address"
        },
        {
          "internalType": "string",
          "name": "uri",
          "type": "string"
        },
        {
          "internalType": "address",
          "name": "feeReceiver",
          "type": "address"
        },
        {
          "internalType": "uint256",
          "name": "feePercent",
          "type": "uint256"
        }
      ],
      "stateMutability": "view",
      "type": "function"
    },
    {
      "inputs": [
        {
          "internalType": "string",
          "name": "_uri",
          "type": "string"
        },
        {
          "internalType": "address",
          "name": "_feeReceiver",
          "type": "address"
        },
        {
          "internalType": "uint256",
          "name": "_feePercent",
          "type": "uint256"
        }
      ],
      "name": "createApp",
      "outputs": [],
      "stateMutability": "nonpayable",
      "type": "function"
    },
    {
      "inputs": [
        {
          "components": [
            {
              "internalType": "uint256",
              "name": "appId",
              "type": "uint256"
            },
            {
              "internalType": "string",
              "name": "spaceName",
              "type": "string"
            },
            {
              "internalType": "string",
              "name": "symbol",
              "type": "string"
            },
            {
              "internalType": "string",
              "name": "uri",
              "type": "string"
            },
            {
              "internalType": "uint256",
              "name": "preBuyEthAmount",
              "type": "uint256"
            },
            {
              "internalType": "address",
              "name": "referral",
              "type": "address"
            }
          ],
          "internalType": "struct CreateSpaceInput",
          "name": "input",
          "type": "tuple"
        }
      ],
      "name": "createSpace",
      "outputs": [],
      "stateMutability": "payable",
      "type": "function"
    },
    {
      "inputs": [],
      "name": "feeReceiver",
      "outputs": [
        {
          "internalType": "address",
          "name": "",
          "type": "address"
        }
      ],
      "stateMutability": "view",
      "type": "function"
    },
    {
      "inputs": [
        {
          "internalType": "uint256",
          "name": "id",
          "type": "uint256"
        }
      ],
      "name": "getApp",
      "outputs": [
        {
          "components": [
            {
              "internalType": "address",
              "name": "creator",
              "type": "address"
            },
            {
              "internalType": "string",
              "name": "uri",
              "type": "string"
            },
            {
              "internalType": "address",
              "name": "feeReceiver",
              "type": "address"
            },
            {
              "internalType": "uint256",
              "name": "feePercent",
              "type": "uint256"
            }
          ],
          "internalType": "struct App",
          "name": "",
          "type": "tuple"
        }
      ],
      "stateMutability": "view",
      "type": "function"
    },
    {
      "inputs": [
        {
          "internalType": "bytes32",
          "name": "role",
          "type": "bytes32"
        }
      ],
      "name": "getRoleAdmin",
      "outputs": [
        {
          "internalType": "bytes32",
          "name": "",
          "type": "bytes32"
        }
      ],
      "stateMutability": "view",
      "type": "function"
    },
    {
      "inputs": [
        {
          "internalType": "address",
          "name": "account",
          "type": "address"
        }
      ],
      "name": "getUserSpaces",
      "outputs": [
        {
          "internalType": "address[]",
          "name": "",
          "type": "address[]"
        }
      ],
      "stateMutability": "view",
      "type": "function"
    },
    {
      "inputs": [
        {
          "internalType": "bytes32",
          "name": "role",
          "type": "bytes32"
        },
        {
          "internalType": "address",
          "name": "account",
          "type": "address"
        }
      ],
      "name": "grantRole",
      "outputs": [],
      "stateMutability": "nonpayable",
      "type": "function"
    },
    {
      "inputs": [
        {
          "internalType": "bytes32",
          "name": "role",
          "type": "bytes32"
        },
        {
          "internalType": "address",
          "name": "account",
          "type": "address"
        }
      ],
      "name": "hasRole",
      "outputs": [
        {
          "internalType": "bool",
          "name": "",
          "type": "bool"
        }
      ],
      "stateMutability": "view",
      "type": "function"
    },
    {
      "inputs": [
        {
          "internalType": "address",
          "name": "spaceAddress",
          "type": "address"
        }
      ],
      "name": "isSpace",
      "outputs": [
        {
          "internalType": "bool",
          "name": "",
          "type": "bool"
        }
      ],
      "stateMutability": "view",
      "type": "function"
    },
    {
      "inputs": [],
      "name": "price",
      "outputs": [
        {
          "internalType": "uint256",
          "name": "",
          "type": "uint256"
        }
      ],
      "stateMutability": "view",
      "type": "function"
    },
    {
      "inputs": [],
      "name": "referralRewardRate",
      "outputs": [
        {
          "internalType": "uint256",
          "name": "",
          "type": "uint256"
        }
      ],
      "stateMutability": "view",
      "type": "function"
    },
    {
      "inputs": [
        {
          "internalType": "bytes32",
          "name": "role",
          "type": "bytes32"
        },
        {
          "internalType": "address",
          "name": "callerConfirmation",
          "type": "address"
        }
      ],
      "name": "renounceRole",
      "outputs": [],
      "stateMutability": "nonpayable",
      "type": "function"
    },
    {
      "inputs": [
        {
          "internalType": "bytes32",
          "name": "role",
          "type": "bytes32"
        },
        {
          "internalType": "address",
          "name": "account",
          "type": "address"
        }
      ],
      "name": "revokeRole",
      "outputs": [],
      "stateMutability": "nonpayable",
      "type": "function"
    },
    {
      "inputs": [
        {
          "internalType": "address",
          "name": "_receiver",
          "type": "address"
        }
      ],
      "name": "setFeeReceiver",
      "outputs": [],
      "stateMutability": "nonpayable",
      "type": "function"
    },
    {
      "inputs": [
        {
          "internalType": "uint256",
          "name": "_price",
          "type": "uint256"
        }
      ],
      "name": "setPrice",
      "outputs": [],
      "stateMutability": "nonpayable",
      "type": "function"
    },
    {
      "inputs": [
        {
          "internalType": "uint256",
          "name": "_rate",
          "type": "uint256"
        }
      ],
      "name": "setReferralRewardRate",
      "outputs": [],
      "stateMutability": "nonpayable",
      "type": "function"
    },
    {
      "inputs": [],
      "name": "spaceIndex",
      "outputs": [
        {
          "internalType": "uint256",
          "name": "",
          "type": "uint256"
        }
      ],
      "stateMutability": "view",
      "type": "function"
    },
    {
      "inputs": [
        {
          "internalType": "address",
          "name": "",
          "type": "address"
        }
      ],
      "name": "spaceToFounder",
      "outputs": [
        {
          "internalType": "address",
          "name": "",
          "type": "address"
        }
      ],
      "stateMutability": "view",
      "type": "function"
    },
    {
      "inputs": [
        {
          "internalType": "uint256",
          "name": "spaceId",
          "type": "uint256"
        }
      ],
      "name": "spaces",
      "outputs": [
        {
          "internalType": "address",
          "name": "",
          "type": "address"
        }
      ],
      "stateMutability": "view",
      "type": "function"
    },
    {
      "inputs": [
        {
          "internalType": "bytes4",
          "name": "interfaceId",
          "type": "bytes4"
        }
      ],
      "name": "supportsInterface",
      "outputs": [
        {
          "internalType": "bool",
          "name": "",
          "type": "bool"
        }
      ],
      "stateMutability": "view",
      "type": "function"
    },
    {
      "inputs": [
        {
          "internalType": "address",
          "name": "tokenIn",
          "type": "address"
        },
        {
          "internalType": "address",
          "name": "tokenOut",
          "type": "address"
        },
        {
          "internalType": "uint256",
          "name": "amountIn",
          "type": "uint256"
        },
        {
          "internalType": "uint256",
          "name": "minTokenAmount",
          "type": "uint256"
        }
      ],
      "name": "swap",
      "outputs": [
        {
          "internalType": "uint256",
          "name": "returnAmount",
          "type": "uint256"
        }
      ],
      "stateMutability": "nonpayable",
      "type": "function"
    },
    {
      "inputs": [
        {
          "internalType": "uint256",
          "name": "id",
          "type": "uint256"
        },
        {
          "internalType": "string",
          "name": "_uri",
          "type": "string"
        },
        {
          "internalType": "address",
          "name": "_feeReceiver",
          "type": "address"
        },
        {
          "internalType": "uint256",
          "name": "_feePercent",
          "type": "uint256"
        }
      ],
      "name": "updateApp",
      "outputs": [],
      "stateMutability": "nonpayable",
      "type": "function"
    },
    {
      "inputs": [
        {
          "internalType": "address",
          "name": "",
          "type": "address"
        },
        {
          "internalType": "uint256",
          "name": "",
          "type": "uint256"
        }
      ],
      "name": "userSpaces",
      "outputs": [
        {
          "internalType": "address",
          "name": "",
          "type": "address"
        }
      ],
      "stateMutability": "view",
      "type": "function"
    },
    {
      "inputs": [],
      "name": "withdrawEther",
      "outputs": [],
      "stateMutability": "nonpayable",
      "type": "function"
    },
    {
      "inputs": [
        {
          "internalType": "address[]",
          "name": "tokens",
          "type": "address[]"
        }
      ],
      "name": "withdrawTokens",
      "outputs": [],
      "stateMutability": "nonpayable",
      "type": "function"
    },
    {
      "stateMutability": "payable",
      "type": "receive"
    }
  ],
  "transactionHash": "0xca9868ade881d776fe48c939701d4760f1c736f22ed43616e546e6b4262e12ac",
  "args": [
    "0x45aBBC64421a54CbffF878985AE6c4F0cfacfDb7"
  ],
  "numDeployments": 1,
  "solcInputHash": "8c9b5eee8d6ae7e0cb71d11e1c67a101",
  "bytecode": "0x608034620000a457601f6200204a38819003918201601f19168301916001600160401b03831184841017620000a957808492602094604052833981010312620000a457516001600160a01b0381168103620000a4576200009390600160005566246139ca8000006002556706f05b59d3b200006003556200008081620000bf565b506200008c8162000140565b50620001e3565b50604051611da89081620002828239f35b600080fd5b634e487b7160e01b600052604160045260246000fd5b6001600160a01b031660008181527fa6eef7e35abe7026729641147f7915573c7e97b47efa546f5f6e3230263bcb49602052604081205490919060ff166200013c5781805260016020526040822081835260205260408220600160ff1982541617905533916000805160206200202a8339815191528180a4600190565b5090565b6001600160a01b031660008181527f6e53926868dcb9cec2c5a800def464eee597d645425a06b90ac02acf4cacfa5760205260408120549091907f7b98b41c1b69918066115c47a3fabea25b5765269638096b0143b9ee263737be9060ff16620001de5780835260016020526040832082845260205260408320600160ff198254161790556000805160206200202a833981519152339380a4600190565b505090565b6001600160a01b031660008181527fd10623234bc073dfbfc3bc7ac856f3df0285a5675093663f41f684de9bdab78d60205260408120549091907f82db594318110a04b6349ce48645aa69f0892751bc893d15e61d9e2b9c4630f59060ff16620001de5780835260016020526040832082845260205260408320600160ff198254161790556000805160206200202a833981519152339380a460019056fe608080604052600436101561001d575b50361561001b57600080fd5b005b600090813560e01c90816301ffc9a71461171457508063248a9ca3146116e857806324f3a51b1461162a5780632f2ff15d146115ec57806333518c801461154157806336568abe146114e157806338deed7d146112865780634eb68762146112685780635ecb16cd14611103578063616fc7ad146110b557806361acc37e146110445780637362377b14610f285780637586353b14610ef55780637ecd66f814610eba5780638e39f0ea14610c2957806391b7f5ed14610bdb57806391d1485414610b8e5780639b94d9e314610b53578063a035b1fe14610b35578063a217fddf14610b19578063a4d19feb14610ade578063b3f0067414610ab7578063c588e3c91461049f578063c8d8cf8814610481578063d547741f1461043f578063da02099e14610390578063e9be46fe14610335578063efdcd974146102cb578063fe029156146101905763fe4ad4460361000f573461018d578060031936011261018d576020600354604051908152f35b80fd5b503461018d57608036600319011261018d576101aa61180a565b6101b26117f4565b90604435926101bf611d37565b604051917f9910c069000000000000000000000000000000000000000000000000000000008352600a60048401526001600160a01b038091169384602485015216928360448401528460648401526064356084840152602094858460a48173E4BC4F178657Fae76c7B242C178466a53E4544Fa5af49384156102c057839461028b575b50600193946040519283528683015260408201528360608201527fcd3829a3813dc3cdd188fd3d01dcf3268c16be2fdd2dd21d0665418816e4606260803392a255604051908152f35b93508584813d83116102b9575b6102a281836118b8565b810103126102b4576001935193610242565b600080fd5b503d610298565b6040513d85823e3d90fd5b503461018d57602036600319011261018d577f27aae5db36d94179909d019ae0b1ac7c16d96d953148f63c0f6a0a9c8ead79ee60206001600160a01b0361031061180a565b610318611bbc565b16806001600160a01b03196006541617600655604051908152a180f35b503461018d57604036600319011261018d5761034f61180a565b602435916001600160a01b03809216815260086020526040812090815484101561018d57506020926103809161197f565b9190546040519260031b1c168152f35b503461018d576020908160031936011261018d57906001600160a01b0391826103b761180a565b168152600882526040812090604051808484549182815201908194845285842090845b81811061042957505050816103f09103826118b8565b6040519380850191818652518092526040850193925b8281106104135785850386f35b8351871685529381019392810192600101610406565b82548916845292870192600192830192016103da565b503461018d57604036600319011261018d5761047d60043561045f6117f4565b9080845260016020526104786001604086200154611c18565b611cbf565b5080f35b503461018d578060031936011261018d576020600454604051908152f35b50600319602036820112610a385767ffffffffffffffff60043511610a385760c0906004353603011261018d576104d4611d37565b600435600401356004548111610a8d57600254608460043501358101809111610a79573410610a4f57604051907f0fb1b31c000000000000000000000000000000000000000000000000000000008252602060048301526024820152602081806105ae610588610562610551602460043501600435600401611ab0565b60c0604487015260e4860191611a37565b610576604460043501600435600401611ab0565b85830360231901606487015290611a37565b61059c606460043501600435600401611ab0565b84830360231901608486015290611a37565b6084600435013560a48301526001600160a01b036105d060a460043501611820565b1660c48301520381735973CB5b01f188CBA492b3f6d17996a82501FE575af4908115610a445782916109fe575b5060055482526009602052604082206001600160a01b0382166001600160a01b0319825416179055338252600860205260408220805490680100000000000000008210156109ea57906106559160018201815561197f565b81549060031b906001600160a01b03808516831b921b19161790556001600160a01b0381168252600a60205260408220336001600160a01b03198254161790556084600435013561086b575b6001600160a01b036106b760a460043501611ae2565b166107ab575b6001600160a01b036107a1917ff77b60d92855d8298e7e07140fb047da8ea9e39387c38b52d9cbe17ca7df482e60055492839261078682610708602460043501600435600401611af6565b929061076a610778610724604460043501600435600401611af6565b610738606460043501600435600401611af6565b94909561074960a460043501611ae2565b996040519c8d9c168c523360208d015260e060408d015260e08c0191611a37565b9189830360608b0152611a37565b918683036080880152611a37565b916084600435013560a08501521660c08301520390a2611a8b565b6005556001815580f35b6107b960a460043501611ae2565b600254600354908181029181830414901517156108575783808093670de0b6b3a7640000829404905af13d15610852573d6107f3816119c5565b9061080160405192836118b8565b81528360203d92013e5b6106bd5760646040517f08c379a00000000000000000000000000000000000000000000000000000000081526020600482015260026024820152612a2360f11b6044820152fd5b61080b565b602484634e487b7160e01b81526011600452fd5b6040517fd96a094a00000000000000000000000000000000000000000000000000000000815282600482015260c081602481608460043501356001600160a01b0387165af180156102c0578390610948575b606091500151604051907fa9059cbb0000000000000000000000000000000000000000000000000000000082523360048301526024820152602081604481866001600160a01b0387165af180156102c057610919575b506106a1565b61093a9060203d602011610941575b61093281836118b8565b8101906119ad565b5038610913565b503d610928565b5060c0813d60c0116109e2575b8161096260c093836118b8565b810103126109de576040518060c081011067ffffffffffffffff60c0830111176109c85760a060609260c08301604052805183526020810151602084015260408101516040840152838101518484015260808101516080840152015160a08201526108bd565b634e487b7160e01b600052604160045260246000fd5b8280fd5b3d9150610955565b602484634e487b7160e01b81526041600452fd5b90506020813d602011610a3c575b81610a19602093836118b8565b81010312610a3857516001600160a01b0381168103610a3857386105fd565b5080fd5b3d9150610a0c565b6040513d84823e3d90fd5b60046040517fcd1c8867000000000000000000000000000000000000000000000000000000008152fd5b602483634e487b7160e01b81526011600452fd5b60046040517f6470515b000000000000000000000000000000000000000000000000000000008152fd5b503461018d578060031936011261018d5760206001600160a01b0360065416604051908152f35b503461018d578060031936011261018d5760206040517f82db594318110a04b6349ce48645aa69f0892751bc893d15e61d9e2b9c4630f58152f35b503461018d578060031936011261018d57602090604051908152f35b503461018d578060031936011261018d576020600254604051908152f35b503461018d57602036600319011261018d5760209060406001600160a01b039182610b7c61180a565b168152600a8452205416604051908152f35b503461018d57604036600319011261018d576001600160a01b036040610bb26117f4565b9260043581526001602052209116600052602052602060ff604060002054166040519015158152f35b503461018d57602036600319011261018d577f66cbca4f3c64fecf1dcb9ce094abcf7f68c3450a1d4e3a8e917dd621edb4ebe06020600435610c1b611bbc565b80600255604051908152a180f35b503461018d57608036600319011261018d5767ffffffffffffffff906004356024358381116109de57610c60903690600401611834565b906001600160a01b03604435818116918282036102b45760643592610c83611b29565b8688526020600760205260408920928354168015610e90573303610e66578115610e3c57670214e8348c4f00008511610e125760018084019a8811610dfe57610cd688610cd08d54611862565b8d6119e1565b8991601f8911600114610d6c575050849392610d5b95928a9b610d348a806003967fb2ec7c56deffcb7d7d1f6566c9e9d11f22d4fd664323c8704d24def0d625dcb39e9f91610d61575b508160011b916000199060031b1c19161790565b90555b60028201906001600160a01b03198254161790550155604051948594339886611a58565b0390a280f35b90508b013538610d20565b8b8b5260208b209291601f198a16918c915b838310610de757505050927fb2ec7c56deffcb7d7d1f6566c9e9d11f22d4fd664323c8704d24def0d625dcb3999a9b600393889796938b610d5b9a9710610dcf575b505060018a811b019055610d37565b8a01356000198c871b60f8161c191690553880610dc0565b8a8501358655948501949381019391810191610d7e565b60248a634e487b7160e01b81526041600452fd5b60046040517f7abc9ec7000000000000000000000000000000000000000000000000000000008152fd5b60046040517fd200485c000000000000000000000000000000000000000000000000000000008152fd5b60046040517f47bc7cc8000000000000000000000000000000000000000000000000000000008152fd5b60046040517f44b36949000000000000000000000000000000000000000000000000000000008152fd5b503461018d578060031936011261018d5760206040517f7b98b41c1b69918066115c47a3fabea25b5765269638096b0143b9ee263737be8152f35b503461018d57602036600319011261018d576001600160a01b036040602092600435815260098452205416604051908152f35b503461018d578060031936011261018d57808052602060018152610f526001604084200154611c18565b6001600160a01b0390816006541690604051917faf933b570000000000000000000000000000000000000000000000000000000083526004830152808260248173E4BC4F178657Fae76c7B242C178466a53E4544Fa5af4918215611039578492610fea575b507fdb35132c111efe920cede025e819975671cfd1b8fcc1174762c8670c4e94c21191926006541692604051908152a280f35b91508082813d8311611032575b61100181836118b8565b810103126102b4577fdb35132c111efe920cede025e819975671cfd1b8fcc1174762c8670c4e94c211915191610fb7565b503d610ff7565b6040513d86823e3d90fd5b503461018d57602036600319011261018d5760409060043581526007602052206001600160a01b039081815416906003611080600183016118da565b936002830154169101546110a660405194859485526080602086015260808501906117b4565b91604084015260608301520390f35b503461018d57602036600319011261018d577fd6e50e888cf155c14eaca174da3306a069509abb2045087f2cebeef91a85c15b60206004356110f5611bbc565b80600355604051908152a180f35b503461018d57602080600319360112610a385767ffffffffffffffff600435818111611264573660238201121561126457806004013590828211611260573660248360051b83010111611260578480526001806020526111696001604088200154611c18565b73E4BC4F178657Fae76c7B242C178466a53E4544Fa926001600160a01b0395866006541696853b1561125c5790928289969460409996949951998a977fda101119000000000000000000000000000000000000000000000000000000008952604489019060048a0152604060248a01525260246064880195019388905b83821061122b5750505050505082809103915af480156102c057611208578280f35b81116112175760405238808280f35b602482634e487b7160e01b81526041600452fd5b929584979950859850918095928461124583949795611820565b1681520197019201928a979592938a9795926111e6565b8880fd5b8480fd5b8380fd5b503461018d578060031936011261018d576020600554604051908152f35b503461018d57606036600319011261018d5767ffffffffffffffff90600435828111610a38576112ba903690600401611834565b92906112c46117f4565b604435926112d0611b29565b6001600160a01b03908183168015610e3c57670214e8348c4f00008611610e1257604051926112fe8461189c565b33845261130a896119c5565b9061131860405192836118b8565b898252602091368b8901116114dd578a888483013789838c830101528286019081526040860193845260608601948986526004548b52600784528260408c20975116936001600160a01b0319948589541617885560018801925180519283116114c95761138f836113898654611862565b866119e1565b81601f84116001146114345750926113f0838e9f999693946114239f957fd6045c2a54b5386f8809e8bd02aeaa6bf4e719e5d479608a5fc2717fed1a0f7b9d9c9a9760039a9792611429575b50508160011b916000199060031b1c19161790565b90555b60028601925116908254161790555191015561141b6004549560405193849333978986611a58565b0390a2611a8b565b60045580f35b0151905038806113db565b848e52808e20929190601f198516908f905b8282106114b1575050936114239e9f9996937fd6045c2a54b5386f8809e8bd02aeaa6bf4e719e5d479608a5fc2717fed1a0f7b9c9b9996936001938360039b9810611499575b505050811b0190556113f3565b0151600019838b1b60f8161c1916905538808061148c565b80600186978294978701518155019601940190611446565b60248d634e487b7160e01b81526041600452fd5b8980fd5b503461018d57604036600319011261018d576114fb6117f4565b336001600160a01b038216036115175761047d90600435611cbf565b60046040517f6697b232000000000000000000000000000000000000000000000000000000008152fd5b503461018d57602036600319011261018d5761155b61180a565b6001600160a01b03604051917f5d59e14a000000000000000000000000000000000000000000000000000000008352600a600484015216602482015260208160448173E4BC4F178657Fae76c7B242C178466a53E4544Fa5af4908115610a4457602092916115cf575b506040519015158152f35b6115e69150823d84116109415761093281836118b8565b386115c4565b503461018d57604036600319011261018d5761047d60043561160c6117f4565b9080845260016020526116256001604086200154611c18565b611c3e565b503461018d576020908160031936011261018d57806040916060835161164f8161189c565b82815281868201528285820152015260043581526007835220604051906116758261189c565b6001600160a01b0392838254168352836116d6611694600185016118da565b838601908152600383600287015416956040880196875201549360608701948552604051978897828952511690870152516080604087015260a08601906117b4565b92511660608401525160808301520390f35b503461018d57602036600319011261018d57600160406020926004358152828452200154604051908152f35b905034610a38576020366003190112610a38576004357fffffffff0000000000000000000000000000000000000000000000000000000081168091036109de57602092507f7965db0b00000000000000000000000000000000000000000000000000000000811490811561178a575b5015158152f35b7f01ffc9a70000000000000000000000000000000000000000000000000000000091501438611783565b919082519283825260005b8481106117e0575050826000602080949584010152601f8019910116010190565b6020818301810151848301820152016117bf565b602435906001600160a01b03821682036102b457565b600435906001600160a01b03821682036102b457565b35906001600160a01b03821682036102b457565b9181601f840112156102b45782359167ffffffffffffffff83116102b457602083818601950101116102b457565b90600182811c92168015611892575b602083101461187c57565b634e487b7160e01b600052602260045260246000fd5b91607f1691611871565b6080810190811067ffffffffffffffff8211176109c857604052565b90601f8019910116810190811067ffffffffffffffff8211176109c857604052565b906040519182600082546118ed81611862565b9081845260209460019160018116908160001461195d575060011461191e575b50505061191c925003836118b8565b565b600090815285812095935091905b81831061194557505061191c935082010138808061190d565b8554888401850152948501948794509183019161192c565b9250505061191c94925060ff191682840152151560051b82010138808061190d565b80548210156119975760005260206000200190600090565b634e487b7160e01b600052603260045260246000fd5b908160209103126102b4575180151581036102b45790565b67ffffffffffffffff81116109c857601f01601f191660200190565b90601f81116119ef57505050565b6000916000526020600020906020601f850160051c83019410611a2d575b601f0160051c01915b828110611a2257505050565b818155600101611a16565b9092508290611a0d565b908060209392818452848401376000828201840152601f01601f1916010190565b91611a80906060946001600160a01b0393989796988552608060208601526080850191611a37565b951660408201520152565b6000198114611a9a5760010190565b634e487b7160e01b600052601160045260246000fd5b9035601e19823603018112156102b457016020813591019167ffffffffffffffff82116102b45781360383136102b457565b356001600160a01b03811681036102b45790565b903590601e19813603018212156102b4570180359067ffffffffffffffff82116102b4576020019181360383136102b457565b3360009081527f6e53926868dcb9cec2c5a800def464eee597d645425a06b90ac02acf4cacfa5760205260409020547f7b98b41c1b69918066115c47a3fabea25b5765269638096b0143b9ee263737be9060ff1615611b855750565b604490604051907fe2517d3f0000000000000000000000000000000000000000000000000000000082523360048301526024820152fd5b3360009081527fd10623234bc073dfbfc3bc7ac856f3df0285a5675093663f41f684de9bdab78d60205260409020547f82db594318110a04b6349ce48645aa69f0892751bc893d15e61d9e2b9c4630f59060ff1615611b855750565b80600052600160205260406000203360005260205260ff6040600020541615611b855750565b9060009180835260016020526001600160a01b036040842092169182845260205260ff60408420541615600014611cba5780835260016020526040832082845260205260408320600160ff198254161790557f2f8788117e7eff1d82e926ec794901d17c78024a50270940304540a733656f0d339380a4600190565b505090565b9060009180835260016020526001600160a01b036040842092169182845260205260ff604084205416600014611cba578083526001602052604083208284526020526040832060ff1981541690557ff6391f5c32d9c69d2a47ea670b442974b53935d1edc7fd64eb21e047a839171b339380a4600190565b600260005414611d48576002600055565b60046040517f3ee5aeb5000000000000000000000000000000000000000000000000000000008152fdfea2646970667358221220f65e5d20fef8b120f011dc83c815d7cd7c900eb935aabfcc03b56e508ad2061664736f6c634300081600332f8788117e7eff1d82e926ec794901d17c78024a50270940304540a733656f0d",
  "deployedBytecode": "0x608080604052600436101561001d575b50361561001b57600080fd5b005b600090813560e01c90816301ffc9a71461171457508063248a9ca3146116e857806324f3a51b1461162a5780632f2ff15d146115ec57806333518c801461154157806336568abe146114e157806338deed7d146112865780634eb68762146112685780635ecb16cd14611103578063616fc7ad146110b557806361acc37e146110445780637362377b14610f285780637586353b14610ef55780637ecd66f814610eba5780638e39f0ea14610c2957806391b7f5ed14610bdb57806391d1485414610b8e5780639b94d9e314610b53578063a035b1fe14610b35578063a217fddf14610b19578063a4d19feb14610ade578063b3f0067414610ab7578063c588e3c91461049f578063c8d8cf8814610481578063d547741f1461043f578063da02099e14610390578063e9be46fe14610335578063efdcd974146102cb578063fe029156146101905763fe4ad4460361000f573461018d578060031936011261018d576020600354604051908152f35b80fd5b503461018d57608036600319011261018d576101aa61180a565b6101b26117f4565b90604435926101bf611d37565b604051917f9910c069000000000000000000000000000000000000000000000000000000008352600a60048401526001600160a01b038091169384602485015216928360448401528460648401526064356084840152602094858460a48173__$7f462ad0bdcf6bc2a48b65b50bf27bdb7e$__5af49384156102c057839461028b575b50600193946040519283528683015260408201528360608201527fcd3829a3813dc3cdd188fd3d01dcf3268c16be2fdd2dd21d0665418816e4606260803392a255604051908152f35b93508584813d83116102b9575b6102a281836118b8565b810103126102b4576001935193610242565b600080fd5b503d610298565b6040513d85823e3d90fd5b503461018d57602036600319011261018d577f27aae5db36d94179909d019ae0b1ac7c16d96d953148f63c0f6a0a9c8ead79ee60206001600160a01b0361031061180a565b610318611bbc565b16806001600160a01b03196006541617600655604051908152a180f35b503461018d57604036600319011261018d5761034f61180a565b602435916001600160a01b03809216815260086020526040812090815484101561018d57506020926103809161197f565b9190546040519260031b1c168152f35b503461018d576020908160031936011261018d57906001600160a01b0391826103b761180a565b168152600882526040812090604051808484549182815201908194845285842090845b81811061042957505050816103f09103826118b8565b6040519380850191818652518092526040850193925b8281106104135785850386f35b8351871685529381019392810192600101610406565b82548916845292870192600192830192016103da565b503461018d57604036600319011261018d5761047d60043561045f6117f4565b9080845260016020526104786001604086200154611c18565b611cbf565b5080f35b503461018d578060031936011261018d576020600454604051908152f35b50600319602036820112610a385767ffffffffffffffff60043511610a385760c0906004353603011261018d576104d4611d37565b600435600401356004548111610a8d57600254608460043501358101809111610a79573410610a4f57604051907f0fb1b31c000000000000000000000000000000000000000000000000000000008252602060048301526024820152602081806105ae610588610562610551602460043501600435600401611ab0565b60c0604487015260e4860191611a37565b610576604460043501600435600401611ab0565b85830360231901606487015290611a37565b61059c606460043501600435600401611ab0565b84830360231901608486015290611a37565b6084600435013560a48301526001600160a01b036105d060a460043501611820565b1660c4830152038173__$b09ee225acab772df1fe332cea0eb2d1b0$__5af4908115610a445782916109fe575b5060055482526009602052604082206001600160a01b0382166001600160a01b0319825416179055338252600860205260408220805490680100000000000000008210156109ea57906106559160018201815561197f565b81549060031b906001600160a01b03808516831b921b19161790556001600160a01b0381168252600a60205260408220336001600160a01b03198254161790556084600435013561086b575b6001600160a01b036106b760a460043501611ae2565b166107ab575b6001600160a01b036107a1917ff77b60d92855d8298e7e07140fb047da8ea9e39387c38b52d9cbe17ca7df482e60055492839261078682610708602460043501600435600401611af6565b929061076a610778610724604460043501600435600401611af6565b610738606460043501600435600401611af6565b94909561074960a460043501611ae2565b996040519c8d9c168c523360208d015260e060408d015260e08c0191611a37565b9189830360608b0152611a37565b918683036080880152611a37565b916084600435013560a08501521660c08301520390a2611a8b565b6005556001815580f35b6107b960a460043501611ae2565b600254600354908181029181830414901517156108575783808093670de0b6b3a7640000829404905af13d15610852573d6107f3816119c5565b9061080160405192836118b8565b81528360203d92013e5b6106bd5760646040517f08c379a00000000000000000000000000000000000000000000000000000000081526020600482015260026024820152612a2360f11b6044820152fd5b61080b565b602484634e487b7160e01b81526011600452fd5b6040517fd96a094a00000000000000000000000000000000000000000000000000000000815282600482015260c081602481608460043501356001600160a01b0387165af180156102c0578390610948575b606091500151604051907fa9059cbb0000000000000000000000000000000000000000000000000000000082523360048301526024820152602081604481866001600160a01b0387165af180156102c057610919575b506106a1565b61093a9060203d602011610941575b61093281836118b8565b8101906119ad565b5038610913565b503d610928565b5060c0813d60c0116109e2575b8161096260c093836118b8565b810103126109de576040518060c081011067ffffffffffffffff60c0830111176109c85760a060609260c08301604052805183526020810151602084015260408101516040840152838101518484015260808101516080840152015160a08201526108bd565b634e487b7160e01b600052604160045260246000fd5b8280fd5b3d9150610955565b602484634e487b7160e01b81526041600452fd5b90506020813d602011610a3c575b81610a19602093836118b8565b81010312610a3857516001600160a01b0381168103610a3857386105fd565b5080fd5b3d9150610a0c565b6040513d84823e3d90fd5b60046040517fcd1c8867000000000000000000000000000000000000000000000000000000008152fd5b602483634e487b7160e01b81526011600452fd5b60046040517f6470515b000000000000000000000000000000000000000000000000000000008152fd5b503461018d578060031936011261018d5760206001600160a01b0360065416604051908152f35b503461018d578060031936011261018d5760206040517f82db594318110a04b6349ce48645aa69f0892751bc893d15e61d9e2b9c4630f58152f35b503461018d578060031936011261018d57602090604051908152f35b503461018d578060031936011261018d576020600254604051908152f35b503461018d57602036600319011261018d5760209060406001600160a01b039182610b7c61180a565b168152600a8452205416604051908152f35b503461018d57604036600319011261018d576001600160a01b036040610bb26117f4565b9260043581526001602052209116600052602052602060ff604060002054166040519015158152f35b503461018d57602036600319011261018d577f66cbca4f3c64fecf1dcb9ce094abcf7f68c3450a1d4e3a8e917dd621edb4ebe06020600435610c1b611bbc565b80600255604051908152a180f35b503461018d57608036600319011261018d5767ffffffffffffffff906004356024358381116109de57610c60903690600401611834565b906001600160a01b03604435818116918282036102b45760643592610c83611b29565b8688526020600760205260408920928354168015610e90573303610e66578115610e3c57670214e8348c4f00008511610e125760018084019a8811610dfe57610cd688610cd08d54611862565b8d6119e1565b8991601f8911600114610d6c575050849392610d5b95928a9b610d348a806003967fb2ec7c56deffcb7d7d1f6566c9e9d11f22d4fd664323c8704d24def0d625dcb39e9f91610d61575b508160011b916000199060031b1c19161790565b90555b60028201906001600160a01b03198254161790550155604051948594339886611a58565b0390a280f35b90508b013538610d20565b8b8b5260208b209291601f198a16918c915b838310610de757505050927fb2ec7c56deffcb7d7d1f6566c9e9d11f22d4fd664323c8704d24def0d625dcb3999a9b600393889796938b610d5b9a9710610dcf575b505060018a811b019055610d37565b8a01356000198c871b60f8161c191690553880610dc0565b8a8501358655948501949381019391810191610d7e565b60248a634e487b7160e01b81526041600452fd5b60046040517f7abc9ec7000000000000000000000000000000000000000000000000000000008152fd5b60046040517fd200485c000000000000000000000000000000000000000000000000000000008152fd5b60046040517f47bc7cc8000000000000000000000000000000000000000000000000000000008152fd5b60046040517f44b36949000000000000000000000000000000000000000000000000000000008152fd5b503461018d578060031936011261018d5760206040517f7b98b41c1b69918066115c47a3fabea25b5765269638096b0143b9ee263737be8152f35b503461018d57602036600319011261018d576001600160a01b036040602092600435815260098452205416604051908152f35b503461018d578060031936011261018d57808052602060018152610f526001604084200154611c18565b6001600160a01b0390816006541690604051917faf933b570000000000000000000000000000000000000000000000000000000083526004830152808260248173__$7f462ad0bdcf6bc2a48b65b50bf27bdb7e$__5af4918215611039578492610fea575b507fdb35132c111efe920cede025e819975671cfd1b8fcc1174762c8670c4e94c21191926006541692604051908152a280f35b91508082813d8311611032575b61100181836118b8565b810103126102b4577fdb35132c111efe920cede025e819975671cfd1b8fcc1174762c8670c4e94c211915191610fb7565b503d610ff7565b6040513d86823e3d90fd5b503461018d57602036600319011261018d5760409060043581526007602052206001600160a01b039081815416906003611080600183016118da565b936002830154169101546110a660405194859485526080602086015260808501906117b4565b91604084015260608301520390f35b503461018d57602036600319011261018d577fd6e50e888cf155c14eaca174da3306a069509abb2045087f2cebeef91a85c15b60206004356110f5611bbc565b80600355604051908152a180f35b503461018d57602080600319360112610a385767ffffffffffffffff600435818111611264573660238201121561126457806004013590828211611260573660248360051b83010111611260578480526001806020526111696001604088200154611c18565b73__$7f462ad0bdcf6bc2a48b65b50bf27bdb7e$__926001600160a01b0395866006541696853b1561125c5790928289969460409996949951998a977fda101119000000000000000000000000000000000000000000000000000000008952604489019060048a0152604060248a01525260246064880195019388905b83821061122b5750505050505082809103915af480156102c057611208578280f35b81116112175760405238808280f35b602482634e487b7160e01b81526041600452fd5b929584979950859850918095928461124583949795611820565b1681520197019201928a979592938a9795926111e6565b8880fd5b8480fd5b8380fd5b503461018d578060031936011261018d576020600554604051908152f35b503461018d57606036600319011261018d5767ffffffffffffffff90600435828111610a38576112ba903690600401611834565b92906112c46117f4565b604435926112d0611b29565b6001600160a01b03908183168015610e3c57670214e8348c4f00008611610e1257604051926112fe8461189c565b33845261130a896119c5565b9061131860405192836118b8565b898252602091368b8901116114dd578a888483013789838c830101528286019081526040860193845260608601948986526004548b52600784528260408c20975116936001600160a01b0319948589541617885560018801925180519283116114c95761138f836113898654611862565b866119e1565b81601f84116001146114345750926113f0838e9f999693946114239f957fd6045c2a54b5386f8809e8bd02aeaa6bf4e719e5d479608a5fc2717fed1a0f7b9d9c9a9760039a9792611429575b50508160011b916000199060031b1c19161790565b90555b60028601925116908254161790555191015561141b6004549560405193849333978986611a58565b0390a2611a8b565b60045580f35b0151905038806113db565b848e52808e20929190601f198516908f905b8282106114b1575050936114239e9f9996937fd6045c2a54b5386f8809e8bd02aeaa6bf4e719e5d479608a5fc2717fed1a0f7b9c9b9996936001938360039b9810611499575b505050811b0190556113f3565b0151600019838b1b60f8161c1916905538808061148c565b80600186978294978701518155019601940190611446565b60248d634e487b7160e01b81526041600452fd5b8980fd5b503461018d57604036600319011261018d576114fb6117f4565b336001600160a01b038216036115175761047d90600435611cbf565b60046040517f6697b232000000000000000000000000000000000000000000000000000000008152fd5b503461018d57602036600319011261018d5761155b61180a565b6001600160a01b03604051917f5d59e14a000000000000000000000000000000000000000000000000000000008352600a600484015216602482015260208160448173__$7f462ad0bdcf6bc2a48b65b50bf27bdb7e$__5af4908115610a4457602092916115cf575b506040519015158152f35b6115e69150823d84116109415761093281836118b8565b386115c4565b503461018d57604036600319011261018d5761047d60043561160c6117f4565b9080845260016020526116256001604086200154611c18565b611c3e565b503461018d576020908160031936011261018d57806040916060835161164f8161189c565b82815281868201528285820152015260043581526007835220604051906116758261189c565b6001600160a01b0392838254168352836116d6611694600185016118da565b838601908152600383600287015416956040880196875201549360608701948552604051978897828952511690870152516080604087015260a08601906117b4565b92511660608401525160808301520390f35b503461018d57602036600319011261018d57600160406020926004358152828452200154604051908152f35b905034610a38576020366003190112610a38576004357fffffffff0000000000000000000000000000000000000000000000000000000081168091036109de57602092507f7965db0b00000000000000000000000000000000000000000000000000000000811490811561178a575b5015158152f35b7f01ffc9a70000000000000000000000000000000000000000000000000000000091501438611783565b919082519283825260005b8481106117e0575050826000602080949584010152601f8019910116010190565b6020818301810151848301820152016117bf565b602435906001600160a01b03821682036102b457565b600435906001600160a01b03821682036102b457565b35906001600160a01b03821682036102b457565b9181601f840112156102b45782359167ffffffffffffffff83116102b457602083818601950101116102b457565b90600182811c92168015611892575b602083101461187c57565b634e487b7160e01b600052602260045260246000fd5b91607f1691611871565b6080810190811067ffffffffffffffff8211176109c857604052565b90601f8019910116810190811067ffffffffffffffff8211176109c857604052565b906040519182600082546118ed81611862565b9081845260209460019160018116908160001461195d575060011461191e575b50505061191c925003836118b8565b565b600090815285812095935091905b81831061194557505061191c935082010138808061190d565b8554888401850152948501948794509183019161192c565b9250505061191c94925060ff191682840152151560051b82010138808061190d565b80548210156119975760005260206000200190600090565b634e487b7160e01b600052603260045260246000fd5b908160209103126102b4575180151581036102b45790565b67ffffffffffffffff81116109c857601f01601f191660200190565b90601f81116119ef57505050565b6000916000526020600020906020601f850160051c83019410611a2d575b601f0160051c01915b828110611a2257505050565b818155600101611a16565b9092508290611a0d565b908060209392818452848401376000828201840152601f01601f1916010190565b91611a80906060946001600160a01b0393989796988552608060208601526080850191611a37565b951660408201520152565b6000198114611a9a5760010190565b634e487b7160e01b600052601160045260246000fd5b9035601e19823603018112156102b457016020813591019167ffffffffffffffff82116102b45781360383136102b457565b356001600160a01b03811681036102b45790565b903590601e19813603018212156102b4570180359067ffffffffffffffff82116102b4576020019181360383136102b457565b3360009081527f6e53926868dcb9cec2c5a800def464eee597d645425a06b90ac02acf4cacfa5760205260409020547f7b98b41c1b69918066115c47a3fabea25b5765269638096b0143b9ee263737be9060ff1615611b855750565b604490604051907fe2517d3f0000000000000000000000000000000000000000000000000000000082523360048301526024820152fd5b3360009081527fd10623234bc073dfbfc3bc7ac856f3df0285a5675093663f41f684de9bdab78d60205260409020547f82db594318110a04b6349ce48645aa69f0892751bc893d15e61d9e2b9c4630f59060ff1615611b855750565b80600052600160205260406000203360005260205260ff6040600020541615611b855750565b9060009180835260016020526001600160a01b036040842092169182845260205260ff60408420541615600014611cba5780835260016020526040832082845260205260408320600160ff198254161790557f2f8788117e7eff1d82e926ec794901d17c78024a50270940304540a733656f0d339380a4600190565b505090565b9060009180835260016020526001600160a01b036040842092169182845260205260ff604084205416600014611cba578083526001602052604083208284526020526040832060ff1981541690557ff6391f5c32d9c69d2a47ea670b442974b53935d1edc7fd64eb21e047a839171b339380a4600190565b600260005414611d48576002600055565b60046040517f3ee5aeb5000000000000000000000000000000000000000000000000000000008152fdfea2646970667358221220f65e5d20fef8b120f011dc83c815d7cd7c900eb935aabfcc03b56e508ad2061664736f6c63430008160033",
  "libraries": {
    "SpaceHelper": "0xE4BC4F178657Fae76c7B242C178466a53E4544Fa",
    "SpaceCreator": "0x5973CB5b01f188CBA492b3f6d17996a82501FE57"
  },
  "devdoc": {
    "errors": {
      "AccessControlBadConfirmation()": [
        {
          "details": "The caller of a function is not the expected one. NOTE: Don't confuse with {AccessControlUnauthorizedAccount}."
        }
      ],
      "AccessControlUnauthorizedAccount(address,bytes32)": [
        {
          "details": "The `account` is missing a role."
        }
      ],
      "ReentrancyGuardReentrantCall()": [
        {
          "details": "Unauthorized reentrant call."
        }
      ]
    },
    "events": {
      "RoleAdminChanged(bytes32,bytes32,bytes32)": {
        "details": "Emitted when `newAdminRole` is set as ``role``'s admin role, replacing `previousAdminRole` `DEFAULT_ADMIN_ROLE` is the starting admin for all roles, despite {RoleAdminChanged} not being emitted signaling this."
      },
      "RoleGranted(bytes32,address,address)": {
        "details": "Emitted when `account` is granted `role`. `sender` is the account that originated the contract call. This account bears the admin role (for the granted role). Expected in cases where the role was granted using the internal {AccessControl-_grantRole}."
      },
      "RoleRevoked(bytes32,address,address)": {
        "details": "Emitted when `account` is revoked `role`. `sender` is the account that originated the contract call:   - if using `revokeRole`, it is the admin role bearer   - if using `renounceRole`, it is the role bearer (i.e. `account`)"
      }
    },
    "kind": "dev",
    "methods": {
      "getRoleAdmin(bytes32)": {
        "details": "Returns the admin role that controls `role`. See {grantRole} and {revokeRole}. To change a role's admin, use {_setRoleAdmin}."
      },
      "grantRole(bytes32,address)": {
        "details": "Grants `role` to `account`. If `account` had not been already granted `role`, emits a {RoleGranted} event. Requirements: - the caller must have ``role``'s admin role. May emit a {RoleGranted} event."
      },
      "hasRole(bytes32,address)": {
        "details": "Returns `true` if `account` has been granted `role`."
      },
      "renounceRole(bytes32,address)": {
        "details": "Revokes `role` from the calling account. Roles are often managed via {grantRole} and {revokeRole}: this function's purpose is to provide a mechanism for accounts to lose their privileges if they are compromised (such as when a trusted device is misplaced). If the calling account had been revoked `role`, emits a {RoleRevoked} event. Requirements: - the caller must be `callerConfirmation`. May emit a {RoleRevoked} event."
      },
      "revokeRole(bytes32,address)": {
        "details": "Revokes `role` from `account`. If `account` had been granted `role`, emits a {RoleRevoked} event. Requirements: - the caller must have ``role``'s admin role. May emit a {RoleRevoked} event."
      },
      "supportsInterface(bytes4)": {
        "details": "See {IERC165-supportsInterface}."
      }
    },
    "version": 1
  },
  "userdoc": {
    "errors": {
      "InvalidAppId()": [
        {
          "notice": "SpaceFactory "
        }
      ]
    },
    "events": {
      "AppCreated(uint256,address,string,address,uint256)": {
        "notice": "App events "
      },
      "SpaceCreated(uint256,address,address,string,string,string,uint256,address)": {
        "notice": "SpaceFactory events "
      }
    },
    "kind": "user",
    "methods": {},
    "version": 1
  },
  "storageLayout": {
    "storage": [
      {
        "astId": 4784,
        "contract": "contracts/SpaceFactory.sol:SpaceFactory",
        "label": "_status",
        "offset": 0,
        "slot": "0",
        "type": "t_uint256"
      },
      {
        "astId": 26,
        "contract": "contracts/SpaceFactory.sol:SpaceFactory",
        "label": "_roles",
        "offset": 0,
        "slot": "1",
        "type": "t_mapping(t_bytes32,t_struct(RoleData)21_storage)"
      },
      {
        "astId": 12626,
        "contract": "contracts/SpaceFactory.sol:SpaceFactory",
        "label": "price",
        "offset": 0,
        "slot": "2",
        "type": "t_uint256"
      },
      {
        "astId": 12631,
        "contract": "contracts/SpaceFactory.sol:SpaceFactory",
        "label": "referralRewardRate",
        "offset": 0,
        "slot": "3",
        "type": "t_uint256"
      },
      {
        "astId": 12633,
        "contract": "contracts/SpaceFactory.sol:SpaceFactory",
        "label": "appIndex",
        "offset": 0,
        "slot": "4",
        "type": "t_uint256"
      },
      {
        "astId": 12635,
        "contract": "contracts/SpaceFactory.sol:SpaceFactory",
        "label": "spaceIndex",
        "offset": 0,
        "slot": "5",
        "type": "t_uint256"
      },
      {
        "astId": 12637,
        "contract": "contracts/SpaceFactory.sol:SpaceFactory",
        "label": "feeReceiver",
        "offset": 0,
        "slot": "6",
        "type": "t_address"
      },
      {
        "astId": 12652,
        "contract": "contracts/SpaceFactory.sol:SpaceFactory",
        "label": "apps",
        "offset": 0,
        "slot": "7",
        "type": "t_mapping(t_uint256,t_struct(App)13691_storage)"
      },
      {
        "astId": 12657,
        "contract": "contracts/SpaceFactory.sol:SpaceFactory",
        "label": "userSpaces",
        "offset": 0,
        "slot": "8",
        "type": "t_mapping(t_address,t_array(t_address)dyn_storage)"
      },
      {
        "astId": 12661,
        "contract": "contracts/SpaceFactory.sol:SpaceFactory",
        "label": "spaces",
        "offset": 0,
        "slot": "9",
        "type": "t_mapping(t_uint256,t_address)"
      },
      {
        "astId": 12665,
        "contract": "contracts/SpaceFactory.sol:SpaceFactory",
        "label": "spaceToFounder",
        "offset": 0,
        "slot": "10",
        "type": "t_mapping(t_address,t_address)"
      }
    ],
    "types": {
      "t_address": {
        "encoding": "inplace",
        "label": "address",
        "numberOfBytes": "20"
      },
      "t_array(t_address)dyn_storage": {
        "base": "t_address",
        "encoding": "dynamic_array",
        "label": "address[]",
        "numberOfBytes": "32"
      },
      "t_bool": {
        "encoding": "inplace",
        "label": "bool",
        "numberOfBytes": "1"
      },
      "t_bytes32": {
        "encoding": "inplace",
        "label": "bytes32",
        "numberOfBytes": "32"
      },
      "t_mapping(t_address,t_address)": {
        "encoding": "mapping",
        "key": "t_address",
        "label": "mapping(address => address)",
        "numberOfBytes": "32",
        "value": "t_address"
      },
      "t_mapping(t_address,t_array(t_address)dyn_storage)": {
        "encoding": "mapping",
        "key": "t_address",
        "label": "mapping(address => address[])",
        "numberOfBytes": "32",
        "value": "t_array(t_address)dyn_storage"
      },
      "t_mapping(t_address,t_bool)": {
        "encoding": "mapping",
        "key": "t_address",
        "label": "mapping(address => bool)",
        "numberOfBytes": "32",
        "value": "t_bool"
      },
      "t_mapping(t_bytes32,t_struct(RoleData)21_storage)": {
        "encoding": "mapping",
        "key": "t_bytes32",
        "label": "mapping(bytes32 => struct AccessControl.RoleData)",
        "numberOfBytes": "32",
        "value": "t_struct(RoleData)21_storage"
      },
      "t_mapping(t_uint256,t_address)": {
        "encoding": "mapping",
        "key": "t_uint256",
        "label": "mapping(uint256 => address)",
        "numberOfBytes": "32",
        "value": "t_address"
      },
      "t_mapping(t_uint256,t_struct(App)13691_storage)": {
        "encoding": "mapping",
        "key": "t_uint256",
        "label": "mapping(uint256 => struct App)",
        "numberOfBytes": "32",
        "value": "t_struct(App)13691_storage"
      },
      "t_string_storage": {
        "encoding": "bytes",
        "label": "string",
        "numberOfBytes": "32"
      },
      "t_struct(App)13691_storage": {
        "encoding": "inplace",
        "label": "struct App",
        "members": [
          {
            "astId": 13684,
            "contract": "contracts/SpaceFactory.sol:SpaceFactory",
            "label": "creator",
            "offset": 0,
            "slot": "0",
            "type": "t_address"
          },
          {
            "astId": 13686,
            "contract": "contracts/SpaceFactory.sol:SpaceFactory",
            "label": "uri",
            "offset": 0,
            "slot": "1",
            "type": "t_string_storage"
          },
          {
            "astId": 13688,
            "contract": "contracts/SpaceFactory.sol:SpaceFactory",
            "label": "feeReceiver",
            "offset": 0,
            "slot": "2",
            "type": "t_address"
          },
          {
            "astId": 13690,
            "contract": "contracts/SpaceFactory.sol:SpaceFactory",
            "label": "feePercent",
            "offset": 0,
            "slot": "3",
            "type": "t_uint256"
          }
        ],
        "numberOfBytes": "128"
      },
      "t_struct(RoleData)21_storage": {
        "encoding": "inplace",
        "label": "struct AccessControl.RoleData",
        "members": [
          {
            "astId": 18,
            "contract": "contracts/SpaceFactory.sol:SpaceFactory",
            "label": "hasRole",
            "offset": 0,
            "slot": "0",
            "type": "t_mapping(t_address,t_bool)"
          },
          {
            "astId": 20,
            "contract": "contracts/SpaceFactory.sol:SpaceFactory",
            "label": "adminRole",
            "offset": 0,
            "slot": "1",
            "type": "t_bytes32"
          }
        ],
        "numberOfBytes": "64"
      },
      "t_uint256": {
        "encoding": "inplace",
        "label": "uint256",
        "numberOfBytes": "32"
      }
    }
  }
}