{
  "address": "0xd3f4B5Ea0FCAD03338aEf23a10260Be9064DbA84",
  "abi": [
    {
      "inputs": [
        {
          "internalType": "address",
          "name": "_factory",
          "type": "address"
        }
      ],
      "stateMutability": "nonpayable",
      "type": "constructor"
    },
    {
      "stateMutability": "payable",
      "type": "fallback"
    },
    {
      "inputs": [],
      "name": "FACTORY",
      "outputs": [
        {
          "internalType": "address",
          "name": "",
          "type": "address"
        }
      ],
      "stateMutability": "view",
      "type": "function"
    },
    {
      "inputs": [
        {
          "internalType": "address",
          "name": "owner",
          "type": "address"
        }
      ],
      "name": "balanceOf",
      "outputs": [
        {
          "internalType": "uint256",
          "name": "withdrawableETHAmount",
          "type": "uint256"
        }
      ],
      "stateMutability": "view",
      "type": "function"
    },
    {
      "inputs": [],
      "name": "deposit",
      "outputs": [],
      "stateMutability": "nonpayable",
      "type": "function"
    },
    {
      "inputs": [
        {
          "internalType": "address",
          "name": "token",
          "type": "address"
        },
        {
          "internalType": "uint256",
          "name": "amount",
          "type": "uint256"
        }
      ],
      "name": "withdraw",
      "outputs": [],
      "stateMutability": "nonpayable",
      "type": "function"
    },
    {
      "inputs": [
        {
          "internalType": "uint256",
          "name": "depositedETHAmount",
          "type": "uint256"
        }
      ],
      "name": "yieldMaxClaimable",
      "outputs": [
        {
          "internalType": "uint256",
          "name": "maxClaimableETH",
          "type": "uint256"
        }
      ],
      "stateMutability": "view",
      "type": "function"
    },
    {
      "inputs": [],
      "name": "yieldToken",
      "outputs": [
        {
          "internalType": "address",
          "name": "",
          "type": "address"
        }
      ],
      "stateMutability": "view",
      "type": "function"
    },
    {
      "stateMutability": "payable",
      "type": "receive"
    }
  ],
  "transactionHash": "0x36497763d7d96f52d29938229e5c3b86fe1eae3e99e8dd8f79634d4801c6b93e",
  "args": [
    "0xE84bB83424A52229288e703C7e55397a9D5a2F3C"
  ],
  "numDeployments": 1,
  "solcInputHash": "21c8f6229dc7d829b8b6801486d0d9f7",
  "bytecode": "0x60a060405234801561001057600080fd5b5060405161058e38038061058e83398101604081905261002f91610040565b6001600160a01b0316608052610070565b60006020828403121561005257600080fd5b81516001600160a01b038116811461006957600080fd5b9392505050565b6080516104e86100a66000396000818160b2015281816101780152818161021c015281816102bd015261038101526104e86000f3fe6080604052600436106100635760003560e01c806376d5de851161004057806376d5de8514610114578063d0e30db014610129578063f3fef3a31461013e57005b806328e762dd1461006c5780632dd31000146100a057806370a08231146100f957005b3661006a57005b005b34801561007857600080fd5b5061008d610087366004610402565b50600090565b6040519081526020015b60405180910390f35b3480156100ac57600080fd5b506100d47f000000000000000000000000000000000000000000000000000000000000000081565b60405173ffffffffffffffffffffffffffffffffffffffff9091168152602001610097565b34801561010557600080fd5b5061008d610087366004610444565b34801561012057600080fd5b506100d461015e565b34801561013557600080fd5b5061006a610204565b34801561014a57600080fd5b5061006a610159366004610466565b6102a5565b60003373ffffffffffffffffffffffffffffffffffffffff7f00000000000000000000000000000000000000000000000000000000000000001614610087576040517f08c379a000000000000000000000000000000000000000000000000000000000815260206004820152600c60248201527f4f6e6c7920466163746f7279000000000000000000000000000000000000000060448201526064015b60405180910390fd5b3373ffffffffffffffffffffffffffffffffffffffff7f000000000000000000000000000000000000000000000000000000000000000016146102a3576040517f08c379a000000000000000000000000000000000000000000000000000000000815260206004820152600c60248201527f4f6e6c7920466163746f7279000000000000000000000000000000000000000060448201526064016101fb565b565b3373ffffffffffffffffffffffffffffffffffffffff7f00000000000000000000000000000000000000000000000000000000000000001614610344576040517f08c379a000000000000000000000000000000000000000000000000000000000815260206004820152600c60248201527f4f6e6c7920466163746f7279000000000000000000000000000000000000000060448201526064016101fb565b6040517fa9059cbb00000000000000000000000000000000000000000000000000000000815273ffffffffffffffffffffffffffffffffffffffff7f0000000000000000000000000000000000000000000000000000000000000000811660048301526024820183905283169063a9059cbb906044016020604051808303816000875af11580156103d9573d6000803e3d6000fd5b505050506040513d601f19601f820116820180604052508101906103fd9190610490565b505050565b60006020828403121561041457600080fd5b5035919050565b803573ffffffffffffffffffffffffffffffffffffffff8116811461043f57600080fd5b919050565b60006020828403121561045657600080fd5b61045f8261041b565b9392505050565b6000806040838503121561047957600080fd5b6104828361041b565b946020939093013593505050565b6000602082840312156104a257600080fd5b8151801515811461045f57600080fdfea2646970667358221220c8a80fde721d1616aae9940cef4c618a2b6152daa05fc36d3454cf661e85f60264736f6c63430008140033",
  "libraries": {},
  "devdoc": {
    "kind": "dev",
    "methods": {},
    "version": 1
  },
  "userdoc": {
    "kind": "user",
    "methods": {},
    "version": 1
  },
  "storageLayout": {
    "storage": [],
    "types": null
  }
}