{
  "address": "0x2305bD68111f71cE3E5e09f4235Bb784b931707D",
  "abi": [
    {
      "inputs": [
        {
          "internalType": "address",
          "name": "initialOwner",
          "type": "address"
        }
      ],
      "stateMutability": "nonpayable",
      "type": "constructor"
    },
    {
      "inputs": [],
      "name": "AmountIsZero",
      "type": "error"
    },
    {
      "inputs": [],
      "name": "CreationNotFound",
      "type": "error"
    },
    {
      "inputs": [
        {
          "internalType": "address",
          "name": "sender",
          "type": "address"
        },
        {
          "internalType": "uint256",
          "name": "balance",
          "type": "uint256"
        },
        {
          "internalType": "uint256",
          "name": "needed",
          "type": "uint256"
        },
        {
          "internalType": "uint256",
          "name": "tokenId",
          "type": "uint256"
        }
      ],
      "name": "ERC1155InsufficientBalance",
      "type": "error"
    },
    {
      "inputs": [
        {
          "internalType": "address",
          "name": "approver",
          "type": "address"
        }
      ],
      "name": "ERC1155InvalidApprover",
      "type": "error"
    },
    {
      "inputs": [
        {
          "internalType": "uint256",
          "name": "idsLength",
          "type": "uint256"
        },
        {
          "internalType": "uint256",
          "name": "valuesLength",
          "type": "uint256"
        }
      ],
      "name": "ERC1155InvalidArrayLength",
      "type": "error"
    },
    {
      "inputs": [
        {
          "internalType": "address",
          "name": "operator",
          "type": "address"
        }
      ],
      "name": "ERC1155InvalidOperator",
      "type": "error"
    },
    {
      "inputs": [
        {
          "internalType": "address",
          "name": "receiver",
          "type": "address"
        }
      ],
      "name": "ERC1155InvalidReceiver",
      "type": "error"
    },
    {
      "inputs": [
        {
          "internalType": "address",
          "name": "sender",
          "type": "address"
        }
      ],
      "name": "ERC1155InvalidSender",
      "type": "error"
    },
    {
      "inputs": [
        {
          "internalType": "address",
          "name": "operator",
          "type": "address"
        },
        {
          "internalType": "address",
          "name": "owner",
          "type": "address"
        }
      ],
      "name": "ERC1155MissingApprovalForAll",
      "type": "error"
    },
    {
      "inputs": [],
      "name": "InsufficientPayment",
      "type": "error"
    },
    {
      "inputs": [],
      "name": "InvalidFeePercent",
      "type": "error"
    },
    {
      "inputs": [],
      "name": "OnlyCreator",
      "type": "error"
    },
    {
      "inputs": [
        {
          "internalType": "address",
          "name": "owner",
          "type": "address"
        }
      ],
      "name": "OwnableInvalidOwner",
      "type": "error"
    },
    {
      "inputs": [
        {
          "internalType": "address",
          "name": "account",
          "type": "address"
        }
      ],
      "name": "OwnableUnauthorizedAccount",
      "type": "error"
    },
    {
      "inputs": [],
      "name": "PriceIsZero",
      "type": "error"
    },
    {
      "inputs": [],
      "name": "ReentrancyGuardReentrantCall",
      "type": "error"
    },
    {
      "inputs": [],
      "name": "URIIsEmpty",
      "type": "error"
    },
    {
      "anonymous": false,
      "inputs": [
        {
          "indexed": true,
          "internalType": "address",
          "name": "account",
          "type": "address"
        },
        {
          "indexed": true,
          "internalType": "address",
          "name": "operator",
          "type": "address"
        },
        {
          "indexed": false,
          "internalType": "bool",
          "name": "approved",
          "type": "bool"
        }
      ],
      "name": "ApprovalForAll",
      "type": "event"
    },
    {
      "anonymous": false,
      "inputs": [
        {
          "indexed": false,
          "internalType": "uint256",
          "name": "creationId",
          "type": "uint256"
        },
        {
          "indexed": true,
          "internalType": "address",
          "name": "creator",
          "type": "address"
        },
        {
          "indexed": false,
          "internalType": "string",
          "name": "uri",
          "type": "string"
        },
        {
          "indexed": false,
          "internalType": "uint256",
          "name": "price",
          "type": "uint256"
        }
      ],
      "name": "Created",
      "type": "event"
    },
    {
      "anonymous": false,
      "inputs": [
        {
          "indexed": true,
          "internalType": "uint256",
          "name": "creationId",
          "type": "uint256"
        },
        {
          "indexed": true,
          "internalType": "address",
          "name": "creator",
          "type": "address"
        },
        {
          "indexed": false,
          "internalType": "string",
          "name": "uri",
          "type": "string"
        },
        {
          "indexed": false,
          "internalType": "uint256",
          "name": "price",
          "type": "uint256"
        }
      ],
      "name": "CreationUpdated",
      "type": "event"
    },
    {
      "anonymous": false,
      "inputs": [
        {
          "indexed": false,
          "internalType": "uint256",
          "name": "creatorFeePercent",
          "type": "uint256"
        },
        {
          "indexed": false,
          "internalType": "uint256",
          "name": "curatorFeePercent",
          "type": "uint256"
        },
        {
          "indexed": false,
          "internalType": "uint256",
          "name": "protocolFeePercent",
          "type": "uint256"
        }
      ],
      "name": "FeePercentUpdated",
      "type": "event"
    },
    {
      "anonymous": false,
      "inputs": [
        {
          "indexed": true,
          "internalType": "uint256",
          "name": "creationId",
          "type": "uint256"
        },
        {
          "indexed": true,
          "internalType": "address",
          "name": "minter",
          "type": "address"
        },
        {
          "indexed": false,
          "internalType": "address",
          "name": "curator",
          "type": "address"
        },
        {
          "indexed": false,
          "internalType": "uint256",
          "name": "amount",
          "type": "uint256"
        },
        {
          "indexed": false,
          "internalType": "string",
          "name": "mark",
          "type": "string"
        }
      ],
      "name": "Minted",
      "type": "event"
    },
    {
      "anonymous": false,
      "inputs": [
        {
          "indexed": true,
          "internalType": "address",
          "name": "previousOwner",
          "type": "address"
        },
        {
          "indexed": true,
          "internalType": "address",
          "name": "newOwner",
          "type": "address"
        }
      ],
      "name": "OwnershipTransferred",
      "type": "event"
    },
    {
      "anonymous": false,
      "inputs": [
        {
          "indexed": true,
          "internalType": "address",
          "name": "previousFeeTo",
          "type": "address"
        },
        {
          "indexed": true,
          "internalType": "address",
          "name": "newFeeTo",
          "type": "address"
        }
      ],
      "name": "ProtocolFeeToUpdated",
      "type": "event"
    },
    {
      "anonymous": false,
      "inputs": [
        {
          "indexed": true,
          "internalType": "address",
          "name": "operator",
          "type": "address"
        },
        {
          "indexed": true,
          "internalType": "address",
          "name": "from",
          "type": "address"
        },
        {
          "indexed": true,
          "internalType": "address",
          "name": "to",
          "type": "address"
        },
        {
          "indexed": false,
          "internalType": "uint256[]",
          "name": "ids",
          "type": "uint256[]"
        },
        {
          "indexed": false,
          "internalType": "uint256[]",
          "name": "values",
          "type": "uint256[]"
        }
      ],
      "name": "TransferBatch",
      "type": "event"
    },
    {
      "anonymous": false,
      "inputs": [
        {
          "indexed": true,
          "internalType": "address",
          "name": "operator",
          "type": "address"
        },
        {
          "indexed": true,
          "internalType": "address",
          "name": "from",
          "type": "address"
        },
        {
          "indexed": true,
          "internalType": "address",
          "name": "to",
          "type": "address"
        },
        {
          "indexed": false,
          "internalType": "uint256",
          "name": "id",
          "type": "uint256"
        },
        {
          "indexed": false,
          "internalType": "uint256",
          "name": "value",
          "type": "uint256"
        }
      ],
      "name": "TransferSingle",
      "type": "event"
    },
    {
      "anonymous": false,
      "inputs": [
        {
          "indexed": false,
          "internalType": "string",
          "name": "value",
          "type": "string"
        },
        {
          "indexed": true,
          "internalType": "uint256",
          "name": "id",
          "type": "uint256"
        }
      ],
      "name": "URI",
      "type": "event"
    },
    {
      "stateMutability": "payable",
      "type": "fallback"
    },
    {
      "inputs": [
        {
          "internalType": "address",
          "name": "account",
          "type": "address"
        },
        {
          "internalType": "uint256",
          "name": "id",
          "type": "uint256"
        }
      ],
      "name": "balanceOf",
      "outputs": [
        {
          "internalType": "uint256",
          "name": "",
          "type": "uint256"
        }
      ],
      "stateMutability": "view",
      "type": "function"
    },
    {
      "inputs": [
        {
          "internalType": "address[]",
          "name": "accounts",
          "type": "address[]"
        },
        {
          "internalType": "uint256[]",
          "name": "ids",
          "type": "uint256[]"
        }
      ],
      "name": "balanceOfBatch",
      "outputs": [
        {
          "internalType": "uint256[]",
          "name": "",
          "type": "uint256[]"
        }
      ],
      "stateMutability": "view",
      "type": "function"
    },
    {
      "inputs": [
        {
          "internalType": "address",
          "name": "creator",
          "type": "address"
        },
        {
          "internalType": "string",
          "name": "uri",
          "type": "string"
        },
        {
          "internalType": "uint256",
          "name": "price",
          "type": "uint256"
        }
      ],
      "name": "create",
      "outputs": [
        {
          "internalType": "uint256",
          "name": "creationId",
          "type": "uint256"
        }
      ],
      "stateMutability": "nonpayable",
      "type": "function"
    },
    {
      "inputs": [
        {
          "internalType": "address",
          "name": "creator",
          "type": "address"
        },
        {
          "internalType": "string",
          "name": "uri",
          "type": "string"
        },
        {
          "internalType": "uint256",
          "name": "price",
          "type": "uint256"
        },
        {
          "internalType": "uint32",
          "name": "amount",
          "type": "uint32"
        },
        {
          "internalType": "string",
          "name": "mark",
          "type": "string"
        }
      ],
      "name": "createAndMint",
      "outputs": [
        {
          "internalType": "uint256",
          "name": "creationId",
          "type": "uint256"
        }
      ],
      "stateMutability": "payable",
      "type": "function"
    },
    {
      "inputs": [],
      "name": "creationIndex",
      "outputs": [
        {
          "internalType": "uint256",
          "name": "",
          "type": "uint256"
        }
      ],
      "stateMutability": "view",
      "type": "function"
    },
    {
      "inputs": [
        {
          "internalType": "uint256",
          "name": "id",
          "type": "uint256"
        }
      ],
      "name": "creationSupply",
      "outputs": [
        {
          "internalType": "uint256",
          "name": "",
          "type": "uint256"
        }
      ],
      "stateMutability": "view",
      "type": "function"
    },
    {
      "inputs": [
        {
          "internalType": "uint256",
          "name": "",
          "type": "uint256"
        }
      ],
      "name": "creations",
      "outputs": [
        {
          "internalType": "uint256",
          "name": "id",
          "type": "uint256"
        },
        {
          "internalType": "address",
          "name": "creator",
          "type": "address"
        },
        {
          "internalType": "string",
          "name": "uri",
          "type": "string"
        },
        {
          "internalType": "uint256",
          "name": "price",
          "type": "uint256"
        }
      ],
      "stateMutability": "view",
      "type": "function"
    },
    {
      "inputs": [],
      "name": "creatorFeePercent",
      "outputs": [
        {
          "internalType": "uint256",
          "name": "",
          "type": "uint256"
        }
      ],
      "stateMutability": "view",
      "type": "function"
    },
    {
      "inputs": [],
      "name": "curatorFeePercent",
      "outputs": [
        {
          "internalType": "uint256",
          "name": "",
          "type": "uint256"
        }
      ],
      "stateMutability": "view",
      "type": "function"
    },
    {
      "inputs": [],
      "name": "ethAmount",
      "outputs": [
        {
          "internalType": "uint256",
          "name": "",
          "type": "uint256"
        }
      ],
      "stateMutability": "view",
      "type": "function"
    },
    {
      "inputs": [
        {
          "internalType": "uint256",
          "name": "id",
          "type": "uint256"
        }
      ],
      "name": "exists",
      "outputs": [
        {
          "internalType": "bool",
          "name": "",
          "type": "bool"
        }
      ],
      "stateMutability": "view",
      "type": "function"
    },
    {
      "inputs": [
        {
          "internalType": "address",
          "name": "creator",
          "type": "address"
        }
      ],
      "name": "getUserCreations",
      "outputs": [
        {
          "internalType": "uint256[]",
          "name": "",
          "type": "uint256[]"
        }
      ],
      "stateMutability": "view",
      "type": "function"
    },
    {
      "inputs": [
        {
          "internalType": "address",
          "name": "creator",
          "type": "address"
        }
      ],
      "name": "getUserLatestCreation",
      "outputs": [
        {
          "components": [
            {
              "internalType": "uint256",
              "name": "id",
              "type": "uint256"
            },
            {
              "internalType": "address",
              "name": "creator",
              "type": "address"
            },
            {
              "internalType": "string",
              "name": "uri",
              "type": "string"
            },
            {
              "internalType": "uint256",
              "name": "price",
              "type": "uint256"
            }
          ],
          "internalType": "struct Creation",
          "name": "creation",
          "type": "tuple"
        }
      ],
      "stateMutability": "view",
      "type": "function"
    },
    {
      "inputs": [
        {
          "internalType": "address",
          "name": "account",
          "type": "address"
        },
        {
          "internalType": "address",
          "name": "operator",
          "type": "address"
        }
      ],
      "name": "isApprovedForAll",
      "outputs": [
        {
          "internalType": "bool",
          "name": "",
          "type": "bool"
        }
      ],
      "stateMutability": "view",
      "type": "function"
    },
    {
      "inputs": [
        {
          "internalType": "uint256",
          "name": "creationId",
          "type": "uint256"
        },
        {
          "internalType": "uint32",
          "name": "amount",
          "type": "uint32"
        },
        {
          "internalType": "address",
          "name": "curator",
          "type": "address"
        },
        {
          "internalType": "string",
          "name": "mark",
          "type": "string"
        }
      ],
      "name": "mint",
      "outputs": [
        {
          "internalType": "uint256",
          "name": "creatorFee",
          "type": "uint256"
        },
        {
          "internalType": "uint256",
          "name": "protocolFee",
          "type": "uint256"
        },
        {
          "internalType": "uint256",
          "name": "curatorFee",
          "type": "uint256"
        }
      ],
      "stateMutability": "payable",
      "type": "function"
    },
    {
      "inputs": [
        {
          "internalType": "bytes32",
          "name": "id",
          "type": "bytes32"
        }
      ],
      "name": "minted",
      "outputs": [
        {
          "internalType": "bool",
          "name": "",
          "type": "bool"
        }
      ],
      "stateMutability": "view",
      "type": "function"
    },
    {
      "inputs": [],
      "name": "owner",
      "outputs": [
        {
          "internalType": "address",
          "name": "",
          "type": "address"
        }
      ],
      "stateMutability": "view",
      "type": "function"
    },
    {
      "inputs": [],
      "name": "protocolFeePercent",
      "outputs": [
        {
          "internalType": "uint256",
          "name": "",
          "type": "uint256"
        }
      ],
      "stateMutability": "view",
      "type": "function"
    },
    {
      "inputs": [],
      "name": "protocolFeeTo",
      "outputs": [
        {
          "internalType": "address",
          "name": "",
          "type": "address"
        }
      ],
      "stateMutability": "view",
      "type": "function"
    },
    {
      "inputs": [],
      "name": "renounceOwnership",
      "outputs": [],
      "stateMutability": "nonpayable",
      "type": "function"
    },
    {
      "inputs": [
        {
          "internalType": "address",
          "name": "from",
          "type": "address"
        },
        {
          "internalType": "address",
          "name": "to",
          "type": "address"
        },
        {
          "internalType": "uint256[]",
          "name": "ids",
          "type": "uint256[]"
        },
        {
          "internalType": "uint256[]",
          "name": "values",
          "type": "uint256[]"
        },
        {
          "internalType": "bytes",
          "name": "data",
          "type": "bytes"
        }
      ],
      "name": "safeBatchTransferFrom",
      "outputs": [],
      "stateMutability": "nonpayable",
      "type": "function"
    },
    {
      "inputs": [
        {
          "internalType": "address",
          "name": "from",
          "type": "address"
        },
        {
          "internalType": "address",
          "name": "to",
          "type": "address"
        },
        {
          "internalType": "uint256",
          "name": "id",
          "type": "uint256"
        },
        {
          "internalType": "uint256",
          "name": "value",
          "type": "uint256"
        },
        {
          "internalType": "bytes",
          "name": "data",
          "type": "bytes"
        }
      ],
      "name": "safeTransferFrom",
      "outputs": [],
      "stateMutability": "nonpayable",
      "type": "function"
    },
    {
      "inputs": [
        {
          "internalType": "address",
          "name": "operator",
          "type": "address"
        },
        {
          "internalType": "bool",
          "name": "approved",
          "type": "bool"
        }
      ],
      "name": "setApprovalForAll",
      "outputs": [],
      "stateMutability": "nonpayable",
      "type": "function"
    },
    {
      "inputs": [
        {
          "internalType": "uint256",
          "name": "_creatorFeePercent",
          "type": "uint256"
        },
        {
          "internalType": "uint256",
          "name": "_curatorFeePercent",
          "type": "uint256"
        },
        {
          "internalType": "uint256",
          "name": "_protocolFeePercent",
          "type": "uint256"
        }
      ],
      "name": "setFeePercent",
      "outputs": [],
      "stateMutability": "nonpayable",
      "type": "function"
    },
    {
      "inputs": [
        {
          "internalType": "address",
          "name": "_feeTo",
          "type": "address"
        }
      ],
      "name": "setProtocolFeeTo",
      "outputs": [],
      "stateMutability": "nonpayable",
      "type": "function"
    },
    {
      "inputs": [
        {
          "internalType": "bytes4",
          "name": "interfaceId",
          "type": "bytes4"
        }
      ],
      "name": "supportsInterface",
      "outputs": [
        {
          "internalType": "bool",
          "name": "",
          "type": "bool"
        }
      ],
      "stateMutability": "view",
      "type": "function"
    },
    {
      "inputs": [],
      "name": "totalSupply",
      "outputs": [
        {
          "internalType": "uint256",
          "name": "",
          "type": "uint256"
        }
      ],
      "stateMutability": "view",
      "type": "function"
    },
    {
      "inputs": [
        {
          "internalType": "uint256",
          "name": "id",
          "type": "uint256"
        }
      ],
      "name": "totalSupply",
      "outputs": [
        {
          "internalType": "uint256",
          "name": "",
          "type": "uint256"
        }
      ],
      "stateMutability": "view",
      "type": "function"
    },
    {
      "inputs": [
        {
          "internalType": "address",
          "name": "newOwner",
          "type": "address"
        }
      ],
      "name": "transferOwnership",
      "outputs": [],
      "stateMutability": "nonpayable",
      "type": "function"
    },
    {
      "inputs": [
        {
          "internalType": "uint256",
          "name": "id",
          "type": "uint256"
        },
        {
          "internalType": "string",
          "name": "uri",
          "type": "string"
        },
        {
          "internalType": "uint256",
          "name": "price",
          "type": "uint256"
        }
      ],
      "name": "updateCreation",
      "outputs": [],
      "stateMutability": "nonpayable",
      "type": "function"
    },
    {
      "inputs": [
        {
          "internalType": "uint256",
          "name": "",
          "type": "uint256"
        }
      ],
      "name": "uri",
      "outputs": [
        {
          "internalType": "string",
          "name": "",
          "type": "string"
        }
      ],
      "stateMutability": "view",
      "type": "function"
    },
    {
      "inputs": [
        {
          "internalType": "address",
          "name": "",
          "type": "address"
        },
        {
          "internalType": "uint256",
          "name": "",
          "type": "uint256"
        }
      ],
      "name": "userCreations",
      "outputs": [
        {
          "internalType": "uint256",
          "name": "",
          "type": "uint256"
        }
      ],
      "stateMutability": "view",
      "type": "function"
    },
    {
      "stateMutability": "payable",
      "type": "receive"
    }
  ],
  "transactionHash": "0x0a2d9a475a0579f3186cab2a3714a84aa210143c58ca3863bb475cb57f147650",
  "args": [
    "0x45aBBC64421a54CbffF878985AE6c4F0cfacfDb7"
  ],
  "numDeployments": 5,
  "solcInputHash": "8c9b5eee8d6ae7e0cb71d11e1c67a101",
  "bytecode": "0x6080346200028457601f19906001600160401b039062002ac938819003601f810185168301848111848210176200026e578392829160405283396020928391810103126200028457516001600160a01b038082169490939091859003620002845760405191838301838110838211176200026e576040526000928381528615620002555783546001600160a01b031980821689178655968891167f8be0079c531659141344cd1fd0a4f28419497f9722a3daafe3b4186f6b6457e08680a3805192831162000241576003938454956001968781811c9116801562000236575b8282101462000222579081601f879695949311620001c7575b508093601f8611600114620001645750509262000158575b505060001982841b1c191690831b1790555b6006556706f05b59d3b200006007556703782dace9d9000080600855600955600c541617600c5560405161283f90816200028a8239f35b0151905038806200010f565b8783528183208997909594939116915b828210620001ad575050841162000194575b505050811b01905562000121565b015160001983861b60f8161c1916905538808062000186565b848401518655899790950194938401939081019062000174565b909192939450868352818320601f870160051c81019183881062000217575b87969594939291601f8b920160051c01915b82811062000208575050620000f7565b8481558897508a9101620001f8565b9091508190620001e6565b634e487b7160e01b83526022600452602483fd5b90607f1690620000de565b634e487b7160e01b84526041600452602484fd5b604051631e4fbdf760e01b815260048101859052602490fd5b634e487b7160e01b600052604160045260246000fd5b600080fdfe60806040526004361015610018575b361561001657005b005b60003560e01c8062fdd58e1461021257806301ffc9a71461020d5780630d909225146102085780630e89341c1461020357806318160ddd146101fe578063269ba52c146101f95780632eb2c2d6146101f4578063410d3c02146101a457806343e235ff146101ef5780634d121ec1146101ea5780634e1273f4146101e55780634f558e79146101e057806353613dd3146101db57806358c5a01c146101d65780635efdf628146101d15780636ac3f254146101cc578063715018a6146101c757806383cc95fb146101c25780638557a531146101bd5780638ccc5f80146101b85780638da5cb5b146101b3578063a22cb465146101ae578063ba8ff04a146101a9578063bd85b039146101a4578063c98166c01461019f578063d6e6eb9f1461019a578063e0e6799f14610195578063e985e9c514610190578063ef3692521461018b578063f242432a14610186578063f2fde38b146101815763f534207e0361000e5761163e565b611592565b611465565b61143e565b6113dc565b61136b565b61134d565b61132f565b610844565b6112de565b611208565b6111e1565b6111b0565b611141565b610f50565b610ee6565b610e20565b610d3a565b610a66565b6109f4565b6109c6565b610917565b6108f9565b6108a3565b61070c565b610537565b6104d1565b6103ea565b61038c565b6102d2565b610272565b600435906001600160a01b038216820361022d57565b600080fd5b602435906001600160a01b038216820361022d57565b604435906001600160a01b038216820361022d57565b35906001600160a01b038216820361022d57565b3461022d57604036600319011261022d5760206102b7610290610217565b602435600052600183526040600020906001600160a01b0316600052602052604060002090565b54604051908152f35b6001600160e01b031981160361022d57565b3461022d57602036600319011261022d5760206001600160e01b03196004356102fa816102c0565b167fd9b67a26000000000000000000000000000000000000000000000000000000008114908115610362575b8115610338575b506040519015158152f35b7f01ffc9a7000000000000000000000000000000000000000000000000000000009150143861032d565b7f0e89341c0000000000000000000000000000000000000000000000000000000081149150610326565b3461022d57600036600319011261022d576020600854604051908152f35b919082519283825260005b8481106103d6575050826000602080949584010152601f8019910116010190565b6020818301810151848301820152016103b5565b3461022d5760208060031936011261022d57604051906000826003549161041083611064565b92838352600190856001821691826000146104b1575050600114610454575b5061043c925003836105f5565b6104506040519282849384528301906103aa565b0390f35b84915060036000527fc2575a0e9e593c00f959f8c92f12db2869c3395a3b0502d05e2516446f71f85b906000915b85831061049957505061043c93508201013861042f565b80548389018501528794508693909201918101610482565b60ff19168582015261043c95151560051b850101925038915061042f9050565b3461022d57600036600319011261022d576020600554604051908152f35b90815180825260208080930193019160005b82811061050f575050505090565b835185529381019392810192600101610501565b9060206105349281815201906104ef565b90565b3461022d5760208060031936011261022d576001600160a01b03610559610217565b16600052600e6020526040600020906040519081602084549182815201936000526020600020916000905b8282106105a7576104508561059b818903826105f5565b60405191829182610523565b835486529485019460019384019390910190610584565b634e487b7160e01b600052604160045260246000fd5b6080810190811067ffffffffffffffff8211176105f057604052565b6105be565b90601f8019910116810190811067ffffffffffffffff8211176105f057604052565b60405190610624826105d4565b565b67ffffffffffffffff81116105f05760051b60200190565b9080601f8301121561022d57602090823561065881610626565b9361066660405195866105f5565b81855260208086019260051b82010192831161022d57602001905b82821061068f575050505090565b81358152908301908301610681565b67ffffffffffffffff81116105f057601f01601f191660200190565b9291926106c68261069e565b916106d460405193846105f5565b82948184528183011161022d578281602093846000960137010152565b9080601f8301121561022d57816020610534933591016106ba565b3461022d5760a036600319011261022d57610725610217565b61072d610232565b906044359167ffffffffffffffff9081841161022d576107526004943690860161063e565b9060643583811161022d5761076a903690870161063e565b9260843590811161022d5761078290369087016106f1565b936001600160a01b0380821690338214158061080f575b6107e2578316156107ca57156107b35761001695506120c4565b602486600060405191626a0d4560e21b8352820152fd5b602487600060405191632bfa23e760e11b8352820152fd5b6040805163711bec9160e11b815233818b019081526001600160a01b038616602082015290918291010390fd5b5081600052600260205260ff61083c336040600020906001600160a01b0316600052602052604060002090565b541615610799565b3461022d57602036600319011261022d5760043560005260046020526020604060002054604051908152f35b634e487b7160e01b600052603260045260246000fd5b805482101561089e5760005260206000200190600090565b610870565b3461022d57604036600319011261022d576108bc610217565b6001600160a01b036024359116600052600e6020526040600020805482101561022d576020916108eb91610886565b90546040519160031b1c8152f35b3461022d57600036600319011261022d576020600a54604051908152f35b3461022d57604036600319011261022d5760043567ffffffffffffffff80821161022d573660238301121561022d57816004013561095481610626565b9261096260405194856105f5565b8184526020916024602086019160051b8301019136831161022d57602401905b8282106109af578560243586811161022d57610450916109a961059b92369060040161063e565b90611920565b8380916109bb8461025e565b815201910190610982565b3461022d57602036600319011261022d57600435600052600460205260206040600020541515604051908152f35b3461022d57600036600319011261022d576020600754604051908152f35b9181601f8401121561022d5782359167ffffffffffffffff831161022d576020838186019501011161022d57565b6064359063ffffffff8216820361022d57565b6024359063ffffffff8216820361022d57565b60a036600319011261022d57610a7a610217565b60243567ffffffffffffffff9182821161022d57610a9d60049236908401610a12565b93610aa6610a40565b9260843591821161022d57610ac1610acd9236908701610a12565b96909360443592611d65565b92600260065414610ce957600260065563ffffffff83168015610cd957600a54851015610cc957610b10610b0b86600052600d602052604060002090565b611a10565b610b1e826060830151611e94565b92833410610ca1575092610c327f569d5c5126644b425a2f9c92ccaae5b406b4624ad13d8e4dbe585d71ec607e1493610c2c6104509994610c088a98610bf78a610bf26020610b80610b726009548b611e94565b670de0b6b3a7640000900490565b94610b8b868b611a03565b6040805184810196875233602088015291959190610bb690829084015b03601f1981018352826105f5565b519020610bde610bda610bd383600052600f602052604060002090565b5460ff1690565b1590565b610c77575b5001516001600160a01b031690565b611f8e565b600c546001600160a01b0316611f8e565b610c1c610c1784600b54611a52565b600b55565b610c24611ea7565b908833611fea565b34611a03565b80610c67575b50610c4a604051928392339784611ecb565b0390a3610c576001600655565b6040519081529081906020820190565b610c719033611f8e565b38610c38565b610c8e610c9b91600052600f602052604060002090565b805460ff19166001179055565b38610be3565b6040517fcd1c8867000000000000000000000000000000000000000000000000000000008152fd5b50604051636c8ce18b60e11b8152fd5b506040516310eb483f60e21b8152fd5b604051633ee5aeb560e01b8152fd5b60208152815160208201526001600160a01b03602083015116604082015260806060610d316040850151838386015260a08501906103aa565b93015191015290565b3461022d5760208060031936011261022d57610d54610217565b6001600160a01b03600060405190610d6b826105d4565b80825280858301526060604083015260608201529116600052600e8252604060002091604051908181855491828152019460005281600020916000905b828210610e09576104508686610dc0818b03826105f5565b805180610dd6575b505060405191829182610cf8565b610e029250610b0b91610deb610df1926119f4565b9061190c565b51600052600d602052604060002090565b8280610dc8565b835487529586019560019384019390910190610da8565b3461022d57606036600319011261022d57604435602435600435610e42611f1a565b818101808211610ee157838101809111610ee157670de0b6b3a764000003610eb757610eb27f06ba885d32912ea74c2edf9aac567175b8fcbbe2ad391d7e219d665b4a689ca993826007558360085580600955604051938493846040919493926060820195825260208201520152565b0390a1005b60046040517f8a81d3b3000000000000000000000000000000000000000000000000000000008152fd5b6119de565b3461022d57600080600319360112610f4d57610f00611f1a565b806001600160a01b03815473ffffffffffffffffffffffffffffffffffffffff1981168355167f8be0079c531659141344cd1fd0a4f28419497f9722a3daafe3b4186f6b6457e08280a380f35b80fd5b3461022d57606036600319011261022d5760243567ffffffffffffffff811161022d57610f81903690600401610a12565b9060443591610f9c600435600052600d602052604060002090565b9060018201926001600160a01b039283610fbd86546001600160a01b031690565b168015611053573303611029577f2703bcacc469291cc6493fdbe6c24dc15ea96b2489ddfc1769896dbb1f9d4b5b9361101682611001868660026110249701611ab5565b8860038201555496546001600160a01b031690565b169560405193849384611ba5565b0390a3005b60046040517f47bc7cc8000000000000000000000000000000000000000000000000000000008152fd5b6004604051636c8ce18b60e11b8152fd5b90600182811c92168015611094575b602083101461107e57565b634e487b7160e01b600052602260045260246000fd5b91607f1691611073565b906040519182600082546110b181611064565b9081845260209460019160018116908160001461111f57506001146110e0575b505050610624925003836105f5565b600090815285812095935091905b81831061110757505061062493508201013880806110d1565b855488840185015294850194879450918301916110ee565b9250505061062494925060ff191682840152151560051b8201013880806110d1565b3461022d57602036600319011261022d57600435600052600d602052604060002080546001600160a01b03600183015416916111a660036111846002840161109e565b92015491604051948594855260208501526080604085015260808401906103aa565b9060608301520390f35b3461022d57602036600319011261022d57600435600052600f602052602060ff604060002054166040519015158152f35b3461022d57600036600319011261022d5760206001600160a01b0360005416604051908152f35b3461022d57604036600319011261022d57611221610217565b602435908115159081830361022d576001600160a01b0381169283156112ad5761126e61127f923360005260026020526040600020906001600160a01b0316600052602052604060002090565b9060ff801983541691151516179055565b6040519081527f17307eab39ab6107e8899845ad3d59bd9653f200f220920489ca2b5937696c3160203392a3005b60246040517fced3e10000000000000000000000000000000000000000000000000000000000815260006004820152fd5b3461022d57606036600319011261022d576112f7610217565b60243567ffffffffffffffff811161022d5760209161131d611327923690600401610a12565b9060443592611d65565b604051908152f35b3461022d57600036600319011261022d576020600b54604051908152f35b3461022d57600036600319011261022d576020600954604051908152f35b3461022d57602036600319011261022d576001600160a01b0361138c610217565b611394611f1a565b168073ffffffffffffffffffffffffffffffffffffffff19600c541617600c55807fdc99a16aa686e03e551f2993b0cb279e2638cebde991551598b75177d21ef7c2600080a3005b3461022d57604036600319011261022d57602060ff6114326113fc610217565b6001600160a01b0361140c610232565b9116600052600284526040600020906001600160a01b0316600052602052604060002090565b54166040519015158152f35b3461022d57600036600319011261022d5760206001600160a01b03600c5416604051908152f35b3461022d5760a036600319011261022d5761147e610217565b611486610232565b60843567ffffffffffffffff811161022d576114a69036906004016106f1565b906001600160a01b0380841690338214158061155d575b6115365782161561151e571561150757610016926114ff6064356044359160405192600184526020840152604083019160018352606084015260808301604052565b9290916120c4565b6024604051626a0d4560e21b815260006004820152fd5b6024604051632bfa23e760e11b815260006004820152fd5b60405163711bec9160e11b81523360048201526001600160a01b0386166024820152604490fd5b5081600052600260205260ff61158a336040600020906001600160a01b0316600052602052604060002090565b5416156114bd565b3461022d57602036600319011261022d576115ab610217565b6115b3611f1a565b6001600160a01b03809116801561160d5760009182548273ffffffffffffffffffffffffffffffffffffffff198216178455167f8be0079c531659141344cd1fd0a4f28419497f9722a3daafe3b4186f6b6457e08380a380f35b60246040517f1e4fbdf700000000000000000000000000000000000000000000000000000000815260006004820152fd5b608036600319011261022d5760048035611656610a53565b61165e610248565b60643567ffffffffffffffff811161022d5761167d9036908601610a12565b9190936002600654146118cf57600260065563ffffffff84169384156118bf57600a548210156118af576116be610b0b83600052600d602052604060002090565b956116cd866060890151611e94565b97883410610ca157506001600160a01b03841615159182611861575b6116f8610b726009548b611e94565b9889936000901561185b5750611713610b7260085483611e94565b965b876117208684611a03565b9061172a91611a03565b998a9260405160208101908033611758908c859092916001600160a01b036020916040840195845216910152565b03601f198101825261176a90826105f5565b51902061178181600052600f602052604060002090565b5460ff16159b6117d87f569d5c5126644b425a2f9c92ccaae5b406b4624ad13d8e4dbe585d71ec607e1499610bf76104509f98610bf260206117fd99610c2c986118129d610c77575001516001600160a01b031690565b8b61184c575b6117ed610c1784600b54611a52565b6117f5611ea7565b908a33611fea565b8061183c575b50604051938493339885611eef565b0390a361181f6001600655565b604051938493846040919493926060820195825260208201520152565b6118469033611f8e565b38611803565b6118568c8c611f8e565b6117de565b96611715565b91506118a9610bd3604051602081019061189681610ba88a8a869092916001600160a01b036020916040840195845216910152565b519020600052600f602052604060002090565b916116e9565b86604051636c8ce18b60e11b8152fd5b866040516310eb483f60e21b8152fd5b85604051633ee5aeb560e01b8152fd5b6119089160005260016020526040600020906001600160a01b0316600052602052604060002090565b5490565b805182101561089e5760209160051b010190565b919091805183518082036119a357505080519061195561193f83610626565b9261194d60405194856105f5565b808452610626565b60209190601f1901368484013760005b815181101561199b578061198a60019260051b85808287010151918a010151906118df565b611994828761190c565b5201611965565b509193505050565b6040517f5b05999100000000000000000000000000000000000000000000000000000000815260048101919091526024810191909152604490fd5b634e487b7160e01b600052601160045260246000fd5b600019810191908211610ee157565b91908203918211610ee157565b90604051611a1d816105d4565b606060038294805484526001600160a01b036001820154166020850152611a466002820161109e565b60408501520154910152565b91908201809211610ee157565b90601f8111611a6d57505050565b6000916000526020600020906020601f850160051c83019410611aab575b601f0160051c01915b828110611aa057505050565b818155600101611a94565b9092508290611a8b565b90929167ffffffffffffffff81116105f057611adb81611ad58454611064565b84611a5f565b6000601f8211600114611b1c578190611b0d939495600092611b11575b50508160011b916000199060031b1c19161790565b9055565b013590503880611af8565b601f19821694611b3184600052602060002090565b91805b878110611b6c575083600195969710611b52575b505050811b019055565b0135600019600384901b60f8161c19169055388080611b48565b90926020600181928686013581550194019101611b34565b908060209392818452848401376000828201840152601f01601f1916010190565b939291602091611bbd91604087526040870191611b84565b930152565b90805182556001602090611c096001600160a01b0360208501511660018601906001600160a01b031673ffffffffffffffffffffffffffffffffffffffff19825416179055565b6002840191604084015180519267ffffffffffffffff84116105f057611c3984611c338754611064565b87611a5f565b602092601f8511600114611c87575050826003959360609593611c7293600092611c7c5750508160011b916000199060031b1c19161790565b90555b0151910155565b015190503880611af8565b929190601f19851690611c9f87600052602060002090565b946000915b838310611ce757505050926001928592600398966060989610611ccf575b505050811b019055611c75565b015160001983891b60f8161c19169055388080611cc2565b848601518755958601959481019491810191611ca4565b8054680100000000000000008110156105f057611d2091600182018155610886565b819291549060031b91821b91600019901b1916179055565b6000198114610ee15760010190565b94939291604092611bbd928752606060208801526060870191611b84565b909193928015611e6a578415611e40577f7944c1b2905674d3a97e3f23338827f71f6660e1453ee6521ad20c5dfb75d74691611e3b6001600160a01b0392600a5497611df3611db2610617565b8a81526001600160a01b0386166020820152611dcf36848b6106ba565b6040820152836060820152611dee8b600052600d602052604060002090565b611bc2565b611e1989611e14866001600160a01b0316600052600e602052604060002090565b611cfe565b611e2c611e27600a54611d38565b600a55565b60405194859416968985611d47565b0390a2565b60046040517f0b63559e000000000000000000000000000000000000000000000000000000008152fd5b60046040517f907adecd000000000000000000000000000000000000000000000000000000008152fd5b81810292918115918404141715610ee157565b604051906020820182811067ffffffffffffffff8211176105f05760405260008252565b60609063ffffffff6105349593600083521660208201528160408201520191611b84565b63ffffffff61053495936001600160a01b036060941683521660208201528160408201520191611b84565b6001600160a01b03600054163303611f2e57565b60246040517f118cdaa7000000000000000000000000000000000000000000000000000000008152336004820152fd5b3d15611f89573d90611f6f8261069e565b91611f7d60405193846105f5565b82523d6000602084013e565b606090565b600080809381935af1611f9f611f5e565b5015611fa757565b60646040517f08c379a00000000000000000000000000000000000000000000000000000000081526020600482015260026024820152612a2360f11b6044820152fd5b93916001600160a01b0385161561151e5761202260405192600184526020840152604083019160018352606084015260808301604052565b909161202f82848761251a565b600094855b84518710156120825761207a6001918860051b90612068602080848a010151938a0101516000526004602052604060002090565b612073838254611a52565b9055611a52565b960195612034565b61209c91959492965061209790600554611a52565b600555565b80516001036120ba5790602080610624959301519101519133612489565b610624933361228b565b919392906120d48286838661264c565b6001600160a01b0380841615612193575b81161580612132575b156120fb575b5050505050565b84516001036121215760208061211796015192015192336124be565b38808080806120f4565b61212d94919233612386565b612117565b94936000939091845b865186101561217b576001908660051b9061216c602080848a010151938b0101516000526004602052604060002090565b8281540390550195019461213b565b61218e9193969792955060055403600555565b6120ee565b959192600094916000955b87518710156121da576121d26001918860051b90612068602080848c010151938d0101516000526004602052604060002090565b96019561219e565b6121f291939650612097909892959498600554611a52565b6120e5565b9081602091031261022d5751610534816102c0565b9261223c61053495936001600160a01b0361224a941686526000602087015260a0604087015260a08601906104ef565b9084820360608601526104ef565b9160808184039101526103aa565b9390610534959361223c9161224a946001600160a01b03809216885216602087015260a0604087015260a08601906104ef565b9293919093843b61229d575050505050565b6020916122c0604051948593849363bc197c8160e01b988986526004860161220c565b038160006001600160a01b0388165af160009181612355575b5061231857826122e7611f5e565b805191908261231157604051632bfa23e760e11b81526001600160a01b0383166004820152602490fd5b9050602001fd5b6001600160e01b03191603612332575038808080806120f4565b604051632bfa23e760e11b81526001600160a01b03919091166004820152602490fd5b61237891925060203d60201161237f575b61237081836105f5565b8101906121f7565b90386122d9565b503d612366565b939290949194853b61239b575b505050505050565b6123be602093604051958694859463bc197c8160e01b998a875260048701612258565b038160006001600160a01b0388165af160009181612400575b506123e557826122e7611f5e565b6001600160e01b031916036123325750388080808080612393565b61241a91925060203d60201161237f5761237081836105f5565b90386123d7565b909260a0926001600160a01b036105349695168352600060208401526040830152606082015281608082015201906103aa565b919261053495949160a0946001600160a01b0380921685521660208401526040830152606082015281608082015201906103aa565b9293919093843b61249b575050505050565b6020916122c0604051948593849363f23a6e6160e01b9889865260048601612421565b939290949194853b6124d257505050505050565b6123be602093604051958694859463f23a6e6160e01b998a875260048701612454565b909161250c610534936040845260408401906104ef565b9160208184039101526104ef565b91909182518251908181036119a357505060005b83518110156125aa578060019160051b8360208083890101519287010151916001600160a01b038216612565575b5050500161252e565b6125a091612580612598926000526001602052604060002090565b906001600160a01b0316600052602052604060002090565b918254611a52565b905538838161255c565b5091600181511460001461260c576020908101519181015160408051938452918301526001600160a01b03929092169160009133917fc3d58168c5ae7397731d063d5bbf3d657854427343f4c083240f7aacaa2d0f629190819081015b0390a4565b7f4a39dc06d4c0dbc64b70af90fd698a233a518aa5d07e595d983b8c0526c8f7fb6001600160a01b036000939461260760405192839216963395836124f5565b93929180518351908181036119a357505060005b8151811015612764578060051b9060208083850101519286010151846001600160a01b0393848a166126c5575b60019482166126a0575b50505001612660565b6126bb91612580612598926000526001602052604060002090565b9055388481612697565b91929390506126e289612580846000526001602052604060002090565b54838110612714579186918460019695940361270c8c612580856000526001602052604060002090565b55945061268d565b6040517f03dee4c50000000000000000000000000000000000000000000000000000000081526001600160a01b038b16600482015260248101919091526044810184905260648101839052608490fd5b5080519394939192916001036127c6576020908101519181015160408051938452918301526001600160a01b03928316939092169133917fc3d58168c5ae7397731d063d5bbf3d657854427343f4c083240f7aacaa2d0f629181908101612607565b90917f4a39dc06d4c0dbc64b70af90fd698a233a518aa5d07e595d983b8c0526c8f7fb906001600160a01b039061260782604051938493169716953395836124f556fea264697066735822122083af40abd6d973a84a56f01d66e3246cea25342b63ddad43b667496845fdcf5364736f6c63430008160033",
  "libraries": {},
  "devdoc": {
    "errors": {
      "ERC1155InsufficientBalance(address,uint256,uint256,uint256)": [
        {
          "details": "Indicates an error related to the current `balance` of a `sender`. Used in transfers.",
          "params": {
            "balance": "Current balance for the interacting account.",
            "needed": "Minimum amount required to perform a transfer.",
            "sender": "Address whose tokens are being transferred.",
            "tokenId": "Identifier number of a token."
          }
        }
      ],
      "ERC1155InvalidApprover(address)": [
        {
          "details": "Indicates a failure with the `approver` of a token to be approved. Used in approvals.",
          "params": {
            "approver": "Address initiating an approval operation."
          }
        }
      ],
      "ERC1155InvalidArrayLength(uint256,uint256)": [
        {
          "details": "Indicates an array length mismatch between ids and values in a safeBatchTransferFrom operation. Used in batch transfers.",
          "params": {
            "idsLength": "Length of the array of token identifiers",
            "valuesLength": "Length of the array of token amounts"
          }
        }
      ],
      "ERC1155InvalidOperator(address)": [
        {
          "details": "Indicates a failure with the `operator` to be approved. Used in approvals.",
          "params": {
            "operator": "Address that may be allowed to operate on tokens without being their owner."
          }
        }
      ],
      "ERC1155InvalidReceiver(address)": [
        {
          "details": "Indicates a failure with the token `receiver`. Used in transfers.",
          "params": {
            "receiver": "Address to which tokens are being transferred."
          }
        }
      ],
      "ERC1155InvalidSender(address)": [
        {
          "details": "Indicates a failure with the token `sender`. Used in transfers.",
          "params": {
            "sender": "Address whose tokens are being transferred."
          }
        }
      ],
      "ERC1155MissingApprovalForAll(address,address)": [
        {
          "details": "Indicates a failure with the `operator`s approval. Used in transfers.",
          "params": {
            "operator": "Address that may be allowed to operate on tokens without being their owner.",
            "owner": "Address of the current owner of a token."
          }
        }
      ],
      "OwnableInvalidOwner(address)": [
        {
          "details": "The owner is not a valid owner account. (eg. `address(0)`)"
        }
      ],
      "OwnableUnauthorizedAccount(address)": [
        {
          "details": "The caller account is not authorized to perform an operation."
        }
      ],
      "ReentrancyGuardReentrantCall()": [
        {
          "details": "Unauthorized reentrant call."
        }
      ]
    },
    "events": {
      "ApprovalForAll(address,address,bool)": {
        "details": "Emitted when `account` grants or revokes permission to `operator` to transfer their tokens, according to `approved`."
      },
      "TransferBatch(address,address,address,uint256[],uint256[])": {
        "details": "Equivalent to multiple {TransferSingle} events, where `operator`, `from` and `to` are the same for all transfers."
      },
      "TransferSingle(address,address,address,uint256,uint256)": {
        "details": "Emitted when `value` amount of tokens of type `id` are transferred from `from` to `to` by `operator`."
      },
      "URI(string,uint256)": {
        "details": "Emitted when the URI for token type `id` changes to `value`, if it is a non-programmatic URI. If an {URI} event was emitted for `id`, the standard https://eips.ethereum.org/EIPS/eip-1155#metadata-extensions[guarantees] that `value` will equal the value returned by {IERC1155MetadataURI-uri}."
      }
    },
    "kind": "dev",
    "methods": {
      "balanceOf(address,uint256)": {
        "details": "See {IERC1155-balanceOf}."
      },
      "balanceOfBatch(address[],uint256[])": {
        "details": "See {IERC1155-balanceOfBatch}. Requirements: - `accounts` and `ids` must have the same length."
      },
      "exists(uint256)": {
        "details": "Indicates whether any token exist with a given id, or not."
      },
      "isApprovedForAll(address,address)": {
        "details": "See {IERC1155-isApprovedForAll}."
      },
      "owner()": {
        "details": "Returns the address of the current owner."
      },
      "renounceOwnership()": {
        "details": "Leaves the contract without owner. It will not be possible to call `onlyOwner` functions. Can only be called by the current owner. NOTE: Renouncing ownership will leave the contract without an owner, thereby disabling any functionality that is only available to the owner."
      },
      "safeBatchTransferFrom(address,address,uint256[],uint256[],bytes)": {
        "details": "See {IERC1155-safeBatchTransferFrom}."
      },
      "safeTransferFrom(address,address,uint256,uint256,bytes)": {
        "details": "See {IERC1155-safeTransferFrom}."
      },
      "setApprovalForAll(address,bool)": {
        "details": "See {IERC1155-setApprovalForAll}."
      },
      "supportsInterface(bytes4)": {
        "details": "See {IERC165-supportsInterface}."
      },
      "totalSupply()": {
        "details": "Total value of tokens."
      },
      "totalSupply(uint256)": {
        "details": "Total value of tokens in with a given id."
      },
      "transferOwnership(address)": {
        "details": "Transfers ownership of the contract to a new account (`newOwner`). Can only be called by the current owner."
      },
      "uri(uint256)": {
        "details": "See {IERC1155MetadataURI-uri}. This implementation returns the same URI for *all* token types. It relies on the token type ID substitution mechanism https://eips.ethereum.org/EIPS/eip-1155#metadata[defined in the ERC]. Clients calling this function must replace the `\\{id\\}` substring with the actual token type ID."
      }
    },
    "version": 1
  },
  "userdoc": {
    "errors": {
      "AmountIsZero()": [
        {
          "notice": "common "
        }
      ],
      "URIIsEmpty()": [
        {
          "notice": "CreationFactory "
        }
      ]
    },
    "kind": "user",
    "methods": {},
    "version": 1
  },
  "storageLayout": {
    "storage": [
      {
        "astId": 387,
        "contract": "contracts/CreationFactory.sol:CreationFactory",
        "label": "_owner",
        "offset": 0,
        "slot": "0",
        "type": "t_address"
      },
      {
        "astId": 820,
        "contract": "contracts/CreationFactory.sol:CreationFactory",
        "label": "_balances",
        "offset": 0,
        "slot": "1",
        "type": "t_mapping(t_uint256,t_mapping(t_address,t_uint256))"
      },
      {
        "astId": 826,
        "contract": "contracts/CreationFactory.sol:CreationFactory",
        "label": "_operatorApprovals",
        "offset": 0,
        "slot": "2",
        "type": "t_mapping(t_address,t_mapping(t_address,t_bool))"
      },
      {
        "astId": 828,
        "contract": "contracts/CreationFactory.sol:CreationFactory",
        "label": "_uri",
        "offset": 0,
        "slot": "3",
        "type": "t_string_storage"
      },
      {
        "astId": 1877,
        "contract": "contracts/CreationFactory.sol:CreationFactory",
        "label": "_totalSupply",
        "offset": 0,
        "slot": "4",
        "type": "t_mapping(t_uint256,t_uint256)"
      },
      {
        "astId": 1879,
        "contract": "contracts/CreationFactory.sol:CreationFactory",
        "label": "_totalSupplyAll",
        "offset": 0,
        "slot": "5",
        "type": "t_uint256"
      },
      {
        "astId": 4784,
        "contract": "contracts/CreationFactory.sol:CreationFactory",
        "label": "_status",
        "offset": 0,
        "slot": "6",
        "type": "t_uint256"
      },
      {
        "astId": 10468,
        "contract": "contracts/CreationFactory.sol:CreationFactory",
        "label": "creatorFeePercent",
        "offset": 0,
        "slot": "7",
        "type": "t_uint256"
      },
      {
        "astId": 10471,
        "contract": "contracts/CreationFactory.sol:CreationFactory",
        "label": "curatorFeePercent",
        "offset": 0,
        "slot": "8",
        "type": "t_uint256"
      },
      {
        "astId": 10474,
        "contract": "contracts/CreationFactory.sol:CreationFactory",
        "label": "protocolFeePercent",
        "offset": 0,
        "slot": "9",
        "type": "t_uint256"
      },
      {
        "astId": 10476,
        "contract": "contracts/CreationFactory.sol:CreationFactory",
        "label": "creationIndex",
        "offset": 0,
        "slot": "10",
        "type": "t_uint256"
      },
      {
        "astId": 10478,
        "contract": "contracts/CreationFactory.sol:CreationFactory",
        "label": "ethAmount",
        "offset": 0,
        "slot": "11",
        "type": "t_uint256"
      },
      {
        "astId": 10480,
        "contract": "contracts/CreationFactory.sol:CreationFactory",
        "label": "protocolFeeTo",
        "offset": 0,
        "slot": "12",
        "type": "t_address"
      },
      {
        "astId": 10485,
        "contract": "contracts/CreationFactory.sol:CreationFactory",
        "label": "creations",
        "offset": 0,
        "slot": "13",
        "type": "t_mapping(t_uint256,t_struct(Creation)13182_storage)"
      },
      {
        "astId": 10490,
        "contract": "contracts/CreationFactory.sol:CreationFactory",
        "label": "userCreations",
        "offset": 0,
        "slot": "14",
        "type": "t_mapping(t_address,t_array(t_uint256)dyn_storage)"
      },
      {
        "astId": 10494,
        "contract": "contracts/CreationFactory.sol:CreationFactory",
        "label": "minted",
        "offset": 0,
        "slot": "15",
        "type": "t_mapping(t_bytes32,t_bool)"
      }
    ],
    "types": {
      "t_address": {
        "encoding": "inplace",
        "label": "address",
        "numberOfBytes": "20"
      },
      "t_array(t_uint256)dyn_storage": {
        "base": "t_uint256",
        "encoding": "dynamic_array",
        "label": "uint256[]",
        "numberOfBytes": "32"
      },
      "t_bool": {
        "encoding": "inplace",
        "label": "bool",
        "numberOfBytes": "1"
      },
      "t_bytes32": {
        "encoding": "inplace",
        "label": "bytes32",
        "numberOfBytes": "32"
      },
      "t_mapping(t_address,t_array(t_uint256)dyn_storage)": {
        "encoding": "mapping",
        "key": "t_address",
        "label": "mapping(address => uint256[])",
        "numberOfBytes": "32",
        "value": "t_array(t_uint256)dyn_storage"
      },
      "t_mapping(t_address,t_bool)": {
        "encoding": "mapping",
        "key": "t_address",
        "label": "mapping(address => bool)",
        "numberOfBytes": "32",
        "value": "t_bool"
      },
      "t_mapping(t_address,t_mapping(t_address,t_bool))": {
        "encoding": "mapping",
        "key": "t_address",
        "label": "mapping(address => mapping(address => bool))",
        "numberOfBytes": "32",
        "value": "t_mapping(t_address,t_bool)"
      },
      "t_mapping(t_address,t_uint256)": {
        "encoding": "mapping",
        "key": "t_address",
        "label": "mapping(address => uint256)",
        "numberOfBytes": "32",
        "value": "t_uint256"
      },
      "t_mapping(t_bytes32,t_bool)": {
        "encoding": "mapping",
        "key": "t_bytes32",
        "label": "mapping(bytes32 => bool)",
        "numberOfBytes": "32",
        "value": "t_bool"
      },
      "t_mapping(t_uint256,t_mapping(t_address,t_uint256))": {
        "encoding": "mapping",
        "key": "t_uint256",
        "label": "mapping(uint256 => mapping(address => uint256))",
        "numberOfBytes": "32",
        "value": "t_mapping(t_address,t_uint256)"
      },
      "t_mapping(t_uint256,t_struct(Creation)13182_storage)": {
        "encoding": "mapping",
        "key": "t_uint256",
        "label": "mapping(uint256 => struct Creation)",
        "numberOfBytes": "32",
        "value": "t_struct(Creation)13182_storage"
      },
      "t_mapping(t_uint256,t_uint256)": {
        "encoding": "mapping",
        "key": "t_uint256",
        "label": "mapping(uint256 => uint256)",
        "numberOfBytes": "32",
        "value": "t_uint256"
      },
      "t_string_storage": {
        "encoding": "bytes",
        "label": "string",
        "numberOfBytes": "32"
      },
      "t_struct(Creation)13182_storage": {
        "encoding": "inplace",
        "label": "struct Creation",
        "members": [
          {
            "astId": 13175,
            "contract": "contracts/CreationFactory.sol:CreationFactory",
            "label": "id",
            "offset": 0,
            "slot": "0",
            "type": "t_uint256"
          },
          {
            "astId": 13177,
            "contract": "contracts/CreationFactory.sol:CreationFactory",
            "label": "creator",
            "offset": 0,
            "slot": "1",
            "type": "t_address"
          },
          {
            "astId": 13179,
            "contract": "contracts/CreationFactory.sol:CreationFactory",
            "label": "uri",
            "offset": 0,
            "slot": "2",
            "type": "t_string_storage"
          },
          {
            "astId": 13181,
            "contract": "contracts/CreationFactory.sol:CreationFactory",
            "label": "price",
            "offset": 0,
            "slot": "3",
            "type": "t_uint256"
          }
        ],
        "numberOfBytes": "128"
      },
      "t_uint256": {
        "encoding": "inplace",
        "label": "uint256",
        "numberOfBytes": "32"
      }
    }
  }
}