{
  "address": "0x45b255B86fA0E6A457F2e9a77dFffa1A7028661C",
  "abi": [
    {
      "inputs": [
        {
          "internalType": "address",
          "name": "initialOwner",
          "type": "address"
        }
      ],
      "stateMutability": "nonpayable",
      "type": "constructor"
    },
    {
      "inputs": [],
      "name": "AmountIsZero",
      "type": "error"
    },
    {
      "inputs": [],
      "name": "CreationNotFound",
      "type": "error"
    },
    {
      "inputs": [
        {
          "internalType": "address",
          "name": "sender",
          "type": "address"
        },
        {
          "internalType": "uint256",
          "name": "balance",
          "type": "uint256"
        },
        {
          "internalType": "uint256",
          "name": "needed",
          "type": "uint256"
        },
        {
          "internalType": "uint256",
          "name": "tokenId",
          "type": "uint256"
        }
      ],
      "name": "ERC1155InsufficientBalance",
      "type": "error"
    },
    {
      "inputs": [
        {
          "internalType": "address",
          "name": "approver",
          "type": "address"
        }
      ],
      "name": "ERC1155InvalidApprover",
      "type": "error"
    },
    {
      "inputs": [
        {
          "internalType": "uint256",
          "name": "idsLength",
          "type": "uint256"
        },
        {
          "internalType": "uint256",
          "name": "valuesLength",
          "type": "uint256"
        }
      ],
      "name": "ERC1155InvalidArrayLength",
      "type": "error"
    },
    {
      "inputs": [
        {
          "internalType": "address",
          "name": "operator",
          "type": "address"
        }
      ],
      "name": "ERC1155InvalidOperator",
      "type": "error"
    },
    {
      "inputs": [
        {
          "internalType": "address",
          "name": "receiver",
          "type": "address"
        }
      ],
      "name": "ERC1155InvalidReceiver",
      "type": "error"
    },
    {
      "inputs": [
        {
          "internalType": "address",
          "name": "sender",
          "type": "address"
        }
      ],
      "name": "ERC1155InvalidSender",
      "type": "error"
    },
    {
      "inputs": [
        {
          "internalType": "address",
          "name": "operator",
          "type": "address"
        },
        {
          "internalType": "address",
          "name": "owner",
          "type": "address"
        }
      ],
      "name": "ERC1155MissingApprovalForAll",
      "type": "error"
    },
    {
      "inputs": [],
      "name": "InsufficientPayment",
      "type": "error"
    },
    {
      "inputs": [],
      "name": "InvalidFeePercent",
      "type": "error"
    },
    {
      "inputs": [],
      "name": "OnlyCreator",
      "type": "error"
    },
    {
      "inputs": [
        {
          "internalType": "address",
          "name": "owner",
          "type": "address"
        }
      ],
      "name": "OwnableInvalidOwner",
      "type": "error"
    },
    {
      "inputs": [
        {
          "internalType": "address",
          "name": "account",
          "type": "address"
        }
      ],
      "name": "OwnableUnauthorizedAccount",
      "type": "error"
    },
    {
      "inputs": [],
      "name": "PriceIsZero",
      "type": "error"
    },
    {
      "inputs": [],
      "name": "ReentrancyGuardReentrantCall",
      "type": "error"
    },
    {
      "inputs": [],
      "name": "URIIsEmpty",
      "type": "error"
    },
    {
      "anonymous": false,
      "inputs": [
        {
          "indexed": true,
          "internalType": "address",
          "name": "account",
          "type": "address"
        },
        {
          "indexed": true,
          "internalType": "address",
          "name": "operator",
          "type": "address"
        },
        {
          "indexed": false,
          "internalType": "bool",
          "name": "approved",
          "type": "bool"
        }
      ],
      "name": "ApprovalForAll",
      "type": "event"
    },
    {
      "anonymous": false,
      "inputs": [
        {
          "indexed": false,
          "internalType": "uint256",
          "name": "creationId",
          "type": "uint256"
        },
        {
          "indexed": true,
          "internalType": "address",
          "name": "creator",
          "type": "address"
        },
        {
          "indexed": false,
          "internalType": "string",
          "name": "uri",
          "type": "string"
        },
        {
          "indexed": false,
          "internalType": "uint256",
          "name": "price",
          "type": "uint256"
        }
      ],
      "name": "Created",
      "type": "event"
    },
    {
      "anonymous": false,
      "inputs": [
        {
          "indexed": true,
          "internalType": "uint256",
          "name": "creationId",
          "type": "uint256"
        },
        {
          "indexed": true,
          "internalType": "address",
          "name": "creator",
          "type": "address"
        },
        {
          "indexed": false,
          "internalType": "string",
          "name": "uri",
          "type": "string"
        },
        {
          "indexed": false,
          "internalType": "uint256",
          "name": "price",
          "type": "uint256"
        }
      ],
      "name": "CreationUpdated",
      "type": "event"
    },
    {
      "anonymous": false,
      "inputs": [
        {
          "indexed": false,
          "internalType": "uint256",
          "name": "creatorFeePercent",
          "type": "uint256"
        },
        {
          "indexed": false,
          "internalType": "uint256",
          "name": "curatorFeePercent",
          "type": "uint256"
        },
        {
          "indexed": false,
          "internalType": "uint256",
          "name": "protocolFeePercent",
          "type": "uint256"
        }
      ],
      "name": "FeePercentUpdated",
      "type": "event"
    },
    {
      "anonymous": false,
      "inputs": [
        {
          "indexed": true,
          "internalType": "uint256",
          "name": "creationId",
          "type": "uint256"
        },
        {
          "indexed": true,
          "internalType": "address",
          "name": "minter",
          "type": "address"
        },
        {
          "indexed": false,
          "internalType": "address",
          "name": "curator",
          "type": "address"
        },
        {
          "indexed": false,
          "internalType": "uint256",
          "name": "amount",
          "type": "uint256"
        },
        {
          "indexed": false,
          "internalType": "string",
          "name": "mark",
          "type": "string"
        }
      ],
      "name": "Minted",
      "type": "event"
    },
    {
      "anonymous": false,
      "inputs": [
        {
          "indexed": true,
          "internalType": "address",
          "name": "previousOwner",
          "type": "address"
        },
        {
          "indexed": true,
          "internalType": "address",
          "name": "newOwner",
          "type": "address"
        }
      ],
      "name": "OwnershipTransferred",
      "type": "event"
    },
    {
      "anonymous": false,
      "inputs": [
        {
          "indexed": true,
          "internalType": "address",
          "name": "previousFeeTo",
          "type": "address"
        },
        {
          "indexed": true,
          "internalType": "address",
          "name": "newFeeTo",
          "type": "address"
        }
      ],
      "name": "ProtocolFeeToUpdated",
      "type": "event"
    },
    {
      "anonymous": false,
      "inputs": [
        {
          "indexed": true,
          "internalType": "address",
          "name": "operator",
          "type": "address"
        },
        {
          "indexed": true,
          "internalType": "address",
          "name": "from",
          "type": "address"
        },
        {
          "indexed": true,
          "internalType": "address",
          "name": "to",
          "type": "address"
        },
        {
          "indexed": false,
          "internalType": "uint256[]",
          "name": "ids",
          "type": "uint256[]"
        },
        {
          "indexed": false,
          "internalType": "uint256[]",
          "name": "values",
          "type": "uint256[]"
        }
      ],
      "name": "TransferBatch",
      "type": "event"
    },
    {
      "anonymous": false,
      "inputs": [
        {
          "indexed": true,
          "internalType": "address",
          "name": "operator",
          "type": "address"
        },
        {
          "indexed": true,
          "internalType": "address",
          "name": "from",
          "type": "address"
        },
        {
          "indexed": true,
          "internalType": "address",
          "name": "to",
          "type": "address"
        },
        {
          "indexed": false,
          "internalType": "uint256",
          "name": "id",
          "type": "uint256"
        },
        {
          "indexed": false,
          "internalType": "uint256",
          "name": "value",
          "type": "uint256"
        }
      ],
      "name": "TransferSingle",
      "type": "event"
    },
    {
      "anonymous": false,
      "inputs": [
        {
          "indexed": false,
          "internalType": "string",
          "name": "value",
          "type": "string"
        },
        {
          "indexed": true,
          "internalType": "uint256",
          "name": "id",
          "type": "uint256"
        }
      ],
      "name": "URI",
      "type": "event"
    },
    {
      "stateMutability": "payable",
      "type": "fallback"
    },
    {
      "inputs": [
        {
          "internalType": "address",
          "name": "account",
          "type": "address"
        },
        {
          "internalType": "uint256",
          "name": "id",
          "type": "uint256"
        }
      ],
      "name": "balanceOf",
      "outputs": [
        {
          "internalType": "uint256",
          "name": "",
          "type": "uint256"
        }
      ],
      "stateMutability": "view",
      "type": "function"
    },
    {
      "inputs": [
        {
          "internalType": "address[]",
          "name": "accounts",
          "type": "address[]"
        },
        {
          "internalType": "uint256[]",
          "name": "ids",
          "type": "uint256[]"
        }
      ],
      "name": "balanceOfBatch",
      "outputs": [
        {
          "internalType": "uint256[]",
          "name": "",
          "type": "uint256[]"
        }
      ],
      "stateMutability": "view",
      "type": "function"
    },
    {
      "inputs": [
        {
          "internalType": "address",
          "name": "creator",
          "type": "address"
        },
        {
          "internalType": "string",
          "name": "uri",
          "type": "string"
        },
        {
          "internalType": "uint256",
          "name": "price",
          "type": "uint256"
        }
      ],
      "name": "create",
      "outputs": [
        {
          "internalType": "uint256",
          "name": "creationId",
          "type": "uint256"
        }
      ],
      "stateMutability": "nonpayable",
      "type": "function"
    },
    {
      "inputs": [
        {
          "internalType": "address",
          "name": "creator",
          "type": "address"
        },
        {
          "internalType": "string",
          "name": "uri",
          "type": "string"
        },
        {
          "internalType": "uint256",
          "name": "price",
          "type": "uint256"
        },
        {
          "internalType": "uint32",
          "name": "amount",
          "type": "uint32"
        },
        {
          "internalType": "string",
          "name": "mark",
          "type": "string"
        }
      ],
      "name": "createAndMint",
      "outputs": [
        {
          "internalType": "uint256",
          "name": "creationId",
          "type": "uint256"
        }
      ],
      "stateMutability": "payable",
      "type": "function"
    },
    {
      "inputs": [],
      "name": "creationIndex",
      "outputs": [
        {
          "internalType": "uint256",
          "name": "",
          "type": "uint256"
        }
      ],
      "stateMutability": "view",
      "type": "function"
    },
    {
      "inputs": [
        {
          "internalType": "uint256",
          "name": "id",
          "type": "uint256"
        }
      ],
      "name": "creationSupply",
      "outputs": [
        {
          "internalType": "uint256",
          "name": "",
          "type": "uint256"
        }
      ],
      "stateMutability": "view",
      "type": "function"
    },
    {
      "inputs": [
        {
          "internalType": "uint256",
          "name": "",
          "type": "uint256"
        }
      ],
      "name": "creations",
      "outputs": [
        {
          "internalType": "uint256",
          "name": "id",
          "type": "uint256"
        },
        {
          "internalType": "address",
          "name": "creator",
          "type": "address"
        },
        {
          "internalType": "string",
          "name": "uri",
          "type": "string"
        },
        {
          "internalType": "uint256",
          "name": "price",
          "type": "uint256"
        }
      ],
      "stateMutability": "view",
      "type": "function"
    },
    {
      "inputs": [],
      "name": "creatorFeePercent",
      "outputs": [
        {
          "internalType": "uint256",
          "name": "",
          "type": "uint256"
        }
      ],
      "stateMutability": "view",
      "type": "function"
    },
    {
      "inputs": [],
      "name": "curatorFeePercent",
      "outputs": [
        {
          "internalType": "uint256",
          "name": "",
          "type": "uint256"
        }
      ],
      "stateMutability": "view",
      "type": "function"
    },
    {
      "inputs": [],
      "name": "ethAmount",
      "outputs": [
        {
          "internalType": "uint256",
          "name": "",
          "type": "uint256"
        }
      ],
      "stateMutability": "view",
      "type": "function"
    },
    {
      "inputs": [
        {
          "internalType": "uint256",
          "name": "id",
          "type": "uint256"
        }
      ],
      "name": "exists",
      "outputs": [
        {
          "internalType": "bool",
          "name": "",
          "type": "bool"
        }
      ],
      "stateMutability": "view",
      "type": "function"
    },
    {
      "inputs": [
        {
          "internalType": "address",
          "name": "creator",
          "type": "address"
        }
      ],
      "name": "getUserCreations",
      "outputs": [
        {
          "internalType": "uint256[]",
          "name": "",
          "type": "uint256[]"
        }
      ],
      "stateMutability": "view",
      "type": "function"
    },
    {
      "inputs": [
        {
          "internalType": "address",
          "name": "creator",
          "type": "address"
        }
      ],
      "name": "getUserLatestCreation",
      "outputs": [
        {
          "components": [
            {
              "internalType": "uint256",
              "name": "id",
              "type": "uint256"
            },
            {
              "internalType": "address",
              "name": "creator",
              "type": "address"
            },
            {
              "internalType": "string",
              "name": "uri",
              "type": "string"
            },
            {
              "internalType": "uint256",
              "name": "price",
              "type": "uint256"
            }
          ],
          "internalType": "struct Creation",
          "name": "creation",
          "type": "tuple"
        }
      ],
      "stateMutability": "view",
      "type": "function"
    },
    {
      "inputs": [
        {
          "internalType": "address",
          "name": "account",
          "type": "address"
        },
        {
          "internalType": "address",
          "name": "operator",
          "type": "address"
        }
      ],
      "name": "isApprovedForAll",
      "outputs": [
        {
          "internalType": "bool",
          "name": "",
          "type": "bool"
        }
      ],
      "stateMutability": "view",
      "type": "function"
    },
    {
      "inputs": [
        {
          "internalType": "uint256",
          "name": "creationId",
          "type": "uint256"
        },
        {
          "internalType": "uint32",
          "name": "amount",
          "type": "uint32"
        },
        {
          "internalType": "address",
          "name": "curator",
          "type": "address"
        },
        {
          "internalType": "string",
          "name": "mark",
          "type": "string"
        }
      ],
      "name": "mint",
      "outputs": [
        {
          "internalType": "uint256",
          "name": "creatorFee",
          "type": "uint256"
        },
        {
          "internalType": "uint256",
          "name": "protocolFee",
          "type": "uint256"
        },
        {
          "internalType": "uint256",
          "name": "curatorFee",
          "type": "uint256"
        }
      ],
      "stateMutability": "payable",
      "type": "function"
    },
    {
      "inputs": [
        {
          "internalType": "bytes32",
          "name": "id",
          "type": "bytes32"
        }
      ],
      "name": "minted",
      "outputs": [
        {
          "internalType": "bool",
          "name": "",
          "type": "bool"
        }
      ],
      "stateMutability": "view",
      "type": "function"
    },
    {
      "inputs": [],
      "name": "owner",
      "outputs": [
        {
          "internalType": "address",
          "name": "",
          "type": "address"
        }
      ],
      "stateMutability": "view",
      "type": "function"
    },
    {
      "inputs": [],
      "name": "protocolFeePercent",
      "outputs": [
        {
          "internalType": "uint256",
          "name": "",
          "type": "uint256"
        }
      ],
      "stateMutability": "view",
      "type": "function"
    },
    {
      "inputs": [],
      "name": "protocolFeeTo",
      "outputs": [
        {
          "internalType": "address",
          "name": "",
          "type": "address"
        }
      ],
      "stateMutability": "view",
      "type": "function"
    },
    {
      "inputs": [],
      "name": "renounceOwnership",
      "outputs": [],
      "stateMutability": "nonpayable",
      "type": "function"
    },
    {
      "inputs": [
        {
          "internalType": "address",
          "name": "from",
          "type": "address"
        },
        {
          "internalType": "address",
          "name": "to",
          "type": "address"
        },
        {
          "internalType": "uint256[]",
          "name": "ids",
          "type": "uint256[]"
        },
        {
          "internalType": "uint256[]",
          "name": "values",
          "type": "uint256[]"
        },
        {
          "internalType": "bytes",
          "name": "data",
          "type": "bytes"
        }
      ],
      "name": "safeBatchTransferFrom",
      "outputs": [],
      "stateMutability": "nonpayable",
      "type": "function"
    },
    {
      "inputs": [
        {
          "internalType": "address",
          "name": "from",
          "type": "address"
        },
        {
          "internalType": "address",
          "name": "to",
          "type": "address"
        },
        {
          "internalType": "uint256",
          "name": "id",
          "type": "uint256"
        },
        {
          "internalType": "uint256",
          "name": "value",
          "type": "uint256"
        },
        {
          "internalType": "bytes",
          "name": "data",
          "type": "bytes"
        }
      ],
      "name": "safeTransferFrom",
      "outputs": [],
      "stateMutability": "nonpayable",
      "type": "function"
    },
    {
      "inputs": [
        {
          "internalType": "address",
          "name": "operator",
          "type": "address"
        },
        {
          "internalType": "bool",
          "name": "approved",
          "type": "bool"
        }
      ],
      "name": "setApprovalForAll",
      "outputs": [],
      "stateMutability": "nonpayable",
      "type": "function"
    },
    {
      "inputs": [
        {
          "internalType": "uint256",
          "name": "_creatorFeePercent",
          "type": "uint256"
        },
        {
          "internalType": "uint256",
          "name": "_curatorFeePercent",
          "type": "uint256"
        },
        {
          "internalType": "uint256",
          "name": "_protocolFeePercent",
          "type": "uint256"
        }
      ],
      "name": "setFeePercent",
      "outputs": [],
      "stateMutability": "nonpayable",
      "type": "function"
    },
    {
      "inputs": [
        {
          "internalType": "address",
          "name": "_feeTo",
          "type": "address"
        }
      ],
      "name": "setProtocolFeeTo",
      "outputs": [],
      "stateMutability": "nonpayable",
      "type": "function"
    },
    {
      "inputs": [
        {
          "internalType": "bytes4",
          "name": "interfaceId",
          "type": "bytes4"
        }
      ],
      "name": "supportsInterface",
      "outputs": [
        {
          "internalType": "bool",
          "name": "",
          "type": "bool"
        }
      ],
      "stateMutability": "view",
      "type": "function"
    },
    {
      "inputs": [],
      "name": "totalSupply",
      "outputs": [
        {
          "internalType": "uint256",
          "name": "",
          "type": "uint256"
        }
      ],
      "stateMutability": "view",
      "type": "function"
    },
    {
      "inputs": [
        {
          "internalType": "uint256",
          "name": "id",
          "type": "uint256"
        }
      ],
      "name": "totalSupply",
      "outputs": [
        {
          "internalType": "uint256",
          "name": "",
          "type": "uint256"
        }
      ],
      "stateMutability": "view",
      "type": "function"
    },
    {
      "inputs": [
        {
          "internalType": "address",
          "name": "newOwner",
          "type": "address"
        }
      ],
      "name": "transferOwnership",
      "outputs": [],
      "stateMutability": "nonpayable",
      "type": "function"
    },
    {
      "inputs": [
        {
          "internalType": "uint256",
          "name": "id",
          "type": "uint256"
        },
        {
          "internalType": "string",
          "name": "uri",
          "type": "string"
        },
        {
          "internalType": "uint256",
          "name": "price",
          "type": "uint256"
        }
      ],
      "name": "updateCreation",
      "outputs": [],
      "stateMutability": "nonpayable",
      "type": "function"
    },
    {
      "inputs": [
        {
          "internalType": "uint256",
          "name": "",
          "type": "uint256"
        }
      ],
      "name": "uri",
      "outputs": [
        {
          "internalType": "string",
          "name": "",
          "type": "string"
        }
      ],
      "stateMutability": "view",
      "type": "function"
    },
    {
      "inputs": [
        {
          "internalType": "address",
          "name": "",
          "type": "address"
        },
        {
          "internalType": "uint256",
          "name": "",
          "type": "uint256"
        }
      ],
      "name": "userCreations",
      "outputs": [
        {
          "internalType": "uint256",
          "name": "",
          "type": "uint256"
        }
      ],
      "stateMutability": "view",
      "type": "function"
    },
    {
      "stateMutability": "payable",
      "type": "receive"
    }
  ],
  "transactionHash": "0x0b1c8cf5e84f4f890b053e4f86e6b77766e41b180e678eaf93913e8e52279cab",
  "args": [
    "0x45aBBC64421a54CbffF878985AE6c4F0cfacfDb7"
  ],
  "numDeployments": 4,
  "solcInputHash": "a72882d0d8459e365516830ff23629b6",
  "bytecode": "0x6080346200028457601f19906001600160401b03906200292a38819003601f810185168301848111848210176200026e578392829160405283396020928391810103126200028457516001600160a01b038082169490939091859003620002845760405191838301838110838211176200026e576040526000928381528615620002555783546001600160a01b031980821689178655968891167f8be0079c531659141344cd1fd0a4f28419497f9722a3daafe3b4186f6b6457e08680a3805192831162000241576003938454956001968781811c9116801562000236575b8282101462000222579081601f879695949311620001c7575b508093601f8611600114620001645750509262000158575b505060001982841b1c191690831b1790555b6006556706f05b59d3b200006007556703782dace9d9000080600855600955600c541617600c556040516126a090816200028a8239f35b0151905038806200010f565b8783528183208997909594939116915b828210620001ad575050841162000194575b505050811b01905562000121565b015160001983861b60f8161c1916905538808062000186565b848401518655899790950194938401939081019062000174565b909192939450868352818320601f870160051c81019183881062000217575b87969594939291601f8b920160051c01915b82811062000208575050620000f7565b8481558897508a9101620001f8565b9091508190620001e6565b634e487b7160e01b83526022600452602483fd5b90607f1690620000de565b634e487b7160e01b84526041600452602484fd5b604051631e4fbdf760e01b815260048101859052602490fd5b634e487b7160e01b600052604160045260246000fd5b600080fdfe60806040526004361015610018575b361561001657005b005b60003560e01c8062fdd58e1461021257806301ffc9a71461020d5780630d909225146102085780630e89341c1461020357806318160ddd146101fe578063269ba52c146101f95780632eb2c2d6146101f4578063410d3c02146101a457806343e235ff146101ef5780634d121ec1146101ea5780634e1273f4146101e55780634f558e79146101e057806353613dd3146101db57806358c5a01c146101d65780635efdf628146101d15780636ac3f254146101cc578063715018a6146101c757806383cc95fb146101c25780638557a531146101bd5780638ccc5f80146101b85780638da5cb5b146101b3578063a22cb465146101ae578063ba8ff04a146101a9578063bd85b039146101a4578063c98166c01461019f578063d6e6eb9f1461019a578063e0e6799f14610195578063e985e9c514610190578063ef3692521461018b578063f242432a14610186578063f2fde38b146101815763f534207e0361000e5761154e565b6114c7565b611398565b611371565b61130f565b6112ab565b61128d565b61126f565b6107f2565b61121e565b611161565b61113a565b611109565b61109a565b610ebf565b610e62565b610db4565b610cce565b610a13565b6109a1565b610973565b6108c5565b6108a7565b610851565b6106ba565b6104ea565b610484565b61039e565b610340565b6102d2565b610272565b600435906001600160a01b038216820361022d57565b600080fd5b602435906001600160a01b038216820361022d57565b604435906001600160a01b038216820361022d57565b35906001600160a01b038216820361022d57565b3461022d57604036600319011261022d5760206102b7610290610217565b602435600052600183526040600020906001600160a01b0316600052602052604060002090565b54604051908152f35b6001600160e01b031981160361022d57565b3461022d57602036600319011261022d5760206004356102f1816102c0565b63ffffffff60e01b16636cdb3d1360e11b811490811561032f575b811561031e575b506040519015158152f35b6301ffc9a760e01b14905038610313565b6303a24d0760e21b8114915061030c565b3461022d57600036600319011261022d576020600854604051908152f35b919082519283825260005b84811061038a575050826000602080949584010152601f8019910116010190565b602081830181015184830182015201610369565b3461022d5760208060031936011261022d5760405190600082600354916103c483610fbc565b92838352600190858282169182600014610464575050600114610407575b506103ef925003836105a5565b61040360405192828493845283019061035e565b0390f35b84915060036000527fc2575a0e9e593c00f959f8c92f12db2869c3395a3b0502d05e2516446f71f85b906000915b85831061044c5750506103ef9350820101386103e2565b80548389018501528794508693909201918101610435565b60ff1916858201526103ef95151560051b85010192503891506103e29050565b3461022d57600036600319011261022d576020600554604051908152f35b90815180825260208080930193019160005b8281106104c2575050505090565b8351855293810193928101926001016104b4565b9060206104e79281815201906104a2565b90565b3461022d5760208060031936011261022d576001600160a01b0361050c610217565b16600052600e8152604060002090604051908181845491828152019360005281600020916000905b828210610557576104038561054b818903826105a5565b604051918291826104d6565b835486529485019460019384019390910190610534565b634e487b7160e01b600052604160045260246000fd5b6080810190811067ffffffffffffffff8211176105a057604052565b61056e565b90601f8019910116810190811067ffffffffffffffff8211176105a057604052565b604051906105d482610584565b565b67ffffffffffffffff81116105a05760051b60200190565b81601f8201121561022d57803591610605836105d6565b9261061360405194856105a5565b808452602092838086019260051b82010192831161022d578301905b82821061063d575050505090565b8135815290830190830161062f565b67ffffffffffffffff81116105a057601f01601f191660200190565b9291926106748261064c565b9161068260405193846105a5565b82948184528183011161022d578281602093846000960137010152565b9080601f8301121561022d578160206104e793359101610668565b3461022d5760a036600319011261022d576106d3610217565b6106db610232565b906044359167ffffffffffffffff9081841161022d57610700600494369086016105ee565b9060643583811161022d5761071890369087016105ee565b9260843590811161022d57610730903690870161069f565b936001600160a01b038082169033821415806107bd575b61079057831615610778571561076157610016955061192f565b604051626a0d4560e21b8152600081880152602490fd5b604051632bfa23e760e11b8152600081890152602490fd5b6040805163711bec9160e11b815233818b019081526001600160a01b038616602082015290918291010390fd5b5081600052600260205260ff6107ea336040600020906001600160a01b0316600052602052604060002090565b541615610747565b3461022d57602036600319011261022d5760043560005260046020526020604060002054604051908152f35b634e487b7160e01b600052603260045260246000fd5b805482101561084c5760005260206000200190600090565b61081e565b3461022d57604036600319011261022d5761086a610217565b6001600160a01b036024359116600052600e6020526040600020805482101561022d5760209161089991610834565b90546040519160031b1c8152f35b3461022d57600036600319011261022d576020600a54604051908152f35b3461022d57604036600319011261022d5760043567ffffffffffffffff80821161022d573660238301121561022d578160040135610902816105d6565b9261091060405194856105a5565b81845260209160248386019160051b8301019136831161022d57602401905b82821061095c578560243586811161022d576104039161095661054b9236906004016105ee565b90611884565b8380916109688461025e565b81520191019061092f565b3461022d57602036600319011261022d57600435600052600460205260206040600020541515604051908152f35b3461022d57600036600319011261022d576020600754604051908152f35b9181601f8401121561022d5782359167ffffffffffffffff831161022d576020838186019501011161022d57565b6064359063ffffffff8216820361022d57565b6024359063ffffffff8216820361022d57565b60a036600319011261022d57610a27610217565b60243567ffffffffffffffff9182821161022d57610a4a600492369084016109bf565b93610a536109ed565b9260843591821161022d57610a6e610a7a92369087016109bf565b96909360443592611fc0565b92600260065414610c7d57600260065563ffffffff83168015610c6d57600a54851015610c5d57610abd610ab886600052600d602052604060002090565b6120bf565b610acb826060830151612101565b92833410610c4e575092610bdf7f569d5c5126644b425a2f9c92ccaae5b406b4624ad13d8e4dbe585d71ec607e1493610bd96104039994610bb58a98610ba48a610b9f6020610b2d610b1f6009548b612101565b670de0b6b3a7640000900490565b94610b38868b612123565b6040805184810196875233602088015291959190610b6390829084015b03601f1981018352826105a5565b519020610b8b610b87610b8083600052600f602052604060002090565b5460ff1690565b1590565b610c24575b5001516001600160a01b031690565b612627565b600c546001600160a01b0316612627565b610bc9610bc484600b54612130565b600b55565b610bd1611af7565b90883361218c565b34612123565b80610c14575b50610bf760405192839233978461213d565b0390a3610c046001600655565b6040519081529081906020820190565b610c1e9033612627565b38610be5565b610c3b610c4891600052600f602052604060002090565b805460ff19166001179055565b38610b90565b60405163cd1c886760e01b8152fd5b50604051636c8ce18b60e11b8152fd5b506040516310eb483f60e21b8152fd5b604051633ee5aeb560e01b8152fd5b60208152815160208201526001600160a01b03602083015116604082015260806060610cc56040850151838386015260a085019061035e565b93015191015290565b3461022d5760208060031936011261022d57610ce8610217565b6001600160a01b03600060405190610cff82610584565b80825280858301526060604083015260608201529116600052600e8252604060002091604051908181855491828152019460005281600020916000905b828210610d9d576104038686610d54818b03826105a5565b805180610d6a575b505060405191829182610c8c565b610d969250610ab891610d7f610d8592612114565b90611870565b51600052600d602052604060002090565b8280610d5c565b835487529586019560019384019390910190610d3c565b3461022d57606036600319011261022d57604435602435600435610dd66117f2565b818101808211610e5d57838101809111610e5d57670de0b6b3a764000003610e4b57610e467f06ba885d32912ea74c2edf9aac567175b8fcbbe2ad391d7e219d665b4a689ca993826007558360085580600955604051938493846040919493926060820195825260208201520152565b0390a1005b604051638a81d3b360e01b8152600490fd5b61184b565b3461022d57600080600319360112610ebc57610e7c6117f2565b806001600160a01b0381546001600160a01b031981168355167f8be0079c531659141344cd1fd0a4f28419497f9722a3daafe3b4186f6b6457e08280a380f35b80fd5b3461022d57606036600319011261022d5760243567ffffffffffffffff811161022d57610ef09036906004016109bf565b9060443591610f0b600435600052600d602052604060002090565b9060018201926001600160a01b039283610f2c86546001600160a01b031690565b168015610faa573303610f98577f2703bcacc469291cc6493fdbe6c24dc15ea96b2489ddfc1769896dbb1f9d4b5b93610f8582610f7086866002610f939701612242565b8860038201555496546001600160a01b031690565b16956040519384938461230a565b0390a3005b6040516308f78f9960e31b8152600490fd5b604051636c8ce18b60e11b8152600490fd5b90600182811c92168015610fec575b6020831014610fd657565b634e487b7160e01b600052602260045260246000fd5b91607f1691610fcb565b906040519182600082549261100a84610fbc565b9081845260019485811690816000146110775750600114611034575b50506105d4925003836105a5565b9093915060005260209081600020936000915b81831061105f5750506105d493508201013880611026565b85548884018501529485019487945091830191611047565b9150506105d494506020925060ff191682840152151560051b8201013880611026565b3461022d57602036600319011261022d57600435600052600d602052604060002080546001600160a01b03600183015416916110ff60036110dd60028401610ff6565b920154916040519485948552602085015260806040850152608084019061035e565b9060608301520390f35b3461022d57602036600319011261022d57600435600052600f602052602060ff604060002054166040519015158152f35b3461022d57600036600319011261022d5760206001600160a01b0360005416604051908152f35b3461022d57604036600319011261022d5761117a610217565b602435908115159081830361022d576001600160a01b038116928315611206576111c76111d8923360005260026020526040600020906001600160a01b0316600052602052604060002090565b9060ff801983541691151516179055565b6040519081527f17307eab39ab6107e8899845ad3d59bd9653f200f220920489ca2b5937696c3160203392a3005b60405162ced3e160e81b815260006004820152602490fd5b3461022d57606036600319011261022d57611237610217565b60243567ffffffffffffffff811161022d5760209161125d6112679236906004016109bf565b9060443592611fc0565b604051908152f35b3461022d57600036600319011261022d576020600b54604051908152f35b3461022d57600036600319011261022d576020600954604051908152f35b3461022d57602036600319011261022d576001600160a01b036112cc610217565b6112d46117f2565b16806001600160a01b0319600c541617600c55807fdc99a16aa686e03e551f2993b0cb279e2638cebde991551598b75177d21ef7c2600080a3005b3461022d57604036600319011261022d57602060ff61136561132f610217565b6001600160a01b0361133f610232565b9116600052600284526040600020906001600160a01b0316600052602052604060002090565b54166040519015158152f35b3461022d57600036600319011261022d5760206001600160a01b03600c5416604051908152f35b3461022d5760a036600319011261022d576113b1610217565b6113b9610232565b60843567ffffffffffffffff811161022d576113d990369060040161069f565b906001600160a01b03808416903382141580611492575b61146b57821615611452571561143a57610016926114326064356044359160405192600184526020840152604083019160018352606084015260808301604052565b92909161192f565b604051626a0d4560e21b815260006004820152602490fd5b604051632bfa23e760e11b815260006004820152602490fd5b60405163711bec9160e11b81523360048201526001600160a01b0386166024820152604490fd5b5081600052600260205260ff6114bf336040600020906001600160a01b0316600052602052604060002090565b5416156113f0565b3461022d57602036600319011261022d576114e0610217565b6114e86117f2565b6001600160a01b038091168015611535576000918254826001600160a01b03198216178455167f8be0079c531659141344cd1fd0a4f28419497f9722a3daafe3b4186f6b6457e08380a380f35b604051631e4fbdf760e01b815260006004820152602490fd5b608036600319011261022d5760048035611566610a00565b61156e610248565b60643567ffffffffffffffff811161022d5761158d90369086016109bf565b9190936002600654146117e157600260065563ffffffff84169384156117d057600a548210156117bf576115ce610ab883600052600d602052604060002090565b956115dd866060890151612101565b97883410610c4e57506001600160a01b03841615159182611771575b611608610b1f6009548b612101565b9889936000901561176b5750611623610b1f60085483612101565b965b876116308684612123565b9061163a91612123565b998a9260405160208101908033611668908c859092916001600160a01b036020916040840195845216910152565b03601f198101825261167a90826105a5565b51902061169181600052600f602052604060002090565b5460ff16159b6116e87f569d5c5126644b425a2f9c92ccaae5b406b4624ad13d8e4dbe585d71ec607e1499610ba46104039f98610b9f602061170d99610bd9986117229d610c24575001516001600160a01b031690565b8b61175c575b6116fd610bc484600b54612130565b611705611af7565b908a3361218c565b8061174c575b50604051938493339885612161565b0390a361172f6001600655565b604051938493846040919493926060820195825260208201520152565b6117569033612627565b38611713565b6117668c8c612627565b6116ee565b96611625565b91506117b9610b8060405160208101906117a681610b558a8a869092916001600160a01b036020916040840195845216910152565b519020600052600f602052604060002090565b916115f9565b604051636c8ce18b60e11b81528790fd5b6040516310eb483f60e21b81528790fd5b604051633ee5aeb560e01b81528690fd5b6001600160a01b0360005416330361180657565b60405163118cdaa760e01b8152336004820152602490fd5b6118479160005260016020526040600020906001600160a01b0316600052602052604060002090565b5490565b634e487b7160e01b600052601160045260246000fd5b6000198114610e5d5760010190565b805182101561084c5760209160051b010190565b9190918051835180820361190d5750508051906118a0826105d6565b916118ae60405193846105a5565b8083526118bd601f19916105d6565b0190602091368385013760005b815181101561190557806118f06119009260051b85808287010151918a0101519061181e565b6118fa8287611870565b52611861565b6118ca565b509193505050565b604051635b05999160e01b815260048101919091526024810191909152604490fd5b9193929061193f8286838661247e565b6001600160a01b0380841615611a08575b8116158061199d575b15611966575b5050505050565b845160010361198c576020806119829601519201519233611c45565b388080808061195f565b61199894919233611d93565b611982565b94939092600093845b86518610156119f0576119ea906119bd8787611870565b51906119dd6119cc898b611870565b516000526004602052604060002090565b8281540390550195611861565b946119a6565b611a039193969792955060055403600555565b611959565b95919260009491855b8751871015611a5857611a4c611a5291611a2b8989611870565b5190611a3a6119cc8b8d611870565b611a45838254612130565b9055612130565b96611861565b95611a11565b611a7591939650611a70909892959498600554612130565b600555565b611950565b9081602091031261022d57516104e7816102c0565b909260a0926001600160a01b036104e796951683526000602084015260408301526060820152816080820152019061035e565b91926104e795949160a0946001600160a01b03809216855216602084015260408301526060820152816080820152019061035e565b604051906020820182811067ffffffffffffffff8211176105a05760405260008252565b3d15611b46573d90611b2c8261064c565b91611b3a60405193846105a5565b82523d6000602084013e565b606090565b9293919093843b611b5d575050505050565b602091611b80604051948593849363f23a6e6160e01b9889865260048601611a8f565b038160006001600160a01b0388165af160009181611c15575b50611bd85782611ba7611b1b565b8051919082611bd157604051632bfa23e760e11b81526001600160a01b0383166004820152602490fd5b9050602001fd5b6001600160e01b03191603611bf25750388080808061195f565b604051632bfa23e760e11b81526001600160a01b03919091166004820152602490fd5b611c3791925060203d8111611c3e575b611c2f81836105a5565b810190611a7a565b9038611b99565b503d611c25565b939290949194853b611c5a575b505050505050565b611c7d602093604051958694859463f23a6e6160e01b998a875260048701611ac2565b038160006001600160a01b0388165af160009181611cbf575b50611ca45782611ba7611b1b565b6001600160e01b03191603611bf25750388080808080611c52565b611cd891925060203d8111611c3e57611c2f81836105a5565b9038611c96565b92611d0f6104e795936001600160a01b03611d1d941686526000602087015260a0604087015260a08601906104a2565b9084820360608601526104a2565b91608081840391015261035e565b93906104e79593611d0f91611d1d946001600160a01b03809216885216602087015260a0604087015260a08601906104a2565b9293919093843b611d70575050505050565b602091611b80604051948593849363bc197c8160e01b9889865260048601611cdf565b939290949194853b611da757505050505050565b611c7d602093604051958694859463bc197c8160e01b998a875260048701611d2b565b90601f8111611dd857505050565b600091825260208220906020601f850160051c83019410611e14575b601f0160051c01915b828110611e0957505050565b818155600101611dfd565b9092508290611df4565b90805182556020906001600160a01b03828201511691611e58600193848601906001600160a01b03166001600160a01b0319825416179055565b600284019060408301519384519167ffffffffffffffff83116105a057611e8983611e838654610fbc565b86611dca565b80601f8411600114611ecd5750918080926060969594600398600094611ec2575b50501b9160001990871b1c19161790555b0151910155565b015192503880611eaa565b91939495601f198416611ee587600052602060002090565b936000905b828210611f2b5750509160039795939185606098969410611f13575b505050811b019055611ebb565b015160001983891b60f8161c19169055388080611f06565b808886978294978701518155019601940190611eea565b8054680100000000000000008110156105a057611f6491600182018155610834565b819291549060031b91821b91600019901b1916179055565b908060209392818452848401376000828201840152601f01601f1916010190565b94939291604092611fbb928752606060208801526060870191611f7c565b930152565b9091939280156120ad57841561209b577f7944c1b2905674d3a97e3f23338827f71f6660e1453ee6521ad20c5dfb75d746916120966001600160a01b0392600a549761204e61200d6105c7565b8a81526001600160a01b038616602082015261202a36848b610668565b60408201528360608201526120498b600052600d602052604060002090565b611e1e565b6120748961206f866001600160a01b0316600052600e602052604060002090565b611f42565b612087612082600a54611861565b600a55565b60405194859416968985611f9d565b0390a2565b6040516305b1aacf60e11b8152600490fd5b60405163907adecd60e01b8152600490fd5b906040516120cc81610584565b606060038294805484526001600160a01b0360018201541660208501526120f560028201610ff6565b60408501520154910152565b81810292918115918404141715610e5d57565b600019810191908211610e5d57565b91908203918211610e5d57565b91908201809211610e5d57565b60609063ffffffff6104e79593600083521660208201528160408201520191611f7c565b63ffffffff6104e795936001600160a01b036060941683521660208201528160408201520191611f7c565b93916001600160a01b03851615611452576121c460405192600184526020840152604083019160018352606084015260808301604052565b90916121d1828487612347565b600094855b845187101561220557611a4c6121ff916121f08987611870565b5190611a3a6119cc8b8a611870565b956121d6565b61221a919594929650611a7090600554612130565b805160010361223857906020806105d4959301519101519133611b4b565b6105d49333611d5e565b90929167ffffffffffffffff81116105a057612268816122628454610fbc565b84611dca565b6000601f82116001146122a25781929394600092612297575b50508160011b916000199060031b1c1916179055565b013590503880612281565b601f198216946122b784600052602060002090565b91805b8781106122f25750836001959697106122d8575b505050811b019055565b0135600019600384901b60f8161c191690553880806122ce565b909260206001819286860135815501940191016122ba565b939291602091611fbb91604087526040870191611f7c565b90916123396104e7936040845260408401906104a2565b9160208184039101526104a2565b919091825182519081810361190d57505060005b83518110156123dc57806123929160051b8360208083890101519287010151916001600160a01b038216612397575b505050611861565b61235b565b6123d2916123b26123ca926000526001602052604060002090565b906001600160a01b0316600052602052604060002090565b918254612130565b905538838161238a565b5091600181511460001461243e576020908101519181015160408051938452918301526001600160a01b03929092169160009133917fc3d58168c5ae7397731d063d5bbf3d657854427343f4c083240f7aacaa2d0f629190819081015b0390a4565b7f4a39dc06d4c0dbc64b70af90fd698a233a518aa5d07e595d983b8c0526c8f7fb6001600160a01b03600093946124396040519283921696339583612322565b939291805183519081810361190d57505060005b8151811015612582578060051b9060208083850101519286010151846001600160a01b0393848a166124fb575b6124d19482166124d657505050611861565b612492565b6124f1916123b26123ca926000526001602052604060002090565b905538848161238a565b9192939050612518896123b2846000526001602052604060002090565b5483811061254b57918691846124d1969594036125438c6123b2856000526001602052604060002090565b5594506124bf565b6040516303dee4c560e01b81526001600160a01b038b16600482015260248101919091526044810184905260648101839052608490fd5b5080519394939192916001036125e4576020908101519181015160408051938452918301526001600160a01b03928316939092169133917fc3d58168c5ae7397731d063d5bbf3d657854427343f4c083240f7aacaa2d0f629181908101612439565b90916124397f4a39dc06d4c0dbc64b70af90fd698a233a518aa5d07e595d983b8c0526c8f7fb916040519182916001600160a01b03809116971695339583612322565b600080809381935af1612638611b1b565b501561264057565b60405162461bcd60e51b81526020600482015260026024820152612a2360f11b6044820152606490fdfea264697066735822122037cc8867e7bb0bb1484a1a41acd2376460ac4e6b0df39c3fa1ac0d8cbcb9b7a964736f6c63430008140033",
  "libraries": {},
  "devdoc": {
    "errors": {
      "ERC1155InsufficientBalance(address,uint256,uint256,uint256)": [
        {
          "details": "Indicates an error related to the current `balance` of a `sender`. Used in transfers.",
          "params": {
            "balance": "Current balance for the interacting account.",
            "needed": "Minimum amount required to perform a transfer.",
            "sender": "Address whose tokens are being transferred.",
            "tokenId": "Identifier number of a token."
          }
        }
      ],
      "ERC1155InvalidApprover(address)": [
        {
          "details": "Indicates a failure with the `approver` of a token to be approved. Used in approvals.",
          "params": {
            "approver": "Address initiating an approval operation."
          }
        }
      ],
      "ERC1155InvalidArrayLength(uint256,uint256)": [
        {
          "details": "Indicates an array length mismatch between ids and values in a safeBatchTransferFrom operation. Used in batch transfers.",
          "params": {
            "idsLength": "Length of the array of token identifiers",
            "valuesLength": "Length of the array of token amounts"
          }
        }
      ],
      "ERC1155InvalidOperator(address)": [
        {
          "details": "Indicates a failure with the `operator` to be approved. Used in approvals.",
          "params": {
            "operator": "Address that may be allowed to operate on tokens without being their owner."
          }
        }
      ],
      "ERC1155InvalidReceiver(address)": [
        {
          "details": "Indicates a failure with the token `receiver`. Used in transfers.",
          "params": {
            "receiver": "Address to which tokens are being transferred."
          }
        }
      ],
      "ERC1155InvalidSender(address)": [
        {
          "details": "Indicates a failure with the token `sender`. Used in transfers.",
          "params": {
            "sender": "Address whose tokens are being transferred."
          }
        }
      ],
      "ERC1155MissingApprovalForAll(address,address)": [
        {
          "details": "Indicates a failure with the `operator`s approval. Used in transfers.",
          "params": {
            "operator": "Address that may be allowed to operate on tokens without being their owner.",
            "owner": "Address of the current owner of a token."
          }
        }
      ],
      "OwnableInvalidOwner(address)": [
        {
          "details": "The owner is not a valid owner account. (eg. `address(0)`)"
        }
      ],
      "OwnableUnauthorizedAccount(address)": [
        {
          "details": "The caller account is not authorized to perform an operation."
        }
      ],
      "ReentrancyGuardReentrantCall()": [
        {
          "details": "Unauthorized reentrant call."
        }
      ]
    },
    "events": {
      "ApprovalForAll(address,address,bool)": {
        "details": "Emitted when `account` grants or revokes permission to `operator` to transfer their tokens, according to `approved`."
      },
      "TransferBatch(address,address,address,uint256[],uint256[])": {
        "details": "Equivalent to multiple {TransferSingle} events, where `operator`, `from` and `to` are the same for all transfers."
      },
      "TransferSingle(address,address,address,uint256,uint256)": {
        "details": "Emitted when `value` amount of tokens of type `id` are transferred from `from` to `to` by `operator`."
      },
      "URI(string,uint256)": {
        "details": "Emitted when the URI for token type `id` changes to `value`, if it is a non-programmatic URI. If an {URI} event was emitted for `id`, the standard https://eips.ethereum.org/EIPS/eip-1155#metadata-extensions[guarantees] that `value` will equal the value returned by {IERC1155MetadataURI-uri}."
      }
    },
    "kind": "dev",
    "methods": {
      "balanceOf(address,uint256)": {
        "details": "See {IERC1155-balanceOf}."
      },
      "balanceOfBatch(address[],uint256[])": {
        "details": "See {IERC1155-balanceOfBatch}. Requirements: - `accounts` and `ids` must have the same length."
      },
      "exists(uint256)": {
        "details": "Indicates whether any token exist with a given id, or not."
      },
      "isApprovedForAll(address,address)": {
        "details": "See {IERC1155-isApprovedForAll}."
      },
      "owner()": {
        "details": "Returns the address of the current owner."
      },
      "renounceOwnership()": {
        "details": "Leaves the contract without owner. It will not be possible to call `onlyOwner` functions. Can only be called by the current owner. NOTE: Renouncing ownership will leave the contract without an owner, thereby disabling any functionality that is only available to the owner."
      },
      "safeBatchTransferFrom(address,address,uint256[],uint256[],bytes)": {
        "details": "See {IERC1155-safeBatchTransferFrom}."
      },
      "safeTransferFrom(address,address,uint256,uint256,bytes)": {
        "details": "See {IERC1155-safeTransferFrom}."
      },
      "setApprovalForAll(address,bool)": {
        "details": "See {IERC1155-setApprovalForAll}."
      },
      "supportsInterface(bytes4)": {
        "details": "See {IERC165-supportsInterface}."
      },
      "totalSupply()": {
        "details": "Total value of tokens."
      },
      "totalSupply(uint256)": {
        "details": "Total value of tokens in with a given id."
      },
      "transferOwnership(address)": {
        "details": "Transfers ownership of the contract to a new account (`newOwner`). Can only be called by the current owner."
      },
      "uri(uint256)": {
        "details": "See {IERC1155MetadataURI-uri}. This implementation returns the same URI for *all* token types. It relies on the token type ID substitution mechanism https://eips.ethereum.org/EIPS/eip-1155#metadata[defined in the EIP]. Clients calling this function must replace the `\\{id\\}` substring with the actual token type ID."
      }
    },
    "version": 1
  },
  "userdoc": {
    "errors": {
      "AmountIsZero()": [
        {
          "notice": "common "
        }
      ],
      "URIIsEmpty()": [
        {
          "notice": "CreationFactory "
        }
      ]
    },
    "kind": "user",
    "methods": {},
    "version": 1
  },
  "storageLayout": {
    "storage": [
      {
        "astId": 387,
        "contract": "contracts/CreationFactory.sol:CreationFactory",
        "label": "_owner",
        "offset": 0,
        "slot": "0",
        "type": "t_address"
      },
      {
        "astId": 730,
        "contract": "contracts/CreationFactory.sol:CreationFactory",
        "label": "_balances",
        "offset": 0,
        "slot": "1",
        "type": "t_mapping(t_uint256,t_mapping(t_address,t_uint256))"
      },
      {
        "astId": 736,
        "contract": "contracts/CreationFactory.sol:CreationFactory",
        "label": "_operatorApprovals",
        "offset": 0,
        "slot": "2",
        "type": "t_mapping(t_address,t_mapping(t_address,t_bool))"
      },
      {
        "astId": 738,
        "contract": "contracts/CreationFactory.sol:CreationFactory",
        "label": "_uri",
        "offset": 0,
        "slot": "3",
        "type": "t_string_storage"
      },
      {
        "astId": 1915,
        "contract": "contracts/CreationFactory.sol:CreationFactory",
        "label": "_totalSupply",
        "offset": 0,
        "slot": "4",
        "type": "t_mapping(t_uint256,t_uint256)"
      },
      {
        "astId": 1917,
        "contract": "contracts/CreationFactory.sol:CreationFactory",
        "label": "_totalSupplyAll",
        "offset": 0,
        "slot": "5",
        "type": "t_uint256"
      },
      {
        "astId": 3736,
        "contract": "contracts/CreationFactory.sol:CreationFactory",
        "label": "_status",
        "offset": 0,
        "slot": "6",
        "type": "t_uint256"
      },
      {
        "astId": 6855,
        "contract": "contracts/CreationFactory.sol:CreationFactory",
        "label": "creatorFeePercent",
        "offset": 0,
        "slot": "7",
        "type": "t_uint256"
      },
      {
        "astId": 6858,
        "contract": "contracts/CreationFactory.sol:CreationFactory",
        "label": "curatorFeePercent",
        "offset": 0,
        "slot": "8",
        "type": "t_uint256"
      },
      {
        "astId": 6861,
        "contract": "contracts/CreationFactory.sol:CreationFactory",
        "label": "protocolFeePercent",
        "offset": 0,
        "slot": "9",
        "type": "t_uint256"
      },
      {
        "astId": 6863,
        "contract": "contracts/CreationFactory.sol:CreationFactory",
        "label": "creationIndex",
        "offset": 0,
        "slot": "10",
        "type": "t_uint256"
      },
      {
        "astId": 6865,
        "contract": "contracts/CreationFactory.sol:CreationFactory",
        "label": "ethAmount",
        "offset": 0,
        "slot": "11",
        "type": "t_uint256"
      },
      {
        "astId": 6867,
        "contract": "contracts/CreationFactory.sol:CreationFactory",
        "label": "protocolFeeTo",
        "offset": 0,
        "slot": "12",
        "type": "t_address"
      },
      {
        "astId": 6872,
        "contract": "contracts/CreationFactory.sol:CreationFactory",
        "label": "creations",
        "offset": 0,
        "slot": "13",
        "type": "t_mapping(t_uint256,t_struct(Creation)9510_storage)"
      },
      {
        "astId": 6877,
        "contract": "contracts/CreationFactory.sol:CreationFactory",
        "label": "userCreations",
        "offset": 0,
        "slot": "14",
        "type": "t_mapping(t_address,t_array(t_uint256)dyn_storage)"
      },
      {
        "astId": 6881,
        "contract": "contracts/CreationFactory.sol:CreationFactory",
        "label": "minted",
        "offset": 0,
        "slot": "15",
        "type": "t_mapping(t_bytes32,t_bool)"
      }
    ],
    "types": {
      "t_address": {
        "encoding": "inplace",
        "label": "address",
        "numberOfBytes": "20"
      },
      "t_array(t_uint256)dyn_storage": {
        "base": "t_uint256",
        "encoding": "dynamic_array",
        "label": "uint256[]",
        "numberOfBytes": "32"
      },
      "t_bool": {
        "encoding": "inplace",
        "label": "bool",
        "numberOfBytes": "1"
      },
      "t_bytes32": {
        "encoding": "inplace",
        "label": "bytes32",
        "numberOfBytes": "32"
      },
      "t_mapping(t_address,t_array(t_uint256)dyn_storage)": {
        "encoding": "mapping",
        "key": "t_address",
        "label": "mapping(address => uint256[])",
        "numberOfBytes": "32",
        "value": "t_array(t_uint256)dyn_storage"
      },
      "t_mapping(t_address,t_bool)": {
        "encoding": "mapping",
        "key": "t_address",
        "label": "mapping(address => bool)",
        "numberOfBytes": "32",
        "value": "t_bool"
      },
      "t_mapping(t_address,t_mapping(t_address,t_bool))": {
        "encoding": "mapping",
        "key": "t_address",
        "label": "mapping(address => mapping(address => bool))",
        "numberOfBytes": "32",
        "value": "t_mapping(t_address,t_bool)"
      },
      "t_mapping(t_address,t_uint256)": {
        "encoding": "mapping",
        "key": "t_address",
        "label": "mapping(address => uint256)",
        "numberOfBytes": "32",
        "value": "t_uint256"
      },
      "t_mapping(t_bytes32,t_bool)": {
        "encoding": "mapping",
        "key": "t_bytes32",
        "label": "mapping(bytes32 => bool)",
        "numberOfBytes": "32",
        "value": "t_bool"
      },
      "t_mapping(t_uint256,t_mapping(t_address,t_uint256))": {
        "encoding": "mapping",
        "key": "t_uint256",
        "label": "mapping(uint256 => mapping(address => uint256))",
        "numberOfBytes": "32",
        "value": "t_mapping(t_address,t_uint256)"
      },
      "t_mapping(t_uint256,t_struct(Creation)9510_storage)": {
        "encoding": "mapping",
        "key": "t_uint256",
        "label": "mapping(uint256 => struct Creation)",
        "numberOfBytes": "32",
        "value": "t_struct(Creation)9510_storage"
      },
      "t_mapping(t_uint256,t_uint256)": {
        "encoding": "mapping",
        "key": "t_uint256",
        "label": "mapping(uint256 => uint256)",
        "numberOfBytes": "32",
        "value": "t_uint256"
      },
      "t_string_storage": {
        "encoding": "bytes",
        "label": "string",
        "numberOfBytes": "32"
      },
      "t_struct(Creation)9510_storage": {
        "encoding": "inplace",
        "label": "struct Creation",
        "members": [
          {
            "astId": 9503,
            "contract": "contracts/CreationFactory.sol:CreationFactory",
            "label": "id",
            "offset": 0,
            "slot": "0",
            "type": "t_uint256"
          },
          {
            "astId": 9505,
            "contract": "contracts/CreationFactory.sol:CreationFactory",
            "label": "creator",
            "offset": 0,
            "slot": "1",
            "type": "t_address"
          },
          {
            "astId": 9507,
            "contract": "contracts/CreationFactory.sol:CreationFactory",
            "label": "uri",
            "offset": 0,
            "slot": "2",
            "type": "t_string_storage"
          },
          {
            "astId": 9509,
            "contract": "contracts/CreationFactory.sol:CreationFactory",
            "label": "price",
            "offset": 0,
            "slot": "3",
            "type": "t_uint256"
          }
        ],
        "numberOfBytes": "128"
      },
      "t_uint256": {
        "encoding": "inplace",
        "label": "uint256",
        "numberOfBytes": "32"
      }
    }
  }
}