{
  "address": "0xE84bB83424A52229288e703C7e55397a9D5a2F3C",
  "abi": [
    {
      "inputs": [
        {
          "internalType": "address",
          "name": "initialOwner",
          "type": "address"
        }
      ],
      "stateMutability": "nonpayable",
      "type": "constructor"
    },
    {
      "inputs": [
        {
          "internalType": "address",
          "name": "sender",
          "type": "address"
        },
        {
          "internalType": "uint256",
          "name": "balance",
          "type": "uint256"
        },
        {
          "internalType": "uint256",
          "name": "needed",
          "type": "uint256"
        },
        {
          "internalType": "uint256",
          "name": "tokenId",
          "type": "uint256"
        }
      ],
      "name": "ERC1155InsufficientBalance",
      "type": "error"
    },
    {
      "inputs": [
        {
          "internalType": "address",
          "name": "approver",
          "type": "address"
        }
      ],
      "name": "ERC1155InvalidApprover",
      "type": "error"
    },
    {
      "inputs": [
        {
          "internalType": "uint256",
          "name": "idsLength",
          "type": "uint256"
        },
        {
          "internalType": "uint256",
          "name": "valuesLength",
          "type": "uint256"
        }
      ],
      "name": "ERC1155InvalidArrayLength",
      "type": "error"
    },
    {
      "inputs": [
        {
          "internalType": "address",
          "name": "operator",
          "type": "address"
        }
      ],
      "name": "ERC1155InvalidOperator",
      "type": "error"
    },
    {
      "inputs": [
        {
          "internalType": "address",
          "name": "receiver",
          "type": "address"
        }
      ],
      "name": "ERC1155InvalidReceiver",
      "type": "error"
    },
    {
      "inputs": [
        {
          "internalType": "address",
          "name": "sender",
          "type": "address"
        }
      ],
      "name": "ERC1155InvalidSender",
      "type": "error"
    },
    {
      "inputs": [
        {
          "internalType": "address",
          "name": "operator",
          "type": "address"
        },
        {
          "internalType": "address",
          "name": "owner",
          "type": "address"
        }
      ],
      "name": "ERC1155MissingApprovalForAll",
      "type": "error"
    },
    {
      "inputs": [
        {
          "internalType": "address",
          "name": "owner",
          "type": "address"
        }
      ],
      "name": "OwnableInvalidOwner",
      "type": "error"
    },
    {
      "inputs": [
        {
          "internalType": "address",
          "name": "account",
          "type": "address"
        }
      ],
      "name": "OwnableUnauthorizedAccount",
      "type": "error"
    },
    {
      "inputs": [],
      "name": "ReentrancyGuardReentrantCall",
      "type": "error"
    },
    {
      "anonymous": false,
      "inputs": [
        {
          "indexed": true,
          "internalType": "address",
          "name": "account",
          "type": "address"
        },
        {
          "indexed": true,
          "internalType": "address",
          "name": "operator",
          "type": "address"
        },
        {
          "indexed": false,
          "internalType": "bool",
          "name": "approved",
          "type": "bool"
        }
      ],
      "name": "ApprovalForAll",
      "type": "event"
    },
    {
      "anonymous": false,
      "inputs": [
        {
          "indexed": true,
          "internalType": "uint8",
          "name": "farmerIndex",
          "type": "uint8"
        },
        {
          "indexed": true,
          "internalType": "address",
          "name": "farmer",
          "type": "address"
        }
      ],
      "name": "FarmerAdded",
      "type": "event"
    },
    {
      "anonymous": false,
      "inputs": [
        {
          "indexed": false,
          "internalType": "uint256",
          "name": "id",
          "type": "uint256"
        },
        {
          "indexed": true,
          "internalType": "address",
          "name": "creator",
          "type": "address"
        },
        {
          "indexed": false,
          "internalType": "string",
          "name": "name",
          "type": "string"
        },
        {
          "indexed": false,
          "internalType": "string",
          "name": "uri",
          "type": "string"
        },
        {
          "indexed": false,
          "internalType": "address",
          "name": "feeTo",
          "type": "address"
        },
        {
          "indexed": false,
          "internalType": "uint256",
          "name": "appFeePercent",
          "type": "uint256"
        },
        {
          "indexed": false,
          "internalType": "uint256",
          "name": "creatorFeePercent",
          "type": "uint256"
        }
      ],
      "name": "NewApp",
      "type": "event"
    },
    {
      "anonymous": false,
      "inputs": [
        {
          "indexed": true,
          "internalType": "uint256",
          "name": "creationId",
          "type": "uint256"
        },
        {
          "indexed": true,
          "internalType": "address",
          "name": "creator",
          "type": "address"
        },
        {
          "indexed": true,
          "internalType": "uint256",
          "name": "appId",
          "type": "uint256"
        },
        {
          "indexed": false,
          "internalType": "string",
          "name": "name",
          "type": "string"
        },
        {
          "indexed": false,
          "internalType": "string",
          "name": "uri",
          "type": "string"
        },
        {
          "components": [
            {
              "internalType": "uint96",
              "name": "basePrice",
              "type": "uint96"
            },
            {
              "internalType": "uint32",
              "name": "inflectionPoint",
              "type": "uint32"
            },
            {
              "internalType": "uint128",
              "name": "inflectionPrice",
              "type": "uint128"
            },
            {
              "internalType": "uint128",
              "name": "linearPriceSlope",
              "type": "uint128"
            }
          ],
          "indexed": false,
          "internalType": "struct IndieX.Curve",
          "name": "curve",
          "type": "tuple"
        },
        {
          "indexed": false,
          "internalType": "uint8",
          "name": "farmerId",
          "type": "uint8"
        },
        {
          "indexed": false,
          "internalType": "bool",
          "name": "isFarming",
          "type": "bool"
        }
      ],
      "name": "NewCreation",
      "type": "event"
    },
    {
      "anonymous": false,
      "inputs": [
        {
          "indexed": true,
          "internalType": "address",
          "name": "previousOwner",
          "type": "address"
        },
        {
          "indexed": true,
          "internalType": "address",
          "name": "newOwner",
          "type": "address"
        }
      ],
      "name": "OwnershipTransferred",
      "type": "event"
    },
    {
      "anonymous": false,
      "inputs": [
        {
          "indexed": false,
          "internalType": "uint256",
          "name": "previousFeePercent",
          "type": "uint256"
        },
        {
          "indexed": false,
          "internalType": "uint256",
          "name": "newFeePercent",
          "type": "uint256"
        }
      ],
      "name": "ProtocolFeePercentUpdated",
      "type": "event"
    },
    {
      "anonymous": false,
      "inputs": [
        {
          "indexed": true,
          "internalType": "address",
          "name": "previousFeeTo",
          "type": "address"
        },
        {
          "indexed": true,
          "internalType": "address",
          "name": "newFeeTo",
          "type": "address"
        }
      ],
      "name": "ProtocolFeeToUpdated",
      "type": "event"
    },
    {
      "anonymous": false,
      "inputs": [
        {
          "indexed": true,
          "internalType": "enum IndieX.TradeType",
          "name": "tradeType",
          "type": "uint8"
        },
        {
          "indexed": true,
          "internalType": "uint256",
          "name": "creationId",
          "type": "uint256"
        },
        {
          "indexed": true,
          "internalType": "address",
          "name": "sender",
          "type": "address"
        },
        {
          "indexed": false,
          "internalType": "uint256",
          "name": "tokenAmount",
          "type": "uint256"
        },
        {
          "indexed": false,
          "internalType": "uint256",
          "name": "fundAmount",
          "type": "uint256"
        },
        {
          "indexed": false,
          "internalType": "uint256",
          "name": "creatorFee",
          "type": "uint256"
        },
        {
          "indexed": false,
          "internalType": "uint256",
          "name": "appFee",
          "type": "uint256"
        },
        {
          "indexed": false,
          "internalType": "uint256",
          "name": "protocolFee",
          "type": "uint256"
        },
        {
          "indexed": false,
          "internalType": "address",
          "name": "curator",
          "type": "address"
        },
        {
          "indexed": false,
          "internalType": "uint256",
          "name": "curatorFee",
          "type": "uint256"
        }
      ],
      "name": "Trade",
      "type": "event"
    },
    {
      "anonymous": false,
      "inputs": [
        {
          "indexed": true,
          "internalType": "address",
          "name": "operator",
          "type": "address"
        },
        {
          "indexed": true,
          "internalType": "address",
          "name": "from",
          "type": "address"
        },
        {
          "indexed": true,
          "internalType": "address",
          "name": "to",
          "type": "address"
        },
        {
          "indexed": false,
          "internalType": "uint256[]",
          "name": "ids",
          "type": "uint256[]"
        },
        {
          "indexed": false,
          "internalType": "uint256[]",
          "name": "values",
          "type": "uint256[]"
        }
      ],
      "name": "TransferBatch",
      "type": "event"
    },
    {
      "anonymous": false,
      "inputs": [
        {
          "indexed": true,
          "internalType": "address",
          "name": "operator",
          "type": "address"
        },
        {
          "indexed": true,
          "internalType": "address",
          "name": "from",
          "type": "address"
        },
        {
          "indexed": true,
          "internalType": "address",
          "name": "to",
          "type": "address"
        },
        {
          "indexed": false,
          "internalType": "uint256",
          "name": "id",
          "type": "uint256"
        },
        {
          "indexed": false,
          "internalType": "uint256",
          "name": "value",
          "type": "uint256"
        }
      ],
      "name": "TransferSingle",
      "type": "event"
    },
    {
      "anonymous": false,
      "inputs": [
        {
          "indexed": false,
          "internalType": "string",
          "name": "value",
          "type": "string"
        },
        {
          "indexed": true,
          "internalType": "uint256",
          "name": "id",
          "type": "uint256"
        }
      ],
      "name": "URI",
      "type": "event"
    },
    {
      "anonymous": false,
      "inputs": [
        {
          "indexed": false,
          "internalType": "uint256",
          "name": "id",
          "type": "uint256"
        },
        {
          "indexed": true,
          "internalType": "address",
          "name": "creator",
          "type": "address"
        },
        {
          "indexed": false,
          "internalType": "string",
          "name": "name",
          "type": "string"
        },
        {
          "indexed": false,
          "internalType": "string",
          "name": "uri",
          "type": "string"
        },
        {
          "indexed": false,
          "internalType": "address",
          "name": "feeTo",
          "type": "address"
        },
        {
          "indexed": false,
          "internalType": "uint256",
          "name": "appFeePercent",
          "type": "uint256"
        },
        {
          "indexed": false,
          "internalType": "uint256",
          "name": "creatorFeePercent",
          "type": "uint256"
        }
      ],
      "name": "UpdateApp",
      "type": "event"
    },
    {
      "anonymous": false,
      "inputs": [
        {
          "indexed": true,
          "internalType": "uint256",
          "name": "creationId",
          "type": "uint256"
        },
        {
          "indexed": true,
          "internalType": "address",
          "name": "creator",
          "type": "address"
        },
        {
          "indexed": true,
          "internalType": "uint256",
          "name": "appId",
          "type": "uint256"
        },
        {
          "indexed": false,
          "internalType": "string",
          "name": "name",
          "type": "string"
        },
        {
          "indexed": false,
          "internalType": "string",
          "name": "uri",
          "type": "string"
        }
      ],
      "name": "UpdateCreation",
      "type": "event"
    },
    {
      "stateMutability": "payable",
      "type": "fallback"
    },
    {
      "inputs": [],
      "name": "CREATOR_PREMINT",
      "outputs": [
        {
          "internalType": "uint256",
          "name": "",
          "type": "uint256"
        }
      ],
      "stateMutability": "view",
      "type": "function"
    },
    {
      "inputs": [
        {
          "internalType": "address",
          "name": "farmer",
          "type": "address"
        }
      ],
      "name": "addFarmer",
      "outputs": [],
      "stateMutability": "nonpayable",
      "type": "function"
    },
    {
      "inputs": [],
      "name": "appIndex",
      "outputs": [
        {
          "internalType": "uint256",
          "name": "",
          "type": "uint256"
        }
      ],
      "stateMutability": "view",
      "type": "function"
    },
    {
      "inputs": [
        {
          "internalType": "uint256",
          "name": "",
          "type": "uint256"
        }
      ],
      "name": "apps",
      "outputs": [
        {
          "internalType": "uint256",
          "name": "id",
          "type": "uint256"
        },
        {
          "internalType": "address",
          "name": "creator",
          "type": "address"
        },
        {
          "internalType": "string",
          "name": "name",
          "type": "string"
        },
        {
          "internalType": "string",
          "name": "uri",
          "type": "string"
        },
        {
          "internalType": "address",
          "name": "feeTo",
          "type": "address"
        },
        {
          "internalType": "uint256",
          "name": "appFeePercent",
          "type": "uint256"
        },
        {
          "internalType": "uint256",
          "name": "creatorFeePercent",
          "type": "uint256"
        }
      ],
      "stateMutability": "view",
      "type": "function"
    },
    {
      "inputs": [
        {
          "internalType": "address",
          "name": "account",
          "type": "address"
        },
        {
          "internalType": "uint256",
          "name": "id",
          "type": "uint256"
        }
      ],
      "name": "balanceOf",
      "outputs": [
        {
          "internalType": "uint256",
          "name": "",
          "type": "uint256"
        }
      ],
      "stateMutability": "view",
      "type": "function"
    },
    {
      "inputs": [
        {
          "internalType": "address[]",
          "name": "accounts",
          "type": "address[]"
        },
        {
          "internalType": "uint256[]",
          "name": "ids",
          "type": "uint256[]"
        }
      ],
      "name": "balanceOfBatch",
      "outputs": [
        {
          "internalType": "uint256[]",
          "name": "",
          "type": "uint256[]"
        }
      ],
      "stateMutability": "view",
      "type": "function"
    },
    {
      "inputs": [
        {
          "internalType": "uint256",
          "name": "creationId",
          "type": "uint256"
        },
        {
          "internalType": "uint32",
          "name": "amount",
          "type": "uint32"
        },
        {
          "internalType": "address",
          "name": "curator",
          "type": "address"
        }
      ],
      "name": "buy",
      "outputs": [],
      "stateMutability": "payable",
      "type": "function"
    },
    {
      "inputs": [],
      "name": "creationIndex",
      "outputs": [
        {
          "internalType": "uint256",
          "name": "",
          "type": "uint256"
        }
      ],
      "stateMutability": "view",
      "type": "function"
    },
    {
      "inputs": [
        {
          "internalType": "uint256",
          "name": "id",
          "type": "uint256"
        }
      ],
      "name": "creationSupply",
      "outputs": [
        {
          "internalType": "uint256",
          "name": "",
          "type": "uint256"
        }
      ],
      "stateMutability": "view",
      "type": "function"
    },
    {
      "inputs": [
        {
          "internalType": "uint256",
          "name": "",
          "type": "uint256"
        }
      ],
      "name": "creations",
      "outputs": [
        {
          "internalType": "uint256",
          "name": "id",
          "type": "uint256"
        },
        {
          "internalType": "uint256",
          "name": "appId",
          "type": "uint256"
        },
        {
          "internalType": "address",
          "name": "creator",
          "type": "address"
        },
        {
          "internalType": "string",
          "name": "name",
          "type": "string"
        },
        {
          "internalType": "string",
          "name": "uri",
          "type": "string"
        },
        {
          "internalType": "uint256",
          "name": "curatorFeePercent",
          "type": "uint256"
        },
        {
          "components": [
            {
              "internalType": "uint96",
              "name": "basePrice",
              "type": "uint96"
            },
            {
              "internalType": "uint32",
              "name": "inflectionPoint",
              "type": "uint32"
            },
            {
              "internalType": "uint128",
              "name": "inflectionPrice",
              "type": "uint128"
            },
            {
              "internalType": "uint128",
              "name": "linearPriceSlope",
              "type": "uint128"
            }
          ],
          "internalType": "struct IndieX.Curve",
          "name": "curve",
          "type": "tuple"
        },
        {
          "internalType": "uint8",
          "name": "farmer",
          "type": "uint8"
        },
        {
          "internalType": "bool",
          "name": "isFarming",
          "type": "bool"
        },
        {
          "internalType": "uint256",
          "name": "balance",
          "type": "uint256"
        },
        {
          "internalType": "uint256",
          "name": "volume",
          "type": "uint256"
        }
      ],
      "stateMutability": "view",
      "type": "function"
    },
    {
      "inputs": [
        {
          "internalType": "uint256",
          "name": "id",
          "type": "uint256"
        }
      ],
      "name": "exists",
      "outputs": [
        {
          "internalType": "bool",
          "name": "",
          "type": "bool"
        }
      ],
      "stateMutability": "view",
      "type": "function"
    },
    {
      "inputs": [],
      "name": "farmerIndex",
      "outputs": [
        {
          "internalType": "uint8",
          "name": "",
          "type": "uint8"
        }
      ],
      "stateMutability": "view",
      "type": "function"
    },
    {
      "inputs": [
        {
          "internalType": "uint8",
          "name": "",
          "type": "uint8"
        }
      ],
      "name": "farmers",
      "outputs": [
        {
          "internalType": "address",
          "name": "",
          "type": "address"
        }
      ],
      "stateMutability": "view",
      "type": "function"
    },
    {
      "inputs": [
        {
          "internalType": "uint256",
          "name": "id",
          "type": "uint256"
        }
      ],
      "name": "getApp",
      "outputs": [
        {
          "components": [
            {
              "internalType": "uint256",
              "name": "id",
              "type": "uint256"
            },
            {
              "internalType": "address",
              "name": "creator",
              "type": "address"
            },
            {
              "internalType": "string",
              "name": "name",
              "type": "string"
            },
            {
              "internalType": "string",
              "name": "uri",
              "type": "string"
            },
            {
              "internalType": "address",
              "name": "feeTo",
              "type": "address"
            },
            {
              "internalType": "uint256",
              "name": "appFeePercent",
              "type": "uint256"
            },
            {
              "internalType": "uint256",
              "name": "creatorFeePercent",
              "type": "uint256"
            }
          ],
          "internalType": "struct IndieX.App",
          "name": "",
          "type": "tuple"
        }
      ],
      "stateMutability": "view",
      "type": "function"
    },
    {
      "inputs": [
        {
          "internalType": "uint256",
          "name": "creationId",
          "type": "uint256"
        },
        {
          "internalType": "uint32",
          "name": "amount",
          "type": "uint32"
        }
      ],
      "name": "getBuyPrice",
      "outputs": [
        {
          "internalType": "uint256",
          "name": "",
          "type": "uint256"
        }
      ],
      "stateMutability": "view",
      "type": "function"
    },
    {
      "inputs": [
        {
          "internalType": "uint256",
          "name": "creationId",
          "type": "uint256"
        },
        {
          "internalType": "uint32",
          "name": "amount",
          "type": "uint32"
        },
        {
          "internalType": "uint256",
          "name": "appId",
          "type": "uint256"
        }
      ],
      "name": "getBuyPriceAfterFee",
      "outputs": [
        {
          "components": [
            {
              "internalType": "uint256",
              "name": "priceAfterFee",
              "type": "uint256"
            },
            {
              "internalType": "uint256",
              "name": "price",
              "type": "uint256"
            },
            {
              "internalType": "uint256",
              "name": "creatorFee",
              "type": "uint256"
            },
            {
              "internalType": "uint256",
              "name": "appFee",
              "type": "uint256"
            },
            {
              "internalType": "uint256",
              "name": "protocolFee",
              "type": "uint256"
            }
          ],
          "internalType": "struct IndieX.PriceInfo",
          "name": "",
          "type": "tuple"
        }
      ],
      "stateMutability": "view",
      "type": "function"
    },
    {
      "inputs": [
        {
          "internalType": "uint256",
          "name": "id",
          "type": "uint256"
        }
      ],
      "name": "getCreation",
      "outputs": [
        {
          "components": [
            {
              "internalType": "uint256",
              "name": "id",
              "type": "uint256"
            },
            {
              "internalType": "uint256",
              "name": "appId",
              "type": "uint256"
            },
            {
              "internalType": "address",
              "name": "creator",
              "type": "address"
            },
            {
              "internalType": "string",
              "name": "name",
              "type": "string"
            },
            {
              "internalType": "string",
              "name": "uri",
              "type": "string"
            },
            {
              "internalType": "uint256",
              "name": "curatorFeePercent",
              "type": "uint256"
            },
            {
              "components": [
                {
                  "internalType": "uint96",
                  "name": "basePrice",
                  "type": "uint96"
                },
                {
                  "internalType": "uint32",
                  "name": "inflectionPoint",
                  "type": "uint32"
                },
                {
                  "internalType": "uint128",
                  "name": "inflectionPrice",
                  "type": "uint128"
                },
                {
                  "internalType": "uint128",
                  "name": "linearPriceSlope",
                  "type": "uint128"
                }
              ],
              "internalType": "struct IndieX.Curve",
              "name": "curve",
              "type": "tuple"
            },
            {
              "internalType": "uint8",
              "name": "farmer",
              "type": "uint8"
            },
            {
              "internalType": "bool",
              "name": "isFarming",
              "type": "bool"
            },
            {
              "internalType": "uint256",
              "name": "balance",
              "type": "uint256"
            },
            {
              "internalType": "uint256",
              "name": "volume",
              "type": "uint256"
            }
          ],
          "internalType": "struct IndieX.Creation",
          "name": "",
          "type": "tuple"
        }
      ],
      "stateMutability": "view",
      "type": "function"
    },
    {
      "inputs": [
        {
          "internalType": "uint256",
          "name": "creationId",
          "type": "uint256"
        },
        {
          "internalType": "uint32",
          "name": "amount",
          "type": "uint32"
        }
      ],
      "name": "getSellPrice",
      "outputs": [
        {
          "internalType": "uint256",
          "name": "",
          "type": "uint256"
        }
      ],
      "stateMutability": "view",
      "type": "function"
    },
    {
      "inputs": [
        {
          "internalType": "uint256",
          "name": "creationId",
          "type": "uint256"
        },
        {
          "internalType": "uint32",
          "name": "amount",
          "type": "uint32"
        },
        {
          "internalType": "uint256",
          "name": "appId",
          "type": "uint256"
        }
      ],
      "name": "getSellPriceAfterFee",
      "outputs": [
        {
          "components": [
            {
              "internalType": "uint256",
              "name": "priceAfterFee",
              "type": "uint256"
            },
            {
              "internalType": "uint256",
              "name": "price",
              "type": "uint256"
            },
            {
              "internalType": "uint256",
              "name": "creatorFee",
              "type": "uint256"
            },
            {
              "internalType": "uint256",
              "name": "appFee",
              "type": "uint256"
            },
            {
              "internalType": "uint256",
              "name": "protocolFee",
              "type": "uint256"
            }
          ],
          "internalType": "struct IndieX.PriceInfo",
          "name": "",
          "type": "tuple"
        }
      ],
      "stateMutability": "view",
      "type": "function"
    },
    {
      "inputs": [
        {
          "components": [
            {
              "internalType": "uint256",
              "name": "id",
              "type": "uint256"
            },
            {
              "internalType": "uint256",
              "name": "appId",
              "type": "uint256"
            },
            {
              "internalType": "address",
              "name": "creator",
              "type": "address"
            },
            {
              "internalType": "string",
              "name": "name",
              "type": "string"
            },
            {
              "internalType": "string",
              "name": "uri",
              "type": "string"
            },
            {
              "internalType": "uint256",
              "name": "curatorFeePercent",
              "type": "uint256"
            },
            {
              "components": [
                {
                  "internalType": "uint96",
                  "name": "basePrice",
                  "type": "uint96"
                },
                {
                  "internalType": "uint32",
                  "name": "inflectionPoint",
                  "type": "uint32"
                },
                {
                  "internalType": "uint128",
                  "name": "inflectionPrice",
                  "type": "uint128"
                },
                {
                  "internalType": "uint128",
                  "name": "linearPriceSlope",
                  "type": "uint128"
                }
              ],
              "internalType": "struct IndieX.Curve",
              "name": "curve",
              "type": "tuple"
            },
            {
              "internalType": "uint8",
              "name": "farmer",
              "type": "uint8"
            },
            {
              "internalType": "bool",
              "name": "isFarming",
              "type": "bool"
            },
            {
              "internalType": "uint256",
              "name": "balance",
              "type": "uint256"
            },
            {
              "internalType": "uint256",
              "name": "volume",
              "type": "uint256"
            }
          ],
          "internalType": "struct IndieX.Creation",
          "name": "creation",
          "type": "tuple"
        },
        {
          "internalType": "uint32",
          "name": "fromSupply",
          "type": "uint32"
        },
        {
          "internalType": "uint32",
          "name": "quantity",
          "type": "uint32"
        }
      ],
      "name": "getSubTotal",
      "outputs": [
        {
          "internalType": "uint256",
          "name": "",
          "type": "uint256"
        }
      ],
      "stateMutability": "pure",
      "type": "function"
    },
    {
      "inputs": [
        {
          "internalType": "address",
          "name": "creator",
          "type": "address"
        }
      ],
      "name": "getUserCreations",
      "outputs": [
        {
          "internalType": "uint256[]",
          "name": "",
          "type": "uint256[]"
        }
      ],
      "stateMutability": "view",
      "type": "function"
    },
    {
      "inputs": [
        {
          "internalType": "address",
          "name": "creator",
          "type": "address"
        }
      ],
      "name": "getUserLatestCreation",
      "outputs": [
        {
          "components": [
            {
              "internalType": "uint256",
              "name": "id",
              "type": "uint256"
            },
            {
              "internalType": "uint256",
              "name": "appId",
              "type": "uint256"
            },
            {
              "internalType": "address",
              "name": "creator",
              "type": "address"
            },
            {
              "internalType": "string",
              "name": "name",
              "type": "string"
            },
            {
              "internalType": "string",
              "name": "uri",
              "type": "string"
            },
            {
              "internalType": "uint256",
              "name": "curatorFeePercent",
              "type": "uint256"
            },
            {
              "components": [
                {
                  "internalType": "uint96",
                  "name": "basePrice",
                  "type": "uint96"
                },
                {
                  "internalType": "uint32",
                  "name": "inflectionPoint",
                  "type": "uint32"
                },
                {
                  "internalType": "uint128",
                  "name": "inflectionPrice",
                  "type": "uint128"
                },
                {
                  "internalType": "uint128",
                  "name": "linearPriceSlope",
                  "type": "uint128"
                }
              ],
              "internalType": "struct IndieX.Curve",
              "name": "curve",
              "type": "tuple"
            },
            {
              "internalType": "uint8",
              "name": "farmer",
              "type": "uint8"
            },
            {
              "internalType": "bool",
              "name": "isFarming",
              "type": "bool"
            },
            {
              "internalType": "uint256",
              "name": "balance",
              "type": "uint256"
            },
            {
              "internalType": "uint256",
              "name": "volume",
              "type": "uint256"
            }
          ],
          "internalType": "struct IndieX.Creation",
          "name": "creation",
          "type": "tuple"
        }
      ],
      "stateMutability": "view",
      "type": "function"
    },
    {
      "inputs": [
        {
          "internalType": "address",
          "name": "account",
          "type": "address"
        },
        {
          "internalType": "address",
          "name": "operator",
          "type": "address"
        }
      ],
      "name": "isApprovedForAll",
      "outputs": [
        {
          "internalType": "bool",
          "name": "",
          "type": "bool"
        }
      ],
      "stateMutability": "view",
      "type": "function"
    },
    {
      "inputs": [
        {
          "components": [
            {
              "internalType": "string",
              "name": "name",
              "type": "string"
            },
            {
              "internalType": "string",
              "name": "uri",
              "type": "string"
            },
            {
              "internalType": "address",
              "name": "feeTo",
              "type": "address"
            },
            {
              "internalType": "uint256",
              "name": "appFeePercent",
              "type": "uint256"
            },
            {
              "internalType": "uint256",
              "name": "creatorFeePercent",
              "type": "uint256"
            }
          ],
          "internalType": "struct IndieX.UpsertAppInput",
          "name": "input",
          "type": "tuple"
        }
      ],
      "name": "newApp",
      "outputs": [],
      "stateMutability": "nonpayable",
      "type": "function"
    },
    {
      "inputs": [
        {
          "components": [
            {
              "internalType": "uint256",
              "name": "appId",
              "type": "uint256"
            },
            {
              "internalType": "string",
              "name": "name",
              "type": "string"
            },
            {
              "internalType": "string",
              "name": "uri",
              "type": "string"
            },
            {
              "internalType": "uint256",
              "name": "curatorFeePercent",
              "type": "uint256"
            },
            {
              "components": [
                {
                  "internalType": "uint96",
                  "name": "basePrice",
                  "type": "uint96"
                },
                {
                  "internalType": "uint32",
                  "name": "inflectionPoint",
                  "type": "uint32"
                },
                {
                  "internalType": "uint128",
                  "name": "inflectionPrice",
                  "type": "uint128"
                },
                {
                  "internalType": "uint128",
                  "name": "linearPriceSlope",
                  "type": "uint128"
                }
              ],
              "internalType": "struct IndieX.Curve",
              "name": "curve",
              "type": "tuple"
            },
            {
              "internalType": "uint8",
              "name": "farmer",
              "type": "uint8"
            },
            {
              "internalType": "bool",
              "name": "isFarming",
              "type": "bool"
            }
          ],
          "internalType": "struct IndieX.NewCreationInput",
          "name": "input",
          "type": "tuple"
        }
      ],
      "name": "newCreation",
      "outputs": [],
      "stateMutability": "nonpayable",
      "type": "function"
    },
    {
      "inputs": [],
      "name": "owner",
      "outputs": [
        {
          "internalType": "address",
          "name": "",
          "type": "address"
        }
      ],
      "stateMutability": "view",
      "type": "function"
    },
    {
      "inputs": [],
      "name": "protocolFeePercent",
      "outputs": [
        {
          "internalType": "uint256",
          "name": "",
          "type": "uint256"
        }
      ],
      "stateMutability": "view",
      "type": "function"
    },
    {
      "inputs": [],
      "name": "protocolFeeTo",
      "outputs": [
        {
          "internalType": "address",
          "name": "",
          "type": "address"
        }
      ],
      "stateMutability": "view",
      "type": "function"
    },
    {
      "inputs": [],
      "name": "renounceOwnership",
      "outputs": [],
      "stateMutability": "nonpayable",
      "type": "function"
    },
    {
      "inputs": [
        {
          "internalType": "address",
          "name": "from",
          "type": "address"
        },
        {
          "internalType": "address",
          "name": "to",
          "type": "address"
        },
        {
          "internalType": "uint256[]",
          "name": "ids",
          "type": "uint256[]"
        },
        {
          "internalType": "uint256[]",
          "name": "values",
          "type": "uint256[]"
        },
        {
          "internalType": "bytes",
          "name": "data",
          "type": "bytes"
        }
      ],
      "name": "safeBatchTransferFrom",
      "outputs": [],
      "stateMutability": "nonpayable",
      "type": "function"
    },
    {
      "inputs": [
        {
          "internalType": "address",
          "name": "from",
          "type": "address"
        },
        {
          "internalType": "address",
          "name": "to",
          "type": "address"
        },
        {
          "internalType": "uint256",
          "name": "id",
          "type": "uint256"
        },
        {
          "internalType": "uint256",
          "name": "value",
          "type": "uint256"
        },
        {
          "internalType": "bytes",
          "name": "data",
          "type": "bytes"
        }
      ],
      "name": "safeTransferFrom",
      "outputs": [],
      "stateMutability": "nonpayable",
      "type": "function"
    },
    {
      "inputs": [
        {
          "internalType": "uint256",
          "name": "creationId",
          "type": "uint256"
        },
        {
          "internalType": "uint32",
          "name": "amount",
          "type": "uint32"
        }
      ],
      "name": "sell",
      "outputs": [],
      "stateMutability": "nonpayable",
      "type": "function"
    },
    {
      "inputs": [
        {
          "internalType": "address",
          "name": "operator",
          "type": "address"
        },
        {
          "internalType": "bool",
          "name": "approved",
          "type": "bool"
        }
      ],
      "name": "setApprovalForAll",
      "outputs": [],
      "stateMutability": "nonpayable",
      "type": "function"
    },
    {
      "inputs": [
        {
          "internalType": "uint256",
          "name": "_feePercent",
          "type": "uint256"
        }
      ],
      "name": "setProtocolFeePercent",
      "outputs": [],
      "stateMutability": "nonpayable",
      "type": "function"
    },
    {
      "inputs": [
        {
          "internalType": "address",
          "name": "_feeTo",
          "type": "address"
        }
      ],
      "name": "setProtocolFeeTo",
      "outputs": [],
      "stateMutability": "nonpayable",
      "type": "function"
    },
    {
      "inputs": [
        {
          "internalType": "address",
          "name": "_usdc",
          "type": "address"
        }
      ],
      "name": "setUSDC",
      "outputs": [],
      "stateMutability": "nonpayable",
      "type": "function"
    },
    {
      "inputs": [
        {
          "internalType": "bytes4",
          "name": "interfaceId",
          "type": "bytes4"
        }
      ],
      "name": "supportsInterface",
      "outputs": [
        {
          "internalType": "bool",
          "name": "",
          "type": "bool"
        }
      ],
      "stateMutability": "view",
      "type": "function"
    },
    {
      "inputs": [],
      "name": "totalSupply",
      "outputs": [
        {
          "internalType": "uint256",
          "name": "",
          "type": "uint256"
        }
      ],
      "stateMutability": "view",
      "type": "function"
    },
    {
      "inputs": [
        {
          "internalType": "uint256",
          "name": "id",
          "type": "uint256"
        }
      ],
      "name": "totalSupply",
      "outputs": [
        {
          "internalType": "uint256",
          "name": "",
          "type": "uint256"
        }
      ],
      "stateMutability": "view",
      "type": "function"
    },
    {
      "inputs": [
        {
          "internalType": "address",
          "name": "newOwner",
          "type": "address"
        }
      ],
      "name": "transferOwnership",
      "outputs": [],
      "stateMutability": "nonpayable",
      "type": "function"
    },
    {
      "inputs": [
        {
          "internalType": "uint256",
          "name": "id",
          "type": "uint256"
        },
        {
          "components": [
            {
              "internalType": "string",
              "name": "name",
              "type": "string"
            },
            {
              "internalType": "string",
              "name": "uri",
              "type": "string"
            },
            {
              "internalType": "address",
              "name": "feeTo",
              "type": "address"
            },
            {
              "internalType": "uint256",
              "name": "appFeePercent",
              "type": "uint256"
            },
            {
              "internalType": "uint256",
              "name": "creatorFeePercent",
              "type": "uint256"
            }
          ],
          "internalType": "struct IndieX.UpsertAppInput",
          "name": "input",
          "type": "tuple"
        }
      ],
      "name": "updateApp",
      "outputs": [],
      "stateMutability": "nonpayable",
      "type": "function"
    },
    {
      "inputs": [
        {
          "internalType": "uint256",
          "name": "id",
          "type": "uint256"
        },
        {
          "components": [
            {
              "internalType": "string",
              "name": "name",
              "type": "string"
            },
            {
              "internalType": "string",
              "name": "uri",
              "type": "string"
            },
            {
              "internalType": "uint256",
              "name": "curatorFeePercent",
              "type": "uint256"
            }
          ],
          "internalType": "struct IndieX.UpdateCreationInput",
          "name": "input",
          "type": "tuple"
        }
      ],
      "name": "updateCreation",
      "outputs": [],
      "stateMutability": "nonpayable",
      "type": "function"
    },
    {
      "inputs": [
        {
          "internalType": "uint256",
          "name": "",
          "type": "uint256"
        }
      ],
      "name": "uri",
      "outputs": [
        {
          "internalType": "string",
          "name": "",
          "type": "string"
        }
      ],
      "stateMutability": "view",
      "type": "function"
    },
    {
      "inputs": [
        {
          "internalType": "address",
          "name": "",
          "type": "address"
        },
        {
          "internalType": "uint256",
          "name": "",
          "type": "uint256"
        }
      ],
      "name": "userCreations",
      "outputs": [
        {
          "internalType": "uint256",
          "name": "",
          "type": "uint256"
        }
      ],
      "stateMutability": "view",
      "type": "function"
    },
    {
      "stateMutability": "payable",
      "type": "receive"
    }
  ],
  "transactionHash": "0x4b70642d97bab5eec3f5ad2919736dd615647e5f1ecedc3cf7e132f5cb3a44fd",
  "args": [
    "0x7FEA6971Eb1663623690Edbb779a05DD9440d824"
  ],
  "numDeployments": 1,
  "solcInputHash": "21c8f6229dc7d829b8b6801486d0d9f7",
  "bytecode": "0x60806040526007805460ff60a01b19169055600060088190556009819055600a55662386f26fc10000600b553480156200003857600080fd5b506040516200622e3803806200622e8339810160408190526200005b9162000120565b604080516020810190915260008152816001600160a01b0381166200009a57604051631e4fbdf760e01b81526000600482015260240160405180910390fd5b620000a581620000be565b50620000b1816200010e565b50506001600655620002c3565b600080546001600160a01b038381166001600160a01b0319831681178455604051919092169283917f8be0079c531659141344cd1fd0a4f28419497f9722a3daafe3b4186f6b6457e09190a35050565b60036200011c8282620001f7565b5050565b6000602082840312156200013357600080fd5b81516001600160a01b03811681146200014b57600080fd5b9392505050565b634e487b7160e01b600052604160045260246000fd5b600181811c908216806200017d57607f821691505b6020821081036200019e57634e487b7160e01b600052602260045260246000fd5b50919050565b601f821115620001f257600081815260208120601f850160051c81016020861015620001cd5750805b601f850160051c820191505b81811015620001ee57828155600101620001d9565b5050505b505050565b81516001600160401b0381111562000213576200021362000152565b6200022b8162000224845462000168565b84620001a4565b602080601f8311600181146200026357600084156200024a5750858301515b600019600386901b1c1916600185901b178555620001ee565b600085815260208120601f198616915b82811015620002945788860151825594840194600190910190840162000273565b5085821015620002b35787850151600019600388901b60f8161c191681555b5050505050600190811b01905550565b615f5b80620002d36000396000f3fe6080604052600436106102ba5760003560e01c806380c3f96d1161016c578063cec8c97f116100ca578063e0e6799f11610084578063f242432a11610061578063f242432a1461090c578063f2fde38b1461092c578063fba41ebe1461094c57005b8063e0e6799f14610869578063e985e9c514610889578063ef369252146108df57005b8063d6e6eb9f116100b2578063d6e6eb9f14610813578063d935e22214610829578063db2b6da71461084957005b8063cec8c97f146107d3578063ceee47fa146107f357005b8063a498342111610126578063bd85b03911610103578063bd85b03914610770578063c6fdbc901461079d578063c8d8cf88146107bd57005b8063a498342114610710578063b3e089a214610730578063baef60d01461075057005b80638d5fbf14116101545780638d5fbf14146106a55780638da5cb5b146106c5578063a22cb465146106f057005b806380c3f96d1461064e5780638557a5311461066e57005b80634e1273f41161021957806361acc37e116101d3578063715018a6116101b0578063715018a6146105bc57806379d36638146105d15780637ffb25ac1461063957005b806361acc37e146105495780636399680e1461057c57806370139c2d1461059c57005b80635e2cd5f4116102015780635e2cd5f41461049a5780635e48327d146104fc5780635efdf6281461051c57005b80634e1273f41461044b5780634f558e791461046b57005b8063269ba52c11610275578063410d3c0211610252578063410d3c02146103f557806343e235ff146104155780634d121ec11461043557005b8063269ba52c146103955780632eb2c2d6146103c25780633470b2c4146103e257005b80630e89341c116102a35780630e89341c1461032657806318160ddd1461035357806324f3a51b1461036857005b8062fdd58e146102c357806301ffc9a7146102f657005b366102c157005b005b3480156102cf57600080fd5b506102e36102de366004614bcd565b610990565b6040519081526020015b60405180910390f35b34801561030257600080fd5b50610316610311366004614c25565b6109c7565b60405190151581526020016102ed565b34801561033257600080fd5b50610346610341366004614c42565b610aaa565b6040516102ed9190614cbf565b34801561035f57600080fd5b506005546102e3565b34801561037457600080fd5b50610388610383366004614c42565b610b3e565b6040516102ed9190614cd2565b3480156103a157600080fd5b506103b56103b0366004614d86565b610d50565b6040516102ed9190614ddc565b3480156103ce57600080fd5b506102c16103dd366004614fd7565b610dc8565b6102c16103f0366004615095565b610e93565b34801561040157600080fd5b506102e3610410366004614c42565b611529565b34801561042157600080fd5b506102e3610430366004614bcd565b61153d565b34801561044157600080fd5b506102e360095481565b34801561045757600080fd5b506103b56104663660046150d1565b61156e565b34801561047757600080fd5b50610316610486366004614c42565b600090815260046020526040902054151590565b3480156104a657600080fd5b506104ba6104b5366004615191565b61165c565b6040516102ed9190600060a082019050825182526020830151602083015260408301516040830152606083015160608301526080830151608083015292915050565b34801561050857600080fd5b506102e36105173660046151c6565b6116a3565b34801561052857600080fd5b5061053c610537366004614d86565b6116b8565b6040516102ed91906151f2565b34801561055557600080fd5b50610569610564366004614c42565b6119d8565b6040516102ed9796959493929190615330565b34801561058857600080fd5b506102c1610597366004615474565b611b53565b3480156105a857600080fd5b506102e36105b7366004615550565b611ee5565b3480156105c857600080fd5b506102c1611f16565b3480156105dd57600080fd5b506106146105ec366004615678565b600d6020526000908152604090205473ffffffffffffffffffffffffffffffffffffffff1681565b60405173ffffffffffffffffffffffffffffffffffffffff90911681526020016102ed565b34801561064557600080fd5b506102e3600181565b34801561065a57600080fd5b506102c1610669366004614d86565b611f2a565b34801561067a57600080fd5b5061068e610689366004614c42565b61201b565b6040516102ed9b9a99989796959493929190615693565b3480156106b157600080fd5b506102c16106c0366004615822565b612211565b3480156106d157600080fd5b5060005473ffffffffffffffffffffffffffffffffffffffff16610614565b3480156106fc57600080fd5b506102c161070b366004615857565b612515565b34801561071c57600080fd5b506102c161072b366004614c42565b612524565b34801561073c57600080fd5b506102c161074b366004614d86565b6125de565b34801561075c57600080fd5b506102c161076b36600461588e565b61262d565b34801561077c57600080fd5b506102e361078b366004614c42565b60009081526004602052604090205490565b3480156107a957600080fd5b5061053c6107b8366004614c42565b612973565b3480156107c957600080fd5b506102e360085481565b3480156107df57600080fd5b506102e36107ee3660046151c6565b612bb8565b3480156107ff57600080fd5b506104ba61080e366004615191565b612bc6565b34801561081f57600080fd5b506102e3600b5481565b34801561083557600080fd5b506102c16108443660046151c6565b612c05565b34801561085557600080fd5b506102c16108643660046158cb565b6131a3565b34801561087557600080fd5b506102c1610884366004614d86565b6133bc565b34801561089557600080fd5b506103166108a4366004615988565b73ffffffffffffffffffffffffffffffffffffffff918216600090815260026020908152604080832093909416825291909152205460ff1690565b3480156108eb57600080fd5b50600c546106149073ffffffffffffffffffffffffffffffffffffffff1681565b34801561091857600080fd5b506102c16109273660046159b2565b613452565b34801561093857600080fd5b506102c1610947366004614d86565b613510565b34801561095857600080fd5b5060075461097e9074010000000000000000000000000000000000000000900460ff1681565b60405160ff90911681526020016102ed565b600081815260016020908152604080832073ffffffffffffffffffffffffffffffffffffffff861684529091529020545b92915050565b60007fffffffff0000000000000000000000000000000000000000000000000000000082167fd9b67a26000000000000000000000000000000000000000000000000000000001480610a5a57507fffffffff0000000000000000000000000000000000000000000000000000000082167f0e89341c00000000000000000000000000000000000000000000000000000000145b806109c157507f01ffc9a7000000000000000000000000000000000000000000000000000000007fffffffff000000000000000000000000000000000000000000000000000000008316146109c1565b606060038054610ab990615a17565b80601f0160208091040260200160405190810160405280929190818152602001828054610ae590615a17565b8015610b325780601f10610b0757610100808354040283529160200191610b32565b820191906000526020600020905b815481529060010190602001808311610b1557829003601f168201915b50505050509050919050565b610baa6040518060e0016040528060008152602001600073ffffffffffffffffffffffffffffffffffffffff1681526020016060815260200160608152602001600073ffffffffffffffffffffffffffffffffffffffff16815260200160008152602001600081525090565b6000828152600e6020908152604091829020825160e08101845281548152600182015473ffffffffffffffffffffffffffffffffffffffff16928101929092526002810180549293919291840191610c0190615a17565b80601f0160208091040260200160405190810160405280929190818152602001828054610c2d90615a17565b8015610c7a5780601f10610c4f57610100808354040283529160200191610c7a565b820191906000526020600020905b815481529060010190602001808311610c5d57829003601f168201915b50505050508152602001600382018054610c9390615a17565b80601f0160208091040260200160405190810160405280929190818152602001828054610cbf90615a17565b8015610d0c5780601f10610ce157610100808354040283529160200191610d0c565b820191906000526020600020905b815481529060010190602001808311610cef57829003601f168201915b5050509183525050600482015473ffffffffffffffffffffffffffffffffffffffff1660208201526005820154604082015260069091015460609091015292915050565b73ffffffffffffffffffffffffffffffffffffffff8116600090815260106020908152604091829020805483518184028101840190945280845260609392830182828015610b3257602002820191906000526020600020905b815481526020019060010190808311610da95750505050509050919050565b3373ffffffffffffffffffffffffffffffffffffffff86168114801590610e22575073ffffffffffffffffffffffffffffffffffffffff80871660009081526002602090815260408083209385168352929052205460ff16155b15610e7e576040517fe237d92200000000000000000000000000000000000000000000000000000000815273ffffffffffffffffffffffffffffffffffffffff8083166004830152871660248201526044015b60405180910390fd5b610e8b8686868686613574565b505050505050565b610e9b613628565b60008263ffffffff1611610f0b576040517f08c379a000000000000000000000000000000000000000000000000000000000815260206004820152601960248201527f42757920616d6f756e742063616e6e6f74206265207a65726f000000000000006044820152606401610e75565b6009548310610f76576040517f08c379a000000000000000000000000000000000000000000000000000000000815260206004820152601760248201527f4372656174696f6e20646f6573206e6f742065786973740000000000000000006044820152606401610e75565b6000838152600f602052604081206001810154909190610f99908690869061165c565b60075481516040517f23b872dd000000000000000000000000000000000000000000000000000000008152336004820152306024820152604481019190915291925060009173ffffffffffffffffffffffffffffffffffffffff909116906323b872dd906064016020604051808303816000875af115801561101f573d6000803e3d6000fd5b505050506040513d601f19601f820116820180604052508101906110439190615a64565b9050806110ac576040517f08c379a000000000000000000000000000000000000000000000000000000000815260206004820152601960248201527f55534443207472616e736665722066726f6d206661696c6564000000000000006044820152606401610e75565b8160200151600a60008282546110c29190615ab0565b909155505060208201516009840180546000906110e0908490615ab0565b90915550506020820151600a840180546000906110fe908490615ab0565b9250508190555061112633878763ffffffff166040518060200160405280600081525061366b565b6008830154610100900460ff16156111dc57600883015460ff166000908152600d60209081526040909120549083015173ffffffffffffffffffffffffffffffffffffffff9091169061117a9082906136ee565b8073ffffffffffffffffffffffffffffffffffffffff1663d0e30db06040518163ffffffff1660e01b8152600401600060405180830381600087803b1580156111c257600080fd5b505af11580156111d6573d6000803e3d6000fd5b50505050505b600073ffffffffffffffffffffffffffffffffffffffff85161561126a57670de0b6b3a7640000846005015484604001516112179190615ac3565b6112219190615ada565b6002850154604085015191925061125b9173ffffffffffffffffffffffffffffffffffffffff90911690611256908490615b15565b6136ee565b61126585826136ee565b611294565b600284015460408401516112949173ffffffffffffffffffffffffffffffffffffffff16906136ee565b606083015115611458576001808501546000908152600e60209081526040808320815160e081018352815481529481015473ffffffffffffffffffffffffffffffffffffffff1692850192909252600282018054939493918401916112f890615a17565b80601f016020809104026020016040519081016040528092919081815260200182805461132490615a17565b80156113715780601f1061134657610100808354040283529160200191611371565b820191906000526020600020905b81548152906001019060200180831161135457829003601f168201915b5050505050815260200160038201805461138a90615a17565b80601f01602080910402602001604051908101604052809291908181526020018280546113b690615a17565b80156114035780601f106113d857610100808354040283529160200191611403565b820191906000526020600020905b8154815290600101906020018083116113e657829003601f168201915b5050509183525050600482015473ffffffffffffffffffffffffffffffffffffffff16602082015260058201546040820152600690910154606091820152608082015190860151919250611456916136ee565b505b60808301511561148a57600c54608084015161148a9173ffffffffffffffffffffffffffffffffffffffff16906136ee565b8251604080850151606080870151608080890151855163ffffffff8e1681526020810197909752948601939093529084015282015273ffffffffffffffffffffffffffffffffffffffff861660a082015260c08101829052339088906001907f5e8ec80ece70688f5dfe49f24be4ed9b0d314d69abdd270b44b7718882ff6b939060e00160405180910390a4505050506115246001600655565b505050565b6000818152600460205260408120546109c1565b6010602052816000526040600020818154811061155957600080fd5b90600052602060002001600091509150505481565b606081518351146115b857815183516040517f5b05999100000000000000000000000000000000000000000000000000000000815260048101929092526024820152604401610e75565b6000835167ffffffffffffffff8111156115d4576115d4614def565b6040519080825280602002602001820160405280156115fd578160200160208202803683370190505b50905060005b84518110156116545760208082028601015161162790602080840287010151610990565b82828151811061163957611639615b28565b602090810291909101015261164d81615b57565b9050611603565b509392505050565b61168e6040518060a0016040528060008152602001600081526020016000815260200160008152602001600081525090565b61169b84848460016137f5565b949350505050565b60006116b183836000613ad7565b9392505050565b6116c0614ad3565b73ffffffffffffffffffffffffffffffffffffffff821660009081526010602090815260408083208054825181850281018501909352808352919290919083018282801561172d57602002820191906000526020600020905b815481526020019060010190808311611719575b505050505090506000815111156119d257600f600082600184516117519190615b15565b8151811061176157611761615b28565b602002602001015181526020019081526020016000206040518061016001604052908160008201548152602001600182015481526020016002820160009054906101000a900473ffffffffffffffffffffffffffffffffffffffff1673ffffffffffffffffffffffffffffffffffffffff1673ffffffffffffffffffffffffffffffffffffffff1681526020016003820180546117fd90615a17565b80601f016020809104026020016040519081016040528092919081815260200182805461182990615a17565b80156118765780601f1061184b57610100808354040283529160200191611876565b820191906000526020600020905b81548152906001019060200180831161185957829003601f168201915b5050505050815260200160048201805461188f90615a17565b80601f01602080910402602001604051908101604052809291908181526020018280546118bb90615a17565b80156119085780601f106118dd57610100808354040283529160200191611908565b820191906000526020600020905b8154815290600101906020018083116118eb57829003601f168201915b50505091835250506005820154602080830191909152604080516080808201835260068601546bffffffffffffffffffffffff811683526c01000000000000000000000000810463ffffffff16948301949094527001000000000000000000000000000000009093046fffffffffffffffffffffffffffffffff9081168284015260078601541660608083019190915291840152600884015460ff80821692850192909252610100900416151590820152600982015460a0820152600a9091015460c09091015291505b50919050565b600e60205260009081526040902080546001820154600283018054929373ffffffffffffffffffffffffffffffffffffffff90921692611a1790615a17565b80601f0160208091040260200160405190810160405280929190818152602001828054611a4390615a17565b8015611a905780601f10611a6557610100808354040283529160200191611a90565b820191906000526020600020905b815481529060010190602001808311611a7357829003601f168201915b505050505090806003018054611aa590615a17565b80601f0160208091040260200160405190810160405280929190818152602001828054611ad190615a17565b8015611b1e5780601f10611af357610100808354040283529160200191611b1e565b820191906000526020600020905b815481529060010190602001808311611b0157829003601f168201915b5050505060048301546005840154600690940154929373ffffffffffffffffffffffffffffffffffffffff9091169290915087565b600081602001515111611bc2576040517f08c379a000000000000000000000000000000000000000000000000000000000815260206004820152601460248201527f4e616d652063616e6e6f7420626520656d7074790000000000000000000000006044820152606401610e75565b60003390506040518061016001604052806009548152602001836000015181526020018273ffffffffffffffffffffffffffffffffffffffff168152602001836020015181526020018360400151815260200183606001518152602001836080015181526020018360a0015160ff1681526020018360c0015115158152602001600081526020016000815250600f60006009548152602001908152602001600020600082015181600001556020820151816001015560408201518160020160006101000a81548173ffffffffffffffffffffffffffffffffffffffff021916908373ffffffffffffffffffffffffffffffffffffffff1602179055506060820151816003019081611cd39190615bd5565b5060808201516004820190611ce89082615bd5565b5060a0820151600582015560c082015180516006830180546020808501516040808701516fffffffffffffffffffffffffffffffff9081167001000000000000000000000000000000000263ffffffff9093166c01000000000000000000000000027fffffffffffffffffffffffffffffffff000000000000000000000000000000009586166bffffffffffffffffffffffff90981697909717969096178616919091179093556060909401516007860180549190941691161790915560e0840151600884018054610100808801511515027fffffffffffffffffffffffffffffffffffffffffffffffffffffffffffff000090911660ff9093169290921791909117905561012084015160098085019190915561014090940151600a9093019290925573ffffffffffffffffffffffffffffffffffffffff841660009081526010825282812084548154600181810184559284528484200155935483519283019093528152611e5a9284929161366b565b81600001518173ffffffffffffffffffffffffffffffffffffffff166009547fef33875ba7a875218c790d9e300a0a9e803a5fb782997ccda358607529247b268560200151866040015187608001518860a001518960c00151604051611ec4959493929190615cef565b60405180910390a460098054906000611edc83615b57565b91905055505050565b6000808460c001519050611f0d84848360000151846020015185604001518660600151613d59565b95945050505050565b611f1e613db5565b611f286000613e08565b565b611f32613db5565b6007805460ff740100000000000000000000000000000000000000009182900481166000908152600d6020526040808220805473ffffffffffffffffffffffffffffffffffffffff88167fffffffffffffffffffffffff0000000000000000000000000000000000000000909116811790915594549051939004909116917f2226942937615a3decf2f421ffaa1491d7a4d76a0e382719f1e9a486ebb63ab69190a36007805474010000000000000000000000000000000000000000900460ff16906014611fff83615d8f565b91906101000a81548160ff021916908360ff1602179055505050565b600f6020526000908152604090208054600182015460028301546003840180549394929373ffffffffffffffffffffffffffffffffffffffff909216929161206290615a17565b80601f016020809104026020016040519081016040528092919081815260200182805461208e90615a17565b80156120db5780601f106120b0576101008083540402835291602001916120db565b820191906000526020600020905b8154815290600101906020018083116120be57829003601f168201915b5050505050908060040180546120f090615a17565b80601f016020809104026020016040519081016040528092919081815260200182805461211c90615a17565b80156121695780601f1061213e57610100808354040283529160200191612169565b820191906000526020600020905b81548152906001019060200180831161214c57829003601f168201915b5050505060058301546040805160808101825260068601546bffffffffffffffffffffffff811682526c01000000000000000000000000810463ffffffff16602083015270010000000000000000000000000000000090046fffffffffffffffffffffffffffffffff908116928201929092526007860154909116606082015260088501546009860154600a909601549495929491935060ff8082169361010090920416918b565b80515161227a576040517f08c379a000000000000000000000000000000000000000000000000000000000815260206004820152601460248201527f4e616d652063616e6e6f7420626520656d7074790000000000000000000000006044820152606401610e75565b604081015173ffffffffffffffffffffffffffffffffffffffff166122fb576040517f08c379a000000000000000000000000000000000000000000000000000000000815260206004820152601560248201527f496e76616c696420666565546f206164647265737300000000000000000000006044820152606401610e75565b67016345785d8a000081606001511115612371576040517f08c379a000000000000000000000000000000000000000000000000000000000815260206004820152601c60248201527f61707046656550657263656e74206d757374206265203c3d20313025000000006044820152606401610e75565b6040805160e0810182526008548082523360208084019182528551848601908152868201516060808701919091528787015173ffffffffffffffffffffffffffffffffffffffff9081166080808901919091529189015160a08801529088015160c08701526000948552600e909252949092208351815590516001820180547fffffffffffffffffffffffff00000000000000000000000000000000000000001691909316179091559151909190600282019061242e9082615bd5565b50606082015160038201906124439082615bd5565b506080828101516004830180547fffffffffffffffffffffffff00000000000000000000000000000000000000001673ffffffffffffffffffffffffffffffffffffffff90921691909117905560a0830151600583015560c09092015160069091015560085482516020840151604080860151606087015195870151915133967f95860c408b95c37c8a315717a02901b7a1c080fac2b72783fcc47c0a875ab5cb966124f59690959094909392615dae565b60405180910390a26008805490600061250d83615b57565b919050555050565b612520338383613e7d565b5050565b61252c613db5565b662386f26fc1000081111561259d576040517f08c379a000000000000000000000000000000000000000000000000000000000815260206004820181905260248201527f70726f746f636f6c46656550657263656e74206d757374206265203c3d2031256044820152606401610e75565b600b5460408051918252602082018390527f219d87b3822c2cd9103f559e66b1fa6683e5a41c1dde2e43ee26577e40f637be910160405180910390a1600b55565b6125e6613db5565b600780547fffffffffffffffffffffffff00000000000000000000000000000000000000001673ffffffffffffffffffffffffffffffffffffffff92909216919091179055565b6000828152600e60205260409020600181015473ffffffffffffffffffffffffffffffffffffffff166126bc576040517f08c379a000000000000000000000000000000000000000000000000000000000815260206004820152600f60248201527f417070206e6f74206578697374656400000000000000000000000000000000006044820152606401610e75565b600181015473ffffffffffffffffffffffffffffffffffffffff16331461273f576040517f08c379a000000000000000000000000000000000000000000000000000000000815260206004820152601b60248201527f4f6e6c792063726561746f722063616e207570646174652041707000000000006044820152606401610e75565b8151516127a8576040517f08c379a000000000000000000000000000000000000000000000000000000000815260206004820152601460248201527f4e616d652063616e6e6f7420626520656d7074790000000000000000000000006044820152606401610e75565b604082015173ffffffffffffffffffffffffffffffffffffffff16612829576040517f08c379a000000000000000000000000000000000000000000000000000000000815260206004820152601560248201527f496e76616c696420666565546f206164647265737300000000000000000000006044820152606401610e75565b67016345785d8a00008260600151111561289f576040517f08c379a000000000000000000000000000000000000000000000000000000000815260206004820152601c60248201527f61707046656550657263656e74206d757374206265203c3d20313025000000006044820152606401610e75565b815160028201906128b09082615bd5565b50602082015160038201906128c59082615bd5565b506040828101516004830180547fffffffffffffffffffffffff00000000000000000000000000000000000000001673ffffffffffffffffffffffffffffffffffffffff8316179055606084015160058401819055608085015160068501819055845486516020880151955133967f2a24f65606d720ce9fcf601d2f201f9807a391a3eb1f04ae8b49b6313b101c3d96612966969495939491939092615dae565b60405180910390a2505050565b61297b614ad3565b6000828152600f602090815260409182902082516101608101845281548152600182015492810192909252600281015473ffffffffffffffffffffffffffffffffffffffff16928201929092526003820180549192916060840191906129e090615a17565b80601f0160208091040260200160405190810160405280929190818152602001828054612a0c90615a17565b8015612a595780601f10612a2e57610100808354040283529160200191612a59565b820191906000526020600020905b815481529060010190602001808311612a3c57829003601f168201915b50505050508152602001600482018054612a7290615a17565b80601f0160208091040260200160405190810160405280929190818152602001828054612a9e90615a17565b8015612aeb5780601f10612ac057610100808354040283529160200191612aeb565b820191906000526020600020905b815481529060010190602001808311612ace57829003601f168201915b50505091835250506005820154602080830191909152604080516080808201835260068601546bffffffffffffffffffffffff811683526c01000000000000000000000000810463ffffffff16948301949094527001000000000000000000000000000000009093046fffffffffffffffffffffffffffffffff9081168284015260078601541660608083019190915291840152600884015460ff80821692850192909252610100900416151590820152600982015460a0820152600a9091015460c09091015292915050565b60006116b183836001613ad7565b612bf86040518060a0016040528060008152602001600081526020016000815260200160008152602001600081525090565b61169b84848460006137f5565b612c0d613628565b6009548210612c78576040517f08c379a000000000000000000000000000000000000000000000000000000000815260206004820152601460248201527f4372656174696f6e206e6f7420657869737465640000000000000000000000006044820152606401610e75565b8063ffffffff16612c893384610990565b1015612cf1576040517f08c379a000000000000000000000000000000000000000000000000000000000815260206004820152601360248201527f496e73756666696369656e7420616d6f756e74000000000000000000000000006044820152606401610e75565b8063ffffffff166001612d108460009081526004602052604090205490565b612d1a9190615b15565b1015612da8576040517f08c379a000000000000000000000000000000000000000000000000000000000815260206004820152602260248201527f416d6f756e742073686f756c642062656c6f77207072656d696e7420616d6f7560448201527f6e740000000000000000000000000000000000000000000000000000000000006064820152608401610e75565b6000828152600f602052604081206001810154909190612dcb9085908590612bc6565b90508060200151600a6000828254612de39190615b15565b90915550506020810151600983018054600090612e01908490615b15565b90915550506020810151600a83018054600090612e1f908490615ab0565b90915550612e369050338563ffffffff8616613f65565b6008820154610100900460ff1615612ef557600882015460ff166000908152600d6020908152604091829020546007549184015192517ff3fef3a300000000000000000000000000000000000000000000000000000000815273ffffffffffffffffffffffffffffffffffffffff928316600482015260248101939093521690819063f3fef3a390604401600060405180830381600087803b158015612edb57600080fd5b505af1158015612eef573d6000803e3d6000fd5b50505050505b612f033382600001516136ee565b60028201546040820151612f2d9173ffffffffffffffffffffffffffffffffffffffff16906136ee565b6060810151156130f1576001808301546000908152600e60209081526040808320815160e081018352815481529481015473ffffffffffffffffffffffffffffffffffffffff169285019290925260028201805493949391840191612f9190615a17565b80601f0160208091040260200160405190810160405280929190818152602001828054612fbd90615a17565b801561300a5780601f10612fdf5761010080835404028352916020019161300a565b820191906000526020600020905b815481529060010190602001808311612fed57829003601f168201915b5050505050815260200160038201805461302390615a17565b80601f016020809104026020016040519081016040528092919081815260200182805461304f90615a17565b801561309c5780601f106130715761010080835404028352916020019161309c565b820191906000526020600020905b81548152906001019060200180831161307f57829003601f168201915b5050509183525050600482015473ffffffffffffffffffffffffffffffffffffffff166020820152600582015460408201526006909101546060918201526080820151908401519192506130ef916136ee565b505b60808101511561312357600c5460808201516131239173ffffffffffffffffffffffffffffffffffffffff16906136ee565b3384600283516040808601516060808801516080808a0151855163ffffffff8e16815260208101979097529486019390935290840152820152600060a0820181905260c08201527f5e8ec80ece70688f5dfe49f24be4ed9b0d314d69abdd270b44b7718882ff6b939060e00160405180910390a450506125206001600655565b6000828152600f60205260409020600281015473ffffffffffffffffffffffffffffffffffffffff16613232576040517f08c379a000000000000000000000000000000000000000000000000000000000815260206004820152601460248201527f4372656174696f6e206e6f7420657869737465640000000000000000000000006044820152606401610e75565b600281015473ffffffffffffffffffffffffffffffffffffffff1633146132b5576040517f08c379a000000000000000000000000000000000000000000000000000000000815260206004820181905260248201527f4f6e6c792063726561746f722063616e20757064617465204372656174696f6e6044820152606401610e75565b81515161331e576040517f08c379a000000000000000000000000000000000000000000000000000000000815260206004820152601460248201527f4e616d652063616e6e6f7420626520656d7074790000000000000000000000006044820152606401610e75565b8151600382019061332f9082615bd5565b50602082015160048201906133449082615bd5565b506040808301516005830155600182015460028301548354855160208701519451939473ffffffffffffffffffffffffffffffffffffffff9093169391927fc0a9e8589e9e2e63ca19d5641ea5676d3d031b3d29667ebd42b071fb8f5c2b96926133af929190615e0e565b60405180910390a4505050565b6133c4613db5565b600c5460405173ffffffffffffffffffffffffffffffffffffffff8084169216907fdc99a16aa686e03e551f2993b0cb279e2638cebde991551598b75177d21ef7c290600090a3600c80547fffffffffffffffffffffffff00000000000000000000000000000000000000001673ffffffffffffffffffffffffffffffffffffffff92909216919091179055565b3373ffffffffffffffffffffffffffffffffffffffff861681148015906134ac575073ffffffffffffffffffffffffffffffffffffffff80871660009081526002602090815260408083209385168352929052205460ff16155b15613503576040517fe237d92200000000000000000000000000000000000000000000000000000000815273ffffffffffffffffffffffffffffffffffffffff808316600483015287166024820152604401610e75565b610e8b8686868686613ff4565b613518613db5565b73ffffffffffffffffffffffffffffffffffffffff8116613568576040517f1e4fbdf700000000000000000000000000000000000000000000000000000000815260006004820152602401610e75565b61357181613e08565b50565b73ffffffffffffffffffffffffffffffffffffffff84166135c4576040517f57f447ce00000000000000000000000000000000000000000000000000000000815260006004820152602401610e75565b73ffffffffffffffffffffffffffffffffffffffff8516613614576040517f01a8351400000000000000000000000000000000000000000000000000000000815260006004820152602401610e75565b61362185858585856140cf565b5050505050565b600260065403613664576040517f3ee5aeb500000000000000000000000000000000000000000000000000000000815260040160405180910390fd5b6002600655565b73ffffffffffffffffffffffffffffffffffffffff84166136bb576040517f57f447ce00000000000000000000000000000000000000000000000000000000815260006004820152602401610e75565b60408051600180825260208201869052818301908152606082018590526080820190925290610e8b6000878484876140cf565b6007546040517fa9059cbb00000000000000000000000000000000000000000000000000000000815273ffffffffffffffffffffffffffffffffffffffff848116600483015260248201849052600092169063a9059cbb906044016020604051808303816000875af1158015613768573d6000803e3d6000fd5b505050506040513d601f19601f8201168201806040525081019061378c9190615a64565b905080611524576040517f08c379a000000000000000000000000000000000000000000000000000000000815260206004820152601460248201527f55534443207472616e73666572206661696c65640000000000000000000000006044820152606401610e75565b6138276040518060a0016040528060008152602001600081526020016000815260200160008152602001600081525090565b6000838152600e60209081526040808320815160e08101835281548152600182015473ffffffffffffffffffffffffffffffffffffffff1693810193909352600281018054919284019161387a90615a17565b80601f01602080910402602001604051908101604052809291908181526020018280546138a690615a17565b80156138f35780601f106138c8576101008083540402835291602001916138f3565b820191906000526020600020905b8154815290600101906020018083116138d657829003601f168201915b5050505050815260200160038201805461390c90615a17565b80601f016020809104026020016040519081016040528092919081815260200182805461393890615a17565b80156139855780601f1061395a57610100808354040283529160200191613985565b820191906000526020600020905b81548152906001019060200180831161396857829003601f168201915b5050509183525050600482015473ffffffffffffffffffffffffffffffffffffffff1660208201526005820154604082015260069091015460609091015290506000836139db576139d687876116a3565b6139e5565b6139e58787612bb8565b90506000670de0b6b3a76400008360c0015183613a029190615ac3565b613a0c9190615ada565b90506000670de0b6b3a7640000600b5484613a279190615ac3565b613a319190615ada565b90506000670de0b6b3a76400008560a0015185613a4e9190615ac3565b613a589190615ada565b9050600087613a86578282613a6d8688615b15565b613a779190615b15565b613a819190615b15565b613aa6565b8282613a928688615ab0565b613a9c9190615ab0565b613aa69190615ab0565b6040805160a08101825291825260208201969096529485019390935260608401526080830152509695505050505050565b600083815260046020908152604080832054600f835281842082516101608101845281548152600182015494810194909452600281015473ffffffffffffffffffffffffffffffffffffffff169284019290925260038201805491938593909290916060840191613b4790615a17565b80601f0160208091040260200160405190810160405280929190818152602001828054613b7390615a17565b8015613bc05780601f10613b9557610100808354040283529160200191613bc0565b820191906000526020600020905b815481529060010190602001808311613ba357829003601f168201915b50505050508152602001600482018054613bd990615a17565b80601f0160208091040260200160405190810160405280929190818152602001828054613c0590615a17565b8015613c525780601f10613c2757610100808354040283529160200191613c52565b820191906000526020600020905b815481529060010190602001808311613c3557829003601f168201915b50505091835250506005820154602080830191909152604080516080808201835260068601546bffffffffffffffffffffffff811683526c01000000000000000000000000810463ffffffff16948301949094527001000000000000000000000000000000009093046fffffffffffffffffffffffffffffffff9081168284015260078601541660608083019190915291840152600884015460ff80821692850192909252610100900416151590820152600982015460a0820152600a9091015460c0909101529050600084613d3757613d3263ffffffff871684615b15565b613d39565b825b9050613d4e82613d488361412f565b88611ee5565b979650505050505050565b63ffffffff8581168581026bffffffffffffffffffffffff16916fffffffffffffffffffffffffffffffff84169089166001818101820291909301808401020390911c0201613daa84848989614149565b019695505050505050565b60005473ffffffffffffffffffffffffffffffffffffffff163314611f28576040517f118cdaa7000000000000000000000000000000000000000000000000000000008152336004820152602401610e75565b6000805473ffffffffffffffffffffffffffffffffffffffff8381167fffffffffffffffffffffffff0000000000000000000000000000000000000000831681178455604051919092169283917f8be0079c531659141344cd1fd0a4f28419497f9722a3daafe3b4186f6b6457e09190a35050565b73ffffffffffffffffffffffffffffffffffffffff8216613ecd576040517fced3e10000000000000000000000000000000000000000000000000000000000815260006004820152602401610e75565b73ffffffffffffffffffffffffffffffffffffffff83811660008181526002602090815260408083209487168084529482529182902080547fffffffffffffffffffffffffffffffffffffffffffffffffffffffffffffff001686151590811790915591519182527f17307eab39ab6107e8899845ad3d59bd9653f200f220920489ca2b5937696c31910160405180910390a3505050565b73ffffffffffffffffffffffffffffffffffffffff8316613fb5576040517f01a8351400000000000000000000000000000000000000000000000000000000815260006004820152602401610e75565b604080516001808252602082018590528183019081526060820184905260a08201909252600060808201818152919291613621918791859085906140cf565b73ffffffffffffffffffffffffffffffffffffffff8416614044576040517f57f447ce00000000000000000000000000000000000000000000000000000000815260006004820152602401610e75565b73ffffffffffffffffffffffffffffffffffffffff8516614094576040517f01a8351400000000000000000000000000000000000000000000000000000000815260006004820152602401610e75565b604080516001808252602082018690528183019081526060820185905260808201909252906140c687878484876140cf565b50505050505050565b6140db858585856142cb565b73ffffffffffffffffffffffffffffffffffffffff8416156136215782513390600103614121576020848101519084015161411a8389898585896142dd565b5050610e8b565b610e8b8187878787876144cf565b6000640100000000821061414557614145614660565b5090565b600063ffffffff85166fffffffffffffffffffffffffffffffff851680820283036141795760009250505061169b565b600163ffffffff868116828101929187160101838118818511028418808310156141f7576006600163ffffffff8a16818101026401fffffffe8b831b168201027fffffffffffffffffffffffffffffffffffffffffffffffffffffffffffffffff840180850290831b90920191909102030485800285040295509150815b818310156142be576003850260021c600185901b5b60006142a2888488030270ffffffffffffffffffffffffffffffffff811160071b81811c68ffffffffffffffffff1060061b1781811c64ffffffffff1060051b1781811c62ffffff1060041b1781811c620100000160b5600192831c1b0260121c80830401811c80830401811c80830401811c80830401811c80830401811c80830401811c80830401901c908190048111900390565b82028890049890980197506001808601958590030161420c5750505b5050505050949350505050565b6142d78484848461466e565b50505050565b73ffffffffffffffffffffffffffffffffffffffff84163b15610e8b576040517ff23a6e6100000000000000000000000000000000000000000000000000000000815273ffffffffffffffffffffffffffffffffffffffff85169063f23a6e61906143549089908990889088908890600401615e33565b6020604051808303816000875af19250505080156143ad575060408051601f3d9081017fffffffffffffffffffffffffffffffffffffffffffffffffffffffffffffffe01682019092526143aa91810190615e78565b60015b61443c573d8080156143db576040519150601f19603f3d011682016040523d82523d6000602084013e6143e0565b606091505b508051600003614434576040517f57f447ce00000000000000000000000000000000000000000000000000000000815273ffffffffffffffffffffffffffffffffffffffff86166004820152602401610e75565b805181602001fd5b7fffffffff0000000000000000000000000000000000000000000000000000000081167ff23a6e6100000000000000000000000000000000000000000000000000000000146140c6576040517f57f447ce00000000000000000000000000000000000000000000000000000000815273ffffffffffffffffffffffffffffffffffffffff86166004820152602401610e75565b73ffffffffffffffffffffffffffffffffffffffff84163b15610e8b576040517fbc197c8100000000000000000000000000000000000000000000000000000000815273ffffffffffffffffffffffffffffffffffffffff85169063bc197c81906145469089908990889088908890600401615e95565b6020604051808303816000875af192505050801561459f575060408051601f3d9081017fffffffffffffffffffffffffffffffffffffffffffffffffffffffffffffffe016820190925261459c91810190615e78565b60015b6145cd573d8080156143db576040519150601f19603f3d011682016040523d82523d6000602084013e6143e0565b7fffffffff0000000000000000000000000000000000000000000000000000000081167fbc197c8100000000000000000000000000000000000000000000000000000000146140c6576040517f57f447ce00000000000000000000000000000000000000000000000000000000815273ffffffffffffffffffffffffffffffffffffffff86166004820152602401610e75565b6335278d126000526004601cfd5b61467a848484846147e2565b73ffffffffffffffffffffffffffffffffffffffff841661473a576000805b83518110156147205760008382815181106146b6576146b6615b28565b6020026020010151905080600460008785815181106146d7576146d7615b28565b6020026020010151815260200190815260200160002060008282546146fc9190615ab0565b9091555061470c90508184615ab0565b9250508061471990615b57565b9050614699565b5080600560008282546147339190615ab0565b9091555050505b73ffffffffffffffffffffffffffffffffffffffff83166142d7576000805b83518110156147d157600083828151811061477657614776615b28565b60200260200101519050806004600087858151811061479757614797615b28565b6020026020010151815260200190815260200160002060008282540392505081905550808301925050806147ca90615b57565b9050614759565b506005805491909103905550505050565b805182511461482a57815181516040517f5b05999100000000000000000000000000000000000000000000000000000000815260048101929092526024820152604401610e75565b3360005b83518110156149a65760208181028581018201519085019091015173ffffffffffffffffffffffffffffffffffffffff88161561493257600082815260016020908152604080832073ffffffffffffffffffffffffffffffffffffffff8c168452909152902054818110156148fc576040517f03dee4c500000000000000000000000000000000000000000000000000000000815273ffffffffffffffffffffffffffffffffffffffff8a166004820152602481018290526044810183905260648101849052608401610e75565b600083815260016020908152604080832073ffffffffffffffffffffffffffffffffffffffff8d16845290915290209082900390555b73ffffffffffffffffffffffffffffffffffffffff87161561499357600082815260016020908152604080832073ffffffffffffffffffffffffffffffffffffffff8b1684529091528120805483929061498d908490615ab0565b90915550505b50508061499f90615b57565b905061482e565b508251600103614a4e57602083015160009060208401519091508573ffffffffffffffffffffffffffffffffffffffff168773ffffffffffffffffffffffffffffffffffffffff168473ffffffffffffffffffffffffffffffffffffffff167fc3d58168c5ae7397731d063d5bbf3d657854427343f4c083240f7aacaa2d0f628585604051614a3f929190918252602082015260400190565b60405180910390a45050613621565b8373ffffffffffffffffffffffffffffffffffffffff168573ffffffffffffffffffffffffffffffffffffffff168273ffffffffffffffffffffffffffffffffffffffff167f4a39dc06d4c0dbc64b70af90fd698a233a518aa5d07e595d983b8c0526c8f7fb8686604051614ac4929190615f00565b60405180910390a45050505050565b6040518061016001604052806000815260200160008152602001600073ffffffffffffffffffffffffffffffffffffffff168152602001606081526020016060815260200160008152602001614b82604051806080016040528060006bffffffffffffffffffffffff168152602001600063ffffffff16815260200160006fffffffffffffffffffffffffffffffff16815260200160006fffffffffffffffffffffffffffffffff1681525090565b8152600060208201819052604082018190526060820181905260809091015290565b803573ffffffffffffffffffffffffffffffffffffffff81168114614bc857600080fd5b919050565b60008060408385031215614be057600080fd5b614be983614ba4565b946020939093013593505050565b7fffffffff000000000000000000000000000000000000000000000000000000008116811461357157600080fd5b600060208284031215614c3757600080fd5b81356116b181614bf7565b600060208284031215614c5457600080fd5b5035919050565b6000815180845260005b81811015614c8157602081850181015186830182015201614c65565b5060006020828601015260207fffffffffffffffffffffffffffffffffffffffffffffffffffffffffffffffe0601f83011685010191505092915050565b6020815260006116b16020830184614c5b565b60208152815160208201526000602083015173ffffffffffffffffffffffffffffffffffffffff80821660408501526040850151915060e06060850152614d1d610100850183614c5b565b915060608501517fffffffffffffffffffffffffffffffffffffffffffffffffffffffffffffffe0858403016080860152614d588382614c5b565b9250508060808601511660a08501525060a084015160c084015260c084015160e08401528091505092915050565b600060208284031215614d9857600080fd5b6116b182614ba4565b600081518084526020808501945080840160005b83811015614dd157815187529582019590820190600101614db5565b509495945050505050565b6020815260006116b16020830184614da1565b7f4e487b7100000000000000000000000000000000000000000000000000000000600052604160045260246000fd5b60405160e0810167ffffffffffffffff81118282101715614e4157614e41614def565b60405290565b604051610160810167ffffffffffffffff81118282101715614e4157614e41614def565b604051601f82017fffffffffffffffffffffffffffffffffffffffffffffffffffffffffffffffe016810167ffffffffffffffff81118282101715614eb257614eb2614def565b604052919050565b600067ffffffffffffffff821115614ed457614ed4614def565b5060051b60200190565b600082601f830112614eef57600080fd5b81356020614f04614eff83614eba565b614e6b565b82815260059290921b84018101918181019086841115614f2357600080fd5b8286015b84811015614f3e5780358352918301918301614f27565b509695505050505050565b600082601f830112614f5a57600080fd5b813567ffffffffffffffff811115614f7457614f74614def565b614fa560207fffffffffffffffffffffffffffffffffffffffffffffffffffffffffffffffe0601f84011601614e6b565b818152846020838601011115614fba57600080fd5b816020850160208301376000918101602001919091529392505050565b600080600080600060a08688031215614fef57600080fd5b614ff886614ba4565b945061500660208701614ba4565b9350604086013567ffffffffffffffff8082111561502357600080fd5b61502f89838a01614ede565b9450606088013591508082111561504557600080fd5b61505189838a01614ede565b9350608088013591508082111561506757600080fd5b5061507488828901614f49565b9150509295509295909350565b803563ffffffff81168114614bc857600080fd5b6000806000606084860312156150aa57600080fd5b833592506150ba60208501615081565b91506150c860408501614ba4565b90509250925092565b600080604083850312156150e457600080fd5b823567ffffffffffffffff808211156150fc57600080fd5b818501915085601f83011261511057600080fd5b81356020615120614eff83614eba565b82815260059290921b8401810191818101908984111561513f57600080fd5b948201945b838610156151645761515586614ba4565b82529482019490820190615144565b9650508601359250508082111561517a57600080fd5b5061518785828601614ede565b9150509250929050565b6000806000606084860312156151a657600080fd5b833592506151b660208501615081565b9150604084013590509250925092565b600080604083850312156151d957600080fd5b823591506151e960208401615081565b90509250929050565b60208152815160208201526020820151604082015260006040830151615230606084018273ffffffffffffffffffffffffffffffffffffffff169052565b5060608301516101c080608085015261524d6101e0850183614c5b565b915060808501517fffffffffffffffffffffffffffffffffffffffffffffffffffffffffffffffe08584030160a08601526152888382614c5b565b60a087015160c08781019190915287015180516bffffffffffffffffffffffff1660e0880152602081015163ffffffff1661010088015260408101516fffffffffffffffffffffffffffffffff90811661012089015260608201511661014088015290935090505060e085015160ff811661016086015250610100850151801515610180860152506101208501516101a0850152610140909401519390920192909252919050565b878152600073ffffffffffffffffffffffffffffffffffffffff808916602084015260e0604084015261536660e0840189614c5b565b83810360608501526153788189614c5b565b91909616608084015260a08301949094525060c0015295945050505050565b80356fffffffffffffffffffffffffffffffff81168114614bc857600080fd5b6000608082840312156153c957600080fd5b6040516080810181811067ffffffffffffffff821117156153ec576153ec614def565b60405290508082356bffffffffffffffffffffffff8116811461540e57600080fd5b815261541c60208401615081565b602082015261542d60408401615397565b604082015261543e60608401615397565b60608201525092915050565b803560ff81168114614bc857600080fd5b801515811461357157600080fd5b8035614bc88161545b565b60006020828403121561548657600080fd5b813567ffffffffffffffff8082111561549e57600080fd5b9083019061014082860312156154b357600080fd5b6154bb614e1e565b823581526020830135828111156154d157600080fd5b6154dd87828601614f49565b6020830152506040830135828111156154f557600080fd5b61550187828601614f49565b6040830152506060830135606082015261551e86608085016153b7565b6080820152615530610100840161544a565b60a08201526155426101208401615469565b60c082015295945050505050565b60008060006060848603121561556557600080fd5b833567ffffffffffffffff8082111561557d57600080fd5b908501906101c0828803121561559257600080fd5b61559a614e47565b82358152602083013560208201526155b460408401614ba4565b60408201526060830135828111156155cb57600080fd5b6155d789828601614f49565b6060830152506080830135828111156155ef57600080fd5b6155fb89828601614f49565b60808301525060a083013560a08201526156188860c085016153b7565b60c0820152610140915061562d82840161544a565b60e082015261563f6101608401615469565b6101008201526101808301356101208201526101a09092013590820152925061566a60208501615081565b91506150c860408501615081565b60006020828403121561568a57600080fd5b6116b18261544a565b60006101c08d83528c602084015273ffffffffffffffffffffffffffffffffffffffff8c1660408401528060608401526156cf8184018c614c5b565b905082810360808401526156e3818b614c5b565b60a084018a905288516bffffffffffffffffffffffff1660c0850152602089015163ffffffff1660e085015260408901516fffffffffffffffffffffffffffffffff90811661010086015260608a01511661012085015291506157439050565b60ff959095166101408201529215156101608401526101808301919091526101a090910152979650505050505050565b600060a0828403121561578557600080fd5b60405160a0810167ffffffffffffffff82821081831117156157a9576157a9614def565b8160405282935084359150808211156157c157600080fd5b6157cd86838701614f49565b835260208501359150808211156157e357600080fd5b506157f085828601614f49565b60208301525061580260408401614ba4565b604082015260608301356060820152608083013560808201525092915050565b60006020828403121561583457600080fd5b813567ffffffffffffffff81111561584b57600080fd5b61169b84828501615773565b6000806040838503121561586a57600080fd5b61587383614ba4565b915060208301356158838161545b565b809150509250929050565b600080604083850312156158a157600080fd5b82359150602083013567ffffffffffffffff8111156158bf57600080fd5b61518785828601615773565b600080604083850312156158de57600080fd5b82359150602083013567ffffffffffffffff808211156158fd57600080fd5b908401906060828703121561591157600080fd5b60405160608101818110838211171561592c5761592c614def565b60405282358281111561593e57600080fd5b61594a88828601614f49565b82525060208301358281111561595f57600080fd5b61596b88828601614f49565b602083015250604083013560408201528093505050509250929050565b6000806040838503121561599b57600080fd5b6159a483614ba4565b91506151e960208401614ba4565b600080600080600060a086880312156159ca57600080fd5b6159d386614ba4565b94506159e160208701614ba4565b93506040860135925060608601359150608086013567ffffffffffffffff811115615a0b57600080fd5b61507488828901614f49565b600181811c90821680615a2b57607f821691505b6020821081036119d2577f4e487b7100000000000000000000000000000000000000000000000000000000600052602260045260246000fd5b600060208284031215615a7657600080fd5b81516116b18161545b565b7f4e487b7100000000000000000000000000000000000000000000000000000000600052601160045260246000fd5b808201808211156109c1576109c1615a81565b80820281158282048414176109c1576109c1615a81565b600082615b10577f4e487b7100000000000000000000000000000000000000000000000000000000600052601260045260246000fd5b500490565b818103818111156109c1576109c1615a81565b7f4e487b7100000000000000000000000000000000000000000000000000000000600052603260045260246000fd5b60007fffffffffffffffffffffffffffffffffffffffffffffffffffffffffffffffff8203615b8857615b88615a81565b5060010190565b601f82111561152457600081815260208120601f850160051c81016020861015615bb65750805b601f850160051c820191505b81811015610e8b57828155600101615bc2565b815167ffffffffffffffff811115615bef57615bef614def565b615c0381615bfd8454615a17565b84615b8f565b602080601f831160018114615c565760008415615c205750858301515b7fffffffffffffffffffffffffffffffffffffffffffffffffffffffffffffffff600386901b1c1916600185901b178555610e8b565b6000858152602081207fffffffffffffffffffffffffffffffffffffffffffffffffffffffffffffffe08616915b82811015615ca357888601518255948401946001909101908401615c84565b5085821015615cdf57878501517fffffffffffffffffffffffffffffffffffffffffffffffffffffffffffffffff600388901b60f8161c191681555b5050505050600190811b01905550565b6000610100808352615d0381840189614c5b565b90508281036020840152615d178188614c5b565b915050615d7460408301866bffffffffffffffffffffffff815116825263ffffffff602082015116602083015260408101516fffffffffffffffffffffffffffffffff808216604085015280606084015116606085015250505050565b60ff841660c083015282151560e08301529695505050505050565b600060ff821660ff8103615da557615da5615a81565b60010192915050565b86815260c060208201526000615dc760c0830188614c5b565b8281036040840152615dd98188614c5b565b73ffffffffffffffffffffffffffffffffffffffff9690961660608401525050608081019290925260a0909101529392505050565b604081526000615e216040830185614c5b565b8281036020840152611f0d8185614c5b565b600073ffffffffffffffffffffffffffffffffffffffff808816835280871660208401525084604083015283606083015260a06080830152613d4e60a0830184614c5b565b600060208284031215615e8a57600080fd5b81516116b181614bf7565b600073ffffffffffffffffffffffffffffffffffffffff808816835280871660208401525060a06040830152615ece60a0830186614da1565b8281036060840152615ee08186614da1565b90508281036080840152615ef48185614c5b565b98975050505050505050565b604081526000615f136040830185614da1565b8281036020840152611f0d8185614da156fea26469706673582212205eecaa2950662159051d6414f9d824b3d9c960b2defe7411bb2baf78a39b8baa64736f6c63430008140033",
  "libraries": {},
  "devdoc": {
    "errors": {
      "ERC1155InsufficientBalance(address,uint256,uint256,uint256)": [
        {
          "details": "Indicates an error related to the current `balance` of a `sender`. Used in transfers.",
          "params": {
            "balance": "Current balance for the interacting account.",
            "needed": "Minimum amount required to perform a transfer.",
            "sender": "Address whose tokens are being transferred.",
            "tokenId": "Identifier number of a token."
          }
        }
      ],
      "ERC1155InvalidApprover(address)": [
        {
          "details": "Indicates a failure with the `approver` of a token to be approved. Used in approvals.",
          "params": {
            "approver": "Address initiating an approval operation."
          }
        }
      ],
      "ERC1155InvalidArrayLength(uint256,uint256)": [
        {
          "details": "Indicates an array length mismatch between ids and values in a safeBatchTransferFrom operation. Used in batch transfers.",
          "params": {
            "idsLength": "Length of the array of token identifiers",
            "valuesLength": "Length of the array of token amounts"
          }
        }
      ],
      "ERC1155InvalidOperator(address)": [
        {
          "details": "Indicates a failure with the `operator` to be approved. Used in approvals.",
          "params": {
            "operator": "Address that may be allowed to operate on tokens without being their owner."
          }
        }
      ],
      "ERC1155InvalidReceiver(address)": [
        {
          "details": "Indicates a failure with the token `receiver`. Used in transfers.",
          "params": {
            "receiver": "Address to which tokens are being transferred."
          }
        }
      ],
      "ERC1155InvalidSender(address)": [
        {
          "details": "Indicates a failure with the token `sender`. Used in transfers.",
          "params": {
            "sender": "Address whose tokens are being transferred."
          }
        }
      ],
      "ERC1155MissingApprovalForAll(address,address)": [
        {
          "details": "Indicates a failure with the `operator`s approval. Used in transfers.",
          "params": {
            "operator": "Address that may be allowed to operate on tokens without being their owner.",
            "owner": "Address of the current owner of a token."
          }
        }
      ],
      "OwnableInvalidOwner(address)": [
        {
          "details": "The owner is not a valid owner account. (eg. `address(0)`)"
        }
      ],
      "OwnableUnauthorizedAccount(address)": [
        {
          "details": "The caller account is not authorized to perform an operation."
        }
      ],
      "ReentrancyGuardReentrantCall()": [
        {
          "details": "Unauthorized reentrant call."
        }
      ]
    },
    "events": {
      "ApprovalForAll(address,address,bool)": {
        "details": "Emitted when `account` grants or revokes permission to `operator` to transfer their tokens, according to `approved`."
      },
      "TransferBatch(address,address,address,uint256[],uint256[])": {
        "details": "Equivalent to multiple {TransferSingle} events, where `operator`, `from` and `to` are the same for all transfers."
      },
      "TransferSingle(address,address,address,uint256,uint256)": {
        "details": "Emitted when `value` amount of tokens of type `id` are transferred from `from` to `to` by `operator`."
      },
      "URI(string,uint256)": {
        "details": "Emitted when the URI for token type `id` changes to `value`, if it is a non-programmatic URI. If an {URI} event was emitted for `id`, the standard https://eips.ethereum.org/EIPS/eip-1155#metadata-extensions[guarantees] that `value` will equal the value returned by {IERC1155MetadataURI-uri}."
      }
    },
    "kind": "dev",
    "methods": {
      "balanceOf(address,uint256)": {
        "details": "See {IERC1155-balanceOf}."
      },
      "balanceOfBatch(address[],uint256[])": {
        "details": "See {IERC1155-balanceOfBatch}. Requirements: - `accounts` and `ids` must have the same length."
      },
      "exists(uint256)": {
        "details": "Indicates whether any token exist with a given id, or not."
      },
      "isApprovedForAll(address,address)": {
        "details": "See {IERC1155-isApprovedForAll}."
      },
      "owner()": {
        "details": "Returns the address of the current owner."
      },
      "renounceOwnership()": {
        "details": "Leaves the contract without owner. It will not be possible to call `onlyOwner` functions. Can only be called by the current owner. NOTE: Renouncing ownership will leave the contract without an owner, thereby disabling any functionality that is only available to the owner."
      },
      "safeBatchTransferFrom(address,address,uint256[],uint256[],bytes)": {
        "details": "See {IERC1155-safeBatchTransferFrom}."
      },
      "safeTransferFrom(address,address,uint256,uint256,bytes)": {
        "details": "See {IERC1155-safeTransferFrom}."
      },
      "setApprovalForAll(address,bool)": {
        "details": "See {IERC1155-setApprovalForAll}."
      },
      "supportsInterface(bytes4)": {
        "details": "See {IERC165-supportsInterface}."
      },
      "totalSupply()": {
        "details": "Total value of tokens."
      },
      "totalSupply(uint256)": {
        "details": "Total value of tokens in with a given id."
      },
      "transferOwnership(address)": {
        "details": "Transfers ownership of the contract to a new account (`newOwner`). Can only be called by the current owner."
      },
      "uri(uint256)": {
        "details": "See {IERC1155MetadataURI-uri}. This implementation returns the same URI for *all* token types. It relies on the token type ID substitution mechanism https://eips.ethereum.org/EIPS/eip-1155#metadata[defined in the EIP]. Clients calling this function must replace the `\\{id\\}` substring with the actual token type ID."
      }
    },
    "version": 1
  },
  "userdoc": {
    "kind": "user",
    "methods": {},
    "version": 1
  },
  "storageLayout": {
    "storage": [
      {
        "astId": 8,
        "contract": "contracts/core/IndieX.sol:IndieX",
        "label": "_owner",
        "offset": 0,
        "slot": "0",
        "type": "t_address"
      },
      {
        "astId": 326,
        "contract": "contracts/core/IndieX.sol:IndieX",
        "label": "_balances",
        "offset": 0,
        "slot": "1",
        "type": "t_mapping(t_uint256,t_mapping(t_address,t_uint256))"
      },
      {
        "astId": 332,
        "contract": "contracts/core/IndieX.sol:IndieX",
        "label": "_operatorApprovals",
        "offset": 0,
        "slot": "2",
        "type": "t_mapping(t_address,t_mapping(t_address,t_bool))"
      },
      {
        "astId": 334,
        "contract": "contracts/core/IndieX.sol:IndieX",
        "label": "_uri",
        "offset": 0,
        "slot": "3",
        "type": "t_string_storage"
      },
      {
        "astId": 1511,
        "contract": "contracts/core/IndieX.sol:IndieX",
        "label": "_totalSupply",
        "offset": 0,
        "slot": "4",
        "type": "t_mapping(t_uint256,t_uint256)"
      },
      {
        "astId": 1513,
        "contract": "contracts/core/IndieX.sol:IndieX",
        "label": "_totalSupplyAll",
        "offset": 0,
        "slot": "5",
        "type": "t_uint256"
      },
      {
        "astId": 3110,
        "contract": "contracts/core/IndieX.sol:IndieX",
        "label": "_status",
        "offset": 0,
        "slot": "6",
        "type": "t_uint256"
      },
      {
        "astId": 4489,
        "contract": "contracts/core/IndieX.sol:IndieX",
        "label": "usdc",
        "offset": 0,
        "slot": "7",
        "type": "t_contract(IERC20)2281"
      },
      {
        "astId": 4492,
        "contract": "contracts/core/IndieX.sol:IndieX",
        "label": "farmerIndex",
        "offset": 20,
        "slot": "7",
        "type": "t_uint8"
      },
      {
        "astId": 4495,
        "contract": "contracts/core/IndieX.sol:IndieX",
        "label": "appIndex",
        "offset": 0,
        "slot": "8",
        "type": "t_uint256"
      },
      {
        "astId": 4498,
        "contract": "contracts/core/IndieX.sol:IndieX",
        "label": "creationIndex",
        "offset": 0,
        "slot": "9",
        "type": "t_uint256"
      },
      {
        "astId": 4501,
        "contract": "contracts/core/IndieX.sol:IndieX",
        "label": "usdcAmount",
        "offset": 0,
        "slot": "10",
        "type": "t_uint256"
      },
      {
        "astId": 4507,
        "contract": "contracts/core/IndieX.sol:IndieX",
        "label": "protocolFeePercent",
        "offset": 0,
        "slot": "11",
        "type": "t_uint256"
      },
      {
        "astId": 4509,
        "contract": "contracts/core/IndieX.sol:IndieX",
        "label": "protocolFeeTo",
        "offset": 0,
        "slot": "12",
        "type": "t_address"
      },
      {
        "astId": 4513,
        "contract": "contracts/core/IndieX.sol:IndieX",
        "label": "farmers",
        "offset": 0,
        "slot": "13",
        "type": "t_mapping(t_uint8,t_address)"
      },
      {
        "astId": 4518,
        "contract": "contracts/core/IndieX.sol:IndieX",
        "label": "apps",
        "offset": 0,
        "slot": "14",
        "type": "t_mapping(t_uint256,t_struct(App)4419_storage)"
      },
      {
        "astId": 4523,
        "contract": "contracts/core/IndieX.sol:IndieX",
        "label": "creations",
        "offset": 0,
        "slot": "15",
        "type": "t_mapping(t_uint256,t_struct(Creation)4466_storage)"
      },
      {
        "astId": 4528,
        "contract": "contracts/core/IndieX.sol:IndieX",
        "label": "userCreations",
        "offset": 0,
        "slot": "16",
        "type": "t_mapping(t_address,t_array(t_uint256)dyn_storage)"
      }
    ],
    "types": {
      "t_address": {
        "encoding": "inplace",
        "label": "address",
        "numberOfBytes": "20"
      },
      "t_array(t_uint256)dyn_storage": {
        "base": "t_uint256",
        "encoding": "dynamic_array",
        "label": "uint256[]",
        "numberOfBytes": "32"
      },
      "t_bool": {
        "encoding": "inplace",
        "label": "bool",
        "numberOfBytes": "1"
      },
      "t_contract(IERC20)2281": {
        "encoding": "inplace",
        "label": "contract IERC20",
        "numberOfBytes": "20"
      },
      "t_mapping(t_address,t_array(t_uint256)dyn_storage)": {
        "encoding": "mapping",
        "key": "t_address",
        "label": "mapping(address => uint256[])",
        "numberOfBytes": "32",
        "value": "t_array(t_uint256)dyn_storage"
      },
      "t_mapping(t_address,t_bool)": {
        "encoding": "mapping",
        "key": "t_address",
        "label": "mapping(address => bool)",
        "numberOfBytes": "32",
        "value": "t_bool"
      },
      "t_mapping(t_address,t_mapping(t_address,t_bool))": {
        "encoding": "mapping",
        "key": "t_address",
        "label": "mapping(address => mapping(address => bool))",
        "numberOfBytes": "32",
        "value": "t_mapping(t_address,t_bool)"
      },
      "t_mapping(t_address,t_uint256)": {
        "encoding": "mapping",
        "key": "t_address",
        "label": "mapping(address => uint256)",
        "numberOfBytes": "32",
        "value": "t_uint256"
      },
      "t_mapping(t_uint256,t_mapping(t_address,t_uint256))": {
        "encoding": "mapping",
        "key": "t_uint256",
        "label": "mapping(uint256 => mapping(address => uint256))",
        "numberOfBytes": "32",
        "value": "t_mapping(t_address,t_uint256)"
      },
      "t_mapping(t_uint256,t_struct(App)4419_storage)": {
        "encoding": "mapping",
        "key": "t_uint256",
        "label": "mapping(uint256 => struct IndieX.App)",
        "numberOfBytes": "32",
        "value": "t_struct(App)4419_storage"
      },
      "t_mapping(t_uint256,t_struct(Creation)4466_storage)": {
        "encoding": "mapping",
        "key": "t_uint256",
        "label": "mapping(uint256 => struct IndieX.Creation)",
        "numberOfBytes": "32",
        "value": "t_struct(Creation)4466_storage"
      },
      "t_mapping(t_uint256,t_uint256)": {
        "encoding": "mapping",
        "key": "t_uint256",
        "label": "mapping(uint256 => uint256)",
        "numberOfBytes": "32",
        "value": "t_uint256"
      },
      "t_mapping(t_uint8,t_address)": {
        "encoding": "mapping",
        "key": "t_uint8",
        "label": "mapping(uint8 => address)",
        "numberOfBytes": "32",
        "value": "t_address"
      },
      "t_string_storage": {
        "encoding": "bytes",
        "label": "string",
        "numberOfBytes": "32"
      },
      "t_struct(App)4419_storage": {
        "encoding": "inplace",
        "label": "struct IndieX.App",
        "members": [
          {
            "astId": 4406,
            "contract": "contracts/core/IndieX.sol:IndieX",
            "label": "id",
            "offset": 0,
            "slot": "0",
            "type": "t_uint256"
          },
          {
            "astId": 4408,
            "contract": "contracts/core/IndieX.sol:IndieX",
            "label": "creator",
            "offset": 0,
            "slot": "1",
            "type": "t_address"
          },
          {
            "astId": 4410,
            "contract": "contracts/core/IndieX.sol:IndieX",
            "label": "name",
            "offset": 0,
            "slot": "2",
            "type": "t_string_storage"
          },
          {
            "astId": 4412,
            "contract": "contracts/core/IndieX.sol:IndieX",
            "label": "uri",
            "offset": 0,
            "slot": "3",
            "type": "t_string_storage"
          },
          {
            "astId": 4414,
            "contract": "contracts/core/IndieX.sol:IndieX",
            "label": "feeTo",
            "offset": 0,
            "slot": "4",
            "type": "t_address"
          },
          {
            "astId": 4416,
            "contract": "contracts/core/IndieX.sol:IndieX",
            "label": "appFeePercent",
            "offset": 0,
            "slot": "5",
            "type": "t_uint256"
          },
          {
            "astId": 4418,
            "contract": "contracts/core/IndieX.sol:IndieX",
            "label": "creatorFeePercent",
            "offset": 0,
            "slot": "6",
            "type": "t_uint256"
          }
        ],
        "numberOfBytes": "224"
      },
      "t_struct(Creation)4466_storage": {
        "encoding": "inplace",
        "label": "struct IndieX.Creation",
        "members": [
          {
            "astId": 4444,
            "contract": "contracts/core/IndieX.sol:IndieX",
            "label": "id",
            "offset": 0,
            "slot": "0",
            "type": "t_uint256"
          },
          {
            "astId": 4446,
            "contract": "contracts/core/IndieX.sol:IndieX",
            "label": "appId",
            "offset": 0,
            "slot": "1",
            "type": "t_uint256"
          },
          {
            "astId": 4448,
            "contract": "contracts/core/IndieX.sol:IndieX",
            "label": "creator",
            "offset": 0,
            "slot": "2",
            "type": "t_address"
          },
          {
            "astId": 4450,
            "contract": "contracts/core/IndieX.sol:IndieX",
            "label": "name",
            "offset": 0,
            "slot": "3",
            "type": "t_string_storage"
          },
          {
            "astId": 4452,
            "contract": "contracts/core/IndieX.sol:IndieX",
            "label": "uri",
            "offset": 0,
            "slot": "4",
            "type": "t_string_storage"
          },
          {
            "astId": 4454,
            "contract": "contracts/core/IndieX.sol:IndieX",
            "label": "curatorFeePercent",
            "offset": 0,
            "slot": "5",
            "type": "t_uint256"
          },
          {
            "astId": 4457,
            "contract": "contracts/core/IndieX.sol:IndieX",
            "label": "curve",
            "offset": 0,
            "slot": "6",
            "type": "t_struct(Curve)4475_storage"
          },
          {
            "astId": 4459,
            "contract": "contracts/core/IndieX.sol:IndieX",
            "label": "farmer",
            "offset": 0,
            "slot": "8",
            "type": "t_uint8"
          },
          {
            "astId": 4461,
            "contract": "contracts/core/IndieX.sol:IndieX",
            "label": "isFarming",
            "offset": 1,
            "slot": "8",
            "type": "t_bool"
          },
          {
            "astId": 4463,
            "contract": "contracts/core/IndieX.sol:IndieX",
            "label": "balance",
            "offset": 0,
            "slot": "9",
            "type": "t_uint256"
          },
          {
            "astId": 4465,
            "contract": "contracts/core/IndieX.sol:IndieX",
            "label": "volume",
            "offset": 0,
            "slot": "10",
            "type": "t_uint256"
          }
        ],
        "numberOfBytes": "352"
      },
      "t_struct(Curve)4475_storage": {
        "encoding": "inplace",
        "label": "struct IndieX.Curve",
        "members": [
          {
            "astId": 4468,
            "contract": "contracts/core/IndieX.sol:IndieX",
            "label": "basePrice",
            "offset": 0,
            "slot": "0",
            "type": "t_uint96"
          },
          {
            "astId": 4470,
            "contract": "contracts/core/IndieX.sol:IndieX",
            "label": "inflectionPoint",
            "offset": 12,
            "slot": "0",
            "type": "t_uint32"
          },
          {
            "astId": 4472,
            "contract": "contracts/core/IndieX.sol:IndieX",
            "label": "inflectionPrice",
            "offset": 16,
            "slot": "0",
            "type": "t_uint128"
          },
          {
            "astId": 4474,
            "contract": "contracts/core/IndieX.sol:IndieX",
            "label": "linearPriceSlope",
            "offset": 0,
            "slot": "1",
            "type": "t_uint128"
          }
        ],
        "numberOfBytes": "64"
      },
      "t_uint128": {
        "encoding": "inplace",
        "label": "uint128",
        "numberOfBytes": "16"
      },
      "t_uint256": {
        "encoding": "inplace",
        "label": "uint256",
        "numberOfBytes": "32"
      },
      "t_uint32": {
        "encoding": "inplace",
        "label": "uint32",
        "numberOfBytes": "4"
      },
      "t_uint8": {
        "encoding": "inplace",
        "label": "uint8",
        "numberOfBytes": "1"
      },
      "t_uint96": {
        "encoding": "inplace",
        "label": "uint96",
        "numberOfBytes": "12"
      }
    }
  }
}