{
  "address": "0x9f11b028aDCf6fF7E78A2567aFEC9b680EbB7496",
  "abi": [
    {
      "inputs": [
        {
          "internalType": "address",
          "name": "target",
          "type": "address"
        }
      ],
      "name": "AddressEmptyCode",
      "type": "error"
    },
    {
      "inputs": [
        {
          "internalType": "address",
          "name": "account",
          "type": "address"
        }
      ],
      "name": "AddressInsufficientBalance",
      "type": "error"
    },
    {
      "inputs": [],
      "name": "FailedInnerCall",
      "type": "error"
    },
    {
      "inputs": [
        {
          "internalType": "address",
          "name": "token",
          "type": "address"
        }
      ],
      "name": "SafeERC20FailedOperation",
      "type": "error"
    },
    {
      "anonymous": false,
      "inputs": [
        {
          "indexed": true,
          "internalType": "address",
          "name": "user",
          "type": "address"
        },
        {
          "indexed": false,
          "internalType": "uint256",
          "name": "duration",
          "type": "uint256"
        },
        {
          "indexed": false,
          "internalType": "uint256",
          "name": "tokenAmount",
          "type": "uint256"
        }
      ],
      "name": "Subscribed",
      "type": "event"
    },
    {
      "anonymous": false,
      "inputs": [
        {
          "indexed": true,
          "internalType": "address",
          "name": "user",
          "type": "address"
        },
        {
          "indexed": false,
          "internalType": "uint256",
          "name": "amount",
          "type": "uint256"
        }
      ],
      "name": "Unsubscribed",
      "type": "event"
    },
    {
      "inputs": [],
      "name": "DEFAULT_SUBSCRIPTION_PRICE",
      "outputs": [
        {
          "internalType": "uint256",
          "name": "",
          "type": "uint256"
        }
      ],
      "stateMutability": "view",
      "type": "function"
    }
  ],
  "transactionHash": "0x014c731eb2a5cdd53a5dcfce3f3e349d38169ba34b01b807e811a0dbc11edc6a",
  "args": [],
  "numDeployments": 2,
  "solcInputHash": "62fe5f7312149ee066c8054505d4fa53",
  "bytecode": "0x611cea61003a600b82828239805160001a60731461002d57634e487b7160e01b600052600060045260246000fd5b30600052607381538281f3fe73000000000000000000000000000000000000000030146080604052600436106100ff5760003560e01c80636e94b2c2116100a1578063d26da49b11610070578063d26da49b1461025a578063db2a376c1461027a578063e9a2a74b1461029a578063f7084514146102ba57600080fd5b80636e94b2c2146101da57806370604404146101fa5780638c48d3321461021a578063c56d812d1461023a57600080fd5b806344a3381a116100dd57806344a3381a1461016c578063470c159c1461018c578063540ef81c1461019a5780635dc38368146101ba57600080fd5b806304bcf6f11461010457806307a2e8771461012a5780631a6cb80d1461014c575b600080fd5b61011761011236600461157a565b6102fd565b6040519081526020015b60405180910390f35b81801561013657600080fd5b5061014a6101453660046115bc565b610435565b005b81801561015857600080fd5b5061014a6101673660046115f1565b6104a5565b81801561017857600080fd5b5061014a6101873660046116ad565b6104fe565b610117660746a52880000081565b8180156101a657600080fd5b5061014a6101b53660046116fd565b610590565b8180156101c657600080fd5b5061014a6101d5366004611754565b6105fc565b8180156101e657600080fd5b5061014a6101f53660046115bc565b61067d565b61020d610208366004611776565b610a44565b60405161012191906117c2565b61022d6102283660046115f1565b610b3b565b6040516101219190611889565b81801561024657600080fd5b5061014a6102553660046118f9565b610ccd565b81801561026657600080fd5b5061014a61027536600461192e565b610d48565b61028d6102883660046115f1565b610f5a565b6040516101219190611982565b6102ad6102a8366004611a1b565b6110dd565b6040516101219190611a47565b6102ee6102c83660046115f1565b604080516020810190915260008152506040805160208101909152600290910154815290565b60405190518152602001610121565b6000828152600484810160209081526040808420815160e081018352815460ff8116825261010090046001600160a01b031693810193909352600181015491830191909152600281015460608301526003810154608083018190529281015460a08301526005015460c082015290820361037b57600091505061042e565b806040015183101561039157600091505061042e565b806080015181604001516103a59190611a70565b8311156103c8578060c001518160a001516103c09190611a83565b91505061042e565b60008160c001518260a001516103de9190611a83565b9050600084836080015184604001516103f79190611a70565b6104019190611a83565b9050808360600151866104149190611a83565b61041e9084611a96565b6104289190611aad565b93505050505b9392505050565b825460ff90811690831611156104885760405162461bcd60e51b8152602060048201526013602482015272141b185b881a5cc81b9bdd08195e1a5cdd1959606a1b60448201526064015b60405180910390fd5b60ff90911660009081526003909201602052604090912060010155565b60006104b3826005016111d6565b805190915060005b818110156104f8576104e6848483815181106104d9576104d9611acf565b60200260200101516105fc565b806104f081611ae5565b9150506104bb565b50505050565b604080516060810182528381526020808201849052600182840152855460ff16600090815260038701909152919091208151819061053c9082611b86565b50602082015160018201556040909101516002909101805460ff1916911515919091179055825460ff1683600061057283611c46565b91906101000a81548160ff021916908360ff16021790555050505050565b825460ff90811690831611156105de5760405162461bcd60e51b8152602060048201526013602482015272141b185b881a5cc81b9bdd08195e1a5cdd1959606a1b604482015260640161047f565b60ff8216600090815260038401602052604090206104f88282611b86565b60008181526004830160205260408120600181015490910361061d57505050565b600061062a8484426102fd565b90508060000361063a5750505050565b428260020181905550808260050160008282546106579190611a70565b92505081905550808460020160008282546106729190611a70565b909155505050505050565b6040805160ff841660208083019190915233828401528251808303840181526060909201835281519181019190912060008181526004878101909352928320918201549092036106ce575050505050565b6000831161071e5760405162461bcd60e51b815260206004820181905260248201527f416d6f756e74206d7573742062652067726561746572207468616e207a65726f604482015260640161047f565b806005015481600401546107329190611a83565b8311156107815760405162461bcd60e51b815260206004820152601060248201527f416d6f756e7420746f6f206c6172676500000000000000000000000000000000604482015260640161047f565b61078b85836105fc565b8060050154816004015461079f9190611a83565b83036108db576000816005015482600401546107bb9190611a83565b6000848152600480890160205260408220805474ffffffffffffffffffffffffffffffffffffffffff1916815560018101839055600281018390556003810183905590810182905560059081019190915590915061081b908701846111e3565b50808660020160008282546108309190611a70565b909155505060405163a9059cbb60e01b815233600482015260248101829052309063a9059cbb906044016020604051808303816000875af1158015610879573d6000803e3d6000fd5b505050506040513d601f19601f8201168201806040525081019061089d9190611c65565b5060405181815233907f3a55fe27d475f752627ad5cef7a30389a812bdee18d467b4601ea007cfbace019060200160405180910390a2505050505050565b600042826003015483600101546108f29190611a70565b6108fc9190611a83565b90506000826005015483600401546109149190611a83565b90506000816109238488611a96565b61092d9190611aad565b9050808460030160008282546109439190611a83565b925050819055508584600401600082825461095e9190611a83565b909155505060405163a9059cbb60e01b815233600482015260248101879052309063a9059cbb906044016020604051808303816000875af11580156109a7573d6000803e3d6000fd5b505050506040513d601f19601f820116820180604052508101906109cb9190611c65565b508360040154846005015410610a3a5760008581526004808a0160205260408220805474ffffffffffffffffffffffffffffffffffffffffff19168155600181018390556002810183905560038101839055908101829055600590810191909155610a38908901866111e3565b505b5050505050505050565b610a906040518060e00160405280600060ff16815260200160006001600160a01b0316815260200160008152602001600081526020016000815260200160008152602001600081525090565b6040805160ff851660208201526001600160a01b0384169181019190915260009060600160408051808303601f19018152828252805160209182012060009081526004988901825282902060e084018352805460ff8116855261010090046001600160a01b03169184019190915260018101549183019190915260028101546060830152600381015460808301529586015460a082015260059095015460c086015250929392505050565b805460609060ff168067ffffffffffffffff811115610b5c57610b5c61160a565b604051908082528060200260200182016040528015610bb357816020015b610ba0604051806060016040528060608152602001600081526020016000151581525090565b815260200190600190039081610b7a5790505b50915060005b818160ff161015610cc65760ff8116600090815260038501602052604090819020815160608101909252805482908290610bf290611afe565b80601f0160208091040260200160405190810160405280929190818152602001828054610c1e90611afe565b8015610c6b5780601f10610c4057610100808354040283529160200191610c6b565b820191906000526020600020905b815481529060010190602001808311610c4e57829003601f168201915b50505091835250506001820154602082015260029091015460ff9081161515604090920191909152845185918416908110610ca857610ca8611acf565b60200260200101819052508080610cbe90611c46565b915050610bb9565b5050919050565b825460ff9081169083161115610d1b5760405162461bcd60e51b8152602060048201526013602482015272141b185b881a5cc81b9bdd08195e1a5cdd1959606a1b604482015260640161047f565b60ff909116600090815260039092016020526040909120600201805491151560ff19909216919091179055565b6040805160ff86166020808301919091523382840152825180830384018152606090920183528151918101919091206000818152600489019092529190208215610d9857610d98303381886111ef565b8060040154600003610dc45742600182018190556002820155610dbe600588018361125e565b50610ed8565b600081600301548260010154610dda9190611a70565b421190508015610ed6576040518060e001604052808860ff168152602001336001600160a01b031681526020014281526020016000815260200160008152602001600081526020014281525088600401600085815260200190815260200160002060008201518160000160006101000a81548160ff021916908360ff16021790555060208201518160000160016101000a8154816001600160a01b0302191690836001600160a01b0316021790555060408201518160010155606082015181600201556080820151816003015560a0820151816004015560c0820151816005015590505087600401600084815260200190815260200160002091505b505b610ee287836105fc565b84816004016000828254610ef69190611a70565b9250508190555083816003016000828254610f119190611a70565b9091555050604080518581526020810187905233917ff94991dcbea6e8ac439cbc93bd9c62a4d39f04e0ad656df9a703f13552c2787f910160405180910390a250505050505050565b60606000610f6a836005016111d6565b805190915060008167ffffffffffffffff811115610f8a57610f8a61160a565b60405190808252806020026020018201604052801561100757816020015b610ff46040518060e00160405280600060ff16815260200160006001600160a01b0316815260200160008152602001600081526020016000815260200160008152602001600081525090565b815260200190600190039081610fa85790505b50905060005b828110156110d45785600401600085838151811061102d5761102d611acf565b6020908102919091018101518252818101929092526040908101600020815160e081018352815460ff8116825261010090046001600160a01b0316938101939093526001810154918301919091526002810154606083015260038101546080830152600481015460a08301526005015460c082015282518390839081106110b6576110b6611acf565b602002602001018190525080806110cc90611ae5565b91505061100d565b50949350505050565b611103604051806060016040528060608152602001600081526020016000151581525090565b60ff821660009081526003840160205260409081902081516060810190925280548290829061113190611afe565b80601f016020809104026020016040519081016040528092919081815260200182805461115d90611afe565b80156111aa5780601f1061117f576101008083540402835291602001916111aa565b820191906000526020600020905b81548152906001019060200180831161118d57829003601f168201915b50505091835250506001820154602082015260029091015460ff16151560409091015290505b92915050565b6060600061042e8361126a565b600061042e83836112c6565b604080516001600160a01b0385811660248301528416604482015260648082018490528251808303909101815260849091019091526020810180517bffffffffffffffffffffffffffffffffffffffffffffffffffffffff166323b872dd60e01b1790526104f89085906113b9565b600061042e8383611421565b6060816000018054806020026020016040519081016040528092919081815260200182805480156112ba57602002820191906000526020600020905b8154815260200190600101908083116112a6575b50505050509050919050565b600081815260018301602052604081205480156113af5760006112ea600183611a83565b85549091506000906112fe90600190611a83565b905080821461136357600086600001828154811061131e5761131e611acf565b906000526020600020015490508087600001848154811061134157611341611acf565b6000918252602080832090910192909255918252600188019052604090208390555b855486908061137457611374611c82565b6001900381819060005260206000200160009055905585600101600086815260200190815260200160002060009055600193505050506111d0565b60009150506111d0565b60006113ce6001600160a01b03841683611470565b905080516000141580156113f35750808060200190518101906113f19190611c65565b155b1561141c57604051635274afe760e01b81526001600160a01b038416600482015260240161047f565b505050565b6000818152600183016020526040812054611468575081546001818101845560008481526020808220909301849055845484825282860190935260409020919091556111d0565b5060006111d0565b606061042e8383600084600080856001600160a01b031684866040516114969190611c98565b60006040518083038185875af1925050503d80600081146114d3576040519150601f19603f3d011682016040523d82523d6000602084013e6114d8565b606091505b50915091506114e88683836114f2565b9695505050505050565b606082611507576115028261154e565b61042e565b815115801561151e57506001600160a01b0384163b155b1561154757604051639996b31560e01b81526001600160a01b038516600482015260240161047f565b508061042e565b80511561155e5780518082602001fd5b604051630a12f52160e11b815260040160405180910390fd5b50565b60008060006060848603121561158f57600080fd5b505081359360208301359350604090920135919050565b803560ff811681146115b757600080fd5b919050565b6000806000606084860312156115d157600080fd5b833592506115e1602085016115a6565b9150604084013590509250925092565b60006020828403121561160357600080fd5b5035919050565b634e487b7160e01b600052604160045260246000fd5b600082601f83011261163157600080fd5b813567ffffffffffffffff8082111561164c5761164c61160a565b604051601f8301601f19908116603f011681019082821181831017156116745761167461160a565b8160405283815286602085880101111561168d57600080fd5b836020870160208301376000602085830101528094505050505092915050565b6000806000606084860312156116c257600080fd5b83359250602084013567ffffffffffffffff8111156116e057600080fd5b6116ec86828701611620565b925050604084013590509250925092565b60008060006060848603121561171257600080fd5b83359250611722602085016115a6565b9150604084013567ffffffffffffffff81111561173e57600080fd5b61174a86828701611620565b9150509250925092565b6000806040838503121561176757600080fd5b50508035926020909101359150565b60008060006060848603121561178b57600080fd5b8335925061179b602085016115a6565b915060408401356001600160a01b03811681146117b757600080fd5b809150509250925092565b60e081016111d0828460ff81511682526001600160a01b03602082015116602083015260408101516040830152606081015160608301526080810151608083015260a081015160a083015260c081015160c08301525050565b60005b8381101561183657818101518382015260200161181e565b50506000910152565b6000815160608452805180606086015261186081608087016020850161181b565b602084810151908601526040938401511515938501939093525050601f01601f19160160800190565b6000602080830181845280855180835260408601915060408160051b870101925083870160005b828110156118de57603f198886030184526118cc85835161183f565b945092850192908501906001016118b0565b5092979650505050505050565b801515811461157757600080fd5b60008060006060848603121561190e57600080fd5b8335925061191e602085016115a6565b915060408401356117b7816118eb565b600080600080600060a0868803121561194657600080fd5b85359450611956602087016115a6565b935060408601359250606086013591506080860135611974816118eb565b809150509295509295909350565b6020808252825182820181905260009190848201906040850190845b81811015611a0f576119fc83855160ff81511682526001600160a01b03602082015116602083015260408101516040830152606081015160608301526080810151608083015260a081015160a083015260c081015160c08301525050565b9284019260e0929092019160010161199e565b50909695505050505050565b60008060408385031215611a2e57600080fd5b82359150611a3e602084016115a6565b90509250929050565b60208152600061042e602083018461183f565b634e487b7160e01b600052601160045260246000fd5b808201808211156111d0576111d0611a5a565b818103818111156111d0576111d0611a5a565b80820281158282048414176111d0576111d0611a5a565b600082611aca57634e487b7160e01b600052601260045260246000fd5b500490565b634e487b7160e01b600052603260045260246000fd5b600060018201611af757611af7611a5a565b5060010190565b600181811c90821680611b1257607f821691505b602082108103611b3257634e487b7160e01b600052602260045260246000fd5b50919050565b601f82111561141c57600081815260208120601f850160051c81016020861015611b5f5750805b601f850160051c820191505b81811015611b7e57828155600101611b6b565b505050505050565b815167ffffffffffffffff811115611ba057611ba061160a565b611bb481611bae8454611afe565b84611b38565b602080601f831160018114611be95760008415611bd15750858301515b600019600386901b1c1916600185901b178555611b7e565b600085815260208120601f198616915b82811015611c1857888601518255948401946001909101908401611bf9565b5085821015611c365787850151600019600388901b60f8161c191681555b5050505050600190811b01905550565b600060ff821660ff8103611c5c57611c5c611a5a565b60010192915050565b600060208284031215611c7757600080fd5b815161042e816118eb565b634e487b7160e01b600052603160045260246000fd5b60008251611caa81846020870161181b565b919091019291505056fea2646970667358221220202de4b76132a5a8af9e3a3657311b2fc475a178aff72918f086f8439f7aa45a64736f6c63430008140033",
  "libraries": {},
  "devdoc": {
    "errors": {
      "AddressEmptyCode(address)": [
        {
          "details": "There's no code at `target` (it is not a contract)."
        }
      ],
      "AddressInsufficientBalance(address)": [
        {
          "details": "The ETH balance of the account is not enough to perform the operation."
        }
      ],
      "FailedInnerCall()": [
        {
          "details": "A call to an address target failed. The target may have reverted."
        }
      ],
      "SafeERC20FailedOperation(address)": [
        {
          "details": "An operation with an ERC20 token failed."
        }
      ]
    },
    "kind": "dev",
    "methods": {},
    "version": 1
  },
  "userdoc": {
    "kind": "user",
    "methods": {},
    "version": 1
  },
  "storageLayout": {
    "storage": [],
    "types": null
  }
}