{
  "address": "0x1D9C14178451aBb824a03b8b8ee7b173754717dd",
  "abi": [
    {
      "inputs": [],
      "name": "AmountIsZero",
      "type": "error"
    },
    {
      "inputs": [],
      "name": "EthAmountIsZero",
      "type": "error"
    },
    {
      "inputs": [],
      "name": "PlanNotActive",
      "type": "error"
    },
    {
      "inputs": [],
      "name": "PlanNotExisted",
      "type": "error"
    },
    {
      "inputs": [],
      "name": "PriceIsZero",
      "type": "error"
    },
    {
      "inputs": [],
      "name": "SubscribeAmountTooSmall",
      "type": "error"
    },
    {
      "inputs": [],
      "name": "SubscriptionNotFound",
      "type": "error"
    },
    {
      "inputs": [
        {
          "internalType": "uint8",
          "name": "planId",
          "type": "uint8"
        },
        {
          "internalType": "address",
          "name": "account",
          "type": "address"
        }
      ],
      "name": "generateSubscriptionId",
      "outputs": [
        {
          "internalType": "bytes32",
          "name": "",
          "type": "bytes32"
        }
      ],
      "stateMutability": "pure",
      "type": "function"
    }
  ],
  "transactionHash": "0x5610ddd7062460bb937e37f9e99c705be90330963a154238fb2e5a3c43e8803d",
  "args": [],
  "numDeployments": 5,
  "solcInputHash": "9d3a85cc2e7236f15f84ebf7696f574d",
  "bytecode": "0x6080806040523461001c576116f090816100228239308160070152f35b600080fdfe6080604052307f000000000000000000000000000000000000000000000000000000000000000014600436101561003557600080fd5b60003560e01c90816362195e9f1461103a5781636555463a1461100f578163844899f114610fce5781638c48d33214610d8c578163a5ac5cd714610c1c578163da4382fa14610a2d578163e4dc80c514610547578163e7a1945b14610488578163f1a91b1314610282575063fb1af52e146100af57600080fd5b604036600319011261027d57602480359060405190819283815491828552602080950190600052846000209260005b86828210610267575050506100f5925003846110ea565b825192610101846111ab565b9361010f60405195866110ea565b808552601f1961011e826111ab565b018460005b82811061025157505050906000906004803501915b8381106101bd57604080518781528851818901819052898901928201908960005b8281106101665784840385f35b9091928260a0826101ae6001948a516080809160ff81511684526001600160a01b03602082015116602085015260408101516040850152606081015160608501520151910152565b01960191019492919094610159565b6101c781836111c3565b5160005282865260406000206003604051916101e2836110ce565b6001600160a01b03815460ff8116855260081c168984015260018101546040840152600281015460608401520154608082015261021f82896111c3565b5261022a81886111c3565b50600019811461023c57600101610138565b84634e487b7160e01b60005260116004526000fd5b610259611531565b82828a010152018590610123565b85548452600195860195899550930192016100de565b600080fd5b61027d57608036600319011261027d5760043567ffffffffffffffff60243581811161027d576102b6903690600401611070565b929060443592831561045e5760ff83541693604051926102d58461109e565b82871161044857604051602097601f19926102f7601f830185168b01846110ea565b818352368282011161027d57816000928b928386013783010152845286840191825260408401916064358352606085019360019283865288600052600388018a526040600020965180519283116104485761035c836103568a5461110c565b8a611146565b8a91601f84116001146103de5750918060039694926103b3999896946000926103d3575b505060001982881b1c191690831b1786555b519085015551600284015551151591019060ff801983541691151516179055565b805460ff6103c281831661119a565b169060ff1916179055604051908152f35b015190508c80610380565b60008981528c81209392918516905b8d82821061043457505092869491926103b39a9997938360039a98961061041c575b505050811b018655610392565b0151600019838a1b60f8161c191690558c808061040f565b8385015186559488019493840193016103ed565b634e487b7160e01b600052604160045260246000fd5b60046040517f907adecd000000000000000000000000000000000000000000000000000000008152fd5b604036600319011261027d576104af61049f611060565b6104a7611531565b503390611679565b600052600480350160205260a060406000206003604051916104d0836110ce565b6001600160a01b03815460ff8116855260081c16602084015260018101546040840152600281015460608401520154608082015261054560405180926080809160ff81511684526001600160a01b03602082015116602085015260408101516040850152606081015160608501520151910152565bf35b61027d5761010036600319011261027d57606036602319011261027d576040516060810181811067ffffffffffffffff8211176104485760405260243581526044356020820152606435604082015260ff60c4351660c4350361027d57600060ff600435541660ff60c435161015610a035760e435156109d95760ff60c43516600052600360043501602052604060002091604051926105e68461109e565b60405181548160006105f78361110c565b80835292600181169081156109ba5750600114610976575b61061b925003826110ea565b84526001810154602085015260ff600360028301549260408701938452015416158015606086015261094c5751604080516327d5ff4960e11b8152835160048201526020840151602482015290830151604482015262278d00909104606482015260c0816084817387c9c3A2cbC1655239c50045B4f4feFce7B674975af480156108905760609160009161092d575b50015162278d0081029080820462278d0014901517156109175760e435106108ed5761073760c06106dd3360c435611679565b9283600052600480350160205262278d0060206040600020970151049060405193849283926327d5ff4960e11b84526004840160609093929193604060808201958051835260208101516020840152015160408201520152565b03817387c9c3A2cbC1655239c50045B4f4feFce7B674975af490811561089057610771916060916000916108be575b50015160e4356112af565b91600184019182541560001461089c5784547fffffffffffffffffffffff0000000000000000000000000000000000000000001660c43560ff16173360081b74ffffffffffffffffffffffffffffffffffffffff00161785556107d69060a435611212565b50829173e26feaE5C55c5A5D75d879b51e6385117FE4440394853b1561027d576040517f447c53ec000000000000000000000000000000000000000000000000000000008152608435600482015233602482015295600090879060449082905af491821561089057606096600293610881575b505b4290556003810161085f60e43582546111ed565b90550161086d8482546111ed565b905560405192835260208301526040820152f35b61088a906110ba565b87610849565b6040513d6000823e3d90fd5b6060949291506108b660029160a4356084356004356113cc565b93909261084b565b6108e0915060c03d60c0116108e6575b6108d881836110ea565b810190611616565b86610766565b503d6108ce565b60046040517f335ac97b000000000000000000000000000000000000000000000000000000008152fd5b634e487b7160e01b600052601160045260246000fd5b610946915060c03d60c0116108e6576108d881836110ea565b856106aa565b60046040517ffeb7c323000000000000000000000000000000000000000000000000000000008152fd5b5090836000526020600020906000915b81831061099e57505090602061061b9282010161060f565b6020919350806001915483858801015201910190918392610986565b6020925061061b94915060ff191682840152151560051b82010161060f565b60046040517fc8e50334000000000000000000000000000000000000000000000000000000008152fd5b60046040517fc9c5baf2000000000000000000000000000000000000000000000000000000008152fd5b61027d5760a036600319011261027d5760643560443560043560ff8316830361027d57608435928315610bf257610a65903390611679565b600482019181600052602090838252604060002090600182015415610bc8578386610a9392602435906113cc565b600383018054929791969092808a10610bc1575b604051907fa9059cbb000000000000000000000000000000000000000000000000000000008252336004830152602482015285816044816000305af1801561089057610b8e575b50825460809990808210610b4f57505094610b33916002949596826000528752610b2e604060002060036000918281558260018201558260028201550155565b6112dc565b5054910154915b60405194855284015260408301526060820152f35b91509550610b869150600286940192835490610b7f610b7784610b72898661129c565b6112af565b9889946112cf565b90556112cf565b905590610b3a565b8581813d8311610bba575b610ba381836110ea565b8101031261027d57518015150361027d5789610aee565b503d610b99565b5088610aa7565b60046040517f1a00354f000000000000000000000000000000000000000000000000000000008152fd5b60046040517f43ad20fc000000000000000000000000000000000000000000000000000000008152fd5b61027d5760c036600319011261027d57600435610c37611060565b9067ffffffffffffffff60443581811161027d57610c59903690600401611070565b90936064359260a43594851515860361027d57841561045e5760ff80825416931692831015610a03576003019282600052602096848852604060002092821161044857610cb082610caa855461110c565b85611146565b600090601f8311600114610d1e579180610d11999492600398979694600092610d13575b50508160011b9160001990891b1c19161790555b6000525260406000209060018201556084356002820155019060ff801983541691151516179055565b005b013590508a80610cd4565b601f1983169184600052896000209260005b818110610d75575092600192859260039a999896610d119d989610610d5d575b505050811b019055610ce8565b0135600019838b1b60f8161c191690558a8080610d50565b91938b600181928787013581550195019201610d30565b60208060031936011261027d5760043560ff908181541690610dad826111ab565b90610dbb60405192836110ea565b828252601f199384610dcc856111ab565b018660005b828110610f9f5750505060006003809301905b82811686811015610edc57806000528289526040600020848660405192610e0a8461109e565b60405181548e916000610e1c8361110c565b808352600193808516908115610ec25750600114610e8a575b509181610e51610e7f99979593610e859c9b99979503826110ea565b8652820154908501526002810154604085015201541615156060820152610e78828a6111c3565b52876111c3565b5061119a565b610de4565b60008681528581209092505b818310610ea95750508101830181610e35565b80548484018701528d98508e9750918501918401610e96565b60ff19168685015250151560051b82018401905081610e35565b8789876040519180830190808452825180925260408401948160408460051b8701019401956000915b848310610f125786860387f35b9091929394603f19878203018352848851918383516080908184528051809285015260005b828110610f875750509160019491601f859460a094600086838701015286810151878601526040810151604086015260608091015115159085015201160101990193019301919694939290610f05565b81810186015185820160a001528a9588945001610f37565b604051610fab8161109e565b600060608083528185840152816040840152820152828288010152018790610dd1565b604036600319011261027d5760043560ff8116810361027d57602435906001600160a01b038216820361027d5760209161100791611679565b604051908152f35b606036600319011261027d57604061102e60443560243560043561155c565b82519182526020820152f35b61027d57608036600319011261027d57604061102e6064356044356024356004356113cc565b6024359060ff8216820361027d57565b9181601f8401121561027d5782359167ffffffffffffffff831161027d576020838186019501011161027d57565b6080810190811067ffffffffffffffff82111761044857604052565b67ffffffffffffffff811161044857604052565b60a0810190811067ffffffffffffffff82111761044857604052565b90601f8019910116810190811067ffffffffffffffff82111761044857604052565b90600182811c9216801561113c575b602083101461112657565b634e487b7160e01b600052602260045260246000fd5b91607f169161111b565b90601f811161115457505050565b600091825260208220906020601f850160051c83019410611190575b601f0160051c01915b82811061118557505050565b818155600101611179565b9092508290611170565b60ff1660ff81146109175760010190565b67ffffffffffffffff81116104485760051b60200190565b80518210156111d75760209160051b010190565b634e487b7160e01b600052603260045260246000fd5b9190820180921161091757565b80548210156111d75760005260206000200190600090565b919060018301600090828252806020526040822054156000146112965784549468010000000000000000861015611282578361127261125b886001604098999a018555846111fa565b819391549060031b91821b91600019901b19161790565b9055549382526020522055600190565b602483634e487b7160e01b81526041600452fd5b50925050565b8181029291811591840414171561091757565b81156112b9570490565b634e487b7160e01b600052601260045260246000fd5b9190820391821161091757565b906001820190600092818452826020526040842054908115156000146113c557600019918083018181116113b15782549084820191821161139d57818103611368575b505050805480156113545782019161133783836111fa565b909182549160031b1b191690555582526020526040812055600190565b602486634e487b7160e01b81526031600452fd5b61138861137861125b93866111fa565b90549060031b1c928392866111fa565b9055865284602052604086205538808061131f565b602488634e487b7160e01b81526011600452fd5b602487634e487b7160e01b81526011600452fd5b5050505090565b9392909160048501600083815281602052604081209460018601958654988915611524576113fc9087429161155c565b999097881561151657908a91600284019161141a42918454906111ed565b116114f4575050506001600160a01b0373e26feaE5C55c5A5D75d879b51e6385117FE44403915460081c1691813b156114f0576040517f7e0c44c500000000000000000000000000000000000000000000000000000000815260048101919091526001600160a01b039290921660248301528290829060449082905af480156114e55792610b2e926040926114d19796956114d6575b50908582526020522060036000918281558260018201558260028201550155565b509190565b6114df906110ba565b386114b0565b6040513d84823e3d90fd5b8380fd5b9350955095509150600392504290550161150f8482546112cf565b9055559190565b505050509550505050508190565b5050509550505050508190565b6040519061153e826110ce565b60006080838281528260208201528260408201528260608201520152565b60049093929360009283520160205260408120906040519361157d856110ce565b6001600160a01b03835460ff8116875260081c166020860152600183015490816040870152608060036002860154956060890196875201549601958652811561160d5781811061160d57906115d1916112cf565b90825190818310156116035750816115f06115ff94936115f7936112cf565b955161129c565b9051906112af565b9190565b9492505050519190565b50509250508190565b908160c091031261027d576040519060c082019082821067ffffffffffffffff8311176104485760a0916040528051835260208101516020840152604081015160408401526060810151606084015260808101516080840152015160a082015290565b906001600160a01b036040519160ff6020840194168452166040820152604081526060810181811067ffffffffffffffff821117610448576040525190209056fea26469706673582212201b2c684102ebe61ce9cca1b86674f00133c5818103bd26d693313ff9c0af5c7764736f6c63430008140033",
  "deployedBytecode": "0x6080604052307f000000000000000000000000000000000000000000000000000000000000000014600436101561003557600080fd5b60003560e01c90816362195e9f1461103a5781636555463a1461100f578163844899f114610fce5781638c48d33214610d8c578163a5ac5cd714610c1c578163da4382fa14610a2d578163e4dc80c514610547578163e7a1945b14610488578163f1a91b1314610282575063fb1af52e146100af57600080fd5b604036600319011261027d57602480359060405190819283815491828552602080950190600052846000209260005b86828210610267575050506100f5925003846110ea565b825192610101846111ab565b9361010f60405195866110ea565b808552601f1961011e826111ab565b018460005b82811061025157505050906000906004803501915b8381106101bd57604080518781528851818901819052898901928201908960005b8281106101665784840385f35b9091928260a0826101ae6001948a516080809160ff81511684526001600160a01b03602082015116602085015260408101516040850152606081015160608501520151910152565b01960191019492919094610159565b6101c781836111c3565b5160005282865260406000206003604051916101e2836110ce565b6001600160a01b03815460ff8116855260081c168984015260018101546040840152600281015460608401520154608082015261021f82896111c3565b5261022a81886111c3565b50600019811461023c57600101610138565b84634e487b7160e01b60005260116004526000fd5b610259611531565b82828a010152018590610123565b85548452600195860195899550930192016100de565b600080fd5b61027d57608036600319011261027d5760043567ffffffffffffffff60243581811161027d576102b6903690600401611070565b929060443592831561045e5760ff83541693604051926102d58461109e565b82871161044857604051602097601f19926102f7601f830185168b01846110ea565b818352368282011161027d57816000928b928386013783010152845286840191825260408401916064358352606085019360019283865288600052600388018a526040600020965180519283116104485761035c836103568a5461110c565b8a611146565b8a91601f84116001146103de5750918060039694926103b3999896946000926103d3575b505060001982881b1c191690831b1786555b519085015551600284015551151591019060ff801983541691151516179055565b805460ff6103c281831661119a565b169060ff1916179055604051908152f35b015190508c80610380565b60008981528c81209392918516905b8d82821061043457505092869491926103b39a9997938360039a98961061041c575b505050811b018655610392565b0151600019838a1b60f8161c191690558c808061040f565b8385015186559488019493840193016103ed565b634e487b7160e01b600052604160045260246000fd5b60046040517f907adecd000000000000000000000000000000000000000000000000000000008152fd5b604036600319011261027d576104af61049f611060565b6104a7611531565b503390611679565b600052600480350160205260a060406000206003604051916104d0836110ce565b6001600160a01b03815460ff8116855260081c16602084015260018101546040840152600281015460608401520154608082015261054560405180926080809160ff81511684526001600160a01b03602082015116602085015260408101516040850152606081015160608501520151910152565bf35b61027d5761010036600319011261027d57606036602319011261027d576040516060810181811067ffffffffffffffff8211176104485760405260243581526044356020820152606435604082015260ff60c4351660c4350361027d57600060ff600435541660ff60c435161015610a035760e435156109d95760ff60c43516600052600360043501602052604060002091604051926105e68461109e565b60405181548160006105f78361110c565b80835292600181169081156109ba5750600114610976575b61061b925003826110ea565b84526001810154602085015260ff600360028301549260408701938452015416158015606086015261094c5751604080516327d5ff4960e11b8152835160048201526020840151602482015290830151604482015262278d00909104606482015260c08160848173__$ff3a2bd404286ed9d5b3b36a2bfde83b52$__5af480156108905760609160009161092d575b50015162278d0081029080820462278d0014901517156109175760e435106108ed5761073760c06106dd3360c435611679565b9283600052600480350160205262278d0060206040600020970151049060405193849283926327d5ff4960e11b84526004840160609093929193604060808201958051835260208101516020840152015160408201520152565b038173__$ff3a2bd404286ed9d5b3b36a2bfde83b52$__5af490811561089057610771916060916000916108be575b50015160e4356112af565b91600184019182541560001461089c5784547fffffffffffffffffffffff0000000000000000000000000000000000000000001660c43560ff16173360081b74ffffffffffffffffffffffffffffffffffffffff00161785556107d69060a435611212565b50829173__$d26c4b6c55cbf068c0037866f9978a3889$__94853b1561027d576040517f447c53ec000000000000000000000000000000000000000000000000000000008152608435600482015233602482015295600090879060449082905af491821561089057606096600293610881575b505b4290556003810161085f60e43582546111ed565b90550161086d8482546111ed565b905560405192835260208301526040820152f35b61088a906110ba565b87610849565b6040513d6000823e3d90fd5b6060949291506108b660029160a4356084356004356113cc565b93909261084b565b6108e0915060c03d60c0116108e6575b6108d881836110ea565b810190611616565b86610766565b503d6108ce565b60046040517f335ac97b000000000000000000000000000000000000000000000000000000008152fd5b634e487b7160e01b600052601160045260246000fd5b610946915060c03d60c0116108e6576108d881836110ea565b856106aa565b60046040517ffeb7c323000000000000000000000000000000000000000000000000000000008152fd5b5090836000526020600020906000915b81831061099e57505090602061061b9282010161060f565b6020919350806001915483858801015201910190918392610986565b6020925061061b94915060ff191682840152151560051b82010161060f565b60046040517fc8e50334000000000000000000000000000000000000000000000000000000008152fd5b60046040517fc9c5baf2000000000000000000000000000000000000000000000000000000008152fd5b61027d5760a036600319011261027d5760643560443560043560ff8316830361027d57608435928315610bf257610a65903390611679565b600482019181600052602090838252604060002090600182015415610bc8578386610a9392602435906113cc565b600383018054929791969092808a10610bc1575b604051907fa9059cbb000000000000000000000000000000000000000000000000000000008252336004830152602482015285816044816000305af1801561089057610b8e575b50825460809990808210610b4f57505094610b33916002949596826000528752610b2e604060002060036000918281558260018201558260028201550155565b6112dc565b5054910154915b60405194855284015260408301526060820152f35b91509550610b869150600286940192835490610b7f610b7784610b72898661129c565b6112af565b9889946112cf565b90556112cf565b905590610b3a565b8581813d8311610bba575b610ba381836110ea565b8101031261027d57518015150361027d5789610aee565b503d610b99565b5088610aa7565b60046040517f1a00354f000000000000000000000000000000000000000000000000000000008152fd5b60046040517f43ad20fc000000000000000000000000000000000000000000000000000000008152fd5b61027d5760c036600319011261027d57600435610c37611060565b9067ffffffffffffffff60443581811161027d57610c59903690600401611070565b90936064359260a43594851515860361027d57841561045e5760ff80825416931692831015610a03576003019282600052602096848852604060002092821161044857610cb082610caa855461110c565b85611146565b600090601f8311600114610d1e579180610d11999492600398979694600092610d13575b50508160011b9160001990891b1c19161790555b6000525260406000209060018201556084356002820155019060ff801983541691151516179055565b005b013590508a80610cd4565b601f1983169184600052896000209260005b818110610d75575092600192859260039a999896610d119d989610610d5d575b505050811b019055610ce8565b0135600019838b1b60f8161c191690558a8080610d50565b91938b600181928787013581550195019201610d30565b60208060031936011261027d5760043560ff908181541690610dad826111ab565b90610dbb60405192836110ea565b828252601f199384610dcc856111ab565b018660005b828110610f9f5750505060006003809301905b82811686811015610edc57806000528289526040600020848660405192610e0a8461109e565b60405181548e916000610e1c8361110c565b808352600193808516908115610ec25750600114610e8a575b509181610e51610e7f99979593610e859c9b99979503826110ea565b8652820154908501526002810154604085015201541615156060820152610e78828a6111c3565b52876111c3565b5061119a565b610de4565b60008681528581209092505b818310610ea95750508101830181610e35565b80548484018701528d98508e9750918501918401610e96565b60ff19168685015250151560051b82018401905081610e35565b8789876040519180830190808452825180925260408401948160408460051b8701019401956000915b848310610f125786860387f35b9091929394603f19878203018352848851918383516080908184528051809285015260005b828110610f875750509160019491601f859460a094600086838701015286810151878601526040810151604086015260608091015115159085015201160101990193019301919694939290610f05565b81810186015185820160a001528a9588945001610f37565b604051610fab8161109e565b600060608083528185840152816040840152820152828288010152018790610dd1565b604036600319011261027d5760043560ff8116810361027d57602435906001600160a01b038216820361027d5760209161100791611679565b604051908152f35b606036600319011261027d57604061102e60443560243560043561155c565b82519182526020820152f35b61027d57608036600319011261027d57604061102e6064356044356024356004356113cc565b6024359060ff8216820361027d57565b9181601f8401121561027d5782359167ffffffffffffffff831161027d576020838186019501011161027d57565b6080810190811067ffffffffffffffff82111761044857604052565b67ffffffffffffffff811161044857604052565b60a0810190811067ffffffffffffffff82111761044857604052565b90601f8019910116810190811067ffffffffffffffff82111761044857604052565b90600182811c9216801561113c575b602083101461112657565b634e487b7160e01b600052602260045260246000fd5b91607f169161111b565b90601f811161115457505050565b600091825260208220906020601f850160051c83019410611190575b601f0160051c01915b82811061118557505050565b818155600101611179565b9092508290611170565b60ff1660ff81146109175760010190565b67ffffffffffffffff81116104485760051b60200190565b80518210156111d75760209160051b010190565b634e487b7160e01b600052603260045260246000fd5b9190820180921161091757565b80548210156111d75760005260206000200190600090565b919060018301600090828252806020526040822054156000146112965784549468010000000000000000861015611282578361127261125b886001604098999a018555846111fa565b819391549060031b91821b91600019901b19161790565b9055549382526020522055600190565b602483634e487b7160e01b81526041600452fd5b50925050565b8181029291811591840414171561091757565b81156112b9570490565b634e487b7160e01b600052601260045260246000fd5b9190820391821161091757565b906001820190600092818452826020526040842054908115156000146113c557600019918083018181116113b15782549084820191821161139d57818103611368575b505050805480156113545782019161133783836111fa565b909182549160031b1b191690555582526020526040812055600190565b602486634e487b7160e01b81526031600452fd5b61138861137861125b93866111fa565b90549060031b1c928392866111fa565b9055865284602052604086205538808061131f565b602488634e487b7160e01b81526011600452fd5b602487634e487b7160e01b81526011600452fd5b5050505090565b9392909160048501600083815281602052604081209460018601958654988915611524576113fc9087429161155c565b999097881561151657908a91600284019161141a42918454906111ed565b116114f4575050506001600160a01b0373__$d26c4b6c55cbf068c0037866f9978a3889$__915460081c1691813b156114f0576040517f7e0c44c500000000000000000000000000000000000000000000000000000000815260048101919091526001600160a01b039290921660248301528290829060449082905af480156114e55792610b2e926040926114d19796956114d6575b50908582526020522060036000918281558260018201558260028201550155565b509190565b6114df906110ba565b386114b0565b6040513d84823e3d90fd5b8380fd5b9350955095509150600392504290550161150f8482546112cf565b9055559190565b505050509550505050508190565b5050509550505050508190565b6040519061153e826110ce565b60006080838281528260208201528260408201528260608201520152565b60049093929360009283520160205260408120906040519361157d856110ce565b6001600160a01b03835460ff8116875260081c166020860152600183015490816040870152608060036002860154956060890196875201549601958652811561160d5781811061160d57906115d1916112cf565b90825190818310156116035750816115f06115ff94936115f7936112cf565b955161129c565b9051906112af565b9190565b9492505050519190565b50509250508190565b908160c091031261027d576040519060c082019082821067ffffffffffffffff8311176104485760a0916040528051835260208101516020840152604081015160408401526060810151606084015260808101516080840152015160a082015290565b906001600160a01b036040519160ff6020840194168452166040820152604081526060810181811067ffffffffffffffff821117610448576040525190209056fea26469706673582212201b2c684102ebe61ce9cca1b86674f00133c5818103bd26d693313ff9c0af5c7764736f6c63430008140033",
  "libraries": {
    "Curation": "0xe26feaE5C55c5A5D75d879b51e6385117FE44403",
    "Token": "0x87c9c3A2cbC1655239c50045B4f4feFce7B67497"
  },
  "devdoc": {
    "kind": "dev",
    "methods": {},
    "version": 1
  },
  "userdoc": {
    "errors": {
      "AmountIsZero()": [
        {
          "notice": "common "
        }
      ],
      "PlanNotExisted()": [
        {
          "notice": "Member "
        }
      ]
    },
    "kind": "user",
    "methods": {},
    "version": 1
  },
  "storageLayout": {
    "storage": [],
    "types": null
  }
}