{
  "address": "0xaF021e9860B3aA6De3CE12a9032d24ED3aEBEaEa",
  "abi": [
    {
      "inputs": [],
      "name": "AmountIsZero",
      "type": "error"
    },
    {
      "inputs": [],
      "name": "EthAmountIsZero",
      "type": "error"
    },
    {
      "inputs": [],
      "name": "PlanNotActive",
      "type": "error"
    },
    {
      "inputs": [],
      "name": "PlanNotExisted",
      "type": "error"
    },
    {
      "inputs": [],
      "name": "PriceIsZero",
      "type": "error"
    },
    {
      "inputs": [],
      "name": "SubscribeAmountTooSmall",
      "type": "error"
    },
    {
      "inputs": [],
      "name": "SubscriptionNotFound",
      "type": "error"
    },
    {
      "inputs": [
        {
          "internalType": "uint8",
          "name": "planId",
          "type": "uint8"
        },
        {
          "internalType": "address",
          "name": "account",
          "type": "address"
        }
      ],
      "name": "generateSubscriptionId",
      "outputs": [
        {
          "internalType": "bytes32",
          "name": "",
          "type": "bytes32"
        }
      ],
      "stateMutability": "pure",
      "type": "function"
    }
  ],
  "transactionHash": "0xdf23071a4e2eba47b4114ece89f4d776acc66529e64c86509d7ec8bd212d6ca1",
  "args": [],
  "numDeployments": 7,
  "solcInputHash": "d531e3eabe5d53f3e13e1b53bf2e8842",
  "bytecode": "0x6080806040523461001c5761174990816100228239308160070152f35b600080fdfe6080604052307f000000000000000000000000000000000000000000000000000000000000000014600436101561003557600080fd5b600090813560e01c9081633474241b14610a8757816362195e9f14610a5f5781636555463a14610a335781637060440414610981578163844899f11461093f5781638c48d332146107c2578163a5ac5cd714610624578163da4382fa1461047b578163f1a91b1314610272575063fb1af52e146100b157600080fd5b604036600319011261026f5760249081356040519283918054808652602080960191855285852090855b81811061025b57505050826100f1910383610f7a565b81516100fc8161112d565b9261010a6040519485610f7a565b818452601f196101198361112d565b01855b81811061023a575050600480350190855b8381106101935787878760405191838301848452825180915260408401948060408360051b870101940192955b8287106101675785850386f35b909192938280610183600193603f198a8203018652885161101a565b960192019601959291909261015a565b6101a08183999899611145565b518852828752604088206101f86004604051926101bc84610f5e565b6001600160a01b03815460ff8116865260081c168b8501526001810154604085015260028101546060850152600381015460808501520161116f565b60a08201526102078288611145565b526102128187611145565b5060001981146102275760010196959661012d565b634e487b7160e01b885260116004528488fd5b9680969761024994939461157e565b8282890101520196959692919261011c565b8254845292870192600192830192016100db565b80fd5b905061026f57608036600319011261026f5767ffffffffffffffff90600435602435838111610477576102a9903690600401610fac565b93906044359182156104655760ff84541694604051936102c885610f18565b82881161045157604051602098601f19956102ea601f830188168c0184610f7a565b818352368282011161044d578185928c928386013783010152855287850190815260408501926064358452606086019460019384875289600052600389018b52604060002097519081519384116104395761034f846103498b5461106e565b8b6110bf565b8b92601f85116001146103d0575092600396949281926103a59a999795926103c5575b505060001982881b1c191690831b1786555b519085015551600284015551151591019060ff801983541691151516179055565b805460ff6103b4818316611106565b169060ff1916179055604051908152f35b015190503880610372565b8493929193168984528c8420935b8d82821061042557505092869491926103a59a9997938360039a98961061040d575b505050811b018655610384565b0151600019838a1b60f8161c19169055388080610400565b8385015186559488019493840193016103de565b634e487b7160e01b81526041600452602490fd5b8480fd5b634e487b7160e01b82526041600452602482fd5b60405163907adecd60e01b8152600490fd5b8280fd5b905061026f5760a036600319011261026f576064359060443560043560ff8416840361061f5760843593841561060d576104b69033906116d2565b90600481019082855260209180835260408620916001830154156105fb5784866104e39260243590611454565b95909660038401928354808b10156000146105f4575b6040519063a9059cbb60e01b82523360048301526024820152868160448186305af180156105e9576105b2575b50835460809a9080821061057257505091610551604083610556958a6002999a9b96528a5220611302565b611364565b5054910154915b60405194855284015260408301526060820152f35b92509650506105aa91506002869401928354906105a361059b8461059689866112c2565b6112d5565b9889946112f5565b90556112f5565b90559061055d565b8681813d83116105e2575b6105c78183610f7a565b810103126104775751801515036105de5738610526565b5080fd5b503d6105bd565b6040513d85823e3d90fd5b50896104f9565b604051631a00354f60e01b8152600490fd5b6040516310eb483f60e21b8152600490fd5b600080fd5b905061026f5760c036600319011261026f5760043590610642610f9c565b9167ffffffffffffffff6044358181116107be57610664903690600401610fac565b90946064359260a4359485151586036107ba5784156104655760ff808254169316928310156107a85760030192826000526020978489526040600020928211610794576106bb826106b5855461106e565b856110bf565b8790601f8311600114610729579180899a949260039897969461071b9b9261071e575b50508160011b9160001990891b1c19161790555b6000525260406000209060018201556084356002820155019060ff801983541691151516179055565b80f35b0135905038806106de565b83895289892091601f1984168a5b81811061077d575092600192859260039a99989661071b9d9e989610610765575b505050811b0190556106f2565b0135600019838b1b60f8161c19169055388080610758565b91938c600181928787013581550195019201610737565b634e487b7160e01b88526041600452602488fd5b6040516364e2dd7960e11b8152600490fd5b8680fd5b8380fd5b6020833660031901821361026f5760043560ff9283825416936107e48561112d565b926107f26040519485610f7a565b858452601f196108018761112d565b0183865b82811061091157505050846003809201905b83811688811015610889579061087e8261088493600052848852604060002087876040519261084584610f18565b61084e8161116f565b845260018101548c8501526002810154604085015201541615156060820152610877828b611145565b5288611145565b50611106565b610817565b85888860405191838301848452825180915260408401948060408360051b870101940192955b8287106108bc5785850386f35b909192938280600192603f198982030185528751906108e382516080808452830190610fda565b91838101518483015260408101516040830152606080910151151591015296019201960195929190926108af565b60405161091d81610f18565b8860608083528185840152816040840152820152828289010152018490610805565b82604036600319011261026f5760043560ff8116810361061f57602435906001600160a01b038216820361061f57602091610979916116d2565b604051908152f35b82606036600319011261026f57610996610f9c565b604435916001600160a01b0391828416840361061f576040610a16926109ca610a2f966004946109c461157e565b506116d2565b81528280350160205220604051936109e185610f5e565b815460ff8116865260081c1660208501526001810154604085015260028101546060850152600381015460808501520161116f565b60a082015260405191829160208352602083019061101a565b0390f35b82606036600319011261026f576040610a536044356024356004356115b3565b82519182526020820152f35b905061026f57608036600319011261026f576040610a53606435604435602435600435611454565b905061026f5761012036600319011261026f57606036602319011261026f5760e060405260243560805260443560a05260643560c05260c43560ff8116900361026f5760e43567ffffffffffffffff81116105de57610aea903690600401610fac565b90918060ff600435541660ff60c4351610156107a8576101043515610f065760ff60c4351682526003600435016020526040822060405190610b2b82610f18565b610b348161116f565b82526001810154602083015260ff6003600283015492604085019384520154161580156060840152610ef457516040516327d5ff4960e11b8152608051600482015260a051602482015260c08051604483015262278d009092046064820152908160848173463D8eD1B594904f6b1E35d271eaff016b4c670b5af4908115610ee957906060918591610eca575b50015162278d0081029080820462278d001490151715610eb6576101043510610ea457610bf03360c4356116d2565b80845260048035810160209081526040808720949091015190516327d5ff4960e11b81526080519281019290925260a051602483015260c08051604484015262278d0090910460648301528160848173463D8eD1B594904f6b1E35d271eaff016b4c670b5af4908115610e9957610c77916060918791610e6a575b500151610104356112d5565b946001830191825415600014610e4e5783547fffffffffffffffffffffff0000000000000000000000000000000000000000001660c43560ff16173360081b74ffffffffffffffffffffffffffffffffffffffff0016178455610cdc9060a435611238565b508594735D571a3Ff0da5Db56d072Da9A5b29A9c8153953D803b156105de5760405163111f14fb60e21b81526084356004820152336024820152908290829060449082905af48015610e4357610e34575b50905b67ffffffffffffffff8111610451576004840191610d52826106b5855461106e565b80601f8311600114610dc657606099600296959493929083610dbb575b50508160011b916000199060031b1c19161790555b42905560038101610d99610104358254611213565b905501610da7848254611213565b905560405192835260208301526040820152f35b013590503880610d6f565b9083825260208220915b601f1984168110610e1c57509160019160609a60029796959483601f19811610610e02575b505050811b019055610d84565b0135600019600384901b60f8161c19169055388080610df5565b9091602060018192858e013581550193019101610dd0565b610e3d90610f4a565b38610d2d565b6040513d84823e3d90fd5b610e6291945060a435608435600435611454565b949093610d30565b610e8c915060c03d60c011610e92575b610e848183610f7a565b810190611682565b38610c6b565b503d610e7a565b6040513d87823e3d90fd5b60405163335ac97b60e01b8152600490fd5b634e487b7160e01b84526011600452602484fd5b610ee3915060c03d60c011610e9257610e848183610f7a565b38610bc1565b6040513d86823e3d90fd5b60405163feb7c32360e01b8152600490fd5b60405163323940cd60e21b8152600490fd5b6080810190811067ffffffffffffffff821117610f3457604052565b634e487b7160e01b600052604160045260246000fd5b67ffffffffffffffff8111610f3457604052565b60c0810190811067ffffffffffffffff821117610f3457604052565b90601f8019910116810190811067ffffffffffffffff821117610f3457604052565b6024359060ff8216820361061f57565b9181601f8401121561061f5782359167ffffffffffffffff831161061f576020838186019501011161061f57565b919082519283825260005b848110611006575050826000602080949584010152601f8019910116010190565b602081830181015184830182015201610fe5565b9060c060a061106b9360ff81511684526001600160a01b0360208201511660208501526040810151604085015260608101516060850152608081015160808501520151918160a08201520190610fda565b90565b90600182811c9216801561109e575b602083101461108857565b634e487b7160e01b600052602260045260246000fd5b91607f169161107d565b8181106110b3575050565b600081556001016110a8565b9190601f81116110ce57505050565b6110fa926000526020600020906020601f840160051c830193106110fc575b601f0160051c01906110a8565b565b90915081906110ed565b60ff1660ff81146111175760010190565b634e487b7160e01b600052601160045260246000fd5b67ffffffffffffffff8111610f345760051b60200190565b80518210156111595760209160051b010190565b634e487b7160e01b600052603260045260246000fd5b90604051918260008254926111838461106e565b9081845260019485811690816000146111f057506001146111ad575b50506110fa92500383610f7a565b9093915060005260209081600020936000915b8183106111d85750506110fa9350820101388061119f565b855488840185015294850194879450918301916111c0565b9150506110fa94506020925060ff191682840152151560051b820101388061119f565b9190820180921161111757565b80548210156111595760005260206000200190600090565b919060018301600090828252806020526040822054156000146112bc57845494680100000000000000008610156112a85783611298611281886001604098999a01855584611220565b819391549060031b91821b91600019901b19161790565b9055549382526020522055600190565b634e487b7160e01b83526041600452602483fd5b50925050565b8181029291811591840414171561111757565b81156112df570490565b634e487b7160e01b600052601260045260246000fd5b9190820391821161111757565b600460009182815582600182015582600282015582600382015501611327815461106e565b8061133157505050565b82601f821160011461134257505055565b9091808252611360601f60208420940160051c8401600185016110a8565b5555565b9060018201906000928184528260205260408420549081151560001461144d576000199180830181811161143957825490848201918211611425578181036113f0575b505050805480156113dc578201916113bf8383611220565b909182549160031b1b191690555582526020526040812055600190565b634e487b7160e01b86526031600452602486fd5b6114106114006112819386611220565b90549060031b1c92839286611220565b905586528460205260408620553880806113a7565b634e487b7160e01b88526011600452602488fd5b634e487b7160e01b87526011600452602487fd5b5050505090565b939290916004850160008381528160205260408120946001860195865498891561157157611484908742916115b3565b999097881561156357908a9160028401916114a24291845490611213565b11611541575050506001600160a01b03735D571a3Ff0da5Db56d072Da9A5b29A9c8153953D915460081c1691813b156107be57604051637e0c44c560e01b815260048101919091526001600160a01b039290921660248301528290829060449082905af48015610e4357926105519260409261152d979695611532575b509085825260205220611302565b509190565b61153b90610f4a565b3861151f565b9350955095509150600392504290550161155c8482546112f5565b9055559190565b505050509550505050508190565b5050509550505050508190565b6040519061158b82610f5e565b606060a083600081526000602082015260006040820152600083820152600060808201520152565b600490939291936000948552016020526040832092604051916115d583610f5e565b6001600160a01b03855460ff8116855260081c1660208401526001850154604084019081526002860154936060810194855260a0611621600460038a015499608085019a8b520161116f565b9101525190811561167957818110611679579061163d916112f5565b908251908183101561166f57508161165c61166b9493611663936112f5565b95516112c2565b9051906112d5565b9190565b9492505050519190565b50509250508190565b908160c091031261061f5760a06040519161169c83610f5e565b8051835260208101516020840152604081015160408401526060810151606084015260808101516080840152015160a082015290565b906001600160a01b036040519160ff6020840194168452166040820152604081526060810181811067ffffffffffffffff821117610f34576040525190209056fea264697066735822122011834a1801bc1d7d5b27461876b6f1f6acec9aa248b2ab8641bc85d0b3bd407c64736f6c63430008140033",
  "deployedBytecode": "0x6080604052307f000000000000000000000000000000000000000000000000000000000000000014600436101561003557600080fd5b600090813560e01c9081633474241b14610a8757816362195e9f14610a5f5781636555463a14610a335781637060440414610981578163844899f11461093f5781638c48d332146107c2578163a5ac5cd714610624578163da4382fa1461047b578163f1a91b1314610272575063fb1af52e146100b157600080fd5b604036600319011261026f5760249081356040519283918054808652602080960191855285852090855b81811061025b57505050826100f1910383610f7a565b81516100fc8161112d565b9261010a6040519485610f7a565b818452601f196101198361112d565b01855b81811061023a575050600480350190855b8381106101935787878760405191838301848452825180915260408401948060408360051b870101940192955b8287106101675785850386f35b909192938280610183600193603f198a8203018652885161101a565b960192019601959291909261015a565b6101a08183999899611145565b518852828752604088206101f86004604051926101bc84610f5e565b6001600160a01b03815460ff8116865260081c168b8501526001810154604085015260028101546060850152600381015460808501520161116f565b60a08201526102078288611145565b526102128187611145565b5060001981146102275760010196959661012d565b634e487b7160e01b885260116004528488fd5b9680969761024994939461157e565b8282890101520196959692919261011c565b8254845292870192600192830192016100db565b80fd5b905061026f57608036600319011261026f5767ffffffffffffffff90600435602435838111610477576102a9903690600401610fac565b93906044359182156104655760ff84541694604051936102c885610f18565b82881161045157604051602098601f19956102ea601f830188168c0184610f7a565b818352368282011161044d578185928c928386013783010152855287850190815260408501926064358452606086019460019384875289600052600389018b52604060002097519081519384116104395761034f846103498b5461106e565b8b6110bf565b8b92601f85116001146103d0575092600396949281926103a59a999795926103c5575b505060001982881b1c191690831b1786555b519085015551600284015551151591019060ff801983541691151516179055565b805460ff6103b4818316611106565b169060ff1916179055604051908152f35b015190503880610372565b8493929193168984528c8420935b8d82821061042557505092869491926103a59a9997938360039a98961061040d575b505050811b018655610384565b0151600019838a1b60f8161c19169055388080610400565b8385015186559488019493840193016103de565b634e487b7160e01b81526041600452602490fd5b8480fd5b634e487b7160e01b82526041600452602482fd5b60405163907adecd60e01b8152600490fd5b8280fd5b905061026f5760a036600319011261026f576064359060443560043560ff8416840361061f5760843593841561060d576104b69033906116d2565b90600481019082855260209180835260408620916001830154156105fb5784866104e39260243590611454565b95909660038401928354808b10156000146105f4575b6040519063a9059cbb60e01b82523360048301526024820152868160448186305af180156105e9576105b2575b50835460809a9080821061057257505091610551604083610556958a6002999a9b96528a5220611302565b611364565b5054910154915b60405194855284015260408301526060820152f35b92509650506105aa91506002869401928354906105a361059b8461059689866112c2565b6112d5565b9889946112f5565b90556112f5565b90559061055d565b8681813d83116105e2575b6105c78183610f7a565b810103126104775751801515036105de5738610526565b5080fd5b503d6105bd565b6040513d85823e3d90fd5b50896104f9565b604051631a00354f60e01b8152600490fd5b6040516310eb483f60e21b8152600490fd5b600080fd5b905061026f5760c036600319011261026f5760043590610642610f9c565b9167ffffffffffffffff6044358181116107be57610664903690600401610fac565b90946064359260a4359485151586036107ba5784156104655760ff808254169316928310156107a85760030192826000526020978489526040600020928211610794576106bb826106b5855461106e565b856110bf565b8790601f8311600114610729579180899a949260039897969461071b9b9261071e575b50508160011b9160001990891b1c19161790555b6000525260406000209060018201556084356002820155019060ff801983541691151516179055565b80f35b0135905038806106de565b83895289892091601f1984168a5b81811061077d575092600192859260039a99989661071b9d9e989610610765575b505050811b0190556106f2565b0135600019838b1b60f8161c19169055388080610758565b91938c600181928787013581550195019201610737565b634e487b7160e01b88526041600452602488fd5b6040516364e2dd7960e11b8152600490fd5b8680fd5b8380fd5b6020833660031901821361026f5760043560ff9283825416936107e48561112d565b926107f26040519485610f7a565b858452601f196108018761112d565b0183865b82811061091157505050846003809201905b83811688811015610889579061087e8261088493600052848852604060002087876040519261084584610f18565b61084e8161116f565b845260018101548c8501526002810154604085015201541615156060820152610877828b611145565b5288611145565b50611106565b610817565b85888860405191838301848452825180915260408401948060408360051b870101940192955b8287106108bc5785850386f35b909192938280600192603f198982030185528751906108e382516080808452830190610fda565b91838101518483015260408101516040830152606080910151151591015296019201960195929190926108af565b60405161091d81610f18565b8860608083528185840152816040840152820152828289010152018490610805565b82604036600319011261026f5760043560ff8116810361061f57602435906001600160a01b038216820361061f57602091610979916116d2565b604051908152f35b82606036600319011261026f57610996610f9c565b604435916001600160a01b0391828416840361061f576040610a16926109ca610a2f966004946109c461157e565b506116d2565b81528280350160205220604051936109e185610f5e565b815460ff8116865260081c1660208501526001810154604085015260028101546060850152600381015460808501520161116f565b60a082015260405191829160208352602083019061101a565b0390f35b82606036600319011261026f576040610a536044356024356004356115b3565b82519182526020820152f35b905061026f57608036600319011261026f576040610a53606435604435602435600435611454565b905061026f5761012036600319011261026f57606036602319011261026f5760e060405260243560805260443560a05260643560c05260c43560ff8116900361026f5760e43567ffffffffffffffff81116105de57610aea903690600401610fac565b90918060ff600435541660ff60c4351610156107a8576101043515610f065760ff60c4351682526003600435016020526040822060405190610b2b82610f18565b610b348161116f565b82526001810154602083015260ff6003600283015492604085019384520154161580156060840152610ef457516040516327d5ff4960e11b8152608051600482015260a051602482015260c08051604483015262278d009092046064820152908160848173__$ff3a2bd404286ed9d5b3b36a2bfde83b52$__5af4908115610ee957906060918591610eca575b50015162278d0081029080820462278d001490151715610eb6576101043510610ea457610bf03360c4356116d2565b80845260048035810160209081526040808720949091015190516327d5ff4960e11b81526080519281019290925260a051602483015260c08051604484015262278d0090910460648301528160848173__$ff3a2bd404286ed9d5b3b36a2bfde83b52$__5af4908115610e9957610c77916060918791610e6a575b500151610104356112d5565b946001830191825415600014610e4e5783547fffffffffffffffffffffff0000000000000000000000000000000000000000001660c43560ff16173360081b74ffffffffffffffffffffffffffffffffffffffff0016178455610cdc9060a435611238565b50859473__$d26c4b6c55cbf068c0037866f9978a3889$__803b156105de5760405163111f14fb60e21b81526084356004820152336024820152908290829060449082905af48015610e4357610e34575b50905b67ffffffffffffffff8111610451576004840191610d52826106b5855461106e565b80601f8311600114610dc657606099600296959493929083610dbb575b50508160011b916000199060031b1c19161790555b42905560038101610d99610104358254611213565b905501610da7848254611213565b905560405192835260208301526040820152f35b013590503880610d6f565b9083825260208220915b601f1984168110610e1c57509160019160609a60029796959483601f19811610610e02575b505050811b019055610d84565b0135600019600384901b60f8161c19169055388080610df5565b9091602060018192858e013581550193019101610dd0565b610e3d90610f4a565b38610d2d565b6040513d84823e3d90fd5b610e6291945060a435608435600435611454565b949093610d30565b610e8c915060c03d60c011610e92575b610e848183610f7a565b810190611682565b38610c6b565b503d610e7a565b6040513d87823e3d90fd5b60405163335ac97b60e01b8152600490fd5b634e487b7160e01b84526011600452602484fd5b610ee3915060c03d60c011610e9257610e848183610f7a565b38610bc1565b6040513d86823e3d90fd5b60405163feb7c32360e01b8152600490fd5b60405163323940cd60e21b8152600490fd5b6080810190811067ffffffffffffffff821117610f3457604052565b634e487b7160e01b600052604160045260246000fd5b67ffffffffffffffff8111610f3457604052565b60c0810190811067ffffffffffffffff821117610f3457604052565b90601f8019910116810190811067ffffffffffffffff821117610f3457604052565b6024359060ff8216820361061f57565b9181601f8401121561061f5782359167ffffffffffffffff831161061f576020838186019501011161061f57565b919082519283825260005b848110611006575050826000602080949584010152601f8019910116010190565b602081830181015184830182015201610fe5565b9060c060a061106b9360ff81511684526001600160a01b0360208201511660208501526040810151604085015260608101516060850152608081015160808501520151918160a08201520190610fda565b90565b90600182811c9216801561109e575b602083101461108857565b634e487b7160e01b600052602260045260246000fd5b91607f169161107d565b8181106110b3575050565b600081556001016110a8565b9190601f81116110ce57505050565b6110fa926000526020600020906020601f840160051c830193106110fc575b601f0160051c01906110a8565b565b90915081906110ed565b60ff1660ff81146111175760010190565b634e487b7160e01b600052601160045260246000fd5b67ffffffffffffffff8111610f345760051b60200190565b80518210156111595760209160051b010190565b634e487b7160e01b600052603260045260246000fd5b90604051918260008254926111838461106e565b9081845260019485811690816000146111f057506001146111ad575b50506110fa92500383610f7a565b9093915060005260209081600020936000915b8183106111d85750506110fa9350820101388061119f565b855488840185015294850194879450918301916111c0565b9150506110fa94506020925060ff191682840152151560051b820101388061119f565b9190820180921161111757565b80548210156111595760005260206000200190600090565b919060018301600090828252806020526040822054156000146112bc57845494680100000000000000008610156112a85783611298611281886001604098999a01855584611220565b819391549060031b91821b91600019901b19161790565b9055549382526020522055600190565b634e487b7160e01b83526041600452602483fd5b50925050565b8181029291811591840414171561111757565b81156112df570490565b634e487b7160e01b600052601260045260246000fd5b9190820391821161111757565b600460009182815582600182015582600282015582600382015501611327815461106e565b8061133157505050565b82601f821160011461134257505055565b9091808252611360601f60208420940160051c8401600185016110a8565b5555565b9060018201906000928184528260205260408420549081151560001461144d576000199180830181811161143957825490848201918211611425578181036113f0575b505050805480156113dc578201916113bf8383611220565b909182549160031b1b191690555582526020526040812055600190565b634e487b7160e01b86526031600452602486fd5b6114106114006112819386611220565b90549060031b1c92839286611220565b905586528460205260408620553880806113a7565b634e487b7160e01b88526011600452602488fd5b634e487b7160e01b87526011600452602487fd5b5050505090565b939290916004850160008381528160205260408120946001860195865498891561157157611484908742916115b3565b999097881561156357908a9160028401916114a24291845490611213565b11611541575050506001600160a01b0373__$d26c4b6c55cbf068c0037866f9978a3889$__915460081c1691813b156107be57604051637e0c44c560e01b815260048101919091526001600160a01b039290921660248301528290829060449082905af48015610e4357926105519260409261152d979695611532575b509085825260205220611302565b509190565b61153b90610f4a565b3861151f565b9350955095509150600392504290550161155c8482546112f5565b9055559190565b505050509550505050508190565b5050509550505050508190565b6040519061158b82610f5e565b606060a083600081526000602082015260006040820152600083820152600060808201520152565b600490939291936000948552016020526040832092604051916115d583610f5e565b6001600160a01b03855460ff8116855260081c1660208401526001850154604084019081526002860154936060810194855260a0611621600460038a015499608085019a8b520161116f565b9101525190811561167957818110611679579061163d916112f5565b908251908183101561166f57508161165c61166b9493611663936112f5565b95516112c2565b9051906112d5565b9190565b9492505050519190565b50509250508190565b908160c091031261061f5760a06040519161169c83610f5e565b8051835260208101516020840152604081015160408401526060810151606084015260808101516080840152015160a082015290565b906001600160a01b036040519160ff6020840194168452166040820152604081526060810181811067ffffffffffffffff821117610f34576040525190209056fea264697066735822122011834a1801bc1d7d5b27461876b6f1f6acec9aa248b2ab8641bc85d0b3bd407c64736f6c63430008140033",
  "libraries": {
    "Curation": "0x5D571a3Ff0da5Db56d072Da9A5b29A9c8153953D",
    "Token": "0x463D8eD1B594904f6b1E35d271eaff016b4c670b"
  },
  "devdoc": {
    "kind": "dev",
    "methods": {},
    "version": 1
  },
  "userdoc": {
    "errors": {
      "AmountIsZero()": [
        {
          "notice": "common "
        }
      ],
      "PlanNotExisted()": [
        {
          "notice": "Member "
        }
      ]
    },
    "kind": "user",
    "methods": {},
    "version": 1
  },
  "storageLayout": {
    "storage": [],
    "types": null
  }
}