{
  "address": "0xcfe9aeFFAf1d7eD952Fc6a8dC50d4189F20F1306",
  "abi": [
    {
      "anonymous": false,
      "inputs": [
        {
          "indexed": false,
          "internalType": "address",
          "name": "user",
          "type": "address"
        },
        {
          "indexed": false,
          "internalType": "uint256",
          "name": "amount",
          "type": "uint256"
        }
      ],
      "name": "Claimed",
      "type": "event"
    },
    {
      "anonymous": false,
      "inputs": [
        {
          "indexed": true,
          "internalType": "address",
          "name": "account",
          "type": "address"
        }
      ],
      "name": "ContributorAdded",
      "type": "event"
    },
    {
      "anonymous": false,
      "inputs": [
        {
          "indexed": false,
          "internalType": "uint256",
          "name": "accumulated",
          "type": "uint256"
        }
      ],
      "name": "RewardsPerShareUpdated",
      "type": "event"
    },
    {
      "anonymous": false,
      "inputs": [
        {
          "indexed": true,
          "internalType": "address",
          "name": "from",
          "type": "address"
        },
        {
          "indexed": true,
          "internalType": "address",
          "name": "to",
          "type": "address"
        },
        {
          "indexed": false,
          "internalType": "uint256",
          "name": "amount",
          "type": "uint256"
        }
      ],
      "name": "SharesTransferred",
      "type": "event"
    },
    {
      "anonymous": false,
      "inputs": [
        {
          "indexed": true,
          "internalType": "address",
          "name": "payer",
          "type": "address"
        },
        {
          "indexed": true,
          "internalType": "address",
          "name": "beneficiary",
          "type": "address"
        },
        {
          "indexed": false,
          "internalType": "uint256",
          "name": "start",
          "type": "uint256"
        },
        {
          "indexed": false,
          "internalType": "uint256",
          "name": "duration",
          "type": "uint256"
        },
        {
          "indexed": false,
          "internalType": "uint256",
          "name": "allocation",
          "type": "uint256"
        }
      ],
      "name": "VestingAdded",
      "type": "event"
    },
    {
      "anonymous": false,
      "inputs": [
        {
          "indexed": true,
          "internalType": "address",
          "name": "payer",
          "type": "address"
        },
        {
          "indexed": true,
          "internalType": "address",
          "name": "beneficiary",
          "type": "address"
        },
        {
          "indexed": false,
          "internalType": "uint256",
          "name": "amount",
          "type": "uint256"
        }
      ],
      "name": "VestingReleased",
      "type": "event"
    },
    {
      "inputs": [],
      "name": "MAX_SHARES_SUPPLY",
      "outputs": [
        {
          "internalType": "uint256",
          "name": "",
          "type": "uint256"
        }
      ],
      "stateMutability": "view",
      "type": "function"
    },
    {
      "inputs": [],
      "name": "PER_SHARE_PRECISION",
      "outputs": [
        {
          "internalType": "uint256",
          "name": "",
          "type": "uint256"
        }
      ],
      "stateMutability": "view",
      "type": "function"
    }
  ],
  "transactionHash": "0x2478f6d31a47783ab4ea8e8387d48ddb2fa4e20fb362bb3b95733d83e3c740ec",
  "args": [],
  "numDeployments": 1,
  "solcInputHash": "72516979898e6d2b73d8759ca3b73e86",
  "bytecode": "0x6113fd61003a600b82828239805160001a60731461002d57634e487b7160e01b600052600060045260246000fd5b30600052607381538281f3fe73000000000000000000000000000000000000000030146080604052600436106100e95760003560e01c8063819052a0116100965780639dc96a3a116100705780639dc96a3a14610224578063a9479ab114610237578063ed6de06014610257578063f351007e1461026a57600080fd5b8063819052a0146101da57806385d0fdce146101fa5780638cc890da1461020457600080fd5b80635fbab1e5116100c75780635fbab1e51461015257806377e7a4e71461019a578063816f8cfa146101ba57600080fd5b80632137f0ba146100ee5780632ce9a45f1461012157806333719aaa14610143575b600080fd5b8180156100fa57600080fd5b5061010e610109366004611115565b61028a565b6040519081526020015b60405180910390f35b81801561012d57600080fd5b5061014161013c366004611115565b610374565b005b61010e670de0b6b3a764000081565b61016561016036600461114a565b610381565b604051610118919081518152602080830151908201526040808301519082015260609182015115159181019190915260800190565b6101ad6101a8366004611115565b610406565b6040516101189190611176565b8180156101c657600080fd5b506101416101d5366004611115565b610547565b8180156101e657600080fd5b506101416101f53660046111ce565b61073e565b61010e620f424081565b610217610212366004611115565b6109a0565b6040516101189190611214565b61010e610232366004611261565b610a06565b81801561024357600080fd5b5061014161025236600461114a565b610a94565b61010e61026536600461114a565b610bd3565b81801561027657600080fd5b50610141610285366004611261565b610c5d565b60003361029683610e51565b506102a18382610eb4565b6001600160a01b038116600090815260038401602052604080822060010180549290555163a9059cbb60e01b815233600482015260248101829052309063a9059cbb906044016020604051808303816000875af1158015610306573d6000803e3d6000fd5b505050506040513d601f19601f8201168201806040525081019061032a9190611296565b50604080516001600160a01b0384168152602081018390527fd8138f8a3f377c5259ca548e70e4c2de94f129f5a11036a15b69513cba2b426a910160405180910390a19392505050565b61037d81610e51565b5050565b6103ae60405180608001604052806000815260200160008152602001600081526020016000151581525090565b506001600160a01b03811660009081526003808401602090815260409283902083516080810185528154815260018201549281019290925260028101549382019390935291015460ff16151560608201525b92915050565b600581015460609060009067ffffffffffffffff811115610429576104296112b8565b60405190808252806020026020018201604052801561046e57816020015b60408051808201909152600080825260208201528152602001906001900390816104475790505b50905060005b60058401548110156105405760405180604001604052808560050183815481106104a0576104a06112ce565b9060005260206000200160009054906101000a90046001600160a01b03166001600160a01b031681526020018560030160008760050185815481106104e7576104e76112ce565b60009182526020808320909101546001600160a01b0316835282019290925260400190205490528251839083908110610522576105226112ce565b60200260200101819052508080610538906112fa565b915050610474565b5092915050565b336000908152600482016020526040812060018101549091036105b15760405162461bcd60e51b815260206004820152601a60248201527f42656e656669636961727920646f6573206e6f7420657869737400000000000060448201526064015b60405180910390fd5b600081600401546105c3843342610a06565b6105cd9190611313565b90506000811161061f5760405162461bcd60e51b815260206004820152601d60248201527f4e6f20736861726573206172652064756520666f722072656c6561736500000060448201526064016105a8565b808260040160008282546106339190611326565b9091555050815460405182815233916001600160a01b0316907fc800dba4e4ee938f9d72daf6b9a44b6e148a9dabe80a5e295e585cca791a54499060200160405180910390a381546001600160a01b0316600090815260038401602052604090205481106106e35760405162461bcd60e51b815260206004820152601360248201527f496e73756666696369656e74207368617265730000000000000000000000000060448201526064016105a8565b81546001600160a01b031660009081526003840160205260408120805483929061070e908490611313565b909155505033600090815260038401602052604081208054839290610734908490611326565b9091555050505050565b6001600160a01b0384166107945760405162461bcd60e51b815260206004820152601b60248201527f42656e6566696369617279206973207a65726f2061646472657373000000000060448201526064016105a8565b6001600160a01b0384166000908152600486016020526040902060010154156107ff5760405162461bcd60e51b815260206004820152601a60248201527f42656e656669636961727920616c72656164792065786973747300000000000060448201526064016105a8565b6001600160a01b038416600090815260038087016020526040909120015460ff166108335761082e8585610a94565b61083e565b61083c85610e51565b505b6040518060a00160405280336001600160a01b031681526020018481526020018381526020018281526020016000815250856004016000866001600160a01b03166001600160a01b0316815260200190815260200160002060008201518160000160006101000a8154816001600160a01b0302191690836001600160a01b031602179055506020820151816001015560408201518160020155606082015181600301556080820151816004015590505084600601849080600181540180825580915050600190039060005260206000200160009091909190916101000a8154816001600160a01b0302191690836001600160a01b03160217905550836001600160a01b0316336001600160a01b03167f61838b56b2b866547d8f639aa6390ca56e72d74b3acf6d32ced3594ca0cec541858585604051610991939291909283526020830191909152604082015260600190565b60405180910390a35050505050565b6060816006018054806020026020016040519081016040528092919081815260200182805480156109fa57602002820191906000526020600020905b81546001600160a01b031681526001909101906020018083116109dc575b50505050509050919050565b6001600160a01b038216600090815260048401602052604081206001810154831015610a36576000915050610a8d565b80600201548160010154610a4a9190611326565b831115610a5c57600301549050610a8d565b60028101546001820154610a709085611313565b8260030154610a7f9190611339565b610a899190611350565b9150505b9392505050565b6001600160a01b038116600090815260038084016020526040909120015460ff1615610b025760405162461bcd60e51b815260206004820152601660248201527f436f6e7472696275746f7220697320657869737465640000000000000000000060448201526064016105a8565b610b0b82610e51565b5060408051608081018252600080825260208083018281528385018381526001606086018181526001600160a01b03891680875260038b8101875289882098518955945188840155925160028801555195909201805460ff191695151595909517909455600587018054918201815583529082200180547fffffffffffffffffffffffff00000000000000000000000000000000000000001683179055915190917f07681ffd9d424587412481b41d2ee582bb7bca757f626b0477051f302947027291a25050565b6001600160a01b03811660009081526003808401602090815260408084208151608081018352815481526001820154938101939093526002810154918301919091529091015460ff161515606082015281610c2d85610f94565b90506000610c448360000151846040015184611062565b8360200151610c539190611326565b9695505050505050565b33600090815260038085016020526040909120015460ff16610cc15760405162461bcd60e51b815260206004820152601b60248201527f53656e646572206973206e6f74206120636f6e7472696275746f72000000000060448201526064016105a8565b336000908152600384016020526040902054811115610d225760405162461bcd60e51b815260206004820152601360248201527f496e73756666696369656e74207368617265730000000000000000000000000060448201526064016105a8565b6001600160a01b038216610d785760405162461bcd60e51b815260206004820152601960248201527f496e76616c696420726563697069656e7420616464726573730000000000000060448201526064016105a8565b6001600160a01b038216600090815260038085016020526040909120015460ff16610dac57610da78383610a94565b610db7565b610db583610e51565b505b33600090815260038401602052604081208054839290610dd8908490611313565b90915550506001600160a01b038216600090815260038401602052604081208054839290610e07908490611326565b90915550506040518181526001600160a01b0383169033907f99c01cd4f8275976ef33d24514b1694c8a9d5730d92e26996834343e09778e999060200160405180910390a3505050565b600080610e5d83610f94565b60028401549091508114801590610e7357600084555b600284018290556040518281527fee6950fa914047f22a73cfd1d28ca7684f4ab6fd927d35598326a759e3ea6dde9060200160405180910390a15092915050565b6001600160a01b03811660009081526003808401602090815260409283902083516080810185528154815260018201549281019290925260028082015494830185905292015460ff161515606082015290840154909103610f1457505050565b610f2b816000015182604001518560020154611062565b81602001818151610f3c9190611326565b90525060028381015460408381019182526001600160a01b0394909416600090815260039586016020908152949020835181559383015160018501555190830155606001519101805460ff1916911515919091179055565b6000610fd96040518060400160405280601681526020017f3d3d3d3d3d3d73656c662e746f74616c53686172653a000000000000000000008152508360010154611093565b8160010154600003610fed57506002015490565b6110306040518060400160405280601481526020017f3d3d3d3d3d3d3d3d73656c662e64616f4665653a0000000000000000000000008152508360000154611093565b6001820154825461104990670de0b6b3a7640000611339565b6110539190611350565b82600201546104009190611326565b6000670de0b6b3a76400006110778484611313565b6110819086611339565b61108b9190611350565b949350505050565b61037d82826040516024016110a9929190611372565b60408051601f198184030181529190526020810180517bffffffffffffffffffffffffffffffffffffffffffffffffffffffff16632d839cb360e21b1790526110f1816110f4565b50565b60006a636f6e736f6c652e6c6f679050600080835160208501845afa505050565b60006020828403121561112757600080fd5b5035919050565b80356001600160a01b038116811461114557600080fd5b919050565b6000806040838503121561115d57600080fd5b8235915061116d6020840161112e565b90509250929050565b602080825282518282018190526000919060409081850190868401855b828110156111c157815180516001600160a01b03168552860151868501529284019290850190600101611193565b5091979650505050505050565b600080600080600060a086880312156111e657600080fd5b853594506111f66020870161112e565b94979496505050506040830135926060810135926080909101359150565b6020808252825182820181905260009190848201906040850190845b818110156112555783516001600160a01b031683529284019291840191600101611230565b50909695505050505050565b60008060006060848603121561127657600080fd5b833592506112866020850161112e565b9150604084013590509250925092565b6000602082840312156112a857600080fd5b81518015158114610a8d57600080fd5b634e487b7160e01b600052604160045260246000fd5b634e487b7160e01b600052603260045260246000fd5b634e487b7160e01b600052601160045260246000fd5b60006001820161130c5761130c6112e4565b5060010190565b81810381811115610400576104006112e4565b80820180821115610400576104006112e4565b8082028115828204841417610400576104006112e4565b60008261136d57634e487b7160e01b600052601260045260246000fd5b500490565b604081526000835180604084015260005b818110156113a05760208187018101516060868401015201611383565b506000606082850101526060601f19601f830116840101915050826020830152939250505056fea26469706673582212202a86eb9248adc282a45c0259a53c6321e5cfed3fdec5608afca75a3286545ffd64736f6c63430008140033",
  "libraries": {},
  "devdoc": {
    "kind": "dev",
    "methods": {},
    "version": 1
  },
  "userdoc": {
    "kind": "user",
    "methods": {},
    "version": 1
  },
  "storageLayout": {
    "storage": [],
    "types": null
  }
}