{
  "address": "0xbCD756d2CdEd1857C245b1941bF3f6de0150224e",
  "abi": [
    {
      "anonymous": false,
      "inputs": [
        {
          "indexed": false,
          "internalType": "address",
          "name": "user",
          "type": "address"
        },
        {
          "indexed": false,
          "internalType": "uint256",
          "name": "amount",
          "type": "uint256"
        }
      ],
      "name": "Claimed",
      "type": "event"
    },
    {
      "anonymous": false,
      "inputs": [
        {
          "indexed": false,
          "internalType": "uint256",
          "name": "accumulated",
          "type": "uint256"
        }
      ],
      "name": "RewardsPerShareUpdated",
      "type": "event"
    },
    {
      "inputs": [],
      "name": "PER_SHARE_PRECISION",
      "outputs": [
        {
          "internalType": "uint256",
          "name": "",
          "type": "uint256"
        }
      ],
      "stateMutability": "view",
      "type": "function"
    }
  ],
  "transactionHash": "0xe5e2ae609414d76721200b89f989067b1d9b739f0d526a91e834f6f7107dfd55",
  "args": [],
  "numDeployments": 1,
  "solcInputHash": "80b2210b7341131a2779e9b82518c024",
  "bytecode": "0x610ba061003a600b82828239805160001a60731461002d57634e487b7160e01b600052600060045260246000fd5b30600052607381538281f3fe73000000000000000000000000000000000000000030146080604052600436106100875760003560e01c806333719aaa1161006557806333719aaa146101015780635fade9031461011057806365b0282714610123578063ab98b4d91461014357600080fd5b80632137f0ba1461008c5780632c8a2ffd146100bf5780632ce9a45f146100e1575b600080fd5b81801561009857600080fd5b506100ac6100a73660046108dd565b610164565b6040519081526020015b60405180910390f35b8180156100cb57600080fd5b506100df6100da3660046108f6565b6101e6565b005b8180156100ed57600080fd5b506100df6100fc3660046108dd565b61040e565b6100ac670de0b6b3a764000081565b6100ac61011e366004610991565b61041b565b81801561012f57600080fd5b506100df61013e3660046109bd565b610494565b6101566101513660046108dd565b610510565b6040516100b69291906109f5565b600033610171838261069c565b6001600160a01b03811660009081526003840160205260408120600101805491905561019d8282610759565b604080516001600160a01b0384168152602081018390527fd8138f8a3f377c5259ca548e70e4c2de94f129f5a11036a15b69513cba2b426a910160405180910390a19392505050565b6101ef83610801565b5060005b8181101561040857600083838381811061020f5761020f610a8e565b6102259260206040909202019081019150610aa4565b9050600084848481811061023b5761023b610a8e565b90506040020160200135905060006001600160a01b0316826001600160a01b0316036102ae5760405162461bcd60e51b815260206004820152600f60248201527f496e76616c69642061646472657373000000000000000000000000000000000060448201526064015b60405180910390fd5b600081116102fe5760405162461bcd60e51b815260206004820152601660248201527f5368617265206d75737420626520706f7369746976650000000000000000000060448201526064016102a5565b6001600160a01b038216600090815260038701602052604081205490036103a65760408051606081018252600080825260208083018281528385018381526001600160a01b03881680855260038d018452958420945185559051600180860191909155905160029094019390935560048a0180549384018155825290200180547fffffffffffffffffffffffff00000000000000000000000000000000000000001690911790555b6103b0868361069c565b6001600160a01b0382166000908152600387016020526040812082905581906103d98383610adc565b8860010160008282546103ec9190610adc565b909155505050505050808061040090610b02565b9150506101f3565b50505050565b61041781610801565b5050565b6001600160a01b0381166000908152600383016020908152604080832081516060810183528154815260018201549381019390935260020154908201528161046285610864565b9050600061047983600001518460400151846108ac565b83602001516104889190610aef565b93505050505b92915050565b61049d82610801565b506040518060600160405280826020013581526020016000815260200160008152508260030160008360000160208101906104d89190610aa4565b6001600160a01b0316815260208082019290925260409081016000208351815591830151600183015591909101516002909101555050565b6060806000836004018054905067ffffffffffffffff81111561053557610535610b1b565b60405190808252806020026020018201604052801561058a57816020015b61057760405180606001604052806000815260200160008152602001600081525090565b8152602001906001900390816105535790505b50905060005b6004850154811015610630578460030160008660040183815481106105b7576105b7610a8e565b60009182526020808320909101546001600160a01b0316835282810193909352604091820190208151606081018352815481526001820154938101939093526002015490820152825183908390811061061257610612610a8e565b6020026020010181905250808061062890610b02565b915050610590565b5083600401818180548060200260200160405190810160405280929190818152602001828054801561068b57602002820191906000526020600020905b81546001600160a01b0316815260019091019060200180831161066d575b505050505091509250925050915091565b6001600160a01b03811660009081526003830160209081526040918290208251606081018452815481526001820154928101929092526002908101549282018390528401549091036106ed57505050565b6107048160000151826040015185600201546108ac565b816020018181516107159190610aef565b90525060028084015460408084019182526001600160a01b039094166000908152600390950160209081529390942082518155929091015160018301559151910155565b6000826001600160a01b03168260405160006040518083038185875af1925050503d80600081146107a6576040519150601f19603f3d011682016040523d82523d6000602084013e6107ab565b606091505b50509050806107fc5760405162461bcd60e51b815260206004820152601360248201527f455448207472616e73666572206661696c65640000000000000000000000000060448201526064016102a5565b505050565b60008061080d83610864565b6002840154909150811480159061082357600084555b600284018290556040518281527fee6950fa914047f22a73cfd1d28ca7684f4ab6fd927d35598326a759e3ea6dde9060200160405180910390a15092915050565b6000816001015460000361087a57506002015490565b6001820154825461089390670de0b6b3a7640000610b31565b61089d9190610b48565b826002015461048e9190610aef565b6000670de0b6b3a76400006108c18484610adc565b6108cb9086610b31565b6108d59190610b48565b949350505050565b6000602082840312156108ef57600080fd5b5035919050565b60008060006040848603121561090b57600080fd5b83359250602084013567ffffffffffffffff8082111561092a57600080fd5b818601915086601f83011261093e57600080fd5b81358181111561094d57600080fd5b8760208260061b850101111561096257600080fd5b6020830194508093505050509250925092565b80356001600160a01b038116811461098c57600080fd5b919050565b600080604083850312156109a457600080fd5b823591506109b460208401610975565b90509250929050565b60008082840360608112156109d157600080fd5b833592506040601f19820112156109e757600080fd5b506020830190509250929050565b6040808252835182820181905260009190606090818501906020808901865b83811015610a395781516001600160a01b031685529382019390820190600101610a14565b5050868303818801528751808452888201938201925060005b81811015610a7f578451805185528381015184860152870151878501529382019392850192600101610a52565b50919998505050505050505050565b634e487b7160e01b600052603260045260246000fd5b600060208284031215610ab657600080fd5b610abf82610975565b9392505050565b634e487b7160e01b600052601160045260246000fd5b8181038181111561048e5761048e610ac6565b8082018082111561048e5761048e610ac6565b600060018201610b1457610b14610ac6565b5060010190565b634e487b7160e01b600052604160045260246000fd5b808202811582820484141761048e5761048e610ac6565b600082610b6557634e487b7160e01b600052601260045260246000fd5b50049056fea26469706673582212206d6e2376b3af08862a7b7d78f07244c01e27c2b714d23f77ec70bc13593665b064736f6c63430008140033",
  "libraries": {},
  "devdoc": {
    "kind": "dev",
    "methods": {},
    "version": 1
  },
  "userdoc": {
    "kind": "user",
    "methods": {},
    "version": 1
  },
  "storageLayout": {
    "storage": [],
    "types": null
  }
}