{
  "address": "0x6A96100F5e5231c3e838e1150eEF9255062895Ee",
  "abi": [
    {
      "inputs": [
        {
          "internalType": "address",
          "name": "defaultAdmin",
          "type": "address"
        }
      ],
      "stateMutability": "nonpayable",
      "type": "constructor"
    },
    {
      "inputs": [],
      "name": "AccessControlBadConfirmation",
      "type": "error"
    },
    {
      "inputs": [
        {
          "internalType": "address",
          "name": "account",
          "type": "address"
        },
        {
          "internalType": "bytes32",
          "name": "neededRole",
          "type": "bytes32"
        }
      ],
      "name": "AccessControlUnauthorizedAccount",
      "type": "error"
    },
    {
      "inputs": [],
      "name": "AppNotFound",
      "type": "error"
    },
    {
      "inputs": [],
      "name": "InsufficientPayment",
      "type": "error"
    },
    {
      "inputs": [],
      "name": "InvalidAppFeePercent",
      "type": "error"
    },
    {
      "inputs": [],
      "name": "InvalidAppId",
      "type": "error"
    },
    {
      "inputs": [],
      "name": "InvalidFeeReceiver",
      "type": "error"
    },
    {
      "inputs": [],
      "name": "OnlyCreator",
      "type": "error"
    },
    {
      "inputs": [],
      "name": "ReentrancyGuardReentrantCall",
      "type": "error"
    },
    {
      "anonymous": false,
      "inputs": [
        {
          "indexed": false,
          "internalType": "uint256",
          "name": "id",
          "type": "uint256"
        },
        {
          "indexed": true,
          "internalType": "address",
          "name": "creator",
          "type": "address"
        },
        {
          "indexed": false,
          "internalType": "string",
          "name": "uri",
          "type": "string"
        },
        {
          "indexed": false,
          "internalType": "address",
          "name": "feeReceiver",
          "type": "address"
        },
        {
          "indexed": false,
          "internalType": "uint256",
          "name": "feePercent",
          "type": "uint256"
        }
      ],
      "name": "AppCreated",
      "type": "event"
    },
    {
      "anonymous": false,
      "inputs": [
        {
          "indexed": false,
          "internalType": "uint256",
          "name": "id",
          "type": "uint256"
        },
        {
          "indexed": true,
          "internalType": "address",
          "name": "creator",
          "type": "address"
        },
        {
          "indexed": false,
          "internalType": "string",
          "name": "uri",
          "type": "string"
        },
        {
          "indexed": false,
          "internalType": "address",
          "name": "feeReceiver",
          "type": "address"
        },
        {
          "indexed": false,
          "internalType": "uint256",
          "name": "feePercent",
          "type": "uint256"
        }
      ],
      "name": "AppUpdated",
      "type": "event"
    },
    {
      "anonymous": false,
      "inputs": [
        {
          "indexed": false,
          "internalType": "address",
          "name": "receiver",
          "type": "address"
        }
      ],
      "name": "FeeReceiverUpdated",
      "type": "event"
    },
    {
      "anonymous": false,
      "inputs": [
        {
          "indexed": false,
          "internalType": "uint256",
          "name": "price",
          "type": "uint256"
        }
      ],
      "name": "PriceUpdated",
      "type": "event"
    },
    {
      "anonymous": false,
      "inputs": [
        {
          "indexed": true,
          "internalType": "bytes32",
          "name": "role",
          "type": "bytes32"
        },
        {
          "indexed": true,
          "internalType": "bytes32",
          "name": "previousAdminRole",
          "type": "bytes32"
        },
        {
          "indexed": true,
          "internalType": "bytes32",
          "name": "newAdminRole",
          "type": "bytes32"
        }
      ],
      "name": "RoleAdminChanged",
      "type": "event"
    },
    {
      "anonymous": false,
      "inputs": [
        {
          "indexed": true,
          "internalType": "bytes32",
          "name": "role",
          "type": "bytes32"
        },
        {
          "indexed": true,
          "internalType": "address",
          "name": "account",
          "type": "address"
        },
        {
          "indexed": true,
          "internalType": "address",
          "name": "sender",
          "type": "address"
        }
      ],
      "name": "RoleGranted",
      "type": "event"
    },
    {
      "anonymous": false,
      "inputs": [
        {
          "indexed": true,
          "internalType": "bytes32",
          "name": "role",
          "type": "bytes32"
        },
        {
          "indexed": true,
          "internalType": "address",
          "name": "account",
          "type": "address"
        },
        {
          "indexed": true,
          "internalType": "address",
          "name": "sender",
          "type": "address"
        }
      ],
      "name": "RoleRevoked",
      "type": "event"
    },
    {
      "anonymous": false,
      "inputs": [
        {
          "indexed": true,
          "internalType": "uint256",
          "name": "spaceId",
          "type": "uint256"
        },
        {
          "indexed": false,
          "internalType": "address",
          "name": "spaceAddress",
          "type": "address"
        },
        {
          "indexed": false,
          "internalType": "address",
          "name": "founder",
          "type": "address"
        },
        {
          "indexed": false,
          "internalType": "string",
          "name": "spaceName",
          "type": "string"
        },
        {
          "indexed": false,
          "internalType": "string",
          "name": "symbol",
          "type": "string"
        },
        {
          "indexed": false,
          "internalType": "string",
          "name": "uri",
          "type": "string"
        },
        {
          "indexed": false,
          "internalType": "uint256",
          "name": "preBuyEthAmount",
          "type": "uint256"
        }
      ],
      "name": "SpaceCreated",
      "type": "event"
    },
    {
      "anonymous": false,
      "inputs": [
        {
          "indexed": true,
          "internalType": "address",
          "name": "account",
          "type": "address"
        },
        {
          "indexed": false,
          "internalType": "address",
          "name": "tokenIn",
          "type": "address"
        },
        {
          "indexed": false,
          "internalType": "address",
          "name": "tokenOut",
          "type": "address"
        },
        {
          "indexed": false,
          "internalType": "uint256",
          "name": "amountIn",
          "type": "uint256"
        },
        {
          "indexed": false,
          "internalType": "uint256",
          "name": "amountOut",
          "type": "uint256"
        }
      ],
      "name": "Swap",
      "type": "event"
    },
    {
      "anonymous": false,
      "inputs": [
        {
          "indexed": true,
          "internalType": "address",
          "name": "to",
          "type": "address"
        },
        {
          "indexed": false,
          "internalType": "uint256",
          "name": "amount",
          "type": "uint256"
        }
      ],
      "name": "WithdrawEther",
      "type": "event"
    },
    {
      "inputs": [],
      "name": "APP_ROLE",
      "outputs": [
        {
          "internalType": "bytes32",
          "name": "",
          "type": "bytes32"
        }
      ],
      "stateMutability": "view",
      "type": "function"
    },
    {
      "inputs": [],
      "name": "CONFIG_ROLE",
      "outputs": [
        {
          "internalType": "bytes32",
          "name": "",
          "type": "bytes32"
        }
      ],
      "stateMutability": "view",
      "type": "function"
    },
    {
      "inputs": [],
      "name": "DEFAULT_ADMIN_ROLE",
      "outputs": [
        {
          "internalType": "bytes32",
          "name": "",
          "type": "bytes32"
        }
      ],
      "stateMutability": "view",
      "type": "function"
    },
    {
      "inputs": [],
      "name": "appIndex",
      "outputs": [
        {
          "internalType": "uint256",
          "name": "",
          "type": "uint256"
        }
      ],
      "stateMutability": "view",
      "type": "function"
    },
    {
      "inputs": [
        {
          "internalType": "uint256",
          "name": "",
          "type": "uint256"
        }
      ],
      "name": "apps",
      "outputs": [
        {
          "internalType": "address",
          "name": "creator",
          "type": "address"
        },
        {
          "internalType": "string",
          "name": "uri",
          "type": "string"
        },
        {
          "internalType": "address",
          "name": "feeReceiver",
          "type": "address"
        },
        {
          "internalType": "uint256",
          "name": "feePercent",
          "type": "uint256"
        }
      ],
      "stateMutability": "view",
      "type": "function"
    },
    {
      "inputs": [
        {
          "internalType": "string",
          "name": "_uri",
          "type": "string"
        },
        {
          "internalType": "address",
          "name": "_feeReceiver",
          "type": "address"
        },
        {
          "internalType": "uint256",
          "name": "_feePercent",
          "type": "uint256"
        }
      ],
      "name": "createApp",
      "outputs": [],
      "stateMutability": "nonpayable",
      "type": "function"
    },
    {
      "inputs": [
        {
          "components": [
            {
              "internalType": "uint256",
              "name": "appId",
              "type": "uint256"
            },
            {
              "internalType": "string",
              "name": "spaceName",
              "type": "string"
            },
            {
              "internalType": "string",
              "name": "symbol",
              "type": "string"
            },
            {
              "internalType": "string",
              "name": "uri",
              "type": "string"
            },
            {
              "internalType": "uint256",
              "name": "preBuyEthAmount",
              "type": "uint256"
            }
          ],
          "internalType": "struct CreateSpaceInput",
          "name": "input",
          "type": "tuple"
        }
      ],
      "name": "createSpace",
      "outputs": [],
      "stateMutability": "payable",
      "type": "function"
    },
    {
      "inputs": [],
      "name": "feeReceiver",
      "outputs": [
        {
          "internalType": "address",
          "name": "",
          "type": "address"
        }
      ],
      "stateMutability": "view",
      "type": "function"
    },
    {
      "inputs": [
        {
          "internalType": "uint256",
          "name": "id",
          "type": "uint256"
        }
      ],
      "name": "getApp",
      "outputs": [
        {
          "components": [
            {
              "internalType": "address",
              "name": "creator",
              "type": "address"
            },
            {
              "internalType": "string",
              "name": "uri",
              "type": "string"
            },
            {
              "internalType": "address",
              "name": "feeReceiver",
              "type": "address"
            },
            {
              "internalType": "uint256",
              "name": "feePercent",
              "type": "uint256"
            }
          ],
          "internalType": "struct App",
          "name": "",
          "type": "tuple"
        }
      ],
      "stateMutability": "view",
      "type": "function"
    },
    {
      "inputs": [
        {
          "internalType": "bytes32",
          "name": "role",
          "type": "bytes32"
        }
      ],
      "name": "getRoleAdmin",
      "outputs": [
        {
          "internalType": "bytes32",
          "name": "",
          "type": "bytes32"
        }
      ],
      "stateMutability": "view",
      "type": "function"
    },
    {
      "inputs": [
        {
          "internalType": "address",
          "name": "account",
          "type": "address"
        }
      ],
      "name": "getUserSpaces",
      "outputs": [
        {
          "internalType": "address[]",
          "name": "",
          "type": "address[]"
        }
      ],
      "stateMutability": "view",
      "type": "function"
    },
    {
      "inputs": [
        {
          "internalType": "bytes32",
          "name": "role",
          "type": "bytes32"
        },
        {
          "internalType": "address",
          "name": "account",
          "type": "address"
        }
      ],
      "name": "grantRole",
      "outputs": [],
      "stateMutability": "nonpayable",
      "type": "function"
    },
    {
      "inputs": [
        {
          "internalType": "bytes32",
          "name": "role",
          "type": "bytes32"
        },
        {
          "internalType": "address",
          "name": "account",
          "type": "address"
        }
      ],
      "name": "hasRole",
      "outputs": [
        {
          "internalType": "bool",
          "name": "",
          "type": "bool"
        }
      ],
      "stateMutability": "view",
      "type": "function"
    },
    {
      "inputs": [
        {
          "internalType": "address",
          "name": "spaceAddress",
          "type": "address"
        }
      ],
      "name": "isSpace",
      "outputs": [
        {
          "internalType": "bool",
          "name": "",
          "type": "bool"
        }
      ],
      "stateMutability": "view",
      "type": "function"
    },
    {
      "inputs": [],
      "name": "price",
      "outputs": [
        {
          "internalType": "uint256",
          "name": "",
          "type": "uint256"
        }
      ],
      "stateMutability": "view",
      "type": "function"
    },
    {
      "inputs": [
        {
          "internalType": "bytes32",
          "name": "role",
          "type": "bytes32"
        },
        {
          "internalType": "address",
          "name": "callerConfirmation",
          "type": "address"
        }
      ],
      "name": "renounceRole",
      "outputs": [],
      "stateMutability": "nonpayable",
      "type": "function"
    },
    {
      "inputs": [
        {
          "internalType": "bytes32",
          "name": "role",
          "type": "bytes32"
        },
        {
          "internalType": "address",
          "name": "account",
          "type": "address"
        }
      ],
      "name": "revokeRole",
      "outputs": [],
      "stateMutability": "nonpayable",
      "type": "function"
    },
    {
      "inputs": [
        {
          "internalType": "address",
          "name": "_receiver",
          "type": "address"
        }
      ],
      "name": "setFeeReceiver",
      "outputs": [],
      "stateMutability": "nonpayable",
      "type": "function"
    },
    {
      "inputs": [
        {
          "internalType": "uint256",
          "name": "_price",
          "type": "uint256"
        }
      ],
      "name": "setPrice",
      "outputs": [],
      "stateMutability": "nonpayable",
      "type": "function"
    },
    {
      "inputs": [],
      "name": "spaceIndex",
      "outputs": [
        {
          "internalType": "uint256",
          "name": "",
          "type": "uint256"
        }
      ],
      "stateMutability": "view",
      "type": "function"
    },
    {
      "inputs": [
        {
          "internalType": "address",
          "name": "",
          "type": "address"
        }
      ],
      "name": "spaceToFounder",
      "outputs": [
        {
          "internalType": "address",
          "name": "",
          "type": "address"
        }
      ],
      "stateMutability": "view",
      "type": "function"
    },
    {
      "inputs": [
        {
          "internalType": "uint256",
          "name": "spaceId",
          "type": "uint256"
        }
      ],
      "name": "spaces",
      "outputs": [
        {
          "internalType": "address",
          "name": "",
          "type": "address"
        }
      ],
      "stateMutability": "view",
      "type": "function"
    },
    {
      "inputs": [
        {
          "internalType": "bytes4",
          "name": "interfaceId",
          "type": "bytes4"
        }
      ],
      "name": "supportsInterface",
      "outputs": [
        {
          "internalType": "bool",
          "name": "",
          "type": "bool"
        }
      ],
      "stateMutability": "view",
      "type": "function"
    },
    {
      "inputs": [
        {
          "internalType": "address",
          "name": "tokenIn",
          "type": "address"
        },
        {
          "internalType": "address",
          "name": "tokenOut",
          "type": "address"
        },
        {
          "internalType": "uint256",
          "name": "amountIn",
          "type": "uint256"
        },
        {
          "internalType": "uint256",
          "name": "minTokenAmount",
          "type": "uint256"
        }
      ],
      "name": "swap",
      "outputs": [
        {
          "internalType": "uint256",
          "name": "returnAmount",
          "type": "uint256"
        }
      ],
      "stateMutability": "nonpayable",
      "type": "function"
    },
    {
      "inputs": [
        {
          "internalType": "uint256",
          "name": "id",
          "type": "uint256"
        },
        {
          "internalType": "string",
          "name": "_uri",
          "type": "string"
        },
        {
          "internalType": "address",
          "name": "_feeReceiver",
          "type": "address"
        },
        {
          "internalType": "uint256",
          "name": "_feePercent",
          "type": "uint256"
        }
      ],
      "name": "updateApp",
      "outputs": [],
      "stateMutability": "nonpayable",
      "type": "function"
    },
    {
      "inputs": [
        {
          "internalType": "address",
          "name": "",
          "type": "address"
        },
        {
          "internalType": "uint256",
          "name": "",
          "type": "uint256"
        }
      ],
      "name": "userSpaces",
      "outputs": [
        {
          "internalType": "address",
          "name": "",
          "type": "address"
        }
      ],
      "stateMutability": "view",
      "type": "function"
    },
    {
      "inputs": [],
      "name": "withdrawEther",
      "outputs": [],
      "stateMutability": "nonpayable",
      "type": "function"
    },
    {
      "inputs": [
        {
          "internalType": "address[]",
          "name": "tokens",
          "type": "address[]"
        }
      ],
      "name": "withdrawTokens",
      "outputs": [],
      "stateMutability": "nonpayable",
      "type": "function"
    },
    {
      "stateMutability": "payable",
      "type": "receive"
    }
  ],
  "transactionHash": "0x2e13286cc13b368b9bf899064cf3036eaeac98d70f14114d7c7a05d2c4ec9acd",
  "args": [
    "0x45aBBC64421a54CbffF878985AE6c4F0cfacfDb7"
  ],
  "numDeployments": 7,
  "solcInputHash": "d531e3eabe5d53f3e13e1b53bf2e8842",
  "bytecode": "0x6080346200009857601f62001ccd38819003918201601f19168301916001600160401b038311848410176200009d578084926020946040528339810103126200009857516001600160a01b038116810362000098576200008790600160005566246139ca8000006002556200007481620000b3565b50620000808162000134565b50620001d7565b50604051611a379081620002768239f35b600080fd5b634e487b7160e01b600052604160045260246000fd5b6001600160a01b031660008181527fa6eef7e35abe7026729641147f7915573c7e97b47efa546f5f6e3230263bcb49602052604081205490919060ff16620001305781805260016020526040822081835260205260408220600160ff19825416179055339160008051602062001cad8339815191528180a4600190565b5090565b6001600160a01b031660008181527f6e53926868dcb9cec2c5a800def464eee597d645425a06b90ac02acf4cacfa5760205260408120549091907f7b98b41c1b69918066115c47a3fabea25b5765269638096b0143b9ee263737be9060ff16620001d25780835260016020526040832082845260205260408320600160ff1982541617905560008051602062001cad833981519152339380a4600190565b505090565b6001600160a01b031660008181527fd10623234bc073dfbfc3bc7ac856f3df0285a5675093663f41f684de9bdab78d60205260408120549091907f82db594318110a04b6349ce48645aa69f0892751bc893d15e61d9e2b9c4630f59060ff16620001d25780835260016020526040832082845260205260408320600160ff1982541617905560008051602062001cad833981519152339380a460019056fe608080604052600436101561001d575b50361561001b57600080fd5b005b600090813560e01c90816301ffc9a71461144e57508063248a9ca31461142257806324f3a51b146113645780632f2ff15d1461132657806333518c801461128957806336568abe1461124157806338deed7d14610fa75780634eb6876214610f895780635ecb16cd14610e3e57806361acc37e14610dcd57806366327d6b1461095d5780637362377b1461085a5780637586353b146108275780637ecd66f8146107ec5780638e39f0ea146105c457806391b7f5ed1461057657806391d14854146105295780639b94d9e3146104ee578063a035b1fe146104d0578063a217fddf146104b4578063a4d19feb14610479578063b3f0067414610452578063c8d8cf8814610434578063d547741f146103f2578063da02099e14610343578063e9be46fe146102e8578063efdcd9741461027e5763fe0291560361000f573461027b57608036600319011261027b576101736114f9565b61017b6114e3565b9060443592610188611957565b60405191639910c06960e01b8352600960048401526001600160a01b038091169384602485015216928360448401528460648401526064356084840152602094858460a481738489d4f5648dEaEace16eabEE3345cE4B2Ea54cF5af493841561027057839461023b575b50600193946040519283528683015260408201528360608201527fcd3829a3813dc3cdd188fd3d01dcf3268c16be2fdd2dd21d0665418816e4606260803392a255604051908152f35b93508584813d8311610269575b61025281836115a9565b810103126102645760019351936101f2565b600080fd5b503d610248565b6040513d85823e3d90fd5b80fd5b503461027b57602036600319011261027b577f27aae5db36d94179909d019ae0b1ac7c16d96d953148f63c0f6a0a9c8ead79ee60206001600160a01b036102c36114f9565b6102cb611719565b16806001600160a01b03196005541617600555604051908152a180f35b503461027b57604036600319011261027b576103026114f9565b602435916001600160a01b03809216815260076020526040812090815484101561027b575060209261033391611671565b9190546040519260031b1c168152f35b503461027b576020908160031936011261027b57906001600160a01b03918261036a6114f9565b168152600782526040812090604051808484549182815201908194845285842090845b8181106103dc57505050816103a39103826115a9565b6040519380850191818652518092526040850193925b8281106103c65785850386f35b83518716855293810193928101926001016103b9565b825489168452928701926001928301920161038d565b503461027b57604036600319011261027b576104306004356104126114e3565b90808452600160205261042b6001604086200154611775565b61181c565b5080f35b503461027b578060031936011261027b576020600354604051908152f35b503461027b578060031936011261027b5760206001600160a01b0360055416604051908152f35b503461027b578060031936011261027b5760206040517f82db594318110a04b6349ce48645aa69f0892751bc893d15e61d9e2b9c4630f58152f35b503461027b578060031936011261027b57602090604051908152f35b503461027b578060031936011261027b576020600254604051908152f35b503461027b57602036600319011261027b5760209060406001600160a01b0391826105176114f9565b16815260098452205416604051908152f35b503461027b57604036600319011261027b576001600160a01b03604061054d6114e3565b9260043581526001602052209116600052602052602060ff604060002054166040519015158152f35b503461027b57602036600319011261027b577f66cbca4f3c64fecf1dcb9ce094abcf7f68c3450a1d4e3a8e917dd621edb4ebe060206004356105b6611719565b80600255604051908152a180f35b503461027b57608036600319011261027b5760043567ffffffffffffffff6024358181116107e8576105fa90369060040161150f565b916044356001600160a01b03808216808303610264576064359361061c61169f565b87895260206006815260408a209384541680156107d65733036107c45782156107b25766b1a2bc2ec5000086116107a05760019081850192891161078c5761066e89610668855461153d565b8561197a565b8a8091601f8b116001146106fc575093879591938a806003957fb2ec7c56deffcb7d7d1f6566c9e9d11f22d4fd664323c8704d24def0d625dcb39d9c9b976106eb9b99936106f1575b501b906000198c871b1c19161790555b60028201906001600160a01b031982541617905501556040519485943398866119ce565b0390a280f35b8c01359250386106b7565b848d52808d20929150601f198b16908d905b828210610775575050936003938997936106eb9997938d7fb2ec7c56deffcb7d7d1f6566c9e9d11f22d4fd664323c8704d24def0d625dcb39e9d9c981061075d575b50508a811b0190556106c7565b8b01356000198d881b60f8161c191690553880610750565b808685968294968f0135815501950193019061070e565b634e487b7160e01b8b52604160045260248bfd5b60405163061938ef60e51b8152600490fd5b604051633480121760e21b8152600490fd5b6040516308f78f9960e31b8152600490fd5b6040516344b3694960e01b8152600490fd5b8380fd5b503461027b578060031936011261027b5760206040517f7b98b41c1b69918066115c47a3fabea25b5765269638096b0143b9ee263737be8152f35b503461027b57602036600319011261027b576001600160a01b036040602092600435815260088452205416604051908152f35b503461027b578060031936011261027b578080526020600181526108846001604084200154611775565b60055460405163af933b5760e01b81526001600160a01b03918216600482015290918082602481738489d4f5648dEaEace16eabEE3345cE4B2Ea54cF5af4918215610952578492610903575b507fdb35132c111efe920cede025e819975671cfd1b8fcc1174762c8670c4e94c21191926005541692604051908152a280f35b91508082813d831161094b575b61091a81836115a9565b81010312610264577fdb35132c111efe920cede025e819975671cfd1b8fcc1174762c8670c4e94c2119151916108d0565b503d610910565b6040513d86823e3d90fd5b5060031960203682018113610dc9576004359067ffffffffffffffff92838311610dc55760a083600401918436030112610dc557610999611957565b8035926003548411610db35760025490608481013591828101809111610d9f573410610d8d57604051926303ec6cc760e21b845284600485015260249586850152858201956109fc6109eb8884611894565b60a0604489015260c48801916118c6565b90868680610a4660448801976064610a2a610a178b8b611894565b602319878c038101858901529a916118c6565b910196610a37888a611894565b918584030160848601526118c6565b8860a4830152038173223aAD63c1e17Cd545DB60b690e6523EF8F4d2Bd5af4958615610d82578a96610d3f575b506004548a526008875260408a206001600160a01b03809716966001600160a01b0319918883825416179055338c526007895260408c2080549068010000000000000000821015610d2c5790610ace91600182018155611671565b819291549060031b918a831b921b1916179055868b526009885260408b2090339082541617905584610bab575b89610ba1610b458a7f1ae1f41118c35ffbf7f826a8ddc22b779e5b0e9d69f8d56003f37f6bacf639198b8b8b610b93610b4e8d610b858e8e610b77610b566004549d8e9d856118ff565b979096856118ff565b9390946118ff565b9590966040519b8c9b8c5233908c015260c060408c015260c08b01916118c6565b9188830360608a01526118c6565b9185830360808701526118c6565b9060a08301520390a2611932565b6004556001815580f35b96959391949297604051636cb504a560e11b81528a600482015260c0818a8187895af1908115610d21578b91610c8c575b506060015160405163a9059cbb60e01b8152336004820152988901525083876044818c875af1968715610c8157610ba198610b857f1ae1f41118c35ffbf7f826a8ddc22b779e5b0e9d69f8d56003f37f6bacf6391997610b9394610b4e94610b459c610c54575b509450949698995050939550610afb565b610c73908a3d8c11610c7a575b610c6b81836115a9565b8101906118e7565b5038610c43565b503d610c61565b6040513d8b823e3d90fd5b905060c0813d8211610d19575b81610ca660c093836115a9565b81010312610d15576040519160c0830190811183821017610d00576060929160a09160405280518352878101518884015260408101516040840152838101518484015260808101516080840152015160a082015238610bdc565b89634e487b7160e01b60005260416004526000fd5b8a80fd5b3d9150610c99565b6040513d8d823e3d90fd5b634e487b7160e01b8e526041600452848efd5b9095508681813d8311610d7b575b610d5781836115a9565b81010312610d7757516001600160a01b0381168103610d77579438610a73565b8980fd5b503d610d4d565b6040513d8c823e3d90fd5b60405163cd1c886760e01b8152600490fd5b634e487b7160e01b88526011600452602488fd5b604051636470515b60e01b8152600490fd5b8480fd5b8280fd5b503461027b57602036600319011261027b5760409060043581526006602052206001600160a01b039081815416906003610e09600183016115cb565b93600283015416910154610e2f60405194859485526080602086015260808501906114a3565b91604084015260608301520390f35b503461027b57602080600319360112610f855767ffffffffffffffff6004358181116107e857366023820112156107e857806004013590828211610dc5573660248360051b83010111610dc5578480526001808552610ea281604088200154611775565b738489d4f5648dEaEace16eabEE3345cE4B2Ea54cF926001600160a01b0395866005541696853b15610f815790928289969460409996949951998a9763da10111960e01b8952604489019060048a0152604060248a01525260246064880195019388905b838210610f4b5750505050505082809103915af4801561027057610f28578280f35b8111610f375760405238808280f35b634e487b7160e01b82526041600452602482fd5b92959194975092959750863590828216809203610f7d57848188938293520197019201928a979592938a979592610f06565b8b80fd5b8880fd5b5080fd5b503461027b578060031936011261027b576020600454604051908152f35b503461027b57606036600319011261027b5760043567ffffffffffffffff8111610f8557610fd990369060040161150f565b610fe49291926114e3565b90610fed61169f565b6001600160a01b0382169384156107b2576702c68af0bb140000604435116107a0576040519461101c86611577565b33865267ffffffffffffffff831161122d57604051611045601f8501601f1916602001826115a9565b83815236848401116112295783836020830137856020858301015260208701526040860152604435606086015260035484526006602052604084206001600160a01b038651166001600160a01b0319825416178155602086015195865167ffffffffffffffff8111611215576110cb816110c2600186015461153d565b6001860161197a565b6020601f821160011461117e577fd6045c2a54b5386f8809e8bd02aeaa6bf4e719e5d479608a5fc2717fed1a0f7b949392826003936060938b9c61116d9c92611173575b505060001982861b1c1916600191821b17908501555b600284016001600160a01b036040830151166001600160a01b031982541617905501519101556003549361116560405192839233966044359289866119ce565b0390a2611932565b60035580f35b01519050388061110f565b6001840188526020882098885b601f19841681106111fd57509260018361116d9a9b6060947fd6045c2a54b5386f8809e8bd02aeaa6bf4e719e5d479608a5fc2717fed1a0f7b999897600397601f198116106111e5575b505050811b016001850155611125565b015160001983881b60f8161c191690553880806111d5565b828201518b556001909a01996020928301920161118b565b634e487b7160e01b87526041600452602487fd5b8580fd5b634e487b7160e01b85526041600452602485fd5b503461027b57604036600319011261027b5761125b6114e3565b336001600160a01b03821603611277576104309060043561181c565b60405163334bd91960e11b8152600490fd5b503461027b57602036600319011261027b576112a36114f9565b6001600160a01b0360405191632eacf0a560e11b835260096004840152166024820152602081604481738489d4f5648dEaEace16eabEE3345cE4B2Ea54cF5af490811561131b57602092916112fe575b506040519015158152f35b6113159150823d8111610c7a57610c6b81836115a9565b386112f3565b6040513d84823e3d90fd5b503461027b57604036600319011261027b576104306004356113466114e3565b90808452600160205261135f6001604086200154611775565b61179b565b503461027b576020908160031936011261027b57806040916060835161138981611577565b82815281868201528285820152015260043581526006835220604051906113af82611577565b6001600160a01b0392838254168352836114106113ce600185016115cb565b838601908152600383600287015416956040880196875201549360608701948552604051978897828952511690870152516080604087015260a08601906114a3565b92511660608401525160808301520390f35b503461027b57602036600319011261027b57600160406020926004358152828452200154604051908152f35b905034610f85576020366003190112610f855760043563ffffffff60e01b8116809103610dc95760209250637965db0b60e01b8114908115611492575b5015158152f35b6301ffc9a760e01b1490503861148b565b919082519283825260005b8481106114cf575050826000602080949584010152601f8019910116010190565b6020818301810151848301820152016114ae565b602435906001600160a01b038216820361026457565b600435906001600160a01b038216820361026457565b9181601f840112156102645782359167ffffffffffffffff8311610264576020838186019501011161026457565b90600182811c9216801561156d575b602083101461155757565b634e487b7160e01b600052602260045260246000fd5b91607f169161154c565b6080810190811067ffffffffffffffff82111761159357604052565b634e487b7160e01b600052604160045260246000fd5b90601f8019910116810190811067ffffffffffffffff82111761159357604052565b90604051918260008254926115df8461153d565b90818452600194858116908160001461164e575060011461160b575b5050611609925003836115a9565b565b9093915060005260209081600020936000915b818310611636575050611609935082010138806115fb565b8554888401850152948501948794509183019161161e565b91505061160994506020925060ff191682840152151560051b82010138806115fb565b80548210156116895760005260206000200190600090565b634e487b7160e01b600052603260045260246000fd5b3360009081527f6e53926868dcb9cec2c5a800def464eee597d645425a06b90ac02acf4cacfa5760205260409020547f7b98b41c1b69918066115c47a3fabea25b5765269638096b0143b9ee263737be9060ff16156116fb5750565b6044906040519063e2517d3f60e01b82523360048301526024820152fd5b3360009081527fd10623234bc073dfbfc3bc7ac856f3df0285a5675093663f41f684de9bdab78d60205260409020547f82db594318110a04b6349ce48645aa69f0892751bc893d15e61d9e2b9c4630f59060ff16156116fb5750565b80600052600160205260406000203360005260205260ff60406000205416156116fb5750565b9060009180835260016020526001600160a01b036040842092169182845260205260ff604084205416156000146118175780835260016020526040832082845260205260408320600160ff198254161790557f2f8788117e7eff1d82e926ec794901d17c78024a50270940304540a733656f0d339380a4600190565b505090565b9060009180835260016020526001600160a01b036040842092169182845260205260ff604084205416600014611817578083526001602052604083208284526020526040832060ff1981541690557ff6391f5c32d9c69d2a47ea670b442974b53935d1edc7fd64eb21e047a839171b339380a4600190565b9035601e198236030181121561026457016020813591019167ffffffffffffffff821161026457813603831361026457565b908060209392818452848401376000828201840152601f01601f1916010190565b90816020910312610264575180151581036102645790565b903590601e1981360301821215610264570180359067ffffffffffffffff82116102645760200191813603831361026457565b60001981146119415760010190565b634e487b7160e01b600052601160045260246000fd5b600260005414611968576002600055565b604051633ee5aeb560e01b8152600490fd5b90601f811161198857505050565b600091825260208220906020601f850160051c830194106119c4575b601f0160051c01915b8281106119b957505050565b8181556001016119ad565b90925082906119a4565b916119f6906060946001600160a01b03939897969885526080602086015260808501916118c6565b95166040820152015256fea26469706673582212206688ada9b424c5a63b8a6e8cad87c88420e62dc43e9b71c2f26714f180fa8f8264736f6c634300081400332f8788117e7eff1d82e926ec794901d17c78024a50270940304540a733656f0d",
  "deployedBytecode": "0x608080604052600436101561001d575b50361561001b57600080fd5b005b600090813560e01c90816301ffc9a71461144e57508063248a9ca31461142257806324f3a51b146113645780632f2ff15d1461132657806333518c801461128957806336568abe1461124157806338deed7d14610fa75780634eb6876214610f895780635ecb16cd14610e3e57806361acc37e14610dcd57806366327d6b1461095d5780637362377b1461085a5780637586353b146108275780637ecd66f8146107ec5780638e39f0ea146105c457806391b7f5ed1461057657806391d14854146105295780639b94d9e3146104ee578063a035b1fe146104d0578063a217fddf146104b4578063a4d19feb14610479578063b3f0067414610452578063c8d8cf8814610434578063d547741f146103f2578063da02099e14610343578063e9be46fe146102e8578063efdcd9741461027e5763fe0291560361000f573461027b57608036600319011261027b576101736114f9565b61017b6114e3565b9060443592610188611957565b60405191639910c06960e01b8352600960048401526001600160a01b038091169384602485015216928360448401528460648401526064356084840152602094858460a48173__$7f462ad0bdcf6bc2a48b65b50bf27bdb7e$__5af493841561027057839461023b575b50600193946040519283528683015260408201528360608201527fcd3829a3813dc3cdd188fd3d01dcf3268c16be2fdd2dd21d0665418816e4606260803392a255604051908152f35b93508584813d8311610269575b61025281836115a9565b810103126102645760019351936101f2565b600080fd5b503d610248565b6040513d85823e3d90fd5b80fd5b503461027b57602036600319011261027b577f27aae5db36d94179909d019ae0b1ac7c16d96d953148f63c0f6a0a9c8ead79ee60206001600160a01b036102c36114f9565b6102cb611719565b16806001600160a01b03196005541617600555604051908152a180f35b503461027b57604036600319011261027b576103026114f9565b602435916001600160a01b03809216815260076020526040812090815484101561027b575060209261033391611671565b9190546040519260031b1c168152f35b503461027b576020908160031936011261027b57906001600160a01b03918261036a6114f9565b168152600782526040812090604051808484549182815201908194845285842090845b8181106103dc57505050816103a39103826115a9565b6040519380850191818652518092526040850193925b8281106103c65785850386f35b83518716855293810193928101926001016103b9565b825489168452928701926001928301920161038d565b503461027b57604036600319011261027b576104306004356104126114e3565b90808452600160205261042b6001604086200154611775565b61181c565b5080f35b503461027b578060031936011261027b576020600354604051908152f35b503461027b578060031936011261027b5760206001600160a01b0360055416604051908152f35b503461027b578060031936011261027b5760206040517f82db594318110a04b6349ce48645aa69f0892751bc893d15e61d9e2b9c4630f58152f35b503461027b578060031936011261027b57602090604051908152f35b503461027b578060031936011261027b576020600254604051908152f35b503461027b57602036600319011261027b5760209060406001600160a01b0391826105176114f9565b16815260098452205416604051908152f35b503461027b57604036600319011261027b576001600160a01b03604061054d6114e3565b9260043581526001602052209116600052602052602060ff604060002054166040519015158152f35b503461027b57602036600319011261027b577f66cbca4f3c64fecf1dcb9ce094abcf7f68c3450a1d4e3a8e917dd621edb4ebe060206004356105b6611719565b80600255604051908152a180f35b503461027b57608036600319011261027b5760043567ffffffffffffffff6024358181116107e8576105fa90369060040161150f565b916044356001600160a01b03808216808303610264576064359361061c61169f565b87895260206006815260408a209384541680156107d65733036107c45782156107b25766b1a2bc2ec5000086116107a05760019081850192891161078c5761066e89610668855461153d565b8561197a565b8a8091601f8b116001146106fc575093879591938a806003957fb2ec7c56deffcb7d7d1f6566c9e9d11f22d4fd664323c8704d24def0d625dcb39d9c9b976106eb9b99936106f1575b501b906000198c871b1c19161790555b60028201906001600160a01b031982541617905501556040519485943398866119ce565b0390a280f35b8c01359250386106b7565b848d52808d20929150601f198b16908d905b828210610775575050936003938997936106eb9997938d7fb2ec7c56deffcb7d7d1f6566c9e9d11f22d4fd664323c8704d24def0d625dcb39e9d9c981061075d575b50508a811b0190556106c7565b8b01356000198d881b60f8161c191690553880610750565b808685968294968f0135815501950193019061070e565b634e487b7160e01b8b52604160045260248bfd5b60405163061938ef60e51b8152600490fd5b604051633480121760e21b8152600490fd5b6040516308f78f9960e31b8152600490fd5b6040516344b3694960e01b8152600490fd5b8380fd5b503461027b578060031936011261027b5760206040517f7b98b41c1b69918066115c47a3fabea25b5765269638096b0143b9ee263737be8152f35b503461027b57602036600319011261027b576001600160a01b036040602092600435815260088452205416604051908152f35b503461027b578060031936011261027b578080526020600181526108846001604084200154611775565b60055460405163af933b5760e01b81526001600160a01b0391821660048201529091808260248173__$7f462ad0bdcf6bc2a48b65b50bf27bdb7e$__5af4918215610952578492610903575b507fdb35132c111efe920cede025e819975671cfd1b8fcc1174762c8670c4e94c21191926005541692604051908152a280f35b91508082813d831161094b575b61091a81836115a9565b81010312610264577fdb35132c111efe920cede025e819975671cfd1b8fcc1174762c8670c4e94c2119151916108d0565b503d610910565b6040513d86823e3d90fd5b5060031960203682018113610dc9576004359067ffffffffffffffff92838311610dc55760a083600401918436030112610dc557610999611957565b8035926003548411610db35760025490608481013591828101809111610d9f573410610d8d57604051926303ec6cc760e21b845284600485015260249586850152858201956109fc6109eb8884611894565b60a0604489015260c48801916118c6565b90868680610a4660448801976064610a2a610a178b8b611894565b602319878c038101858901529a916118c6565b910196610a37888a611894565b918584030160848601526118c6565b8860a4830152038173__$b09ee225acab772df1fe332cea0eb2d1b0$__5af4958615610d82578a96610d3f575b506004548a526008875260408a206001600160a01b03809716966001600160a01b0319918883825416179055338c526007895260408c2080549068010000000000000000821015610d2c5790610ace91600182018155611671565b819291549060031b918a831b921b1916179055868b526009885260408b2090339082541617905584610bab575b89610ba1610b458a7f1ae1f41118c35ffbf7f826a8ddc22b779e5b0e9d69f8d56003f37f6bacf639198b8b8b610b93610b4e8d610b858e8e610b77610b566004549d8e9d856118ff565b979096856118ff565b9390946118ff565b9590966040519b8c9b8c5233908c015260c060408c015260c08b01916118c6565b9188830360608a01526118c6565b9185830360808701526118c6565b9060a08301520390a2611932565b6004556001815580f35b96959391949297604051636cb504a560e11b81528a600482015260c0818a8187895af1908115610d21578b91610c8c575b506060015160405163a9059cbb60e01b8152336004820152988901525083876044818c875af1968715610c8157610ba198610b857f1ae1f41118c35ffbf7f826a8ddc22b779e5b0e9d69f8d56003f37f6bacf6391997610b9394610b4e94610b459c610c54575b509450949698995050939550610afb565b610c73908a3d8c11610c7a575b610c6b81836115a9565b8101906118e7565b5038610c43565b503d610c61565b6040513d8b823e3d90fd5b905060c0813d8211610d19575b81610ca660c093836115a9565b81010312610d15576040519160c0830190811183821017610d00576060929160a09160405280518352878101518884015260408101516040840152838101518484015260808101516080840152015160a082015238610bdc565b89634e487b7160e01b60005260416004526000fd5b8a80fd5b3d9150610c99565b6040513d8d823e3d90fd5b634e487b7160e01b8e526041600452848efd5b9095508681813d8311610d7b575b610d5781836115a9565b81010312610d7757516001600160a01b0381168103610d77579438610a73565b8980fd5b503d610d4d565b6040513d8c823e3d90fd5b60405163cd1c886760e01b8152600490fd5b634e487b7160e01b88526011600452602488fd5b604051636470515b60e01b8152600490fd5b8480fd5b8280fd5b503461027b57602036600319011261027b5760409060043581526006602052206001600160a01b039081815416906003610e09600183016115cb565b93600283015416910154610e2f60405194859485526080602086015260808501906114a3565b91604084015260608301520390f35b503461027b57602080600319360112610f855767ffffffffffffffff6004358181116107e857366023820112156107e857806004013590828211610dc5573660248360051b83010111610dc5578480526001808552610ea281604088200154611775565b73__$7f462ad0bdcf6bc2a48b65b50bf27bdb7e$__926001600160a01b0395866005541696853b15610f815790928289969460409996949951998a9763da10111960e01b8952604489019060048a0152604060248a01525260246064880195019388905b838210610f4b5750505050505082809103915af4801561027057610f28578280f35b8111610f375760405238808280f35b634e487b7160e01b82526041600452602482fd5b92959194975092959750863590828216809203610f7d57848188938293520197019201928a979592938a979592610f06565b8b80fd5b8880fd5b5080fd5b503461027b578060031936011261027b576020600454604051908152f35b503461027b57606036600319011261027b5760043567ffffffffffffffff8111610f8557610fd990369060040161150f565b610fe49291926114e3565b90610fed61169f565b6001600160a01b0382169384156107b2576702c68af0bb140000604435116107a0576040519461101c86611577565b33865267ffffffffffffffff831161122d57604051611045601f8501601f1916602001826115a9565b83815236848401116112295783836020830137856020858301015260208701526040860152604435606086015260035484526006602052604084206001600160a01b038651166001600160a01b0319825416178155602086015195865167ffffffffffffffff8111611215576110cb816110c2600186015461153d565b6001860161197a565b6020601f821160011461117e577fd6045c2a54b5386f8809e8bd02aeaa6bf4e719e5d479608a5fc2717fed1a0f7b949392826003936060938b9c61116d9c92611173575b505060001982861b1c1916600191821b17908501555b600284016001600160a01b036040830151166001600160a01b031982541617905501519101556003549361116560405192839233966044359289866119ce565b0390a2611932565b60035580f35b01519050388061110f565b6001840188526020882098885b601f19841681106111fd57509260018361116d9a9b6060947fd6045c2a54b5386f8809e8bd02aeaa6bf4e719e5d479608a5fc2717fed1a0f7b999897600397601f198116106111e5575b505050811b016001850155611125565b015160001983881b60f8161c191690553880806111d5565b828201518b556001909a01996020928301920161118b565b634e487b7160e01b87526041600452602487fd5b8580fd5b634e487b7160e01b85526041600452602485fd5b503461027b57604036600319011261027b5761125b6114e3565b336001600160a01b03821603611277576104309060043561181c565b60405163334bd91960e11b8152600490fd5b503461027b57602036600319011261027b576112a36114f9565b6001600160a01b0360405191632eacf0a560e11b83526009600484015216602482015260208160448173__$7f462ad0bdcf6bc2a48b65b50bf27bdb7e$__5af490811561131b57602092916112fe575b506040519015158152f35b6113159150823d8111610c7a57610c6b81836115a9565b386112f3565b6040513d84823e3d90fd5b503461027b57604036600319011261027b576104306004356113466114e3565b90808452600160205261135f6001604086200154611775565b61179b565b503461027b576020908160031936011261027b57806040916060835161138981611577565b82815281868201528285820152015260043581526006835220604051906113af82611577565b6001600160a01b0392838254168352836114106113ce600185016115cb565b838601908152600383600287015416956040880196875201549360608701948552604051978897828952511690870152516080604087015260a08601906114a3565b92511660608401525160808301520390f35b503461027b57602036600319011261027b57600160406020926004358152828452200154604051908152f35b905034610f85576020366003190112610f855760043563ffffffff60e01b8116809103610dc95760209250637965db0b60e01b8114908115611492575b5015158152f35b6301ffc9a760e01b1490503861148b565b919082519283825260005b8481106114cf575050826000602080949584010152601f8019910116010190565b6020818301810151848301820152016114ae565b602435906001600160a01b038216820361026457565b600435906001600160a01b038216820361026457565b9181601f840112156102645782359167ffffffffffffffff8311610264576020838186019501011161026457565b90600182811c9216801561156d575b602083101461155757565b634e487b7160e01b600052602260045260246000fd5b91607f169161154c565b6080810190811067ffffffffffffffff82111761159357604052565b634e487b7160e01b600052604160045260246000fd5b90601f8019910116810190811067ffffffffffffffff82111761159357604052565b90604051918260008254926115df8461153d565b90818452600194858116908160001461164e575060011461160b575b5050611609925003836115a9565b565b9093915060005260209081600020936000915b818310611636575050611609935082010138806115fb565b8554888401850152948501948794509183019161161e565b91505061160994506020925060ff191682840152151560051b82010138806115fb565b80548210156116895760005260206000200190600090565b634e487b7160e01b600052603260045260246000fd5b3360009081527f6e53926868dcb9cec2c5a800def464eee597d645425a06b90ac02acf4cacfa5760205260409020547f7b98b41c1b69918066115c47a3fabea25b5765269638096b0143b9ee263737be9060ff16156116fb5750565b6044906040519063e2517d3f60e01b82523360048301526024820152fd5b3360009081527fd10623234bc073dfbfc3bc7ac856f3df0285a5675093663f41f684de9bdab78d60205260409020547f82db594318110a04b6349ce48645aa69f0892751bc893d15e61d9e2b9c4630f59060ff16156116fb5750565b80600052600160205260406000203360005260205260ff60406000205416156116fb5750565b9060009180835260016020526001600160a01b036040842092169182845260205260ff604084205416156000146118175780835260016020526040832082845260205260408320600160ff198254161790557f2f8788117e7eff1d82e926ec794901d17c78024a50270940304540a733656f0d339380a4600190565b505090565b9060009180835260016020526001600160a01b036040842092169182845260205260ff604084205416600014611817578083526001602052604083208284526020526040832060ff1981541690557ff6391f5c32d9c69d2a47ea670b442974b53935d1edc7fd64eb21e047a839171b339380a4600190565b9035601e198236030181121561026457016020813591019167ffffffffffffffff821161026457813603831361026457565b908060209392818452848401376000828201840152601f01601f1916010190565b90816020910312610264575180151581036102645790565b903590601e1981360301821215610264570180359067ffffffffffffffff82116102645760200191813603831361026457565b60001981146119415760010190565b634e487b7160e01b600052601160045260246000fd5b600260005414611968576002600055565b604051633ee5aeb560e01b8152600490fd5b90601f811161198857505050565b600091825260208220906020601f850160051c830194106119c4575b601f0160051c01915b8281106119b957505050565b8181556001016119ad565b90925082906119a4565b916119f6906060946001600160a01b03939897969885526080602086015260808501916118c6565b95166040820152015256fea26469706673582212206688ada9b424c5a63b8a6e8cad87c88420e62dc43e9b71c2f26714f180fa8f8264736f6c63430008140033",
  "libraries": {
    "SpaceHelper": "0x8489d4f5648dEaEace16eabEE3345cE4B2Ea54cF",
    "SpaceCreator": "0x223aAD63c1e17Cd545DB60b690e6523EF8F4d2Bd"
  },
  "devdoc": {
    "errors": {
      "AccessControlBadConfirmation()": [
        {
          "details": "The caller of a function is not the expected one. NOTE: Don't confuse with {AccessControlUnauthorizedAccount}."
        }
      ],
      "AccessControlUnauthorizedAccount(address,bytes32)": [
        {
          "details": "The `account` is missing a role."
        }
      ],
      "ReentrancyGuardReentrantCall()": [
        {
          "details": "Unauthorized reentrant call."
        }
      ]
    },
    "events": {
      "RoleAdminChanged(bytes32,bytes32,bytes32)": {
        "details": "Emitted when `newAdminRole` is set as ``role``'s admin role, replacing `previousAdminRole` `DEFAULT_ADMIN_ROLE` is the starting admin for all roles, despite {RoleAdminChanged} not being emitted signaling this."
      },
      "RoleGranted(bytes32,address,address)": {
        "details": "Emitted when `account` is granted `role`. `sender` is the account that originated the contract call, an admin role bearer except when using {AccessControl-_setupRole}."
      },
      "RoleRevoked(bytes32,address,address)": {
        "details": "Emitted when `account` is revoked `role`. `sender` is the account that originated the contract call:   - if using `revokeRole`, it is the admin role bearer   - if using `renounceRole`, it is the role bearer (i.e. `account`)"
      }
    },
    "kind": "dev",
    "methods": {
      "getRoleAdmin(bytes32)": {
        "details": "Returns the admin role that controls `role`. See {grantRole} and {revokeRole}. To change a role's admin, use {_setRoleAdmin}."
      },
      "grantRole(bytes32,address)": {
        "details": "Grants `role` to `account`. If `account` had not been already granted `role`, emits a {RoleGranted} event. Requirements: - the caller must have ``role``'s admin role. May emit a {RoleGranted} event."
      },
      "hasRole(bytes32,address)": {
        "details": "Returns `true` if `account` has been granted `role`."
      },
      "renounceRole(bytes32,address)": {
        "details": "Revokes `role` from the calling account. Roles are often managed via {grantRole} and {revokeRole}: this function's purpose is to provide a mechanism for accounts to lose their privileges if they are compromised (such as when a trusted device is misplaced). If the calling account had been revoked `role`, emits a {RoleRevoked} event. Requirements: - the caller must be `callerConfirmation`. May emit a {RoleRevoked} event."
      },
      "revokeRole(bytes32,address)": {
        "details": "Revokes `role` from `account`. If `account` had been granted `role`, emits a {RoleRevoked} event. Requirements: - the caller must have ``role``'s admin role. May emit a {RoleRevoked} event."
      },
      "supportsInterface(bytes4)": {
        "details": "See {IERC165-supportsInterface}."
      }
    },
    "version": 1
  },
  "userdoc": {
    "errors": {
      "InvalidAppId()": [
        {
          "notice": "SpaceFactory "
        }
      ]
    },
    "events": {
      "AppCreated(uint256,address,string,address,uint256)": {
        "notice": "App events "
      },
      "SpaceCreated(uint256,address,address,string,string,string,uint256)": {
        "notice": "SpaceFactory events "
      }
    },
    "kind": "user",
    "methods": {},
    "version": 1
  },
  "storageLayout": {
    "storage": [
      {
        "astId": 3736,
        "contract": "contracts/SpaceFactory.sol:SpaceFactory",
        "label": "_status",
        "offset": 0,
        "slot": "0",
        "type": "t_uint256"
      },
      {
        "astId": 26,
        "contract": "contracts/SpaceFactory.sol:SpaceFactory",
        "label": "_roles",
        "offset": 0,
        "slot": "1",
        "type": "t_mapping(t_bytes32,t_struct(RoleData)21_storage)"
      },
      {
        "astId": 9012,
        "contract": "contracts/SpaceFactory.sol:SpaceFactory",
        "label": "price",
        "offset": 0,
        "slot": "2",
        "type": "t_uint256"
      },
      {
        "astId": 9014,
        "contract": "contracts/SpaceFactory.sol:SpaceFactory",
        "label": "appIndex",
        "offset": 0,
        "slot": "3",
        "type": "t_uint256"
      },
      {
        "astId": 9016,
        "contract": "contracts/SpaceFactory.sol:SpaceFactory",
        "label": "spaceIndex",
        "offset": 0,
        "slot": "4",
        "type": "t_uint256"
      },
      {
        "astId": 9018,
        "contract": "contracts/SpaceFactory.sol:SpaceFactory",
        "label": "feeReceiver",
        "offset": 0,
        "slot": "5",
        "type": "t_address"
      },
      {
        "astId": 9033,
        "contract": "contracts/SpaceFactory.sol:SpaceFactory",
        "label": "apps",
        "offset": 0,
        "slot": "6",
        "type": "t_mapping(t_uint256,t_struct(App)10029_storage)"
      },
      {
        "astId": 9038,
        "contract": "contracts/SpaceFactory.sol:SpaceFactory",
        "label": "userSpaces",
        "offset": 0,
        "slot": "7",
        "type": "t_mapping(t_address,t_array(t_address)dyn_storage)"
      },
      {
        "astId": 9042,
        "contract": "contracts/SpaceFactory.sol:SpaceFactory",
        "label": "spaces",
        "offset": 0,
        "slot": "8",
        "type": "t_mapping(t_uint256,t_address)"
      },
      {
        "astId": 9046,
        "contract": "contracts/SpaceFactory.sol:SpaceFactory",
        "label": "spaceToFounder",
        "offset": 0,
        "slot": "9",
        "type": "t_mapping(t_address,t_address)"
      }
    ],
    "types": {
      "t_address": {
        "encoding": "inplace",
        "label": "address",
        "numberOfBytes": "20"
      },
      "t_array(t_address)dyn_storage": {
        "base": "t_address",
        "encoding": "dynamic_array",
        "label": "address[]",
        "numberOfBytes": "32"
      },
      "t_bool": {
        "encoding": "inplace",
        "label": "bool",
        "numberOfBytes": "1"
      },
      "t_bytes32": {
        "encoding": "inplace",
        "label": "bytes32",
        "numberOfBytes": "32"
      },
      "t_mapping(t_address,t_address)": {
        "encoding": "mapping",
        "key": "t_address",
        "label": "mapping(address => address)",
        "numberOfBytes": "32",
        "value": "t_address"
      },
      "t_mapping(t_address,t_array(t_address)dyn_storage)": {
        "encoding": "mapping",
        "key": "t_address",
        "label": "mapping(address => address[])",
        "numberOfBytes": "32",
        "value": "t_array(t_address)dyn_storage"
      },
      "t_mapping(t_address,t_bool)": {
        "encoding": "mapping",
        "key": "t_address",
        "label": "mapping(address => bool)",
        "numberOfBytes": "32",
        "value": "t_bool"
      },
      "t_mapping(t_bytes32,t_struct(RoleData)21_storage)": {
        "encoding": "mapping",
        "key": "t_bytes32",
        "label": "mapping(bytes32 => struct AccessControl.RoleData)",
        "numberOfBytes": "32",
        "value": "t_struct(RoleData)21_storage"
      },
      "t_mapping(t_uint256,t_address)": {
        "encoding": "mapping",
        "key": "t_uint256",
        "label": "mapping(uint256 => address)",
        "numberOfBytes": "32",
        "value": "t_address"
      },
      "t_mapping(t_uint256,t_struct(App)10029_storage)": {
        "encoding": "mapping",
        "key": "t_uint256",
        "label": "mapping(uint256 => struct App)",
        "numberOfBytes": "32",
        "value": "t_struct(App)10029_storage"
      },
      "t_string_storage": {
        "encoding": "bytes",
        "label": "string",
        "numberOfBytes": "32"
      },
      "t_struct(App)10029_storage": {
        "encoding": "inplace",
        "label": "struct App",
        "members": [
          {
            "astId": 10022,
            "contract": "contracts/SpaceFactory.sol:SpaceFactory",
            "label": "creator",
            "offset": 0,
            "slot": "0",
            "type": "t_address"
          },
          {
            "astId": 10024,
            "contract": "contracts/SpaceFactory.sol:SpaceFactory",
            "label": "uri",
            "offset": 0,
            "slot": "1",
            "type": "t_string_storage"
          },
          {
            "astId": 10026,
            "contract": "contracts/SpaceFactory.sol:SpaceFactory",
            "label": "feeReceiver",
            "offset": 0,
            "slot": "2",
            "type": "t_address"
          },
          {
            "astId": 10028,
            "contract": "contracts/SpaceFactory.sol:SpaceFactory",
            "label": "feePercent",
            "offset": 0,
            "slot": "3",
            "type": "t_uint256"
          }
        ],
        "numberOfBytes": "128"
      },
      "t_struct(RoleData)21_storage": {
        "encoding": "inplace",
        "label": "struct AccessControl.RoleData",
        "members": [
          {
            "astId": 18,
            "contract": "contracts/SpaceFactory.sol:SpaceFactory",
            "label": "hasRole",
            "offset": 0,
            "slot": "0",
            "type": "t_mapping(t_address,t_bool)"
          },
          {
            "astId": 20,
            "contract": "contracts/SpaceFactory.sol:SpaceFactory",
            "label": "adminRole",
            "offset": 0,
            "slot": "1",
            "type": "t_bytes32"
          }
        ],
        "numberOfBytes": "64"
      },
      "t_uint256": {
        "encoding": "inplace",
        "label": "uint256",
        "numberOfBytes": "32"
      }
    }
  }
}