{
  "address": "0x436BE19155e2Ab6d5b9aa9e791453bdE55A44EF4",
  "abi": [
    {
      "inputs": [
        {
          "internalType": "address",
          "name": "initialOwner",
          "type": "address"
        },
        {
          "internalType": "address",
          "name": "_indieX",
          "type": "address"
        }
      ],
      "stateMutability": "nonpayable",
      "type": "constructor"
    },
    {
      "inputs": [
        {
          "internalType": "address",
          "name": "owner",
          "type": "address"
        }
      ],
      "name": "OwnableInvalidOwner",
      "type": "error"
    },
    {
      "inputs": [
        {
          "internalType": "address",
          "name": "account",
          "type": "address"
        }
      ],
      "name": "OwnableUnauthorizedAccount",
      "type": "error"
    },
    {
      "inputs": [],
      "name": "ReentrancyGuardReentrantCall",
      "type": "error"
    },
    {
      "anonymous": false,
      "inputs": [
        {
          "indexed": true,
          "internalType": "uint256",
          "name": "spaceId",
          "type": "uint256"
        },
        {
          "indexed": false,
          "internalType": "address",
          "name": "creator",
          "type": "address"
        },
        {
          "indexed": false,
          "internalType": "string",
          "name": "spaceName",
          "type": "string"
        },
        {
          "indexed": false,
          "internalType": "string",
          "name": "symbol",
          "type": "string"
        }
      ],
      "name": "Create",
      "type": "event"
    },
    {
      "anonymous": false,
      "inputs": [
        {
          "indexed": true,
          "internalType": "address",
          "name": "previousOwner",
          "type": "address"
        },
        {
          "indexed": true,
          "internalType": "address",
          "name": "newOwner",
          "type": "address"
        }
      ],
      "name": "OwnershipTransferred",
      "type": "event"
    },
    {
      "inputs": [
        {
          "internalType": "string",
          "name": "spaceName",
          "type": "string"
        },
        {
          "internalType": "string",
          "name": "symbol",
          "type": "string"
        },
        {
          "components": [
            {
              "internalType": "uint256",
              "name": "appId",
              "type": "uint256"
            },
            {
              "internalType": "string",
              "name": "uri",
              "type": "string"
            },
            {
              "internalType": "uint256",
              "name": "curatorFeePercent",
              "type": "uint256"
            },
            {
              "components": [
                {
                  "internalType": "uint96",
                  "name": "basePrice",
                  "type": "uint96"
                },
                {
                  "internalType": "uint32",
                  "name": "inflectionPoint",
                  "type": "uint32"
                },
                {
                  "internalType": "uint128",
                  "name": "inflectionPrice",
                  "type": "uint128"
                },
                {
                  "internalType": "uint128",
                  "name": "linearPriceSlope",
                  "type": "uint128"
                }
              ],
              "internalType": "struct IIndieX.Curve",
              "name": "curve",
              "type": "tuple"
            },
            {
              "internalType": "uint8",
              "name": "farmer",
              "type": "uint8"
            },
            {
              "internalType": "bool",
              "name": "isFarming",
              "type": "bool"
            }
          ],
          "internalType": "struct IIndieX.NewCreationInput",
          "name": "creationInput",
          "type": "tuple"
        },
        {
          "components": [
            {
              "internalType": "uint256",
              "name": "appId",
              "type": "uint256"
            },
            {
              "internalType": "string",
              "name": "uri",
              "type": "string"
            },
            {
              "internalType": "uint256",
              "name": "curatorFeePercent",
              "type": "uint256"
            },
            {
              "components": [
                {
                  "internalType": "uint96",
                  "name": "basePrice",
                  "type": "uint96"
                },
                {
                  "internalType": "uint32",
                  "name": "inflectionPoint",
                  "type": "uint32"
                },
                {
                  "internalType": "uint128",
                  "name": "inflectionPrice",
                  "type": "uint128"
                },
                {
                  "internalType": "uint128",
                  "name": "linearPriceSlope",
                  "type": "uint128"
                }
              ],
              "internalType": "struct IIndieX.Curve",
              "name": "curve",
              "type": "tuple"
            },
            {
              "internalType": "uint8",
              "name": "farmer",
              "type": "uint8"
            },
            {
              "internalType": "bool",
              "name": "isFarming",
              "type": "bool"
            }
          ],
          "internalType": "struct IIndieX.NewCreationInput",
          "name": "sponsorCreationInput",
          "type": "tuple"
        }
      ],
      "name": "createSpace",
      "outputs": [],
      "stateMutability": "nonpayable",
      "type": "function"
    },
    {
      "inputs": [
        {
          "internalType": "address",
          "name": "user",
          "type": "address"
        }
      ],
      "name": "getUserSpaces",
      "outputs": [
        {
          "internalType": "address[]",
          "name": "",
          "type": "address[]"
        }
      ],
      "stateMutability": "view",
      "type": "function"
    },
    {
      "inputs": [],
      "name": "indieX",
      "outputs": [
        {
          "internalType": "address",
          "name": "",
          "type": "address"
        }
      ],
      "stateMutability": "view",
      "type": "function"
    },
    {
      "inputs": [
        {
          "components": [
            {
              "internalType": "uint256",
              "name": "appId",
              "type": "uint256"
            },
            {
              "internalType": "string",
              "name": "uri",
              "type": "string"
            },
            {
              "internalType": "uint256",
              "name": "curatorFeePercent",
              "type": "uint256"
            },
            {
              "components": [
                {
                  "internalType": "uint96",
                  "name": "basePrice",
                  "type": "uint96"
                },
                {
                  "internalType": "uint32",
                  "name": "inflectionPoint",
                  "type": "uint32"
                },
                {
                  "internalType": "uint128",
                  "name": "inflectionPrice",
                  "type": "uint128"
                },
                {
                  "internalType": "uint128",
                  "name": "linearPriceSlope",
                  "type": "uint128"
                }
              ],
              "internalType": "struct IIndieX.Curve",
              "name": "curve",
              "type": "tuple"
            },
            {
              "internalType": "uint8",
              "name": "farmer",
              "type": "uint8"
            },
            {
              "internalType": "bool",
              "name": "isFarming",
              "type": "bool"
            }
          ],
          "internalType": "struct IIndieX.NewCreationInput",
          "name": "input",
          "type": "tuple"
        }
      ],
      "name": "newCreation",
      "outputs": [
        {
          "internalType": "uint256",
          "name": "",
          "type": "uint256"
        }
      ],
      "stateMutability": "nonpayable",
      "type": "function"
    },
    {
      "inputs": [
        {
          "internalType": "address",
          "name": "",
          "type": "address"
        },
        {
          "internalType": "address",
          "name": "",
          "type": "address"
        },
        {
          "internalType": "uint256[]",
          "name": "",
          "type": "uint256[]"
        },
        {
          "internalType": "uint256[]",
          "name": "",
          "type": "uint256[]"
        },
        {
          "internalType": "bytes",
          "name": "",
          "type": "bytes"
        }
      ],
      "name": "onERC1155BatchReceived",
      "outputs": [
        {
          "internalType": "bytes4",
          "name": "",
          "type": "bytes4"
        }
      ],
      "stateMutability": "nonpayable",
      "type": "function"
    },
    {
      "inputs": [
        {
          "internalType": "address",
          "name": "",
          "type": "address"
        },
        {
          "internalType": "address",
          "name": "",
          "type": "address"
        },
        {
          "internalType": "uint256",
          "name": "",
          "type": "uint256"
        },
        {
          "internalType": "uint256",
          "name": "",
          "type": "uint256"
        },
        {
          "internalType": "bytes",
          "name": "",
          "type": "bytes"
        }
      ],
      "name": "onERC1155Received",
      "outputs": [
        {
          "internalType": "bytes4",
          "name": "",
          "type": "bytes4"
        }
      ],
      "stateMutability": "nonpayable",
      "type": "function"
    },
    {
      "inputs": [],
      "name": "owner",
      "outputs": [
        {
          "internalType": "address",
          "name": "",
          "type": "address"
        }
      ],
      "stateMutability": "view",
      "type": "function"
    },
    {
      "inputs": [],
      "name": "renounceOwnership",
      "outputs": [],
      "stateMutability": "nonpayable",
      "type": "function"
    },
    {
      "inputs": [],
      "name": "spaceIndex",
      "outputs": [
        {
          "internalType": "uint256",
          "name": "",
          "type": "uint256"
        }
      ],
      "stateMutability": "view",
      "type": "function"
    },
    {
      "inputs": [
        {
          "internalType": "uint256",
          "name": "spaceId",
          "type": "uint256"
        }
      ],
      "name": "spaces",
      "outputs": [
        {
          "internalType": "address",
          "name": "",
          "type": "address"
        }
      ],
      "stateMutability": "view",
      "type": "function"
    },
    {
      "inputs": [
        {
          "internalType": "bytes4",
          "name": "interfaceId",
          "type": "bytes4"
        }
      ],
      "name": "supportsInterface",
      "outputs": [
        {
          "internalType": "bool",
          "name": "",
          "type": "bool"
        }
      ],
      "stateMutability": "view",
      "type": "function"
    },
    {
      "inputs": [
        {
          "internalType": "address",
          "name": "newOwner",
          "type": "address"
        }
      ],
      "name": "transferOwnership",
      "outputs": [],
      "stateMutability": "nonpayable",
      "type": "function"
    },
    {
      "inputs": [
        {
          "internalType": "address",
          "name": "",
          "type": "address"
        },
        {
          "internalType": "uint256",
          "name": "",
          "type": "uint256"
        }
      ],
      "name": "userSpaces",
      "outputs": [
        {
          "internalType": "address",
          "name": "",
          "type": "address"
        }
      ],
      "stateMutability": "view",
      "type": "function"
    }
  ],
  "transactionHash": "0x17ab7e09510f08107789f361d9aacb934c4b675113fb55ae2a14fddb9c4407ec",
  "args": [
    "0x45aBBC64421a54CbffF878985AE6c4F0cfacfDb7",
    "0xd4b1FBB1CAEf9a2A74e7dDA68caF055220c28955"
  ],
  "numDeployments": 1,
  "solcInputHash": "049235db30a0fcbf1647e23774122130",
  "bytecode": "0x60a0604052600060025534801561001557600080fd5b506040516200427a3803806200427a833981016040819052610036916100f1565b816001600160a01b03811661006557604051631e4fbdf760e01b81526000600482015260240160405180910390fd5b61006e81610085565b50600180556001600160a01b031660805250610124565b600080546001600160a01b038381166001600160a01b0319831681178455604051919092169283917f8be0079c531659141344cd1fd0a4f28419497f9722a3daafe3b4186f6b6457e09190a35050565b80516001600160a01b03811681146100ec57600080fd5b919050565b6000806040838503121561010457600080fd5b61010d836100d5565b915061011b602084016100d5565b90509250929050565b60805161412c6200014e600039600081816101f7015281816102e701526104ad015261412c6000f3fe60806040523480156200001157600080fd5b5060043610620000f15760003560e01c8063bc197c811162000097578063da02099e116200006e578063da02099e1462000230578063e9be46fe1462000256578063f23a6e61146200026d578063f2fde38b146200028f57600080fd5b8063bc197c8114620001b5578063c1be6ef314620001f1578063c75d5479146200021957600080fd5b8063715018a611620000cc578063715018a614620001545780637586353b146200015e5780638da5cb5b14620001a357600080fd5b806301ffc9a714620000f65780634414013c14620001225780634eb68762146200013b575b600080fd5b6200010d62000107366004620006bd565b620002a6565b60405190151581526020015b60405180910390f35b620001396200013336600462000756565b620002de565b005b6200014560025481565b60405190815260200162000119565b620001396200047b565b6200018a6200016f3660046200081a565b6004602052600090815260409020546001600160a01b031681565b6040516001600160a01b03909116815260200162000119565b6000546001600160a01b03166200018a565b620001d7620001c6366004620009d1565b63bc197c8160e01b95945050505050565b6040516001600160e01b0319909116815260200162000119565b6200018a7f000000000000000000000000000000000000000000000000000000000000000081565b620001456200022a36600462000b8b565b62000493565b620002476200024136600462000c66565b6200052a565b60405162000119919062000c84565b6200018a6200026736600462000cd3565b620005a2565b620001d76200027e36600462000d00565b63f23a6e6160e01b95945050505050565b62000139620002a036600462000c66565b620005db565b60006001600160e01b03198216630271189760e51b1480620002d857506301ffc9a760e01b6001600160e01b03198316145b92915050565b600033905060007f000000000000000000000000000000000000000000000000000000000000000082898989896040516200031990620006af565b6200032a9695949392919062000d96565b604051809103906000f08015801562000347573d6000803e3d6000fd5b5060405163beaa242160e01b81529091506001600160a01b0382169063beaa2421906200037b908790879060040162000f16565b600060405180830381600087803b1580156200039657600080fd5b505af1158015620003ab573d6000803e3d6000fd5b505060028054600090815260046020908152604080832080546001600160a01b03891673ffffffffffffffffffffffffffffffffffffffff199182168117909255338552600384528285208054600181018255908652939094209092018054909316909117909155905490519092507f102f807505557798ddb6528453fe4a7820b2fd06dd7201dee96098217aee7d5c9150620004529085908c908c908c908c9062000f48565b60405180910390a2600280549060006200046c8362000f8e565b91905055505050505050505050565b6200048562000623565b62000491600062000652565b565b60405163c75d547960e01b81526000906001600160a01b037f0000000000000000000000000000000000000000000000000000000000000000169063c75d547990620004e490859060040162000fb6565b6020604051808303816000875af115801562000504573d6000803e3d6000fd5b505050506040513d601f19601f82011682018060405250810190620002d89190620010a4565b6001600160a01b0381166000908152600360209081526040918290208054835181840281018401909452808452606093928301828280156200059657602002820191906000526020600020905b81546001600160a01b0316815260019091019060200180831162000577575b50505050509050919050565b60036020528160005260406000208181548110620005bf57600080fd5b6000918252602090912001546001600160a01b03169150829050565b620005e562000623565b6001600160a01b0381166200061557604051631e4fbdf760e01b8152600060048201526024015b60405180910390fd5b620006208162000652565b50565b6000546001600160a01b03163314620004915760405163118cdaa760e01b81523360048201526024016200060c565b600080546001600160a01b0383811673ffffffffffffffffffffffffffffffffffffffff19831681178455604051919092169283917f8be0079c531659141344cd1fd0a4f28419497f9722a3daafe3b4186f6b6457e09190a35050565b61303880620010bf83390190565b600060208284031215620006d057600080fd5b81356001600160e01b031981168114620006e957600080fd5b9392505050565b60008083601f8401126200070357600080fd5b50813567ffffffffffffffff8111156200071c57600080fd5b6020830191508360208285010111156200073557600080fd5b9250929050565b600061012082840312156200075057600080fd5b50919050565b600080600080600080608087890312156200077057600080fd5b863567ffffffffffffffff808211156200078957600080fd5b620007978a838b01620006f0565b90985096506020890135915080821115620007b157600080fd5b620007bf8a838b01620006f0565b90965094506040890135915080821115620007d957600080fd5b620007e78a838b016200073c565b93506060890135915080821115620007fe57600080fd5b506200080d89828a016200073c565b9150509295509295509295565b6000602082840312156200082d57600080fd5b5035919050565b80356001600160a01b03811681146200084c57600080fd5b919050565b634e487b7160e01b600052604160045260246000fd5b60405160c0810167ffffffffffffffff811182821017156200088d576200088d62000851565b60405290565b604051601f8201601f1916810167ffffffffffffffff81118282101715620008bf57620008bf62000851565b604052919050565b600082601f830112620008d957600080fd5b8135602067ffffffffffffffff821115620008f857620008f862000851565b8160051b6200090982820162000893565b92835284810182019282810190878511156200092457600080fd5b83870192505b8483101562000945578235825291830191908301906200092a565b979650505050505050565b600067ffffffffffffffff8311156200096d576200096d62000851565b62000982601f8401601f191660200162000893565b90508281528383830111156200099757600080fd5b828260208301376000602084830101529392505050565b600082601f830112620009c057600080fd5b620006e98383356020850162000950565b600080600080600060a08688031215620009ea57600080fd5b620009f58662000834565b945062000a056020870162000834565b9350604086013567ffffffffffffffff8082111562000a2357600080fd5b62000a3189838a01620008c7565b9450606088013591508082111562000a4857600080fd5b62000a5689838a01620008c7565b9350608088013591508082111562000a6d57600080fd5b5062000a7c88828901620009ae565b9150509295509295909350565b80356bffffffffffffffffffffffff811681146200084c57600080fd5b803563ffffffff811681146200084c57600080fd5b80356fffffffffffffffffffffffffffffffff811681146200084c57600080fd5b60006080828403121562000aef57600080fd5b6040516080810181811067ffffffffffffffff8211171562000b155762000b1562000851565b60405290508062000b268362000a89565b815262000b366020840162000aa6565b602082015262000b496040840162000abb565b604082015262000b5c6060840162000abb565b60608201525092915050565b803560ff811681146200084c57600080fd5b803580151581146200084c57600080fd5b60006020828403121562000b9e57600080fd5b813567ffffffffffffffff8082111562000bb757600080fd5b90830190610120828603121562000bcd57600080fd5b62000bd762000867565b8235815260208301358281111562000bee57600080fd5b83019150601f8201861362000c0257600080fd5b62000c138683356020850162000950565b60208201526040830135604082015262000c31866060850162000adc565b606082015262000c4460e0840162000b68565b608082015262000c58610100840162000b7a565b60a082015295945050505050565b60006020828403121562000c7957600080fd5b620006e98262000834565b6020808252825182820181905260009190848201906040850190845b8181101562000cc75783516001600160a01b03168352928401929184019160010162000ca0565b50909695505050505050565b6000806040838503121562000ce757600080fd5b62000cf28362000834565b946020939093013593505050565b600080600080600060a0868803121562000d1957600080fd5b62000d248662000834565b945062000d346020870162000834565b93506040860135925060608601359150608086013567ffffffffffffffff81111562000d5f57600080fd5b62000a7c88828901620009ae565b81835281816020850137506000828201602090810191909152601f909101601f19169091010190565b60006001600160a01b0380891683528088166020840152506080604083015262000dc560808301868862000d6d565b828103606084015262000dda81858762000d6d565b9998505050505050505050565b6bffffffffffffffffffffffff62000dff8262000a89565b16825263ffffffff62000e156020830162000aa6565b16602083015262000e296040820162000abb565b6fffffffffffffffffffffffffffffffff80821660408501528062000e516060850162000abb565b16606085015250505050565b6000610120823584526020830135601e1984360301811262000e7e57600080fd5b830160208101903567ffffffffffffffff81111562000e9c57600080fd5b80360382131562000eac57600080fd5b82602087015262000ec1838701828462000d6d565b925050506040830135604085015262000ee1606085016060850162000de7565b62000eef60e0840162000b68565b60ff1660e085015261010062000f0784820162000b7a565b15159401939093525090919050565b60408152600062000f2b604083018562000e5d565b828103602084015262000f3f818562000e5d565b95945050505050565b6001600160a01b038616815260606020820152600062000f6d60608301868862000d6d565b828103604084015262000f8281858762000d6d565b98975050505050505050565b60006001820162000faf57634e487b7160e01b600052601160045260246000fd5b5060010190565b600060208083528351818401528084015161012080604086015281518061014087015260005b8181101562000ffb578381018501518782016101600152840162000fdc565b506101609350600084828801015260408701516060870152606087015192506200107560808701846bffffffffffffffffffffffff815116825263ffffffff602082015116602083015260408101516fffffffffffffffffffffffffffffffff808216604085015280606084015116606085015250505050565b608087015160ff1661010087015260a09096015115159085015250601f909301601f1916909101909101919050565b600060208284031215620010b757600080fd5b505191905056fe6101a06040526801a055690d9db800006009556b037790a0e8714009b49c0000600a556706f05b59d3b20000600d553480156200003b57600080fd5b5060405162003038380380620030388339810160408190526200005e91620002e4565b6040805180820190915260018152603160f81b602082015282908190818460036200008a838262000403565b50600462000099828262000403565b50620000ab9150839050600562000175565b61012052620000bc81600662000175565b61014052815160208084019190912060e052815190820120610100524660a0526200014a60e05161010051604080517f8b73c3c69bb8fe3d512ecc4cf759cc79239f7b179b0ffacaa9a75d522b39400f60208201529081019290925260608201524660808201523060a082015260009060c00160405160208183030381529060405280519060200120905090565b60805250503060c05250506001600855506001600160a01b0391821661018052166101605262000529565b600060208351101562000195576200018d83620001ae565b9050620001a8565b81620001a2848262000403565b5060ff90505b92915050565b600080829050601f81511115620001e5578260405163305a27a960e01b8152600401620001dc9190620004cf565b60405180910390fd5b8051620001f28262000504565b179392505050565b80516001600160a01b03811681146200021257600080fd5b919050565b634e487b7160e01b600052604160045260246000fd5b60005b838110156200024a57818101518382015260200162000230565b50506000910152565b600082601f8301126200026557600080fd5b81516001600160401b038082111562000282576200028262000217565b604051601f8301601f19908116603f01168101908282118183101715620002ad57620002ad62000217565b81604052838152866020858801011115620002c757600080fd5b620002da8460208301602089016200022d565b9695505050505050565b60008060008060808587031215620002fb57600080fd5b6200030685620001fa565b93506200031660208601620001fa565b60408601519093506001600160401b03808211156200033457600080fd5b620003428883890162000253565b935060608701519150808211156200035957600080fd5b50620003688782880162000253565b91505092959194509250565b600181811c908216806200038957607f821691505b602082108103620003aa57634e487b7160e01b600052602260045260246000fd5b50919050565b601f821115620003fe57600081815260208120601f850160051c81016020861015620003d95750805b601f850160051c820191505b81811015620003fa57828155600101620003e5565b5050505b505050565b81516001600160401b038111156200041f576200041f62000217565b620004378162000430845462000374565b84620003b0565b602080601f8311600181146200046f5760008415620004565750858301515b600019600386901b1c1916600185901b178555620003fa565b600085815260208120601f198616915b82811015620004a0578886015182559484019460019091019084016200047f565b5085821015620004bf5787850151600019600388901b60f8161c191681555b5050505050600190811b01905550565b6020815260008251806020840152620004f08160408501602087016200022d565b601f01601f19169190910160400192915050565b80516020808301519190811015620003aa5760001960209190910360031b1b16919050565b60805160a05160c05160e0516101005161012051610140516101605161018051612a7b620005bd6000396000818161074b015281816116090152818161169b01526117f70152600081816104d201528181610b9d0152611826015260006115960152600061156901526000611511015260006114e9015260006114440152600061146e015260006114980152612a7b6000f3fe60806040526004361061028f5760003560e01c80639ec706aa11610156578063beaa2421116100bf578063e4849b3211610079578063f23a6e6111610061578063f23a6e611461081b578063ffad0fc614610847578063ffdd6dd81461086a57005b8063e4849b32146107f3578063e4fc6b6d1461080657005b8063d505accf116100a7578063d505accf1461076d578063d955b0f31461078d578063dd62ed3e146107ad57005b8063beaa242114610719578063c1be6ef31461073957005b8063a9059cbb11610110578063b4f40c61116100f8578063b4f40c6114610696578063babd8373146106be578063bc197c81146106d457005b8063a9059cbb14610654578063b40cd21d1461067457005b8063a56dfe4a1161013e578063a56dfe4a14610616578063a694fc3a1461062c578063a6f2ae3a1461064c57005b80639ec706aa146105d6578063a2dc0574146105f657005b8063313ce567116101f85780635a9b0b89116101b25780637ecebe001161019a5780637ecebe001461057957806384b0196e1461059957806395d89b41146105c157005b80635a9b0b891461052157806370a082311461054357005b80634d4beb3b116101e05780634d4beb3b146104ab5780634d853ee5146104c05780634e71d92d1461050c57005b8063313ce5671461047a5780633644e5151461049657005b80630c55699c1161024957806323b872dd1161023157806323b872dd146104255780632d11c58a146104455780632e17de781461045a57005b80630c55699c146103fa57806318160ddd1461041057005b80630839664611610277578063083966461461039a578063095ea7b3146103bd5780630c0f9f2d146103dd57005b806301ffc9a71461034357806306fdde031461037857005b3661034157600d543490600090670de0b6b3a7640000906102b09084611e6d565b6102ba9190611e84565b905060006102c88284611ea6565b905081600e60000160008282546102df9190611eb9565b9091555050601380548291906000906102f9908490611eb9565b909155505060408051338152602081018490529081018290527f74cf3d18d0ddca79038197ad0dd2c7fa5005ef61a5d1ed190e8a8a437e2fcf109060600160405180910390a1005b005b34801561034f57600080fd5b5061036361035e366004611ecc565b61088c565b60405190151581526020015b60405180910390f35b34801561038457600080fd5b5061038d6108c3565b60405161036f9190611f43565b3480156103a657600080fd5b506103af610955565b60405190815260200161036f565b3480156103c957600080fd5b506103636103d8366004611f6b565b6109d1565b3480156103e957600080fd5b506103af6801a055690d9db8000081565b34801561040657600080fd5b506103af60095481565b34801561041c57600080fd5b506002546103af565b34801561043157600080fd5b50610363610440366004611f97565b6109e9565b34801561045157600080fd5b506103af600181565b34801561046657600080fd5b50610341610475366004611fd8565b610a0d565b34801561048657600080fd5b506040516012815260200161036f565b3480156104a257600080fd5b506103af610a8c565b3480156104b757600080fd5b506103af610a96565b3480156104cc57600080fd5b506104f47f000000000000000000000000000000000000000000000000000000000000000081565b6040516001600160a01b03909116815260200161036f565b34801561051857600080fd5b506103af610ac2565b34801561052d57600080fd5b50610536610b4f565b60405161036f9190611ff1565b34801561054f57600080fd5b506103af61055e366004612040565b6001600160a01b031660009081526020819052604090205490565b34801561058557600080fd5b506103af610594366004612040565b610bdd565b3480156105a557600080fd5b506105ae610bfb565b60405161036f9796959493929190612098565b3480156105cd57600080fd5b5061038d610c41565b3480156105e257600080fd5b506103416105f1366004612106565b610c50565b34801561060257600080fd5b506103af610611366004612040565b610cc0565b34801561062257600080fd5b506103af600a5481565b34801561063857600080fd5b50610341610647366004611fd8565b610d46565b610341610d8d565b34801561066057600080fd5b5061036361066f366004611f6b565b610ecd565b34801561068057600080fd5b50610689610edb565b60405161036f919061217b565b3480156106a257600080fd5b506103af7305a37324b8ac5eceebef390a22a97c200000000081565b3480156106ca57600080fd5b506103af600d5481565b3480156106e057600080fd5b506107006106ef36600461230b565b63bc197c8160e01b95945050505050565b6040516001600160e01b0319909116815260200161036f565b34801561072557600080fd5b506103416107343660046123d2565b610f24565b34801561074557600080fd5b506104f47f000000000000000000000000000000000000000000000000000000000000000081565b34801561077957600080fd5b5061034161078836600461244c565b610f32565b34801561079957600080fd5b506103af6b037790a0e8714009b49c000081565b3480156107b957600080fd5b506103af6107c83660046124ba565b6001600160a01b03918216600090815260016020908152604080832093909416825291909152205490565b610341610801366004611fd8565b61106c565b34801561081257600080fd5b5061034161123a565b34801561082757600080fd5b506107006108363660046124f3565b63f23a6e6160e01b95945050505050565b34801561085357600080fd5b5061085c61129f565b60405161036f92919061255c565b34801561087657600080fd5b50306000908152602081905260409020546103af565b60006001600160e01b03198216630271189760e51b14806108bd57506301ffc9a760e01b6001600160e01b03198316145b92915050565b6060600380546108d2906125fd565b80601f01602080910402602001604051908101604052809291908181526020018280546108fe906125fd565b801561094b5780601f106109205761010080835404028352916020019161094b565b820191906000526020600020905b81548152906001019060200180831161092e57829003601f168201915b5050505050905090565b604051631026011560e11b81526013600482015260009073379f185Eb1C233Ab036C93DBB2A7d10b798273fA9063204c022a90602401602060405180830381865af41580156109a8573d6000803e3d6000fd5b505050506040513d601f19601f820116820180604052508101906109cc9190612631565b905090565b6000336109df818585611324565b5060019392505050565b6000336109f7858285611336565b610a028585856113ae565b506001949350505050565b610a1561140d565b60405162c4a11560e11b8152601360048201526024810182905273379f185Eb1C233Ab036C93DBB2A7d10b798273fA90630189422a906044015b60006040518083038186803b158015610a6757600080fd5b505af4158015610a7b573d6000803e3d6000fd5b50505050610a896001600855565b50565b60006109cc611437565b6000806801a055690d9db80000600954610ab09190611ea6565b9050610abc8147611ea6565b91505090565b6000610acc61140d565b60405163710e206160e11b81526013600482015273379f185Eb1C233Ab036C93DBB2A7d10b798273fA9063e21c40c290602401602060405180830381865af4158015610b1c573d6000803e3d6000fd5b505050506040513d601f19601f82011682018060405250810190610b409190612631565b9050610b4c6001600855565b90565b610b8360405180608001604052806060815260200160006001600160a01b0316815260200160008152602001600081525090565b6040518060800160405280610b966108c3565b81526020017f00000000000000000000000000000000000000000000000000000000000000006001600160a01b03168152602001600b548152602001600c54815250905090565b6001600160a01b0381166000908152600760205260408120546108bd565b600060608060008060006060610c0f611562565b610c1761158f565b60408051600080825260208201909252600f60f81b9b939a50919850469750309650945092509050565b6060600480546108d2906125fd565b604051632c8a2ffd60e01b815273bCD756d2CdEd1857C245b1941bF3f6de0150224e90632c8a2ffd90610c8c90600e908690869060040161264a565b60006040518083038186803b158015610ca457600080fd5b505af4158015610cb8573d6000803e3d6000fd5b505050505050565b604051630157d38b60e71b8152601360048201526001600160a01b038216602482015260009073379f185Eb1C233Ab036C93DBB2A7d10b798273fA9063abe9c58090604401602060405180830381865af4158015610d22573d6000803e3d6000fd5b505050506040513d601f19601f820116820180604052508101906108bd9190612631565b610d4e61140d565b604051632c4780bf60e11b8152601360048201526024810182905273379f185Eb1C233Ab036C93DBB2A7d10b798273fA9063588f017e90604401610a4f565b610d9561140d565b3480610df45760405162461bcd60e51b8152602060048201526024808201527f45544820616d6f756e74206d7573742062652067726561746572207468616e206044820152637a65726f60e01b60648201526084015b60405180910390fd5b60006064610e03600184611e6d565b610e0d9190611e84565b90506000610e1b8284611ea6565b9050600081600954610e2d9190611eb9565b90506000610e4f827305a37324b8ac5eceebef390a22a97c2000000000611e84565b9050600081600a54610e619190611ea6565b6009849055600a8390559050610e7733826115bc565b33600060408051898152602081018590529081018890527ff660d6af156f2b284576f789df6df4915f78d4fef681203d39da097c588c85329060600160405180910390a3505050505050610ecb6001600855565b565b6000336109df8185856113ae565b610eff60405180606001604052806000815260200160008152602001600081525090565b5060408051606081018252601354815260145460208201526015549181019190915290565b610f2e82826115f2565b5050565b83421115610f565760405163313c898160e11b815260048101859052602401610deb565b60007f6e71edae12b1b97f4d1f60370fef10105fa2faae0126114a169c64845d6126c9888888610fa38c6001600160a01b0316600090815260076020526040902080546001810190915590565b6040805160208101969096526001600160a01b0394851690860152929091166060840152608083015260a082015260c0810186905260e0016040516020818303038152906040528051906020012090506000610ffe8261188a565b9050600061100e828787876118b7565b9050896001600160a01b0316816001600160a01b031614611055576040516325c0072360e11b81526001600160a01b0380831660048301528b166024820152604401610deb565b6110608a8a8a611324565b50505050505050505050565b61107461140d565b600081116110ea5760405162461bcd60e51b815260206004820152602660248201527f546f6b656e20616d6f756e74206d75737420626520677265617465722074686160448201527f6e207a65726f00000000000000000000000000000000000000000000000000006064820152608401610deb565b600060646110f9600184611e6d565b6111039190611e84565b905060006111118284611ea6565b9050600081600a546111239190611eb9565b90506000611145827305a37324b8ac5eceebef390a22a97c2000000000611e84565b90506000816009546111579190611ea6565b600a84905560098390556040516323b872dd60e01b81523360048201523060248201819052604482018990529192506323b872dd906064016020604051808303816000875af11580156111ae573d6000803e3d6000fd5b505050506040513d601f19601f820116820180604052508101906111d291906126d0565b506111dd30856118e5565b6111e7338261191b565b33600160408051848152602081018a90529081018890527ff660d6af156f2b284576f789df6df4915f78d4fef681203d39da097c588c85329060600160405180910390a35050505050610a896001600855565b604051636679b0f960e11b81526013600482015273379f185Eb1C233Ab036C93DBB2A7d10b798273fA9063ccf361f29060240160006040518083038186803b15801561128557600080fd5b505af4158015611299573d6000803e3d6000fd5b50505050565b60405163ab98b4d960e01b8152600e6004820152606090819073bCD756d2CdEd1857C245b1941bF3f6de0150224e9063ab98b4d990602401600060405180830381865af41580156112f4573d6000803e3d6000fd5b505050506040513d6000823e601f3d908101601f1916820160405261131c9190810190612781565b915091509091565b61133183838360016119be565b505050565b6001600160a01b038381166000908152600160209081526040808320938616835292905220546000198114611299578181101561139f57604051637dc7a0d960e11b81526001600160a01b03841660048201526024810182905260448101839052606401610deb565b611299848484840360006119be565b6001600160a01b0383166113d857604051634b637e8f60e11b815260006004820152602401610deb565b6001600160a01b0382166114025760405163ec442f0560e01b815260006004820152602401610deb565b611331838383611a93565b60026008540361143057604051633ee5aeb560e01b815260040160405180910390fd5b6002600855565b6000306001600160a01b037f00000000000000000000000000000000000000000000000000000000000000001614801561149057507f000000000000000000000000000000000000000000000000000000000000000046145b156114ba57507f000000000000000000000000000000000000000000000000000000000000000090565b6109cc604080517f8b73c3c69bb8fe3d512ecc4cf759cc79239f7b179b0ffacaa9a75d522b39400f60208201527f0000000000000000000000000000000000000000000000000000000000000000918101919091527f000000000000000000000000000000000000000000000000000000000000000060608201524660808201523060a082015260009060c00160405160208183030381529060405280519060200120905090565b60606109cc7f00000000000000000000000000000000000000000000000000000000000000006005611bbd565b60606109cc7f00000000000000000000000000000000000000000000000000000000000000006006611bbd565b6001600160a01b0382166115e65760405163ec442f0560e01b815260006004820152602401610deb565b610f2e60008383611a93565b60405163c75d547960e01b81526001600160a01b037f0000000000000000000000000000000000000000000000000000000000000000169063c75d54799061163e90859060040161290c565b6020604051808303816000875af115801561165d573d6000803e3d6000fd5b505050506040513d601f19601f820116820180604052508101906116819190612631565b600b5560405163c75d547960e01b81526001600160a01b037f0000000000000000000000000000000000000000000000000000000000000000169063c75d5479906116d090849060040161290c565b6020604051808303816000875af11580156116ef573d6000803e3d6000fd5b505050506040513d601f19601f820116820180604052508101906117139190612631565b600c55604080516002808252606082018352600092602083019080368337019050509050600b548160008151811061174d5761174d6129d4565b602002602001018181525050600c548160018151811061176f5761176f6129d4565b6020908102919091010152604080516002808252606082019092526000918160200160208202803683370190505090506001816000815181106117b4576117b46129d4565b6020026020010181815250506001816001815181106117d5576117d56129d4565b6020908102919091010152604051631759616b60e11b81526001600160a01b037f00000000000000000000000000000000000000000000000000000000000000001690632eb2c2d6906118529030907f000000000000000000000000000000000000000000000000000000000000000090879087906004016129ea565b600060405180830381600087803b15801561186c57600080fd5b505af1158015611880573d6000803e3d6000fd5b5050505050505050565b60006108bd611897611437565b8360405161190160f01b8152600281019290925260228201526042902090565b6000806000806118c988888888611c68565b9250925092506118d98282611d37565b50909695505050505050565b6001600160a01b03821661190f57604051634b637e8f60e11b815260006004820152602401610deb565b610f2e82600083611a93565b6000826001600160a01b03168260405160006040518083038185875af1925050503d8060008114611968576040519150601f19603f3d011682016040523d82523d6000602084013e61196d565b606091505b50509050806113315760405162461bcd60e51b815260206004820152601360248201527f455448207472616e73666572206661696c6564000000000000000000000000006044820152606401610deb565b6001600160a01b0384166119e85760405163e602df0560e01b815260006004820152602401610deb565b6001600160a01b038316611a1257604051634a1406b160e11b815260006004820152602401610deb565b6001600160a01b038085166000908152600160209081526040808320938716835292905220829055801561129957826001600160a01b0316846001600160a01b03167f8c5be1e5ebec7d5bd14f71427d1e84f3dd0314c0f7b2291e5b200ac8c7c3b92584604051611a8591815260200190565b60405180910390a350505050565b6001600160a01b038316611abe578060026000828254611ab39190611eb9565b90915550611b309050565b6001600160a01b03831660009081526020819052604090205481811015611b115760405163391434e360e21b81526001600160a01b03851660048201526024810182905260448101839052606401610deb565b6001600160a01b03841660009081526020819052604090209082900390555b6001600160a01b038216611b4c57600280548290039055611b6b565b6001600160a01b03821660009081526020819052604090208054820190555b816001600160a01b0316836001600160a01b03167fddf252ad1be2c89b69c2b068fc378daa952ba7f163c4a11628f55a4df523b3ef83604051611bb091815260200190565b60405180910390a3505050565b606060ff8314611bd757611bd083611df0565b90506108bd565b818054611be3906125fd565b80601f0160208091040260200160405190810160405280929190818152602001828054611c0f906125fd565b8015611c5c5780601f10611c3157610100808354040283529160200191611c5c565b820191906000526020600020905b815481529060010190602001808311611c3f57829003601f168201915b505050505090506108bd565b600080807f7fffffffffffffffffffffffffffffff5d576e7357a4501ddfe92f46681b20a0841115611ca35750600091506003905082611d2d565b604080516000808252602082018084528a905260ff891692820192909252606081018790526080810186905260019060a0016020604051602081039080840390855afa158015611cf7573d6000803e3d6000fd5b5050604051601f1901519150506001600160a01b038116611d2357506000925060019150829050611d2d565b9250600091508190505b9450945094915050565b6000826003811115611d4b57611d4b6126ac565b03611d54575050565b6001826003811115611d6857611d686126ac565b03611d865760405163f645eedf60e01b815260040160405180910390fd5b6002826003811115611d9a57611d9a6126ac565b03611dbb5760405163fce698f760e01b815260048101829052602401610deb565b6003826003811115611dcf57611dcf6126ac565b03610f2e576040516335e2f38360e21b815260048101829052602401610deb565b60606000611dfd83611e2f565b604080516020808252818301909252919250600091906020820181803683375050509182525060208101929092525090565b600060ff8216601f8111156108bd57604051632cd44ac360e21b815260040160405180910390fd5b634e487b7160e01b600052601160045260246000fd5b80820281158282048414176108bd576108bd611e57565b600082611ea157634e487b7160e01b600052601260045260246000fd5b500490565b818103818111156108bd576108bd611e57565b808201808211156108bd576108bd611e57565b600060208284031215611ede57600080fd5b81356001600160e01b031981168114611ef657600080fd5b9392505050565b6000815180845260005b81811015611f2357602081850181015186830182015201611f07565b506000602082860101526020601f19601f83011685010191505092915050565b602081526000611ef66020830184611efd565b6001600160a01b0381168114610a8957600080fd5b60008060408385031215611f7e57600080fd5b8235611f8981611f56565b946020939093013593505050565b600080600060608486031215611fac57600080fd5b8335611fb781611f56565b92506020840135611fc781611f56565b929592945050506040919091013590565b600060208284031215611fea57600080fd5b5035919050565b60208152600082516080602084015261200d60a0840182611efd565b90506001600160a01b03602085015116604084015260408401516060840152606084015160808401528091505092915050565b60006020828403121561205257600080fd5b8135611ef681611f56565b600081518084526020808501945080840160005b8381101561208d57815187529582019590820190600101612071565b509495945050505050565b60ff60f81b8816815260e0602082015260006120b760e0830189611efd565b82810360408401526120c98189611efd565b90508660608401526001600160a01b03861660808401528460a084015282810360c08401526120f8818561205d565b9a9950505050505050505050565b6000806020838503121561211957600080fd5b823567ffffffffffffffff8082111561213157600080fd5b818501915085601f83011261214557600080fd5b81358181111561215457600080fd5b8660208260061b850101111561216957600080fd5b60209290920196919550909350505050565b815181526020808301519082015260408083015190820152606081016108bd565b634e487b7160e01b600052604160045260246000fd5b6040516060810167ffffffffffffffff811182821017156121d5576121d561219c565b60405290565b604051601f8201601f1916810167ffffffffffffffff811182821017156122045761220461219c565b604052919050565b600067ffffffffffffffff8211156122265761222661219c565b5060051b60200190565b600082601f83011261224157600080fd5b813560206122566122518361220c565b6121db565b82815260059290921b8401810191818101908684111561227557600080fd5b8286015b848110156122905780358352918301918301612279565b509695505050505050565b600082601f8301126122ac57600080fd5b813567ffffffffffffffff8111156122c6576122c661219c565b6122d9601f8201601f19166020016121db565b8181528460208386010111156122ee57600080fd5b816020850160208301376000918101602001919091529392505050565b600080600080600060a0868803121561232357600080fd5b853561232e81611f56565b9450602086013561233e81611f56565b9350604086013567ffffffffffffffff8082111561235b57600080fd5b61236789838a01612230565b9450606088013591508082111561237d57600080fd5b61238989838a01612230565b9350608088013591508082111561239f57600080fd5b506123ac8882890161229b565b9150509295509295909350565b600061012082840312156123cc57600080fd5b50919050565b600080604083850312156123e557600080fd5b823567ffffffffffffffff808211156123fd57600080fd5b612409868387016123b9565b9350602085013591508082111561241f57600080fd5b5061242c858286016123b9565b9150509250929050565b803560ff8116811461244757600080fd5b919050565b600080600080600080600060e0888a03121561246757600080fd5b873561247281611f56565b9650602088013561248281611f56565b9550604088013594506060880135935061249e60808901612436565b925060a0880135915060c0880135905092959891949750929550565b600080604083850312156124cd57600080fd5b82356124d881611f56565b915060208301356124e881611f56565b809150509250929050565b600080600080600060a0868803121561250b57600080fd5b853561251681611f56565b9450602086013561252681611f56565b93506040860135925060608601359150608086013567ffffffffffffffff81111561255057600080fd5b6123ac8882890161229b565b60408082528351908201819052600090606090818401906020808801855b8381101561259f5781516001600160a01b03168552938201939082019060010161257a565b5050858303818701528651808452878201938201925060005b818110156125ef576125df8486518051825260208082015190830152604090810151910152565b93820193928501926001016125b8565b509198975050505050505050565b600181811c9082168061261157607f821691505b6020821081036123cc57634e487b7160e01b600052602260045260246000fd5b60006020828403121561264357600080fd5b5051919050565b8381526040602080830182905282820184905260009190859060608501845b8781101561269f57833561267c81611f56565b6001600160a01b0316825283830135838301529284019290840190600101612669565b5098975050505050505050565b634e487b7160e01b600052602160045260246000fd5b8015158114610a8957600080fd5b6000602082840312156126e257600080fd5b8151611ef6816126c2565b600082601f8301126126fe57600080fd5b8151602061270e6122518361220c565b8281526060928302850182019282820191908785111561272d57600080fd5b8387015b858110156127745781818a0312156127495760008081fd5b6127516121b2565b815181528582015186820152604080830151908201528452928401928101612731565b5090979650505050505050565b6000806040838503121561279457600080fd5b825167ffffffffffffffff808211156127ac57600080fd5b818501915085601f8301126127c057600080fd5b815160206127d06122518361220c565b82815260059290921b840181019181810190898411156127ef57600080fd5b948201945b8386101561281657855161280781611f56565b825294820194908201906127f4565b9188015191965090935050508082111561282f57600080fd5b5061242c858286016126ed565b81835281816020850137506000828201602090810191909152601f909101601f19169091010190565b80356fffffffffffffffffffffffffffffffff8116811461244757600080fd5b80356bffffffffffffffffffffffff81168082146128a257600080fd5b835250602081013563ffffffff81168082146128bd57600080fd5b6020840152506128cf60408201612865565b6fffffffffffffffffffffffffffffffff8082166040850152806128f560608501612865565b16606085015250505050565b8035612447816126c2565b602081528135602082015260006020830135601e1984360301811261293057600080fd5b830160208101903567ffffffffffffffff81111561294d57600080fd5b80360382131561295c57600080fd5b6101208060408601526129746101408601838561283c565b9250604086013560608601526129906080860160608801612885565b61299c60e08701612436565b91506101006129af8187018460ff169052565b6129ba818801612901565b9250506129ca8186018315159052565b5090949350505050565b634e487b7160e01b600052603260045260246000fd5b60006001600160a01b03808716835280861660208401525060a06040830152612a1660a083018561205d565b8281036060840152612a28818561205d565b83810360809094019390935250506000815260200194935050505056fea26469706673582212208d1dbb3000ce747f0ac94c3d62d17e1e9cbfd3006b0ae674d7c2b07a9406210d64736f6c63430008140033a2646970667358221220560df13f465e88d4dfba5d711c4694ab81ec35ff9c687f213834c90904c84af964736f6c63430008140033",
  "deployedBytecode": "0x60806040523480156200001157600080fd5b5060043610620000f15760003560e01c8063bc197c811162000097578063da02099e116200006e578063da02099e1462000230578063e9be46fe1462000256578063f23a6e61146200026d578063f2fde38b146200028f57600080fd5b8063bc197c8114620001b5578063c1be6ef314620001f1578063c75d5479146200021957600080fd5b8063715018a611620000cc578063715018a614620001545780637586353b146200015e5780638da5cb5b14620001a357600080fd5b806301ffc9a714620000f65780634414013c14620001225780634eb68762146200013b575b600080fd5b6200010d62000107366004620006bd565b620002a6565b60405190151581526020015b60405180910390f35b620001396200013336600462000756565b620002de565b005b6200014560025481565b60405190815260200162000119565b620001396200047b565b6200018a6200016f3660046200081a565b6004602052600090815260409020546001600160a01b031681565b6040516001600160a01b03909116815260200162000119565b6000546001600160a01b03166200018a565b620001d7620001c6366004620009d1565b63bc197c8160e01b95945050505050565b6040516001600160e01b0319909116815260200162000119565b6200018a7f000000000000000000000000000000000000000000000000000000000000000081565b620001456200022a36600462000b8b565b62000493565b620002476200024136600462000c66565b6200052a565b60405162000119919062000c84565b6200018a6200026736600462000cd3565b620005a2565b620001d76200027e36600462000d00565b63f23a6e6160e01b95945050505050565b62000139620002a036600462000c66565b620005db565b60006001600160e01b03198216630271189760e51b1480620002d857506301ffc9a760e01b6001600160e01b03198316145b92915050565b600033905060007f000000000000000000000000000000000000000000000000000000000000000082898989896040516200031990620006af565b6200032a9695949392919062000d96565b604051809103906000f08015801562000347573d6000803e3d6000fd5b5060405163beaa242160e01b81529091506001600160a01b0382169063beaa2421906200037b908790879060040162000f16565b600060405180830381600087803b1580156200039657600080fd5b505af1158015620003ab573d6000803e3d6000fd5b505060028054600090815260046020908152604080832080546001600160a01b03891673ffffffffffffffffffffffffffffffffffffffff199182168117909255338552600384528285208054600181018255908652939094209092018054909316909117909155905490519092507f102f807505557798ddb6528453fe4a7820b2fd06dd7201dee96098217aee7d5c9150620004529085908c908c908c908c9062000f48565b60405180910390a2600280549060006200046c8362000f8e565b91905055505050505050505050565b6200048562000623565b62000491600062000652565b565b60405163c75d547960e01b81526000906001600160a01b037f0000000000000000000000000000000000000000000000000000000000000000169063c75d547990620004e490859060040162000fb6565b6020604051808303816000875af115801562000504573d6000803e3d6000fd5b505050506040513d601f19601f82011682018060405250810190620002d89190620010a4565b6001600160a01b0381166000908152600360209081526040918290208054835181840281018401909452808452606093928301828280156200059657602002820191906000526020600020905b81546001600160a01b0316815260019091019060200180831162000577575b50505050509050919050565b60036020528160005260406000208181548110620005bf57600080fd5b6000918252602090912001546001600160a01b03169150829050565b620005e562000623565b6001600160a01b0381166200061557604051631e4fbdf760e01b8152600060048201526024015b60405180910390fd5b620006208162000652565b50565b6000546001600160a01b03163314620004915760405163118cdaa760e01b81523360048201526024016200060c565b600080546001600160a01b0383811673ffffffffffffffffffffffffffffffffffffffff19831681178455604051919092169283917f8be0079c531659141344cd1fd0a4f28419497f9722a3daafe3b4186f6b6457e09190a35050565b61303880620010bf83390190565b600060208284031215620006d057600080fd5b81356001600160e01b031981168114620006e957600080fd5b9392505050565b60008083601f8401126200070357600080fd5b50813567ffffffffffffffff8111156200071c57600080fd5b6020830191508360208285010111156200073557600080fd5b9250929050565b600061012082840312156200075057600080fd5b50919050565b600080600080600080608087890312156200077057600080fd5b863567ffffffffffffffff808211156200078957600080fd5b620007978a838b01620006f0565b90985096506020890135915080821115620007b157600080fd5b620007bf8a838b01620006f0565b90965094506040890135915080821115620007d957600080fd5b620007e78a838b016200073c565b93506060890135915080821115620007fe57600080fd5b506200080d89828a016200073c565b9150509295509295509295565b6000602082840312156200082d57600080fd5b5035919050565b80356001600160a01b03811681146200084c57600080fd5b919050565b634e487b7160e01b600052604160045260246000fd5b60405160c0810167ffffffffffffffff811182821017156200088d576200088d62000851565b60405290565b604051601f8201601f1916810167ffffffffffffffff81118282101715620008bf57620008bf62000851565b604052919050565b600082601f830112620008d957600080fd5b8135602067ffffffffffffffff821115620008f857620008f862000851565b8160051b6200090982820162000893565b92835284810182019282810190878511156200092457600080fd5b83870192505b8483101562000945578235825291830191908301906200092a565b979650505050505050565b600067ffffffffffffffff8311156200096d576200096d62000851565b62000982601f8401601f191660200162000893565b90508281528383830111156200099757600080fd5b828260208301376000602084830101529392505050565b600082601f830112620009c057600080fd5b620006e98383356020850162000950565b600080600080600060a08688031215620009ea57600080fd5b620009f58662000834565b945062000a056020870162000834565b9350604086013567ffffffffffffffff8082111562000a2357600080fd5b62000a3189838a01620008c7565b9450606088013591508082111562000a4857600080fd5b62000a5689838a01620008c7565b9350608088013591508082111562000a6d57600080fd5b5062000a7c88828901620009ae565b9150509295509295909350565b80356bffffffffffffffffffffffff811681146200084c57600080fd5b803563ffffffff811681146200084c57600080fd5b80356fffffffffffffffffffffffffffffffff811681146200084c57600080fd5b60006080828403121562000aef57600080fd5b6040516080810181811067ffffffffffffffff8211171562000b155762000b1562000851565b60405290508062000b268362000a89565b815262000b366020840162000aa6565b602082015262000b496040840162000abb565b604082015262000b5c6060840162000abb565b60608201525092915050565b803560ff811681146200084c57600080fd5b803580151581146200084c57600080fd5b60006020828403121562000b9e57600080fd5b813567ffffffffffffffff8082111562000bb757600080fd5b90830190610120828603121562000bcd57600080fd5b62000bd762000867565b8235815260208301358281111562000bee57600080fd5b83019150601f8201861362000c0257600080fd5b62000c138683356020850162000950565b60208201526040830135604082015262000c31866060850162000adc565b606082015262000c4460e0840162000b68565b608082015262000c58610100840162000b7a565b60a082015295945050505050565b60006020828403121562000c7957600080fd5b620006e98262000834565b6020808252825182820181905260009190848201906040850190845b8181101562000cc75783516001600160a01b03168352928401929184019160010162000ca0565b50909695505050505050565b6000806040838503121562000ce757600080fd5b62000cf28362000834565b946020939093013593505050565b600080600080600060a0868803121562000d1957600080fd5b62000d248662000834565b945062000d346020870162000834565b93506040860135925060608601359150608086013567ffffffffffffffff81111562000d5f57600080fd5b62000a7c88828901620009ae565b81835281816020850137506000828201602090810191909152601f909101601f19169091010190565b60006001600160a01b0380891683528088166020840152506080604083015262000dc560808301868862000d6d565b828103606084015262000dda81858762000d6d565b9998505050505050505050565b6bffffffffffffffffffffffff62000dff8262000a89565b16825263ffffffff62000e156020830162000aa6565b16602083015262000e296040820162000abb565b6fffffffffffffffffffffffffffffffff80821660408501528062000e516060850162000abb565b16606085015250505050565b6000610120823584526020830135601e1984360301811262000e7e57600080fd5b830160208101903567ffffffffffffffff81111562000e9c57600080fd5b80360382131562000eac57600080fd5b82602087015262000ec1838701828462000d6d565b925050506040830135604085015262000ee1606085016060850162000de7565b62000eef60e0840162000b68565b60ff1660e085015261010062000f0784820162000b7a565b15159401939093525090919050565b60408152600062000f2b604083018562000e5d565b828103602084015262000f3f818562000e5d565b95945050505050565b6001600160a01b038616815260606020820152600062000f6d60608301868862000d6d565b828103604084015262000f8281858762000d6d565b98975050505050505050565b60006001820162000faf57634e487b7160e01b600052601160045260246000fd5b5060010190565b600060208083528351818401528084015161012080604086015281518061014087015260005b8181101562000ffb578381018501518782016101600152840162000fdc565b506101609350600084828801015260408701516060870152606087015192506200107560808701846bffffffffffffffffffffffff815116825263ffffffff602082015116602083015260408101516fffffffffffffffffffffffffffffffff808216604085015280606084015116606085015250505050565b608087015160ff1661010087015260a09096015115159085015250601f909301601f1916909101909101919050565b600060208284031215620010b757600080fd5b505191905056fe6101a06040526801a055690d9db800006009556b037790a0e8714009b49c0000600a556706f05b59d3b20000600d553480156200003b57600080fd5b5060405162003038380380620030388339810160408190526200005e91620002e4565b6040805180820190915260018152603160f81b602082015282908190818460036200008a838262000403565b50600462000099828262000403565b50620000ab9150839050600562000175565b61012052620000bc81600662000175565b61014052815160208084019190912060e052815190820120610100524660a0526200014a60e05161010051604080517f8b73c3c69bb8fe3d512ecc4cf759cc79239f7b179b0ffacaa9a75d522b39400f60208201529081019290925260608201524660808201523060a082015260009060c00160405160208183030381529060405280519060200120905090565b60805250503060c05250506001600855506001600160a01b0391821661018052166101605262000529565b600060208351101562000195576200018d83620001ae565b9050620001a8565b81620001a2848262000403565b5060ff90505b92915050565b600080829050601f81511115620001e5578260405163305a27a960e01b8152600401620001dc9190620004cf565b60405180910390fd5b8051620001f28262000504565b179392505050565b80516001600160a01b03811681146200021257600080fd5b919050565b634e487b7160e01b600052604160045260246000fd5b60005b838110156200024a57818101518382015260200162000230565b50506000910152565b600082601f8301126200026557600080fd5b81516001600160401b038082111562000282576200028262000217565b604051601f8301601f19908116603f01168101908282118183101715620002ad57620002ad62000217565b81604052838152866020858801011115620002c757600080fd5b620002da8460208301602089016200022d565b9695505050505050565b60008060008060808587031215620002fb57600080fd5b6200030685620001fa565b93506200031660208601620001fa565b60408601519093506001600160401b03808211156200033457600080fd5b620003428883890162000253565b935060608701519150808211156200035957600080fd5b50620003688782880162000253565b91505092959194509250565b600181811c908216806200038957607f821691505b602082108103620003aa57634e487b7160e01b600052602260045260246000fd5b50919050565b601f821115620003fe57600081815260208120601f850160051c81016020861015620003d95750805b601f850160051c820191505b81811015620003fa57828155600101620003e5565b5050505b505050565b81516001600160401b038111156200041f576200041f62000217565b620004378162000430845462000374565b84620003b0565b602080601f8311600181146200046f5760008415620004565750858301515b600019600386901b1c1916600185901b178555620003fa565b600085815260208120601f198616915b82811015620004a0578886015182559484019460019091019084016200047f565b5085821015620004bf5787850151600019600388901b60f8161c191681555b5050505050600190811b01905550565b6020815260008251806020840152620004f08160408501602087016200022d565b601f01601f19169190910160400192915050565b80516020808301519190811015620003aa5760001960209190910360031b1b16919050565b60805160a05160c05160e0516101005161012051610140516101605161018051612a7b620005bd6000396000818161074b015281816116090152818161169b01526117f70152600081816104d201528181610b9d0152611826015260006115960152600061156901526000611511015260006114e9015260006114440152600061146e015260006114980152612a7b6000f3fe60806040526004361061028f5760003560e01c80639ec706aa11610156578063beaa2421116100bf578063e4849b3211610079578063f23a6e6111610061578063f23a6e611461081b578063ffad0fc614610847578063ffdd6dd81461086a57005b8063e4849b32146107f3578063e4fc6b6d1461080657005b8063d505accf116100a7578063d505accf1461076d578063d955b0f31461078d578063dd62ed3e146107ad57005b8063beaa242114610719578063c1be6ef31461073957005b8063a9059cbb11610110578063b4f40c61116100f8578063b4f40c6114610696578063babd8373146106be578063bc197c81146106d457005b8063a9059cbb14610654578063b40cd21d1461067457005b8063a56dfe4a1161013e578063a56dfe4a14610616578063a694fc3a1461062c578063a6f2ae3a1461064c57005b80639ec706aa146105d6578063a2dc0574146105f657005b8063313ce567116101f85780635a9b0b89116101b25780637ecebe001161019a5780637ecebe001461057957806384b0196e1461059957806395d89b41146105c157005b80635a9b0b891461052157806370a082311461054357005b80634d4beb3b116101e05780634d4beb3b146104ab5780634d853ee5146104c05780634e71d92d1461050c57005b8063313ce5671461047a5780633644e5151461049657005b80630c55699c1161024957806323b872dd1161023157806323b872dd146104255780632d11c58a146104455780632e17de781461045a57005b80630c55699c146103fa57806318160ddd1461041057005b80630839664611610277578063083966461461039a578063095ea7b3146103bd5780630c0f9f2d146103dd57005b806301ffc9a71461034357806306fdde031461037857005b3661034157600d543490600090670de0b6b3a7640000906102b09084611e6d565b6102ba9190611e84565b905060006102c88284611ea6565b905081600e60000160008282546102df9190611eb9565b9091555050601380548291906000906102f9908490611eb9565b909155505060408051338152602081018490529081018290527f74cf3d18d0ddca79038197ad0dd2c7fa5005ef61a5d1ed190e8a8a437e2fcf109060600160405180910390a1005b005b34801561034f57600080fd5b5061036361035e366004611ecc565b61088c565b60405190151581526020015b60405180910390f35b34801561038457600080fd5b5061038d6108c3565b60405161036f9190611f43565b3480156103a657600080fd5b506103af610955565b60405190815260200161036f565b3480156103c957600080fd5b506103636103d8366004611f6b565b6109d1565b3480156103e957600080fd5b506103af6801a055690d9db8000081565b34801561040657600080fd5b506103af60095481565b34801561041c57600080fd5b506002546103af565b34801561043157600080fd5b50610363610440366004611f97565b6109e9565b34801561045157600080fd5b506103af600181565b34801561046657600080fd5b50610341610475366004611fd8565b610a0d565b34801561048657600080fd5b506040516012815260200161036f565b3480156104a257600080fd5b506103af610a8c565b3480156104b757600080fd5b506103af610a96565b3480156104cc57600080fd5b506104f47f000000000000000000000000000000000000000000000000000000000000000081565b6040516001600160a01b03909116815260200161036f565b34801561051857600080fd5b506103af610ac2565b34801561052d57600080fd5b50610536610b4f565b60405161036f9190611ff1565b34801561054f57600080fd5b506103af61055e366004612040565b6001600160a01b031660009081526020819052604090205490565b34801561058557600080fd5b506103af610594366004612040565b610bdd565b3480156105a557600080fd5b506105ae610bfb565b60405161036f9796959493929190612098565b3480156105cd57600080fd5b5061038d610c41565b3480156105e257600080fd5b506103416105f1366004612106565b610c50565b34801561060257600080fd5b506103af610611366004612040565b610cc0565b34801561062257600080fd5b506103af600a5481565b34801561063857600080fd5b50610341610647366004611fd8565b610d46565b610341610d8d565b34801561066057600080fd5b5061036361066f366004611f6b565b610ecd565b34801561068057600080fd5b50610689610edb565b60405161036f919061217b565b3480156106a257600080fd5b506103af7305a37324b8ac5eceebef390a22a97c200000000081565b3480156106ca57600080fd5b506103af600d5481565b3480156106e057600080fd5b506107006106ef36600461230b565b63bc197c8160e01b95945050505050565b6040516001600160e01b0319909116815260200161036f565b34801561072557600080fd5b506103416107343660046123d2565b610f24565b34801561074557600080fd5b506104f47f000000000000000000000000000000000000000000000000000000000000000081565b34801561077957600080fd5b5061034161078836600461244c565b610f32565b34801561079957600080fd5b506103af6b037790a0e8714009b49c000081565b3480156107b957600080fd5b506103af6107c83660046124ba565b6001600160a01b03918216600090815260016020908152604080832093909416825291909152205490565b610341610801366004611fd8565b61106c565b34801561081257600080fd5b5061034161123a565b34801561082757600080fd5b506107006108363660046124f3565b63f23a6e6160e01b95945050505050565b34801561085357600080fd5b5061085c61129f565b60405161036f92919061255c565b34801561087657600080fd5b50306000908152602081905260409020546103af565b60006001600160e01b03198216630271189760e51b14806108bd57506301ffc9a760e01b6001600160e01b03198316145b92915050565b6060600380546108d2906125fd565b80601f01602080910402602001604051908101604052809291908181526020018280546108fe906125fd565b801561094b5780601f106109205761010080835404028352916020019161094b565b820191906000526020600020905b81548152906001019060200180831161092e57829003601f168201915b5050505050905090565b604051631026011560e11b81526013600482015260009073__$b2fda0c84abdf24a5bde0680bf090c8e0e$__9063204c022a90602401602060405180830381865af41580156109a8573d6000803e3d6000fd5b505050506040513d601f19601f820116820180604052508101906109cc9190612631565b905090565b6000336109df818585611324565b5060019392505050565b6000336109f7858285611336565b610a028585856113ae565b506001949350505050565b610a1561140d565b60405162c4a11560e11b8152601360048201526024810182905273__$b2fda0c84abdf24a5bde0680bf090c8e0e$__90630189422a906044015b60006040518083038186803b158015610a6757600080fd5b505af4158015610a7b573d6000803e3d6000fd5b50505050610a896001600855565b50565b60006109cc611437565b6000806801a055690d9db80000600954610ab09190611ea6565b9050610abc8147611ea6565b91505090565b6000610acc61140d565b60405163710e206160e11b81526013600482015273__$b2fda0c84abdf24a5bde0680bf090c8e0e$__9063e21c40c290602401602060405180830381865af4158015610b1c573d6000803e3d6000fd5b505050506040513d601f19601f82011682018060405250810190610b409190612631565b9050610b4c6001600855565b90565b610b8360405180608001604052806060815260200160006001600160a01b0316815260200160008152602001600081525090565b6040518060800160405280610b966108c3565b81526020017f00000000000000000000000000000000000000000000000000000000000000006001600160a01b03168152602001600b548152602001600c54815250905090565b6001600160a01b0381166000908152600760205260408120546108bd565b600060608060008060006060610c0f611562565b610c1761158f565b60408051600080825260208201909252600f60f81b9b939a50919850469750309650945092509050565b6060600480546108d2906125fd565b604051632c8a2ffd60e01b815273__$aee754128d0d1775ed250cc6ad74f33f25$__90632c8a2ffd90610c8c90600e908690869060040161264a565b60006040518083038186803b158015610ca457600080fd5b505af4158015610cb8573d6000803e3d6000fd5b505050505050565b604051630157d38b60e71b8152601360048201526001600160a01b038216602482015260009073__$b2fda0c84abdf24a5bde0680bf090c8e0e$__9063abe9c58090604401602060405180830381865af4158015610d22573d6000803e3d6000fd5b505050506040513d601f19601f820116820180604052508101906108bd9190612631565b610d4e61140d565b604051632c4780bf60e11b8152601360048201526024810182905273__$b2fda0c84abdf24a5bde0680bf090c8e0e$__9063588f017e90604401610a4f565b610d9561140d565b3480610df45760405162461bcd60e51b8152602060048201526024808201527f45544820616d6f756e74206d7573742062652067726561746572207468616e206044820152637a65726f60e01b60648201526084015b60405180910390fd5b60006064610e03600184611e6d565b610e0d9190611e84565b90506000610e1b8284611ea6565b9050600081600954610e2d9190611eb9565b90506000610e4f827305a37324b8ac5eceebef390a22a97c2000000000611e84565b9050600081600a54610e619190611ea6565b6009849055600a8390559050610e7733826115bc565b33600060408051898152602081018590529081018890527ff660d6af156f2b284576f789df6df4915f78d4fef681203d39da097c588c85329060600160405180910390a3505050505050610ecb6001600855565b565b6000336109df8185856113ae565b610eff60405180606001604052806000815260200160008152602001600081525090565b5060408051606081018252601354815260145460208201526015549181019190915290565b610f2e82826115f2565b5050565b83421115610f565760405163313c898160e11b815260048101859052602401610deb565b60007f6e71edae12b1b97f4d1f60370fef10105fa2faae0126114a169c64845d6126c9888888610fa38c6001600160a01b0316600090815260076020526040902080546001810190915590565b6040805160208101969096526001600160a01b0394851690860152929091166060840152608083015260a082015260c0810186905260e0016040516020818303038152906040528051906020012090506000610ffe8261188a565b9050600061100e828787876118b7565b9050896001600160a01b0316816001600160a01b031614611055576040516325c0072360e11b81526001600160a01b0380831660048301528b166024820152604401610deb565b6110608a8a8a611324565b50505050505050505050565b61107461140d565b600081116110ea5760405162461bcd60e51b815260206004820152602660248201527f546f6b656e20616d6f756e74206d75737420626520677265617465722074686160448201527f6e207a65726f00000000000000000000000000000000000000000000000000006064820152608401610deb565b600060646110f9600184611e6d565b6111039190611e84565b905060006111118284611ea6565b9050600081600a546111239190611eb9565b90506000611145827305a37324b8ac5eceebef390a22a97c2000000000611e84565b90506000816009546111579190611ea6565b600a84905560098390556040516323b872dd60e01b81523360048201523060248201819052604482018990529192506323b872dd906064016020604051808303816000875af11580156111ae573d6000803e3d6000fd5b505050506040513d601f19601f820116820180604052508101906111d291906126d0565b506111dd30856118e5565b6111e7338261191b565b33600160408051848152602081018a90529081018890527ff660d6af156f2b284576f789df6df4915f78d4fef681203d39da097c588c85329060600160405180910390a35050505050610a896001600855565b604051636679b0f960e11b81526013600482015273__$b2fda0c84abdf24a5bde0680bf090c8e0e$__9063ccf361f29060240160006040518083038186803b15801561128557600080fd5b505af4158015611299573d6000803e3d6000fd5b50505050565b60405163ab98b4d960e01b8152600e6004820152606090819073__$aee754128d0d1775ed250cc6ad74f33f25$__9063ab98b4d990602401600060405180830381865af41580156112f4573d6000803e3d6000fd5b505050506040513d6000823e601f3d908101601f1916820160405261131c9190810190612781565b915091509091565b61133183838360016119be565b505050565b6001600160a01b038381166000908152600160209081526040808320938616835292905220546000198114611299578181101561139f57604051637dc7a0d960e11b81526001600160a01b03841660048201526024810182905260448101839052606401610deb565b611299848484840360006119be565b6001600160a01b0383166113d857604051634b637e8f60e11b815260006004820152602401610deb565b6001600160a01b0382166114025760405163ec442f0560e01b815260006004820152602401610deb565b611331838383611a93565b60026008540361143057604051633ee5aeb560e01b815260040160405180910390fd5b6002600855565b6000306001600160a01b037f00000000000000000000000000000000000000000000000000000000000000001614801561149057507f000000000000000000000000000000000000000000000000000000000000000046145b156114ba57507f000000000000000000000000000000000000000000000000000000000000000090565b6109cc604080517f8b73c3c69bb8fe3d512ecc4cf759cc79239f7b179b0ffacaa9a75d522b39400f60208201527f0000000000000000000000000000000000000000000000000000000000000000918101919091527f000000000000000000000000000000000000000000000000000000000000000060608201524660808201523060a082015260009060c00160405160208183030381529060405280519060200120905090565b60606109cc7f00000000000000000000000000000000000000000000000000000000000000006005611bbd565b60606109cc7f00000000000000000000000000000000000000000000000000000000000000006006611bbd565b6001600160a01b0382166115e65760405163ec442f0560e01b815260006004820152602401610deb565b610f2e60008383611a93565b60405163c75d547960e01b81526001600160a01b037f0000000000000000000000000000000000000000000000000000000000000000169063c75d54799061163e90859060040161290c565b6020604051808303816000875af115801561165d573d6000803e3d6000fd5b505050506040513d601f19601f820116820180604052508101906116819190612631565b600b5560405163c75d547960e01b81526001600160a01b037f0000000000000000000000000000000000000000000000000000000000000000169063c75d5479906116d090849060040161290c565b6020604051808303816000875af11580156116ef573d6000803e3d6000fd5b505050506040513d601f19601f820116820180604052508101906117139190612631565b600c55604080516002808252606082018352600092602083019080368337019050509050600b548160008151811061174d5761174d6129d4565b602002602001018181525050600c548160018151811061176f5761176f6129d4565b6020908102919091010152604080516002808252606082019092526000918160200160208202803683370190505090506001816000815181106117b4576117b46129d4565b6020026020010181815250506001816001815181106117d5576117d56129d4565b6020908102919091010152604051631759616b60e11b81526001600160a01b037f00000000000000000000000000000000000000000000000000000000000000001690632eb2c2d6906118529030907f000000000000000000000000000000000000000000000000000000000000000090879087906004016129ea565b600060405180830381600087803b15801561186c57600080fd5b505af1158015611880573d6000803e3d6000fd5b5050505050505050565b60006108bd611897611437565b8360405161190160f01b8152600281019290925260228201526042902090565b6000806000806118c988888888611c68565b9250925092506118d98282611d37565b50909695505050505050565b6001600160a01b03821661190f57604051634b637e8f60e11b815260006004820152602401610deb565b610f2e82600083611a93565b6000826001600160a01b03168260405160006040518083038185875af1925050503d8060008114611968576040519150601f19603f3d011682016040523d82523d6000602084013e61196d565b606091505b50509050806113315760405162461bcd60e51b815260206004820152601360248201527f455448207472616e73666572206661696c6564000000000000000000000000006044820152606401610deb565b6001600160a01b0384166119e85760405163e602df0560e01b815260006004820152602401610deb565b6001600160a01b038316611a1257604051634a1406b160e11b815260006004820152602401610deb565b6001600160a01b038085166000908152600160209081526040808320938716835292905220829055801561129957826001600160a01b0316846001600160a01b03167f8c5be1e5ebec7d5bd14f71427d1e84f3dd0314c0f7b2291e5b200ac8c7c3b92584604051611a8591815260200190565b60405180910390a350505050565b6001600160a01b038316611abe578060026000828254611ab39190611eb9565b90915550611b309050565b6001600160a01b03831660009081526020819052604090205481811015611b115760405163391434e360e21b81526001600160a01b03851660048201526024810182905260448101839052606401610deb565b6001600160a01b03841660009081526020819052604090209082900390555b6001600160a01b038216611b4c57600280548290039055611b6b565b6001600160a01b03821660009081526020819052604090208054820190555b816001600160a01b0316836001600160a01b03167fddf252ad1be2c89b69c2b068fc378daa952ba7f163c4a11628f55a4df523b3ef83604051611bb091815260200190565b60405180910390a3505050565b606060ff8314611bd757611bd083611df0565b90506108bd565b818054611be3906125fd565b80601f0160208091040260200160405190810160405280929190818152602001828054611c0f906125fd565b8015611c5c5780601f10611c3157610100808354040283529160200191611c5c565b820191906000526020600020905b815481529060010190602001808311611c3f57829003601f168201915b505050505090506108bd565b600080807f7fffffffffffffffffffffffffffffff5d576e7357a4501ddfe92f46681b20a0841115611ca35750600091506003905082611d2d565b604080516000808252602082018084528a905260ff891692820192909252606081018790526080810186905260019060a0016020604051602081039080840390855afa158015611cf7573d6000803e3d6000fd5b5050604051601f1901519150506001600160a01b038116611d2357506000925060019150829050611d2d565b9250600091508190505b9450945094915050565b6000826003811115611d4b57611d4b6126ac565b03611d54575050565b6001826003811115611d6857611d686126ac565b03611d865760405163f645eedf60e01b815260040160405180910390fd5b6002826003811115611d9a57611d9a6126ac565b03611dbb5760405163fce698f760e01b815260048101829052602401610deb565b6003826003811115611dcf57611dcf6126ac565b03610f2e576040516335e2f38360e21b815260048101829052602401610deb565b60606000611dfd83611e2f565b604080516020808252818301909252919250600091906020820181803683375050509182525060208101929092525090565b600060ff8216601f8111156108bd57604051632cd44ac360e21b815260040160405180910390fd5b634e487b7160e01b600052601160045260246000fd5b80820281158282048414176108bd576108bd611e57565b600082611ea157634e487b7160e01b600052601260045260246000fd5b500490565b818103818111156108bd576108bd611e57565b808201808211156108bd576108bd611e57565b600060208284031215611ede57600080fd5b81356001600160e01b031981168114611ef657600080fd5b9392505050565b6000815180845260005b81811015611f2357602081850181015186830182015201611f07565b506000602082860101526020601f19601f83011685010191505092915050565b602081526000611ef66020830184611efd565b6001600160a01b0381168114610a8957600080fd5b60008060408385031215611f7e57600080fd5b8235611f8981611f56565b946020939093013593505050565b600080600060608486031215611fac57600080fd5b8335611fb781611f56565b92506020840135611fc781611f56565b929592945050506040919091013590565b600060208284031215611fea57600080fd5b5035919050565b60208152600082516080602084015261200d60a0840182611efd565b90506001600160a01b03602085015116604084015260408401516060840152606084015160808401528091505092915050565b60006020828403121561205257600080fd5b8135611ef681611f56565b600081518084526020808501945080840160005b8381101561208d57815187529582019590820190600101612071565b509495945050505050565b60ff60f81b8816815260e0602082015260006120b760e0830189611efd565b82810360408401526120c98189611efd565b90508660608401526001600160a01b03861660808401528460a084015282810360c08401526120f8818561205d565b9a9950505050505050505050565b6000806020838503121561211957600080fd5b823567ffffffffffffffff8082111561213157600080fd5b818501915085601f83011261214557600080fd5b81358181111561215457600080fd5b8660208260061b850101111561216957600080fd5b60209290920196919550909350505050565b815181526020808301519082015260408083015190820152606081016108bd565b634e487b7160e01b600052604160045260246000fd5b6040516060810167ffffffffffffffff811182821017156121d5576121d561219c565b60405290565b604051601f8201601f1916810167ffffffffffffffff811182821017156122045761220461219c565b604052919050565b600067ffffffffffffffff8211156122265761222661219c565b5060051b60200190565b600082601f83011261224157600080fd5b813560206122566122518361220c565b6121db565b82815260059290921b8401810191818101908684111561227557600080fd5b8286015b848110156122905780358352918301918301612279565b509695505050505050565b600082601f8301126122ac57600080fd5b813567ffffffffffffffff8111156122c6576122c661219c565b6122d9601f8201601f19166020016121db565b8181528460208386010111156122ee57600080fd5b816020850160208301376000918101602001919091529392505050565b600080600080600060a0868803121561232357600080fd5b853561232e81611f56565b9450602086013561233e81611f56565b9350604086013567ffffffffffffffff8082111561235b57600080fd5b61236789838a01612230565b9450606088013591508082111561237d57600080fd5b61238989838a01612230565b9350608088013591508082111561239f57600080fd5b506123ac8882890161229b565b9150509295509295909350565b600061012082840312156123cc57600080fd5b50919050565b600080604083850312156123e557600080fd5b823567ffffffffffffffff808211156123fd57600080fd5b612409868387016123b9565b9350602085013591508082111561241f57600080fd5b5061242c858286016123b9565b9150509250929050565b803560ff8116811461244757600080fd5b919050565b600080600080600080600060e0888a03121561246757600080fd5b873561247281611f56565b9650602088013561248281611f56565b9550604088013594506060880135935061249e60808901612436565b925060a0880135915060c0880135905092959891949750929550565b600080604083850312156124cd57600080fd5b82356124d881611f56565b915060208301356124e881611f56565b809150509250929050565b600080600080600060a0868803121561250b57600080fd5b853561251681611f56565b9450602086013561252681611f56565b93506040860135925060608601359150608086013567ffffffffffffffff81111561255057600080fd5b6123ac8882890161229b565b60408082528351908201819052600090606090818401906020808801855b8381101561259f5781516001600160a01b03168552938201939082019060010161257a565b5050858303818701528651808452878201938201925060005b818110156125ef576125df8486518051825260208082015190830152604090810151910152565b93820193928501926001016125b8565b509198975050505050505050565b600181811c9082168061261157607f821691505b6020821081036123cc57634e487b7160e01b600052602260045260246000fd5b60006020828403121561264357600080fd5b5051919050565b8381526040602080830182905282820184905260009190859060608501845b8781101561269f57833561267c81611f56565b6001600160a01b0316825283830135838301529284019290840190600101612669565b5098975050505050505050565b634e487b7160e01b600052602160045260246000fd5b8015158114610a8957600080fd5b6000602082840312156126e257600080fd5b8151611ef6816126c2565b600082601f8301126126fe57600080fd5b8151602061270e6122518361220c565b8281526060928302850182019282820191908785111561272d57600080fd5b8387015b858110156127745781818a0312156127495760008081fd5b6127516121b2565b815181528582015186820152604080830151908201528452928401928101612731565b5090979650505050505050565b6000806040838503121561279457600080fd5b825167ffffffffffffffff808211156127ac57600080fd5b818501915085601f8301126127c057600080fd5b815160206127d06122518361220c565b82815260059290921b840181019181810190898411156127ef57600080fd5b948201945b8386101561281657855161280781611f56565b825294820194908201906127f4565b9188015191965090935050508082111561282f57600080fd5b5061242c858286016126ed565b81835281816020850137506000828201602090810191909152601f909101601f19169091010190565b80356fffffffffffffffffffffffffffffffff8116811461244757600080fd5b80356bffffffffffffffffffffffff81168082146128a257600080fd5b835250602081013563ffffffff81168082146128bd57600080fd5b6020840152506128cf60408201612865565b6fffffffffffffffffffffffffffffffff8082166040850152806128f560608501612865565b16606085015250505050565b8035612447816126c2565b602081528135602082015260006020830135601e1984360301811261293057600080fd5b830160208101903567ffffffffffffffff81111561294d57600080fd5b80360382131561295c57600080fd5b6101208060408601526129746101408601838561283c565b9250604086013560608601526129906080860160608801612885565b61299c60e08701612436565b91506101006129af8187018460ff169052565b6129ba818801612901565b9250506129ca8186018315159052565b5090949350505050565b634e487b7160e01b600052603260045260246000fd5b60006001600160a01b03808716835280861660208401525060a06040830152612a1660a083018561205d565b8281036060840152612a28818561205d565b83810360809094019390935250506000815260200194935050505056fea26469706673582212208d1dbb3000ce747f0ac94c3d62d17e1e9cbfd3006b0ae674d7c2b07a9406210d64736f6c63430008140033a2646970667358221220560df13f465e88d4dfba5d711c4694ab81ec35ff9c687f213834c90904c84af964736f6c63430008140033",
  "libraries": {
    "Share": "0xbCD756d2CdEd1857C245b1941bF3f6de0150224e",
    "Staking": "0x379f185Eb1C233Ab036C93DBB2A7d10b798273fA"
  },
  "devdoc": {
    "errors": {
      "OwnableInvalidOwner(address)": [
        {
          "details": "The owner is not a valid owner account. (eg. `address(0)`)"
        }
      ],
      "OwnableUnauthorizedAccount(address)": [
        {
          "details": "The caller account is not authorized to perform an operation."
        }
      ],
      "ReentrancyGuardReentrantCall()": [
        {
          "details": "Unauthorized reentrant call."
        }
      ]
    },
    "kind": "dev",
    "methods": {
      "owner()": {
        "details": "Returns the address of the current owner."
      },
      "renounceOwnership()": {
        "details": "Leaves the contract without owner. It will not be possible to call `onlyOwner` functions. Can only be called by the current owner. NOTE: Renouncing ownership will leave the contract without an owner, thereby disabling any functionality that is only available to the owner."
      },
      "supportsInterface(bytes4)": {
        "details": "See {IERC165-supportsInterface}."
      },
      "transferOwnership(address)": {
        "details": "Transfers ownership of the contract to a new account (`newOwner`). Can only be called by the current owner."
      }
    },
    "version": 1
  },
  "userdoc": {
    "kind": "user",
    "methods": {},
    "version": 1
  },
  "storageLayout": {
    "storage": [
      {
        "astId": 8,
        "contract": "contracts/space/SpaceFactory.sol:SpaceFactory",
        "label": "_owner",
        "offset": 0,
        "slot": "0",
        "type": "t_address"
      },
      {
        "astId": 3438,
        "contract": "contracts/space/SpaceFactory.sol:SpaceFactory",
        "label": "_status",
        "offset": 0,
        "slot": "1",
        "type": "t_uint256"
      },
      {
        "astId": 7920,
        "contract": "contracts/space/SpaceFactory.sol:SpaceFactory",
        "label": "spaceIndex",
        "offset": 0,
        "slot": "2",
        "type": "t_uint256"
      },
      {
        "astId": 7925,
        "contract": "contracts/space/SpaceFactory.sol:SpaceFactory",
        "label": "userSpaces",
        "offset": 0,
        "slot": "3",
        "type": "t_mapping(t_address,t_array(t_address)dyn_storage)"
      },
      {
        "astId": 7929,
        "contract": "contracts/space/SpaceFactory.sol:SpaceFactory",
        "label": "spaces",
        "offset": 0,
        "slot": "4",
        "type": "t_mapping(t_uint256,t_address)"
      }
    ],
    "types": {
      "t_address": {
        "encoding": "inplace",
        "label": "address",
        "numberOfBytes": "20"
      },
      "t_array(t_address)dyn_storage": {
        "base": "t_address",
        "encoding": "dynamic_array",
        "label": "address[]",
        "numberOfBytes": "32"
      },
      "t_mapping(t_address,t_array(t_address)dyn_storage)": {
        "encoding": "mapping",
        "key": "t_address",
        "label": "mapping(address => address[])",
        "numberOfBytes": "32",
        "value": "t_array(t_address)dyn_storage"
      },
      "t_mapping(t_uint256,t_address)": {
        "encoding": "mapping",
        "key": "t_uint256",
        "label": "mapping(uint256 => address)",
        "numberOfBytes": "32",
        "value": "t_address"
      },
      "t_uint256": {
        "encoding": "inplace",
        "label": "uint256",
        "numberOfBytes": "32"
      }
    }
  }
}