{
  "address": "0x9ebaF6D847543C2C5e30237586924f65df79859a",
  "abi": [
    {
      "inputs": [
        {
          "internalType": "address",
          "name": "_founder",
          "type": "address"
        },
        {
          "internalType": "string",
          "name": "_name",
          "type": "string"
        },
        {
          "internalType": "string",
          "name": "_symbol",
          "type": "string"
        }
      ],
      "stateMutability": "nonpayable",
      "type": "constructor"
    },
    {
      "inputs": [],
      "name": "ECDSAInvalidSignature",
      "type": "error"
    },
    {
      "inputs": [
        {
          "internalType": "uint256",
          "name": "length",
          "type": "uint256"
        }
      ],
      "name": "ECDSAInvalidSignatureLength",
      "type": "error"
    },
    {
      "inputs": [
        {
          "internalType": "bytes32",
          "name": "s",
          "type": "bytes32"
        }
      ],
      "name": "ECDSAInvalidSignatureS",
      "type": "error"
    },
    {
      "inputs": [
        {
          "internalType": "address",
          "name": "spender",
          "type": "address"
        },
        {
          "internalType": "uint256",
          "name": "allowance",
          "type": "uint256"
        },
        {
          "internalType": "uint256",
          "name": "needed",
          "type": "uint256"
        }
      ],
      "name": "ERC20InsufficientAllowance",
      "type": "error"
    },
    {
      "inputs": [
        {
          "internalType": "address",
          "name": "sender",
          "type": "address"
        },
        {
          "internalType": "uint256",
          "name": "balance",
          "type": "uint256"
        },
        {
          "internalType": "uint256",
          "name": "needed",
          "type": "uint256"
        }
      ],
      "name": "ERC20InsufficientBalance",
      "type": "error"
    },
    {
      "inputs": [
        {
          "internalType": "address",
          "name": "approver",
          "type": "address"
        }
      ],
      "name": "ERC20InvalidApprover",
      "type": "error"
    },
    {
      "inputs": [
        {
          "internalType": "address",
          "name": "receiver",
          "type": "address"
        }
      ],
      "name": "ERC20InvalidReceiver",
      "type": "error"
    },
    {
      "inputs": [
        {
          "internalType": "address",
          "name": "sender",
          "type": "address"
        }
      ],
      "name": "ERC20InvalidSender",
      "type": "error"
    },
    {
      "inputs": [
        {
          "internalType": "address",
          "name": "spender",
          "type": "address"
        }
      ],
      "name": "ERC20InvalidSpender",
      "type": "error"
    },
    {
      "inputs": [
        {
          "internalType": "uint256",
          "name": "deadline",
          "type": "uint256"
        }
      ],
      "name": "ERC2612ExpiredSignature",
      "type": "error"
    },
    {
      "inputs": [
        {
          "internalType": "address",
          "name": "signer",
          "type": "address"
        },
        {
          "internalType": "address",
          "name": "owner",
          "type": "address"
        }
      ],
      "name": "ERC2612InvalidSigner",
      "type": "error"
    },
    {
      "inputs": [
        {
          "internalType": "address",
          "name": "account",
          "type": "address"
        },
        {
          "internalType": "uint256",
          "name": "currentNonce",
          "type": "uint256"
        }
      ],
      "name": "InvalidAccountNonce",
      "type": "error"
    },
    {
      "inputs": [],
      "name": "InvalidShortString",
      "type": "error"
    },
    {
      "inputs": [],
      "name": "ReentrancyGuardReentrantCall",
      "type": "error"
    },
    {
      "inputs": [
        {
          "internalType": "string",
          "name": "str",
          "type": "string"
        }
      ],
      "name": "StringTooLong",
      "type": "error"
    },
    {
      "anonymous": false,
      "inputs": [
        {
          "indexed": true,
          "internalType": "address",
          "name": "owner",
          "type": "address"
        },
        {
          "indexed": true,
          "internalType": "address",
          "name": "spender",
          "type": "address"
        },
        {
          "indexed": false,
          "internalType": "uint256",
          "name": "value",
          "type": "uint256"
        }
      ],
      "name": "Approval",
      "type": "event"
    },
    {
      "anonymous": false,
      "inputs": [],
      "name": "EIP712DomainChanged",
      "type": "event"
    },
    {
      "anonymous": false,
      "inputs": [
        {
          "indexed": true,
          "internalType": "enum Token.TradeType",
          "name": "tradeType",
          "type": "uint8"
        },
        {
          "indexed": true,
          "internalType": "address",
          "name": "account",
          "type": "address"
        },
        {
          "indexed": false,
          "internalType": "uint256",
          "name": "ethAmount",
          "type": "uint256"
        },
        {
          "indexed": false,
          "internalType": "uint256",
          "name": "tokenAmount",
          "type": "uint256"
        },
        {
          "indexed": false,
          "internalType": "uint256",
          "name": "fee",
          "type": "uint256"
        }
      ],
      "name": "Trade",
      "type": "event"
    },
    {
      "anonymous": false,
      "inputs": [
        {
          "indexed": true,
          "internalType": "address",
          "name": "from",
          "type": "address"
        },
        {
          "indexed": true,
          "internalType": "address",
          "name": "to",
          "type": "address"
        },
        {
          "indexed": false,
          "internalType": "uint256",
          "name": "value",
          "type": "uint256"
        }
      ],
      "name": "Transfer",
      "type": "event"
    },
    {
      "stateMutability": "payable",
      "type": "fallback"
    },
    {
      "inputs": [],
      "name": "DOMAIN_SEPARATOR",
      "outputs": [
        {
          "internalType": "bytes32",
          "name": "",
          "type": "bytes32"
        }
      ],
      "stateMutability": "view",
      "type": "function"
    },
    {
      "inputs": [],
      "name": "FEE_RATE",
      "outputs": [
        {
          "internalType": "uint256",
          "name": "",
          "type": "uint256"
        }
      ],
      "stateMutability": "view",
      "type": "function"
    },
    {
      "inputs": [
        {
          "internalType": "address",
          "name": "owner",
          "type": "address"
        },
        {
          "internalType": "address",
          "name": "spender",
          "type": "address"
        }
      ],
      "name": "allowance",
      "outputs": [
        {
          "internalType": "uint256",
          "name": "",
          "type": "uint256"
        }
      ],
      "stateMutability": "view",
      "type": "function"
    },
    {
      "inputs": [
        {
          "internalType": "address",
          "name": "spender",
          "type": "address"
        },
        {
          "internalType": "uint256",
          "name": "value",
          "type": "uint256"
        }
      ],
      "name": "approve",
      "outputs": [
        {
          "internalType": "bool",
          "name": "",
          "type": "bool"
        }
      ],
      "stateMutability": "nonpayable",
      "type": "function"
    },
    {
      "inputs": [
        {
          "internalType": "address",
          "name": "account",
          "type": "address"
        }
      ],
      "name": "balanceOf",
      "outputs": [
        {
          "internalType": "uint256",
          "name": "",
          "type": "uint256"
        }
      ],
      "stateMutability": "view",
      "type": "function"
    },
    {
      "inputs": [],
      "name": "buy",
      "outputs": [],
      "stateMutability": "payable",
      "type": "function"
    },
    {
      "inputs": [],
      "name": "decimals",
      "outputs": [
        {
          "internalType": "uint8",
          "name": "",
          "type": "uint8"
        }
      ],
      "stateMutability": "view",
      "type": "function"
    },
    {
      "inputs": [],
      "name": "eip712Domain",
      "outputs": [
        {
          "internalType": "bytes1",
          "name": "fields",
          "type": "bytes1"
        },
        {
          "internalType": "string",
          "name": "name",
          "type": "string"
        },
        {
          "internalType": "string",
          "name": "version",
          "type": "string"
        },
        {
          "internalType": "uint256",
          "name": "chainId",
          "type": "uint256"
        },
        {
          "internalType": "address",
          "name": "verifyingContract",
          "type": "address"
        },
        {
          "internalType": "bytes32",
          "name": "salt",
          "type": "bytes32"
        },
        {
          "internalType": "uint256[]",
          "name": "extensions",
          "type": "uint256[]"
        }
      ],
      "stateMutability": "view",
      "type": "function"
    },
    {
      "inputs": [],
      "name": "founder",
      "outputs": [
        {
          "internalType": "address",
          "name": "",
          "type": "address"
        }
      ],
      "stateMutability": "view",
      "type": "function"
    },
    {
      "inputs": [],
      "name": "getExcessEth",
      "outputs": [
        {
          "internalType": "uint256",
          "name": "",
          "type": "uint256"
        }
      ],
      "stateMutability": "view",
      "type": "function"
    },
    {
      "inputs": [],
      "name": "getExcessToken",
      "outputs": [
        {
          "internalType": "uint256",
          "name": "",
          "type": "uint256"
        }
      ],
      "stateMutability": "view",
      "type": "function"
    },
    {
      "inputs": [],
      "name": "initialX",
      "outputs": [
        {
          "internalType": "uint256",
          "name": "",
          "type": "uint256"
        }
      ],
      "stateMutability": "view",
      "type": "function"
    },
    {
      "inputs": [],
      "name": "initialY",
      "outputs": [
        {
          "internalType": "uint256",
          "name": "",
          "type": "uint256"
        }
      ],
      "stateMutability": "view",
      "type": "function"
    },
    {
      "inputs": [],
      "name": "k",
      "outputs": [
        {
          "internalType": "uint256",
          "name": "",
          "type": "uint256"
        }
      ],
      "stateMutability": "view",
      "type": "function"
    },
    {
      "inputs": [],
      "name": "name",
      "outputs": [
        {
          "internalType": "string",
          "name": "",
          "type": "string"
        }
      ],
      "stateMutability": "view",
      "type": "function"
    },
    {
      "inputs": [
        {
          "internalType": "address",
          "name": "owner",
          "type": "address"
        }
      ],
      "name": "nonces",
      "outputs": [
        {
          "internalType": "uint256",
          "name": "",
          "type": "uint256"
        }
      ],
      "stateMutability": "view",
      "type": "function"
    },
    {
      "inputs": [
        {
          "internalType": "address",
          "name": "owner",
          "type": "address"
        },
        {
          "internalType": "address",
          "name": "spender",
          "type": "address"
        },
        {
          "internalType": "uint256",
          "name": "value",
          "type": "uint256"
        },
        {
          "internalType": "uint256",
          "name": "deadline",
          "type": "uint256"
        },
        {
          "internalType": "uint8",
          "name": "v",
          "type": "uint8"
        },
        {
          "internalType": "bytes32",
          "name": "r",
          "type": "bytes32"
        },
        {
          "internalType": "bytes32",
          "name": "s",
          "type": "bytes32"
        }
      ],
      "name": "permit",
      "outputs": [],
      "stateMutability": "nonpayable",
      "type": "function"
    },
    {
      "inputs": [
        {
          "internalType": "uint256",
          "name": "tokenAmount",
          "type": "uint256"
        }
      ],
      "name": "sell",
      "outputs": [],
      "stateMutability": "payable",
      "type": "function"
    },
    {
      "inputs": [],
      "name": "symbol",
      "outputs": [
        {
          "internalType": "string",
          "name": "",
          "type": "string"
        }
      ],
      "stateMutability": "view",
      "type": "function"
    },
    {
      "inputs": [],
      "name": "totalSupply",
      "outputs": [
        {
          "internalType": "uint256",
          "name": "",
          "type": "uint256"
        }
      ],
      "stateMutability": "view",
      "type": "function"
    },
    {
      "inputs": [
        {
          "internalType": "address",
          "name": "to",
          "type": "address"
        },
        {
          "internalType": "uint256",
          "name": "value",
          "type": "uint256"
        }
      ],
      "name": "transfer",
      "outputs": [
        {
          "internalType": "bool",
          "name": "",
          "type": "bool"
        }
      ],
      "stateMutability": "nonpayable",
      "type": "function"
    },
    {
      "inputs": [
        {
          "internalType": "address",
          "name": "from",
          "type": "address"
        },
        {
          "internalType": "address",
          "name": "to",
          "type": "address"
        },
        {
          "internalType": "uint256",
          "name": "value",
          "type": "uint256"
        }
      ],
      "name": "transferFrom",
      "outputs": [
        {
          "internalType": "bool",
          "name": "",
          "type": "bool"
        }
      ],
      "stateMutability": "nonpayable",
      "type": "function"
    },
    {
      "inputs": [],
      "name": "withdrawExcessEth",
      "outputs": [],
      "stateMutability": "nonpayable",
      "type": "function"
    },
    {
      "inputs": [],
      "name": "withdrawExcessToken",
      "outputs": [],
      "stateMutability": "nonpayable",
      "type": "function"
    },
    {
      "inputs": [],
      "name": "x",
      "outputs": [
        {
          "internalType": "uint256",
          "name": "",
          "type": "uint256"
        }
      ],
      "stateMutability": "view",
      "type": "function"
    },
    {
      "inputs": [],
      "name": "y",
      "outputs": [
        {
          "internalType": "uint256",
          "name": "",
          "type": "uint256"
        }
      ],
      "stateMutability": "view",
      "type": "function"
    },
    {
      "stateMutability": "payable",
      "type": "receive"
    }
  ],
  "transactionHash": "0xd9e1c45bdc9538ba17550ff85ea82921eb6471f7b36c74c4ac0a7870160e0ede",
  "args": [
    "0x45aBBC64421a54CbffF878985AE6c4F0cfacfDb7",
    "xToken",
    "XTOKEN"
  ],
  "numDeployments": 1,
  "solcInputHash": "5bc925f11419a83db8cba4dc2fb902ec",
  "bytecode": "0x6101806040526801a055690d9db800006009556b037790a0e8714009b49c0000600a553480156200002f57600080fd5b506040516200244d3803806200244d8339810160408190526200005291620002b4565b6040805180820190915260018152603160f81b602082015282908190818460036200007e8382620003cd565b5060046200008d8282620003cd565b506200009f9150839050600562000162565b61012052620000b081600662000162565b61014052815160208084019190912060e052815190820120610100524660a0526200013e60e05161010051604080517f8b73c3c69bb8fe3d512ecc4cf759cc79239f7b179b0ffacaa9a75d522b39400f60208201529081019290925260608201524660808201523060a082015260009060c00160405160208183030381529060405280519060200120905090565b60805250503060c05250506001600855506001600160a01b031661016052620004f3565b600060208351101562000182576200017a836200019b565b905062000195565b816200018f8482620003cd565b5060ff90505b92915050565b600080829050601f81511115620001d2578260405163305a27a960e01b8152600401620001c9919062000499565b60405180910390fd5b8051620001df82620004ce565b179392505050565b634e487b7160e01b600052604160045260246000fd5b60005b838110156200021a57818101518382015260200162000200565b50506000910152565b600082601f8301126200023557600080fd5b81516001600160401b0380821115620002525762000252620001e7565b604051601f8301601f19908116603f011681019082821181831017156200027d576200027d620001e7565b816040528381528660208588010111156200029757600080fd5b620002aa846020830160208901620001fd565b9695505050505050565b600080600060608486031215620002ca57600080fd5b83516001600160a01b0381168114620002e257600080fd5b60208501519093506001600160401b03808211156200030057600080fd5b6200030e8783880162000223565b935060408601519150808211156200032557600080fd5b50620003348682870162000223565b9150509250925092565b600181811c908216806200035357607f821691505b6020821081036200037457634e487b7160e01b600052602260045260246000fd5b50919050565b601f821115620003c857600081815260208120601f850160051c81016020861015620003a35750805b601f850160051c820191505b81811015620003c457828155600101620003af565b5050505b505050565b81516001600160401b03811115620003e957620003e9620001e7565b6200040181620003fa84546200033e565b846200037a565b602080601f831160018114620004395760008415620004205750858301515b600019600386901b1c1916600185901b178555620003c4565b600085815260208120601f198616915b828110156200046a5788860151825594840194600190910190840162000449565b5085821015620004895787850151600019600388901b60f8161c191681555b5050505050600190811b01905550565b6020815260008251806020840152620004ba816040850160208701620001fd565b601f01601f19169190910160400192915050565b80516020808301519190811015620003745760001960209190910360031b1b16919050565b60805160a05160c05160e05161010051610120516101405161016051611ed862000575600039600081816102e9015281816105fb0152818161073b015281816108370152610939015260006112d8015260006112ab0152600061116f01526000611147015260006110a2015260006110cc015260006110f60152611ed86000f3fe60806040526004361061018d5760003560e01c80637ecebe00116100d5578063a9059cbb11610084578063d955b0f311610061578063d955b0f31461046b578063dd62ed3e1461048b578063e4849b32146104de578063ffdd6dd8146104f157005b8063a9059cbb14610403578063b4f40c6114610423578063d505accf1461044b57005b806395d89b41116100b257806395d89b41146103d0578063a56dfe4a146103e5578063a6f2ae3a146103fb57005b80637ecebe001461037357806382a00b3c1461039357806384b0196e146103a857005b80632d11c58a1161013c5780633644e515116101195780633644e515146102ad5780634d4beb3b146102c25780634d853ee5146102d757806370a082311461033057005b80632d11c58a14610267578063313ce5671461027c57806332d5d74e1461029857005b80630c55699c1161016a5780630c55699c1461021c57806318160ddd1461023257806323b872dd1461024757005b806306fdde0314610196578063095ea7b3146101c15780630c0f9f2d146101f157005b3661019457005b005b3480156101a257600080fd5b506101ab610513565b6040516101b89190611af9565b60405180910390f35b3480156101cd57600080fd5b506101e16101dc366004611b3c565b6105a5565b60405190151581526020016101b8565b3480156101fd57600080fd5b5061020e6801a055690d9db8000081565b6040519081526020016101b8565b34801561022857600080fd5b5061020e60095481565b34801561023e57600080fd5b5060025461020e565b34801561025357600080fd5b506101e1610262366004611b66565b6105bf565b34801561027357600080fd5b5061020e600181565b34801561028857600080fd5b50604051601281526020016101b8565b3480156102a457600080fd5b506101946105e3565b3480156102b957600080fd5b5061020e6107b9565b3480156102ce57600080fd5b5061020e6107c8565b3480156102e357600080fd5b5061030b7f000000000000000000000000000000000000000000000000000000000000000081565b60405173ffffffffffffffffffffffffffffffffffffffff90911681526020016101b8565b34801561033c57600080fd5b5061020e61034b366004611ba2565b73ffffffffffffffffffffffffffffffffffffffff1660009081526020819052604090205490565b34801561037f57600080fd5b5061020e61038e366004611ba2565b6107f4565b34801561039f57600080fd5b5061019461081f565b3480156103b457600080fd5b506103bd610961565b6040516101b89796959493929190611bbd565b3480156103dc57600080fd5b506101ab6109c3565b3480156103f157600080fd5b5061020e600a5481565b6101946109d2565b34801561040f57600080fd5b506101e161041e366004611b3c565b610b40565b34801561042f57600080fd5b5061020e7305a37324b8ac5eceebef390a22a97c200000000081565b34801561045757600080fd5b50610194610466366004611c7c565b610b4e565b34801561047757600080fd5b5061020e6b037790a0e8714009b49c000081565b34801561049757600080fd5b5061020e6104a6366004611cef565b73ffffffffffffffffffffffffffffffffffffffff918216600090815260016020908152604080832093909416825291909152205490565b6101946104ec366004611d22565b610cfb565b3480156104fd57600080fd5b503060009081526020819052604090205461020e565b60606003805461052290611d3b565b80601f016020809104026020016040519081016040528092919081815260200182805461054e90611d3b565b801561059b5780601f106105705761010080835404028352916020019161059b565b820191906000526020600020905b81548152906001019060200180831161057e57829003601f168201915b5050505050905090565b6000336105b3818585610efc565b60019150505b92915050565b6000336105cd858285610f0e565b6105d8858585610fdd565b506001949350505050565b3373ffffffffffffffffffffffffffffffffffffffff7f00000000000000000000000000000000000000000000000000000000000000001614610687576040517f08c379a000000000000000000000000000000000000000000000000000000000815260206004820152600c60248201527f4f6e6c7920466f756e646572000000000000000000000000000000000000000060448201526064015b60405180910390fd5b30600090815260208190526040902054806106fe576040517f08c379a000000000000000000000000000000000000000000000000000000000815260206004820152601a60248201527f4e6f206578636573732050454e5820746f207769746864726177000000000000604482015260640161067e565b6040517fa9059cbb00000000000000000000000000000000000000000000000000000000815273ffffffffffffffffffffffffffffffffffffffff7f000000000000000000000000000000000000000000000000000000000000000016600482015260248101829052309063a9059cbb906044016020604051808303816000875af1158015610791573d6000803e3d6000fd5b505050506040513d601f19601f820116820180604052508101906107b59190611d8e565b5050565b60006107c3611088565b905090565b6000806801a055690d9db800006009546107e29190611ddf565b90506107ee8147611ddf565b91505090565b73ffffffffffffffffffffffffffffffffffffffff81166000908152600760205260408120546105b9565b3373ffffffffffffffffffffffffffffffffffffffff7f000000000000000000000000000000000000000000000000000000000000000016146108be576040517f08c379a000000000000000000000000000000000000000000000000000000000815260206004820152600c60248201527f4f6e6c7920466f756e6465720000000000000000000000000000000000000000604482015260640161067e565b60006108c86107c8565b905060008111610934576040517f08c379a000000000000000000000000000000000000000000000000000000000815260206004820152601960248201527f4e6f206578636573732045544820746f20776974686472617700000000000000604482015260640161067e565b61095e7f0000000000000000000000000000000000000000000000000000000000000000826111c0565b50565b6000606080600080600060606109756112a4565b61097d6112d1565b604080516000808252602082019092527f0f000000000000000000000000000000000000000000000000000000000000009b939a50919850469750309650945092509050565b60606004805461052290611d3b565b6109da6112fe565b3480610a67576040517f08c379a0000000000000000000000000000000000000000000000000000000008152602060048201526024808201527f45544820616d6f756e74206d7573742062652067726561746572207468616e2060448201527f7a65726f00000000000000000000000000000000000000000000000000000000606482015260840161067e565b60006064610a76600184611df2565b610a809190611e09565b90506000610a8e8284611ddf565b9050600081600954610aa09190611e44565b90506000610ac2827305a37324b8ac5eceebef390a22a97c2000000000611e09565b9050600081600a54610ad49190611ddf565b6009849055600a8390559050610aea3382611341565b33600060408051898152602081018590529081018890527ff660d6af156f2b284576f789df6df4915f78d4fef681203d39da097c588c85329060600160405180910390a3505050505050610b3e6001600855565b565b6000336105b3818585610fdd565b83421115610b8b576040517f627913020000000000000000000000000000000000000000000000000000000081526004810185905260240161067e565b60007f6e71edae12b1b97f4d1f60370fef10105fa2faae0126114a169c64845d6126c9888888610be58c73ffffffffffffffffffffffffffffffffffffffff16600090815260076020526040902080546001810190915590565b60408051602081019690965273ffffffffffffffffffffffffffffffffffffffff94851690860152929091166060840152608083015260a082015260c0810186905260e0016040516020818303038152906040528051906020012090506000610c4d8261139d565b90506000610c5d828787876113e5565b90508973ffffffffffffffffffffffffffffffffffffffff168173ffffffffffffffffffffffffffffffffffffffff1614610ce4576040517f4b800e4600000000000000000000000000000000000000000000000000000000815273ffffffffffffffffffffffffffffffffffffffff80831660048301528b16602482015260440161067e565b610cef8a8a8a610efc565b50505050505050505050565b610d036112fe565b60008111610d93576040517f08c379a000000000000000000000000000000000000000000000000000000000815260206004820152602660248201527f546f6b656e20616d6f756e74206d75737420626520677265617465722074686160448201527f6e207a65726f0000000000000000000000000000000000000000000000000000606482015260840161067e565b60006064610da2600184611df2565b610dac9190611e09565b90506000610dba8284611ddf565b9050600081600a54610dcc9190611e44565b90506000610dee827305a37324b8ac5eceebef390a22a97c2000000000611e09565b9050600081600954610e009190611ddf565b600a84905560098390556040517f23b872dd0000000000000000000000000000000000000000000000000000000081523360048201523060248201819052604482018990529192506323b872dd906064016020604051808303816000875af1158015610e70573d6000803e3d6000fd5b505050506040513d601f19601f82011682018060405250810190610e949190611d8e565b50610e9f3085611413565b610ea933826111c0565b33600160408051848152602081018a90529081018890527ff660d6af156f2b284576f789df6df4915f78d4fef681203d39da097c588c85329060600160405180910390a3505050505061095e6001600855565b610f09838383600161146f565b505050565b73ffffffffffffffffffffffffffffffffffffffff8381166000908152600160209081526040808320938616835292905220547fffffffffffffffffffffffffffffffffffffffffffffffffffffffffffffffff8114610fd75781811015610fc8576040517ffb8f41b200000000000000000000000000000000000000000000000000000000815273ffffffffffffffffffffffffffffffffffffffff84166004820152602481018290526044810183905260640161067e565b610fd78484848403600061146f565b50505050565b73ffffffffffffffffffffffffffffffffffffffff831661102d576040517f96c6fd1e0000000000000000000000000000000000000000000000000000000081526000600482015260240161067e565b73ffffffffffffffffffffffffffffffffffffffff821661107d576040517fec442f050000000000000000000000000000000000000000000000000000000081526000600482015260240161067e565b610f098383836115b7565b60003073ffffffffffffffffffffffffffffffffffffffff7f0000000000000000000000000000000000000000000000000000000000000000161480156110ee57507f000000000000000000000000000000000000000000000000000000000000000046145b1561111857507f000000000000000000000000000000000000000000000000000000000000000090565b6107c3604080517f8b73c3c69bb8fe3d512ecc4cf759cc79239f7b179b0ffacaa9a75d522b39400f60208201527f0000000000000000000000000000000000000000000000000000000000000000918101919091527f000000000000000000000000000000000000000000000000000000000000000060608201524660808201523060a082015260009060c00160405160208183030381529060405280519060200120905090565b6040805160008082526020820190925273ffffffffffffffffffffffffffffffffffffffff84169083906040516111f79190611e86565b60006040518083038185875af1925050503d8060008114611234576040519150601f19603f3d011682016040523d82523d6000602084013e611239565b606091505b5050905080610f09576040517f08c379a000000000000000000000000000000000000000000000000000000000815260206004820152601360248201527f455448207472616e73666572206661696c656400000000000000000000000000604482015260640161067e565b60606107c37f00000000000000000000000000000000000000000000000000000000000000006005611762565b60606107c37f00000000000000000000000000000000000000000000000000000000000000006006611762565b60026008540361133a576040517f3ee5aeb500000000000000000000000000000000000000000000000000000000815260040160405180910390fd5b6002600855565b73ffffffffffffffffffffffffffffffffffffffff8216611391576040517fec442f050000000000000000000000000000000000000000000000000000000081526000600482015260240161067e565b6107b5600083836115b7565b60006105b96113aa611088565b836040517f19010000000000000000000000000000000000000000000000000000000000008152600281019290925260228201526042902090565b6000806000806113f78888888861180d565b9250925092506114078282611907565b50909695505050505050565b73ffffffffffffffffffffffffffffffffffffffff8216611463576040517f96c6fd1e0000000000000000000000000000000000000000000000000000000081526000600482015260240161067e565b6107b5826000836115b7565b73ffffffffffffffffffffffffffffffffffffffff84166114bf576040517fe602df050000000000000000000000000000000000000000000000000000000081526000600482015260240161067e565b73ffffffffffffffffffffffffffffffffffffffff831661150f576040517f94280d620000000000000000000000000000000000000000000000000000000081526000600482015260240161067e565b73ffffffffffffffffffffffffffffffffffffffff80851660009081526001602090815260408083209387168352929052208290558015610fd7578273ffffffffffffffffffffffffffffffffffffffff168473ffffffffffffffffffffffffffffffffffffffff167f8c5be1e5ebec7d5bd14f71427d1e84f3dd0314c0f7b2291e5b200ac8c7c3b925846040516115a991815260200190565b60405180910390a350505050565b73ffffffffffffffffffffffffffffffffffffffff83166115ef5780600260008282546115e49190611e44565b909155506116a19050565b73ffffffffffffffffffffffffffffffffffffffff831660009081526020819052604090205481811015611675576040517fe450d38c00000000000000000000000000000000000000000000000000000000815273ffffffffffffffffffffffffffffffffffffffff85166004820152602481018290526044810183905260640161067e565b73ffffffffffffffffffffffffffffffffffffffff841660009081526020819052604090209082900390555b73ffffffffffffffffffffffffffffffffffffffff82166116ca576002805482900390556116f6565b73ffffffffffffffffffffffffffffffffffffffff821660009081526020819052604090208054820190555b8173ffffffffffffffffffffffffffffffffffffffff168373ffffffffffffffffffffffffffffffffffffffff167fddf252ad1be2c89b69c2b068fc378daa952ba7f163c4a11628f55a4df523b3ef8360405161175591815260200190565b60405180910390a3505050565b606060ff831461177c5761177583611a0b565b90506105b9565b81805461178890611d3b565b80601f01602080910402602001604051908101604052809291908181526020018280546117b490611d3b565b80156118015780601f106117d657610100808354040283529160200191611801565b820191906000526020600020905b8154815290600101906020018083116117e457829003601f168201915b505050505090506105b9565b600080807f7fffffffffffffffffffffffffffffff5d576e7357a4501ddfe92f46681b20a084111561184857506000915060039050826118fd565b604080516000808252602082018084528a905260ff891692820192909252606081018790526080810186905260019060a0016020604051602081039080840390855afa15801561189c573d6000803e3d6000fd5b50506040517fffffffffffffffffffffffffffffffffffffffffffffffffffffffffffffffe0015191505073ffffffffffffffffffffffffffffffffffffffff81166118f3575060009250600191508290506118fd565b9250600091508190505b9450945094915050565b600082600381111561191b5761191b611e57565b03611924575050565b600182600381111561193857611938611e57565b0361196f576040517ff645eedf00000000000000000000000000000000000000000000000000000000815260040160405180910390fd5b600282600381111561198357611983611e57565b036119bd576040517ffce698f70000000000000000000000000000000000000000000000000000000081526004810182905260240161067e565b60038260038111156119d1576119d1611e57565b036107b5576040517fd78bce0c0000000000000000000000000000000000000000000000000000000081526004810182905260240161067e565b60606000611a1883611a4a565b604080516020808252818301909252919250600091906020820181803683375050509182525060208101929092525090565b600060ff8216601f8111156105b9576040517fb3512b0c00000000000000000000000000000000000000000000000000000000815260040160405180910390fd5b60005b83811015611aa6578181015183820152602001611a8e565b50506000910152565b60008151808452611ac7816020860160208601611a8b565b601f017fffffffffffffffffffffffffffffffffffffffffffffffffffffffffffffffe0169290920160200192915050565b602081526000611b0c6020830184611aaf565b9392505050565b803573ffffffffffffffffffffffffffffffffffffffff81168114611b3757600080fd5b919050565b60008060408385031215611b4f57600080fd5b611b5883611b13565b946020939093013593505050565b600080600060608486031215611b7b57600080fd5b611b8484611b13565b9250611b9260208501611b13565b9150604084013590509250925092565b600060208284031215611bb457600080fd5b611b0c82611b13565b7fff00000000000000000000000000000000000000000000000000000000000000881681526000602060e081840152611bf960e084018a611aaf565b8381036040850152611c0b818a611aaf565b6060850189905273ffffffffffffffffffffffffffffffffffffffff8816608086015260a0850187905284810360c0860152855180825283870192509083019060005b81811015611c6a57835183529284019291840191600101611c4e565b50909c9b505050505050505050505050565b600080600080600080600060e0888a031215611c9757600080fd5b611ca088611b13565b9650611cae60208901611b13565b95506040880135945060608801359350608088013560ff81168114611cd257600080fd5b9699959850939692959460a0840135945060c09093013592915050565b60008060408385031215611d0257600080fd5b611d0b83611b13565b9150611d1960208401611b13565b90509250929050565b600060208284031215611d3457600080fd5b5035919050565b600181811c90821680611d4f57607f821691505b602082108103611d88577f4e487b7100000000000000000000000000000000000000000000000000000000600052602260045260246000fd5b50919050565b600060208284031215611da057600080fd5b81518015158114611b0c57600080fd5b7f4e487b7100000000000000000000000000000000000000000000000000000000600052601160045260246000fd5b818103818111156105b9576105b9611db0565b80820281158282048414176105b9576105b9611db0565b600082611e3f577f4e487b7100000000000000000000000000000000000000000000000000000000600052601260045260246000fd5b500490565b808201808211156105b9576105b9611db0565b7f4e487b7100000000000000000000000000000000000000000000000000000000600052602160045260246000fd5b60008251611e98818460208701611a8b565b919091019291505056fea26469706673582212200023a70907302cf232980124734084c659b791a3d6f91732cbec47543f43011864736f6c63430008140033",
  "libraries": {},
  "devdoc": {
    "errors": {
      "ECDSAInvalidSignature()": [
        {
          "details": "The signature derives the `address(0)`."
        }
      ],
      "ECDSAInvalidSignatureLength(uint256)": [
        {
          "details": "The signature has an invalid length."
        }
      ],
      "ECDSAInvalidSignatureS(bytes32)": [
        {
          "details": "The signature has an S value that is in the upper half order."
        }
      ],
      "ERC20InsufficientAllowance(address,uint256,uint256)": [
        {
          "details": "Indicates a failure with the `spender`s `allowance`. Used in transfers.",
          "params": {
            "allowance": "Amount of tokens a `spender` is allowed to operate with.",
            "needed": "Minimum amount required to perform a transfer.",
            "spender": "Address that may be allowed to operate on tokens without being their owner."
          }
        }
      ],
      "ERC20InsufficientBalance(address,uint256,uint256)": [
        {
          "details": "Indicates an error related to the current `balance` of a `sender`. Used in transfers.",
          "params": {
            "balance": "Current balance for the interacting account.",
            "needed": "Minimum amount required to perform a transfer.",
            "sender": "Address whose tokens are being transferred."
          }
        }
      ],
      "ERC20InvalidApprover(address)": [
        {
          "details": "Indicates a failure with the `approver` of a token to be approved. Used in approvals.",
          "params": {
            "approver": "Address initiating an approval operation."
          }
        }
      ],
      "ERC20InvalidReceiver(address)": [
        {
          "details": "Indicates a failure with the token `receiver`. Used in transfers.",
          "params": {
            "receiver": "Address to which tokens are being transferred."
          }
        }
      ],
      "ERC20InvalidSender(address)": [
        {
          "details": "Indicates a failure with the token `sender`. Used in transfers.",
          "params": {
            "sender": "Address whose tokens are being transferred."
          }
        }
      ],
      "ERC20InvalidSpender(address)": [
        {
          "details": "Indicates a failure with the `spender` to be approved. Used in approvals.",
          "params": {
            "spender": "Address that may be allowed to operate on tokens without being their owner."
          }
        }
      ],
      "ERC2612ExpiredSignature(uint256)": [
        {
          "details": "Permit deadline has expired."
        }
      ],
      "ERC2612InvalidSigner(address,address)": [
        {
          "details": "Mismatched signature."
        }
      ],
      "InvalidAccountNonce(address,uint256)": [
        {
          "details": "The nonce used for an `account` is not the expected current nonce."
        }
      ],
      "ReentrancyGuardReentrantCall()": [
        {
          "details": "Unauthorized reentrant call."
        }
      ]
    },
    "events": {
      "Approval(address,address,uint256)": {
        "details": "Emitted when the allowance of a `spender` for an `owner` is set by a call to {approve}. `value` is the new allowance."
      },
      "EIP712DomainChanged()": {
        "details": "MAY be emitted to signal that the domain could have changed."
      },
      "Transfer(address,address,uint256)": {
        "details": "Emitted when `value` tokens are moved from one account (`from`) to another (`to`). Note that `value` may be zero."
      }
    },
    "kind": "dev",
    "methods": {
      "DOMAIN_SEPARATOR()": {
        "details": "Returns the domain separator used in the encoding of the signature for {permit}, as defined by {EIP712}."
      },
      "allowance(address,address)": {
        "details": "See {IERC20-allowance}."
      },
      "approve(address,uint256)": {
        "details": "See {IERC20-approve}. NOTE: If `value` is the maximum `uint256`, the allowance is not updated on `transferFrom`. This is semantically equivalent to an infinite approval. Requirements: - `spender` cannot be the zero address."
      },
      "balanceOf(address)": {
        "details": "See {IERC20-balanceOf}."
      },
      "decimals()": {
        "details": "Returns the number of decimals used to get its user representation. For example, if `decimals` equals `2`, a balance of `505` tokens should be displayed to a user as `5.05` (`505 / 10 ** 2`). Tokens usually opt for a value of 18, imitating the relationship between Ether and Wei. This is the default value returned by this function, unless it's overridden. NOTE: This information is only used for _display_ purposes: it in no way affects any of the arithmetic of the contract, including {IERC20-balanceOf} and {IERC20-transfer}."
      },
      "eip712Domain()": {
        "details": "See {IERC-5267}."
      },
      "name()": {
        "details": "Returns the name of the token."
      },
      "nonces(address)": {
        "details": "Returns the current nonce for `owner`. This value must be included whenever a signature is generated for {permit}. Every successful call to {permit} increases ``owner``'s nonce by one. This prevents a signature from being used multiple times."
      },
      "permit(address,address,uint256,uint256,uint8,bytes32,bytes32)": {
        "details": "Sets `value` as the allowance of `spender` over ``owner``'s tokens, given ``owner``'s signed approval. IMPORTANT: The same issues {IERC20-approve} has related to transaction ordering also apply here. Emits an {Approval} event. Requirements: - `spender` cannot be the zero address. - `deadline` must be a timestamp in the future. - `v`, `r` and `s` must be a valid `secp256k1` signature from `owner` over the EIP712-formatted function arguments. - the signature must use ``owner``'s current nonce (see {nonces}). For more information on the signature format, see the https://eips.ethereum.org/EIPS/eip-2612#specification[relevant EIP section]. CAUTION: See Security Considerations above."
      },
      "symbol()": {
        "details": "Returns the symbol of the token, usually a shorter version of the name."
      },
      "totalSupply()": {
        "details": "See {IERC20-totalSupply}."
      },
      "transfer(address,uint256)": {
        "details": "See {IERC20-transfer}. Requirements: - `to` cannot be the zero address. - the caller must have a balance of at least `value`."
      },
      "transferFrom(address,address,uint256)": {
        "details": "See {IERC20-transferFrom}. Emits an {Approval} event indicating the updated allowance. This is not required by the EIP. See the note at the beginning of {ERC20}. NOTE: Does not update the allowance if the current allowance is the maximum `uint256`. Requirements: - `from` and `to` cannot be the zero address. - `from` must have a balance of at least `value`. - the caller must have allowance for ``from``'s tokens of at least `value`."
      }
    },
    "version": 1
  },
  "userdoc": {
    "kind": "user",
    "methods": {},
    "version": 1
  },
  "storageLayout": {
    "storage": [
      {
        "astId": 1817,
        "contract": "contracts/space/Token.sol:Token",
        "label": "_balances",
        "offset": 0,
        "slot": "0",
        "type": "t_mapping(t_address,t_uint256)"
      },
      {
        "astId": 1823,
        "contract": "contracts/space/Token.sol:Token",
        "label": "_allowances",
        "offset": 0,
        "slot": "1",
        "type": "t_mapping(t_address,t_mapping(t_address,t_uint256))"
      },
      {
        "astId": 1825,
        "contract": "contracts/space/Token.sol:Token",
        "label": "_totalSupply",
        "offset": 0,
        "slot": "2",
        "type": "t_uint256"
      },
      {
        "astId": 1827,
        "contract": "contracts/space/Token.sol:Token",
        "label": "_name",
        "offset": 0,
        "slot": "3",
        "type": "t_string_storage"
      },
      {
        "astId": 1829,
        "contract": "contracts/space/Token.sol:Token",
        "label": "_symbol",
        "offset": 0,
        "slot": "4",
        "type": "t_string_storage"
      },
      {
        "astId": 4463,
        "contract": "contracts/space/Token.sol:Token",
        "label": "_nameFallback",
        "offset": 0,
        "slot": "5",
        "type": "t_string_storage"
      },
      {
        "astId": 4465,
        "contract": "contracts/space/Token.sol:Token",
        "label": "_versionFallback",
        "offset": 0,
        "slot": "6",
        "type": "t_string_storage"
      },
      {
        "astId": 3373,
        "contract": "contracts/space/Token.sol:Token",
        "label": "_nonces",
        "offset": 0,
        "slot": "7",
        "type": "t_mapping(t_address,t_uint256)"
      },
      {
        "astId": 3438,
        "contract": "contracts/space/Token.sol:Token",
        "label": "_status",
        "offset": 0,
        "slot": "8",
        "type": "t_uint256"
      },
      {
        "astId": 7051,
        "contract": "contracts/space/Token.sol:Token",
        "label": "x",
        "offset": 0,
        "slot": "9",
        "type": "t_uint256"
      },
      {
        "astId": 7054,
        "contract": "contracts/space/Token.sol:Token",
        "label": "y",
        "offset": 0,
        "slot": "10",
        "type": "t_uint256"
      }
    ],
    "types": {
      "t_address": {
        "encoding": "inplace",
        "label": "address",
        "numberOfBytes": "20"
      },
      "t_mapping(t_address,t_mapping(t_address,t_uint256))": {
        "encoding": "mapping",
        "key": "t_address",
        "label": "mapping(address => mapping(address => uint256))",
        "numberOfBytes": "32",
        "value": "t_mapping(t_address,t_uint256)"
      },
      "t_mapping(t_address,t_uint256)": {
        "encoding": "mapping",
        "key": "t_address",
        "label": "mapping(address => uint256)",
        "numberOfBytes": "32",
        "value": "t_uint256"
      },
      "t_string_storage": {
        "encoding": "bytes",
        "label": "string",
        "numberOfBytes": "32"
      },
      "t_uint256": {
        "encoding": "inplace",
        "label": "uint256",
        "numberOfBytes": "32"
      }
    }
  }
}