{
  "address": "0x8e7E243F01144b0eE28b5D92F5443595941361f8",
  "abi": [
    {
      "inputs": [
        {
          "internalType": "address",
          "name": "target",
          "type": "address"
        }
      ],
      "name": "AddressEmptyCode",
      "type": "error"
    },
    {
      "inputs": [
        {
          "internalType": "address",
          "name": "account",
          "type": "address"
        }
      ],
      "name": "AddressInsufficientBalance",
      "type": "error"
    },
    {
      "inputs": [],
      "name": "FailedInnerCall",
      "type": "error"
    },
    {
      "inputs": [
        {
          "internalType": "address",
          "name": "token",
          "type": "address"
        }
      ],
      "name": "SafeERC20FailedOperation",
      "type": "error"
    },
    {
      "anonymous": false,
      "inputs": [
        {
          "indexed": true,
          "internalType": "enum Token.TradeType",
          "name": "tradeType",
          "type": "uint8"
        },
        {
          "indexed": true,
          "internalType": "address",
          "name": "account",
          "type": "address"
        },
        {
          "indexed": false,
          "internalType": "uint256",
          "name": "ethAmount",
          "type": "uint256"
        },
        {
          "indexed": false,
          "internalType": "uint256",
          "name": "tokenAmount",
          "type": "uint256"
        },
        {
          "indexed": false,
          "internalType": "uint256",
          "name": "protocolFee",
          "type": "uint256"
        }
      ],
      "name": "Trade",
      "type": "event"
    },
    {
      "inputs": [],
      "name": "INSURANCE_FEE_RATE",
      "outputs": [
        {
          "internalType": "uint256",
          "name": "",
          "type": "uint256"
        }
      ],
      "stateMutability": "view",
      "type": "function"
    },
    {
      "inputs": [],
      "name": "PROTOCOL_FEE_RATE",
      "outputs": [
        {
          "internalType": "uint256",
          "name": "",
          "type": "uint256"
        }
      ],
      "stateMutability": "view",
      "type": "function"
    },
    {
      "inputs": [],
      "name": "initialK",
      "outputs": [
        {
          "internalType": "uint256",
          "name": "",
          "type": "uint256"
        }
      ],
      "stateMutability": "view",
      "type": "function"
    },
    {
      "inputs": [],
      "name": "initialX",
      "outputs": [
        {
          "internalType": "uint256",
          "name": "",
          "type": "uint256"
        }
      ],
      "stateMutability": "view",
      "type": "function"
    },
    {
      "inputs": [],
      "name": "initialY",
      "outputs": [
        {
          "internalType": "uint256",
          "name": "",
          "type": "uint256"
        }
      ],
      "stateMutability": "view",
      "type": "function"
    }
  ],
  "transactionHash": "0xe40f841afa03783ecd9acd6fba39f47a8948d3b75a936fb86616a58344270c43",
  "args": [],
  "numDeployments": 1,
  "solcInputHash": "c317ce824f14e747f9198cf2e70b0eb1",
  "bytecode": "0x6109f561003a600b82828239805160001a60731461002d57634e487b7160e01b600052600060045260246000fd5b30600052607381538281f3fe73000000000000000000000000000000000000000030146080604052600436106100c85760003560e01c8063b01d1a5511610080578063d4748d4911610065578063d4748d49146101da578063d955b0f3146101f5578063e5fadd131461020857600080fd5b8063b01d1a551461018c578063c568beef146101c757600080fd5b80633d5fa9d7116100b15780633d5fa9d7146100fe5780636f912c881461013e578063a727a3b11461014c57600080fd5b80630c0f9f2d146100cd57806310f0dde4146100f0575b600080fd5b6100dd6801a055690d9db8000081565b6040519081526020015b60405180910390f35b6100dd662386f26fc1000081565b61011161010c3660046108be565b610243565b604080519687526020870195909552938501929092526060840152608083015260a082015260c0016100e7565b6100dd66038d7ea4c6800081565b81801561015857600080fd5b5061016c6101673660046108be565b6102eb565b6040805194855260208501939093529183015260608201526080016100e7565b81801561019857600080fd5b506101ac6101a73660046108be565b610424565b604080519384526020840192909252908201526060016100e7565b6100dd6101d53660046108e0565b61051e565b6100dd7305a37324b8ac5eceebef390a22a97c200000000081565b6100dd6b037790a0e8714009b49c000081565b61021b6102163660046108be565b610559565b604080519586526020860194909452928401919091526060830152608082015260a0016100e7565b60008080808080670de0b6b3a764000061026466038d7ea4c680008961090f565b61026e9190610926565b9050670de0b6b3a764000061028a662386f26fc100008961090f565b6102949190610926565b9150806102a18389610948565b6102ab9190610948565b94508488600101546102bd919061095b565b92508288600201546102cf9190610926565b88549094506102df908590610948565b95509295509295509295565b6000806000806000851161036c5760405162461bcd60e51b815260206004820152602660248201527f546f6b656e20616d6f756e74206d75737420626520677265617465722074686160448201527f6e207a65726f000000000000000000000000000000000000000000000000000060648201526084015b60405180910390fd5b60008060008060008061037f8c8c610243565b955095509550955095509550828c60010181905550838c60000181905550808c60040160008282546103b1919061095b565b909155506103c390503033818e610607565b6103cd338761067c565b33600160408051898152602081018f90529081018590527ff660d6af156f2b284576f789df6df4915f78d4fef681203d39da097c588c85329060600160405180910390a3939b949a50985091965091945050505050565b60008060008084116104845760405162461bcd60e51b8152602060048201526024808201527f45544820616d6f756e74206d7573742062652067726561746572207468616e206044820152637a65726f60e01b6064820152608401610363565b60008060008060006104968a8a610559565b838f5560018f0183905560038f018054959a509398509196509450925082916000906104c390849061095b565b909155503390506000604080518c8152602081018990529081018590527ff660d6af156f2b284576f789df6df4915f78d4fef681203d39da097c588c85329060600160405180910390a3939650945091925050509250925092565b805460009061053590670de0b6b3a764000061095b565b82600201546105449190610926565b82600101546105539190610948565b92915050565b600080808080670de0b6b3a764000061057966038d7ea4c680008861090f565b6105839190610926565b905060006105918288610948565b88549091506105a190829061095b565b94508488600201546105b39190610926565b935060008489600101546105c79190610948565b9050670de0b6b3a76400006105e3662386f26fc100008361090f565b6105ed9190610926565b93506105f98482610948565b965050509295509295909350565b604080516001600160a01b0385811660248301528416604482015260648082018490528251808303909101815260849091019091526020810180517bffffffffffffffffffffffffffffffffffffffffffffffffffffffff166323b872dd60e01b179052610676908590610724565b50505050565b6000826001600160a01b03168260405160006040518083038185875af1925050503d80600081146106c9576040519150601f19603f3d011682016040523d82523d6000602084013e6106ce565b606091505b505090508061071f5760405162461bcd60e51b815260206004820152601360248201527f455448207472616e73666572206661696c6564000000000000000000000000006044820152606401610363565b505050565b60006107396001600160a01b03841683610787565b9050805160001415801561075e57508080602001905181019061075c919061096e565b155b1561071f57604051635274afe760e01b81526001600160a01b0384166004820152602401610363565b60606107958383600061079c565b9392505050565b6060814710156107c15760405163cd78605960e01b8152306004820152602401610363565b600080856001600160a01b031684866040516107dd9190610990565b60006040518083038185875af1925050503d806000811461081a576040519150601f19603f3d011682016040523d82523d6000602084013e61081f565b606091505b509150915061082f868383610839565b9695505050505050565b60608261084e5761084982610895565b610795565b815115801561086557506001600160a01b0384163b155b1561088e57604051639996b31560e01b81526001600160a01b0385166004820152602401610363565b5080610795565b8051156108a55780518082602001fd5b604051630a12f52160e11b815260040160405180910390fd5b600080604083850312156108d157600080fd5b50508035926020909101359150565b6000602082840312156108f257600080fd5b5035919050565b634e487b7160e01b600052601160045260246000fd5b8082028115828204841417610553576105536108f9565b60008261094357634e487b7160e01b600052601260045260246000fd5b500490565b81810381811115610553576105536108f9565b80820180821115610553576105536108f9565b60006020828403121561098057600080fd5b8151801515811461079557600080fd5b6000825160005b818110156109b15760208186018101518583015201610997565b50600092019182525091905056fea26469706673582212202f166e4cc5afd890d92ada650f98f80bfe01768b2eb9545904211c5039fcc36c64736f6c63430008140033",
  "libraries": {},
  "devdoc": {
    "errors": {
      "AddressEmptyCode(address)": [
        {
          "details": "There's no code at `target` (it is not a contract)."
        }
      ],
      "AddressInsufficientBalance(address)": [
        {
          "details": "The ETH balance of the account is not enough to perform the operation."
        }
      ],
      "FailedInnerCall()": [
        {
          "details": "A call to an address target failed. The target may have reverted."
        }
      ],
      "SafeERC20FailedOperation(address)": [
        {
          "details": "An operation with an ERC20 token failed."
        }
      ]
    },
    "kind": "dev",
    "methods": {},
    "version": 1
  },
  "userdoc": {
    "kind": "user",
    "methods": {},
    "version": 1
  },
  "storageLayout": {
    "storage": [],
    "types": null
  }
}