{
  "address": "0x3d0b48dfCb7cd78B538Aa8f8EEc414Ef8B0B3D8C",
  "abi": [
    {
      "inputs": [
        {
          "internalType": "address",
          "name": "_factory",
          "type": "address"
        }
      ],
      "stateMutability": "nonpayable",
      "type": "constructor"
    },
    {
      "stateMutability": "payable",
      "type": "fallback"
    },
    {
      "inputs": [],
      "name": "FACTORY",
      "outputs": [
        {
          "internalType": "address",
          "name": "",
          "type": "address"
        }
      ],
      "stateMutability": "view",
      "type": "function"
    },
    {
      "inputs": [
        {
          "internalType": "address",
          "name": "owner",
          "type": "address"
        }
      ],
      "name": "balanceOf",
      "outputs": [
        {
          "internalType": "uint256",
          "name": "withdrawableETHAmount",
          "type": "uint256"
        }
      ],
      "stateMutability": "view",
      "type": "function"
    },
    {
      "inputs": [],
      "name": "deposit",
      "outputs": [],
      "stateMutability": "nonpayable",
      "type": "function"
    },
    {
      "inputs": [
        {
          "internalType": "uint256",
          "name": "amount",
          "type": "uint256"
        }
      ],
      "name": "withdraw",
      "outputs": [],
      "stateMutability": "nonpayable",
      "type": "function"
    },
    {
      "inputs": [
        {
          "internalType": "uint256",
          "name": "depositedETHAmount",
          "type": "uint256"
        }
      ],
      "name": "yieldMaxClaimable",
      "outputs": [
        {
          "internalType": "uint256",
          "name": "maxClaimableETH",
          "type": "uint256"
        }
      ],
      "stateMutability": "view",
      "type": "function"
    },
    {
      "inputs": [],
      "name": "yieldToken",
      "outputs": [
        {
          "internalType": "address",
          "name": "",
          "type": "address"
        }
      ],
      "stateMutability": "view",
      "type": "function"
    },
    {
      "stateMutability": "payable",
      "type": "receive"
    }
  ],
  "transactionHash": "0x950f7f7a0d86a4ea567f84610f00b29c642819f66aeb2b4af3341d348c125517",
  "args": [
    "0xbC550b883f4cE1684E3271Ad5776eF3158E81148"
  ],
  "numDeployments": 7,
  "solcInputHash": "80b2210b7341131a2779e9b82518c024",
  "bytecode": "0x60a060405234801561001057600080fd5b506040516104d23803806104d283398101604081905261002f91610040565b6001600160a01b0316608052610070565b60006020828403121561005257600080fd5b81516001600160a01b038116811461006957600080fd5b9392505050565b60805161042c6100a66000396000818160b20152818161015c015281816101c2015281816101f7015261025e015261042c6000f3fe6080604052600436106100635760003560e01c806370a082311161004057806370a082311461010c57806376d5de8514610127578063d0e30db01461013c57005b806328e762dd1461006c5780632dd31000146100a05780632e1a7d4d146100ec57005b3661006a57005b005b34801561007857600080fd5b5061008d61008736600461037e565b50600090565b6040519081526020015b60405180910390f35b3480156100ac57600080fd5b506100d47f000000000000000000000000000000000000000000000000000000000000000081565b6040516001600160a01b039091168152602001610097565b3480156100f857600080fd5b5061006a61010736600461037e565b610151565b34801561011857600080fd5b5061008d610087366004610397565b34801561013357600080fd5b506100d46101ea565b34801561014857600080fd5b5061006a610253565b336001600160a01b037f000000000000000000000000000000000000000000000000000000000000000016146101bd5760405162461bcd60e51b815260206004820152600c60248201526b4f6e6c7920466163746f727960a01b60448201526064015b60405180910390fd5b6101e77f0000000000000000000000000000000000000000000000000000000000000000826102bc565b50565b6000336001600160a01b037f000000000000000000000000000000000000000000000000000000000000000016146100875760405162461bcd60e51b815260206004820152600c60248201526b4f6e6c7920466163746f727960a01b60448201526064016101b4565b336001600160a01b037f000000000000000000000000000000000000000000000000000000000000000016146102ba5760405162461bcd60e51b815260206004820152600c60248201526b4f6e6c7920466163746f727960a01b60448201526064016101b4565b565b604080516000808252602082019092526001600160a01b0384169083906040516102e691906103c7565b60006040518083038185875af1925050503d8060008114610323576040519150601f19603f3d011682016040523d82523d6000602084013e610328565b606091505b50509050806103795760405162461bcd60e51b815260206004820152601360248201527f455448207472616e73666572206661696c65640000000000000000000000000060448201526064016101b4565b505050565b60006020828403121561039057600080fd5b5035919050565b6000602082840312156103a957600080fd5b81356001600160a01b03811681146103c057600080fd5b9392505050565b6000825160005b818110156103e857602081860181015185830152016103ce565b50600092019182525091905056fea26469706673582212203404e4e317569a9f0baf638662be27a1eeb0f170396aebaa9152796cf2c127f864736f6c63430008140033",
  "libraries": {},
  "devdoc": {
    "kind": "dev",
    "methods": {},
    "version": 1
  },
  "userdoc": {
    "kind": "user",
    "methods": {},
    "version": 1
  },
  "storageLayout": {
    "storage": [],
    "types": null
  }
}