{
  "address": "0xD2E503dc087e925a815ee6223356098f03062bD9",
  "abi": [
    {
      "inputs": [
        {
          "internalType": "address",
          "name": "_factory",
          "type": "address"
        }
      ],
      "stateMutability": "nonpayable",
      "type": "constructor"
    },
    {
      "stateMutability": "payable",
      "type": "fallback"
    },
    {
      "inputs": [],
      "name": "FACTORY",
      "outputs": [
        {
          "internalType": "address",
          "name": "",
          "type": "address"
        }
      ],
      "stateMutability": "view",
      "type": "function"
    },
    {
      "inputs": [
        {
          "internalType": "address",
          "name": "owner",
          "type": "address"
        }
      ],
      "name": "balanceOf",
      "outputs": [
        {
          "internalType": "uint256",
          "name": "withdrawableETHAmount",
          "type": "uint256"
        }
      ],
      "stateMutability": "view",
      "type": "function"
    },
    {
      "inputs": [],
      "name": "deposit",
      "outputs": [],
      "stateMutability": "nonpayable",
      "type": "function"
    },
    {
      "inputs": [
        {
          "internalType": "uint256",
          "name": "amount",
          "type": "uint256"
        }
      ],
      "name": "withdraw",
      "outputs": [],
      "stateMutability": "nonpayable",
      "type": "function"
    },
    {
      "inputs": [
        {
          "internalType": "uint256",
          "name": "depositedETHAmount",
          "type": "uint256"
        }
      ],
      "name": "yieldMaxClaimable",
      "outputs": [
        {
          "internalType": "uint256",
          "name": "maxClaimableETH",
          "type": "uint256"
        }
      ],
      "stateMutability": "view",
      "type": "function"
    },
    {
      "inputs": [],
      "name": "yieldToken",
      "outputs": [
        {
          "internalType": "address",
          "name": "",
          "type": "address"
        }
      ],
      "stateMutability": "view",
      "type": "function"
    },
    {
      "stateMutability": "payable",
      "type": "receive"
    }
  ],
  "transactionHash": "0xaa20faced4cda9c3368e8bf20479f14d60096e07550e751f314f0900a284cf8f",
  "args": [
    "0x1884f82323b660702343Fa542856C57253096bb9"
  ],
  "numDeployments": 7,
  "solcInputHash": "056a3fa1134d10967cda8720b7cb9874",
  "bytecode": "0x60a060405234801561001057600080fd5b506040516103ba3803806103ba83398101604081905261002f91610040565b6001600160a01b0316608052610070565b60006020828403121561005257600080fd5b81516001600160a01b038116811461006957600080fd5b9392505050565b6080516103296100916000396000818160b2015261015901526103296000f3fe6080604052600436106100635760003560e01c806370a082311161004057806370a082311461011957806376d5de8514610134578063d0e30db01461014857005b806328e762dd1461006c5780632dd31000146100a05780632e1a7d4d146100f957005b3661006a57005b005b34801561007857600080fd5b5061008d61008736600461026e565b50600090565b6040519081526020015b60405180910390f35b3480156100ac57600080fd5b506100d47f000000000000000000000000000000000000000000000000000000000000000081565b60405173ffffffffffffffffffffffffffffffffffffffff9091168152602001610097565b34801561010557600080fd5b5061006a61011436600461026e565b610154565b34801561012557600080fd5b5061008d610087366004610287565b34801561014057600080fd5b5060006100d4565b34801561006a57600080fd5b61017e7f000000000000000000000000000000000000000000000000000000000000000082610181565b50565b6040805160008082526020820190925273ffffffffffffffffffffffffffffffffffffffff84169083906040516101b891906102c4565b60006040518083038185875af1925050503d80600081146101f5576040519150601f19603f3d011682016040523d82523d6000602084013e6101fa565b606091505b5050905080610269576040517f08c379a000000000000000000000000000000000000000000000000000000000815260206004820152601360248201527f455448207472616e73666572206661696c656400000000000000000000000000604482015260640160405180910390fd5b505050565b60006020828403121561028057600080fd5b5035919050565b60006020828403121561029957600080fd5b813573ffffffffffffffffffffffffffffffffffffffff811681146102bd57600080fd5b9392505050565b6000825160005b818110156102e557602081860181015185830152016102cb565b50600092019182525091905056fea26469706673582212200161a78990f11c231492cc886546cf81c8fe45502963ba293ea50031e8fc898064736f6c63430008140033",
  "libraries": {},
  "devdoc": {
    "kind": "dev",
    "methods": {},
    "version": 1
  },
  "userdoc": {
    "kind": "user",
    "methods": {},
    "version": 1
  },
  "storageLayout": {
    "storage": [],
    "types": null
  }
}