{
  "address": "0x1884f82323b660702343Fa542856C57253096bb9",
  "abi": [
    {
      "inputs": [
        {
          "internalType": "address",
          "name": "initialOwner",
          "type": "address"
        }
      ],
      "stateMutability": "nonpayable",
      "type": "constructor"
    },
    {
      "inputs": [
        {
          "internalType": "address",
          "name": "sender",
          "type": "address"
        },
        {
          "internalType": "uint256",
          "name": "balance",
          "type": "uint256"
        },
        {
          "internalType": "uint256",
          "name": "needed",
          "type": "uint256"
        },
        {
          "internalType": "uint256",
          "name": "tokenId",
          "type": "uint256"
        }
      ],
      "name": "ERC1155InsufficientBalance",
      "type": "error"
    },
    {
      "inputs": [
        {
          "internalType": "address",
          "name": "approver",
          "type": "address"
        }
      ],
      "name": "ERC1155InvalidApprover",
      "type": "error"
    },
    {
      "inputs": [
        {
          "internalType": "uint256",
          "name": "idsLength",
          "type": "uint256"
        },
        {
          "internalType": "uint256",
          "name": "valuesLength",
          "type": "uint256"
        }
      ],
      "name": "ERC1155InvalidArrayLength",
      "type": "error"
    },
    {
      "inputs": [
        {
          "internalType": "address",
          "name": "operator",
          "type": "address"
        }
      ],
      "name": "ERC1155InvalidOperator",
      "type": "error"
    },
    {
      "inputs": [
        {
          "internalType": "address",
          "name": "receiver",
          "type": "address"
        }
      ],
      "name": "ERC1155InvalidReceiver",
      "type": "error"
    },
    {
      "inputs": [
        {
          "internalType": "address",
          "name": "sender",
          "type": "address"
        }
      ],
      "name": "ERC1155InvalidSender",
      "type": "error"
    },
    {
      "inputs": [
        {
          "internalType": "address",
          "name": "operator",
          "type": "address"
        },
        {
          "internalType": "address",
          "name": "owner",
          "type": "address"
        }
      ],
      "name": "ERC1155MissingApprovalForAll",
      "type": "error"
    },
    {
      "inputs": [
        {
          "internalType": "address",
          "name": "owner",
          "type": "address"
        }
      ],
      "name": "OwnableInvalidOwner",
      "type": "error"
    },
    {
      "inputs": [
        {
          "internalType": "address",
          "name": "account",
          "type": "address"
        }
      ],
      "name": "OwnableUnauthorizedAccount",
      "type": "error"
    },
    {
      "inputs": [],
      "name": "ReentrancyGuardReentrantCall",
      "type": "error"
    },
    {
      "anonymous": false,
      "inputs": [
        {
          "indexed": true,
          "internalType": "address",
          "name": "account",
          "type": "address"
        },
        {
          "indexed": true,
          "internalType": "address",
          "name": "operator",
          "type": "address"
        },
        {
          "indexed": false,
          "internalType": "bool",
          "name": "approved",
          "type": "bool"
        }
      ],
      "name": "ApprovalForAll",
      "type": "event"
    },
    {
      "anonymous": false,
      "inputs": [
        {
          "indexed": false,
          "internalType": "uint256",
          "name": "id",
          "type": "uint256"
        },
        {
          "indexed": true,
          "internalType": "address",
          "name": "creator",
          "type": "address"
        },
        {
          "indexed": false,
          "internalType": "string",
          "name": "name",
          "type": "string"
        },
        {
          "indexed": false,
          "internalType": "string",
          "name": "uri",
          "type": "string"
        },
        {
          "indexed": false,
          "internalType": "address",
          "name": "feeTo",
          "type": "address"
        },
        {
          "indexed": false,
          "internalType": "uint256",
          "name": "appFeePercent",
          "type": "uint256"
        },
        {
          "indexed": false,
          "internalType": "uint256",
          "name": "creatorFeePercent",
          "type": "uint256"
        }
      ],
      "name": "NewApp",
      "type": "event"
    },
    {
      "anonymous": false,
      "inputs": [
        {
          "indexed": true,
          "internalType": "uint256",
          "name": "creationId",
          "type": "uint256"
        },
        {
          "indexed": true,
          "internalType": "address",
          "name": "creator",
          "type": "address"
        },
        {
          "indexed": true,
          "internalType": "uint256",
          "name": "appId",
          "type": "uint256"
        },
        {
          "indexed": false,
          "internalType": "string",
          "name": "name",
          "type": "string"
        },
        {
          "indexed": false,
          "internalType": "string",
          "name": "uri",
          "type": "string"
        },
        {
          "indexed": false,
          "internalType": "uint8",
          "name": "curveId",
          "type": "uint8"
        },
        {
          "indexed": false,
          "internalType": "uint8",
          "name": "farmerId",
          "type": "uint8"
        }
      ],
      "name": "NewCreation",
      "type": "event"
    },
    {
      "anonymous": false,
      "inputs": [
        {
          "indexed": true,
          "internalType": "address",
          "name": "previousOwner",
          "type": "address"
        },
        {
          "indexed": true,
          "internalType": "address",
          "name": "newOwner",
          "type": "address"
        }
      ],
      "name": "OwnershipTransferred",
      "type": "event"
    },
    {
      "anonymous": false,
      "inputs": [
        {
          "indexed": true,
          "internalType": "enum IndieX.TradeType",
          "name": "tradeType",
          "type": "uint8"
        },
        {
          "indexed": true,
          "internalType": "uint256",
          "name": "creationId",
          "type": "uint256"
        },
        {
          "indexed": true,
          "internalType": "address",
          "name": "sender",
          "type": "address"
        },
        {
          "indexed": false,
          "internalType": "uint256",
          "name": "tokenAmount",
          "type": "uint256"
        },
        {
          "indexed": false,
          "internalType": "uint256",
          "name": "fundAmount",
          "type": "uint256"
        },
        {
          "indexed": false,
          "internalType": "uint256",
          "name": "creatorFee",
          "type": "uint256"
        },
        {
          "indexed": false,
          "internalType": "uint256",
          "name": "appFee",
          "type": "uint256"
        }
      ],
      "name": "Trade",
      "type": "event"
    },
    {
      "anonymous": false,
      "inputs": [
        {
          "indexed": true,
          "internalType": "address",
          "name": "operator",
          "type": "address"
        },
        {
          "indexed": true,
          "internalType": "address",
          "name": "from",
          "type": "address"
        },
        {
          "indexed": true,
          "internalType": "address",
          "name": "to",
          "type": "address"
        },
        {
          "indexed": false,
          "internalType": "uint256[]",
          "name": "ids",
          "type": "uint256[]"
        },
        {
          "indexed": false,
          "internalType": "uint256[]",
          "name": "values",
          "type": "uint256[]"
        }
      ],
      "name": "TransferBatch",
      "type": "event"
    },
    {
      "anonymous": false,
      "inputs": [
        {
          "indexed": true,
          "internalType": "address",
          "name": "operator",
          "type": "address"
        },
        {
          "indexed": true,
          "internalType": "address",
          "name": "from",
          "type": "address"
        },
        {
          "indexed": true,
          "internalType": "address",
          "name": "to",
          "type": "address"
        },
        {
          "indexed": false,
          "internalType": "uint256",
          "name": "id",
          "type": "uint256"
        },
        {
          "indexed": false,
          "internalType": "uint256",
          "name": "value",
          "type": "uint256"
        }
      ],
      "name": "TransferSingle",
      "type": "event"
    },
    {
      "anonymous": false,
      "inputs": [
        {
          "indexed": false,
          "internalType": "string",
          "name": "value",
          "type": "string"
        },
        {
          "indexed": true,
          "internalType": "uint256",
          "name": "id",
          "type": "uint256"
        }
      ],
      "name": "URI",
      "type": "event"
    },
    {
      "anonymous": false,
      "inputs": [
        {
          "indexed": false,
          "internalType": "uint256",
          "name": "id",
          "type": "uint256"
        },
        {
          "indexed": true,
          "internalType": "address",
          "name": "creator",
          "type": "address"
        },
        {
          "indexed": false,
          "internalType": "string",
          "name": "name",
          "type": "string"
        },
        {
          "indexed": false,
          "internalType": "string",
          "name": "uri",
          "type": "string"
        },
        {
          "indexed": false,
          "internalType": "address",
          "name": "feeTo",
          "type": "address"
        },
        {
          "indexed": false,
          "internalType": "uint256",
          "name": "appFeePercent",
          "type": "uint256"
        },
        {
          "indexed": false,
          "internalType": "uint256",
          "name": "creatorFeePercent",
          "type": "uint256"
        }
      ],
      "name": "UpdateApp",
      "type": "event"
    },
    {
      "anonymous": false,
      "inputs": [
        {
          "indexed": true,
          "internalType": "uint256",
          "name": "creationId",
          "type": "uint256"
        },
        {
          "indexed": true,
          "internalType": "address",
          "name": "creator",
          "type": "address"
        },
        {
          "indexed": true,
          "internalType": "uint256",
          "name": "appId",
          "type": "uint256"
        },
        {
          "indexed": false,
          "internalType": "string",
          "name": "name",
          "type": "string"
        },
        {
          "indexed": false,
          "internalType": "string",
          "name": "uri",
          "type": "string"
        }
      ],
      "name": "UpdateCreation",
      "type": "event"
    },
    {
      "stateMutability": "payable",
      "type": "fallback"
    },
    {
      "inputs": [],
      "name": "CREATOR_PREMINT",
      "outputs": [
        {
          "internalType": "uint256",
          "name": "",
          "type": "uint256"
        }
      ],
      "stateMutability": "view",
      "type": "function"
    },
    {
      "inputs": [
        {
          "internalType": "address",
          "name": "curve",
          "type": "address"
        }
      ],
      "name": "addCurve",
      "outputs": [],
      "stateMutability": "nonpayable",
      "type": "function"
    },
    {
      "inputs": [
        {
          "internalType": "address",
          "name": "farmer",
          "type": "address"
        }
      ],
      "name": "addFarmer",
      "outputs": [],
      "stateMutability": "nonpayable",
      "type": "function"
    },
    {
      "inputs": [],
      "name": "appIndex",
      "outputs": [
        {
          "internalType": "uint256",
          "name": "",
          "type": "uint256"
        }
      ],
      "stateMutability": "view",
      "type": "function"
    },
    {
      "inputs": [
        {
          "internalType": "uint256",
          "name": "appId",
          "type": "uint256"
        }
      ],
      "name": "apps",
      "outputs": [
        {
          "internalType": "uint256",
          "name": "id",
          "type": "uint256"
        },
        {
          "internalType": "address",
          "name": "creator",
          "type": "address"
        },
        {
          "internalType": "string",
          "name": "name",
          "type": "string"
        },
        {
          "internalType": "string",
          "name": "uri",
          "type": "string"
        },
        {
          "internalType": "address",
          "name": "feeTo",
          "type": "address"
        },
        {
          "internalType": "uint256",
          "name": "appFeePercent",
          "type": "uint256"
        },
        {
          "internalType": "uint256",
          "name": "creatorFeePercent",
          "type": "uint256"
        }
      ],
      "stateMutability": "view",
      "type": "function"
    },
    {
      "inputs": [
        {
          "internalType": "address",
          "name": "account",
          "type": "address"
        },
        {
          "internalType": "uint256",
          "name": "id",
          "type": "uint256"
        }
      ],
      "name": "balanceOf",
      "outputs": [
        {
          "internalType": "uint256",
          "name": "",
          "type": "uint256"
        }
      ],
      "stateMutability": "view",
      "type": "function"
    },
    {
      "inputs": [
        {
          "internalType": "address[]",
          "name": "accounts",
          "type": "address[]"
        },
        {
          "internalType": "uint256[]",
          "name": "ids",
          "type": "uint256[]"
        }
      ],
      "name": "balanceOfBatch",
      "outputs": [
        {
          "internalType": "uint256[]",
          "name": "",
          "type": "uint256[]"
        }
      ],
      "stateMutability": "view",
      "type": "function"
    },
    {
      "inputs": [
        {
          "internalType": "uint256",
          "name": "creationId",
          "type": "uint256"
        },
        {
          "internalType": "uint256",
          "name": "amount",
          "type": "uint256"
        }
      ],
      "name": "buy",
      "outputs": [],
      "stateMutability": "payable",
      "type": "function"
    },
    {
      "inputs": [],
      "name": "creationIndex",
      "outputs": [
        {
          "internalType": "uint256",
          "name": "",
          "type": "uint256"
        }
      ],
      "stateMutability": "view",
      "type": "function"
    },
    {
      "inputs": [
        {
          "internalType": "uint256",
          "name": "creationId",
          "type": "uint256"
        }
      ],
      "name": "creations",
      "outputs": [
        {
          "internalType": "uint256",
          "name": "id",
          "type": "uint256"
        },
        {
          "internalType": "address",
          "name": "creator",
          "type": "address"
        },
        {
          "internalType": "uint256",
          "name": "appId",
          "type": "uint256"
        },
        {
          "internalType": "string",
          "name": "name",
          "type": "string"
        },
        {
          "internalType": "string",
          "name": "uri",
          "type": "string"
        },
        {
          "internalType": "uint8",
          "name": "farmer",
          "type": "uint8"
        },
        {
          "internalType": "uint8",
          "name": "curve",
          "type": "uint8"
        },
        {
          "internalType": "uint256",
          "name": "balance",
          "type": "uint256"
        },
        {
          "internalType": "uint256",
          "name": "volume",
          "type": "uint256"
        }
      ],
      "stateMutability": "view",
      "type": "function"
    },
    {
      "inputs": [],
      "name": "curveIndex",
      "outputs": [
        {
          "internalType": "uint8",
          "name": "",
          "type": "uint8"
        }
      ],
      "stateMutability": "view",
      "type": "function"
    },
    {
      "inputs": [
        {
          "internalType": "uint8",
          "name": "curveId",
          "type": "uint8"
        }
      ],
      "name": "curves",
      "outputs": [
        {
          "internalType": "address",
          "name": "curve",
          "type": "address"
        }
      ],
      "stateMutability": "view",
      "type": "function"
    },
    {
      "inputs": [
        {
          "internalType": "uint256",
          "name": "id",
          "type": "uint256"
        }
      ],
      "name": "exists",
      "outputs": [
        {
          "internalType": "bool",
          "name": "",
          "type": "bool"
        }
      ],
      "stateMutability": "view",
      "type": "function"
    },
    {
      "inputs": [],
      "name": "farmerIndex",
      "outputs": [
        {
          "internalType": "uint8",
          "name": "",
          "type": "uint8"
        }
      ],
      "stateMutability": "view",
      "type": "function"
    },
    {
      "inputs": [
        {
          "internalType": "uint8",
          "name": "farmerId",
          "type": "uint8"
        }
      ],
      "name": "farmers",
      "outputs": [
        {
          "internalType": "address",
          "name": "farmer",
          "type": "address"
        }
      ],
      "stateMutability": "view",
      "type": "function"
    },
    {
      "inputs": [
        {
          "internalType": "uint256",
          "name": "creationId",
          "type": "uint256"
        },
        {
          "internalType": "uint256",
          "name": "amount",
          "type": "uint256"
        }
      ],
      "name": "getBuyPrice",
      "outputs": [
        {
          "internalType": "uint256",
          "name": "",
          "type": "uint256"
        }
      ],
      "stateMutability": "view",
      "type": "function"
    },
    {
      "inputs": [
        {
          "internalType": "uint256",
          "name": "creationId",
          "type": "uint256"
        },
        {
          "internalType": "uint256",
          "name": "amount",
          "type": "uint256"
        },
        {
          "internalType": "uint256",
          "name": "appId",
          "type": "uint256"
        }
      ],
      "name": "getBuyPriceAfterFee",
      "outputs": [
        {
          "internalType": "uint256",
          "name": "buyPriceAfterFee",
          "type": "uint256"
        },
        {
          "internalType": "uint256",
          "name": "buyPrice",
          "type": "uint256"
        },
        {
          "internalType": "uint256",
          "name": "creatorFee",
          "type": "uint256"
        },
        {
          "internalType": "uint256",
          "name": "appFee",
          "type": "uint256"
        }
      ],
      "stateMutability": "view",
      "type": "function"
    },
    {
      "inputs": [
        {
          "internalType": "uint256",
          "name": "creationId",
          "type": "uint256"
        },
        {
          "internalType": "uint256",
          "name": "amount",
          "type": "uint256"
        }
      ],
      "name": "getSellPrice",
      "outputs": [
        {
          "internalType": "uint256",
          "name": "",
          "type": "uint256"
        }
      ],
      "stateMutability": "view",
      "type": "function"
    },
    {
      "inputs": [
        {
          "internalType": "uint256",
          "name": "creationId",
          "type": "uint256"
        },
        {
          "internalType": "uint256",
          "name": "amount",
          "type": "uint256"
        },
        {
          "internalType": "uint256",
          "name": "appId",
          "type": "uint256"
        }
      ],
      "name": "getSellPriceAfterFee",
      "outputs": [
        {
          "internalType": "uint256",
          "name": "sellPriceAfterFee",
          "type": "uint256"
        },
        {
          "internalType": "uint256",
          "name": "sellPrice",
          "type": "uint256"
        },
        {
          "internalType": "uint256",
          "name": "creatorFee",
          "type": "uint256"
        },
        {
          "internalType": "uint256",
          "name": "appFee",
          "type": "uint256"
        }
      ],
      "stateMutability": "view",
      "type": "function"
    },
    {
      "inputs": [
        {
          "internalType": "address",
          "name": "creator",
          "type": "address"
        }
      ],
      "name": "getUserCreations",
      "outputs": [
        {
          "internalType": "uint256[]",
          "name": "",
          "type": "uint256[]"
        }
      ],
      "stateMutability": "view",
      "type": "function"
    },
    {
      "inputs": [
        {
          "internalType": "address",
          "name": "creator",
          "type": "address"
        }
      ],
      "name": "getUserLatestCreation",
      "outputs": [
        {
          "components": [
            {
              "internalType": "uint256",
              "name": "id",
              "type": "uint256"
            },
            {
              "internalType": "address",
              "name": "creator",
              "type": "address"
            },
            {
              "internalType": "uint256",
              "name": "appId",
              "type": "uint256"
            },
            {
              "internalType": "string",
              "name": "name",
              "type": "string"
            },
            {
              "internalType": "string",
              "name": "uri",
              "type": "string"
            },
            {
              "internalType": "uint8",
              "name": "farmer",
              "type": "uint8"
            },
            {
              "internalType": "uint8",
              "name": "curve",
              "type": "uint8"
            },
            {
              "internalType": "uint256[]",
              "name": "curveArgs",
              "type": "uint256[]"
            },
            {
              "internalType": "uint256",
              "name": "balance",
              "type": "uint256"
            },
            {
              "internalType": "uint256",
              "name": "volume",
              "type": "uint256"
            }
          ],
          "internalType": "struct IndieX.Creation",
          "name": "creation",
          "type": "tuple"
        }
      ],
      "stateMutability": "view",
      "type": "function"
    },
    {
      "inputs": [
        {
          "internalType": "address",
          "name": "account",
          "type": "address"
        },
        {
          "internalType": "address",
          "name": "operator",
          "type": "address"
        }
      ],
      "name": "isApprovedForAll",
      "outputs": [
        {
          "internalType": "bool",
          "name": "",
          "type": "bool"
        }
      ],
      "stateMutability": "view",
      "type": "function"
    },
    {
      "inputs": [
        {
          "components": [
            {
              "internalType": "string",
              "name": "name",
              "type": "string"
            },
            {
              "internalType": "string",
              "name": "uri",
              "type": "string"
            },
            {
              "internalType": "address",
              "name": "feeTo",
              "type": "address"
            },
            {
              "internalType": "uint256",
              "name": "appFeePercent",
              "type": "uint256"
            },
            {
              "internalType": "uint256",
              "name": "creatorFeePercent",
              "type": "uint256"
            }
          ],
          "internalType": "struct IndieX.UpsertAppInput",
          "name": "input",
          "type": "tuple"
        }
      ],
      "name": "newApp",
      "outputs": [],
      "stateMutability": "nonpayable",
      "type": "function"
    },
    {
      "inputs": [
        {
          "components": [
            {
              "internalType": "string",
              "name": "name",
              "type": "string"
            },
            {
              "internalType": "uint256",
              "name": "appId",
              "type": "uint256"
            },
            {
              "internalType": "uint8",
              "name": "farmer",
              "type": "uint8"
            },
            {
              "internalType": "uint8",
              "name": "curve",
              "type": "uint8"
            },
            {
              "internalType": "uint256[]",
              "name": "curveArgs",
              "type": "uint256[]"
            },
            {
              "internalType": "string",
              "name": "uri",
              "type": "string"
            }
          ],
          "internalType": "struct IndieX.NewCreationInput",
          "name": "input",
          "type": "tuple"
        }
      ],
      "name": "newCreation",
      "outputs": [],
      "stateMutability": "nonpayable",
      "type": "function"
    },
    {
      "inputs": [],
      "name": "owner",
      "outputs": [
        {
          "internalType": "address",
          "name": "",
          "type": "address"
        }
      ],
      "stateMutability": "view",
      "type": "function"
    },
    {
      "inputs": [],
      "name": "protocolFeePercent",
      "outputs": [
        {
          "internalType": "uint256",
          "name": "",
          "type": "uint256"
        }
      ],
      "stateMutability": "view",
      "type": "function"
    },
    {
      "inputs": [],
      "name": "renounceOwnership",
      "outputs": [],
      "stateMutability": "nonpayable",
      "type": "function"
    },
    {
      "inputs": [
        {
          "internalType": "address",
          "name": "from",
          "type": "address"
        },
        {
          "internalType": "address",
          "name": "to",
          "type": "address"
        },
        {
          "internalType": "uint256[]",
          "name": "ids",
          "type": "uint256[]"
        },
        {
          "internalType": "uint256[]",
          "name": "values",
          "type": "uint256[]"
        },
        {
          "internalType": "bytes",
          "name": "data",
          "type": "bytes"
        }
      ],
      "name": "safeBatchTransferFrom",
      "outputs": [],
      "stateMutability": "nonpayable",
      "type": "function"
    },
    {
      "inputs": [
        {
          "internalType": "address",
          "name": "from",
          "type": "address"
        },
        {
          "internalType": "address",
          "name": "to",
          "type": "address"
        },
        {
          "internalType": "uint256",
          "name": "id",
          "type": "uint256"
        },
        {
          "internalType": "uint256",
          "name": "value",
          "type": "uint256"
        },
        {
          "internalType": "bytes",
          "name": "data",
          "type": "bytes"
        }
      ],
      "name": "safeTransferFrom",
      "outputs": [],
      "stateMutability": "nonpayable",
      "type": "function"
    },
    {
      "inputs": [
        {
          "internalType": "uint256",
          "name": "creationId",
          "type": "uint256"
        },
        {
          "internalType": "uint256",
          "name": "amount",
          "type": "uint256"
        }
      ],
      "name": "sell",
      "outputs": [],
      "stateMutability": "nonpayable",
      "type": "function"
    },
    {
      "inputs": [
        {
          "internalType": "address",
          "name": "operator",
          "type": "address"
        },
        {
          "internalType": "bool",
          "name": "approved",
          "type": "bool"
        }
      ],
      "name": "setApprovalForAll",
      "outputs": [],
      "stateMutability": "nonpayable",
      "type": "function"
    },
    {
      "inputs": [
        {
          "internalType": "bytes4",
          "name": "interfaceId",
          "type": "bytes4"
        }
      ],
      "name": "supportsInterface",
      "outputs": [
        {
          "internalType": "bool",
          "name": "",
          "type": "bool"
        }
      ],
      "stateMutability": "view",
      "type": "function"
    },
    {
      "inputs": [],
      "name": "totalSupply",
      "outputs": [
        {
          "internalType": "uint256",
          "name": "",
          "type": "uint256"
        }
      ],
      "stateMutability": "view",
      "type": "function"
    },
    {
      "inputs": [
        {
          "internalType": "uint256",
          "name": "id",
          "type": "uint256"
        }
      ],
      "name": "totalSupply",
      "outputs": [
        {
          "internalType": "uint256",
          "name": "",
          "type": "uint256"
        }
      ],
      "stateMutability": "view",
      "type": "function"
    },
    {
      "inputs": [
        {
          "internalType": "address",
          "name": "newOwner",
          "type": "address"
        }
      ],
      "name": "transferOwnership",
      "outputs": [],
      "stateMutability": "nonpayable",
      "type": "function"
    },
    {
      "inputs": [
        {
          "internalType": "uint256",
          "name": "id",
          "type": "uint256"
        },
        {
          "components": [
            {
              "internalType": "string",
              "name": "name",
              "type": "string"
            },
            {
              "internalType": "string",
              "name": "uri",
              "type": "string"
            },
            {
              "internalType": "address",
              "name": "feeTo",
              "type": "address"
            },
            {
              "internalType": "uint256",
              "name": "appFeePercent",
              "type": "uint256"
            },
            {
              "internalType": "uint256",
              "name": "creatorFeePercent",
              "type": "uint256"
            }
          ],
          "internalType": "struct IndieX.UpsertAppInput",
          "name": "input",
          "type": "tuple"
        }
      ],
      "name": "updateApp",
      "outputs": [],
      "stateMutability": "nonpayable",
      "type": "function"
    },
    {
      "inputs": [
        {
          "internalType": "uint256",
          "name": "id",
          "type": "uint256"
        },
        {
          "components": [
            {
              "internalType": "string",
              "name": "name",
              "type": "string"
            },
            {
              "internalType": "string",
              "name": "uri",
              "type": "string"
            }
          ],
          "internalType": "struct IndieX.UpdateCreationInput",
          "name": "input",
          "type": "tuple"
        }
      ],
      "name": "updateCreation",
      "outputs": [],
      "stateMutability": "nonpayable",
      "type": "function"
    },
    {
      "inputs": [
        {
          "internalType": "uint256",
          "name": "",
          "type": "uint256"
        }
      ],
      "name": "uri",
      "outputs": [
        {
          "internalType": "string",
          "name": "",
          "type": "string"
        }
      ],
      "stateMutability": "view",
      "type": "function"
    },
    {
      "inputs": [
        {
          "internalType": "address",
          "name": "account",
          "type": "address"
        },
        {
          "internalType": "uint256",
          "name": "",
          "type": "uint256"
        }
      ],
      "name": "userCreations",
      "outputs": [
        {
          "internalType": "uint256",
          "name": "creationId",
          "type": "uint256"
        }
      ],
      "stateMutability": "view",
      "type": "function"
    },
    {
      "stateMutability": "payable",
      "type": "receive"
    }
  ],
  "transactionHash": "0x597d42564dd1f60bc3f8b5ad4688ff4bb0aa2c30783b115cfd861538f59ac8a7",
  "args": [
    "0x7FEA6971Eb1663623690Edbb779a05DD9440d824"
  ],
  "numDeployments": 7,
  "solcInputHash": "05724c6880b908a34ea698455c24274f",
  "bytecode": "0x60806040526007805460ff1990811690915560098054909116905560006010556611c37937e080006011553480156200003757600080fd5b5060405162004fee38038062004fee8339810160408190526200005a916200011f565b604080516020810190915260008152816001600160a01b0381166200009957604051631e4fbdf760e01b81526000600482015260240160405180910390fd5b620000a481620000bd565b50620000b0816200010d565b50506001600655620002c2565b600080546001600160a01b038381166001600160a01b0319831681178455604051919092169283917f8be0079c531659141344cd1fd0a4f28419497f9722a3daafe3b4186f6b6457e09190a35050565b60036200011b8282620001f6565b5050565b6000602082840312156200013257600080fd5b81516001600160a01b03811681146200014a57600080fd5b9392505050565b634e487b7160e01b600052604160045260246000fd5b600181811c908216806200017c57607f821691505b6020821081036200019d57634e487b7160e01b600052602260045260246000fd5b50919050565b601f821115620001f157600081815260208120601f850160051c81016020861015620001cc5750805b601f850160051c820191505b81811015620001ed57828155600101620001d8565b5050505b505050565b81516001600160401b0381111562000212576200021262000151565b6200022a8162000223845462000167565b84620001a3565b602080601f831160018114620002625760008415620002495750858301515b600019600386901b1c1916600185901b178555620001ed565b600085815260208120601f198616915b82811015620002935788860151825594840194600190910190840162000272565b5085821015620002b25787850151600019600388901b60f8161c191681555b5050505050600190811b01905550565b614d1c80620002d26000396000f3fe6080604052600436106102765760003560e01c806379d3663811610156578063bd85b039116100bf578063d79875eb11610079578063f242432a11610061578063f242432a14610819578063f2fde38b14610839578063fba41ebe1461085957005b8063d79875eb146107a3578063e985e9c5146107c357005b8063c8d8cf88116100a7578063c8d8cf8814610764578063d6e6eb9f1461077a578063d6febde81461079057005b8063bd85b03914610717578063c157253d1461074457005b80638d5fbf14116101105780639477d85d116100f85780639477d85d146106b7578063a22cb465146106d7578063baef60d0146106f757005b80638d5fbf141461066c5780638da5cb5b1461068c57005b80637ffb25ac1161013e5780637ffb25ac1461060257806380c3f96d146106175780638557a5311461063757005b806379d36638146105935780637bdcdaff146105d657005b80632eb2c2d6116101f85780635926dd94116101b257806361acc37e1161019a57806361acc37e1461052b578063715018a61461055e57806374ec47af1461057357005b80635926dd94146104de5780635efdf628146104fe57005b80634d121ec1116101e05780634d121ec1146104795780634e1273f41461048f5780634f558e79146104af57005b80632eb2c2d61461043957806343e235ff1461045957005b80631b207a321161024957806320e1fc8c1161023157806320e1fc8c14610364578063269ba52c146103cc57806327fef863146103f957005b80631b207a32146103245780631f313a041461034457005b8062fdd58e1461027f57806301ffc9a7146102b25780630e89341c146102e257806318160ddd1461030f57005b3661027d57005b005b34801561028b57600080fd5b5061029f61029a366004613d58565b610873565b6040519081526020015b60405180910390f35b3480156102be57600080fd5b506102d26102cd366004613db0565b6108aa565b60405190151581526020016102a9565b3480156102ee57600080fd5b506103026102fd366004613dd4565b61098d565b6040516102a99190613e5b565b34801561031b57600080fd5b5060055461029f565b34801561033057600080fd5b5061027d61033f366004614043565b610a21565b34801561035057600080fd5b5061027d61035f366004614124565b610c6e565b34801561037057600080fd5b506103a761037f3660046141d7565b60086020526000908152604090205473ffffffffffffffffffffffffffffffffffffffff1681565b60405173ffffffffffffffffffffffffffffffffffffffff90911681526020016102a9565b3480156103d857600080fd5b506103ec6103e73660046141f2565b610e15565b6040516102a99190614248565b34801561040557600080fd5b5061041961041436600461425b565b610e8d565b6040805194855260208501939093529183015260608201526080016102a9565b34801561044557600080fd5b5061027d610454366004614287565b6110ae565b34801561046557600080fd5b5061029f610474366004613d58565b611174565b34801561048557600080fd5b5061029f600d5481565b34801561049b57600080fd5b506103ec6104aa366004614331565b6111a5565b3480156104bb57600080fd5b506102d26104ca366004613dd4565b600090815260046020526040902054151590565b3480156104ea57600080fd5b506104196104f936600461425b565b611293565b34801561050a57600080fd5b5061051e6105193660046141f2565b6114a8565b6040516102a991906143f1565b34801561053757600080fd5b5061054b610546366004613dd4565b611808565b6040516102a997969594939291906144f0565b34801561056a57600080fd5b5061027d611983565b34801561057f57600080fd5b5061027d61058e3660046141f2565b611997565b34801561059f57600080fd5b506103a76105ae3660046141d7565b600a6020526000908152604090205473ffffffffffffffffffffffffffffffffffffffff1681565b3480156105e257600080fd5b506007546105f09060ff1681565b60405160ff90911681526020016102a9565b34801561060e57600080fd5b5061029f600181565b34801561062357600080fd5b5061027d6106323660046141f2565b611a18565b34801561064357600080fd5b50610657610652366004613dd4565b611a7d565b6040516102a999989796959493929190614557565b34801561067857600080fd5b5061027d610687366004614683565b611bf4565b34801561069857600080fd5b5060005473ffffffffffffffffffffffffffffffffffffffff166103a7565b3480156106c357600080fd5b5061029f6106d23660046146c0565b611d98565b3480156106e357600080fd5b5061027d6106f23660046146e2565b612058565b34801561070357600080fd5b5061027d61071236600461471e565b612067565b34801561072357600080fd5b5061029f610732366004613dd4565b60009081526004602052604090205490565b34801561075057600080fd5b5061029f61075f3660046146c0565b61230a565b34801561077057600080fd5b5061029f600b5481565b34801561078657600080fd5b5061029f60115481565b61027d61079e3660046146c0565b612590565b3480156107af57600080fd5b5061027d6107be3660046146c0565b6129fb565b3480156107cf57600080fd5b506102d26107de36600461475b565b73ffffffffffffffffffffffffffffffffffffffff918216600090815260026020908152604080832093909416825291909152205460ff1690565b34801561082557600080fd5b5061027d61083436600461478e565b612dd6565b34801561084557600080fd5b5061027d6108543660046141f2565b612e94565b34801561086557600080fd5b506009546105f09060ff1681565b600081815260016020908152604080832073ffffffffffffffffffffffffffffffffffffffff861684529091529020545b92915050565b60007fffffffff0000000000000000000000000000000000000000000000000000000082167fd9b67a2600000000000000000000000000000000000000000000000000000000148061093d57507fffffffff0000000000000000000000000000000000000000000000000000000082167f0e89341c00000000000000000000000000000000000000000000000000000000145b806108a457507f01ffc9a7000000000000000000000000000000000000000000000000000000007fffffffff000000000000000000000000000000000000000000000000000000008316146108a4565b60606003805461099c906147f3565b80601f01602080910402602001604051908101604052809291908181526020018280546109c8906147f3565b8015610a155780601f106109ea57610100808354040283529160200191610a15565b820191906000526020600020905b8154815290600101906020018083116109f857829003601f168201915b50505050509050919050565b6040805161014081018252600d54808252336020808401828152868201518587019081528751606080880191825260a0808b01516080808b01919091528b8b015160ff908116928b0192909252918b01511660c089015289015160e0880152600061010088018190526101208801819052958652600e909352959093208451815592516001840180547fffffffffffffffffffffffff00000000000000000000000000000000000000001673ffffffffffffffffffffffffffffffffffffffff9092169190911790559351600283015592516003820190610b029082614886565b5060808201516004820190610b179082614886565b5060a082015160058201805460c085015160ff908116610100027fffffffffffffffffffffffffffffffffffffffffffffffffffffffffffff000090921693169290921791909117905560e08201518051610b7c916006840191602090910190613ccf565b5061010082015160078201556101209091015160089091015573ffffffffffffffffffffffffffffffffffffffff81166000908152600f60209081526040808320600d80548254600181810185559387528587200155548251938401909252928252610be9923392612ef8565b81602001518173ffffffffffffffffffffffffffffffffffffffff16600d547f37ff3ce307074e539a2c0c50bd6e14862505c57511ac0d2a273d7a877e524e3085600001518660a0015187606001518860400151604051610c4d94939291906149a0565b60405180910390a4600d8054906000610c6583614a12565b91905055505050565b6000828152600e60205260409020600181015473ffffffffffffffffffffffffffffffffffffffff16610d02576040517f08c379a000000000000000000000000000000000000000000000000000000000815260206004820152600f60248201527f417070206e6f742065786973746564000000000000000000000000000000000060448201526064015b60405180910390fd5b600181015473ffffffffffffffffffffffffffffffffffffffff163314610d85576040517f08c379a000000000000000000000000000000000000000000000000000000000815260206004820181905260248201527f4f6e6c792063726561746f722063616e20757064617465204372656174696f6e6044820152606401610cf9565b81516003820190610d969082614886565b5060208201516004820190610dab9082614886565b506002810154600182015482548451602086015160405173ffffffffffffffffffffffffffffffffffffffff909416937fc0a9e8589e9e2e63ca19d5641ea5676d3d031b3d29667ebd42b071fb8f5c2b9692610e08929091614a4a565b60405180910390a4505050565b73ffffffffffffffffffffffffffffffffffffffff81166000908152600f6020908152604091829020805483518184028101840190945280845260609392830182828015610a1557602002820191906000526020600020905b815481526020019060010190808311610e6e5750505050509050919050565b6000818152600c60209081526040808320815160e08101835281548152600182015473ffffffffffffffffffffffffffffffffffffffff16938101939093526002810180548594859485948594929390929184019190610eec906147f3565b80601f0160208091040260200160405190810160405280929190818152602001828054610f18906147f3565b8015610f655780601f10610f3a57610100808354040283529160200191610f65565b820191906000526020600020905b815481529060010190602001808311610f4857829003601f168201915b50505050508152602001600382018054610f7e906147f3565b80601f0160208091040260200160405190810160405280929190818152602001828054610faa906147f3565b8015610ff75780601f10610fcc57610100808354040283529160200191610ff7565b820191906000526020600020905b815481529060010190602001808311610fda57829003601f168201915b5050509183525050600482015473ffffffffffffffffffffffffffffffffffffffff1660208201526005820154604082015260069091015460609091015290506110418888611d98565b9350670de0b6b3a76400008160c001518561105c9190614a6f565b6110669190614a86565b9250670de0b6b3a76400008160a00151856110819190614a6f565b61108b9190614a86565b9150826110988386614ac1565b6110a29190614ac1565b94505093509350935093565b3373ffffffffffffffffffffffffffffffffffffffff86168114801590611108575073ffffffffffffffffffffffffffffffffffffffff80871660009081526002602090815260408083209385168352929052205460ff16155b1561115f576040517fe237d92200000000000000000000000000000000000000000000000000000000815273ffffffffffffffffffffffffffffffffffffffff808316600483015287166024820152604401610cf9565b61116c8686868686612f7b565b505050505050565b600f602052816000526040600020818154811061119057600080fd5b90600052602060002001600091509150505481565b606081518351146111ef57815183516040517f5b05999100000000000000000000000000000000000000000000000000000000815260048101929092526024820152604401610cf9565b6000835167ffffffffffffffff81111561120b5761120b613e6e565b604051908082528060200260200182016040528015611234578160200160208202803683370190505b50905060005b845181101561128b5760208082028601015161125e90602080840287010151610873565b82828151811061127057611270614ad4565b602090810291909101015261128481614a12565b905061123a565b509392505050565b6000818152600c60209081526040808320815160e08101835281548152600182015473ffffffffffffffffffffffffffffffffffffffff169381019390935260028101805485948594859485949293909291840191906112f2906147f3565b80601f016020809104026020016040519081016040528092919081815260200182805461131e906147f3565b801561136b5780601f106113405761010080835404028352916020019161136b565b820191906000526020600020905b81548152906001019060200180831161134e57829003601f168201915b50505050508152602001600382018054611384906147f3565b80601f01602080910402602001604051908101604052809291908181526020018280546113b0906147f3565b80156113fd5780601f106113d2576101008083540402835291602001916113fd565b820191906000526020600020905b8154815290600101906020018083116113e057829003601f168201915b5050509183525050600482015473ffffffffffffffffffffffffffffffffffffffff166020820152600582015460408201526006909101546060909101529050611447888861230a565b9350670de0b6b3a76400008160c00151856114629190614a6f565b61146c9190614a86565b9250670de0b6b3a76400008160a00151856114879190614a6f565b6114919190614a86565b91508261149e8386614b03565b6110a29190614b03565b61151a60405180610140016040528060008152602001600073ffffffffffffffffffffffffffffffffffffffff168152602001600081526020016060815260200160608152602001600060ff168152602001600060ff1681526020016060815260200160008152602001600081525090565b73ffffffffffffffffffffffffffffffffffffffff82166000908152600f602090815260408083208054825181850281018501909352808352919290919083018282801561158757602002820191906000526020600020905b815481526020019060010190808311611573575b5050505050905060008151111561180257600081600183516115a99190614ac1565b815181106115b9576115b9614ad4565b60200260200101519050600e600082815260200190815260200160002060405180610140016040529081600082015481526020016001820160009054906101000a900473ffffffffffffffffffffffffffffffffffffffff1673ffffffffffffffffffffffffffffffffffffffff1673ffffffffffffffffffffffffffffffffffffffff1681526020016002820154815260200160038201805461165c906147f3565b80601f0160208091040260200160405190810160405280929190818152602001828054611688906147f3565b80156116d55780601f106116aa576101008083540402835291602001916116d5565b820191906000526020600020905b8154815290600101906020018083116116b857829003601f168201915b505050505081526020016004820180546116ee906147f3565b80601f016020809104026020016040519081016040528092919081815260200182805461171a906147f3565b80156117675780601f1061173c57610100808354040283529160200191611767565b820191906000526020600020905b81548152906001019060200180831161174a57829003601f168201915b5050509183525050600582015460ff8082166020808501919091526101009092041660408084019190915260068401805482518185028101850190935280835260609094019391929091908301828280156117e157602002820191906000526020600020905b8154815260200190600101908083116117cd575b50505050508152602001600782015481526020016008820154815250509250505b50919050565b600c60205260009081526040902080546001820154600283018054929373ffffffffffffffffffffffffffffffffffffffff90921692611847906147f3565b80601f0160208091040260200160405190810160405280929190818152602001828054611873906147f3565b80156118c05780601f10611895576101008083540402835291602001916118c0565b820191906000526020600020905b8154815290600101906020018083116118a357829003601f168201915b5050505050908060030180546118d5906147f3565b80601f0160208091040260200160405190810160405280929190818152602001828054611901906147f3565b801561194e5780601f106119235761010080835404028352916020019161194e565b820191906000526020600020905b81548152906001019060200180831161193157829003601f168201915b5050505060048301546005840154600690940154929373ffffffffffffffffffffffffffffffffffffffff9091169290915087565b61198b61302f565b6119956000613082565b565b6007805460ff908116600090815260086020526040812080547fffffffffffffffffffffffff00000000000000000000000000000000000000001673ffffffffffffffffffffffffffffffffffffffff8616179055825490911691906119fc83614b16565b91906101000a81548160ff021916908360ff1602179055505050565b6009805460ff9081166000908152600a6020526040812080547fffffffffffffffffffffffff00000000000000000000000000000000000000001673ffffffffffffffffffffffffffffffffffffffff8616179055825490911691906119fc83614b16565b600e602052600090815260409020805460018201546002830154600384018054939473ffffffffffffffffffffffffffffffffffffffff90931693919291611ac4906147f3565b80601f0160208091040260200160405190810160405280929190818152602001828054611af0906147f3565b8015611b3d5780601f10611b1257610100808354040283529160200191611b3d565b820191906000526020600020905b815481529060010190602001808311611b2057829003601f168201915b505050505090806004018054611b52906147f3565b80601f0160208091040260200160405190810160405280929190818152602001828054611b7e906147f3565b8015611bcb5780601f10611ba057610100808354040283529160200191611bcb565b820191906000526020600020905b815481529060010190602001808311611bae57829003601f168201915b50505060058401546007850154600890950154939460ff80831695610100909304169350915089565b6040805160e081018252600b548082523360208084019182528551848601908152868201516060808701919091528787015173ffffffffffffffffffffffffffffffffffffffff9081166080808901919091529189015160a08801529088015160c08701526000948552600c909252949092208351815590516001820180547fffffffffffffffffffffffff000000000000000000000000000000000000000016919093161790915591519091906002820190611cb19082614886565b5060608201516003820190611cc69082614886565b506080828101516004830180547fffffffffffffffffffffffff00000000000000000000000000000000000000001673ffffffffffffffffffffffffffffffffffffffff90921691909117905560a0830151600583015560c090920151600690910155600b5482516020840151604080860151606087015195870151915133967f95860c408b95c37c8a315717a02901b7a1c080fac2b72783fcc47c0a875ab5cb96611d789690959094909392614b35565b60405180910390a2600b8054906000611d9083614a12565b919050555050565b600082815260046020908152604080832054600e835281842082516101408101845281548152600182015473ffffffffffffffffffffffffffffffffffffffff169481019490945260028101549284019290925260038201805491938593909290916060840191611e08906147f3565b80601f0160208091040260200160405190810160405280929190818152602001828054611e34906147f3565b8015611e815780601f10611e5657610100808354040283529160200191611e81565b820191906000526020600020905b815481529060010190602001808311611e6457829003601f168201915b50505050508152602001600482018054611e9a906147f3565b80601f0160208091040260200160405190810160405280929190818152602001828054611ec6906147f3565b8015611f135780601f10611ee857610100808354040283529160200191611f13565b820191906000526020600020905b815481529060010190602001808311611ef657829003601f168201915b5050509183525050600582015460ff808216602080850191909152610100909204166040808401919091526006840180548251818502810185019093528083526060909401939192909190830182828015611f8d57602002820191906000526020600020905b815481526020019060010190808311611f79575b5050509183525050600782015460208083019190915260089283015460409283015260c084015160ff16600090815292905290205490915073ffffffffffffffffffffffffffffffffffffffff166317c8ad7c611fea8685614ac1565b868460e001516040518463ffffffff1660e01b815260040161200e93929190614b95565b602060405180830381865afa15801561202b573d6000803e3d6000fd5b505050506040513d601f19601f8201168201806040525081019061204f9190614bb4565b95945050505050565b6120633383836130f7565b5050565b6000828152600c60205260409020600181015473ffffffffffffffffffffffffffffffffffffffff166120f6576040517f08c379a000000000000000000000000000000000000000000000000000000000815260206004820152600f60248201527f417070206e6f74206578697374656400000000000000000000000000000000006044820152606401610cf9565b600181015473ffffffffffffffffffffffffffffffffffffffff163314612179576040517f08c379a000000000000000000000000000000000000000000000000000000000815260206004820152601b60248201527f4f6e6c792063726561746f722063616e207570646174652041707000000000006044820152606401610cf9565b6040805160e081018252825481523360208083019182528551838501908152868201516060808601919091528786015173ffffffffffffffffffffffffffffffffffffffff9081166080808801919091529189015160a08701529088015160c0860152600b546000908152600c909352949091208351815591516001830180547fffffffffffffffffffffffff0000000000000000000000000000000000000000169190951617909355915190919060028201906122379082614886565b506060820151600382019061224c9082614886565b506080828101516004830180547fffffffffffffffffffffffff00000000000000000000000000000000000000001673ffffffffffffffffffffffffffffffffffffffff90921691909117905560a0830151600583015560c090920151600690910155815483516020850151604080870151606088015195880151915133967f2a24f65606d720ce9fcf601d2f201f9807a391a3eb1f04ae8b49b6313b101c3d966122fd9690959094909392614b35565b60405180910390a2505050565b600082815260046020908152604080832054600e835281842082516101408101845281548152600182015473ffffffffffffffffffffffffffffffffffffffff16948101949094526002810154928401929092526003820180549193859390929091606084019161237a906147f3565b80601f01602080910402602001604051908101604052809291908181526020018280546123a6906147f3565b80156123f35780601f106123c8576101008083540402835291602001916123f3565b820191906000526020600020905b8154815290600101906020018083116123d657829003601f168201915b5050505050815260200160048201805461240c906147f3565b80601f0160208091040260200160405190810160405280929190818152602001828054612438906147f3565b80156124855780601f1061245a57610100808354040283529160200191612485565b820191906000526020600020905b81548152906001019060200180831161246857829003601f168201915b5050509183525050600582015460ff8082166020808501919091526101009092041660408084019190915260068401805482518185028101850190935280835260609094019391929091908301828280156124ff57602002820191906000526020600020905b8154815260200190600101908083116124eb575b5050509183525050600782015460208083019190915260089283015460409283015260c084015160ff166000908152929052908190205460e083015191517f17c8ad7c00000000000000000000000000000000000000000000000000000000815292935073ffffffffffffffffffffffffffffffffffffffff16916317c8ad7c9161200e9186918991600401614b95565b6125986131df565b600d548210612603576040517f08c379a000000000000000000000000000000000000000000000000000000000815260206004820152601460248201527f4372656174696f6e206e6f7420657869737465640000000000000000000000006044820152606401610cf9565b6000600e6000848152602001908152602001600020905060008060008061262f87878760020154611293565b9350935093509350833410156126a1576040517f08c379a000000000000000000000000000000000000000000000000000000000815260206004820152601460248201527f496e73756666696369656e74207061796d656e740000000000000000000000006044820152606401610cf9565b600585015460ff166000908152600a6020908152604080832054815192830190915291815273ffffffffffffffffffffffffffffffffffffffff909116906126ee9033908a908a90612ef8565b33886001604080518b8152602081018a9052908101879052606081018690527f817bc0138a01add0b2c69b5a8be38829332e3b471218b3cbcd27a0a85efaedba9060800160405180910390a46127448185613222565b8073ffffffffffffffffffffffffffffffffffffffff1663d0e30db06040518163ffffffff1660e01b8152600401600060405180830381600087803b15801561278c57600080fd5b505af11580156127a0573d6000803e3d6000fd5b5050505083601060008282546127b69190614b03565b92505081905550838660070160008282546127d19190614b03565b92505081905550838660080160008282546127ec9190614b03565b909155505060018601546128169073ffffffffffffffffffffffffffffffffffffffff1684613222565b81156129cc576000888152600c60209081526040808320815160e08101835281548152600182015473ffffffffffffffffffffffffffffffffffffffff1693810193909352600281018054919284019161286f906147f3565b80601f016020809104026020016040519081016040528092919081815260200182805461289b906147f3565b80156128e85780601f106128bd576101008083540402835291602001916128e8565b820191906000526020600020905b8154815290600101906020018083116128cb57829003601f168201915b50505050508152602001600382018054612901906147f3565b80601f016020809104026020016040519081016040528092919081815260200182805461292d906147f3565b801561297a5780601f1061294f5761010080835404028352916020019161297a565b820191906000526020600020905b81548152906001019060200180831161295d57829003601f168201915b5050509183525050600482015473ffffffffffffffffffffffffffffffffffffffff1660208201526005820154604082015260069091015460609091015260808101519091506129ca9084613222565b505b60006129d88634614ac1565b905080156129ea576129ea3382613222565b505050505050506120636001600655565b612a036131df565b600d548210612a6e576040517f08c379a000000000000000000000000000000000000000000000000000000000815260206004820152601460248201527f4372656174696f6e206e6f7420657869737465640000000000000000000000006044820152606401610cf9565b6000600e60008481526020019081526020016000209050600080600080612a9a87878760020154610e8d565b600589015460ff166000908152600a6020526040908190205490517f2e1a7d4d00000000000000000000000000000000000000000000000000000000815260048101859052949850929650909450925073ffffffffffffffffffffffffffffffffffffffff16908190632e1a7d4d90602401600060405180830381600087803b158015612b2657600080fd5b505af1158015612b3a573d6000803e3d6000fd5b505050508360106000828254612b509190614ac1565b9250508190555083866007016000828254612b6b9190614ac1565b9250508190555083866008016000828254612b869190614b03565b90915550612b97905033898961330b565b33886001604080518b8152602081018a9052908101879052606081018690527f817bc0138a01add0b2c69b5a8be38829332e3b471218b3cbcd27a0a85efaedba9060800160405180910390a4612bed3386613222565b6001860154612c129073ffffffffffffffffffffffffffffffffffffffff1684613222565b8115612dc6576000888152600c60209081526040808320815160e08101835281548152600182015473ffffffffffffffffffffffffffffffffffffffff16938101939093526002810180549192840191612c6b906147f3565b80601f0160208091040260200160405190810160405280929190818152602001828054612c97906147f3565b8015612ce45780601f10612cb957610100808354040283529160200191612ce4565b820191906000526020600020905b815481529060010190602001808311612cc757829003601f168201915b50505050508152602001600382018054612cfd906147f3565b80601f0160208091040260200160405190810160405280929190818152602001828054612d29906147f3565b8015612d765780601f10612d4b57610100808354040283529160200191612d76565b820191906000526020600020905b815481529060010190602001808311612d5957829003601f168201915b5050509183525050600482015473ffffffffffffffffffffffffffffffffffffffff1660208201526005820154604082015260069091015460609091015260808101519091506129ea9084613222565b5050505050506120636001600655565b3373ffffffffffffffffffffffffffffffffffffffff86168114801590612e30575073ffffffffffffffffffffffffffffffffffffffff80871660009081526002602090815260408083209385168352929052205460ff16155b15612e87576040517fe237d92200000000000000000000000000000000000000000000000000000000815273ffffffffffffffffffffffffffffffffffffffff808316600483015287166024820152604401610cf9565b61116c868686868661339a565b612e9c61302f565b73ffffffffffffffffffffffffffffffffffffffff8116612eec576040517f1e4fbdf700000000000000000000000000000000000000000000000000000000815260006004820152602401610cf9565b612ef581613082565b50565b73ffffffffffffffffffffffffffffffffffffffff8416612f48576040517f57f447ce00000000000000000000000000000000000000000000000000000000815260006004820152602401610cf9565b6040805160018082526020820186905281830190815260608201859052608082019092529061116c600087848487613475565b73ffffffffffffffffffffffffffffffffffffffff8416612fcb576040517f57f447ce00000000000000000000000000000000000000000000000000000000815260006004820152602401610cf9565b73ffffffffffffffffffffffffffffffffffffffff851661301b576040517f01a8351400000000000000000000000000000000000000000000000000000000815260006004820152602401610cf9565b6130288585858585613475565b5050505050565b60005473ffffffffffffffffffffffffffffffffffffffff163314611995576040517f118cdaa7000000000000000000000000000000000000000000000000000000008152336004820152602401610cf9565b6000805473ffffffffffffffffffffffffffffffffffffffff8381167fffffffffffffffffffffffff0000000000000000000000000000000000000000831681178455604051919092169283917f8be0079c531659141344cd1fd0a4f28419497f9722a3daafe3b4186f6b6457e09190a35050565b73ffffffffffffffffffffffffffffffffffffffff8216613147576040517fced3e10000000000000000000000000000000000000000000000000000000000815260006004820152602401610cf9565b73ffffffffffffffffffffffffffffffffffffffff83811660008181526002602090815260408083209487168084529482529182902080547fffffffffffffffffffffffffffffffffffffffffffffffffffffffffffffff001686151590811790915591519182527f17307eab39ab6107e8899845ad3d59bd9653f200f220920489ca2b5937696c31910160405180910390a3505050565b60026006540361321b576040517f3ee5aeb500000000000000000000000000000000000000000000000000000000815260040160405180910390fd5b6002600655565b6040805160008082526020820190925273ffffffffffffffffffffffffffffffffffffffff84169083906040516132599190614bcd565b60006040518083038185875af1925050503d8060008114613296576040519150601f19603f3d011682016040523d82523d6000602084013e61329b565b606091505b5050905080613306576040517f08c379a000000000000000000000000000000000000000000000000000000000815260206004820152601360248201527f455448207472616e73666572206661696c6564000000000000000000000000006044820152606401610cf9565b505050565b73ffffffffffffffffffffffffffffffffffffffff831661335b576040517f01a8351400000000000000000000000000000000000000000000000000000000815260006004820152602401610cf9565b604080516001808252602082018590528183019081526060820184905260a0820190925260006080820181815291929161302891879185908590613475565b73ffffffffffffffffffffffffffffffffffffffff84166133ea576040517f57f447ce00000000000000000000000000000000000000000000000000000000815260006004820152602401610cf9565b73ffffffffffffffffffffffffffffffffffffffff851661343a576040517f01a8351400000000000000000000000000000000000000000000000000000000815260006004820152602401610cf9565b6040805160018082526020820186905281830190815260608201859052608082019092529061346c8787848487613475565b50505050505050565b613481858585856134d5565b73ffffffffffffffffffffffffffffffffffffffff84161561302857825133906001036134c757602084810151908401516134c08389898585896134e7565b505061116c565b61116c8187878787876136d9565b6134e18484848461386a565b50505050565b73ffffffffffffffffffffffffffffffffffffffff84163b1561116c576040517ff23a6e6100000000000000000000000000000000000000000000000000000000815273ffffffffffffffffffffffffffffffffffffffff85169063f23a6e619061355e9089908990889088908890600401614be9565b6020604051808303816000875af19250505080156135b7575060408051601f3d9081017fffffffffffffffffffffffffffffffffffffffffffffffffffffffffffffffe01682019092526135b491810190614c39565b60015b613646573d8080156135e5576040519150601f19603f3d011682016040523d82523d6000602084013e6135ea565b606091505b50805160000361363e576040517f57f447ce00000000000000000000000000000000000000000000000000000000815273ffffffffffffffffffffffffffffffffffffffff86166004820152602401610cf9565b805181602001fd5b7fffffffff0000000000000000000000000000000000000000000000000000000081167ff23a6e61000000000000000000000000000000000000000000000000000000001461346c576040517f57f447ce00000000000000000000000000000000000000000000000000000000815273ffffffffffffffffffffffffffffffffffffffff86166004820152602401610cf9565b73ffffffffffffffffffffffffffffffffffffffff84163b1561116c576040517fbc197c8100000000000000000000000000000000000000000000000000000000815273ffffffffffffffffffffffffffffffffffffffff85169063bc197c81906137509089908990889088908890600401614c56565b6020604051808303816000875af19250505080156137a9575060408051601f3d9081017fffffffffffffffffffffffffffffffffffffffffffffffffffffffffffffffe01682019092526137a691810190614c39565b60015b6137d7573d8080156135e5576040519150601f19603f3d011682016040523d82523d6000602084013e6135ea565b7fffffffff0000000000000000000000000000000000000000000000000000000081167fbc197c81000000000000000000000000000000000000000000000000000000001461346c576040517f57f447ce00000000000000000000000000000000000000000000000000000000815273ffffffffffffffffffffffffffffffffffffffff86166004820152602401610cf9565b613876848484846139de565b73ffffffffffffffffffffffffffffffffffffffff8416613936576000805b835181101561391c5760008382815181106138b2576138b2614ad4565b6020026020010151905080600460008785815181106138d3576138d3614ad4565b6020026020010151815260200190815260200160002060008282546138f89190614b03565b9091555061390890508184614b03565b9250508061391590614a12565b9050613895565b50806005600082825461392f9190614b03565b9091555050505b73ffffffffffffffffffffffffffffffffffffffff83166134e1576000805b83518110156139cd57600083828151811061397257613972614ad4565b60200260200101519050806004600087858151811061399357613993614ad4565b6020026020010151815260200190815260200160002060008282540392505081905550808301925050806139c690614a12565b9050613955565b506005805491909103905550505050565b8051825114613a2657815181516040517f5b05999100000000000000000000000000000000000000000000000000000000815260048101929092526024820152604401610cf9565b3360005b8351811015613ba25760208181028581018201519085019091015173ffffffffffffffffffffffffffffffffffffffff881615613b2e57600082815260016020908152604080832073ffffffffffffffffffffffffffffffffffffffff8c16845290915290205481811015613af8576040517f03dee4c500000000000000000000000000000000000000000000000000000000815273ffffffffffffffffffffffffffffffffffffffff8a166004820152602481018290526044810183905260648101849052608401610cf9565b600083815260016020908152604080832073ffffffffffffffffffffffffffffffffffffffff8d16845290915290209082900390555b73ffffffffffffffffffffffffffffffffffffffff871615613b8f57600082815260016020908152604080832073ffffffffffffffffffffffffffffffffffffffff8b16845290915281208054839290613b89908490614b03565b90915550505b505080613b9b90614a12565b9050613a2a565b508251600103613c4a57602083015160009060208401519091508573ffffffffffffffffffffffffffffffffffffffff168773ffffffffffffffffffffffffffffffffffffffff168473ffffffffffffffffffffffffffffffffffffffff167fc3d58168c5ae7397731d063d5bbf3d657854427343f4c083240f7aacaa2d0f628585604051613c3b929190918252602082015260400190565b60405180910390a45050613028565b8373ffffffffffffffffffffffffffffffffffffffff168573ffffffffffffffffffffffffffffffffffffffff168273ffffffffffffffffffffffffffffffffffffffff167f4a39dc06d4c0dbc64b70af90fd698a233a518aa5d07e595d983b8c0526c8f7fb8686604051613cc0929190614cc1565b60405180910390a45050505050565b828054828255906000526020600020908101928215613d0a579160200282015b82811115613d0a578251825591602001919060010190613cef565b50613d16929150613d1a565b5090565b5b80821115613d165760008155600101613d1b565b803573ffffffffffffffffffffffffffffffffffffffff81168114613d5357600080fd5b919050565b60008060408385031215613d6b57600080fd5b613d7483613d2f565b946020939093013593505050565b7fffffffff0000000000000000000000000000000000000000000000000000000081168114612ef557600080fd5b600060208284031215613dc257600080fd5b8135613dcd81613d82565b9392505050565b600060208284031215613de657600080fd5b5035919050565b60005b83811015613e08578181015183820152602001613df0565b50506000910152565b60008151808452613e29816020860160208601613ded565b601f017fffffffffffffffffffffffffffffffffffffffffffffffffffffffffffffffe0169290920160200192915050565b602081526000613dcd6020830184613e11565b7f4e487b7100000000000000000000000000000000000000000000000000000000600052604160045260246000fd5b60405160c0810167ffffffffffffffff81118282101715613ec057613ec0613e6e565b60405290565b604051601f82017fffffffffffffffffffffffffffffffffffffffffffffffffffffffffffffffe016810167ffffffffffffffff81118282101715613f0d57613f0d613e6e565b604052919050565b600082601f830112613f2657600080fd5b813567ffffffffffffffff811115613f4057613f40613e6e565b613f7160207fffffffffffffffffffffffffffffffffffffffffffffffffffffffffffffffe0601f84011601613ec6565b818152846020838601011115613f8657600080fd5b816020850160208301376000918101602001919091529392505050565b803560ff81168114613d5357600080fd5b600067ffffffffffffffff821115613fce57613fce613e6e565b5060051b60200190565b600082601f830112613fe957600080fd5b81356020613ffe613ff983613fb4565b613ec6565b82815260059290921b8401810191818101908684111561401d57600080fd5b8286015b848110156140385780358352918301918301614021565b509695505050505050565b60006020828403121561405557600080fd5b813567ffffffffffffffff8082111561406d57600080fd5b9083019060c0828603121561408157600080fd5b614089613e9d565b82358281111561409857600080fd5b6140a487828601613f15565b825250602083013560208201526140bd60408401613fa3565b60408201526140ce60608401613fa3565b60608201526080830135828111156140e557600080fd5b6140f187828601613fd8565b60808301525060a08301358281111561410957600080fd5b61411587828601613f15565b60a08301525095945050505050565b6000806040838503121561413757600080fd5b82359150602083013567ffffffffffffffff8082111561415657600080fd5b908401906040828703121561416a57600080fd5b60405160408101818110838211171561418557614185613e6e565b60405282358281111561419757600080fd5b6141a388828601613f15565b8252506020830135828111156141b857600080fd5b6141c488828601613f15565b6020830152508093505050509250929050565b6000602082840312156141e957600080fd5b613dcd82613fa3565b60006020828403121561420457600080fd5b613dcd82613d2f565b600081518084526020808501945080840160005b8381101561423d57815187529582019590820190600101614221565b509495945050505050565b602081526000613dcd602083018461420d565b60008060006060848603121561427057600080fd5b505081359360208301359350604090920135919050565b600080600080600060a0868803121561429f57600080fd5b6142a886613d2f565b94506142b660208701613d2f565b9350604086013567ffffffffffffffff808211156142d357600080fd5b6142df89838a01613fd8565b945060608801359150808211156142f557600080fd5b61430189838a01613fd8565b9350608088013591508082111561431757600080fd5b5061432488828901613f15565b9150509295509295909350565b6000806040838503121561434457600080fd5b823567ffffffffffffffff8082111561435c57600080fd5b818501915085601f83011261437057600080fd5b81356020614380613ff983613fb4565b82815260059290921b8401810191818101908984111561439f57600080fd5b948201945b838610156143c4576143b586613d2f565b825294820194908201906143a4565b965050860135925050808211156143da57600080fd5b506143e785828601613fd8565b9150509250929050565b602081528151602082015260006020830151614425604084018273ffffffffffffffffffffffffffffffffffffffff169052565b5060408301516060830152606083015161014080608085015261444c610160850183613e11565b915060808501517fffffffffffffffffffffffffffffffffffffffffffffffffffffffffffffffe0808685030160a08701526144888483613e11565b935060a087015191506144a060c087018360ff169052565b60c087015160ff811660e0880152915060e087015191506101008187860301818801526144cd858461420d565b908801516101208881019190915290970151929095019190915250929392505050565b878152600073ffffffffffffffffffffffffffffffffffffffff808916602084015260e0604084015261452660e0840189613e11565b83810360608501526145388189613e11565b91909616608084015260a08301949094525060c0015295945050505050565b60006101208b835273ffffffffffffffffffffffffffffffffffffffff8b1660208401528960408401528060608401526145938184018a613e11565b905082810360808401526145a78189613e11565b60ff97881660a08501529590961660c08301525060e0810192909252610100909101529695505050505050565b600060a082840312156145e657600080fd5b60405160a0810167ffffffffffffffff828210818311171561460a5761460a613e6e565b81604052829350843591508082111561462257600080fd5b61462e86838701613f15565b8352602085013591508082111561464457600080fd5b5061465185828601613f15565b60208301525061466360408401613d2f565b604082015260608301356060820152608083013560808201525092915050565b60006020828403121561469557600080fd5b813567ffffffffffffffff8111156146ac57600080fd5b6146b8848285016145d4565b949350505050565b600080604083850312156146d357600080fd5b50508035926020909101359150565b600080604083850312156146f557600080fd5b6146fe83613d2f565b91506020830135801515811461471357600080fd5b809150509250929050565b6000806040838503121561473157600080fd5b82359150602083013567ffffffffffffffff81111561474f57600080fd5b6143e7858286016145d4565b6000806040838503121561476e57600080fd5b61477783613d2f565b915061478560208401613d2f565b90509250929050565b600080600080600060a086880312156147a657600080fd5b6147af86613d2f565b94506147bd60208701613d2f565b93506040860135925060608601359150608086013567ffffffffffffffff8111156147e757600080fd5b61432488828901613f15565b600181811c9082168061480757607f821691505b602082108103611802577f4e487b7100000000000000000000000000000000000000000000000000000000600052602260045260246000fd5b601f82111561330657600081815260208120601f850160051c810160208610156148675750805b601f850160051c820191505b8181101561116c57828155600101614873565b815167ffffffffffffffff8111156148a0576148a0613e6e565b6148b4816148ae84546147f3565b84614840565b602080601f83116001811461490757600084156148d15750858301515b7fffffffffffffffffffffffffffffffffffffffffffffffffffffffffffffffff600386901b1c1916600185901b17855561116c565b6000858152602081207fffffffffffffffffffffffffffffffffffffffffffffffffffffffffffffffe08616915b8281101561495457888601518255948401946001909101908401614935565b508582101561499057878501517fffffffffffffffffffffffffffffffffffffffffffffffffffffffffffffffff600388901b60f8161c191681555b5050505050600190811b01905550565b6080815260006149b36080830187613e11565b82810360208401526149c58187613e11565b91505060ff8416604083015260ff8316606083015295945050505050565b7f4e487b7100000000000000000000000000000000000000000000000000000000600052601160045260246000fd5b60007fffffffffffffffffffffffffffffffffffffffffffffffffffffffffffffffff8203614a4357614a436149e3565b5060010190565b604081526000614a5d6040830185613e11565b828103602084015261204f8185613e11565b80820281158282048414176108a4576108a46149e3565b600082614abc577f4e487b7100000000000000000000000000000000000000000000000000000000600052601260045260246000fd5b500490565b818103818111156108a4576108a46149e3565b7f4e487b7100000000000000000000000000000000000000000000000000000000600052603260045260246000fd5b808201808211156108a4576108a46149e3565b600060ff821660ff8103614b2c57614b2c6149e3565b60010192915050565b86815260c060208201526000614b4e60c0830188613e11565b8281036040840152614b608188613e11565b73ffffffffffffffffffffffffffffffffffffffff9690961660608401525050608081019290925260a0909101529392505050565b83815282602082015260606040820152600061204f606083018461420d565b600060208284031215614bc657600080fd5b5051919050565b60008251614bdf818460208701613ded565b9190910192915050565b600073ffffffffffffffffffffffffffffffffffffffff808816835280871660208401525084604083015283606083015260a06080830152614c2e60a0830184613e11565b979650505050505050565b600060208284031215614c4b57600080fd5b8151613dcd81613d82565b600073ffffffffffffffffffffffffffffffffffffffff808816835280871660208401525060a06040830152614c8f60a083018661420d565b8281036060840152614ca1818661420d565b90508281036080840152614cb58185613e11565b98975050505050505050565b604081526000614cd4604083018561420d565b828103602084015261204f818561420d56fea26469706673582212207b1e265807a562d2271d91ff350d9e5523a47e58e50343ad8c8dde07ac4f74b764736f6c63430008140033",
  "libraries": {},
  "devdoc": {
    "errors": {
      "ERC1155InsufficientBalance(address,uint256,uint256,uint256)": [
        {
          "details": "Indicates an error related to the current `balance` of a `sender`. Used in transfers.",
          "params": {
            "balance": "Current balance for the interacting account.",
            "needed": "Minimum amount required to perform a transfer.",
            "sender": "Address whose tokens are being transferred.",
            "tokenId": "Identifier number of a token."
          }
        }
      ],
      "ERC1155InvalidApprover(address)": [
        {
          "details": "Indicates a failure with the `approver` of a token to be approved. Used in approvals.",
          "params": {
            "approver": "Address initiating an approval operation."
          }
        }
      ],
      "ERC1155InvalidArrayLength(uint256,uint256)": [
        {
          "details": "Indicates an array length mismatch between ids and values in a safeBatchTransferFrom operation. Used in batch transfers.",
          "params": {
            "idsLength": "Length of the array of token identifiers",
            "valuesLength": "Length of the array of token amounts"
          }
        }
      ],
      "ERC1155InvalidOperator(address)": [
        {
          "details": "Indicates a failure with the `operator` to be approved. Used in approvals.",
          "params": {
            "operator": "Address that may be allowed to operate on tokens without being their owner."
          }
        }
      ],
      "ERC1155InvalidReceiver(address)": [
        {
          "details": "Indicates a failure with the token `receiver`. Used in transfers.",
          "params": {
            "receiver": "Address to which tokens are being transferred."
          }
        }
      ],
      "ERC1155InvalidSender(address)": [
        {
          "details": "Indicates a failure with the token `sender`. Used in transfers.",
          "params": {
            "sender": "Address whose tokens are being transferred."
          }
        }
      ],
      "ERC1155MissingApprovalForAll(address,address)": [
        {
          "details": "Indicates a failure with the `operator`s approval. Used in transfers.",
          "params": {
            "operator": "Address that may be allowed to operate on tokens without being their owner.",
            "owner": "Address of the current owner of a token."
          }
        }
      ],
      "OwnableInvalidOwner(address)": [
        {
          "details": "The owner is not a valid owner account. (eg. `address(0)`)"
        }
      ],
      "OwnableUnauthorizedAccount(address)": [
        {
          "details": "The caller account is not authorized to perform an operation."
        }
      ],
      "ReentrancyGuardReentrantCall()": [
        {
          "details": "Unauthorized reentrant call."
        }
      ]
    },
    "events": {
      "ApprovalForAll(address,address,bool)": {
        "details": "Emitted when `account` grants or revokes permission to `operator` to transfer their tokens, according to `approved`."
      },
      "TransferBatch(address,address,address,uint256[],uint256[])": {
        "details": "Equivalent to multiple {TransferSingle} events, where `operator`, `from` and `to` are the same for all transfers."
      },
      "TransferSingle(address,address,address,uint256,uint256)": {
        "details": "Emitted when `value` amount of tokens of type `id` are transferred from `from` to `to` by `operator`."
      },
      "URI(string,uint256)": {
        "details": "Emitted when the URI for token type `id` changes to `value`, if it is a non-programmatic URI. If an {URI} event was emitted for `id`, the standard https://eips.ethereum.org/EIPS/eip-1155#metadata-extensions[guarantees] that `value` will equal the value returned by {IERC1155MetadataURI-uri}."
      }
    },
    "kind": "dev",
    "methods": {
      "balanceOf(address,uint256)": {
        "details": "See {IERC1155-balanceOf}."
      },
      "balanceOfBatch(address[],uint256[])": {
        "details": "See {IERC1155-balanceOfBatch}. Requirements: - `accounts` and `ids` must have the same length."
      },
      "exists(uint256)": {
        "details": "Indicates whether any token exist with a given id, or not."
      },
      "isApprovedForAll(address,address)": {
        "details": "See {IERC1155-isApprovedForAll}."
      },
      "owner()": {
        "details": "Returns the address of the current owner."
      },
      "renounceOwnership()": {
        "details": "Leaves the contract without owner. It will not be possible to call `onlyOwner` functions. Can only be called by the current owner. NOTE: Renouncing ownership will leave the contract without an owner, thereby disabling any functionality that is only available to the owner."
      },
      "safeBatchTransferFrom(address,address,uint256[],uint256[],bytes)": {
        "details": "See {IERC1155-safeBatchTransferFrom}."
      },
      "safeTransferFrom(address,address,uint256,uint256,bytes)": {
        "details": "See {IERC1155-safeTransferFrom}."
      },
      "setApprovalForAll(address,bool)": {
        "details": "See {IERC1155-setApprovalForAll}."
      },
      "supportsInterface(bytes4)": {
        "details": "See {IERC165-supportsInterface}."
      },
      "totalSupply()": {
        "details": "Total value of tokens."
      },
      "totalSupply(uint256)": {
        "details": "Total value of tokens in with a given id."
      },
      "transferOwnership(address)": {
        "details": "Transfers ownership of the contract to a new account (`newOwner`). Can only be called by the current owner."
      },
      "uri(uint256)": {
        "details": "See {IERC1155MetadataURI-uri}. This implementation returns the same URI for *all* token types. It relies on the token type ID substitution mechanism https://eips.ethereum.org/EIPS/eip-1155#metadata[defined in the EIP]. Clients calling this function must replace the `\\{id\\}` substring with the actual token type ID."
      }
    },
    "version": 1
  },
  "userdoc": {
    "kind": "user",
    "methods": {},
    "version": 1
  },
  "storageLayout": {
    "storage": [
      {
        "astId": 8,
        "contract": "contracts/core/IndieX.sol:IndieX",
        "label": "_owner",
        "offset": 0,
        "slot": "0",
        "type": "t_address"
      },
      {
        "astId": 326,
        "contract": "contracts/core/IndieX.sol:IndieX",
        "label": "_balances",
        "offset": 0,
        "slot": "1",
        "type": "t_mapping(t_uint256,t_mapping(t_address,t_uint256))"
      },
      {
        "astId": 332,
        "contract": "contracts/core/IndieX.sol:IndieX",
        "label": "_operatorApprovals",
        "offset": 0,
        "slot": "2",
        "type": "t_mapping(t_address,t_mapping(t_address,t_bool))"
      },
      {
        "astId": 334,
        "contract": "contracts/core/IndieX.sol:IndieX",
        "label": "_uri",
        "offset": 0,
        "slot": "3",
        "type": "t_string_storage"
      },
      {
        "astId": 1511,
        "contract": "contracts/core/IndieX.sol:IndieX",
        "label": "_totalSupply",
        "offset": 0,
        "slot": "4",
        "type": "t_mapping(t_uint256,t_uint256)"
      },
      {
        "astId": 1513,
        "contract": "contracts/core/IndieX.sol:IndieX",
        "label": "_totalSupplyAll",
        "offset": 0,
        "slot": "5",
        "type": "t_uint256"
      },
      {
        "astId": 2569,
        "contract": "contracts/core/IndieX.sol:IndieX",
        "label": "_status",
        "offset": 0,
        "slot": "6",
        "type": "t_uint256"
      },
      {
        "astId": 3919,
        "contract": "contracts/core/IndieX.sol:IndieX",
        "label": "curveIndex",
        "offset": 0,
        "slot": "7",
        "type": "t_uint8"
      },
      {
        "astId": 3923,
        "contract": "contracts/core/IndieX.sol:IndieX",
        "label": "curves",
        "offset": 0,
        "slot": "8",
        "type": "t_mapping(t_uint8,t_address)"
      },
      {
        "astId": 3926,
        "contract": "contracts/core/IndieX.sol:IndieX",
        "label": "farmerIndex",
        "offset": 0,
        "slot": "9",
        "type": "t_uint8"
      },
      {
        "astId": 3930,
        "contract": "contracts/core/IndieX.sol:IndieX",
        "label": "farmers",
        "offset": 0,
        "slot": "10",
        "type": "t_mapping(t_uint8,t_address)"
      },
      {
        "astId": 3932,
        "contract": "contracts/core/IndieX.sol:IndieX",
        "label": "appIndex",
        "offset": 0,
        "slot": "11",
        "type": "t_uint256"
      },
      {
        "astId": 3937,
        "contract": "contracts/core/IndieX.sol:IndieX",
        "label": "apps",
        "offset": 0,
        "slot": "12",
        "type": "t_mapping(t_uint256,t_struct(App)3875_storage)"
      },
      {
        "astId": 3939,
        "contract": "contracts/core/IndieX.sol:IndieX",
        "label": "creationIndex",
        "offset": 0,
        "slot": "13",
        "type": "t_uint256"
      },
      {
        "astId": 3944,
        "contract": "contracts/core/IndieX.sol:IndieX",
        "label": "creations",
        "offset": 0,
        "slot": "14",
        "type": "t_mapping(t_uint256,t_struct(Creation)3916_storage)"
      },
      {
        "astId": 3949,
        "contract": "contracts/core/IndieX.sol:IndieX",
        "label": "userCreations",
        "offset": 0,
        "slot": "15",
        "type": "t_mapping(t_address,t_array(t_uint256)dyn_storage)"
      },
      {
        "astId": 3952,
        "contract": "contracts/core/IndieX.sol:IndieX",
        "label": "ethAmount",
        "offset": 0,
        "slot": "16",
        "type": "t_uint256"
      },
      {
        "astId": 3958,
        "contract": "contracts/core/IndieX.sol:IndieX",
        "label": "protocolFeePercent",
        "offset": 0,
        "slot": "17",
        "type": "t_uint256"
      }
    ],
    "types": {
      "t_address": {
        "encoding": "inplace",
        "label": "address",
        "numberOfBytes": "20"
      },
      "t_array(t_uint256)dyn_storage": {
        "base": "t_uint256",
        "encoding": "dynamic_array",
        "label": "uint256[]",
        "numberOfBytes": "32"
      },
      "t_bool": {
        "encoding": "inplace",
        "label": "bool",
        "numberOfBytes": "1"
      },
      "t_mapping(t_address,t_array(t_uint256)dyn_storage)": {
        "encoding": "mapping",
        "key": "t_address",
        "label": "mapping(address => uint256[])",
        "numberOfBytes": "32",
        "value": "t_array(t_uint256)dyn_storage"
      },
      "t_mapping(t_address,t_bool)": {
        "encoding": "mapping",
        "key": "t_address",
        "label": "mapping(address => bool)",
        "numberOfBytes": "32",
        "value": "t_bool"
      },
      "t_mapping(t_address,t_mapping(t_address,t_bool))": {
        "encoding": "mapping",
        "key": "t_address",
        "label": "mapping(address => mapping(address => bool))",
        "numberOfBytes": "32",
        "value": "t_mapping(t_address,t_bool)"
      },
      "t_mapping(t_address,t_uint256)": {
        "encoding": "mapping",
        "key": "t_address",
        "label": "mapping(address => uint256)",
        "numberOfBytes": "32",
        "value": "t_uint256"
      },
      "t_mapping(t_uint256,t_mapping(t_address,t_uint256))": {
        "encoding": "mapping",
        "key": "t_uint256",
        "label": "mapping(uint256 => mapping(address => uint256))",
        "numberOfBytes": "32",
        "value": "t_mapping(t_address,t_uint256)"
      },
      "t_mapping(t_uint256,t_struct(App)3875_storage)": {
        "encoding": "mapping",
        "key": "t_uint256",
        "label": "mapping(uint256 => struct IndieX.App)",
        "numberOfBytes": "32",
        "value": "t_struct(App)3875_storage"
      },
      "t_mapping(t_uint256,t_struct(Creation)3916_storage)": {
        "encoding": "mapping",
        "key": "t_uint256",
        "label": "mapping(uint256 => struct IndieX.Creation)",
        "numberOfBytes": "32",
        "value": "t_struct(Creation)3916_storage"
      },
      "t_mapping(t_uint256,t_uint256)": {
        "encoding": "mapping",
        "key": "t_uint256",
        "label": "mapping(uint256 => uint256)",
        "numberOfBytes": "32",
        "value": "t_uint256"
      },
      "t_mapping(t_uint8,t_address)": {
        "encoding": "mapping",
        "key": "t_uint8",
        "label": "mapping(uint8 => address)",
        "numberOfBytes": "32",
        "value": "t_address"
      },
      "t_string_storage": {
        "encoding": "bytes",
        "label": "string",
        "numberOfBytes": "32"
      },
      "t_struct(App)3875_storage": {
        "encoding": "inplace",
        "label": "struct IndieX.App",
        "members": [
          {
            "astId": 3862,
            "contract": "contracts/core/IndieX.sol:IndieX",
            "label": "id",
            "offset": 0,
            "slot": "0",
            "type": "t_uint256"
          },
          {
            "astId": 3864,
            "contract": "contracts/core/IndieX.sol:IndieX",
            "label": "creator",
            "offset": 0,
            "slot": "1",
            "type": "t_address"
          },
          {
            "astId": 3866,
            "contract": "contracts/core/IndieX.sol:IndieX",
            "label": "name",
            "offset": 0,
            "slot": "2",
            "type": "t_string_storage"
          },
          {
            "astId": 3868,
            "contract": "contracts/core/IndieX.sol:IndieX",
            "label": "uri",
            "offset": 0,
            "slot": "3",
            "type": "t_string_storage"
          },
          {
            "astId": 3870,
            "contract": "contracts/core/IndieX.sol:IndieX",
            "label": "feeTo",
            "offset": 0,
            "slot": "4",
            "type": "t_address"
          },
          {
            "astId": 3872,
            "contract": "contracts/core/IndieX.sol:IndieX",
            "label": "appFeePercent",
            "offset": 0,
            "slot": "5",
            "type": "t_uint256"
          },
          {
            "astId": 3874,
            "contract": "contracts/core/IndieX.sol:IndieX",
            "label": "creatorFeePercent",
            "offset": 0,
            "slot": "6",
            "type": "t_uint256"
          }
        ],
        "numberOfBytes": "224"
      },
      "t_struct(Creation)3916_storage": {
        "encoding": "inplace",
        "label": "struct IndieX.Creation",
        "members": [
          {
            "astId": 3896,
            "contract": "contracts/core/IndieX.sol:IndieX",
            "label": "id",
            "offset": 0,
            "slot": "0",
            "type": "t_uint256"
          },
          {
            "astId": 3898,
            "contract": "contracts/core/IndieX.sol:IndieX",
            "label": "creator",
            "offset": 0,
            "slot": "1",
            "type": "t_address"
          },
          {
            "astId": 3900,
            "contract": "contracts/core/IndieX.sol:IndieX",
            "label": "appId",
            "offset": 0,
            "slot": "2",
            "type": "t_uint256"
          },
          {
            "astId": 3902,
            "contract": "contracts/core/IndieX.sol:IndieX",
            "label": "name",
            "offset": 0,
            "slot": "3",
            "type": "t_string_storage"
          },
          {
            "astId": 3904,
            "contract": "contracts/core/IndieX.sol:IndieX",
            "label": "uri",
            "offset": 0,
            "slot": "4",
            "type": "t_string_storage"
          },
          {
            "astId": 3906,
            "contract": "contracts/core/IndieX.sol:IndieX",
            "label": "farmer",
            "offset": 0,
            "slot": "5",
            "type": "t_uint8"
          },
          {
            "astId": 3908,
            "contract": "contracts/core/IndieX.sol:IndieX",
            "label": "curve",
            "offset": 1,
            "slot": "5",
            "type": "t_uint8"
          },
          {
            "astId": 3911,
            "contract": "contracts/core/IndieX.sol:IndieX",
            "label": "curveArgs",
            "offset": 0,
            "slot": "6",
            "type": "t_array(t_uint256)dyn_storage"
          },
          {
            "astId": 3913,
            "contract": "contracts/core/IndieX.sol:IndieX",
            "label": "balance",
            "offset": 0,
            "slot": "7",
            "type": "t_uint256"
          },
          {
            "astId": 3915,
            "contract": "contracts/core/IndieX.sol:IndieX",
            "label": "volume",
            "offset": 0,
            "slot": "8",
            "type": "t_uint256"
          }
        ],
        "numberOfBytes": "288"
      },
      "t_uint256": {
        "encoding": "inplace",
        "label": "uint256",
        "numberOfBytes": "32"
      },
      "t_uint8": {
        "encoding": "inplace",
        "label": "uint8",
        "numberOfBytes": "1"
      }
    }
  }
}