{
  "address": "0xe4eB6e61e0aee14Bb148779a490D2A359f229e7a",
  "abi": [
    {
      "inputs": [
        {
          "internalType": "address",
          "name": "initialOwner",
          "type": "address"
        }
      ],
      "stateMutability": "nonpayable",
      "type": "constructor"
    },
    {
      "inputs": [
        {
          "internalType": "address",
          "name": "sender",
          "type": "address"
        },
        {
          "internalType": "uint256",
          "name": "balance",
          "type": "uint256"
        },
        {
          "internalType": "uint256",
          "name": "needed",
          "type": "uint256"
        },
        {
          "internalType": "uint256",
          "name": "tokenId",
          "type": "uint256"
        }
      ],
      "name": "ERC1155InsufficientBalance",
      "type": "error"
    },
    {
      "inputs": [
        {
          "internalType": "address",
          "name": "approver",
          "type": "address"
        }
      ],
      "name": "ERC1155InvalidApprover",
      "type": "error"
    },
    {
      "inputs": [
        {
          "internalType": "uint256",
          "name": "idsLength",
          "type": "uint256"
        },
        {
          "internalType": "uint256",
          "name": "valuesLength",
          "type": "uint256"
        }
      ],
      "name": "ERC1155InvalidArrayLength",
      "type": "error"
    },
    {
      "inputs": [
        {
          "internalType": "address",
          "name": "operator",
          "type": "address"
        }
      ],
      "name": "ERC1155InvalidOperator",
      "type": "error"
    },
    {
      "inputs": [
        {
          "internalType": "address",
          "name": "receiver",
          "type": "address"
        }
      ],
      "name": "ERC1155InvalidReceiver",
      "type": "error"
    },
    {
      "inputs": [
        {
          "internalType": "address",
          "name": "sender",
          "type": "address"
        }
      ],
      "name": "ERC1155InvalidSender",
      "type": "error"
    },
    {
      "inputs": [
        {
          "internalType": "address",
          "name": "operator",
          "type": "address"
        },
        {
          "internalType": "address",
          "name": "owner",
          "type": "address"
        }
      ],
      "name": "ERC1155MissingApprovalForAll",
      "type": "error"
    },
    {
      "inputs": [
        {
          "internalType": "address",
          "name": "owner",
          "type": "address"
        }
      ],
      "name": "OwnableInvalidOwner",
      "type": "error"
    },
    {
      "inputs": [
        {
          "internalType": "address",
          "name": "account",
          "type": "address"
        }
      ],
      "name": "OwnableUnauthorizedAccount",
      "type": "error"
    },
    {
      "inputs": [],
      "name": "ReentrancyGuardReentrantCall",
      "type": "error"
    },
    {
      "anonymous": false,
      "inputs": [
        {
          "indexed": true,
          "internalType": "address",
          "name": "account",
          "type": "address"
        },
        {
          "indexed": true,
          "internalType": "address",
          "name": "operator",
          "type": "address"
        },
        {
          "indexed": false,
          "internalType": "bool",
          "name": "approved",
          "type": "bool"
        }
      ],
      "name": "ApprovalForAll",
      "type": "event"
    },
    {
      "anonymous": false,
      "inputs": [
        {
          "indexed": false,
          "internalType": "uint256",
          "name": "id",
          "type": "uint256"
        },
        {
          "indexed": true,
          "internalType": "address",
          "name": "creator",
          "type": "address"
        },
        {
          "indexed": false,
          "internalType": "string",
          "name": "name",
          "type": "string"
        },
        {
          "indexed": false,
          "internalType": "string",
          "name": "uri",
          "type": "string"
        },
        {
          "indexed": false,
          "internalType": "address",
          "name": "feeTo",
          "type": "address"
        },
        {
          "indexed": false,
          "internalType": "uint256",
          "name": "appFeePercent",
          "type": "uint256"
        },
        {
          "indexed": false,
          "internalType": "uint256",
          "name": "creatorFeePercent",
          "type": "uint256"
        }
      ],
      "name": "NewApp",
      "type": "event"
    },
    {
      "anonymous": false,
      "inputs": [
        {
          "indexed": true,
          "internalType": "uint256",
          "name": "creationId",
          "type": "uint256"
        },
        {
          "indexed": true,
          "internalType": "address",
          "name": "creator",
          "type": "address"
        },
        {
          "indexed": true,
          "internalType": "uint256",
          "name": "appId",
          "type": "uint256"
        },
        {
          "indexed": false,
          "internalType": "string",
          "name": "name",
          "type": "string"
        },
        {
          "indexed": false,
          "internalType": "string",
          "name": "uri",
          "type": "string"
        },
        {
          "indexed": false,
          "internalType": "uint8",
          "name": "curveType",
          "type": "uint8"
        },
        {
          "indexed": false,
          "internalType": "uint8",
          "name": "farmerType",
          "type": "uint8"
        }
      ],
      "name": "NewCreation",
      "type": "event"
    },
    {
      "anonymous": false,
      "inputs": [
        {
          "indexed": true,
          "internalType": "address",
          "name": "previousOwner",
          "type": "address"
        },
        {
          "indexed": true,
          "internalType": "address",
          "name": "newOwner",
          "type": "address"
        }
      ],
      "name": "OwnershipTransferred",
      "type": "event"
    },
    {
      "anonymous": false,
      "inputs": [
        {
          "indexed": true,
          "internalType": "enum IndieX.TradeType",
          "name": "tradeType",
          "type": "uint8"
        },
        {
          "indexed": true,
          "internalType": "uint256",
          "name": "creationId",
          "type": "uint256"
        },
        {
          "indexed": true,
          "internalType": "address",
          "name": "sender",
          "type": "address"
        },
        {
          "indexed": false,
          "internalType": "uint256",
          "name": "tokenAmount",
          "type": "uint256"
        },
        {
          "indexed": false,
          "internalType": "uint256",
          "name": "fundAmount",
          "type": "uint256"
        },
        {
          "indexed": false,
          "internalType": "uint256",
          "name": "creatorFee",
          "type": "uint256"
        },
        {
          "indexed": false,
          "internalType": "uint256",
          "name": "appFee",
          "type": "uint256"
        }
      ],
      "name": "Trade",
      "type": "event"
    },
    {
      "anonymous": false,
      "inputs": [
        {
          "indexed": true,
          "internalType": "address",
          "name": "operator",
          "type": "address"
        },
        {
          "indexed": true,
          "internalType": "address",
          "name": "from",
          "type": "address"
        },
        {
          "indexed": true,
          "internalType": "address",
          "name": "to",
          "type": "address"
        },
        {
          "indexed": false,
          "internalType": "uint256[]",
          "name": "ids",
          "type": "uint256[]"
        },
        {
          "indexed": false,
          "internalType": "uint256[]",
          "name": "values",
          "type": "uint256[]"
        }
      ],
      "name": "TransferBatch",
      "type": "event"
    },
    {
      "anonymous": false,
      "inputs": [
        {
          "indexed": true,
          "internalType": "address",
          "name": "operator",
          "type": "address"
        },
        {
          "indexed": true,
          "internalType": "address",
          "name": "from",
          "type": "address"
        },
        {
          "indexed": true,
          "internalType": "address",
          "name": "to",
          "type": "address"
        },
        {
          "indexed": false,
          "internalType": "uint256",
          "name": "id",
          "type": "uint256"
        },
        {
          "indexed": false,
          "internalType": "uint256",
          "name": "value",
          "type": "uint256"
        }
      ],
      "name": "TransferSingle",
      "type": "event"
    },
    {
      "anonymous": false,
      "inputs": [
        {
          "indexed": false,
          "internalType": "string",
          "name": "value",
          "type": "string"
        },
        {
          "indexed": true,
          "internalType": "uint256",
          "name": "id",
          "type": "uint256"
        }
      ],
      "name": "URI",
      "type": "event"
    },
    {
      "anonymous": false,
      "inputs": [
        {
          "indexed": false,
          "internalType": "uint256",
          "name": "id",
          "type": "uint256"
        },
        {
          "indexed": true,
          "internalType": "address",
          "name": "creator",
          "type": "address"
        },
        {
          "indexed": false,
          "internalType": "string",
          "name": "name",
          "type": "string"
        },
        {
          "indexed": false,
          "internalType": "string",
          "name": "uri",
          "type": "string"
        },
        {
          "indexed": false,
          "internalType": "address",
          "name": "feeTo",
          "type": "address"
        },
        {
          "indexed": false,
          "internalType": "uint256",
          "name": "appFeePercent",
          "type": "uint256"
        },
        {
          "indexed": false,
          "internalType": "uint256",
          "name": "creatorFeePercent",
          "type": "uint256"
        }
      ],
      "name": "UpdateApp",
      "type": "event"
    },
    {
      "anonymous": false,
      "inputs": [
        {
          "indexed": true,
          "internalType": "uint256",
          "name": "creationId",
          "type": "uint256"
        },
        {
          "indexed": true,
          "internalType": "address",
          "name": "creator",
          "type": "address"
        },
        {
          "indexed": true,
          "internalType": "uint256",
          "name": "appId",
          "type": "uint256"
        },
        {
          "indexed": false,
          "internalType": "string",
          "name": "name",
          "type": "string"
        },
        {
          "indexed": false,
          "internalType": "string",
          "name": "uri",
          "type": "string"
        }
      ],
      "name": "UpdateCreation",
      "type": "event"
    },
    {
      "stateMutability": "payable",
      "type": "fallback"
    },
    {
      "inputs": [],
      "name": "CREATOR_PREMINT",
      "outputs": [
        {
          "internalType": "uint256",
          "name": "",
          "type": "uint256"
        }
      ],
      "stateMutability": "view",
      "type": "function"
    },
    {
      "inputs": [
        {
          "internalType": "address",
          "name": "curve",
          "type": "address"
        }
      ],
      "name": "addCurve",
      "outputs": [],
      "stateMutability": "nonpayable",
      "type": "function"
    },
    {
      "inputs": [
        {
          "internalType": "address",
          "name": "farmer",
          "type": "address"
        }
      ],
      "name": "addFarmer",
      "outputs": [],
      "stateMutability": "nonpayable",
      "type": "function"
    },
    {
      "inputs": [],
      "name": "appIndex",
      "outputs": [
        {
          "internalType": "uint256",
          "name": "",
          "type": "uint256"
        }
      ],
      "stateMutability": "view",
      "type": "function"
    },
    {
      "inputs": [
        {
          "internalType": "uint256",
          "name": "appId",
          "type": "uint256"
        }
      ],
      "name": "apps",
      "outputs": [
        {
          "internalType": "uint256",
          "name": "id",
          "type": "uint256"
        },
        {
          "internalType": "address",
          "name": "creator",
          "type": "address"
        },
        {
          "internalType": "string",
          "name": "name",
          "type": "string"
        },
        {
          "internalType": "string",
          "name": "uri",
          "type": "string"
        },
        {
          "internalType": "address",
          "name": "feeTo",
          "type": "address"
        },
        {
          "internalType": "uint256",
          "name": "appFeePercent",
          "type": "uint256"
        },
        {
          "internalType": "uint256",
          "name": "creatorFeePercent",
          "type": "uint256"
        }
      ],
      "stateMutability": "view",
      "type": "function"
    },
    {
      "inputs": [
        {
          "internalType": "address",
          "name": "account",
          "type": "address"
        },
        {
          "internalType": "uint256",
          "name": "id",
          "type": "uint256"
        }
      ],
      "name": "balanceOf",
      "outputs": [
        {
          "internalType": "uint256",
          "name": "",
          "type": "uint256"
        }
      ],
      "stateMutability": "view",
      "type": "function"
    },
    {
      "inputs": [
        {
          "internalType": "address[]",
          "name": "accounts",
          "type": "address[]"
        },
        {
          "internalType": "uint256[]",
          "name": "ids",
          "type": "uint256[]"
        }
      ],
      "name": "balanceOfBatch",
      "outputs": [
        {
          "internalType": "uint256[]",
          "name": "",
          "type": "uint256[]"
        }
      ],
      "stateMutability": "view",
      "type": "function"
    },
    {
      "inputs": [
        {
          "internalType": "uint256",
          "name": "creationId",
          "type": "uint256"
        },
        {
          "internalType": "uint256",
          "name": "amount",
          "type": "uint256"
        }
      ],
      "name": "buy",
      "outputs": [],
      "stateMutability": "payable",
      "type": "function"
    },
    {
      "inputs": [],
      "name": "creationIndex",
      "outputs": [
        {
          "internalType": "uint256",
          "name": "",
          "type": "uint256"
        }
      ],
      "stateMutability": "view",
      "type": "function"
    },
    {
      "inputs": [
        {
          "internalType": "uint256",
          "name": "creationId",
          "type": "uint256"
        }
      ],
      "name": "creations",
      "outputs": [
        {
          "internalType": "uint256",
          "name": "id",
          "type": "uint256"
        },
        {
          "internalType": "address",
          "name": "creator",
          "type": "address"
        },
        {
          "internalType": "uint256",
          "name": "appId",
          "type": "uint256"
        },
        {
          "internalType": "string",
          "name": "name",
          "type": "string"
        },
        {
          "internalType": "string",
          "name": "uri",
          "type": "string"
        },
        {
          "internalType": "uint8",
          "name": "farmer",
          "type": "uint8"
        },
        {
          "internalType": "uint8",
          "name": "curve",
          "type": "uint8"
        },
        {
          "internalType": "uint256",
          "name": "balance",
          "type": "uint256"
        },
        {
          "internalType": "uint256",
          "name": "volume",
          "type": "uint256"
        }
      ],
      "stateMutability": "view",
      "type": "function"
    },
    {
      "inputs": [],
      "name": "curveIndex",
      "outputs": [
        {
          "internalType": "uint8",
          "name": "",
          "type": "uint8"
        }
      ],
      "stateMutability": "view",
      "type": "function"
    },
    {
      "inputs": [
        {
          "internalType": "uint8",
          "name": "curveType",
          "type": "uint8"
        }
      ],
      "name": "curves",
      "outputs": [
        {
          "internalType": "address",
          "name": "curve",
          "type": "address"
        }
      ],
      "stateMutability": "view",
      "type": "function"
    },
    {
      "inputs": [
        {
          "internalType": "uint256",
          "name": "id",
          "type": "uint256"
        }
      ],
      "name": "exists",
      "outputs": [
        {
          "internalType": "bool",
          "name": "",
          "type": "bool"
        }
      ],
      "stateMutability": "view",
      "type": "function"
    },
    {
      "inputs": [],
      "name": "farmerIndex",
      "outputs": [
        {
          "internalType": "uint8",
          "name": "",
          "type": "uint8"
        }
      ],
      "stateMutability": "view",
      "type": "function"
    },
    {
      "inputs": [
        {
          "internalType": "uint8",
          "name": "farmerType",
          "type": "uint8"
        }
      ],
      "name": "farmers",
      "outputs": [
        {
          "internalType": "address",
          "name": "farmer",
          "type": "address"
        }
      ],
      "stateMutability": "view",
      "type": "function"
    },
    {
      "inputs": [
        {
          "internalType": "uint256",
          "name": "creationId",
          "type": "uint256"
        },
        {
          "internalType": "uint256",
          "name": "amount",
          "type": "uint256"
        }
      ],
      "name": "getBuyPrice",
      "outputs": [
        {
          "internalType": "uint256",
          "name": "",
          "type": "uint256"
        }
      ],
      "stateMutability": "view",
      "type": "function"
    },
    {
      "inputs": [
        {
          "internalType": "uint256",
          "name": "creationId",
          "type": "uint256"
        },
        {
          "internalType": "uint256",
          "name": "amount",
          "type": "uint256"
        },
        {
          "internalType": "uint256",
          "name": "appId",
          "type": "uint256"
        }
      ],
      "name": "getBuyPriceAfterFee",
      "outputs": [
        {
          "internalType": "uint256",
          "name": "buyPriceAfterFee",
          "type": "uint256"
        },
        {
          "internalType": "uint256",
          "name": "buyPrice",
          "type": "uint256"
        },
        {
          "internalType": "uint256",
          "name": "creatorFee",
          "type": "uint256"
        },
        {
          "internalType": "uint256",
          "name": "appFee",
          "type": "uint256"
        }
      ],
      "stateMutability": "view",
      "type": "function"
    },
    {
      "inputs": [
        {
          "internalType": "uint256",
          "name": "creationId",
          "type": "uint256"
        },
        {
          "internalType": "uint256",
          "name": "amount",
          "type": "uint256"
        }
      ],
      "name": "getSellPrice",
      "outputs": [
        {
          "internalType": "uint256",
          "name": "",
          "type": "uint256"
        }
      ],
      "stateMutability": "view",
      "type": "function"
    },
    {
      "inputs": [
        {
          "internalType": "uint256",
          "name": "creationId",
          "type": "uint256"
        },
        {
          "internalType": "uint256",
          "name": "amount",
          "type": "uint256"
        },
        {
          "internalType": "uint256",
          "name": "appId",
          "type": "uint256"
        }
      ],
      "name": "getSellPriceAfterFee",
      "outputs": [
        {
          "internalType": "uint256",
          "name": "sellPriceAfterFee",
          "type": "uint256"
        },
        {
          "internalType": "uint256",
          "name": "sellPrice",
          "type": "uint256"
        },
        {
          "internalType": "uint256",
          "name": "creatorFee",
          "type": "uint256"
        },
        {
          "internalType": "uint256",
          "name": "appFee",
          "type": "uint256"
        }
      ],
      "stateMutability": "view",
      "type": "function"
    },
    {
      "inputs": [
        {
          "internalType": "address",
          "name": "creator",
          "type": "address"
        }
      ],
      "name": "getUserCreations",
      "outputs": [
        {
          "internalType": "uint256[]",
          "name": "",
          "type": "uint256[]"
        }
      ],
      "stateMutability": "view",
      "type": "function"
    },
    {
      "inputs": [
        {
          "internalType": "address",
          "name": "creator",
          "type": "address"
        }
      ],
      "name": "getUserLatestCreation",
      "outputs": [
        {
          "components": [
            {
              "internalType": "uint256",
              "name": "id",
              "type": "uint256"
            },
            {
              "internalType": "address",
              "name": "creator",
              "type": "address"
            },
            {
              "internalType": "uint256",
              "name": "appId",
              "type": "uint256"
            },
            {
              "internalType": "string",
              "name": "name",
              "type": "string"
            },
            {
              "internalType": "string",
              "name": "uri",
              "type": "string"
            },
            {
              "internalType": "uint8",
              "name": "farmer",
              "type": "uint8"
            },
            {
              "internalType": "uint8",
              "name": "curve",
              "type": "uint8"
            },
            {
              "internalType": "uint32[]",
              "name": "curveArgs",
              "type": "uint32[]"
            },
            {
              "internalType": "uint256",
              "name": "balance",
              "type": "uint256"
            },
            {
              "internalType": "uint256",
              "name": "volume",
              "type": "uint256"
            }
          ],
          "internalType": "struct IndieX.Creation",
          "name": "creation",
          "type": "tuple"
        }
      ],
      "stateMutability": "view",
      "type": "function"
    },
    {
      "inputs": [
        {
          "internalType": "address",
          "name": "account",
          "type": "address"
        },
        {
          "internalType": "address",
          "name": "operator",
          "type": "address"
        }
      ],
      "name": "isApprovedForAll",
      "outputs": [
        {
          "internalType": "bool",
          "name": "",
          "type": "bool"
        }
      ],
      "stateMutability": "view",
      "type": "function"
    },
    {
      "inputs": [
        {
          "components": [
            {
              "internalType": "string",
              "name": "name",
              "type": "string"
            },
            {
              "internalType": "string",
              "name": "uri",
              "type": "string"
            },
            {
              "internalType": "address",
              "name": "feeTo",
              "type": "address"
            },
            {
              "internalType": "uint256",
              "name": "appFeePercent",
              "type": "uint256"
            },
            {
              "internalType": "uint256",
              "name": "creatorFeePercent",
              "type": "uint256"
            }
          ],
          "internalType": "struct IndieX.UpsertAppInput",
          "name": "input",
          "type": "tuple"
        }
      ],
      "name": "newApp",
      "outputs": [],
      "stateMutability": "nonpayable",
      "type": "function"
    },
    {
      "inputs": [
        {
          "components": [
            {
              "internalType": "string",
              "name": "name",
              "type": "string"
            },
            {
              "internalType": "uint256",
              "name": "appId",
              "type": "uint256"
            },
            {
              "internalType": "uint8",
              "name": "farmer",
              "type": "uint8"
            },
            {
              "internalType": "uint8",
              "name": "curve",
              "type": "uint8"
            },
            {
              "internalType": "uint32[]",
              "name": "curveArgs",
              "type": "uint32[]"
            },
            {
              "internalType": "string",
              "name": "uri",
              "type": "string"
            }
          ],
          "internalType": "struct IndieX.NewCreationInput",
          "name": "input",
          "type": "tuple"
        }
      ],
      "name": "newCreation",
      "outputs": [],
      "stateMutability": "nonpayable",
      "type": "function"
    },
    {
      "inputs": [],
      "name": "owner",
      "outputs": [
        {
          "internalType": "address",
          "name": "",
          "type": "address"
        }
      ],
      "stateMutability": "view",
      "type": "function"
    },
    {
      "inputs": [],
      "name": "protocolFeePercent",
      "outputs": [
        {
          "internalType": "uint256",
          "name": "",
          "type": "uint256"
        }
      ],
      "stateMutability": "view",
      "type": "function"
    },
    {
      "inputs": [],
      "name": "renounceOwnership",
      "outputs": [],
      "stateMutability": "nonpayable",
      "type": "function"
    },
    {
      "inputs": [
        {
          "internalType": "address",
          "name": "from",
          "type": "address"
        },
        {
          "internalType": "address",
          "name": "to",
          "type": "address"
        },
        {
          "internalType": "uint256[]",
          "name": "ids",
          "type": "uint256[]"
        },
        {
          "internalType": "uint256[]",
          "name": "values",
          "type": "uint256[]"
        },
        {
          "internalType": "bytes",
          "name": "data",
          "type": "bytes"
        }
      ],
      "name": "safeBatchTransferFrom",
      "outputs": [],
      "stateMutability": "nonpayable",
      "type": "function"
    },
    {
      "inputs": [
        {
          "internalType": "address",
          "name": "from",
          "type": "address"
        },
        {
          "internalType": "address",
          "name": "to",
          "type": "address"
        },
        {
          "internalType": "uint256",
          "name": "id",
          "type": "uint256"
        },
        {
          "internalType": "uint256",
          "name": "value",
          "type": "uint256"
        },
        {
          "internalType": "bytes",
          "name": "data",
          "type": "bytes"
        }
      ],
      "name": "safeTransferFrom",
      "outputs": [],
      "stateMutability": "nonpayable",
      "type": "function"
    },
    {
      "inputs": [
        {
          "internalType": "uint256",
          "name": "creationId",
          "type": "uint256"
        },
        {
          "internalType": "uint256",
          "name": "amount",
          "type": "uint256"
        }
      ],
      "name": "sell",
      "outputs": [],
      "stateMutability": "nonpayable",
      "type": "function"
    },
    {
      "inputs": [
        {
          "internalType": "address",
          "name": "operator",
          "type": "address"
        },
        {
          "internalType": "bool",
          "name": "approved",
          "type": "bool"
        }
      ],
      "name": "setApprovalForAll",
      "outputs": [],
      "stateMutability": "nonpayable",
      "type": "function"
    },
    {
      "inputs": [
        {
          "internalType": "bytes4",
          "name": "interfaceId",
          "type": "bytes4"
        }
      ],
      "name": "supportsInterface",
      "outputs": [
        {
          "internalType": "bool",
          "name": "",
          "type": "bool"
        }
      ],
      "stateMutability": "view",
      "type": "function"
    },
    {
      "inputs": [],
      "name": "totalSupply",
      "outputs": [
        {
          "internalType": "uint256",
          "name": "",
          "type": "uint256"
        }
      ],
      "stateMutability": "view",
      "type": "function"
    },
    {
      "inputs": [
        {
          "internalType": "uint256",
          "name": "id",
          "type": "uint256"
        }
      ],
      "name": "totalSupply",
      "outputs": [
        {
          "internalType": "uint256",
          "name": "",
          "type": "uint256"
        }
      ],
      "stateMutability": "view",
      "type": "function"
    },
    {
      "inputs": [
        {
          "internalType": "address",
          "name": "newOwner",
          "type": "address"
        }
      ],
      "name": "transferOwnership",
      "outputs": [],
      "stateMutability": "nonpayable",
      "type": "function"
    },
    {
      "inputs": [
        {
          "internalType": "uint256",
          "name": "id",
          "type": "uint256"
        },
        {
          "components": [
            {
              "internalType": "string",
              "name": "name",
              "type": "string"
            },
            {
              "internalType": "string",
              "name": "uri",
              "type": "string"
            },
            {
              "internalType": "address",
              "name": "feeTo",
              "type": "address"
            },
            {
              "internalType": "uint256",
              "name": "appFeePercent",
              "type": "uint256"
            },
            {
              "internalType": "uint256",
              "name": "creatorFeePercent",
              "type": "uint256"
            }
          ],
          "internalType": "struct IndieX.UpsertAppInput",
          "name": "input",
          "type": "tuple"
        }
      ],
      "name": "updateApp",
      "outputs": [],
      "stateMutability": "nonpayable",
      "type": "function"
    },
    {
      "inputs": [
        {
          "internalType": "uint256",
          "name": "id",
          "type": "uint256"
        },
        {
          "components": [
            {
              "internalType": "string",
              "name": "name",
              "type": "string"
            },
            {
              "internalType": "string",
              "name": "uri",
              "type": "string"
            }
          ],
          "internalType": "struct IndieX.UpdateCreationInput",
          "name": "input",
          "type": "tuple"
        }
      ],
      "name": "updateCreation",
      "outputs": [],
      "stateMutability": "nonpayable",
      "type": "function"
    },
    {
      "inputs": [
        {
          "internalType": "uint256",
          "name": "",
          "type": "uint256"
        }
      ],
      "name": "uri",
      "outputs": [
        {
          "internalType": "string",
          "name": "",
          "type": "string"
        }
      ],
      "stateMutability": "view",
      "type": "function"
    },
    {
      "inputs": [
        {
          "internalType": "address",
          "name": "account",
          "type": "address"
        },
        {
          "internalType": "uint256",
          "name": "",
          "type": "uint256"
        }
      ],
      "name": "userCreations",
      "outputs": [
        {
          "internalType": "uint256",
          "name": "creationId",
          "type": "uint256"
        }
      ],
      "stateMutability": "view",
      "type": "function"
    },
    {
      "stateMutability": "payable",
      "type": "receive"
    }
  ],
  "transactionHash": "0xb6770faff91f0eadb38f6eeb8a2cb20451b667adf4c4a3be1984f6b3ab0cf29a",
  "args": [
    "0x7FEA6971Eb1663623690Edbb779a05DD9440d824"
  ],
  "numDeployments": 4,
  "solcInputHash": "d53cac8614196297ec6247a485e4a42f",
  "bytecode": "0x60806040526007805460ff1990811690915560098054909116905560006010556611c37937e080006011553480156200003757600080fd5b506040516200518f3803806200518f8339810160408190526200005a916200011f565b604080516020810190915260008152816001600160a01b0381166200009957604051631e4fbdf760e01b81526000600482015260240160405180910390fd5b620000a481620000bd565b50620000b0816200010d565b50506001600655620002c2565b600080546001600160a01b038381166001600160a01b0319831681178455604051919092169283917f8be0079c531659141344cd1fd0a4f28419497f9722a3daafe3b4186f6b6457e09190a35050565b60036200011b8282620001f6565b5050565b6000602082840312156200013257600080fd5b81516001600160a01b03811681146200014a57600080fd5b9392505050565b634e487b7160e01b600052604160045260246000fd5b600181811c908216806200017c57607f821691505b6020821081036200019d57634e487b7160e01b600052602260045260246000fd5b50919050565b601f821115620001f157600081815260208120601f850160051c81016020861015620001cc5750805b601f850160051c820191505b81811015620001ed57828155600101620001d8565b5050505b505050565b81516001600160401b0381111562000212576200021262000151565b6200022a8162000223845462000167565b84620001a3565b602080601f831160018114620002625760008415620002495750858301515b600019600386901b1c1916600185901b178555620001ed565b600085815260208120601f198616915b82811015620002935788860151825594840194600190910190840162000272565b5085821015620002b25787850151600019600388901b60f8161c191681555b5050505050600190811b01905550565b614ebd80620002d26000396000f3fe6080604052600436106102765760003560e01c80637bdcdaff11610156578063bd85b039116100bf578063d79875eb11610079578063f242432a11610061578063f242432a14610820578063f2fde38b14610840578063fba41ebe1461086057005b8063d79875eb146107aa578063e985e9c5146107ca57005b8063c8d8cf88116100a7578063c8d8cf881461076b578063d6e6eb9f14610781578063d6febde81461079757005b8063bd85b0391461071e578063c157253d1461074b57005b80638da5cb5b116101105780639cb2ed48116100f85780639cb2ed48146106be578063a22cb465146106de578063baef60d0146106fe57005b80638da5cb5b146106735780639477d85d1461069e57005b806380c3f96d1161013e57806380c3f96d146105fe5780638557a5311461061e5780638d5fbf141461065357005b80637bdcdaff146105b65780637ffb25ac146105e257005b806343e235ff116101f85780635efdf628116101b2578063715018a61161019a578063715018a61461053e57806374ec47af1461055357806379d366381461057357005b80635efdf628146104de57806361acc37e1461050b57005b80634e1273f4116101e05780634e1273f41461046f5780634f558e791461048f5780635926dd94146104be57005b806343e235ff146104395780634d121ec11461045957005b80631f313a0411610249578063269ba52c11610231578063269ba52c146103ac57806327fef863146103d95780632eb2c2d61461041957005b80631f313a041461032457806320e1fc8c1461034457005b8062fdd58e1461027f57806301ffc9a7146102b25780630e89341c146102e257806318160ddd1461030f57005b3661027d57005b005b34801561028b57600080fd5b5061029f61029a366004613e55565b61087a565b6040519081526020015b60405180910390f35b3480156102be57600080fd5b506102d26102cd366004613ead565b6108b1565b60405190151581526020016102a9565b3480156102ee57600080fd5b506103026102fd366004613ed1565b610994565b6040516102a99190613f58565b34801561031b57600080fd5b5060055461029f565b34801561033057600080fd5b5061027d61033f3660046140a0565b610a28565b34801561035057600080fd5b5061038761035f366004614164565b60086020526000908152604090205473ffffffffffffffffffffffffffffffffffffffff1681565b60405173ffffffffffffffffffffffffffffffffffffffff90911681526020016102a9565b3480156103b857600080fd5b506103cc6103c736600461417f565b610bcf565b6040516102a991906141d5565b3480156103e557600080fd5b506103f96103f43660046141e8565b610c47565b6040805194855260208501939093529183015260608201526080016102a9565b34801561042557600080fd5b5061027d6104343660046142a3565b610e68565b34801561044557600080fd5b5061029f610454366004613e55565b610f2e565b34801561046557600080fd5b5061029f600d5481565b34801561047b57600080fd5b506103cc61048a36600461434d565b610f5f565b34801561049b57600080fd5b506102d26104aa366004613ed1565b600090815260046020526040902054151590565b3480156104ca57600080fd5b506103f96104d93660046141e8565b61104d565b3480156104ea57600080fd5b506104fe6104f936600461417f565b611262565b6040516102a99190614443565b34801561051757600080fd5b5061052b610526366004613ed1565b6115ee565b6040516102a99796959493929190614542565b34801561054a57600080fd5b5061027d611769565b34801561055f57600080fd5b5061027d61056e36600461417f565b61177d565b34801561057f57600080fd5b5061038761058e366004614164565b600a6020526000908152604090205473ffffffffffffffffffffffffffffffffffffffff1681565b3480156105c257600080fd5b506007546105d09060ff1681565b60405160ff90911681526020016102a9565b3480156105ee57600080fd5b5061029f670de0b6b3a764000081565b34801561060a57600080fd5b5061027d61061936600461417f565b6117fe565b34801561062a57600080fd5b5061063e610639366004613ed1565b611863565b6040516102a9999897969594939291906145a9565b34801561065f57600080fd5b5061027d61066e3660046146d5565b6119da565b34801561067f57600080fd5b5060005473ffffffffffffffffffffffffffffffffffffffff16610387565b3480156106aa57600080fd5b5061029f6106b9366004614712565b611b7e565b3480156106ca57600080fd5b5061027d6106d93660046147a2565b611e6a565b3480156106ea57600080fd5b5061027d6106f9366004614883565b6120c5565b34801561070a57600080fd5b5061027d6107193660046148bf565b6120d4565b34801561072a57600080fd5b5061029f610739366004613ed1565b60009081526004602052604090205490565b34801561075757600080fd5b5061029f610766366004614712565b612377565b34801561077757600080fd5b5061029f600b5481565b34801561078d57600080fd5b5061029f60115481565b61027d6107a5366004614712565b612629565b3480156107b657600080fd5b5061027d6107c5366004614712565b612a94565b3480156107d657600080fd5b506102d26107e53660046148fc565b73ffffffffffffffffffffffffffffffffffffffff918216600090815260026020908152604080832093909416825291909152205460ff1690565b34801561082c57600080fd5b5061027d61083b36600461492f565b612e6f565b34801561084c57600080fd5b5061027d61085b36600461417f565b612f2d565b34801561086c57600080fd5b506009546105d09060ff1681565b600081815260016020908152604080832073ffffffffffffffffffffffffffffffffffffffff861684529091529020545b92915050565b60007fffffffff0000000000000000000000000000000000000000000000000000000082167fd9b67a2600000000000000000000000000000000000000000000000000000000148061094457507fffffffff0000000000000000000000000000000000000000000000000000000082167f0e89341c00000000000000000000000000000000000000000000000000000000145b806108ab57507f01ffc9a7000000000000000000000000000000000000000000000000000000007fffffffff000000000000000000000000000000000000000000000000000000008316146108ab565b6060600380546109a390614994565b80601f01602080910402602001604051908101604052809291908181526020018280546109cf90614994565b8015610a1c5780601f106109f157610100808354040283529160200191610a1c565b820191906000526020600020905b8154815290600101906020018083116109ff57829003601f168201915b50505050509050919050565b6000828152600e60205260409020600181015473ffffffffffffffffffffffffffffffffffffffff16610abc576040517f08c379a000000000000000000000000000000000000000000000000000000000815260206004820152600f60248201527f417070206e6f742065786973746564000000000000000000000000000000000060448201526064015b60405180910390fd5b600181015473ffffffffffffffffffffffffffffffffffffffff163314610b3f576040517f08c379a000000000000000000000000000000000000000000000000000000000815260206004820181905260248201527f4f6e6c792063726561746f722063616e20757064617465204372656174696f6e6044820152606401610ab3565b81516003820190610b509082614a27565b5060208201516004820190610b659082614a27565b506002810154600182015482548451602086015160405173ffffffffffffffffffffffffffffffffffffffff909416937fc0a9e8589e9e2e63ca19d5641ea5676d3d031b3d29667ebd42b071fb8f5c2b9692610bc2929091614b41565b60405180910390a4505050565b73ffffffffffffffffffffffffffffffffffffffff81166000908152600f6020908152604091829020805483518184028101840190945280845260609392830182828015610a1c57602002820191906000526020600020905b815481526020019060010190808311610c285750505050509050919050565b6000818152600c60209081526040808320815160e08101835281548152600182015473ffffffffffffffffffffffffffffffffffffffff16938101939093526002810180548594859485948594929390929184019190610ca690614994565b80601f0160208091040260200160405190810160405280929190818152602001828054610cd290614994565b8015610d1f5780601f10610cf457610100808354040283529160200191610d1f565b820191906000526020600020905b815481529060010190602001808311610d0257829003601f168201915b50505050508152602001600382018054610d3890614994565b80601f0160208091040260200160405190810160405280929190818152602001828054610d6490614994565b8015610db15780601f10610d8657610100808354040283529160200191610db1565b820191906000526020600020905b815481529060010190602001808311610d9457829003601f168201915b5050509183525050600482015473ffffffffffffffffffffffffffffffffffffffff166020820152600582015460408201526006909101546060909101529050610dfb8888611b7e565b9350670de0b6b3a76400008160c0015185610e169190614b95565b610e209190614bac565b9250670de0b6b3a76400008160a0015185610e3b9190614b95565b610e459190614bac565b915082610e528386614be7565b610e5c9190614be7565b94505093509350935093565b3373ffffffffffffffffffffffffffffffffffffffff86168114801590610ec2575073ffffffffffffffffffffffffffffffffffffffff80871660009081526002602090815260408083209385168352929052205460ff16155b15610f19576040517fe237d92200000000000000000000000000000000000000000000000000000000815273ffffffffffffffffffffffffffffffffffffffff808316600483015287166024820152604401610ab3565b610f268686868686612f91565b505050505050565b600f6020528160005260406000208181548110610f4a57600080fd5b90600052602060002001600091509150505481565b60608151835114610fa957815183516040517f5b05999100000000000000000000000000000000000000000000000000000000815260048101929092526024820152604401610ab3565b6000835167ffffffffffffffff811115610fc557610fc5613f6b565b604051908082528060200260200182016040528015610fee578160200160208202803683370190505b50905060005b8451811015611045576020808202860101516110189060208084028701015161087a565b82828151811061102a5761102a614bfa565b602090810291909101015261103e81614c29565b9050610ff4565b509392505050565b6000818152600c60209081526040808320815160e08101835281548152600182015473ffffffffffffffffffffffffffffffffffffffff169381019390935260028101805485948594859485949293909291840191906110ac90614994565b80601f01602080910402602001604051908101604052809291908181526020018280546110d890614994565b80156111255780601f106110fa57610100808354040283529160200191611125565b820191906000526020600020905b81548152906001019060200180831161110857829003601f168201915b5050505050815260200160038201805461113e90614994565b80601f016020809104026020016040519081016040528092919081815260200182805461116a90614994565b80156111b75780601f1061118c576101008083540402835291602001916111b7565b820191906000526020600020905b81548152906001019060200180831161119a57829003601f168201915b5050509183525050600482015473ffffffffffffffffffffffffffffffffffffffff1660208201526005820154604082015260069091015460609091015290506112018888612377565b9350670de0b6b3a76400008160c001518561121c9190614b95565b6112269190614bac565b9250670de0b6b3a76400008160a00151856112419190614b95565b61124b9190614bac565b9150826112588386614c61565b610e5c9190614c61565b6112d460405180610140016040528060008152602001600073ffffffffffffffffffffffffffffffffffffffff168152602001600081526020016060815260200160608152602001600060ff168152602001600060ff1681526020016060815260200160008152602001600081525090565b73ffffffffffffffffffffffffffffffffffffffff82166000908152600f602090815260408083208054825181850281018501909352808352919290919083018282801561134157602002820191906000526020600020905b81548152602001906001019080831161132d575b505050505090506000815111156115e857600081600183516113639190614be7565b8151811061137357611373614bfa565b60200260200101519050600e600082815260200190815260200160002060405180610140016040529081600082015481526020016001820160009054906101000a900473ffffffffffffffffffffffffffffffffffffffff1673ffffffffffffffffffffffffffffffffffffffff1673ffffffffffffffffffffffffffffffffffffffff1681526020016002820154815260200160038201805461141690614994565b80601f016020809104026020016040519081016040528092919081815260200182805461144290614994565b801561148f5780601f106114645761010080835404028352916020019161148f565b820191906000526020600020905b81548152906001019060200180831161147257829003601f168201915b505050505081526020016004820180546114a890614994565b80601f01602080910402602001604051908101604052809291908181526020018280546114d490614994565b80156115215780601f106114f657610100808354040283529160200191611521565b820191906000526020600020905b81548152906001019060200180831161150457829003601f168201915b5050509183525050600582015460ff8082166020808501919091526101009092041660408084019190915260068401805482518185028101850190935280835260609094019391929091908301828280156115c757602002820191906000526020600020906000905b82829054906101000a900463ffffffff1663ffffffff168152602001906004019060208260030104928301926001038202915080841161158a5790505b50505050508152602001600782015481526020016008820154815250509250505b50919050565b600c60205260009081526040902080546001820154600283018054929373ffffffffffffffffffffffffffffffffffffffff9092169261162d90614994565b80601f016020809104026020016040519081016040528092919081815260200182805461165990614994565b80156116a65780601f1061167b576101008083540402835291602001916116a6565b820191906000526020600020905b81548152906001019060200180831161168957829003601f168201915b5050505050908060030180546116bb90614994565b80601f01602080910402602001604051908101604052809291908181526020018280546116e790614994565b80156117345780601f1061170957610100808354040283529160200191611734565b820191906000526020600020905b81548152906001019060200180831161171757829003601f168201915b5050505060048301546005840154600690940154929373ffffffffffffffffffffffffffffffffffffffff9091169290915087565b611771613045565b61177b6000613098565b565b6007805460ff908116600090815260086020526040812080547fffffffffffffffffffffffff00000000000000000000000000000000000000001673ffffffffffffffffffffffffffffffffffffffff8616179055825490911691906117e283614c74565b91906101000a81548160ff021916908360ff1602179055505050565b6009805460ff9081166000908152600a6020526040812080547fffffffffffffffffffffffff00000000000000000000000000000000000000001673ffffffffffffffffffffffffffffffffffffffff8616179055825490911691906117e283614c74565b600e602052600090815260409020805460018201546002830154600384018054939473ffffffffffffffffffffffffffffffffffffffff909316939192916118aa90614994565b80601f01602080910402602001604051908101604052809291908181526020018280546118d690614994565b80156119235780601f106118f857610100808354040283529160200191611923565b820191906000526020600020905b81548152906001019060200180831161190657829003601f168201915b50505050509080600401805461193890614994565b80601f016020809104026020016040519081016040528092919081815260200182805461196490614994565b80156119b15780601f10611986576101008083540402835291602001916119b1565b820191906000526020600020905b81548152906001019060200180831161199457829003601f168201915b50505060058401546007850154600890950154939460ff80831695610100909304169350915089565b6040805160e081018252600b548082523360208084019182528551848601908152868201516060808701919091528787015173ffffffffffffffffffffffffffffffffffffffff9081166080808901919091529189015160a08801529088015160c08701526000948552600c909252949092208351815590516001820180547fffffffffffffffffffffffff000000000000000000000000000000000000000016919093161790915591519091906002820190611a979082614a27565b5060608201516003820190611aac9082614a27565b506080828101516004830180547fffffffffffffffffffffffff00000000000000000000000000000000000000001673ffffffffffffffffffffffffffffffffffffffff90921691909117905560a0830151600583015560c090920151600690910155600b5482516020840151604080860151606087015195870151915133967f95860c408b95c37c8a315717a02901b7a1c080fac2b72783fcc47c0a875ab5cb96611b5e9690959094909392614c93565b60405180910390a2600b8054906000611b7683614c29565b919050555050565b600082815260046020908152604080832054600e835281842082516101408101845281548152600182015473ffffffffffffffffffffffffffffffffffffffff169481019490945260028101549284019290925260038201805491938593909290916060840191611bee90614994565b80601f0160208091040260200160405190810160405280929190818152602001828054611c1a90614994565b8015611c675780601f10611c3c57610100808354040283529160200191611c67565b820191906000526020600020905b815481529060010190602001808311611c4a57829003601f168201915b50505050508152602001600482018054611c8090614994565b80601f0160208091040260200160405190810160405280929190818152602001828054611cac90614994565b8015611cf95780601f10611cce57610100808354040283529160200191611cf9565b820191906000526020600020905b815481529060010190602001808311611cdc57829003601f168201915b5050509183525050600582015460ff808216602080850191909152610100909204166040808401919091526006840180548251818502810185019093528083526060909401939192909190830182828015611d9f57602002820191906000526020600020906000905b82829054906101000a900463ffffffff1663ffffffff1681526020019060040190602082600301049283019260010382029150808411611d625790505b5050509183525050600782015460208083019190915260089283015460409283015260c084015160ff16600090815292905290205490915073ffffffffffffffffffffffffffffffffffffffff166328df9761611dfc8685614be7565b868460e001516040518463ffffffff1660e01b8152600401611e2093929190614cf3565b602060405180830381865afa158015611e3d573d6000803e3d6000fd5b505050506040513d601f19601f82011682018060405250810190611e619190614d12565b95945050505050565b6040805161014081018252600d54808252336020808401828152868201518587019081528751606080880191825260a0808b01516080808b01919091528b8b015160ff908116928b0192909252918b01511660c089015289015160e0880152600061010088018190526101208801819052958652600e909352959093208451815592516001840180547fffffffffffffffffffffffff00000000000000000000000000000000000000001673ffffffffffffffffffffffffffffffffffffffff9092169190911790559351600283015592516003820190611f4b9082614a27565b5060808201516004820190611f609082614a27565b5060a082015160058201805460c085015160ff908116610100027fffffffffffffffffffffffffffffffffffffffffffffffffffffffffffff000090921693169290921791909117905560e08201518051611fc5916006840191602090910190613d68565b5061010082015160078201556101209091015160089091015573ffffffffffffffffffffffffffffffffffffffff81166000908152600f60209081526040808320600d8054825460018101845592865284862090920191909155548151928301909152918152612040913391670de0b6b3a76400009061310d565b81602001518173ffffffffffffffffffffffffffffffffffffffff16600d547f37ff3ce307074e539a2c0c50bd6e14862505c57511ac0d2a273d7a877e524e3085600001518660a00151876060015188604001516040516120a49493929190614d2b565b60405180910390a4600d80549060006120bc83614c29565b91905055505050565b6120d0338383613190565b5050565b6000828152600c60205260409020600181015473ffffffffffffffffffffffffffffffffffffffff16612163576040517f08c379a000000000000000000000000000000000000000000000000000000000815260206004820152600f60248201527f417070206e6f74206578697374656400000000000000000000000000000000006044820152606401610ab3565b600181015473ffffffffffffffffffffffffffffffffffffffff1633146121e6576040517f08c379a000000000000000000000000000000000000000000000000000000000815260206004820152601b60248201527f4f6e6c792063726561746f722063616e207570646174652041707000000000006044820152606401610ab3565b6040805160e081018252825481523360208083019182528551838501908152868201516060808601919091528786015173ffffffffffffffffffffffffffffffffffffffff9081166080808801919091529189015160a08701529088015160c0860152600b546000908152600c909352949091208351815591516001830180547fffffffffffffffffffffffff0000000000000000000000000000000000000000169190951617909355915190919060028201906122a49082614a27565b50606082015160038201906122b99082614a27565b506080828101516004830180547fffffffffffffffffffffffff00000000000000000000000000000000000000001673ffffffffffffffffffffffffffffffffffffffff90921691909117905560a0830151600583015560c090920151600690910155815483516020850151604080870151606088015195880151915133967f2a24f65606d720ce9fcf601d2f201f9807a391a3eb1f04ae8b49b6313b101c3d9661236a9690959094909392614c93565b60405180910390a2505050565b600082815260046020908152604080832054600e835281842082516101408101845281548152600182015473ffffffffffffffffffffffffffffffffffffffff1694810194909452600281015492840192909252600382018054919385939092909160608401916123e790614994565b80601f016020809104026020016040519081016040528092919081815260200182805461241390614994565b80156124605780601f1061243557610100808354040283529160200191612460565b820191906000526020600020905b81548152906001019060200180831161244357829003601f168201915b5050505050815260200160048201805461247990614994565b80601f01602080910402602001604051908101604052809291908181526020018280546124a590614994565b80156124f25780601f106124c7576101008083540402835291602001916124f2565b820191906000526020600020905b8154815290600101906020018083116124d557829003601f168201915b5050509183525050600582015460ff80821660208085019190915261010090920416604080840191909152600684018054825181850281018501909352808352606090940193919290919083018282801561259857602002820191906000526020600020906000905b82829054906101000a900463ffffffff1663ffffffff168152602001906004019060208260030104928301926001038202915080841161255b5790505b5050509183525050600782015460208083019190915260089283015460409283015260c084015160ff166000908152929052908190205460e083015191517f28df976100000000000000000000000000000000000000000000000000000000815292935073ffffffffffffffffffffffffffffffffffffffff16916328df976191611e209186918991600401614cf3565b612631613278565b600d54821061269c576040517f08c379a000000000000000000000000000000000000000000000000000000000815260206004820152601460248201527f4372656174696f6e206e6f7420657869737465640000000000000000000000006044820152606401610ab3565b6000600e600084815260200190815260200160002090506000806000806126c88787876002015461104d565b93509350935093508334101561273a576040517f08c379a000000000000000000000000000000000000000000000000000000000815260206004820152601460248201527f496e73756666696369656e74207061796d656e740000000000000000000000006044820152606401610ab3565b600585015460ff166000908152600a6020908152604080832054815192830190915291815273ffffffffffffffffffffffffffffffffffffffff909116906127879033908a908a9061310d565b33886001604080518b8152602081018a9052908101879052606081018690527f817bc0138a01add0b2c69b5a8be38829332e3b471218b3cbcd27a0a85efaedba9060800160405180910390a46127dd81856132bb565b8073ffffffffffffffffffffffffffffffffffffffff1663d0e30db06040518163ffffffff1660e01b8152600401600060405180830381600087803b15801561282557600080fd5b505af1158015612839573d6000803e3d6000fd5b50505050836010600082825461284f9190614c61565b925050819055508386600701600082825461286a9190614c61565b92505081905550838660080160008282546128859190614c61565b909155505060018601546128af9073ffffffffffffffffffffffffffffffffffffffff16846132bb565b8115612a65576000888152600c60209081526040808320815160e08101835281548152600182015473ffffffffffffffffffffffffffffffffffffffff1693810193909352600281018054919284019161290890614994565b80601f016020809104026020016040519081016040528092919081815260200182805461293490614994565b80156129815780601f1061295657610100808354040283529160200191612981565b820191906000526020600020905b81548152906001019060200180831161296457829003601f168201915b5050505050815260200160038201805461299a90614994565b80601f01602080910402602001604051908101604052809291908181526020018280546129c690614994565b8015612a135780601f106129e857610100808354040283529160200191612a13565b820191906000526020600020905b8154815290600101906020018083116129f657829003601f168201915b5050509183525050600482015473ffffffffffffffffffffffffffffffffffffffff166020820152600582015460408201526006909101546060909101526080810151909150612a6390846132bb565b505b6000612a718634614be7565b90508015612a8357612a8333826132bb565b505050505050506120d06001600655565b612a9c613278565b600d548210612b07576040517f08c379a000000000000000000000000000000000000000000000000000000000815260206004820152601460248201527f4372656174696f6e206e6f7420657869737465640000000000000000000000006044820152606401610ab3565b6000600e60008481526020019081526020016000209050600080600080612b3387878760020154610c47565b600589015460ff166000908152600a6020526040908190205490517f2e1a7d4d00000000000000000000000000000000000000000000000000000000815260048101859052949850929650909450925073ffffffffffffffffffffffffffffffffffffffff16908190632e1a7d4d90602401600060405180830381600087803b158015612bbf57600080fd5b505af1158015612bd3573d6000803e3d6000fd5b505050508360106000828254612be99190614be7565b9250508190555083866007016000828254612c049190614be7565b9250508190555083866008016000828254612c1f9190614c61565b90915550612c3090503389896133a4565b33886001604080518b8152602081018a9052908101879052606081018690527f817bc0138a01add0b2c69b5a8be38829332e3b471218b3cbcd27a0a85efaedba9060800160405180910390a4612c8633866132bb565b6001860154612cab9073ffffffffffffffffffffffffffffffffffffffff16846132bb565b8115612e5f576000888152600c60209081526040808320815160e08101835281548152600182015473ffffffffffffffffffffffffffffffffffffffff16938101939093526002810180549192840191612d0490614994565b80601f0160208091040260200160405190810160405280929190818152602001828054612d3090614994565b8015612d7d5780601f10612d5257610100808354040283529160200191612d7d565b820191906000526020600020905b815481529060010190602001808311612d6057829003601f168201915b50505050508152602001600382018054612d9690614994565b80601f0160208091040260200160405190810160405280929190818152602001828054612dc290614994565b8015612e0f5780601f10612de457610100808354040283529160200191612e0f565b820191906000526020600020905b815481529060010190602001808311612df257829003601f168201915b5050509183525050600482015473ffffffffffffffffffffffffffffffffffffffff166020820152600582015460408201526006909101546060909101526080810151909150612a8390846132bb565b5050505050506120d06001600655565b3373ffffffffffffffffffffffffffffffffffffffff86168114801590612ec9575073ffffffffffffffffffffffffffffffffffffffff80871660009081526002602090815260408083209385168352929052205460ff16155b15612f20576040517fe237d92200000000000000000000000000000000000000000000000000000000815273ffffffffffffffffffffffffffffffffffffffff808316600483015287166024820152604401610ab3565b610f268686868686613433565b612f35613045565b73ffffffffffffffffffffffffffffffffffffffff8116612f85576040517f1e4fbdf700000000000000000000000000000000000000000000000000000000815260006004820152602401610ab3565b612f8e81613098565b50565b73ffffffffffffffffffffffffffffffffffffffff8416612fe1576040517f57f447ce00000000000000000000000000000000000000000000000000000000815260006004820152602401610ab3565b73ffffffffffffffffffffffffffffffffffffffff8516613031576040517f01a8351400000000000000000000000000000000000000000000000000000000815260006004820152602401610ab3565b61303e858585858561350e565b5050505050565b60005473ffffffffffffffffffffffffffffffffffffffff16331461177b576040517f118cdaa7000000000000000000000000000000000000000000000000000000008152336004820152602401610ab3565b6000805473ffffffffffffffffffffffffffffffffffffffff8381167fffffffffffffffffffffffff0000000000000000000000000000000000000000831681178455604051919092169283917f8be0079c531659141344cd1fd0a4f28419497f9722a3daafe3b4186f6b6457e09190a35050565b73ffffffffffffffffffffffffffffffffffffffff841661315d576040517f57f447ce00000000000000000000000000000000000000000000000000000000815260006004820152602401610ab3565b60408051600180825260208201869052818301908152606082018590526080820190925290610f2660008784848761350e565b73ffffffffffffffffffffffffffffffffffffffff82166131e0576040517fced3e10000000000000000000000000000000000000000000000000000000000815260006004820152602401610ab3565b73ffffffffffffffffffffffffffffffffffffffff83811660008181526002602090815260408083209487168084529482529182902080547fffffffffffffffffffffffffffffffffffffffffffffffffffffffffffffff001686151590811790915591519182527f17307eab39ab6107e8899845ad3d59bd9653f200f220920489ca2b5937696c31910160405180910390a3505050565b6002600654036132b4576040517f3ee5aeb500000000000000000000000000000000000000000000000000000000815260040160405180910390fd5b6002600655565b6040805160008082526020820190925273ffffffffffffffffffffffffffffffffffffffff84169083906040516132f29190614d6e565b60006040518083038185875af1925050503d806000811461332f576040519150601f19603f3d011682016040523d82523d6000602084013e613334565b606091505b505090508061339f576040517f08c379a000000000000000000000000000000000000000000000000000000000815260206004820152601360248201527f455448207472616e73666572206661696c6564000000000000000000000000006044820152606401610ab3565b505050565b73ffffffffffffffffffffffffffffffffffffffff83166133f4576040517f01a8351400000000000000000000000000000000000000000000000000000000815260006004820152602401610ab3565b604080516001808252602082018590528183019081526060820184905260a0820190925260006080820181815291929161303e9187918590859061350e565b73ffffffffffffffffffffffffffffffffffffffff8416613483576040517f57f447ce00000000000000000000000000000000000000000000000000000000815260006004820152602401610ab3565b73ffffffffffffffffffffffffffffffffffffffff85166134d3576040517f01a8351400000000000000000000000000000000000000000000000000000000815260006004820152602401610ab3565b60408051600180825260208201869052818301908152606082018590526080820190925290613505878784848761350e565b50505050505050565b61351a8585858561356e565b73ffffffffffffffffffffffffffffffffffffffff84161561303e57825133906001036135605760208481015190840151613559838989858589613580565b5050610f26565b610f26818787878787613772565b61357a84848484613903565b50505050565b73ffffffffffffffffffffffffffffffffffffffff84163b15610f26576040517ff23a6e6100000000000000000000000000000000000000000000000000000000815273ffffffffffffffffffffffffffffffffffffffff85169063f23a6e61906135f79089908990889088908890600401614d8a565b6020604051808303816000875af1925050508015613650575060408051601f3d9081017fffffffffffffffffffffffffffffffffffffffffffffffffffffffffffffffe016820190925261364d91810190614dda565b60015b6136df573d80801561367e576040519150601f19603f3d011682016040523d82523d6000602084013e613683565b606091505b5080516000036136d7576040517f57f447ce00000000000000000000000000000000000000000000000000000000815273ffffffffffffffffffffffffffffffffffffffff86166004820152602401610ab3565b805181602001fd5b7fffffffff0000000000000000000000000000000000000000000000000000000081167ff23a6e610000000000000000000000000000000000000000000000000000000014613505576040517f57f447ce00000000000000000000000000000000000000000000000000000000815273ffffffffffffffffffffffffffffffffffffffff86166004820152602401610ab3565b73ffffffffffffffffffffffffffffffffffffffff84163b15610f26576040517fbc197c8100000000000000000000000000000000000000000000000000000000815273ffffffffffffffffffffffffffffffffffffffff85169063bc197c81906137e99089908990889088908890600401614df7565b6020604051808303816000875af1925050508015613842575060408051601f3d9081017fffffffffffffffffffffffffffffffffffffffffffffffffffffffffffffffe016820190925261383f91810190614dda565b60015b613870573d80801561367e576040519150601f19603f3d011682016040523d82523d6000602084013e613683565b7fffffffff0000000000000000000000000000000000000000000000000000000081167fbc197c810000000000000000000000000000000000000000000000000000000014613505576040517f57f447ce00000000000000000000000000000000000000000000000000000000815273ffffffffffffffffffffffffffffffffffffffff86166004820152602401610ab3565b61390f84848484613a77565b73ffffffffffffffffffffffffffffffffffffffff84166139cf576000805b83518110156139b557600083828151811061394b5761394b614bfa565b60200260200101519050806004600087858151811061396c5761396c614bfa565b6020026020010151815260200190815260200160002060008282546139919190614c61565b909155506139a190508184614c61565b925050806139ae90614c29565b905061392e565b5080600560008282546139c89190614c61565b9091555050505b73ffffffffffffffffffffffffffffffffffffffff831661357a576000805b8351811015613a66576000838281518110613a0b57613a0b614bfa565b602002602001015190508060046000878581518110613a2c57613a2c614bfa565b602002602001015181526020019081526020016000206000828254039250508190555080830192505080613a5f90614c29565b90506139ee565b506005805491909103905550505050565b8051825114613abf57815181516040517f5b05999100000000000000000000000000000000000000000000000000000000815260048101929092526024820152604401610ab3565b3360005b8351811015613c3b5760208181028581018201519085019091015173ffffffffffffffffffffffffffffffffffffffff881615613bc757600082815260016020908152604080832073ffffffffffffffffffffffffffffffffffffffff8c16845290915290205481811015613b91576040517f03dee4c500000000000000000000000000000000000000000000000000000000815273ffffffffffffffffffffffffffffffffffffffff8a166004820152602481018290526044810183905260648101849052608401610ab3565b600083815260016020908152604080832073ffffffffffffffffffffffffffffffffffffffff8d16845290915290209082900390555b73ffffffffffffffffffffffffffffffffffffffff871615613c2857600082815260016020908152604080832073ffffffffffffffffffffffffffffffffffffffff8b16845290915281208054839290613c22908490614c61565b90915550505b505080613c3490614c29565b9050613ac3565b508251600103613ce357602083015160009060208401519091508573ffffffffffffffffffffffffffffffffffffffff168773ffffffffffffffffffffffffffffffffffffffff168473ffffffffffffffffffffffffffffffffffffffff167fc3d58168c5ae7397731d063d5bbf3d657854427343f4c083240f7aacaa2d0f628585604051613cd4929190918252602082015260400190565b60405180910390a4505061303e565b8373ffffffffffffffffffffffffffffffffffffffff168573ffffffffffffffffffffffffffffffffffffffff168273ffffffffffffffffffffffffffffffffffffffff167f4a39dc06d4c0dbc64b70af90fd698a233a518aa5d07e595d983b8c0526c8f7fb8686604051613d59929190614e62565b60405180910390a45050505050565b82805482825590600052602060002090600701600890048101928215613e075791602002820160005b83821115613dd557835183826101000a81548163ffffffff021916908363ffffffff1602179055509260200192600401602081600301049283019260010302613d91565b8015613e055782816101000a81549063ffffffff0219169055600401602081600301049283019260010302613dd5565b505b50613e13929150613e17565b5090565b5b80821115613e135760008155600101613e18565b803573ffffffffffffffffffffffffffffffffffffffff81168114613e5057600080fd5b919050565b60008060408385031215613e6857600080fd5b613e7183613e2c565b946020939093013593505050565b7fffffffff0000000000000000000000000000000000000000000000000000000081168114612f8e57600080fd5b600060208284031215613ebf57600080fd5b8135613eca81613e7f565b9392505050565b600060208284031215613ee357600080fd5b5035919050565b60005b83811015613f05578181015183820152602001613eed565b50506000910152565b60008151808452613f26816020860160208601613eea565b601f017fffffffffffffffffffffffffffffffffffffffffffffffffffffffffffffffe0169290920160200192915050565b602081526000613eca6020830184613f0e565b7f4e487b7100000000000000000000000000000000000000000000000000000000600052604160045260246000fd5b60405160c0810167ffffffffffffffff81118282101715613fbd57613fbd613f6b565b60405290565b604051601f82017fffffffffffffffffffffffffffffffffffffffffffffffffffffffffffffffe016810167ffffffffffffffff8111828210171561400a5761400a613f6b565b604052919050565b600082601f83011261402357600080fd5b813567ffffffffffffffff81111561403d5761403d613f6b565b61406e60207fffffffffffffffffffffffffffffffffffffffffffffffffffffffffffffffe0601f84011601613fc3565b81815284602083860101111561408357600080fd5b816020850160208301376000918101602001919091529392505050565b600080604083850312156140b357600080fd5b82359150602083013567ffffffffffffffff808211156140d257600080fd5b90840190604082870312156140e657600080fd5b60405160408101818110838211171561410157614101613f6b565b60405282358281111561411357600080fd5b61411f88828601614012565b82525060208301358281111561413457600080fd5b61414088828601614012565b6020830152508093505050509250929050565b803560ff81168114613e5057600080fd5b60006020828403121561417657600080fd5b613eca82614153565b60006020828403121561419157600080fd5b613eca82613e2c565b600081518084526020808501945080840160005b838110156141ca578151875295820195908201906001016141ae565b509495945050505050565b602081526000613eca602083018461419a565b6000806000606084860312156141fd57600080fd5b505081359360208301359350604090920135919050565b600067ffffffffffffffff82111561422e5761422e613f6b565b5060051b60200190565b600082601f83011261424957600080fd5b8135602061425e61425983614214565b613fc3565b82815260059290921b8401810191818101908684111561427d57600080fd5b8286015b848110156142985780358352918301918301614281565b509695505050505050565b600080600080600060a086880312156142bb57600080fd5b6142c486613e2c565b94506142d260208701613e2c565b9350604086013567ffffffffffffffff808211156142ef57600080fd5b6142fb89838a01614238565b9450606088013591508082111561431157600080fd5b61431d89838a01614238565b9350608088013591508082111561433357600080fd5b5061434088828901614012565b9150509295509295909350565b6000806040838503121561436057600080fd5b823567ffffffffffffffff8082111561437857600080fd5b818501915085601f83011261438c57600080fd5b8135602061439c61425983614214565b82815260059290921b840181019181810190898411156143bb57600080fd5b948201945b838610156143e0576143d186613e2c565b825294820194908201906143c0565b965050860135925050808211156143f657600080fd5b5061440385828601614238565b9150509250929050565b600081518084526020808501945080840160005b838110156141ca57815163ffffffff1687529582019590820190600101614421565b602081528151602082015260006020830151614477604084018273ffffffffffffffffffffffffffffffffffffffff169052565b5060408301516060830152606083015161014080608085015261449e610160850183613f0e565b915060808501517fffffffffffffffffffffffffffffffffffffffffffffffffffffffffffffffe0808685030160a08701526144da8483613f0e565b935060a087015191506144f260c087018360ff169052565b60c087015160ff811660e0880152915060e0870151915061010081878603018188015261451f858461440d565b908801516101208881019190915290970151929095019190915250929392505050565b878152600073ffffffffffffffffffffffffffffffffffffffff808916602084015260e0604084015261457860e0840189613f0e565b838103606085015261458a8189613f0e565b91909616608084015260a08301949094525060c0015295945050505050565b60006101208b835273ffffffffffffffffffffffffffffffffffffffff8b1660208401528960408401528060608401526145e58184018a613f0e565b905082810360808401526145f98189613f0e565b60ff97881660a08501529590961660c08301525060e0810192909252610100909101529695505050505050565b600060a0828403121561463857600080fd5b60405160a0810167ffffffffffffffff828210818311171561465c5761465c613f6b565b81604052829350843591508082111561467457600080fd5b61468086838701614012565b8352602085013591508082111561469657600080fd5b506146a385828601614012565b6020830152506146b560408401613e2c565b604082015260608301356060820152608083013560808201525092915050565b6000602082840312156146e757600080fd5b813567ffffffffffffffff8111156146fe57600080fd5b61470a84828501614626565b949350505050565b6000806040838503121561472557600080fd5b50508035926020909101359150565b600082601f83011261474557600080fd5b8135602061475561425983614214565b82815260059290921b8401810191818101908684111561477457600080fd5b8286015b8481101561429857803563ffffffff811681146147955760008081fd5b8352918301918301614778565b6000602082840312156147b457600080fd5b813567ffffffffffffffff808211156147cc57600080fd5b9083019060c082860312156147e057600080fd5b6147e8613f9a565b8235828111156147f757600080fd5b61480387828601614012565b8252506020830135602082015261481c60408401614153565b604082015261482d60608401614153565b606082015260808301358281111561484457600080fd5b61485087828601614734565b60808301525060a08301358281111561486857600080fd5b61487487828601614012565b60a08301525095945050505050565b6000806040838503121561489657600080fd5b61489f83613e2c565b9150602083013580151581146148b457600080fd5b809150509250929050565b600080604083850312156148d257600080fd5b82359150602083013567ffffffffffffffff8111156148f057600080fd5b61440385828601614626565b6000806040838503121561490f57600080fd5b61491883613e2c565b915061492660208401613e2c565b90509250929050565b600080600080600060a0868803121561494757600080fd5b61495086613e2c565b945061495e60208701613e2c565b93506040860135925060608601359150608086013567ffffffffffffffff81111561498857600080fd5b61434088828901614012565b600181811c908216806149a857607f821691505b6020821081036115e8577f4e487b7100000000000000000000000000000000000000000000000000000000600052602260045260246000fd5b601f82111561339f57600081815260208120601f850160051c81016020861015614a085750805b601f850160051c820191505b81811015610f2657828155600101614a14565b815167ffffffffffffffff811115614a4157614a41613f6b565b614a5581614a4f8454614994565b846149e1565b602080601f831160018114614aa85760008415614a725750858301515b7fffffffffffffffffffffffffffffffffffffffffffffffffffffffffffffffff600386901b1c1916600185901b178555610f26565b6000858152602081207fffffffffffffffffffffffffffffffffffffffffffffffffffffffffffffffe08616915b82811015614af557888601518255948401946001909101908401614ad6565b5085821015614b3157878501517fffffffffffffffffffffffffffffffffffffffffffffffffffffffffffffffff600388901b60f8161c191681555b5050505050600190811b01905550565b604081526000614b546040830185613f0e565b8281036020840152611e618185613f0e565b7f4e487b7100000000000000000000000000000000000000000000000000000000600052601160045260246000fd5b80820281158282048414176108ab576108ab614b66565b600082614be2577f4e487b7100000000000000000000000000000000000000000000000000000000600052601260045260246000fd5b500490565b818103818111156108ab576108ab614b66565b7f4e487b7100000000000000000000000000000000000000000000000000000000600052603260045260246000fd5b60007fffffffffffffffffffffffffffffffffffffffffffffffffffffffffffffffff8203614c5a57614c5a614b66565b5060010190565b808201808211156108ab576108ab614b66565b600060ff821660ff8103614c8a57614c8a614b66565b60010192915050565b86815260c060208201526000614cac60c0830188613f0e565b8281036040840152614cbe8188613f0e565b73ffffffffffffffffffffffffffffffffffffffff9690961660608401525050608081019290925260a0909101529392505050565b838152826020820152606060408201526000611e61606083018461440d565b600060208284031215614d2457600080fd5b5051919050565b608081526000614d3e6080830187613f0e565b8281036020840152614d508187613f0e565b91505060ff8416604083015260ff8316606083015295945050505050565b60008251614d80818460208701613eea565b9190910192915050565b600073ffffffffffffffffffffffffffffffffffffffff808816835280871660208401525084604083015283606083015260a06080830152614dcf60a0830184613f0e565b979650505050505050565b600060208284031215614dec57600080fd5b8151613eca81613e7f565b600073ffffffffffffffffffffffffffffffffffffffff808816835280871660208401525060a06040830152614e3060a083018661419a565b8281036060840152614e42818661419a565b90508281036080840152614e568185613f0e565b98975050505050505050565b604081526000614e75604083018561419a565b8281036020840152611e61818561419a56fea264697066735822122010bb634302fd43733f95796ab109acf9b3c08114cfe250fb638976c2a32ffda564736f6c63430008140033",
  "libraries": {},
  "devdoc": {
    "errors": {
      "ERC1155InsufficientBalance(address,uint256,uint256,uint256)": [
        {
          "details": "Indicates an error related to the current `balance` of a `sender`. Used in transfers.",
          "params": {
            "balance": "Current balance for the interacting account.",
            "needed": "Minimum amount required to perform a transfer.",
            "sender": "Address whose tokens are being transferred.",
            "tokenId": "Identifier number of a token."
          }
        }
      ],
      "ERC1155InvalidApprover(address)": [
        {
          "details": "Indicates a failure with the `approver` of a token to be approved. Used in approvals.",
          "params": {
            "approver": "Address initiating an approval operation."
          }
        }
      ],
      "ERC1155InvalidArrayLength(uint256,uint256)": [
        {
          "details": "Indicates an array length mismatch between ids and values in a safeBatchTransferFrom operation. Used in batch transfers.",
          "params": {
            "idsLength": "Length of the array of token identifiers",
            "valuesLength": "Length of the array of token amounts"
          }
        }
      ],
      "ERC1155InvalidOperator(address)": [
        {
          "details": "Indicates a failure with the `operator` to be approved. Used in approvals.",
          "params": {
            "operator": "Address that may be allowed to operate on tokens without being their owner."
          }
        }
      ],
      "ERC1155InvalidReceiver(address)": [
        {
          "details": "Indicates a failure with the token `receiver`. Used in transfers.",
          "params": {
            "receiver": "Address to which tokens are being transferred."
          }
        }
      ],
      "ERC1155InvalidSender(address)": [
        {
          "details": "Indicates a failure with the token `sender`. Used in transfers.",
          "params": {
            "sender": "Address whose tokens are being transferred."
          }
        }
      ],
      "ERC1155MissingApprovalForAll(address,address)": [
        {
          "details": "Indicates a failure with the `operator`s approval. Used in transfers.",
          "params": {
            "operator": "Address that may be allowed to operate on tokens without being their owner.",
            "owner": "Address of the current owner of a token."
          }
        }
      ],
      "OwnableInvalidOwner(address)": [
        {
          "details": "The owner is not a valid owner account. (eg. `address(0)`)"
        }
      ],
      "OwnableUnauthorizedAccount(address)": [
        {
          "details": "The caller account is not authorized to perform an operation."
        }
      ],
      "ReentrancyGuardReentrantCall()": [
        {
          "details": "Unauthorized reentrant call."
        }
      ]
    },
    "events": {
      "ApprovalForAll(address,address,bool)": {
        "details": "Emitted when `account` grants or revokes permission to `operator` to transfer their tokens, according to `approved`."
      },
      "TransferBatch(address,address,address,uint256[],uint256[])": {
        "details": "Equivalent to multiple {TransferSingle} events, where `operator`, `from` and `to` are the same for all transfers."
      },
      "TransferSingle(address,address,address,uint256,uint256)": {
        "details": "Emitted when `value` amount of tokens of type `id` are transferred from `from` to `to` by `operator`."
      },
      "URI(string,uint256)": {
        "details": "Emitted when the URI for token type `id` changes to `value`, if it is a non-programmatic URI. If an {URI} event was emitted for `id`, the standard https://eips.ethereum.org/EIPS/eip-1155#metadata-extensions[guarantees] that `value` will equal the value returned by {IERC1155MetadataURI-uri}."
      }
    },
    "kind": "dev",
    "methods": {
      "balanceOf(address,uint256)": {
        "details": "See {IERC1155-balanceOf}."
      },
      "balanceOfBatch(address[],uint256[])": {
        "details": "See {IERC1155-balanceOfBatch}. Requirements: - `accounts` and `ids` must have the same length."
      },
      "exists(uint256)": {
        "details": "Indicates whether any token exist with a given id, or not."
      },
      "isApprovedForAll(address,address)": {
        "details": "See {IERC1155-isApprovedForAll}."
      },
      "owner()": {
        "details": "Returns the address of the current owner."
      },
      "renounceOwnership()": {
        "details": "Leaves the contract without owner. It will not be possible to call `onlyOwner` functions. Can only be called by the current owner. NOTE: Renouncing ownership will leave the contract without an owner, thereby disabling any functionality that is only available to the owner."
      },
      "safeBatchTransferFrom(address,address,uint256[],uint256[],bytes)": {
        "details": "See {IERC1155-safeBatchTransferFrom}."
      },
      "safeTransferFrom(address,address,uint256,uint256,bytes)": {
        "details": "See {IERC1155-safeTransferFrom}."
      },
      "setApprovalForAll(address,bool)": {
        "details": "See {IERC1155-setApprovalForAll}."
      },
      "supportsInterface(bytes4)": {
        "details": "See {IERC165-supportsInterface}."
      },
      "totalSupply()": {
        "details": "Total value of tokens."
      },
      "totalSupply(uint256)": {
        "details": "Total value of tokens in with a given id."
      },
      "transferOwnership(address)": {
        "details": "Transfers ownership of the contract to a new account (`newOwner`). Can only be called by the current owner."
      },
      "uri(uint256)": {
        "details": "See {IERC1155MetadataURI-uri}. This implementation returns the same URI for *all* token types. It relies on the token type ID substitution mechanism https://eips.ethereum.org/EIPS/eip-1155#metadata[defined in the EIP]. Clients calling this function must replace the `\\{id\\}` substring with the actual token type ID."
      }
    },
    "version": 1
  },
  "userdoc": {
    "kind": "user",
    "methods": {},
    "version": 1
  },
  "storageLayout": {
    "storage": [
      {
        "astId": 8,
        "contract": "contracts/core/IndieX.sol:IndieX",
        "label": "_owner",
        "offset": 0,
        "slot": "0",
        "type": "t_address"
      },
      {
        "astId": 326,
        "contract": "contracts/core/IndieX.sol:IndieX",
        "label": "_balances",
        "offset": 0,
        "slot": "1",
        "type": "t_mapping(t_uint256,t_mapping(t_address,t_uint256))"
      },
      {
        "astId": 332,
        "contract": "contracts/core/IndieX.sol:IndieX",
        "label": "_operatorApprovals",
        "offset": 0,
        "slot": "2",
        "type": "t_mapping(t_address,t_mapping(t_address,t_bool))"
      },
      {
        "astId": 334,
        "contract": "contracts/core/IndieX.sol:IndieX",
        "label": "_uri",
        "offset": 0,
        "slot": "3",
        "type": "t_string_storage"
      },
      {
        "astId": 1511,
        "contract": "contracts/core/IndieX.sol:IndieX",
        "label": "_totalSupply",
        "offset": 0,
        "slot": "4",
        "type": "t_mapping(t_uint256,t_uint256)"
      },
      {
        "astId": 1513,
        "contract": "contracts/core/IndieX.sol:IndieX",
        "label": "_totalSupplyAll",
        "offset": 0,
        "slot": "5",
        "type": "t_uint256"
      },
      {
        "astId": 2569,
        "contract": "contracts/core/IndieX.sol:IndieX",
        "label": "_status",
        "offset": 0,
        "slot": "6",
        "type": "t_uint256"
      },
      {
        "astId": 3919,
        "contract": "contracts/core/IndieX.sol:IndieX",
        "label": "curveIndex",
        "offset": 0,
        "slot": "7",
        "type": "t_uint8"
      },
      {
        "astId": 3923,
        "contract": "contracts/core/IndieX.sol:IndieX",
        "label": "curves",
        "offset": 0,
        "slot": "8",
        "type": "t_mapping(t_uint8,t_address)"
      },
      {
        "astId": 3926,
        "contract": "contracts/core/IndieX.sol:IndieX",
        "label": "farmerIndex",
        "offset": 0,
        "slot": "9",
        "type": "t_uint8"
      },
      {
        "astId": 3930,
        "contract": "contracts/core/IndieX.sol:IndieX",
        "label": "farmers",
        "offset": 0,
        "slot": "10",
        "type": "t_mapping(t_uint8,t_address)"
      },
      {
        "astId": 3932,
        "contract": "contracts/core/IndieX.sol:IndieX",
        "label": "appIndex",
        "offset": 0,
        "slot": "11",
        "type": "t_uint256"
      },
      {
        "astId": 3937,
        "contract": "contracts/core/IndieX.sol:IndieX",
        "label": "apps",
        "offset": 0,
        "slot": "12",
        "type": "t_mapping(t_uint256,t_struct(App)3875_storage)"
      },
      {
        "astId": 3939,
        "contract": "contracts/core/IndieX.sol:IndieX",
        "label": "creationIndex",
        "offset": 0,
        "slot": "13",
        "type": "t_uint256"
      },
      {
        "astId": 3944,
        "contract": "contracts/core/IndieX.sol:IndieX",
        "label": "creations",
        "offset": 0,
        "slot": "14",
        "type": "t_mapping(t_uint256,t_struct(Creation)3916_storage)"
      },
      {
        "astId": 3949,
        "contract": "contracts/core/IndieX.sol:IndieX",
        "label": "userCreations",
        "offset": 0,
        "slot": "15",
        "type": "t_mapping(t_address,t_array(t_uint256)dyn_storage)"
      },
      {
        "astId": 3952,
        "contract": "contracts/core/IndieX.sol:IndieX",
        "label": "ethAmount",
        "offset": 0,
        "slot": "16",
        "type": "t_uint256"
      },
      {
        "astId": 3958,
        "contract": "contracts/core/IndieX.sol:IndieX",
        "label": "protocolFeePercent",
        "offset": 0,
        "slot": "17",
        "type": "t_uint256"
      }
    ],
    "types": {
      "t_address": {
        "encoding": "inplace",
        "label": "address",
        "numberOfBytes": "20"
      },
      "t_array(t_uint256)dyn_storage": {
        "base": "t_uint256",
        "encoding": "dynamic_array",
        "label": "uint256[]",
        "numberOfBytes": "32"
      },
      "t_array(t_uint32)dyn_storage": {
        "base": "t_uint32",
        "encoding": "dynamic_array",
        "label": "uint32[]",
        "numberOfBytes": "32"
      },
      "t_bool": {
        "encoding": "inplace",
        "label": "bool",
        "numberOfBytes": "1"
      },
      "t_mapping(t_address,t_array(t_uint256)dyn_storage)": {
        "encoding": "mapping",
        "key": "t_address",
        "label": "mapping(address => uint256[])",
        "numberOfBytes": "32",
        "value": "t_array(t_uint256)dyn_storage"
      },
      "t_mapping(t_address,t_bool)": {
        "encoding": "mapping",
        "key": "t_address",
        "label": "mapping(address => bool)",
        "numberOfBytes": "32",
        "value": "t_bool"
      },
      "t_mapping(t_address,t_mapping(t_address,t_bool))": {
        "encoding": "mapping",
        "key": "t_address",
        "label": "mapping(address => mapping(address => bool))",
        "numberOfBytes": "32",
        "value": "t_mapping(t_address,t_bool)"
      },
      "t_mapping(t_address,t_uint256)": {
        "encoding": "mapping",
        "key": "t_address",
        "label": "mapping(address => uint256)",
        "numberOfBytes": "32",
        "value": "t_uint256"
      },
      "t_mapping(t_uint256,t_mapping(t_address,t_uint256))": {
        "encoding": "mapping",
        "key": "t_uint256",
        "label": "mapping(uint256 => mapping(address => uint256))",
        "numberOfBytes": "32",
        "value": "t_mapping(t_address,t_uint256)"
      },
      "t_mapping(t_uint256,t_struct(App)3875_storage)": {
        "encoding": "mapping",
        "key": "t_uint256",
        "label": "mapping(uint256 => struct IndieX.App)",
        "numberOfBytes": "32",
        "value": "t_struct(App)3875_storage"
      },
      "t_mapping(t_uint256,t_struct(Creation)3916_storage)": {
        "encoding": "mapping",
        "key": "t_uint256",
        "label": "mapping(uint256 => struct IndieX.Creation)",
        "numberOfBytes": "32",
        "value": "t_struct(Creation)3916_storage"
      },
      "t_mapping(t_uint256,t_uint256)": {
        "encoding": "mapping",
        "key": "t_uint256",
        "label": "mapping(uint256 => uint256)",
        "numberOfBytes": "32",
        "value": "t_uint256"
      },
      "t_mapping(t_uint8,t_address)": {
        "encoding": "mapping",
        "key": "t_uint8",
        "label": "mapping(uint8 => address)",
        "numberOfBytes": "32",
        "value": "t_address"
      },
      "t_string_storage": {
        "encoding": "bytes",
        "label": "string",
        "numberOfBytes": "32"
      },
      "t_struct(App)3875_storage": {
        "encoding": "inplace",
        "label": "struct IndieX.App",
        "members": [
          {
            "astId": 3862,
            "contract": "contracts/core/IndieX.sol:IndieX",
            "label": "id",
            "offset": 0,
            "slot": "0",
            "type": "t_uint256"
          },
          {
            "astId": 3864,
            "contract": "contracts/core/IndieX.sol:IndieX",
            "label": "creator",
            "offset": 0,
            "slot": "1",
            "type": "t_address"
          },
          {
            "astId": 3866,
            "contract": "contracts/core/IndieX.sol:IndieX",
            "label": "name",
            "offset": 0,
            "slot": "2",
            "type": "t_string_storage"
          },
          {
            "astId": 3868,
            "contract": "contracts/core/IndieX.sol:IndieX",
            "label": "uri",
            "offset": 0,
            "slot": "3",
            "type": "t_string_storage"
          },
          {
            "astId": 3870,
            "contract": "contracts/core/IndieX.sol:IndieX",
            "label": "feeTo",
            "offset": 0,
            "slot": "4",
            "type": "t_address"
          },
          {
            "astId": 3872,
            "contract": "contracts/core/IndieX.sol:IndieX",
            "label": "appFeePercent",
            "offset": 0,
            "slot": "5",
            "type": "t_uint256"
          },
          {
            "astId": 3874,
            "contract": "contracts/core/IndieX.sol:IndieX",
            "label": "creatorFeePercent",
            "offset": 0,
            "slot": "6",
            "type": "t_uint256"
          }
        ],
        "numberOfBytes": "224"
      },
      "t_struct(Creation)3916_storage": {
        "encoding": "inplace",
        "label": "struct IndieX.Creation",
        "members": [
          {
            "astId": 3896,
            "contract": "contracts/core/IndieX.sol:IndieX",
            "label": "id",
            "offset": 0,
            "slot": "0",
            "type": "t_uint256"
          },
          {
            "astId": 3898,
            "contract": "contracts/core/IndieX.sol:IndieX",
            "label": "creator",
            "offset": 0,
            "slot": "1",
            "type": "t_address"
          },
          {
            "astId": 3900,
            "contract": "contracts/core/IndieX.sol:IndieX",
            "label": "appId",
            "offset": 0,
            "slot": "2",
            "type": "t_uint256"
          },
          {
            "astId": 3902,
            "contract": "contracts/core/IndieX.sol:IndieX",
            "label": "name",
            "offset": 0,
            "slot": "3",
            "type": "t_string_storage"
          },
          {
            "astId": 3904,
            "contract": "contracts/core/IndieX.sol:IndieX",
            "label": "uri",
            "offset": 0,
            "slot": "4",
            "type": "t_string_storage"
          },
          {
            "astId": 3906,
            "contract": "contracts/core/IndieX.sol:IndieX",
            "label": "farmer",
            "offset": 0,
            "slot": "5",
            "type": "t_uint8"
          },
          {
            "astId": 3908,
            "contract": "contracts/core/IndieX.sol:IndieX",
            "label": "curve",
            "offset": 1,
            "slot": "5",
            "type": "t_uint8"
          },
          {
            "astId": 3911,
            "contract": "contracts/core/IndieX.sol:IndieX",
            "label": "curveArgs",
            "offset": 0,
            "slot": "6",
            "type": "t_array(t_uint32)dyn_storage"
          },
          {
            "astId": 3913,
            "contract": "contracts/core/IndieX.sol:IndieX",
            "label": "balance",
            "offset": 0,
            "slot": "7",
            "type": "t_uint256"
          },
          {
            "astId": 3915,
            "contract": "contracts/core/IndieX.sol:IndieX",
            "label": "volume",
            "offset": 0,
            "slot": "8",
            "type": "t_uint256"
          }
        ],
        "numberOfBytes": "288"
      },
      "t_uint256": {
        "encoding": "inplace",
        "label": "uint256",
        "numberOfBytes": "32"
      },
      "t_uint32": {
        "encoding": "inplace",
        "label": "uint32",
        "numberOfBytes": "4"
      },
      "t_uint8": {
        "encoding": "inplace",
        "label": "uint8",
        "numberOfBytes": "1"
      }
    }
  }
}