{
  "address": "0xb0aCADBFc3b5c76822D39E621B616aeFC9204E69",
  "abi": [
    {
      "inputs": [
        {
          "internalType": "address",
          "name": "initialOwner",
          "type": "address"
        }
      ],
      "stateMutability": "nonpayable",
      "type": "constructor"
    },
    {
      "inputs": [
        {
          "internalType": "address",
          "name": "sender",
          "type": "address"
        },
        {
          "internalType": "uint256",
          "name": "balance",
          "type": "uint256"
        },
        {
          "internalType": "uint256",
          "name": "needed",
          "type": "uint256"
        },
        {
          "internalType": "uint256",
          "name": "tokenId",
          "type": "uint256"
        }
      ],
      "name": "ERC1155InsufficientBalance",
      "type": "error"
    },
    {
      "inputs": [
        {
          "internalType": "address",
          "name": "approver",
          "type": "address"
        }
      ],
      "name": "ERC1155InvalidApprover",
      "type": "error"
    },
    {
      "inputs": [
        {
          "internalType": "uint256",
          "name": "idsLength",
          "type": "uint256"
        },
        {
          "internalType": "uint256",
          "name": "valuesLength",
          "type": "uint256"
        }
      ],
      "name": "ERC1155InvalidArrayLength",
      "type": "error"
    },
    {
      "inputs": [
        {
          "internalType": "address",
          "name": "operator",
          "type": "address"
        }
      ],
      "name": "ERC1155InvalidOperator",
      "type": "error"
    },
    {
      "inputs": [
        {
          "internalType": "address",
          "name": "receiver",
          "type": "address"
        }
      ],
      "name": "ERC1155InvalidReceiver",
      "type": "error"
    },
    {
      "inputs": [
        {
          "internalType": "address",
          "name": "sender",
          "type": "address"
        }
      ],
      "name": "ERC1155InvalidSender",
      "type": "error"
    },
    {
      "inputs": [
        {
          "internalType": "address",
          "name": "operator",
          "type": "address"
        },
        {
          "internalType": "address",
          "name": "owner",
          "type": "address"
        }
      ],
      "name": "ERC1155MissingApprovalForAll",
      "type": "error"
    },
    {
      "inputs": [
        {
          "internalType": "address",
          "name": "owner",
          "type": "address"
        }
      ],
      "name": "OwnableInvalidOwner",
      "type": "error"
    },
    {
      "inputs": [
        {
          "internalType": "address",
          "name": "account",
          "type": "address"
        }
      ],
      "name": "OwnableUnauthorizedAccount",
      "type": "error"
    },
    {
      "inputs": [],
      "name": "ReentrancyGuardReentrantCall",
      "type": "error"
    },
    {
      "anonymous": false,
      "inputs": [
        {
          "indexed": true,
          "internalType": "address",
          "name": "account",
          "type": "address"
        },
        {
          "indexed": true,
          "internalType": "address",
          "name": "operator",
          "type": "address"
        },
        {
          "indexed": false,
          "internalType": "bool",
          "name": "approved",
          "type": "bool"
        }
      ],
      "name": "ApprovalForAll",
      "type": "event"
    },
    {
      "anonymous": false,
      "inputs": [
        {
          "indexed": true,
          "internalType": "uint8",
          "name": "farmerIndex",
          "type": "uint8"
        },
        {
          "indexed": true,
          "internalType": "address",
          "name": "farmer",
          "type": "address"
        }
      ],
      "name": "FarmerAdded",
      "type": "event"
    },
    {
      "anonymous": false,
      "inputs": [
        {
          "indexed": false,
          "internalType": "uint256",
          "name": "id",
          "type": "uint256"
        },
        {
          "indexed": true,
          "internalType": "address",
          "name": "creator",
          "type": "address"
        },
        {
          "indexed": false,
          "internalType": "string",
          "name": "uri",
          "type": "string"
        },
        {
          "indexed": false,
          "internalType": "address",
          "name": "feeTo",
          "type": "address"
        },
        {
          "indexed": false,
          "internalType": "uint256",
          "name": "appFeePercent",
          "type": "uint256"
        },
        {
          "indexed": false,
          "internalType": "uint256",
          "name": "creatorFeePercent",
          "type": "uint256"
        }
      ],
      "name": "NewApp",
      "type": "event"
    },
    {
      "anonymous": false,
      "inputs": [
        {
          "indexed": true,
          "internalType": "uint256",
          "name": "creationId",
          "type": "uint256"
        },
        {
          "indexed": true,
          "internalType": "address",
          "name": "creator",
          "type": "address"
        },
        {
          "indexed": true,
          "internalType": "uint256",
          "name": "appId",
          "type": "uint256"
        },
        {
          "indexed": false,
          "internalType": "string",
          "name": "uri",
          "type": "string"
        },
        {
          "components": [
            {
              "internalType": "uint96",
              "name": "basePrice",
              "type": "uint96"
            },
            {
              "internalType": "uint32",
              "name": "inflectionPoint",
              "type": "uint32"
            },
            {
              "internalType": "uint128",
              "name": "inflectionPrice",
              "type": "uint128"
            },
            {
              "internalType": "uint128",
              "name": "linearPriceSlope",
              "type": "uint128"
            }
          ],
          "indexed": false,
          "internalType": "struct IndieX.Curve",
          "name": "curve",
          "type": "tuple"
        },
        {
          "indexed": false,
          "internalType": "uint8",
          "name": "farmerId",
          "type": "uint8"
        },
        {
          "indexed": false,
          "internalType": "bool",
          "name": "isFarming",
          "type": "bool"
        }
      ],
      "name": "NewCreation",
      "type": "event"
    },
    {
      "anonymous": false,
      "inputs": [
        {
          "indexed": true,
          "internalType": "address",
          "name": "previousOwner",
          "type": "address"
        },
        {
          "indexed": true,
          "internalType": "address",
          "name": "newOwner",
          "type": "address"
        }
      ],
      "name": "OwnershipTransferred",
      "type": "event"
    },
    {
      "anonymous": false,
      "inputs": [
        {
          "indexed": false,
          "internalType": "uint256",
          "name": "previousFeePercent",
          "type": "uint256"
        },
        {
          "indexed": false,
          "internalType": "uint256",
          "name": "newFeePercent",
          "type": "uint256"
        }
      ],
      "name": "ProtocolFeePercentUpdated",
      "type": "event"
    },
    {
      "anonymous": false,
      "inputs": [
        {
          "indexed": true,
          "internalType": "address",
          "name": "previousFeeTo",
          "type": "address"
        },
        {
          "indexed": true,
          "internalType": "address",
          "name": "newFeeTo",
          "type": "address"
        }
      ],
      "name": "ProtocolFeeToUpdated",
      "type": "event"
    },
    {
      "anonymous": false,
      "inputs": [
        {
          "indexed": true,
          "internalType": "enum IndieX.TradeType",
          "name": "tradeType",
          "type": "uint8"
        },
        {
          "indexed": true,
          "internalType": "uint256",
          "name": "creationId",
          "type": "uint256"
        },
        {
          "indexed": true,
          "internalType": "address",
          "name": "sender",
          "type": "address"
        },
        {
          "indexed": false,
          "internalType": "uint256",
          "name": "tokenAmount",
          "type": "uint256"
        },
        {
          "indexed": false,
          "internalType": "uint256",
          "name": "fundAmount",
          "type": "uint256"
        },
        {
          "indexed": false,
          "internalType": "uint256",
          "name": "creatorFee",
          "type": "uint256"
        },
        {
          "indexed": false,
          "internalType": "uint256",
          "name": "appFee",
          "type": "uint256"
        },
        {
          "indexed": false,
          "internalType": "uint256",
          "name": "protocolFee",
          "type": "uint256"
        },
        {
          "indexed": false,
          "internalType": "address",
          "name": "curator",
          "type": "address"
        },
        {
          "indexed": false,
          "internalType": "uint256",
          "name": "curatorFee",
          "type": "uint256"
        }
      ],
      "name": "Trade",
      "type": "event"
    },
    {
      "anonymous": false,
      "inputs": [
        {
          "indexed": true,
          "internalType": "address",
          "name": "operator",
          "type": "address"
        },
        {
          "indexed": true,
          "internalType": "address",
          "name": "from",
          "type": "address"
        },
        {
          "indexed": true,
          "internalType": "address",
          "name": "to",
          "type": "address"
        },
        {
          "indexed": false,
          "internalType": "uint256[]",
          "name": "ids",
          "type": "uint256[]"
        },
        {
          "indexed": false,
          "internalType": "uint256[]",
          "name": "values",
          "type": "uint256[]"
        }
      ],
      "name": "TransferBatch",
      "type": "event"
    },
    {
      "anonymous": false,
      "inputs": [
        {
          "indexed": true,
          "internalType": "address",
          "name": "operator",
          "type": "address"
        },
        {
          "indexed": true,
          "internalType": "address",
          "name": "from",
          "type": "address"
        },
        {
          "indexed": true,
          "internalType": "address",
          "name": "to",
          "type": "address"
        },
        {
          "indexed": false,
          "internalType": "uint256",
          "name": "id",
          "type": "uint256"
        },
        {
          "indexed": false,
          "internalType": "uint256",
          "name": "value",
          "type": "uint256"
        }
      ],
      "name": "TransferSingle",
      "type": "event"
    },
    {
      "anonymous": false,
      "inputs": [
        {
          "indexed": false,
          "internalType": "string",
          "name": "value",
          "type": "string"
        },
        {
          "indexed": true,
          "internalType": "uint256",
          "name": "id",
          "type": "uint256"
        }
      ],
      "name": "URI",
      "type": "event"
    },
    {
      "anonymous": false,
      "inputs": [
        {
          "indexed": false,
          "internalType": "uint256",
          "name": "id",
          "type": "uint256"
        },
        {
          "indexed": true,
          "internalType": "address",
          "name": "creator",
          "type": "address"
        },
        {
          "indexed": false,
          "internalType": "string",
          "name": "uri",
          "type": "string"
        },
        {
          "indexed": false,
          "internalType": "address",
          "name": "feeTo",
          "type": "address"
        },
        {
          "indexed": false,
          "internalType": "uint256",
          "name": "appFeePercent",
          "type": "uint256"
        },
        {
          "indexed": false,
          "internalType": "uint256",
          "name": "creatorFeePercent",
          "type": "uint256"
        }
      ],
      "name": "UpdateApp",
      "type": "event"
    },
    {
      "anonymous": false,
      "inputs": [
        {
          "indexed": true,
          "internalType": "uint256",
          "name": "creationId",
          "type": "uint256"
        },
        {
          "indexed": true,
          "internalType": "address",
          "name": "creator",
          "type": "address"
        },
        {
          "indexed": true,
          "internalType": "uint256",
          "name": "appId",
          "type": "uint256"
        },
        {
          "indexed": false,
          "internalType": "string",
          "name": "uri",
          "type": "string"
        }
      ],
      "name": "UpdateCreation",
      "type": "event"
    },
    {
      "stateMutability": "payable",
      "type": "fallback"
    },
    {
      "inputs": [],
      "name": "CREATOR_PREMINT",
      "outputs": [
        {
          "internalType": "uint256",
          "name": "",
          "type": "uint256"
        }
      ],
      "stateMutability": "view",
      "type": "function"
    },
    {
      "inputs": [
        {
          "internalType": "address",
          "name": "farmer",
          "type": "address"
        }
      ],
      "name": "addFarmer",
      "outputs": [],
      "stateMutability": "nonpayable",
      "type": "function"
    },
    {
      "inputs": [],
      "name": "appIndex",
      "outputs": [
        {
          "internalType": "uint256",
          "name": "",
          "type": "uint256"
        }
      ],
      "stateMutability": "view",
      "type": "function"
    },
    {
      "inputs": [
        {
          "internalType": "uint256",
          "name": "",
          "type": "uint256"
        }
      ],
      "name": "apps",
      "outputs": [
        {
          "internalType": "uint256",
          "name": "id",
          "type": "uint256"
        },
        {
          "internalType": "address",
          "name": "creator",
          "type": "address"
        },
        {
          "internalType": "string",
          "name": "uri",
          "type": "string"
        },
        {
          "internalType": "address",
          "name": "feeTo",
          "type": "address"
        },
        {
          "internalType": "uint256",
          "name": "appFeePercent",
          "type": "uint256"
        },
        {
          "internalType": "uint256",
          "name": "creatorFeePercent",
          "type": "uint256"
        }
      ],
      "stateMutability": "view",
      "type": "function"
    },
    {
      "inputs": [
        {
          "internalType": "address",
          "name": "account",
          "type": "address"
        },
        {
          "internalType": "uint256",
          "name": "id",
          "type": "uint256"
        }
      ],
      "name": "balanceOf",
      "outputs": [
        {
          "internalType": "uint256",
          "name": "",
          "type": "uint256"
        }
      ],
      "stateMutability": "view",
      "type": "function"
    },
    {
      "inputs": [
        {
          "internalType": "address[]",
          "name": "accounts",
          "type": "address[]"
        },
        {
          "internalType": "uint256[]",
          "name": "ids",
          "type": "uint256[]"
        }
      ],
      "name": "balanceOfBatch",
      "outputs": [
        {
          "internalType": "uint256[]",
          "name": "",
          "type": "uint256[]"
        }
      ],
      "stateMutability": "view",
      "type": "function"
    },
    {
      "inputs": [
        {
          "internalType": "uint256",
          "name": "creationId",
          "type": "uint256"
        },
        {
          "internalType": "uint32",
          "name": "amount",
          "type": "uint32"
        },
        {
          "internalType": "address",
          "name": "curator",
          "type": "address"
        }
      ],
      "name": "buy",
      "outputs": [],
      "stateMutability": "payable",
      "type": "function"
    },
    {
      "inputs": [],
      "name": "creationIndex",
      "outputs": [
        {
          "internalType": "uint256",
          "name": "",
          "type": "uint256"
        }
      ],
      "stateMutability": "view",
      "type": "function"
    },
    {
      "inputs": [
        {
          "internalType": "uint256",
          "name": "id",
          "type": "uint256"
        }
      ],
      "name": "creationSupply",
      "outputs": [
        {
          "internalType": "uint256",
          "name": "",
          "type": "uint256"
        }
      ],
      "stateMutability": "view",
      "type": "function"
    },
    {
      "inputs": [
        {
          "internalType": "uint256",
          "name": "",
          "type": "uint256"
        }
      ],
      "name": "creations",
      "outputs": [
        {
          "internalType": "uint256",
          "name": "id",
          "type": "uint256"
        },
        {
          "internalType": "uint256",
          "name": "appId",
          "type": "uint256"
        },
        {
          "internalType": "address",
          "name": "creator",
          "type": "address"
        },
        {
          "internalType": "string",
          "name": "uri",
          "type": "string"
        },
        {
          "internalType": "uint256",
          "name": "curatorFeePercent",
          "type": "uint256"
        },
        {
          "components": [
            {
              "internalType": "uint96",
              "name": "basePrice",
              "type": "uint96"
            },
            {
              "internalType": "uint32",
              "name": "inflectionPoint",
              "type": "uint32"
            },
            {
              "internalType": "uint128",
              "name": "inflectionPrice",
              "type": "uint128"
            },
            {
              "internalType": "uint128",
              "name": "linearPriceSlope",
              "type": "uint128"
            }
          ],
          "internalType": "struct IndieX.Curve",
          "name": "curve",
          "type": "tuple"
        },
        {
          "internalType": "uint8",
          "name": "farmer",
          "type": "uint8"
        },
        {
          "internalType": "bool",
          "name": "isFarming",
          "type": "bool"
        },
        {
          "internalType": "uint256",
          "name": "balance",
          "type": "uint256"
        },
        {
          "internalType": "uint256",
          "name": "volume",
          "type": "uint256"
        }
      ],
      "stateMutability": "view",
      "type": "function"
    },
    {
      "inputs": [
        {
          "internalType": "uint256",
          "name": "id",
          "type": "uint256"
        }
      ],
      "name": "exists",
      "outputs": [
        {
          "internalType": "bool",
          "name": "",
          "type": "bool"
        }
      ],
      "stateMutability": "view",
      "type": "function"
    },
    {
      "inputs": [],
      "name": "farmerIndex",
      "outputs": [
        {
          "internalType": "uint8",
          "name": "",
          "type": "uint8"
        }
      ],
      "stateMutability": "view",
      "type": "function"
    },
    {
      "inputs": [
        {
          "internalType": "uint8",
          "name": "",
          "type": "uint8"
        }
      ],
      "name": "farmers",
      "outputs": [
        {
          "internalType": "address",
          "name": "",
          "type": "address"
        }
      ],
      "stateMutability": "view",
      "type": "function"
    },
    {
      "inputs": [
        {
          "internalType": "uint256",
          "name": "id",
          "type": "uint256"
        }
      ],
      "name": "getApp",
      "outputs": [
        {
          "components": [
            {
              "internalType": "uint256",
              "name": "id",
              "type": "uint256"
            },
            {
              "internalType": "address",
              "name": "creator",
              "type": "address"
            },
            {
              "internalType": "string",
              "name": "uri",
              "type": "string"
            },
            {
              "internalType": "address",
              "name": "feeTo",
              "type": "address"
            },
            {
              "internalType": "uint256",
              "name": "appFeePercent",
              "type": "uint256"
            },
            {
              "internalType": "uint256",
              "name": "creatorFeePercent",
              "type": "uint256"
            }
          ],
          "internalType": "struct IndieX.App",
          "name": "",
          "type": "tuple"
        }
      ],
      "stateMutability": "view",
      "type": "function"
    },
    {
      "inputs": [
        {
          "internalType": "uint256",
          "name": "creationId",
          "type": "uint256"
        },
        {
          "internalType": "uint32",
          "name": "amount",
          "type": "uint32"
        }
      ],
      "name": "getBuyPrice",
      "outputs": [
        {
          "internalType": "uint256",
          "name": "",
          "type": "uint256"
        }
      ],
      "stateMutability": "view",
      "type": "function"
    },
    {
      "inputs": [
        {
          "internalType": "uint256",
          "name": "creationId",
          "type": "uint256"
        },
        {
          "internalType": "uint32",
          "name": "amount",
          "type": "uint32"
        },
        {
          "internalType": "uint256",
          "name": "appId",
          "type": "uint256"
        }
      ],
      "name": "getBuyPriceAfterFee",
      "outputs": [
        {
          "components": [
            {
              "internalType": "uint256",
              "name": "priceAfterFee",
              "type": "uint256"
            },
            {
              "internalType": "uint256",
              "name": "price",
              "type": "uint256"
            },
            {
              "internalType": "uint256",
              "name": "creatorFee",
              "type": "uint256"
            },
            {
              "internalType": "uint256",
              "name": "appFee",
              "type": "uint256"
            },
            {
              "internalType": "uint256",
              "name": "protocolFee",
              "type": "uint256"
            }
          ],
          "internalType": "struct IndieX.PriceInfo",
          "name": "",
          "type": "tuple"
        }
      ],
      "stateMutability": "view",
      "type": "function"
    },
    {
      "inputs": [
        {
          "internalType": "uint256",
          "name": "id",
          "type": "uint256"
        }
      ],
      "name": "getCreation",
      "outputs": [
        {
          "components": [
            {
              "internalType": "uint256",
              "name": "id",
              "type": "uint256"
            },
            {
              "internalType": "uint256",
              "name": "appId",
              "type": "uint256"
            },
            {
              "internalType": "address",
              "name": "creator",
              "type": "address"
            },
            {
              "internalType": "string",
              "name": "uri",
              "type": "string"
            },
            {
              "internalType": "uint256",
              "name": "curatorFeePercent",
              "type": "uint256"
            },
            {
              "components": [
                {
                  "internalType": "uint96",
                  "name": "basePrice",
                  "type": "uint96"
                },
                {
                  "internalType": "uint32",
                  "name": "inflectionPoint",
                  "type": "uint32"
                },
                {
                  "internalType": "uint128",
                  "name": "inflectionPrice",
                  "type": "uint128"
                },
                {
                  "internalType": "uint128",
                  "name": "linearPriceSlope",
                  "type": "uint128"
                }
              ],
              "internalType": "struct IndieX.Curve",
              "name": "curve",
              "type": "tuple"
            },
            {
              "internalType": "uint8",
              "name": "farmer",
              "type": "uint8"
            },
            {
              "internalType": "bool",
              "name": "isFarming",
              "type": "bool"
            },
            {
              "internalType": "uint256",
              "name": "balance",
              "type": "uint256"
            },
            {
              "internalType": "uint256",
              "name": "volume",
              "type": "uint256"
            }
          ],
          "internalType": "struct IndieX.Creation",
          "name": "",
          "type": "tuple"
        }
      ],
      "stateMutability": "view",
      "type": "function"
    },
    {
      "inputs": [
        {
          "internalType": "uint256",
          "name": "creationId",
          "type": "uint256"
        },
        {
          "internalType": "uint32",
          "name": "amount",
          "type": "uint32"
        }
      ],
      "name": "getSellPrice",
      "outputs": [
        {
          "internalType": "uint256",
          "name": "",
          "type": "uint256"
        }
      ],
      "stateMutability": "view",
      "type": "function"
    },
    {
      "inputs": [
        {
          "internalType": "uint256",
          "name": "creationId",
          "type": "uint256"
        },
        {
          "internalType": "uint32",
          "name": "amount",
          "type": "uint32"
        },
        {
          "internalType": "uint256",
          "name": "appId",
          "type": "uint256"
        }
      ],
      "name": "getSellPriceAfterFee",
      "outputs": [
        {
          "components": [
            {
              "internalType": "uint256",
              "name": "priceAfterFee",
              "type": "uint256"
            },
            {
              "internalType": "uint256",
              "name": "price",
              "type": "uint256"
            },
            {
              "internalType": "uint256",
              "name": "creatorFee",
              "type": "uint256"
            },
            {
              "internalType": "uint256",
              "name": "appFee",
              "type": "uint256"
            },
            {
              "internalType": "uint256",
              "name": "protocolFee",
              "type": "uint256"
            }
          ],
          "internalType": "struct IndieX.PriceInfo",
          "name": "",
          "type": "tuple"
        }
      ],
      "stateMutability": "view",
      "type": "function"
    },
    {
      "inputs": [
        {
          "components": [
            {
              "internalType": "uint256",
              "name": "id",
              "type": "uint256"
            },
            {
              "internalType": "uint256",
              "name": "appId",
              "type": "uint256"
            },
            {
              "internalType": "address",
              "name": "creator",
              "type": "address"
            },
            {
              "internalType": "string",
              "name": "uri",
              "type": "string"
            },
            {
              "internalType": "uint256",
              "name": "curatorFeePercent",
              "type": "uint256"
            },
            {
              "components": [
                {
                  "internalType": "uint96",
                  "name": "basePrice",
                  "type": "uint96"
                },
                {
                  "internalType": "uint32",
                  "name": "inflectionPoint",
                  "type": "uint32"
                },
                {
                  "internalType": "uint128",
                  "name": "inflectionPrice",
                  "type": "uint128"
                },
                {
                  "internalType": "uint128",
                  "name": "linearPriceSlope",
                  "type": "uint128"
                }
              ],
              "internalType": "struct IndieX.Curve",
              "name": "curve",
              "type": "tuple"
            },
            {
              "internalType": "uint8",
              "name": "farmer",
              "type": "uint8"
            },
            {
              "internalType": "bool",
              "name": "isFarming",
              "type": "bool"
            },
            {
              "internalType": "uint256",
              "name": "balance",
              "type": "uint256"
            },
            {
              "internalType": "uint256",
              "name": "volume",
              "type": "uint256"
            }
          ],
          "internalType": "struct IndieX.Creation",
          "name": "creation",
          "type": "tuple"
        },
        {
          "internalType": "uint32",
          "name": "fromSupply",
          "type": "uint32"
        },
        {
          "internalType": "uint32",
          "name": "quantity",
          "type": "uint32"
        }
      ],
      "name": "getSubTotal",
      "outputs": [
        {
          "internalType": "uint256",
          "name": "",
          "type": "uint256"
        }
      ],
      "stateMutability": "pure",
      "type": "function"
    },
    {
      "inputs": [
        {
          "internalType": "address",
          "name": "creator",
          "type": "address"
        }
      ],
      "name": "getUserCreations",
      "outputs": [
        {
          "internalType": "uint256[]",
          "name": "",
          "type": "uint256[]"
        }
      ],
      "stateMutability": "view",
      "type": "function"
    },
    {
      "inputs": [
        {
          "internalType": "address",
          "name": "creator",
          "type": "address"
        }
      ],
      "name": "getUserLatestCreation",
      "outputs": [
        {
          "components": [
            {
              "internalType": "uint256",
              "name": "id",
              "type": "uint256"
            },
            {
              "internalType": "uint256",
              "name": "appId",
              "type": "uint256"
            },
            {
              "internalType": "address",
              "name": "creator",
              "type": "address"
            },
            {
              "internalType": "string",
              "name": "uri",
              "type": "string"
            },
            {
              "internalType": "uint256",
              "name": "curatorFeePercent",
              "type": "uint256"
            },
            {
              "components": [
                {
                  "internalType": "uint96",
                  "name": "basePrice",
                  "type": "uint96"
                },
                {
                  "internalType": "uint32",
                  "name": "inflectionPoint",
                  "type": "uint32"
                },
                {
                  "internalType": "uint128",
                  "name": "inflectionPrice",
                  "type": "uint128"
                },
                {
                  "internalType": "uint128",
                  "name": "linearPriceSlope",
                  "type": "uint128"
                }
              ],
              "internalType": "struct IndieX.Curve",
              "name": "curve",
              "type": "tuple"
            },
            {
              "internalType": "uint8",
              "name": "farmer",
              "type": "uint8"
            },
            {
              "internalType": "bool",
              "name": "isFarming",
              "type": "bool"
            },
            {
              "internalType": "uint256",
              "name": "balance",
              "type": "uint256"
            },
            {
              "internalType": "uint256",
              "name": "volume",
              "type": "uint256"
            }
          ],
          "internalType": "struct IndieX.Creation",
          "name": "creation",
          "type": "tuple"
        }
      ],
      "stateMutability": "view",
      "type": "function"
    },
    {
      "inputs": [
        {
          "internalType": "address",
          "name": "account",
          "type": "address"
        },
        {
          "internalType": "address",
          "name": "operator",
          "type": "address"
        }
      ],
      "name": "isApprovedForAll",
      "outputs": [
        {
          "internalType": "bool",
          "name": "",
          "type": "bool"
        }
      ],
      "stateMutability": "view",
      "type": "function"
    },
    {
      "inputs": [
        {
          "components": [
            {
              "internalType": "string",
              "name": "uri",
              "type": "string"
            },
            {
              "internalType": "address",
              "name": "feeTo",
              "type": "address"
            },
            {
              "internalType": "uint256",
              "name": "appFeePercent",
              "type": "uint256"
            },
            {
              "internalType": "uint256",
              "name": "creatorFeePercent",
              "type": "uint256"
            }
          ],
          "internalType": "struct IndieX.UpsertAppInput",
          "name": "input",
          "type": "tuple"
        }
      ],
      "name": "newApp",
      "outputs": [],
      "stateMutability": "nonpayable",
      "type": "function"
    },
    {
      "inputs": [
        {
          "components": [
            {
              "internalType": "uint256",
              "name": "appId",
              "type": "uint256"
            },
            {
              "internalType": "string",
              "name": "uri",
              "type": "string"
            },
            {
              "internalType": "uint256",
              "name": "curatorFeePercent",
              "type": "uint256"
            },
            {
              "components": [
                {
                  "internalType": "uint96",
                  "name": "basePrice",
                  "type": "uint96"
                },
                {
                  "internalType": "uint32",
                  "name": "inflectionPoint",
                  "type": "uint32"
                },
                {
                  "internalType": "uint128",
                  "name": "inflectionPrice",
                  "type": "uint128"
                },
                {
                  "internalType": "uint128",
                  "name": "linearPriceSlope",
                  "type": "uint128"
                }
              ],
              "internalType": "struct IndieX.Curve",
              "name": "curve",
              "type": "tuple"
            },
            {
              "internalType": "uint8",
              "name": "farmer",
              "type": "uint8"
            },
            {
              "internalType": "bool",
              "name": "isFarming",
              "type": "bool"
            }
          ],
          "internalType": "struct IndieX.NewCreationInput",
          "name": "input",
          "type": "tuple"
        }
      ],
      "name": "newCreation",
      "outputs": [
        {
          "internalType": "uint256",
          "name": "creationId",
          "type": "uint256"
        }
      ],
      "stateMutability": "nonpayable",
      "type": "function"
    },
    {
      "inputs": [],
      "name": "owner",
      "outputs": [
        {
          "internalType": "address",
          "name": "",
          "type": "address"
        }
      ],
      "stateMutability": "view",
      "type": "function"
    },
    {
      "inputs": [],
      "name": "protocolFeePercent",
      "outputs": [
        {
          "internalType": "uint256",
          "name": "",
          "type": "uint256"
        }
      ],
      "stateMutability": "view",
      "type": "function"
    },
    {
      "inputs": [],
      "name": "protocolFeeTo",
      "outputs": [
        {
          "internalType": "address",
          "name": "",
          "type": "address"
        }
      ],
      "stateMutability": "view",
      "type": "function"
    },
    {
      "inputs": [],
      "name": "renounceOwnership",
      "outputs": [],
      "stateMutability": "nonpayable",
      "type": "function"
    },
    {
      "inputs": [
        {
          "internalType": "address",
          "name": "from",
          "type": "address"
        },
        {
          "internalType": "address",
          "name": "to",
          "type": "address"
        },
        {
          "internalType": "uint256[]",
          "name": "ids",
          "type": "uint256[]"
        },
        {
          "internalType": "uint256[]",
          "name": "values",
          "type": "uint256[]"
        },
        {
          "internalType": "bytes",
          "name": "data",
          "type": "bytes"
        }
      ],
      "name": "safeBatchTransferFrom",
      "outputs": [],
      "stateMutability": "nonpayable",
      "type": "function"
    },
    {
      "inputs": [
        {
          "internalType": "address",
          "name": "from",
          "type": "address"
        },
        {
          "internalType": "address",
          "name": "to",
          "type": "address"
        },
        {
          "internalType": "uint256",
          "name": "id",
          "type": "uint256"
        },
        {
          "internalType": "uint256",
          "name": "value",
          "type": "uint256"
        },
        {
          "internalType": "bytes",
          "name": "data",
          "type": "bytes"
        }
      ],
      "name": "safeTransferFrom",
      "outputs": [],
      "stateMutability": "nonpayable",
      "type": "function"
    },
    {
      "inputs": [
        {
          "internalType": "uint256",
          "name": "creationId",
          "type": "uint256"
        },
        {
          "internalType": "uint32",
          "name": "amount",
          "type": "uint32"
        }
      ],
      "name": "sell",
      "outputs": [],
      "stateMutability": "nonpayable",
      "type": "function"
    },
    {
      "inputs": [
        {
          "internalType": "address",
          "name": "operator",
          "type": "address"
        },
        {
          "internalType": "bool",
          "name": "approved",
          "type": "bool"
        }
      ],
      "name": "setApprovalForAll",
      "outputs": [],
      "stateMutability": "nonpayable",
      "type": "function"
    },
    {
      "inputs": [
        {
          "internalType": "uint256",
          "name": "_feePercent",
          "type": "uint256"
        }
      ],
      "name": "setProtocolFeePercent",
      "outputs": [],
      "stateMutability": "nonpayable",
      "type": "function"
    },
    {
      "inputs": [
        {
          "internalType": "address",
          "name": "_feeTo",
          "type": "address"
        }
      ],
      "name": "setProtocolFeeTo",
      "outputs": [],
      "stateMutability": "nonpayable",
      "type": "function"
    },
    {
      "inputs": [
        {
          "internalType": "bytes4",
          "name": "interfaceId",
          "type": "bytes4"
        }
      ],
      "name": "supportsInterface",
      "outputs": [
        {
          "internalType": "bool",
          "name": "",
          "type": "bool"
        }
      ],
      "stateMutability": "view",
      "type": "function"
    },
    {
      "inputs": [],
      "name": "totalSupply",
      "outputs": [
        {
          "internalType": "uint256",
          "name": "",
          "type": "uint256"
        }
      ],
      "stateMutability": "view",
      "type": "function"
    },
    {
      "inputs": [
        {
          "internalType": "uint256",
          "name": "id",
          "type": "uint256"
        }
      ],
      "name": "totalSupply",
      "outputs": [
        {
          "internalType": "uint256",
          "name": "",
          "type": "uint256"
        }
      ],
      "stateMutability": "view",
      "type": "function"
    },
    {
      "inputs": [
        {
          "internalType": "address",
          "name": "newOwner",
          "type": "address"
        }
      ],
      "name": "transferOwnership",
      "outputs": [],
      "stateMutability": "nonpayable",
      "type": "function"
    },
    {
      "inputs": [
        {
          "internalType": "uint256",
          "name": "id",
          "type": "uint256"
        },
        {
          "components": [
            {
              "internalType": "string",
              "name": "uri",
              "type": "string"
            },
            {
              "internalType": "address",
              "name": "feeTo",
              "type": "address"
            },
            {
              "internalType": "uint256",
              "name": "appFeePercent",
              "type": "uint256"
            },
            {
              "internalType": "uint256",
              "name": "creatorFeePercent",
              "type": "uint256"
            }
          ],
          "internalType": "struct IndieX.UpsertAppInput",
          "name": "input",
          "type": "tuple"
        }
      ],
      "name": "updateApp",
      "outputs": [],
      "stateMutability": "nonpayable",
      "type": "function"
    },
    {
      "inputs": [
        {
          "internalType": "uint256",
          "name": "id",
          "type": "uint256"
        },
        {
          "components": [
            {
              "internalType": "string",
              "name": "uri",
              "type": "string"
            },
            {
              "internalType": "uint256",
              "name": "curatorFeePercent",
              "type": "uint256"
            }
          ],
          "internalType": "struct IndieX.UpdateCreationInput",
          "name": "input",
          "type": "tuple"
        }
      ],
      "name": "updateCreation",
      "outputs": [],
      "stateMutability": "nonpayable",
      "type": "function"
    },
    {
      "inputs": [
        {
          "internalType": "uint256",
          "name": "",
          "type": "uint256"
        }
      ],
      "name": "uri",
      "outputs": [
        {
          "internalType": "string",
          "name": "",
          "type": "string"
        }
      ],
      "stateMutability": "view",
      "type": "function"
    },
    {
      "inputs": [
        {
          "internalType": "address",
          "name": "",
          "type": "address"
        },
        {
          "internalType": "uint256",
          "name": "",
          "type": "uint256"
        }
      ],
      "name": "userCreations",
      "outputs": [
        {
          "internalType": "uint256",
          "name": "",
          "type": "uint256"
        }
      ],
      "stateMutability": "view",
      "type": "function"
    },
    {
      "stateMutability": "payable",
      "type": "receive"
    }
  ],
  "transactionHash": "0xea4d125a93dd5d1f67e98f586213c5955db13b404810dbc92c0058831184cd70",
  "args": [
    "0x45aBBC64421a54CbffF878985AE6c4F0cfacfDb7"
  ],
  "numDeployments": 6,
  "solcInputHash": "769555c07581301a30d27c8e9f2f4cc4",
  "bytecode": "0x60806040526007805460ff19169055600060088190556009819055600a55662386f26fc10000600b553480156200003557600080fd5b50604051620046a7380380620046a783398101604081905262000058916200011d565b604080516020810190915260008152816001600160a01b0381166200009757604051631e4fbdf760e01b81526000600482015260240160405180910390fd5b620000a281620000bb565b50620000ae816200010b565b50506001600655620002c0565b600080546001600160a01b038381166001600160a01b0319831681178455604051919092169283917f8be0079c531659141344cd1fd0a4f28419497f9722a3daafe3b4186f6b6457e09190a35050565b6003620001198282620001f4565b5050565b6000602082840312156200013057600080fd5b81516001600160a01b03811681146200014857600080fd5b9392505050565b634e487b7160e01b600052604160045260246000fd5b600181811c908216806200017a57607f821691505b6020821081036200019b57634e487b7160e01b600052602260045260246000fd5b50919050565b601f821115620001ef57600081815260208120601f850160051c81016020861015620001ca5750805b601f850160051c820191505b81811015620001eb57828155600101620001d6565b5050505b505050565b81516001600160401b038111156200021057620002106200014f565b620002288162000221845462000165565b84620001a1565b602080601f831160018114620002605760008415620002475750858301515b600019600386901b1c1916600185901b178555620001eb565b600085815260208120601f198616915b82811015620002915788860151825594840194600190910190840162000270565b5085821015620002b05787850151600019600388901b60f8161c191681555b5050505050600190811b01905550565b6143d780620002d06000396000f3fe6080604052600436106101ec5760003560e01c8062fdd58e146101f557806301ffc9a7146102285780630e89341c1461025857806318160ddd1461028557806324f3a51b1461029a578063269ba52c146102c75780632eb2c2d6146102f4578063315a75f9146103145780633470b2c414610334578063410d3c021461034757806343e235ff146103675780634d121ec1146103875780634e1273f41461039d5780634f558e79146103bd5780635e2cd5f4146103dd5780635e48327d1461043f5780635efdf6281461045f57806361acc37e1461048c578063715018a6146104be57806379d36638146104d35780637ffb25ac1461051657806380c3f96d1461052b5780638557a5311461054b5780638da5cb5b14610581578063a0fae0e914610596578063a22cb465146105b6578063a4983421146105d6578063bd85b039146105f6578063c3dee4be14610616578063c5bae68614610636578063c6fdbc9014610656578063c75d547914610676578063c8d8cf8814610696578063cec8c97f146106ac578063ceee47fa146106cc578063d6e6eb9f146106ec578063d935e22214610702578063e0e6799f14610722578063e985e9c514610742578063ef36925214610762578063f242432a14610782578063f2fde38b146107a2578063fba41ebe146107c257005b366101f357005b005b34801561020157600080fd5b5061021561021036600461336c565b6107ee565b6040519081526020015b60405180910390f35b34801561023457600080fd5b506102486102433660046133ac565b610818565b604051901515815260200161021f565b34801561026457600080fd5b506102786102733660046133c9565b610868565b60405161021f9190613428565b34801561029157600080fd5b50600554610215565b3480156102a657600080fd5b506102ba6102b53660046133c9565b6108fc565b60405161021f919061343b565b3480156102d357600080fd5b506102e76102e23660046134a4565b610a41565b60405161021f91906134fa565b34801561030057600080fd5b506101f361030f3660046136bd565b610aac565b34801561032057600080fd5b506101f361032f366004613766565b610b0d565b6101f3610342366004613812565b610c12565b34801561035357600080fd5b506102156103623660046133c9565b611081565b34801561037357600080fd5b5061021561038236600461336c565b61108c565b34801561039357600080fd5b5061021560095481565b3480156103a957600080fd5b506102e76103b836600461384e565b6110bd565b3480156103c957600080fd5b506102486103d83660046133c9565b611186565b3480156103e957600080fd5b506103fd6103f836600461390d565b611199565b60405161021f9190600060a082019050825182526020830151602083015260408301516040830152606083015160608301526080830151608083015292915050565b34801561044b57600080fd5b5061021561045a366004613942565b6111b6565b34801561046b57600080fd5b5061047f61047a3660046134a4565b6111cb565b60405161021f91906139af565b34801561049857600080fd5b506104ac6104a73660046133c9565b611401565b60405161021f96959493929190613a57565b3480156104ca57600080fd5b506101f36114d4565b3480156104df57600080fd5b506105096104ee366004613aad565b600d602052600090815260409020546001600160a01b031681565b60405161021f9190613ac8565b34801561052257600080fd5b50610215600181565b34801561053757600080fd5b506101f36105463660046134a4565b6114e8565b34801561055757600080fd5b5061056b6105663660046133c9565b61157e565b60405161021f9a99989796959493929190613adc565b34801561058d57600080fd5b506105096116b5565b3480156105a257600080fd5b506102156105b1366004613be8565b6116c4565b3480156105c257600080fd5b506101f36105d1366004613cea565b6116f5565b3480156105e257600080fd5b506101f36105f13660046133c9565b611704565b34801561060257600080fd5b506102156106113660046133c9565b6117a3565b34801561062257600080fd5b506101f3610631366004613d80565b6117b5565b34801561064257600080fd5b506101f3610651366004613db4565b61193c565b34801561066257600080fd5b5061047f6106713660046133c9565b611ad9565b34801561068257600080fd5b50610215610691366004613df0565b611c5b565b3480156106a257600080fd5b5061021560085481565b3480156106b857600080fd5b506102156106c7366004613942565b611e93565b3480156106d857600080fd5b506103fd6106e736600461390d565b611ea1565b3480156106f857600080fd5b50610215600b5481565b34801561070e57600080fd5b506101f361071d366004613942565b611eb6565b34801561072e57600080fd5b506101f361073d3660046134a4565b61227e565b34801561074e57600080fd5b5061024861075d366004613ea6565b6122e2565b34801561076e57600080fd5b50600c54610509906001600160a01b031681565b34801561078e57600080fd5b506101f361079d366004613ed0565b612310565b3480156107ae57600080fd5b506101f36107bd3660046134a4565b612360565b3480156107ce57600080fd5b506007546107dc9060ff1681565b60405160ff909116815260200161021f565b60008181526001602090815260408083206001600160a01b03861684529091529020545b92915050565b60006001600160e01b03198216636cdb3d1360e11b148061084957506001600160e01b031982166303a24d0760e21b145b8061081257506301ffc9a760e01b6001600160e01b0319831614610812565b60606003805461087790613f34565b80601f01602080910402602001604051908101604052809291908181526020018280546108a390613f34565b80156108f05780601f106108c5576101008083540402835291602001916108f0565b820191906000526020600020905b8154815290600101906020018083116108d357829003601f168201915b50505050509050919050565b6109476040518060c001604052806000815260200160006001600160a01b031681526020016060815260200160006001600160a01b0316815260200160008152602001600081525090565b6000828152600e6020908152604091829020825160c0810184528154815260018201546001600160a01b031692810192909252600281018054929391929184019161099190613f34565b80601f01602080910402602001604051908101604052809291908181526020018280546109bd90613f34565b8015610a0a5780601f106109df57610100808354040283529160200191610a0a565b820191906000526020600020905b8154815290600101906020018083116109ed57829003601f168201915b505050918352505060038201546001600160a01b031660208201526004820154604082015260059091015460609091015292915050565b6001600160a01b0381166000908152601060209081526040918290208054835181840281018401909452808452606093928301828280156108f057602002820191906000526020600020905b815481526020019060010190808311610a8d5750505050509050919050565b336001600160a01b0386168114801590610acd5750610acb86826122e2565b155b15610af857808660405163711bec9160e11b8152600401610aef929190613f68565b60405180910390fd5b610b05868686868661239e565b505050505050565b6000828152600f6020526040902060028101546001600160a01b0316610b455760405162461bcd60e51b8152600401610aef90613f82565b60028101546001600160a01b03163314610ba15760405162461bcd60e51b815260206004820181905260248201527f4f6e6c792063726561746f722063616e20757064617465204372656174696f6e6044820152606401610aef565b81516003820190610bb29082613ff6565b506020820151600482015560018101546002820154825484516040516001600160a01b03909316927fcbba2aa0e57e497c9f3361897e44f181ee289d85c21bc9892dea18bcf8c84fdf91610c0591613428565b60405180910390a4505050565b610c1a612405565b60008263ffffffff1611610c6c5760405162461bcd60e51b815260206004820152601960248201527842757920616d6f756e742063616e6e6f74206265207a65726f60381b6044820152606401610aef565b6009548310610cb75760405162461bcd60e51b815260206004820152601760248201527610dc99585d1a5bdb88191bd95cc81b9bdd08195e1a5cdd604a1b6044820152606401610aef565b6000838152600f602052604081206001810154909190610cda9086908690611199565b8051909150341015610d255760405162461bcd60e51b8152602060048201526014602482015273125b9cdd59999a58da595b9d081c185e5b595b9d60621b6044820152606401610aef565b8060200151600a6000828254610d3b91906140cb565b90915550506020810151600883018054600090610d599084906140cb565b90915550506020810151600983018054600090610d779084906140cb565b92505081905550610d9f33868663ffffffff166040518060200160405280600081525061242f565b6007820154610100900460ff1615610e3b57600782015460ff166000908152600d6020908152604090912054908201516001600160a01b0390911690610de6908290612478565b806001600160a01b031663d0e30db06040518163ffffffff1660e01b8152600401600060405180830381600087803b158015610e2157600080fd5b505af1158015610e35573d6000803e3d6000fd5b50505050505b60006001600160a01b03841615610eaf57670de0b6b3a764000083600401548360400151610e6991906140de565b610e7391906140f5565b60028401546040840151919250610ea0916001600160a01b0390911690610e9b908490614117565b612478565b610eaa8482612478565b610ecc565b60028301546040830151610ecc916001600160a01b031690612478565b606082015115610fe3576001808401546000908152600e60209081526040808320815160c08101835281548152948101546001600160a01b03169285019290925260028201805493949391840191610f2390613f34565b80601f0160208091040260200160405190810160405280929190818152602001828054610f4f90613f34565b8015610f9c5780601f10610f7157610100808354040283529160200191610f9c565b820191906000526020600020905b815481529060010190602001808311610f7f57829003601f168201915b505050918352505060038201546001600160a01b03166020820152600482015460408201526005909101546060918201528181015190850151919250610fe191612478565b505b60808201511561100857600c546080830151611008916001600160a01b031690612478565b81516000906110179034614117565b90508015611029576110293382612478565b33876001600080516020614382833981519152898760000151886040015189606001518a608001518d8b604051611066979695949392919061412a565b60405180910390a45050505061107c6001600655565b505050565b6000610812826117a3565b601060205281600052604060002081815481106110a857600080fd5b90600052602060002001600091509150505481565b606081518351146110e75781518351604051635b05999160e01b8152600401610aef92919061416b565b600083516001600160401b038111156111025761110261350d565b60405190808252806020026020018201604052801561112b578160200160208202803683370190505b50905060005b845181101561117e576111516111478683612511565b6102108684612511565b82828151811061116357611163614179565b60209081029190910101526111778161418f565b9050611131565b509392505050565b600080611192836117a3565b1192915050565b6111a16132b1565b6111ae848484600161251f565b949350505050565b60006111c48383600061272b565b9392505050565b6111d36132e0565b6001600160a01b03821660009081526010602090815260408083208054825181850281018501909352808352919290919083018282801561123357602002820191906000526020600020905b81548152602001906001019080831161121f575b505050505090506000815111156113fb57600f600082600184516112579190614117565b8151811061126757611267614179565b602002602001015181526020019081526020016000206040518061014001604052908160008201548152602001600182015481526020016002820160009054906101000a90046001600160a01b03166001600160a01b03166001600160a01b031681526020016003820180546112dc90613f34565b80601f016020809104026020016040519081016040528092919081815260200182805461130890613f34565b80156113555780601f1061132a57610100808354040283529160200191611355565b820191906000526020600020905b81548152906001019060200180831161133857829003601f168201915b50505091835250506004820154602080830191909152604080516080808201835260058601546001600160601b0381168352600160601b810463ffffffff1694830194909452600160801b9093046001600160801b039081168284015260068601541660608083019190915291840152600784015460ff80821692850192909252610100900416151590820152600882015460a082015260099091015460c09091015291505b50919050565b600e6020526000908152604090208054600182015460028301805492936001600160a01b039092169261143390613f34565b80601f016020809104026020016040519081016040528092919081815260200182805461145f90613f34565b80156114ac5780601f10611481576101008083540402835291602001916114ac565b820191906000526020600020905b81548152906001019060200180831161148f57829003601f168201915b505050506003830154600484015460059094015492936001600160a01b039091169290915086565b6114dc6128f0565b6114e66000612922565b565b6114f06128f0565b6007805460ff9081166000908152600d602052604080822080546001600160a01b0319166001600160a01b038716908117909155935490519216917f2226942937615a3decf2f421ffaa1491d7a4d76a0e382719f1e9a486ebb63ab69190a36007805460ff16906000611562836141a8565b91906101000a81548160ff021916908360ff1602179055505050565b600f602052600090815260409020805460018201546002830154600384018054939492936001600160a01b0390921692916115b890613f34565b80601f01602080910402602001604051908101604052809291908181526020018280546115e490613f34565b80156116315780601f1061160657610100808354040283529160200191611631565b820191906000526020600020905b81548152906001019060200180831161161457829003601f168201915b5050505060048301546040805160808101825260058601546001600160601b0381168252600160601b810463ffffffff166020830152600160801b90046001600160801b039081169282019290925260068601549091166060820152600785015460088601546009909601549495929491935060ff8082169361010090920416918a565b6000546001600160a01b031690565b6000808460a0015190506116ec84848360000151846020015185604001518660600151612972565b95945050505050565b6117003383836129c0565b5050565b61170c6128f0565b662386f26fc100008111156117635760405162461bcd60e51b815260206004820181905260248201527f70726f746f636f6c46656550657263656e74206d757374206265203c3d2031256044820152606401610aef565b7f219d87b3822c2cd9103f559e66b1fa6683e5a41c1dde2e43ee26577e40f637be600b548260405161179692919061416b565b60405180910390a1600b55565b60009081526004602052604090205490565b60208101516001600160a01b03166117df5760405162461bcd60e51b8152600401610aef906141c7565b67016345785d8a00008160400151111561180b5760405162461bcd60e51b8152600401610aef906141f6565b6040805160c0810182526008548082523360208084019182528551848601908152868201516001600160a01b0390811660608088019190915288880151608088015288015160a08701526000948552600e909252949092208351815590516001820180546001600160a01b0319169190931617909155915190919060028201906118959082613ff6565b506060828101516003830180546001600160a01b0319166001600160a01b039092169190911790556080830151600483015560a0909201516005909101556008548251602084015160408086015194860151905133957f448c6815b4c1b9606fedfece55d55dad1668ed986d5e10773225260efa9d7b629561191c9590949093909261422c565b60405180910390a2600880549060006119348361418f565b919050555050565b6000828152600e6020526040902060018101546001600160a01b03166119965760405162461bcd60e51b815260206004820152600f60248201526e105c1c081b9bdd08195e1a5cdd1959608a1b6044820152606401610aef565b60018101546001600160a01b031633146119f05760405162461bcd60e51b815260206004820152601b60248201527a04f6e6c792063726561746f722063616e207570646174652041707602c1b6044820152606401610aef565b60208201516001600160a01b0316611a1a5760405162461bcd60e51b8152600401610aef906141c7565b67016345785d8a000082604001511115611a465760405162461bcd60e51b8152600401610aef906141f6565b81516002820190611a579082613ff6565b5060208201516003820180546001600160a01b0319166001600160a01b0383161790556040808401516004840181905560608501516005850181905584548651935133957f0ea722a002b06bb7a7ef32dccd702901269bb71e19462200bfe9802230b96a3995611acc9593949093919261422c565b60405180910390a2505050565b611ae16132e0565b6000828152600f60209081526040918290208251610140810184528154815260018201549281019290925260028101546001600160a01b031692820192909252600382018054919291606084019190611b3990613f34565b80601f0160208091040260200160405190810160405280929190818152602001828054611b6590613f34565b8015611bb25780601f10611b8757610100808354040283529160200191611bb2565b820191906000526020600020905b815481529060010190602001808311611b9557829003601f168201915b50505091835250506004820154602080830191909152604080516080808201835260058601546001600160601b0381168352600160601b810463ffffffff1694830194909452600160801b9093046001600160801b039081168284015260068601541660608083019190915291840152600784015460ff80821692850192909252610100900416151590820152600882015460a082015260099091015460c09091015292915050565b6009546040805161014081018252828152835160208083019182523383850181815282880151606080870191825289880151608080890191909152908a015160a080890191909152908a015160ff1660c0880152890151151560e0870152600061010087018190526101208701819052888152600f90945295909220845181559251600184015590516002830180546001600160a01b0319166001600160a01b0390921691909117905592516003820190611d169082613ff6565b506080820151600482015560a082015180516005830180546020808501516040808701516001600160801b03908116600160801b0263ffffffff909316600160601b026001600160801b03199586166001600160601b0390981697909717969096178616919091179093556060909401516006860180549190941691161790915560c084015160078401805460e0870151151561010090810261ffff1990921660ff909416939093171790558401516008840155610120909301516009909201919091556001600160a01b0383166000908152601082528281208054600181810183559183528383200186905583519283019093528152611e1b91839185919061242f565b8260000151816001600160a01b0316837f405b1a16c11a637c6cb7f6762b101f2d3a2f50821890315d267d79b8f34221d48660200151876060015188608001518960a00151604051611e70949392919061426b565b60405180910390a460098054906000611e888361418f565b919050555050919050565b60006111c48383600161272b565b611ea96132b1565b6111ae848484600061251f565b611ebe612405565b6009548210611edf5760405162461bcd60e51b8152600401610aef90613f82565b8063ffffffff16611ef033846107ee565b1015611f345760405162461bcd60e51b8152602060048201526013602482015272125b9cdd59999a58da595b9d08185b5bdd5b9d606a1b6044820152606401610aef565b8063ffffffff166001611f46846117a3565b611f509190614117565b1015611fa95760405162461bcd60e51b815260206004820152602260248201527f416d6f756e742073686f756c642062656c6f77207072656d696e7420616d6f756044820152611b9d60f21b6064820152608401610aef565b6000828152600f602052604081206001810154909190611fcc9085908590611ea1565b90508060200151600a6000828254611fe49190614117565b90915550506020810151600883018054600090612002908490614117565b909155505060208101516009830180546000906120209084906140cb565b909155506120379050338563ffffffff8616612a56565b6007820154610100900460ff16156120c557600782015460ff166000908152600d602090815260409182902054908301519151632e1a7d4d60e01b815260048101929092526001600160a01b0316908190632e1a7d4d90602401600060405180830381600087803b1580156120ab57600080fd5b505af11580156120bf573d6000803e3d6000fd5b50505050505b6120d3338260000151612478565b600282015460408201516120f0916001600160a01b031690612478565b606081015115612207576001808301546000908152600e60209081526040808320815160c08101835281548152948101546001600160a01b0316928501929092526002820180549394939184019161214790613f34565b80601f016020809104026020016040519081016040528092919081815260200182805461217390613f34565b80156121c05780601f10612195576101008083540402835291602001916121c0565b820191906000526020600020905b8154815290600101906020018083116121a357829003601f168201915b505050918352505060038201546001600160a01b0316602082015260048201546040820152600590910154606091820152818101519084015191925061220591612478565b505b60808101511561222c57600c54608082015161222c916001600160a01b031690612478565b3384600260008051602061438283398151915286856000015186604001518760600151886080015160008060405161226a979695949392919061412a565b60405180910390a450506117006001600655565b6122866128f0565b600c546040516001600160a01b038084169216907fdc99a16aa686e03e551f2993b0cb279e2638cebde991551598b75177d21ef7c290600090a3600c80546001600160a01b0319166001600160a01b0392909216919091179055565b6001600160a01b03918216600090815260026020908152604080832093909416825291909152205460ff1690565b336001600160a01b0386168114801590612331575061232f86826122e2565b155b1561235357808660405163711bec9160e11b8152600401610aef929190613f68565b610b058686868686612aad565b6123686128f0565b6001600160a01b038116612392576000604051631e4fbdf760e01b8152600401610aef9190613ac8565b61239b81612922565b50565b6001600160a01b0384166123c8576000604051632bfa23e760e11b8152600401610aef9190613ac8565b6001600160a01b0385166123f1576000604051626a0d4560e21b8152600401610aef9190613ac8565b6123fe8585858585612b27565b5050505050565b60026006540361242857604051633ee5aeb560e01b815260040160405180910390fd5b6002600655565b6001600160a01b038416612459576000604051632bfa23e760e11b8152600401610aef9190613ac8565b6000806124668585612b8c565b91509150610b05600087848487612b27565b6000826001600160a01b03168260405160006040518083038185875af1925050503d80600081146124c5576040519150601f19603f3d011682016040523d82523d6000602084013e6124ca565b606091505b505090508061107c5760405162461bcd60e51b8152602060048201526013602482015272115512081d1c985b9cd9995c8819985a5b1959606a1b6044820152606401610aef565b602090810291909101015190565b6125276132b1565b6000838152600e60209081526040808320815160c0810183528154815260018201546001600160a01b031693810193909352600281018054919284019161256d90613f34565b80601f016020809104026020016040519081016040528092919081815260200182805461259990613f34565b80156125e65780601f106125bb576101008083540402835291602001916125e6565b820191906000526020600020905b8154815290600101906020018083116125c957829003601f168201915b505050918352505060038201546001600160a01b0316602082015260048201546040820152600590910154606090910152905060008361262f5761262a87876111b6565b612639565b6126398787611e93565b90506000670de0b6b3a76400008360a001518361265691906140de565b61266091906140f5565b90506000670de0b6b3a7640000600b548461267b91906140de565b61268591906140f5565b90506000670de0b6b3a76400008560800151856126a291906140de565b6126ac91906140f5565b90506000876126da5782826126c18688614117565b6126cb9190614117565b6126d59190614117565b6126fa565b82826126e686886140cb565b6126f091906140cb565b6126fa91906140cb565b6040805160a08101825291825260208201969096529485019390935260608401526080830152509695505050505050565b600080612737856117a3565b6000868152600f602090815260408083208151610140810183528154815260018201549381019390935260028101546001600160a01b03169183019190915260038101805494955092939192909160608401919061279490613f34565b80601f01602080910402602001604051908101604052809291908181526020018280546127c090613f34565b801561280d5780601f106127e25761010080835404028352916020019161280d565b820191906000526020600020905b8154815290600101906020018083116127f057829003601f168201915b50505091835250506004820154602080830191909152604080516080808201835260058601546001600160601b0381168352600160601b810463ffffffff1694830194909452600160801b9093046001600160801b039081168284015260068601541660608083019190915291840152600784015460ff80821692850192909252610100900416151590820152600882015460a082015260099091015460c09091015290506000846128ce576128c963ffffffff871684614117565b6128d0565b825b90506128e5826128df83612bb4565b886116c4565b979650505050505050565b336128f96116b5565b6001600160a01b0316146114e6573360405163118cdaa760e01b8152600401610aef9190613ac8565b600080546001600160a01b038381166001600160a01b0319831681178455604051919092169283917f8be0079c531659141344cd1fd0a4f28419497f9722a3daafe3b4186f6b6457e09190a35050565b63ffffffff8581168581026001600160601b0316916001600160801b0384169089166001818101820291909301808401020390911c02016129b584848989612bcd565b019695505050505050565b6001600160a01b0382166129e957600060405162ced3e160e81b8152600401610aef9190613ac8565b6001600160a01b03838116600081815260026020908152604080832094871680845294825291829020805460ff191686151590811790915591519182527f17307eab39ab6107e8899845ad3d59bd9653f200f220920489ca2b5937696c31910160405180910390a3505050565b6001600160a01b038316612a7f576000604051626a0d4560e21b8152600401610aef9190613ac8565b600080612a8c8484612b8c565b915091506123fe856000848460405180602001604052806000815250612b27565b6001600160a01b038416612ad7576000604051632bfa23e760e11b8152600401610aef9190613ac8565b6001600160a01b038516612b00576000604051626a0d4560e21b8152600401610aef9190613ac8565b600080612b0d8585612b8c565b91509150612b1e8787848487612b27565b50505050505050565b612b3385858585612d1c565b6001600160a01b038416156123fe5782513390600103612b7e576000612b598582612511565b90506000612b678582612511565b9050612b77838989858589612d2e565b5050610b05565b610b05818787878787612e40565b6040805160018082526020820194909452808201938452606081019290925260808201905291565b6000600160201b8210612bc957612bc9612f20565b5090565b600063ffffffff85166001600160801b0385168082028303612bf4576000925050506111ae565b600163ffffffff86811682810192918716010183811881851102841880831015612c54576006600163ffffffff8a16818101026401fffffffe8b831b16820102600019840180850290831b90920191909102030485800285040295509150815b81831015612d0f576003850260021c600185901b5b6000612cf388848803026001600160881b03811160071b81811c6001600160481b031060061b1781811c64ffffffffff1060051b1781811c62ffffff1060041b1781811c620100000160b5600192831c1b0260121c80830401811c80830401811c80830401811c80830401811c80830401811c80830401811c80830401901c908190048111900390565b820288900498909801975060018086019585900301612c695750505b5050505050949350505050565b612d2884848484612f2e565b50505050565b6001600160a01b0384163b15610b055760405163f23a6e6160e01b81526001600160a01b0385169063f23a6e6190612d7290899089908890889088906004016142a7565b6020604051808303816000875af1925050508015612dad575060408051601f3d908101601f19168201909252612daa918101906142e1565b60015b612e0d573d808015612ddb576040519150601f19603f3d011682016040523d82523d6000602084013e612de0565b606091505b508051600003612e055784604051632bfa23e760e11b8152600401610aef9190613ac8565b805181602001fd5b6001600160e01b0319811663f23a6e6160e01b14612b1e5784604051632bfa23e760e11b8152600401610aef9190613ac8565b6001600160a01b0384163b15610b055760405163bc197c8160e01b81526001600160a01b0385169063bc197c8190612e8490899089908890889088906004016142fe565b6020604051808303816000875af1925050508015612ebf575060408051601f3d908101601f19168201909252612ebc918101906142e1565b60015b612eed573d808015612ddb576040519150601f19603f3d011682016040523d82523d6000602084013e612de0565b6001600160e01b0319811663bc197c8160e01b14612b1e5784604051632bfa23e760e11b8152600401610aef9190613ac8565b6335278d126000526004601cfd5b612f3a84848484613088565b6001600160a01b038416612fed576000805b8351811015612fd3576000838281518110612f6957612f69614179565b602002602001015190508060046000878581518110612f8a57612f8a614179565b602002602001015181526020019081526020016000206000828254612faf91906140cb565b90915550612fbf905081846140cb565b92505080612fcc9061418f565b9050612f4c565b508060056000828254612fe691906140cb565b9091555050505b6001600160a01b038316612d28576000805b835181101561307757600083828151811061301c5761301c614179565b60200260200101519050806004600087858151811061303d5761303d614179565b6020026020010151815260200190815260200160002060008282540392505081905550808301925050806130709061418f565b9050612fff565b506005805491909103905550505050565b80518251146130b05781518151604051635b05999160e01b8152600401610aef92919061416b565b3360005b83518110156131cf5760006130c98583612511565b905060006130d78584612511565b90506001600160a01b038816156131755760008281526001602090815260408083206001600160a01b038c1684529091529020548181101561314c576040516303dee4c560e01b81526001600160a01b038a166004820152602481018290526044810183905260648101849052608401610aef565b60008381526001602090815260408083206001600160a01b038d16845290915290209082900390555b6001600160a01b038716156131bc5760008281526001602090815260408083206001600160a01b038b168452909152812080548392906131b69084906140cb565b90915550505b5050806131c89061418f565b90506130b4565b5082516001036132535760006131e58482612511565b905060006131f38482612511565b9050856001600160a01b0316876001600160a01b0316846001600160a01b03167fc3d58168c5ae7397731d063d5bbf3d657854427343f4c083240f7aacaa2d0f62858560405161324492919061416b565b60405180910390a450506123fe565b836001600160a01b0316856001600160a01b0316826001600160a01b03167f4a39dc06d4c0dbc64b70af90fd698a233a518aa5d07e595d983b8c0526c8f7fb86866040516132a292919061435c565b60405180910390a45050505050565b6040518060a0016040528060008152602001600081526020016000815260200160008152602001600081525090565b6040805161014081018252600080825260208083018290528284018290526060808401819052608080850184905285519081018652838152918201839052938101829052928301529060a08201908152600060208201819052604082018190526060820181905260809091015290565b80356001600160a01b038116811461336757600080fd5b919050565b6000806040838503121561337f57600080fd5b61338883613350565b946020939093013593505050565b6001600160e01b03198116811461239b57600080fd5b6000602082840312156133be57600080fd5b81356111c481613396565b6000602082840312156133db57600080fd5b5035919050565b6000815180845260005b81811015613408576020818501810151868301820152016133ec565b506000602082860101526020601f19601f83011685010191505092915050565b6020815260006111c460208301846133e2565b60208082528251828201528201516001600160a01b0390811660408084019190915283015160c0606084015260009161347760e08501836133e2565b915080606086015116608085015250608084015160a084015260a084015160c08401528091505092915050565b6000602082840312156134b657600080fd5b6111c482613350565b600081518084526020808501945080840160005b838110156134ef578151875295820195908201906001016134d3565b509495945050505050565b6020815260006111c460208301846134bf565b634e487b7160e01b600052604160045260246000fd5b604051608081016001600160401b03811182821017156135455761354561350d565b60405290565b60405161014081016001600160401b03811182821017156135455761354561350d565b60405160c081016001600160401b03811182821017156135455761354561350d565b604051601f8201601f191681016001600160401b03811182821017156135b8576135b861350d565b604052919050565b60006001600160401b038211156135d9576135d961350d565b5060051b60200190565b600082601f8301126135f457600080fd5b81356020613609613604836135c0565b613590565b82815260059290921b8401810191818101908684111561362857600080fd5b8286015b84811015613643578035835291830191830161362c565b509695505050505050565b600082601f83011261365f57600080fd5b81356001600160401b038111156136785761367861350d565b61368b601f8201601f1916602001613590565b8181528460208386010111156136a057600080fd5b816020850160208301376000918101602001919091529392505050565b600080600080600060a086880312156136d557600080fd5b6136de86613350565b94506136ec60208701613350565b935060408601356001600160401b038082111561370857600080fd5b61371489838a016135e3565b9450606088013591508082111561372a57600080fd5b61373689838a016135e3565b9350608088013591508082111561374c57600080fd5b506137598882890161364e565b9150509295509295909350565b6000806040838503121561377957600080fd5b8235915060208301356001600160401b038082111561379757600080fd5b90840190604082870312156137ab57600080fd5b6040516040810181811083821117156137c6576137c661350d565b6040528235828111156137d857600080fd5b6137e48882860161364e565b825250602083013560208201528093505050509250929050565b803563ffffffff8116811461336757600080fd5b60008060006060848603121561382757600080fd5b83359250613837602085016137fe565b915061384560408501613350565b90509250925092565b6000806040838503121561386157600080fd5b82356001600160401b038082111561387857600080fd5b818501915085601f83011261388c57600080fd5b8135602061389c613604836135c0565b82815260059290921b840181019181810190898411156138bb57600080fd5b948201945b838610156138e0576138d186613350565b825294820194908201906138c0565b965050860135925050808211156138f657600080fd5b50613903858286016135e3565b9150509250929050565b60008060006060848603121561392257600080fd5b83359250613932602085016137fe565b9150604084013590509250925092565b6000806040838503121561395557600080fd5b82359150613965602084016137fe565b90509250929050565b80516001600160601b0316825260208082015163ffffffff16908301526040808201516001600160801b039081169184019190915260609182015116910152565b602081528151602082015260208201516040820152600060408301516139e060608401826001600160a01b03169052565b5060608301516101a08060808501526139fd6101c08501836133e2565b9150608085015160a085015260a0850151613a1b60c086018261396e565b5060c085015160ff1661014085015260e08501511515610160850152610100850151610180850152610120909401519390920192909252919050565b868152600060018060a01b03808816602084015260c06040840152613a7f60c08401886133e2565b9516606083015250608081019290925260a0909101529392505050565b803560ff8116811461336757600080fd5b600060208284031215613abf57600080fd5b6111c482613a9c565b6001600160a01b0391909116815260200190565b8a8152602081018a90526001600160a01b03891660408201526101a060608201819052600090613b0e8382018b6133e2565b915050876080830152613b2460a083018861396e565b60ff95909516610120820152921515610140840152610160830191909152610180909101529695505050505050565b80356001600160801b038116811461336757600080fd5b600060808284031215613b7c57600080fd5b613b84613523565b905081356001600160601b0381168114613b9d57600080fd5b8152613bab602083016137fe565b6020820152613bbc60408301613b53565b6040820152613bcd60608301613b53565b606082015292915050565b8035801515811461336757600080fd5b600080600060608486031215613bfd57600080fd5b83356001600160401b0380821115613c1457600080fd5b908501906101a08288031215613c2957600080fd5b613c3161354b565b8235815260208301356020820152613c4b60408401613350565b6040820152606083013582811115613c6257600080fd5b613c6e8982860161364e565b60608301525060808301356080820152613c8b8860a08501613b6a565b60a08201526101209150613ca0828401613a9c565b60c0820152613cb26101408401613bd8565b60e082015261016083013561010082015261018090920135908201529250613cdc602085016137fe565b9150613845604085016137fe565b60008060408385031215613cfd57600080fd5b613d0683613350565b915061396560208401613bd8565b600060808284031215613d2657600080fd5b613d2e613523565b905081356001600160401b03811115613d4657600080fd5b613d528482850161364e565b825250613d6160208301613350565b6020820152604082013560408201526060820135606082015292915050565b600060208284031215613d9257600080fd5b81356001600160401b03811115613da857600080fd5b6111ae84828501613d14565b60008060408385031215613dc757600080fd5b8235915060208301356001600160401b03811115613de457600080fd5b61390385828601613d14565b600060208284031215613e0257600080fd5b81356001600160401b0380821115613e1957600080fd5b908301906101208286031215613e2e57600080fd5b613e3661356e565b82358152602083013582811115613e4c57600080fd5b613e588782860161364e565b60208301525060408301356040820152613e758660608501613b6a565b6060820152613e8660e08401613a9c565b6080820152613e986101008401613bd8565b60a082015295945050505050565b60008060408385031215613eb957600080fd5b613ec283613350565b915061396560208401613350565b600080600080600060a08688031215613ee857600080fd5b613ef186613350565b9450613eff60208701613350565b9350604086013592506060860135915060808601356001600160401b03811115613f2857600080fd5b6137598882890161364e565b600181811c90821680613f4857607f821691505b6020821081036113fb57634e487b7160e01b600052602260045260246000fd5b6001600160a01b0392831681529116602082015260400190565b60208082526014908201527310dc99585d1a5bdb881b9bdd08195e1a5cdd195960621b604082015260600190565b601f82111561107c57600081815260208120601f850160051c81016020861015613fd75750805b601f850160051c820191505b81811015610b0557828155600101613fe3565b81516001600160401b0381111561400f5761400f61350d565b6140238161401d8454613f34565b84613fb0565b602080601f83116001811461405857600084156140405750858301515b600019600386901b1c1916600185901b178555610b05565b600085815260208120601f198616915b8281101561408757888601518255948401946001909101908401614068565b50858210156140a55787850151600019600388901b60f8161c191681555b5050505050600190811b01905550565b634e487b7160e01b600052601160045260246000fd5b80820180821115610812576108126140b5565b8082028115828204841417610812576108126140b5565b60008261411257634e487b7160e01b600052601260045260246000fd5b500490565b81810381811115610812576108126140b5565b63ffffffff97909716875260208701959095526040860193909352606085019190915260808401526001600160a01b031660a083015260c082015260e00190565b918252602082015260400190565b634e487b7160e01b600052603260045260246000fd5b6000600182016141a1576141a16140b5565b5060010190565b600060ff821660ff81036141be576141be6140b5565b60010192915050565b602080825260159082015274496e76616c696420666565546f206164647265737360581b604082015260600190565b6020808252601c908201527b61707046656550657263656e74206d757374206265203c3d2031302560201b604082015260600190565b85815260a06020820152600061424560a08301876133e2565b6001600160a01b0395909516604083015250606081019290925260809091015292915050565b60e08152600061427e60e08301876133e2565b905061428d602083018661396e565b60ff841660a083015282151560c083015295945050505050565b6001600160a01b03868116825285166020820152604081018490526060810183905260a0608082018190526000906128e5908301846133e2565b6000602082840312156142f357600080fd5b81516111c481613396565b6001600160a01b0386811682528516602082015260a06040820181905260009061432a908301866134bf565b828103606084015261433c81866134bf565b9050828103608084015261435081856133e2565b98975050505050505050565b60408152600061436f60408301856134bf565b82810360208401526116ec81856134bf56fe5e8ec80ece70688f5dfe49f24be4ed9b0d314d69abdd270b44b7718882ff6b93a2646970667358221220ddf959bad91023e91d625ac543df6b27ceea2dda06f1db3705b29a030bed645f64736f6c63430008140033",
  "libraries": {},
  "devdoc": {
    "errors": {
      "ERC1155InsufficientBalance(address,uint256,uint256,uint256)": [
        {
          "details": "Indicates an error related to the current `balance` of a `sender`. Used in transfers.",
          "params": {
            "balance": "Current balance for the interacting account.",
            "needed": "Minimum amount required to perform a transfer.",
            "sender": "Address whose tokens are being transferred.",
            "tokenId": "Identifier number of a token."
          }
        }
      ],
      "ERC1155InvalidApprover(address)": [
        {
          "details": "Indicates a failure with the `approver` of a token to be approved. Used in approvals.",
          "params": {
            "approver": "Address initiating an approval operation."
          }
        }
      ],
      "ERC1155InvalidArrayLength(uint256,uint256)": [
        {
          "details": "Indicates an array length mismatch between ids and values in a safeBatchTransferFrom operation. Used in batch transfers.",
          "params": {
            "idsLength": "Length of the array of token identifiers",
            "valuesLength": "Length of the array of token amounts"
          }
        }
      ],
      "ERC1155InvalidOperator(address)": [
        {
          "details": "Indicates a failure with the `operator` to be approved. Used in approvals.",
          "params": {
            "operator": "Address that may be allowed to operate on tokens without being their owner."
          }
        }
      ],
      "ERC1155InvalidReceiver(address)": [
        {
          "details": "Indicates a failure with the token `receiver`. Used in transfers.",
          "params": {
            "receiver": "Address to which tokens are being transferred."
          }
        }
      ],
      "ERC1155InvalidSender(address)": [
        {
          "details": "Indicates a failure with the token `sender`. Used in transfers.",
          "params": {
            "sender": "Address whose tokens are being transferred."
          }
        }
      ],
      "ERC1155MissingApprovalForAll(address,address)": [
        {
          "details": "Indicates a failure with the `operator`s approval. Used in transfers.",
          "params": {
            "operator": "Address that may be allowed to operate on tokens without being their owner.",
            "owner": "Address of the current owner of a token."
          }
        }
      ],
      "OwnableInvalidOwner(address)": [
        {
          "details": "The owner is not a valid owner account. (eg. `address(0)`)"
        }
      ],
      "OwnableUnauthorizedAccount(address)": [
        {
          "details": "The caller account is not authorized to perform an operation."
        }
      ],
      "ReentrancyGuardReentrantCall()": [
        {
          "details": "Unauthorized reentrant call."
        }
      ]
    },
    "events": {
      "ApprovalForAll(address,address,bool)": {
        "details": "Emitted when `account` grants or revokes permission to `operator` to transfer their tokens, according to `approved`."
      },
      "TransferBatch(address,address,address,uint256[],uint256[])": {
        "details": "Equivalent to multiple {TransferSingle} events, where `operator`, `from` and `to` are the same for all transfers."
      },
      "TransferSingle(address,address,address,uint256,uint256)": {
        "details": "Emitted when `value` amount of tokens of type `id` are transferred from `from` to `to` by `operator`."
      },
      "URI(string,uint256)": {
        "details": "Emitted when the URI for token type `id` changes to `value`, if it is a non-programmatic URI. If an {URI} event was emitted for `id`, the standard https://eips.ethereum.org/EIPS/eip-1155#metadata-extensions[guarantees] that `value` will equal the value returned by {IERC1155MetadataURI-uri}."
      }
    },
    "kind": "dev",
    "methods": {
      "balanceOf(address,uint256)": {
        "details": "See {IERC1155-balanceOf}."
      },
      "balanceOfBatch(address[],uint256[])": {
        "details": "See {IERC1155-balanceOfBatch}. Requirements: - `accounts` and `ids` must have the same length."
      },
      "exists(uint256)": {
        "details": "Indicates whether any token exist with a given id, or not."
      },
      "isApprovedForAll(address,address)": {
        "details": "See {IERC1155-isApprovedForAll}."
      },
      "owner()": {
        "details": "Returns the address of the current owner."
      },
      "renounceOwnership()": {
        "details": "Leaves the contract without owner. It will not be possible to call `onlyOwner` functions. Can only be called by the current owner. NOTE: Renouncing ownership will leave the contract without an owner, thereby disabling any functionality that is only available to the owner."
      },
      "safeBatchTransferFrom(address,address,uint256[],uint256[],bytes)": {
        "details": "See {IERC1155-safeBatchTransferFrom}."
      },
      "safeTransferFrom(address,address,uint256,uint256,bytes)": {
        "details": "See {IERC1155-safeTransferFrom}."
      },
      "setApprovalForAll(address,bool)": {
        "details": "See {IERC1155-setApprovalForAll}."
      },
      "supportsInterface(bytes4)": {
        "details": "See {IERC165-supportsInterface}."
      },
      "totalSupply()": {
        "details": "Total value of tokens."
      },
      "totalSupply(uint256)": {
        "details": "Total value of tokens in with a given id."
      },
      "transferOwnership(address)": {
        "details": "Transfers ownership of the contract to a new account (`newOwner`). Can only be called by the current owner."
      },
      "uri(uint256)": {
        "details": "See {IERC1155MetadataURI-uri}. This implementation returns the same URI for *all* token types. It relies on the token type ID substitution mechanism https://eips.ethereum.org/EIPS/eip-1155#metadata[defined in the EIP]. Clients calling this function must replace the `\\{id\\}` substring with the actual token type ID."
      }
    },
    "version": 1
  },
  "userdoc": {
    "kind": "user",
    "methods": {},
    "version": 1
  },
  "storageLayout": {
    "storage": [
      {
        "astId": 8,
        "contract": "contracts/core/IndieX.sol:IndieX",
        "label": "_owner",
        "offset": 0,
        "slot": "0",
        "type": "t_address"
      },
      {
        "astId": 351,
        "contract": "contracts/core/IndieX.sol:IndieX",
        "label": "_balances",
        "offset": 0,
        "slot": "1",
        "type": "t_mapping(t_uint256,t_mapping(t_address,t_uint256))"
      },
      {
        "astId": 357,
        "contract": "contracts/core/IndieX.sol:IndieX",
        "label": "_operatorApprovals",
        "offset": 0,
        "slot": "2",
        "type": "t_mapping(t_address,t_mapping(t_address,t_bool))"
      },
      {
        "astId": 359,
        "contract": "contracts/core/IndieX.sol:IndieX",
        "label": "_uri",
        "offset": 0,
        "slot": "3",
        "type": "t_string_storage"
      },
      {
        "astId": 1536,
        "contract": "contracts/core/IndieX.sol:IndieX",
        "label": "_totalSupply",
        "offset": 0,
        "slot": "4",
        "type": "t_mapping(t_uint256,t_uint256)"
      },
      {
        "astId": 1538,
        "contract": "contracts/core/IndieX.sol:IndieX",
        "label": "_totalSupplyAll",
        "offset": 0,
        "slot": "5",
        "type": "t_uint256"
      },
      {
        "astId": 3438,
        "contract": "contracts/core/IndieX.sol:IndieX",
        "label": "_status",
        "offset": 0,
        "slot": "6",
        "type": "t_uint256"
      },
      {
        "astId": 6027,
        "contract": "contracts/core/IndieX.sol:IndieX",
        "label": "farmerIndex",
        "offset": 0,
        "slot": "7",
        "type": "t_uint8"
      },
      {
        "astId": 6030,
        "contract": "contracts/core/IndieX.sol:IndieX",
        "label": "appIndex",
        "offset": 0,
        "slot": "8",
        "type": "t_uint256"
      },
      {
        "astId": 6033,
        "contract": "contracts/core/IndieX.sol:IndieX",
        "label": "creationIndex",
        "offset": 0,
        "slot": "9",
        "type": "t_uint256"
      },
      {
        "astId": 6036,
        "contract": "contracts/core/IndieX.sol:IndieX",
        "label": "ethAmount",
        "offset": 0,
        "slot": "10",
        "type": "t_uint256"
      },
      {
        "astId": 6042,
        "contract": "contracts/core/IndieX.sol:IndieX",
        "label": "protocolFeePercent",
        "offset": 0,
        "slot": "11",
        "type": "t_uint256"
      },
      {
        "astId": 6044,
        "contract": "contracts/core/IndieX.sol:IndieX",
        "label": "protocolFeeTo",
        "offset": 0,
        "slot": "12",
        "type": "t_address"
      },
      {
        "astId": 6048,
        "contract": "contracts/core/IndieX.sol:IndieX",
        "label": "farmers",
        "offset": 0,
        "slot": "13",
        "type": "t_mapping(t_uint8,t_address)"
      },
      {
        "astId": 6053,
        "contract": "contracts/core/IndieX.sol:IndieX",
        "label": "apps",
        "offset": 0,
        "slot": "14",
        "type": "t_mapping(t_uint256,t_struct(App)5963_storage)"
      },
      {
        "astId": 6058,
        "contract": "contracts/core/IndieX.sol:IndieX",
        "label": "creations",
        "offset": 0,
        "slot": "15",
        "type": "t_mapping(t_uint256,t_struct(Creation)6004_storage)"
      },
      {
        "astId": 6063,
        "contract": "contracts/core/IndieX.sol:IndieX",
        "label": "userCreations",
        "offset": 0,
        "slot": "16",
        "type": "t_mapping(t_address,t_array(t_uint256)dyn_storage)"
      }
    ],
    "types": {
      "t_address": {
        "encoding": "inplace",
        "label": "address",
        "numberOfBytes": "20"
      },
      "t_array(t_uint256)dyn_storage": {
        "base": "t_uint256",
        "encoding": "dynamic_array",
        "label": "uint256[]",
        "numberOfBytes": "32"
      },
      "t_bool": {
        "encoding": "inplace",
        "label": "bool",
        "numberOfBytes": "1"
      },
      "t_mapping(t_address,t_array(t_uint256)dyn_storage)": {
        "encoding": "mapping",
        "key": "t_address",
        "label": "mapping(address => uint256[])",
        "numberOfBytes": "32",
        "value": "t_array(t_uint256)dyn_storage"
      },
      "t_mapping(t_address,t_bool)": {
        "encoding": "mapping",
        "key": "t_address",
        "label": "mapping(address => bool)",
        "numberOfBytes": "32",
        "value": "t_bool"
      },
      "t_mapping(t_address,t_mapping(t_address,t_bool))": {
        "encoding": "mapping",
        "key": "t_address",
        "label": "mapping(address => mapping(address => bool))",
        "numberOfBytes": "32",
        "value": "t_mapping(t_address,t_bool)"
      },
      "t_mapping(t_address,t_uint256)": {
        "encoding": "mapping",
        "key": "t_address",
        "label": "mapping(address => uint256)",
        "numberOfBytes": "32",
        "value": "t_uint256"
      },
      "t_mapping(t_uint256,t_mapping(t_address,t_uint256))": {
        "encoding": "mapping",
        "key": "t_uint256",
        "label": "mapping(uint256 => mapping(address => uint256))",
        "numberOfBytes": "32",
        "value": "t_mapping(t_address,t_uint256)"
      },
      "t_mapping(t_uint256,t_struct(App)5963_storage)": {
        "encoding": "mapping",
        "key": "t_uint256",
        "label": "mapping(uint256 => struct IndieX.App)",
        "numberOfBytes": "32",
        "value": "t_struct(App)5963_storage"
      },
      "t_mapping(t_uint256,t_struct(Creation)6004_storage)": {
        "encoding": "mapping",
        "key": "t_uint256",
        "label": "mapping(uint256 => struct IndieX.Creation)",
        "numberOfBytes": "32",
        "value": "t_struct(Creation)6004_storage"
      },
      "t_mapping(t_uint256,t_uint256)": {
        "encoding": "mapping",
        "key": "t_uint256",
        "label": "mapping(uint256 => uint256)",
        "numberOfBytes": "32",
        "value": "t_uint256"
      },
      "t_mapping(t_uint8,t_address)": {
        "encoding": "mapping",
        "key": "t_uint8",
        "label": "mapping(uint8 => address)",
        "numberOfBytes": "32",
        "value": "t_address"
      },
      "t_string_storage": {
        "encoding": "bytes",
        "label": "string",
        "numberOfBytes": "32"
      },
      "t_struct(App)5963_storage": {
        "encoding": "inplace",
        "label": "struct IndieX.App",
        "members": [
          {
            "astId": 5952,
            "contract": "contracts/core/IndieX.sol:IndieX",
            "label": "id",
            "offset": 0,
            "slot": "0",
            "type": "t_uint256"
          },
          {
            "astId": 5954,
            "contract": "contracts/core/IndieX.sol:IndieX",
            "label": "creator",
            "offset": 0,
            "slot": "1",
            "type": "t_address"
          },
          {
            "astId": 5956,
            "contract": "contracts/core/IndieX.sol:IndieX",
            "label": "uri",
            "offset": 0,
            "slot": "2",
            "type": "t_string_storage"
          },
          {
            "astId": 5958,
            "contract": "contracts/core/IndieX.sol:IndieX",
            "label": "feeTo",
            "offset": 0,
            "slot": "3",
            "type": "t_address"
          },
          {
            "astId": 5960,
            "contract": "contracts/core/IndieX.sol:IndieX",
            "label": "appFeePercent",
            "offset": 0,
            "slot": "4",
            "type": "t_uint256"
          },
          {
            "astId": 5962,
            "contract": "contracts/core/IndieX.sol:IndieX",
            "label": "creatorFeePercent",
            "offset": 0,
            "slot": "5",
            "type": "t_uint256"
          }
        ],
        "numberOfBytes": "192"
      },
      "t_struct(Creation)6004_storage": {
        "encoding": "inplace",
        "label": "struct IndieX.Creation",
        "members": [
          {
            "astId": 5984,
            "contract": "contracts/core/IndieX.sol:IndieX",
            "label": "id",
            "offset": 0,
            "slot": "0",
            "type": "t_uint256"
          },
          {
            "astId": 5986,
            "contract": "contracts/core/IndieX.sol:IndieX",
            "label": "appId",
            "offset": 0,
            "slot": "1",
            "type": "t_uint256"
          },
          {
            "astId": 5988,
            "contract": "contracts/core/IndieX.sol:IndieX",
            "label": "creator",
            "offset": 0,
            "slot": "2",
            "type": "t_address"
          },
          {
            "astId": 5990,
            "contract": "contracts/core/IndieX.sol:IndieX",
            "label": "uri",
            "offset": 0,
            "slot": "3",
            "type": "t_string_storage"
          },
          {
            "astId": 5992,
            "contract": "contracts/core/IndieX.sol:IndieX",
            "label": "curatorFeePercent",
            "offset": 0,
            "slot": "4",
            "type": "t_uint256"
          },
          {
            "astId": 5995,
            "contract": "contracts/core/IndieX.sol:IndieX",
            "label": "curve",
            "offset": 0,
            "slot": "5",
            "type": "t_struct(Curve)6013_storage"
          },
          {
            "astId": 5997,
            "contract": "contracts/core/IndieX.sol:IndieX",
            "label": "farmer",
            "offset": 0,
            "slot": "7",
            "type": "t_uint8"
          },
          {
            "astId": 5999,
            "contract": "contracts/core/IndieX.sol:IndieX",
            "label": "isFarming",
            "offset": 1,
            "slot": "7",
            "type": "t_bool"
          },
          {
            "astId": 6001,
            "contract": "contracts/core/IndieX.sol:IndieX",
            "label": "balance",
            "offset": 0,
            "slot": "8",
            "type": "t_uint256"
          },
          {
            "astId": 6003,
            "contract": "contracts/core/IndieX.sol:IndieX",
            "label": "volume",
            "offset": 0,
            "slot": "9",
            "type": "t_uint256"
          }
        ],
        "numberOfBytes": "320"
      },
      "t_struct(Curve)6013_storage": {
        "encoding": "inplace",
        "label": "struct IndieX.Curve",
        "members": [
          {
            "astId": 6006,
            "contract": "contracts/core/IndieX.sol:IndieX",
            "label": "basePrice",
            "offset": 0,
            "slot": "0",
            "type": "t_uint96"
          },
          {
            "astId": 6008,
            "contract": "contracts/core/IndieX.sol:IndieX",
            "label": "inflectionPoint",
            "offset": 12,
            "slot": "0",
            "type": "t_uint32"
          },
          {
            "astId": 6010,
            "contract": "contracts/core/IndieX.sol:IndieX",
            "label": "inflectionPrice",
            "offset": 16,
            "slot": "0",
            "type": "t_uint128"
          },
          {
            "astId": 6012,
            "contract": "contracts/core/IndieX.sol:IndieX",
            "label": "linearPriceSlope",
            "offset": 0,
            "slot": "1",
            "type": "t_uint128"
          }
        ],
        "numberOfBytes": "64"
      },
      "t_uint128": {
        "encoding": "inplace",
        "label": "uint128",
        "numberOfBytes": "16"
      },
      "t_uint256": {
        "encoding": "inplace",
        "label": "uint256",
        "numberOfBytes": "32"
      },
      "t_uint32": {
        "encoding": "inplace",
        "label": "uint32",
        "numberOfBytes": "4"
      },
      "t_uint8": {
        "encoding": "inplace",
        "label": "uint8",
        "numberOfBytes": "1"
      },
      "t_uint96": {
        "encoding": "inplace",
        "label": "uint96",
        "numberOfBytes": "12"
      }
    }
  }
}