{
  "address": "0xeD2DEc0C1C125d8E5Ef6A444D02AcaAA0D2C38eb",
  "abi": [
    {
      "inputs": [
        {
          "internalType": "address",
          "name": "initialOwner",
          "type": "address"
        }
      ],
      "stateMutability": "nonpayable",
      "type": "constructor"
    },
    {
      "inputs": [
        {
          "internalType": "address",
          "name": "sender",
          "type": "address"
        },
        {
          "internalType": "uint256",
          "name": "balance",
          "type": "uint256"
        },
        {
          "internalType": "uint256",
          "name": "needed",
          "type": "uint256"
        },
        {
          "internalType": "uint256",
          "name": "tokenId",
          "type": "uint256"
        }
      ],
      "name": "ERC1155InsufficientBalance",
      "type": "error"
    },
    {
      "inputs": [
        {
          "internalType": "address",
          "name": "approver",
          "type": "address"
        }
      ],
      "name": "ERC1155InvalidApprover",
      "type": "error"
    },
    {
      "inputs": [
        {
          "internalType": "uint256",
          "name": "idsLength",
          "type": "uint256"
        },
        {
          "internalType": "uint256",
          "name": "valuesLength",
          "type": "uint256"
        }
      ],
      "name": "ERC1155InvalidArrayLength",
      "type": "error"
    },
    {
      "inputs": [
        {
          "internalType": "address",
          "name": "operator",
          "type": "address"
        }
      ],
      "name": "ERC1155InvalidOperator",
      "type": "error"
    },
    {
      "inputs": [
        {
          "internalType": "address",
          "name": "receiver",
          "type": "address"
        }
      ],
      "name": "ERC1155InvalidReceiver",
      "type": "error"
    },
    {
      "inputs": [
        {
          "internalType": "address",
          "name": "sender",
          "type": "address"
        }
      ],
      "name": "ERC1155InvalidSender",
      "type": "error"
    },
    {
      "inputs": [
        {
          "internalType": "address",
          "name": "operator",
          "type": "address"
        },
        {
          "internalType": "address",
          "name": "owner",
          "type": "address"
        }
      ],
      "name": "ERC1155MissingApprovalForAll",
      "type": "error"
    },
    {
      "inputs": [
        {
          "internalType": "address",
          "name": "owner",
          "type": "address"
        }
      ],
      "name": "OwnableInvalidOwner",
      "type": "error"
    },
    {
      "inputs": [
        {
          "internalType": "address",
          "name": "account",
          "type": "address"
        }
      ],
      "name": "OwnableUnauthorizedAccount",
      "type": "error"
    },
    {
      "inputs": [],
      "name": "ReentrancyGuardReentrantCall",
      "type": "error"
    },
    {
      "anonymous": false,
      "inputs": [
        {
          "indexed": true,
          "internalType": "address",
          "name": "account",
          "type": "address"
        },
        {
          "indexed": true,
          "internalType": "address",
          "name": "operator",
          "type": "address"
        },
        {
          "indexed": false,
          "internalType": "bool",
          "name": "approved",
          "type": "bool"
        }
      ],
      "name": "ApprovalForAll",
      "type": "event"
    },
    {
      "anonymous": false,
      "inputs": [
        {
          "indexed": true,
          "internalType": "uint8",
          "name": "curveIndex",
          "type": "uint8"
        },
        {
          "indexed": true,
          "internalType": "address",
          "name": "curve",
          "type": "address"
        }
      ],
      "name": "CurveAdded",
      "type": "event"
    },
    {
      "anonymous": false,
      "inputs": [
        {
          "indexed": true,
          "internalType": "uint8",
          "name": "farmerIndex",
          "type": "uint8"
        },
        {
          "indexed": true,
          "internalType": "address",
          "name": "farmer",
          "type": "address"
        }
      ],
      "name": "FarmerAdded",
      "type": "event"
    },
    {
      "anonymous": false,
      "inputs": [
        {
          "indexed": false,
          "internalType": "uint256",
          "name": "id",
          "type": "uint256"
        },
        {
          "indexed": true,
          "internalType": "address",
          "name": "creator",
          "type": "address"
        },
        {
          "indexed": false,
          "internalType": "string",
          "name": "name",
          "type": "string"
        },
        {
          "indexed": false,
          "internalType": "string",
          "name": "uri",
          "type": "string"
        },
        {
          "indexed": false,
          "internalType": "address",
          "name": "feeTo",
          "type": "address"
        },
        {
          "indexed": false,
          "internalType": "uint256",
          "name": "appFeePercent",
          "type": "uint256"
        },
        {
          "indexed": false,
          "internalType": "uint256",
          "name": "creatorFeePercent",
          "type": "uint256"
        }
      ],
      "name": "NewApp",
      "type": "event"
    },
    {
      "anonymous": false,
      "inputs": [
        {
          "indexed": true,
          "internalType": "uint256",
          "name": "creationId",
          "type": "uint256"
        },
        {
          "indexed": true,
          "internalType": "address",
          "name": "creator",
          "type": "address"
        },
        {
          "indexed": true,
          "internalType": "uint256",
          "name": "appId",
          "type": "uint256"
        },
        {
          "indexed": false,
          "internalType": "string",
          "name": "name",
          "type": "string"
        },
        {
          "indexed": false,
          "internalType": "string",
          "name": "uri",
          "type": "string"
        },
        {
          "indexed": false,
          "internalType": "uint8",
          "name": "farmerId",
          "type": "uint8"
        },
        {
          "indexed": false,
          "internalType": "bool",
          "name": "isFarming",
          "type": "bool"
        },
        {
          "indexed": false,
          "internalType": "uint8",
          "name": "curveId",
          "type": "uint8"
        },
        {
          "indexed": false,
          "internalType": "uint256[]",
          "name": "curveArgs",
          "type": "uint256[]"
        }
      ],
      "name": "NewCreation",
      "type": "event"
    },
    {
      "anonymous": false,
      "inputs": [
        {
          "indexed": true,
          "internalType": "address",
          "name": "previousOwner",
          "type": "address"
        },
        {
          "indexed": true,
          "internalType": "address",
          "name": "newOwner",
          "type": "address"
        }
      ],
      "name": "OwnershipTransferred",
      "type": "event"
    },
    {
      "anonymous": false,
      "inputs": [
        {
          "indexed": false,
          "internalType": "uint256",
          "name": "previousFeePercent",
          "type": "uint256"
        },
        {
          "indexed": false,
          "internalType": "uint256",
          "name": "newFeePercent",
          "type": "uint256"
        }
      ],
      "name": "ProtocolFeePercentUpdated",
      "type": "event"
    },
    {
      "anonymous": false,
      "inputs": [
        {
          "indexed": true,
          "internalType": "address",
          "name": "previousFeeTo",
          "type": "address"
        },
        {
          "indexed": true,
          "internalType": "address",
          "name": "newFeeTo",
          "type": "address"
        }
      ],
      "name": "ProtocolFeeToUpdated",
      "type": "event"
    },
    {
      "anonymous": false,
      "inputs": [
        {
          "indexed": true,
          "internalType": "enum IndieX.TradeType",
          "name": "tradeType",
          "type": "uint8"
        },
        {
          "indexed": true,
          "internalType": "uint256",
          "name": "creationId",
          "type": "uint256"
        },
        {
          "indexed": true,
          "internalType": "address",
          "name": "sender",
          "type": "address"
        },
        {
          "indexed": false,
          "internalType": "uint256",
          "name": "tokenAmount",
          "type": "uint256"
        },
        {
          "indexed": false,
          "internalType": "uint256",
          "name": "fundAmount",
          "type": "uint256"
        },
        {
          "indexed": false,
          "internalType": "uint256",
          "name": "creatorFee",
          "type": "uint256"
        },
        {
          "indexed": false,
          "internalType": "uint256",
          "name": "appFee",
          "type": "uint256"
        },
        {
          "indexed": false,
          "internalType": "uint256",
          "name": "protocolFee",
          "type": "uint256"
        },
        {
          "indexed": false,
          "internalType": "address",
          "name": "curator",
          "type": "address"
        },
        {
          "indexed": false,
          "internalType": "uint256",
          "name": "curatorFee",
          "type": "uint256"
        }
      ],
      "name": "Trade",
      "type": "event"
    },
    {
      "anonymous": false,
      "inputs": [
        {
          "indexed": true,
          "internalType": "address",
          "name": "operator",
          "type": "address"
        },
        {
          "indexed": true,
          "internalType": "address",
          "name": "from",
          "type": "address"
        },
        {
          "indexed": true,
          "internalType": "address",
          "name": "to",
          "type": "address"
        },
        {
          "indexed": false,
          "internalType": "uint256[]",
          "name": "ids",
          "type": "uint256[]"
        },
        {
          "indexed": false,
          "internalType": "uint256[]",
          "name": "values",
          "type": "uint256[]"
        }
      ],
      "name": "TransferBatch",
      "type": "event"
    },
    {
      "anonymous": false,
      "inputs": [
        {
          "indexed": true,
          "internalType": "address",
          "name": "operator",
          "type": "address"
        },
        {
          "indexed": true,
          "internalType": "address",
          "name": "from",
          "type": "address"
        },
        {
          "indexed": true,
          "internalType": "address",
          "name": "to",
          "type": "address"
        },
        {
          "indexed": false,
          "internalType": "uint256",
          "name": "id",
          "type": "uint256"
        },
        {
          "indexed": false,
          "internalType": "uint256",
          "name": "value",
          "type": "uint256"
        }
      ],
      "name": "TransferSingle",
      "type": "event"
    },
    {
      "anonymous": false,
      "inputs": [
        {
          "indexed": false,
          "internalType": "string",
          "name": "value",
          "type": "string"
        },
        {
          "indexed": true,
          "internalType": "uint256",
          "name": "id",
          "type": "uint256"
        }
      ],
      "name": "URI",
      "type": "event"
    },
    {
      "anonymous": false,
      "inputs": [
        {
          "indexed": false,
          "internalType": "uint256",
          "name": "id",
          "type": "uint256"
        },
        {
          "indexed": true,
          "internalType": "address",
          "name": "creator",
          "type": "address"
        },
        {
          "indexed": false,
          "internalType": "string",
          "name": "name",
          "type": "string"
        },
        {
          "indexed": false,
          "internalType": "string",
          "name": "uri",
          "type": "string"
        },
        {
          "indexed": false,
          "internalType": "address",
          "name": "feeTo",
          "type": "address"
        },
        {
          "indexed": false,
          "internalType": "uint256",
          "name": "appFeePercent",
          "type": "uint256"
        },
        {
          "indexed": false,
          "internalType": "uint256",
          "name": "creatorFeePercent",
          "type": "uint256"
        }
      ],
      "name": "UpdateApp",
      "type": "event"
    },
    {
      "anonymous": false,
      "inputs": [
        {
          "indexed": true,
          "internalType": "uint256",
          "name": "creationId",
          "type": "uint256"
        },
        {
          "indexed": true,
          "internalType": "address",
          "name": "creator",
          "type": "address"
        },
        {
          "indexed": true,
          "internalType": "uint256",
          "name": "appId",
          "type": "uint256"
        },
        {
          "indexed": false,
          "internalType": "string",
          "name": "name",
          "type": "string"
        },
        {
          "indexed": false,
          "internalType": "string",
          "name": "uri",
          "type": "string"
        }
      ],
      "name": "UpdateCreation",
      "type": "event"
    },
    {
      "stateMutability": "payable",
      "type": "fallback"
    },
    {
      "inputs": [],
      "name": "CREATOR_PREMINT",
      "outputs": [
        {
          "internalType": "uint256",
          "name": "",
          "type": "uint256"
        }
      ],
      "stateMutability": "view",
      "type": "function"
    },
    {
      "inputs": [
        {
          "internalType": "address",
          "name": "curve",
          "type": "address"
        }
      ],
      "name": "addCurve",
      "outputs": [],
      "stateMutability": "nonpayable",
      "type": "function"
    },
    {
      "inputs": [
        {
          "internalType": "address",
          "name": "farmer",
          "type": "address"
        }
      ],
      "name": "addFarmer",
      "outputs": [],
      "stateMutability": "nonpayable",
      "type": "function"
    },
    {
      "inputs": [],
      "name": "appIndex",
      "outputs": [
        {
          "internalType": "uint256",
          "name": "",
          "type": "uint256"
        }
      ],
      "stateMutability": "view",
      "type": "function"
    },
    {
      "inputs": [
        {
          "internalType": "uint256",
          "name": "",
          "type": "uint256"
        }
      ],
      "name": "apps",
      "outputs": [
        {
          "internalType": "uint256",
          "name": "id",
          "type": "uint256"
        },
        {
          "internalType": "address",
          "name": "creator",
          "type": "address"
        },
        {
          "internalType": "string",
          "name": "name",
          "type": "string"
        },
        {
          "internalType": "string",
          "name": "uri",
          "type": "string"
        },
        {
          "internalType": "address",
          "name": "feeTo",
          "type": "address"
        },
        {
          "internalType": "uint256",
          "name": "appFeePercent",
          "type": "uint256"
        },
        {
          "internalType": "uint256",
          "name": "creatorFeePercent",
          "type": "uint256"
        }
      ],
      "stateMutability": "view",
      "type": "function"
    },
    {
      "inputs": [
        {
          "internalType": "address",
          "name": "account",
          "type": "address"
        },
        {
          "internalType": "uint256",
          "name": "id",
          "type": "uint256"
        }
      ],
      "name": "balanceOf",
      "outputs": [
        {
          "internalType": "uint256",
          "name": "",
          "type": "uint256"
        }
      ],
      "stateMutability": "view",
      "type": "function"
    },
    {
      "inputs": [
        {
          "internalType": "address[]",
          "name": "accounts",
          "type": "address[]"
        },
        {
          "internalType": "uint256[]",
          "name": "ids",
          "type": "uint256[]"
        }
      ],
      "name": "balanceOfBatch",
      "outputs": [
        {
          "internalType": "uint256[]",
          "name": "",
          "type": "uint256[]"
        }
      ],
      "stateMutability": "view",
      "type": "function"
    },
    {
      "inputs": [
        {
          "internalType": "uint256",
          "name": "creationId",
          "type": "uint256"
        },
        {
          "internalType": "uint256",
          "name": "amount",
          "type": "uint256"
        },
        {
          "internalType": "address",
          "name": "curator",
          "type": "address"
        }
      ],
      "name": "buy",
      "outputs": [],
      "stateMutability": "payable",
      "type": "function"
    },
    {
      "inputs": [],
      "name": "creationIndex",
      "outputs": [
        {
          "internalType": "uint256",
          "name": "",
          "type": "uint256"
        }
      ],
      "stateMutability": "view",
      "type": "function"
    },
    {
      "inputs": [
        {
          "internalType": "uint256",
          "name": "id",
          "type": "uint256"
        }
      ],
      "name": "creationSupply",
      "outputs": [
        {
          "internalType": "uint256",
          "name": "",
          "type": "uint256"
        }
      ],
      "stateMutability": "view",
      "type": "function"
    },
    {
      "inputs": [
        {
          "internalType": "uint256",
          "name": "",
          "type": "uint256"
        }
      ],
      "name": "creations",
      "outputs": [
        {
          "internalType": "uint256",
          "name": "id",
          "type": "uint256"
        },
        {
          "internalType": "uint256",
          "name": "appId",
          "type": "uint256"
        },
        {
          "internalType": "address",
          "name": "creator",
          "type": "address"
        },
        {
          "internalType": "string",
          "name": "name",
          "type": "string"
        },
        {
          "internalType": "string",
          "name": "uri",
          "type": "string"
        },
        {
          "internalType": "uint256",
          "name": "curatorFeePercent",
          "type": "uint256"
        },
        {
          "internalType": "uint8",
          "name": "farmer",
          "type": "uint8"
        },
        {
          "internalType": "bool",
          "name": "isFarming",
          "type": "bool"
        },
        {
          "internalType": "uint8",
          "name": "curve",
          "type": "uint8"
        },
        {
          "internalType": "uint256",
          "name": "balance",
          "type": "uint256"
        },
        {
          "internalType": "uint256",
          "name": "volume",
          "type": "uint256"
        }
      ],
      "stateMutability": "view",
      "type": "function"
    },
    {
      "inputs": [],
      "name": "curveIndex",
      "outputs": [
        {
          "internalType": "uint8",
          "name": "",
          "type": "uint8"
        }
      ],
      "stateMutability": "view",
      "type": "function"
    },
    {
      "inputs": [
        {
          "internalType": "uint8",
          "name": "",
          "type": "uint8"
        }
      ],
      "name": "curves",
      "outputs": [
        {
          "internalType": "address",
          "name": "",
          "type": "address"
        }
      ],
      "stateMutability": "view",
      "type": "function"
    },
    {
      "inputs": [
        {
          "internalType": "uint256",
          "name": "id",
          "type": "uint256"
        }
      ],
      "name": "exists",
      "outputs": [
        {
          "internalType": "bool",
          "name": "",
          "type": "bool"
        }
      ],
      "stateMutability": "view",
      "type": "function"
    },
    {
      "inputs": [],
      "name": "farmerIndex",
      "outputs": [
        {
          "internalType": "uint8",
          "name": "",
          "type": "uint8"
        }
      ],
      "stateMutability": "view",
      "type": "function"
    },
    {
      "inputs": [
        {
          "internalType": "uint8",
          "name": "",
          "type": "uint8"
        }
      ],
      "name": "farmers",
      "outputs": [
        {
          "internalType": "address",
          "name": "",
          "type": "address"
        }
      ],
      "stateMutability": "view",
      "type": "function"
    },
    {
      "inputs": [
        {
          "internalType": "uint256",
          "name": "id",
          "type": "uint256"
        }
      ],
      "name": "getApp",
      "outputs": [
        {
          "components": [
            {
              "internalType": "uint256",
              "name": "id",
              "type": "uint256"
            },
            {
              "internalType": "address",
              "name": "creator",
              "type": "address"
            },
            {
              "internalType": "string",
              "name": "name",
              "type": "string"
            },
            {
              "internalType": "string",
              "name": "uri",
              "type": "string"
            },
            {
              "internalType": "address",
              "name": "feeTo",
              "type": "address"
            },
            {
              "internalType": "uint256",
              "name": "appFeePercent",
              "type": "uint256"
            },
            {
              "internalType": "uint256",
              "name": "creatorFeePercent",
              "type": "uint256"
            }
          ],
          "internalType": "struct IndieX.App",
          "name": "",
          "type": "tuple"
        }
      ],
      "stateMutability": "view",
      "type": "function"
    },
    {
      "inputs": [
        {
          "internalType": "uint256",
          "name": "creationId",
          "type": "uint256"
        },
        {
          "internalType": "uint256",
          "name": "amount",
          "type": "uint256"
        }
      ],
      "name": "getBuyPrice",
      "outputs": [
        {
          "internalType": "uint256",
          "name": "",
          "type": "uint256"
        }
      ],
      "stateMutability": "view",
      "type": "function"
    },
    {
      "inputs": [
        {
          "internalType": "uint256",
          "name": "creationId",
          "type": "uint256"
        },
        {
          "internalType": "uint256",
          "name": "amount",
          "type": "uint256"
        },
        {
          "internalType": "uint256",
          "name": "appId",
          "type": "uint256"
        }
      ],
      "name": "getBuyPriceAfterFee",
      "outputs": [
        {
          "components": [
            {
              "internalType": "uint256",
              "name": "priceAfterFee",
              "type": "uint256"
            },
            {
              "internalType": "uint256",
              "name": "price",
              "type": "uint256"
            },
            {
              "internalType": "uint256",
              "name": "creatorFee",
              "type": "uint256"
            },
            {
              "internalType": "uint256",
              "name": "appFee",
              "type": "uint256"
            },
            {
              "internalType": "uint256",
              "name": "protocolFee",
              "type": "uint256"
            }
          ],
          "internalType": "struct IndieX.PriceInfo",
          "name": "",
          "type": "tuple"
        }
      ],
      "stateMutability": "view",
      "type": "function"
    },
    {
      "inputs": [
        {
          "internalType": "uint256",
          "name": "id",
          "type": "uint256"
        }
      ],
      "name": "getCreation",
      "outputs": [
        {
          "components": [
            {
              "internalType": "uint256",
              "name": "id",
              "type": "uint256"
            },
            {
              "internalType": "uint256",
              "name": "appId",
              "type": "uint256"
            },
            {
              "internalType": "address",
              "name": "creator",
              "type": "address"
            },
            {
              "internalType": "string",
              "name": "name",
              "type": "string"
            },
            {
              "internalType": "string",
              "name": "uri",
              "type": "string"
            },
            {
              "internalType": "uint256",
              "name": "curatorFeePercent",
              "type": "uint256"
            },
            {
              "internalType": "uint8",
              "name": "farmer",
              "type": "uint8"
            },
            {
              "internalType": "bool",
              "name": "isFarming",
              "type": "bool"
            },
            {
              "internalType": "uint8",
              "name": "curve",
              "type": "uint8"
            },
            {
              "internalType": "uint256[]",
              "name": "curveArgs",
              "type": "uint256[]"
            },
            {
              "internalType": "uint256",
              "name": "balance",
              "type": "uint256"
            },
            {
              "internalType": "uint256",
              "name": "volume",
              "type": "uint256"
            }
          ],
          "internalType": "struct IndieX.Creation",
          "name": "",
          "type": "tuple"
        }
      ],
      "stateMutability": "view",
      "type": "function"
    },
    {
      "inputs": [
        {
          "internalType": "uint256",
          "name": "creationId",
          "type": "uint256"
        },
        {
          "internalType": "uint256",
          "name": "amount",
          "type": "uint256"
        }
      ],
      "name": "getSellPrice",
      "outputs": [
        {
          "internalType": "uint256",
          "name": "",
          "type": "uint256"
        }
      ],
      "stateMutability": "view",
      "type": "function"
    },
    {
      "inputs": [
        {
          "internalType": "uint256",
          "name": "creationId",
          "type": "uint256"
        },
        {
          "internalType": "uint256",
          "name": "amount",
          "type": "uint256"
        },
        {
          "internalType": "uint256",
          "name": "appId",
          "type": "uint256"
        }
      ],
      "name": "getSellPriceAfterFee",
      "outputs": [
        {
          "components": [
            {
              "internalType": "uint256",
              "name": "priceAfterFee",
              "type": "uint256"
            },
            {
              "internalType": "uint256",
              "name": "price",
              "type": "uint256"
            },
            {
              "internalType": "uint256",
              "name": "creatorFee",
              "type": "uint256"
            },
            {
              "internalType": "uint256",
              "name": "appFee",
              "type": "uint256"
            },
            {
              "internalType": "uint256",
              "name": "protocolFee",
              "type": "uint256"
            }
          ],
          "internalType": "struct IndieX.PriceInfo",
          "name": "",
          "type": "tuple"
        }
      ],
      "stateMutability": "view",
      "type": "function"
    },
    {
      "inputs": [
        {
          "internalType": "address",
          "name": "creator",
          "type": "address"
        }
      ],
      "name": "getUserCreations",
      "outputs": [
        {
          "internalType": "uint256[]",
          "name": "",
          "type": "uint256[]"
        }
      ],
      "stateMutability": "view",
      "type": "function"
    },
    {
      "inputs": [
        {
          "internalType": "address",
          "name": "creator",
          "type": "address"
        }
      ],
      "name": "getUserLatestCreation",
      "outputs": [
        {
          "components": [
            {
              "internalType": "uint256",
              "name": "id",
              "type": "uint256"
            },
            {
              "internalType": "uint256",
              "name": "appId",
              "type": "uint256"
            },
            {
              "internalType": "address",
              "name": "creator",
              "type": "address"
            },
            {
              "internalType": "string",
              "name": "name",
              "type": "string"
            },
            {
              "internalType": "string",
              "name": "uri",
              "type": "string"
            },
            {
              "internalType": "uint256",
              "name": "curatorFeePercent",
              "type": "uint256"
            },
            {
              "internalType": "uint8",
              "name": "farmer",
              "type": "uint8"
            },
            {
              "internalType": "bool",
              "name": "isFarming",
              "type": "bool"
            },
            {
              "internalType": "uint8",
              "name": "curve",
              "type": "uint8"
            },
            {
              "internalType": "uint256[]",
              "name": "curveArgs",
              "type": "uint256[]"
            },
            {
              "internalType": "uint256",
              "name": "balance",
              "type": "uint256"
            },
            {
              "internalType": "uint256",
              "name": "volume",
              "type": "uint256"
            }
          ],
          "internalType": "struct IndieX.Creation",
          "name": "creation",
          "type": "tuple"
        }
      ],
      "stateMutability": "view",
      "type": "function"
    },
    {
      "inputs": [
        {
          "internalType": "address",
          "name": "account",
          "type": "address"
        },
        {
          "internalType": "address",
          "name": "operator",
          "type": "address"
        }
      ],
      "name": "isApprovedForAll",
      "outputs": [
        {
          "internalType": "bool",
          "name": "",
          "type": "bool"
        }
      ],
      "stateMutability": "view",
      "type": "function"
    },
    {
      "inputs": [
        {
          "components": [
            {
              "internalType": "string",
              "name": "name",
              "type": "string"
            },
            {
              "internalType": "string",
              "name": "uri",
              "type": "string"
            },
            {
              "internalType": "address",
              "name": "feeTo",
              "type": "address"
            },
            {
              "internalType": "uint256",
              "name": "appFeePercent",
              "type": "uint256"
            },
            {
              "internalType": "uint256",
              "name": "creatorFeePercent",
              "type": "uint256"
            }
          ],
          "internalType": "struct IndieX.UpsertAppInput",
          "name": "input",
          "type": "tuple"
        }
      ],
      "name": "newApp",
      "outputs": [],
      "stateMutability": "nonpayable",
      "type": "function"
    },
    {
      "inputs": [
        {
          "components": [
            {
              "internalType": "uint256",
              "name": "appId",
              "type": "uint256"
            },
            {
              "internalType": "string",
              "name": "name",
              "type": "string"
            },
            {
              "internalType": "string",
              "name": "uri",
              "type": "string"
            },
            {
              "internalType": "uint256",
              "name": "curatorFeePercent",
              "type": "uint256"
            },
            {
              "internalType": "uint8",
              "name": "farmer",
              "type": "uint8"
            },
            {
              "internalType": "bool",
              "name": "isFarming",
              "type": "bool"
            },
            {
              "internalType": "uint8",
              "name": "curve",
              "type": "uint8"
            },
            {
              "internalType": "uint256[]",
              "name": "curveArgs",
              "type": "uint256[]"
            }
          ],
          "internalType": "struct IndieX.NewCreationInput",
          "name": "input",
          "type": "tuple"
        }
      ],
      "name": "newCreation",
      "outputs": [],
      "stateMutability": "nonpayable",
      "type": "function"
    },
    {
      "inputs": [],
      "name": "owner",
      "outputs": [
        {
          "internalType": "address",
          "name": "",
          "type": "address"
        }
      ],
      "stateMutability": "view",
      "type": "function"
    },
    {
      "inputs": [],
      "name": "protocolFeePercent",
      "outputs": [
        {
          "internalType": "uint256",
          "name": "",
          "type": "uint256"
        }
      ],
      "stateMutability": "view",
      "type": "function"
    },
    {
      "inputs": [],
      "name": "protocolFeeTo",
      "outputs": [
        {
          "internalType": "address",
          "name": "",
          "type": "address"
        }
      ],
      "stateMutability": "view",
      "type": "function"
    },
    {
      "inputs": [],
      "name": "renounceOwnership",
      "outputs": [],
      "stateMutability": "nonpayable",
      "type": "function"
    },
    {
      "inputs": [
        {
          "internalType": "address",
          "name": "from",
          "type": "address"
        },
        {
          "internalType": "address",
          "name": "to",
          "type": "address"
        },
        {
          "internalType": "uint256[]",
          "name": "ids",
          "type": "uint256[]"
        },
        {
          "internalType": "uint256[]",
          "name": "values",
          "type": "uint256[]"
        },
        {
          "internalType": "bytes",
          "name": "data",
          "type": "bytes"
        }
      ],
      "name": "safeBatchTransferFrom",
      "outputs": [],
      "stateMutability": "nonpayable",
      "type": "function"
    },
    {
      "inputs": [
        {
          "internalType": "address",
          "name": "from",
          "type": "address"
        },
        {
          "internalType": "address",
          "name": "to",
          "type": "address"
        },
        {
          "internalType": "uint256",
          "name": "id",
          "type": "uint256"
        },
        {
          "internalType": "uint256",
          "name": "value",
          "type": "uint256"
        },
        {
          "internalType": "bytes",
          "name": "data",
          "type": "bytes"
        }
      ],
      "name": "safeTransferFrom",
      "outputs": [],
      "stateMutability": "nonpayable",
      "type": "function"
    },
    {
      "inputs": [
        {
          "internalType": "uint256",
          "name": "creationId",
          "type": "uint256"
        },
        {
          "internalType": "uint256",
          "name": "amount",
          "type": "uint256"
        }
      ],
      "name": "sell",
      "outputs": [],
      "stateMutability": "nonpayable",
      "type": "function"
    },
    {
      "inputs": [
        {
          "internalType": "address",
          "name": "operator",
          "type": "address"
        },
        {
          "internalType": "bool",
          "name": "approved",
          "type": "bool"
        }
      ],
      "name": "setApprovalForAll",
      "outputs": [],
      "stateMutability": "nonpayable",
      "type": "function"
    },
    {
      "inputs": [
        {
          "internalType": "uint256",
          "name": "_feePercent",
          "type": "uint256"
        }
      ],
      "name": "setProtocolFeePercent",
      "outputs": [],
      "stateMutability": "nonpayable",
      "type": "function"
    },
    {
      "inputs": [
        {
          "internalType": "address",
          "name": "_feeTo",
          "type": "address"
        }
      ],
      "name": "setProtocolFeeTo",
      "outputs": [],
      "stateMutability": "nonpayable",
      "type": "function"
    },
    {
      "inputs": [
        {
          "internalType": "bytes4",
          "name": "interfaceId",
          "type": "bytes4"
        }
      ],
      "name": "supportsInterface",
      "outputs": [
        {
          "internalType": "bool",
          "name": "",
          "type": "bool"
        }
      ],
      "stateMutability": "view",
      "type": "function"
    },
    {
      "inputs": [],
      "name": "totalSupply",
      "outputs": [
        {
          "internalType": "uint256",
          "name": "",
          "type": "uint256"
        }
      ],
      "stateMutability": "view",
      "type": "function"
    },
    {
      "inputs": [
        {
          "internalType": "uint256",
          "name": "id",
          "type": "uint256"
        }
      ],
      "name": "totalSupply",
      "outputs": [
        {
          "internalType": "uint256",
          "name": "",
          "type": "uint256"
        }
      ],
      "stateMutability": "view",
      "type": "function"
    },
    {
      "inputs": [
        {
          "internalType": "address",
          "name": "newOwner",
          "type": "address"
        }
      ],
      "name": "transferOwnership",
      "outputs": [],
      "stateMutability": "nonpayable",
      "type": "function"
    },
    {
      "inputs": [
        {
          "internalType": "uint256",
          "name": "id",
          "type": "uint256"
        },
        {
          "components": [
            {
              "internalType": "string",
              "name": "name",
              "type": "string"
            },
            {
              "internalType": "string",
              "name": "uri",
              "type": "string"
            },
            {
              "internalType": "address",
              "name": "feeTo",
              "type": "address"
            },
            {
              "internalType": "uint256",
              "name": "appFeePercent",
              "type": "uint256"
            },
            {
              "internalType": "uint256",
              "name": "creatorFeePercent",
              "type": "uint256"
            }
          ],
          "internalType": "struct IndieX.UpsertAppInput",
          "name": "input",
          "type": "tuple"
        }
      ],
      "name": "updateApp",
      "outputs": [],
      "stateMutability": "nonpayable",
      "type": "function"
    },
    {
      "inputs": [
        {
          "internalType": "uint256",
          "name": "id",
          "type": "uint256"
        },
        {
          "components": [
            {
              "internalType": "string",
              "name": "name",
              "type": "string"
            },
            {
              "internalType": "string",
              "name": "uri",
              "type": "string"
            },
            {
              "internalType": "uint256",
              "name": "curatorFeePercent",
              "type": "uint256"
            }
          ],
          "internalType": "struct IndieX.UpdateCreationInput",
          "name": "input",
          "type": "tuple"
        }
      ],
      "name": "updateCreation",
      "outputs": [],
      "stateMutability": "nonpayable",
      "type": "function"
    },
    {
      "inputs": [
        {
          "internalType": "uint256",
          "name": "",
          "type": "uint256"
        }
      ],
      "name": "uri",
      "outputs": [
        {
          "internalType": "string",
          "name": "",
          "type": "string"
        }
      ],
      "stateMutability": "view",
      "type": "function"
    },
    {
      "inputs": [
        {
          "internalType": "address",
          "name": "",
          "type": "address"
        },
        {
          "internalType": "uint256",
          "name": "",
          "type": "uint256"
        }
      ],
      "name": "userCreations",
      "outputs": [
        {
          "internalType": "uint256",
          "name": "",
          "type": "uint256"
        }
      ],
      "stateMutability": "view",
      "type": "function"
    },
    {
      "stateMutability": "payable",
      "type": "receive"
    }
  ],
  "transactionHash": "0x5ee4c413a3c36b2ff5c9350b244cd75d4fe2b14a69b2b832d07cb5f2f8e97411",
  "args": [
    "0x7FEA6971Eb1663623690Edbb779a05DD9440d824"
  ],
  "numDeployments": 9,
  "solcInputHash": "e6a5961f624c7ee7a7c060048ac57708",
  "bytecode": "0x60806040526007805461ffff19169055600060088190556009819055600a55662386f26fc10000600b553480156200003657600080fd5b5060405162005cf438038062005cf483398101604081905262000059916200011e565b604080516020810190915260008152816001600160a01b0381166200009857604051631e4fbdf760e01b81526000600482015260240160405180910390fd5b620000a381620000bc565b50620000af816200010c565b50506001600655620002c1565b600080546001600160a01b038381166001600160a01b0319831681178455604051919092169283917f8be0079c531659141344cd1fd0a4f28419497f9722a3daafe3b4186f6b6457e09190a35050565b60036200011a8282620001f5565b5050565b6000602082840312156200013157600080fd5b81516001600160a01b03811681146200014957600080fd5b9392505050565b634e487b7160e01b600052604160045260246000fd5b600181811c908216806200017b57607f821691505b6020821081036200019c57634e487b7160e01b600052602260045260246000fd5b50919050565b601f821115620001f057600081815260208120601f850160051c81016020861015620001cb5750805b601f850160051c820191505b81811015620001ec57828155600101620001d7565b5050505b505050565b81516001600160401b0381111562000211576200021162000150565b620002298162000222845462000166565b84620001a2565b602080601f831160018114620002615760008415620002485750858301515b600019600386901b1c1916600185901b178555620001ec565b600085815260208120601f198616915b82811015620002925788860151825594840194600190910190840162000271565b5085821015620002b15787850151600019600388901b60f8161c191681555b5050505050600190811b01905550565b615a2380620002d16000396000f3fe6080604052600436106102c55760003560e01c80637bdcdaff11610177578063c157253d116100d5578063e0e6799f11610084578063f242432a11610061578063f242432a1461096d578063f2fde38b1461098d578063fba41ebe146109ad57005b8063e0e6799f146108ca578063e985e9c5146108ea578063ef3692521461094057005b8063d6e6eb9f116100b2578063d6e6eb9f14610874578063d79875eb1461088a578063db2b6da7146108aa57005b8063c157253d1461081e578063c6fdbc901461083e578063c8d8cf881461085e57005b80638da5cb5b11610131578063a49834211161010e578063a4983421146107b1578063baef60d0146107d1578063bd85b039146107f157005b80638da5cb5b146107465780639477d85d14610771578063a22cb4651461079157005b806380c3f96d1161015f57806380c3f96d146106cf5780638557a531146106ef5780638d5fbf141461072657005b80637bdcdaff146106875780637ffb25ac146106b357005b806343e235ff1161022457806359a87bc1116101de578063715018a6116101bb578063715018a61461060f57806374ec47af1461062457806379d366381461064457005b806359a87bc11461059c5780635efdf628146105af57806361acc37e146105dc57005b80634e1273f41161020c5780634e1273f41461052d5780634f558e791461054d5780635926dd941461057c57005b806343e235ff146104f75780634d121ec11461051757005b806320e1fc8c1161028057806327fef8631161025d57806327fef863146104555780632eb2c2d6146104b7578063410d3c02146104d757005b806320e1fc8c1461039357806324f3a51b146103fb578063269ba52c1461042857005b8063035347e2116102ae578063035347e2146103315780630e89341c1461035157806318160ddd1461037e57005b8062fdd58e146102ce57806301ffc9a71461030157005b366102cc57005b005b3480156102da57600080fd5b506102ee6102e9366004614934565b6109cc565b6040519081526020015b60405180910390f35b34801561030d57600080fd5b5061032161031c36600461498c565b610a03565b60405190151581526020016102f8565b34801561033d57600080fd5b506102cc61034c366004614b8f565b610ae6565b34801561035d57600080fd5b5061037161036c366004614c8c565b610e39565b6040516102f89190614d09565b34801561038a57600080fd5b506005546102ee565b34801561039f57600080fd5b506103d66103ae366004614d1c565b600d6020526000908152604090205473ffffffffffffffffffffffffffffffffffffffff1681565b60405173ffffffffffffffffffffffffffffffffffffffff90911681526020016102f8565b34801561040757600080fd5b5061041b610416366004614c8c565b610ecd565b6040516102f89190614d37565b34801561043457600080fd5b50610448610443366004614deb565b6110df565b6040516102f89190614e41565b34801561046157600080fd5b50610475610470366004614e54565b611157565b6040516102f89190600060a082019050825182526020830151602083015260408301516040830152606083015160608301526080830151608083015292915050565b3480156104c357600080fd5b506102cc6104d2366004614e80565b61119e565b3480156104e357600080fd5b506102ee6104f2366004614c8c565b611264565b34801561050357600080fd5b506102ee610512366004614934565b611278565b34801561052357600080fd5b506102ee60095481565b34801561053957600080fd5b50610448610548366004614f2a565b6112a9565b34801561055957600080fd5b50610321610568366004614c8c565b600090815260046020526040902054151590565b34801561058857600080fd5b50610475610597366004614e54565b611397565b6102cc6105aa366004614fea565b6113d6565b3480156105bb57600080fd5b506105cf6105ca366004614deb565b6119d6565b6040516102f8919061501f565b3480156105e857600080fd5b506105fc6105f7366004614c8c565b611d59565b6040516102f89796959493929190615145565b34801561061b57600080fd5b506102cc611ed4565b34801561063057600080fd5b506102cc61063f366004614deb565b611ee8565b34801561065057600080fd5b506103d661065f366004614d1c565b600e6020526000908152604090205473ffffffffffffffffffffffffffffffffffffffff1681565b34801561069357600080fd5b506007546106a19060ff1681565b60405160ff90911681526020016102f8565b3480156106bf57600080fd5b506102ee670de0b6b3a764000081565b3480156106db57600080fd5b506102cc6106ea366004614deb565b611fa3565b3480156106fb57600080fd5b5061070f61070a366004614c8c565b612052565b6040516102f89b9a999897969594939291906151ac565b34801561073257600080fd5b506102cc6107413660046152e8565b6121d9565b34801561075257600080fd5b5060005473ffffffffffffffffffffffffffffffffffffffff166103d6565b34801561077d57600080fd5b506102ee61078c36600461531d565b6124dd565b34801561079d57600080fd5b506102cc6107ac36600461533f565b6124f2565b3480156107bd57600080fd5b506102cc6107cc366004614c8c565b612501565b3480156107dd57600080fd5b506102cc6107ec366004615372565b6125bb565b3480156107fd57600080fd5b506102ee61080c366004614c8c565b60009081526004602052604090205490565b34801561082a57600080fd5b506102ee61083936600461531d565b612901565b34801561084a57600080fd5b506105cf610859366004614c8c565b61290f565b34801561086a57600080fd5b506102ee60085481565b34801561088057600080fd5b506102ee600b5481565b34801561089657600080fd5b506102cc6108a536600461531d565b612bb8565b3480156108b657600080fd5b506102cc6108c53660046153af565b61313a565b3480156108d657600080fd5b506102cc6108e5366004614deb565b613353565b3480156108f657600080fd5b5061032161090536600461546c565b73ffffffffffffffffffffffffffffffffffffffff918216600090815260026020908152604080832093909416825291909152205460ff1690565b34801561094c57600080fd5b50600c546103d69073ffffffffffffffffffffffffffffffffffffffff1681565b34801561097957600080fd5b506102cc610988366004615496565b6133e9565b34801561099957600080fd5b506102cc6109a8366004614deb565b6134a7565b3480156109b957600080fd5b506007546106a190610100900460ff1681565b600081815260016020908152604080832073ffffffffffffffffffffffffffffffffffffffff861684529091529020545b92915050565b60007fffffffff0000000000000000000000000000000000000000000000000000000082167fd9b67a26000000000000000000000000000000000000000000000000000000001480610a9657507fffffffff0000000000000000000000000000000000000000000000000000000082167f0e89341c00000000000000000000000000000000000000000000000000000000145b806109fd57507f01ffc9a7000000000000000000000000000000000000000000000000000000007fffffffff000000000000000000000000000000000000000000000000000000008316146109fd565b600081602001515111610b5a576040517f08c379a000000000000000000000000000000000000000000000000000000000815260206004820152601460248201527f4e616d652063616e6e6f7420626520656d70747900000000000000000000000060448201526064015b60405180910390fd5b60003390506040518061018001604052806009548152602001836000015181526020018273ffffffffffffffffffffffffffffffffffffffff168152602001836020015181526020018360400151815260200183606001518152602001836080015160ff1681526020018360a00151151581526020018360c0015160ff1681526020018360e001518152602001600081526020016000815250601060006009548152602001908152602001600020600082015181600001556020820151816001015560408201518160020160006101000a81548173ffffffffffffffffffffffffffffffffffffffff021916908373ffffffffffffffffffffffffffffffffffffffff1602179055506060820151816003019081610c78919061558e565b5060808201516004820190610c8d908261558e565b5060a0820151600582015560c082015160068201805460e08501516101008087015160ff90811662010000027fffffffffffffffffffffffffffffffffffffffffffffffffffffffffff00ffff9315159092027fffffffffffffffffffffffffffffffffffffffffffffffffffffffffffff000090941695169490941791909117169190911790556101208201518051610d319160078401916020909101906148ab565b5061014082015160088201556101609091015160099182015573ffffffffffffffffffffffffffffffffffffffff82166000908152601160209081526040808320845481546001810183559185528385209091015592548351918201909352908152610da8918391670de0b6b3a76400009061350b565b81600001518173ffffffffffffffffffffffffffffffffffffffff166009547ff524c1772688efc3d39ee399b0b5d915facf010c7fb1334a4ac66dbb9b17e2198560200151866040015187608001518860a001518960c001518a60e00151604051610e18969594939291906156a8565b60405180910390a460098054906000610e3083615737565b91905055505050565b606060038054610e48906154fb565b80601f0160208091040260200160405190810160405280929190818152602001828054610e74906154fb565b8015610ec15780601f10610e9657610100808354040283529160200191610ec1565b820191906000526020600020905b815481529060010190602001808311610ea457829003601f168201915b50505050509050919050565b610f396040518060e0016040528060008152602001600073ffffffffffffffffffffffffffffffffffffffff1681526020016060815260200160608152602001600073ffffffffffffffffffffffffffffffffffffffff16815260200160008152602001600081525090565b6000828152600f6020908152604091829020825160e08101845281548152600182015473ffffffffffffffffffffffffffffffffffffffff16928101929092526002810180549293919291840191610f90906154fb565b80601f0160208091040260200160405190810160405280929190818152602001828054610fbc906154fb565b80156110095780601f10610fde57610100808354040283529160200191611009565b820191906000526020600020905b815481529060010190602001808311610fec57829003601f168201915b50505050508152602001600382018054611022906154fb565b80601f016020809104026020016040519081016040528092919081815260200182805461104e906154fb565b801561109b5780601f106110705761010080835404028352916020019161109b565b820191906000526020600020905b81548152906001019060200180831161107e57829003601f168201915b5050509183525050600482015473ffffffffffffffffffffffffffffffffffffffff1660208201526005820154604082015260069091015460609091015292915050565b73ffffffffffffffffffffffffffffffffffffffff8116600090815260116020908152604091829020805483518184028101840190945280845260609392830182828015610ec157602002820191906000526020600020905b8154815260200190600101908083116111385750505050509050919050565b6111896040518060a0016040528060008152602001600081526020016000815260200160008152602001600081525090565b611196848484600061358e565b949350505050565b3373ffffffffffffffffffffffffffffffffffffffff861681148015906111f8575073ffffffffffffffffffffffffffffffffffffffff80871660009081526002602090815260408083209385168352929052205460ff16155b1561124f576040517fe237d92200000000000000000000000000000000000000000000000000000000815273ffffffffffffffffffffffffffffffffffffffff808316600483015287166024820152604401610b51565b61125c8686868686613870565b505050505050565b6000818152600460205260408120546109fd565b6011602052816000526040600020818154811061129457600080fd5b90600052602060002001600091509150505481565b606081518351146112f357815183516040517f5b05999100000000000000000000000000000000000000000000000000000000815260048101929092526024820152604401610b51565b6000835167ffffffffffffffff81111561130f5761130f6149a9565b604051908082528060200260200182016040528015611338578160200160208202803683370190505b50905060005b845181101561138f57602080820286010151611362906020808402870101516109cc565b8282815181106113745761137461576f565b602090810291909101015261138881615737565b905061133e565b509392505050565b6113c96040518060a0016040528060008152602001600081526020016000815260200160008152602001600081525090565b611196848484600161358e565b6113de613924565b60008211611448576040517f08c379a000000000000000000000000000000000000000000000000000000000815260206004820152601960248201527f42757920616d6f756e742063616e6e6f74206265207a65726f000000000000006044820152606401610b51565b60095483106114b3576040517f08c379a000000000000000000000000000000000000000000000000000000000815260206004820152601760248201527f4372656174696f6e20646f6573206e6f742065786973740000000000000000006044820152606401610b51565b600083815260106020526040812060018101549091906114d69086908690611397565b8051909150341015611544576040517f08c379a000000000000000000000000000000000000000000000000000000000815260206004820152601460248201527f496e73756666696369656e74207061796d656e740000000000000000000000006044820152606401610b51565b8060200151600a600082825461155a919061579e565b9091555050602081015160088301805460009061157890849061579e565b9091555050602081015160098301805460009061159690849061579e565b925050819055506115b83386866040518060200160405280600081525061350b565b6006820154610100900460ff161561166e57600682015460ff166000908152600e60209081526040909120549082015173ffffffffffffffffffffffffffffffffffffffff9091169061160c908290613967565b8073ffffffffffffffffffffffffffffffffffffffff1663d0e30db06040518163ffffffff1660e01b8152600401600060405180830381600087803b15801561165457600080fd5b505af1158015611668573d6000803e3d6000fd5b50505050505b600073ffffffffffffffffffffffffffffffffffffffff8416156116fc57670de0b6b3a7640000836005015483604001516116a991906157b1565b6116b391906157c8565b600284015460408401519192506116ed9173ffffffffffffffffffffffffffffffffffffffff909116906116e8908490615803565b613967565b6116f78482613967565b611726565b600283015460408301516117269173ffffffffffffffffffffffffffffffffffffffff1690613967565b6060820151156118ea576001808401546000908152600f60209081526040808320815160e081018352815481529481015473ffffffffffffffffffffffffffffffffffffffff16928501929092526002820180549394939184019161178a906154fb565b80601f01602080910402602001604051908101604052809291908181526020018280546117b6906154fb565b80156118035780601f106117d857610100808354040283529160200191611803565b820191906000526020600020905b8154815290600101906020018083116117e657829003601f168201915b5050505050815260200160038201805461181c906154fb565b80601f0160208091040260200160405190810160405280929190818152602001828054611848906154fb565b80156118955780601f1061186a57610100808354040283529160200191611895565b820191906000526020600020905b81548152906001019060200180831161187857829003601f168201915b5050509183525050600482015473ffffffffffffffffffffffffffffffffffffffff166020820152600582015460408201526006909101546060918201526080820151908501519192506118e891613967565b505b60808201511561191c57600c54608083015161191c9173ffffffffffffffffffffffffffffffffffffffff1690613967565b815160009061192b9034615803565b9050801561193d5761193d3382613967565b825160408085015160608087015160808089015185518d81526020810197909752948601939093529084015282015273ffffffffffffffffffffffffffffffffffffffff861660a082015260c08101839052339088906001907f5e8ec80ece70688f5dfe49f24be4ed9b0d314d69abdd270b44b7718882ff6b939060e00160405180910390a4505050506119d16001600655565b505050565b611a586040518061018001604052806000815260200160008152602001600073ffffffffffffffffffffffffffffffffffffffff168152602001606081526020016060815260200160008152602001600060ff168152602001600015158152602001600060ff1681526020016060815260200160008152602001600081525090565b73ffffffffffffffffffffffffffffffffffffffff8216600090815260116020908152604080832080548251818502810185019093528083529192909190830182828015611ac557602002820191906000526020600020905b815481526020019060010190808311611ab1575b50505050509050600081511115611d5357601060008260018451611ae99190615803565b81518110611af957611af961576f565b602002602001015181526020019081526020016000206040518061018001604052908160008201548152602001600182015481526020016002820160009054906101000a900473ffffffffffffffffffffffffffffffffffffffff1673ffffffffffffffffffffffffffffffffffffffff1673ffffffffffffffffffffffffffffffffffffffff168152602001600382018054611b95906154fb565b80601f0160208091040260200160405190810160405280929190818152602001828054611bc1906154fb565b8015611c0e5780601f10611be357610100808354040283529160200191611c0e565b820191906000526020600020905b815481529060010190602001808311611bf157829003601f168201915b50505050508152602001600482018054611c27906154fb565b80601f0160208091040260200160405190810160405280929190818152602001828054611c53906154fb565b8015611ca05780601f10611c7557610100808354040283529160200191611ca0565b820191906000526020600020905b815481529060010190602001808311611c8357829003601f168201915b50505091835250506005820154602080830191909152600683015460ff80821660408086019190915261010083048216151560608601526201000090920416608084015260078401805482518185028101850190935280835260a0909401939192909190830182828015611d3357602002820191906000526020600020905b815481526020019060010190808311611d1f575b505050505081526020016008820154815260200160098201548152505091505b50919050565b600f60205260009081526040902080546001820154600283018054929373ffffffffffffffffffffffffffffffffffffffff90921692611d98906154fb565b80601f0160208091040260200160405190810160405280929190818152602001828054611dc4906154fb565b8015611e115780601f10611de657610100808354040283529160200191611e11565b820191906000526020600020905b815481529060010190602001808311611df457829003601f168201915b505050505090806003018054611e26906154fb565b80601f0160208091040260200160405190810160405280929190818152602001828054611e52906154fb565b8015611e9f5780601f10611e7457610100808354040283529160200191611e9f565b820191906000526020600020905b815481529060010190602001808311611e8257829003601f168201915b5050505060048301546005840154600690940154929373ffffffffffffffffffffffffffffffffffffffff9091169290915087565b611edc613a31565b611ee66000613a84565b565b611ef0613a31565b6007805460ff9081166000908152600d602052604080822080547fffffffffffffffffffffffff00000000000000000000000000000000000000001673ffffffffffffffffffffffffffffffffffffffff8716908117909155935490519216917f5f191b2335d7a97cb377ce188ce88159ccc2e78100873ffb7cc2d31c968747979190a36007805460ff16906000611f8783615816565b91906101000a81548160ff021916908360ff1602179055505050565b611fab613a31565b6007805460ff6101009182900481166000908152600e6020526040808220805473ffffffffffffffffffffffffffffffffffffffff88167fffffffffffffffffffffffff0000000000000000000000000000000000000000909116811790915594549051939004909116917f2226942937615a3decf2f421ffaa1491d7a4d76a0e382719f1e9a486ebb63ab69190a360078054610100900460ff16906001611f8783615816565b60106020526000908152604090208054600182015460028301546003840180549394929373ffffffffffffffffffffffffffffffffffffffff9092169291612099906154fb565b80601f01602080910402602001604051908101604052809291908181526020018280546120c5906154fb565b80156121125780601f106120e757610100808354040283529160200191612112565b820191906000526020600020905b8154815290600101906020018083116120f557829003601f168201915b505050505090806004018054612127906154fb565b80601f0160208091040260200160405190810160405280929190818152602001828054612153906154fb565b80156121a05780601f10612175576101008083540402835291602001916121a0565b820191906000526020600020905b81548152906001019060200180831161218357829003601f168201915b505050506005830154600684015460088501546009909501549394919360ff80831694506101008304811693620100009093041691908b565b805151612242576040517f08c379a000000000000000000000000000000000000000000000000000000000815260206004820152601460248201527f4e616d652063616e6e6f7420626520656d7074790000000000000000000000006044820152606401610b51565b604081015173ffffffffffffffffffffffffffffffffffffffff166122c3576040517f08c379a000000000000000000000000000000000000000000000000000000000815260206004820152601560248201527f496e76616c696420666565546f206164647265737300000000000000000000006044820152606401610b51565b67016345785d8a000081606001511115612339576040517f08c379a000000000000000000000000000000000000000000000000000000000815260206004820152601c60248201527f61707046656550657263656e74206d757374206265203c3d20313025000000006044820152606401610b51565b6040805160e0810182526008548082523360208084019182528551848601908152868201516060808701919091528787015173ffffffffffffffffffffffffffffffffffffffff9081166080808901919091529189015160a08801529088015160c08701526000948552600f909252949092208351815590516001820180547fffffffffffffffffffffffff0000000000000000000000000000000000000000169190931617909155915190919060028201906123f6908261558e565b506060820151600382019061240b908261558e565b506080828101516004830180547fffffffffffffffffffffffff00000000000000000000000000000000000000001673ffffffffffffffffffffffffffffffffffffffff90921691909117905560a0830151600583015560c09092015160069091015560085482516020840151604080860151606087015195870151915133967f95860c408b95c37c8a315717a02901b7a1c080fac2b72783fcc47c0a875ab5cb966124bd9690959094909392615835565b60405180910390a2600880549060006124d583615737565b919050555050565b60006124eb83836000613af9565b9392505050565b6124fd338383613dff565b5050565b612509613a31565b662386f26fc1000081111561257a576040517f08c379a000000000000000000000000000000000000000000000000000000000815260206004820181905260248201527f70726f746f636f6c46656550657263656e74206d757374206265203c3d2031256044820152606401610b51565b600b5460408051918252602082018390527f219d87b3822c2cd9103f559e66b1fa6683e5a41c1dde2e43ee26577e40f637be910160405180910390a1600b55565b6000828152600f60205260409020600181015473ffffffffffffffffffffffffffffffffffffffff1661264a576040517f08c379a000000000000000000000000000000000000000000000000000000000815260206004820152600f60248201527f417070206e6f74206578697374656400000000000000000000000000000000006044820152606401610b51565b600181015473ffffffffffffffffffffffffffffffffffffffff1633146126cd576040517f08c379a000000000000000000000000000000000000000000000000000000000815260206004820152601b60248201527f4f6e6c792063726561746f722063616e207570646174652041707000000000006044820152606401610b51565b815151612736576040517f08c379a000000000000000000000000000000000000000000000000000000000815260206004820152601460248201527f4e616d652063616e6e6f7420626520656d7074790000000000000000000000006044820152606401610b51565b604082015173ffffffffffffffffffffffffffffffffffffffff166127b7576040517f08c379a000000000000000000000000000000000000000000000000000000000815260206004820152601560248201527f496e76616c696420666565546f206164647265737300000000000000000000006044820152606401610b51565b67016345785d8a00008260600151111561282d576040517f08c379a000000000000000000000000000000000000000000000000000000000815260206004820152601c60248201527f61707046656550657263656e74206d757374206265203c3d20313025000000006044820152606401610b51565b8151600282019061283e908261558e565b5060208201516003820190612853908261558e565b506040828101516004830180547fffffffffffffffffffffffff00000000000000000000000000000000000000001673ffffffffffffffffffffffffffffffffffffffff8316179055606084015160058401819055608085015160068501819055845486516020880151955133967f2a24f65606d720ce9fcf601d2f201f9807a391a3eb1f04ae8b49b6313b101c3d966128f4969495939491939092615835565b60405180910390a2505050565b60006124eb83836001613af9565b6129916040518061018001604052806000815260200160008152602001600073ffffffffffffffffffffffffffffffffffffffff168152602001606081526020016060815260200160008152602001600060ff168152602001600015158152602001600060ff1681526020016060815260200160008152602001600081525090565b60008281526010602090815260409182902082516101808101845281548152600182015492810192909252600281015473ffffffffffffffffffffffffffffffffffffffff16928201929092526003820180549192916060840191906129f6906154fb565b80601f0160208091040260200160405190810160405280929190818152602001828054612a22906154fb565b8015612a6f5780601f10612a4457610100808354040283529160200191612a6f565b820191906000526020600020905b815481529060010190602001808311612a5257829003601f168201915b50505050508152602001600482018054612a88906154fb565b80601f0160208091040260200160405190810160405280929190818152602001828054612ab4906154fb565b8015612b015780601f10612ad657610100808354040283529160200191612b01565b820191906000526020600020905b815481529060010190602001808311612ae457829003601f168201915b50505091835250506005820154602080830191909152600683015460ff80821660408086019190915261010083048216151560608601526201000090920416608084015260078401805482518185028101850190935280835260a0909401939192909190830182828015612b9457602002820191906000526020600020905b815481526020019060010190808311612b80575b50505050508152602001600882015481526020016009820154815250509050919050565b612bc0613924565b6009548210612c2b576040517f08c379a000000000000000000000000000000000000000000000000000000000815260206004820152601460248201527f4372656174696f6e206e6f7420657869737465640000000000000000000000006044820152606401610b51565b80612c3633846109cc565b1015612c9e576040517f08c379a000000000000000000000000000000000000000000000000000000000815260206004820152601360248201527f496e73756666696369656e7420616d6f756e74000000000000000000000000006044820152606401610b51565b80670de0b6b3a7640000612cbe8460009081526004602052604090205490565b612cc89190615803565b1015612d56576040517f08c379a000000000000000000000000000000000000000000000000000000000815260206004820152602260248201527f416d6f756e742073686f756c642062656c6f77207072656d696e7420616d6f7560448201527f6e740000000000000000000000000000000000000000000000000000000000006064820152608401610b51565b60008281526010602052604081206001810154909190612d799085908590611157565b90508060200151600a6000828254612d919190615803565b90915550506020810151600883018054600090612daf908490615803565b90915550506020810151600983018054600090612dcd90849061579e565b90915550612dde9050338585613ee7565b6006820154610100900460ff1615612e9257600682015460ff166000908152600e6020908152604091829020549083015191517f2e1a7d4d000000000000000000000000000000000000000000000000000000008152600481019290925273ffffffffffffffffffffffffffffffffffffffff16908190632e1a7d4d90602401600060405180830381600087803b158015612e7857600080fd5b505af1158015612e8c573d6000803e3d6000fd5b50505050505b612ea0338260000151613967565b60028201546040820151612eca9173ffffffffffffffffffffffffffffffffffffffff1690613967565b60608101511561308e576001808301546000908152600f60209081526040808320815160e081018352815481529481015473ffffffffffffffffffffffffffffffffffffffff169285019290925260028201805493949391840191612f2e906154fb565b80601f0160208091040260200160405190810160405280929190818152602001828054612f5a906154fb565b8015612fa75780601f10612f7c57610100808354040283529160200191612fa7565b820191906000526020600020905b815481529060010190602001808311612f8a57829003601f168201915b50505050508152602001600382018054612fc0906154fb565b80601f0160208091040260200160405190810160405280929190818152602001828054612fec906154fb565b80156130395780601f1061300e57610100808354040283529160200191613039565b820191906000526020600020905b81548152906001019060200180831161301c57829003601f168201915b5050509183525050600482015473ffffffffffffffffffffffffffffffffffffffff1660208201526005820154604082015260069091015460609182015260808201519084015191925061308c91613967565b505b6080810151156130c057600c5460808201516130c09173ffffffffffffffffffffffffffffffffffffffff1690613967565b3384600283516040808601516060808801516080808a015185518d815260208101979097529486019390935290840152820152600060a0820181905260c08201527f5e8ec80ece70688f5dfe49f24be4ed9b0d314d69abdd270b44b7718882ff6b939060e00160405180910390a450506124fd6001600655565b6000828152601060205260409020600281015473ffffffffffffffffffffffffffffffffffffffff166131c9576040517f08c379a000000000000000000000000000000000000000000000000000000000815260206004820152601460248201527f4372656174696f6e206e6f7420657869737465640000000000000000000000006044820152606401610b51565b600281015473ffffffffffffffffffffffffffffffffffffffff16331461324c576040517f08c379a000000000000000000000000000000000000000000000000000000000815260206004820181905260248201527f4f6e6c792063726561746f722063616e20757064617465204372656174696f6e6044820152606401610b51565b8151516132b5576040517f08c379a000000000000000000000000000000000000000000000000000000000815260206004820152601460248201527f4e616d652063616e6e6f7420626520656d7074790000000000000000000000006044820152606401610b51565b815160038201906132c6908261558e565b50602082015160048201906132db908261558e565b506040808301516005830155600182015460028301548354855160208701519451939473ffffffffffffffffffffffffffffffffffffffff9093169391927fc0a9e8589e9e2e63ca19d5641ea5676d3d031b3d29667ebd42b071fb8f5c2b9692613346929190615895565b60405180910390a4505050565b61335b613a31565b600c5460405173ffffffffffffffffffffffffffffffffffffffff8084169216907fdc99a16aa686e03e551f2993b0cb279e2638cebde991551598b75177d21ef7c290600090a3600c80547fffffffffffffffffffffffff00000000000000000000000000000000000000001673ffffffffffffffffffffffffffffffffffffffff92909216919091179055565b3373ffffffffffffffffffffffffffffffffffffffff86168114801590613443575073ffffffffffffffffffffffffffffffffffffffff80871660009081526002602090815260408083209385168352929052205460ff16155b1561349a576040517fe237d92200000000000000000000000000000000000000000000000000000000815273ffffffffffffffffffffffffffffffffffffffff808316600483015287166024820152604401610b51565b61125c8686868686613f76565b6134af613a31565b73ffffffffffffffffffffffffffffffffffffffff81166134ff576040517f1e4fbdf700000000000000000000000000000000000000000000000000000000815260006004820152602401610b51565b61350881613a84565b50565b73ffffffffffffffffffffffffffffffffffffffff841661355b576040517f57f447ce00000000000000000000000000000000000000000000000000000000815260006004820152602401610b51565b6040805160018082526020820186905281830190815260608201859052608082019092529061125c600087848487614051565b6135c06040518060a0016040528060008152602001600081526020016000815260200160008152602001600081525090565b6000838152600f60209081526040808320815160e08101835281548152600182015473ffffffffffffffffffffffffffffffffffffffff16938101939093526002810180549192840191613613906154fb565b80601f016020809104026020016040519081016040528092919081815260200182805461363f906154fb565b801561368c5780601f106136615761010080835404028352916020019161368c565b820191906000526020600020905b81548152906001019060200180831161366f57829003601f168201915b505050505081526020016003820180546136a5906154fb565b80601f01602080910402602001604051908101604052809291908181526020018280546136d1906154fb565b801561371e5780601f106136f35761010080835404028352916020019161371e565b820191906000526020600020905b81548152906001019060200180831161370157829003601f168201915b5050509183525050600482015473ffffffffffffffffffffffffffffffffffffffff1660208201526005820154604082015260069091015460609091015290506000836137745761376f87876124dd565b61377e565b61377e8787612901565b90506000670de0b6b3a76400008360c001518361379b91906157b1565b6137a591906157c8565b90506000670de0b6b3a7640000600b54846137c091906157b1565b6137ca91906157c8565b90506000670de0b6b3a76400008560a00151856137e791906157b1565b6137f191906157c8565b905060008761381f5782826138068688615803565b6138109190615803565b61381a9190615803565b61383f565b828261382b868861579e565b613835919061579e565b61383f919061579e565b6040805160a08101825291825260208201969096529485019390935260608401526080830152509695505050505050565b73ffffffffffffffffffffffffffffffffffffffff84166138c0576040517f57f447ce00000000000000000000000000000000000000000000000000000000815260006004820152602401610b51565b73ffffffffffffffffffffffffffffffffffffffff8516613910576040517f01a8351400000000000000000000000000000000000000000000000000000000815260006004820152602401610b51565b61391d8585858585614051565b5050505050565b600260065403613960576040517f3ee5aeb500000000000000000000000000000000000000000000000000000000815260040160405180910390fd5b6002600655565b60008273ffffffffffffffffffffffffffffffffffffffff168260405160006040518083038185875af1925050503d80600081146139c1576040519150601f19603f3d011682016040523d82523d6000602084013e6139c6565b606091505b50509050806119d1576040517f08c379a000000000000000000000000000000000000000000000000000000000815260206004820152601360248201527f455448207472616e73666572206661696c6564000000000000000000000000006044820152606401610b51565b60005473ffffffffffffffffffffffffffffffffffffffff163314611ee6576040517f118cdaa7000000000000000000000000000000000000000000000000000000008152336004820152602401610b51565b6000805473ffffffffffffffffffffffffffffffffffffffff8381167fffffffffffffffffffffffff0000000000000000000000000000000000000000831681178455604051919092169283917f8be0079c531659141344cd1fd0a4f28419497f9722a3daafe3b4186f6b6457e09190a35050565b6000838152600460209081526040808320546010835281842082516101808101845281548152600182015494810194909452600281015473ffffffffffffffffffffffffffffffffffffffff169284019290925260038201805491938593909290916060840191613b69906154fb565b80601f0160208091040260200160405190810160405280929190818152602001828054613b95906154fb565b8015613be25780601f10613bb757610100808354040283529160200191613be2565b820191906000526020600020905b815481529060010190602001808311613bc557829003601f168201915b50505050508152602001600482018054613bfb906154fb565b80601f0160208091040260200160405190810160405280929190818152602001828054613c27906154fb565b8015613c745780601f10613c4957610100808354040283529160200191613c74565b820191906000526020600020905b815481529060010190602001808311613c5757829003601f168201915b50505091835250506005820154602080830191909152600683015460ff80821660408086019190915261010083048216151560608601526201000090920416608084015260078401805482518185028101850190935280835260a0909401939192909190830182828015613d0757602002820191906000526020600020905b815481526020019060010190808311613cf3575b50505050508152602001600882015481526020016009820154815250509050600084613d3c57613d378684615803565b613d3e565b825b61010083015160ff166000908152600d6020526040908190205461012085015191517f17c8ad7c00000000000000000000000000000000000000000000000000000000815292935073ffffffffffffffffffffffffffffffffffffffff16916317c8ad7c91613db39185918b916004016158c3565b602060405180830381865afa158015613dd0573d6000803e3d6000fd5b505050506040513d601f19601f82011682018060405250810190613df491906158e2565b979650505050505050565b73ffffffffffffffffffffffffffffffffffffffff8216613e4f576040517fced3e10000000000000000000000000000000000000000000000000000000000815260006004820152602401610b51565b73ffffffffffffffffffffffffffffffffffffffff83811660008181526002602090815260408083209487168084529482529182902080547fffffffffffffffffffffffffffffffffffffffffffffffffffffffffffffff001686151590811790915591519182527f17307eab39ab6107e8899845ad3d59bd9653f200f220920489ca2b5937696c31910160405180910390a3505050565b73ffffffffffffffffffffffffffffffffffffffff8316613f37576040517f01a8351400000000000000000000000000000000000000000000000000000000815260006004820152602401610b51565b604080516001808252602082018590528183019081526060820184905260a0820190925260006080820181815291929161391d91879185908590614051565b73ffffffffffffffffffffffffffffffffffffffff8416613fc6576040517f57f447ce00000000000000000000000000000000000000000000000000000000815260006004820152602401610b51565b73ffffffffffffffffffffffffffffffffffffffff8516614016576040517f01a8351400000000000000000000000000000000000000000000000000000000815260006004820152602401610b51565b604080516001808252602082018690528183019081526060820185905260808201909252906140488787848487614051565b50505050505050565b61405d858585856140b1565b73ffffffffffffffffffffffffffffffffffffffff84161561391d57825133906001036140a3576020848101519084015161409c8389898585896140c3565b505061125c565b61125c8187878787876142b5565b6140bd84848484614446565b50505050565b73ffffffffffffffffffffffffffffffffffffffff84163b1561125c576040517ff23a6e6100000000000000000000000000000000000000000000000000000000815273ffffffffffffffffffffffffffffffffffffffff85169063f23a6e619061413a90899089908890889088906004016158fb565b6020604051808303816000875af1925050508015614193575060408051601f3d9081017fffffffffffffffffffffffffffffffffffffffffffffffffffffffffffffffe016820190925261419091810190615940565b60015b614222573d8080156141c1576040519150601f19603f3d011682016040523d82523d6000602084013e6141c6565b606091505b50805160000361421a576040517f57f447ce00000000000000000000000000000000000000000000000000000000815273ffffffffffffffffffffffffffffffffffffffff86166004820152602401610b51565b805181602001fd5b7fffffffff0000000000000000000000000000000000000000000000000000000081167ff23a6e610000000000000000000000000000000000000000000000000000000014614048576040517f57f447ce00000000000000000000000000000000000000000000000000000000815273ffffffffffffffffffffffffffffffffffffffff86166004820152602401610b51565b73ffffffffffffffffffffffffffffffffffffffff84163b1561125c576040517fbc197c8100000000000000000000000000000000000000000000000000000000815273ffffffffffffffffffffffffffffffffffffffff85169063bc197c819061432c908990899088908890889060040161595d565b6020604051808303816000875af1925050508015614385575060408051601f3d9081017fffffffffffffffffffffffffffffffffffffffffffffffffffffffffffffffe016820190925261438291810190615940565b60015b6143b3573d8080156141c1576040519150601f19603f3d011682016040523d82523d6000602084013e6141c6565b7fffffffff0000000000000000000000000000000000000000000000000000000081167fbc197c810000000000000000000000000000000000000000000000000000000014614048576040517f57f447ce00000000000000000000000000000000000000000000000000000000815273ffffffffffffffffffffffffffffffffffffffff86166004820152602401610b51565b614452848484846145ba565b73ffffffffffffffffffffffffffffffffffffffff8416614512576000805b83518110156144f857600083828151811061448e5761448e61576f565b6020026020010151905080600460008785815181106144af576144af61576f565b6020026020010151815260200190815260200160002060008282546144d4919061579e565b909155506144e49050818461579e565b925050806144f190615737565b9050614471565b50806005600082825461450b919061579e565b9091555050505b73ffffffffffffffffffffffffffffffffffffffff83166140bd576000805b83518110156145a957600083828151811061454e5761454e61576f565b60200260200101519050806004600087858151811061456f5761456f61576f565b6020026020010151815260200190815260200160002060008282540392505081905550808301925050806145a290615737565b9050614531565b506005805491909103905550505050565b805182511461460257815181516040517f5b05999100000000000000000000000000000000000000000000000000000000815260048101929092526024820152604401610b51565b3360005b835181101561477e5760208181028581018201519085019091015173ffffffffffffffffffffffffffffffffffffffff88161561470a57600082815260016020908152604080832073ffffffffffffffffffffffffffffffffffffffff8c168452909152902054818110156146d4576040517f03dee4c500000000000000000000000000000000000000000000000000000000815273ffffffffffffffffffffffffffffffffffffffff8a166004820152602481018290526044810183905260648101849052608401610b51565b600083815260016020908152604080832073ffffffffffffffffffffffffffffffffffffffff8d16845290915290209082900390555b73ffffffffffffffffffffffffffffffffffffffff87161561476b57600082815260016020908152604080832073ffffffffffffffffffffffffffffffffffffffff8b1684529091528120805483929061476590849061579e565b90915550505b50508061477790615737565b9050614606565b50825160010361482657602083015160009060208401519091508573ffffffffffffffffffffffffffffffffffffffff168773ffffffffffffffffffffffffffffffffffffffff168473ffffffffffffffffffffffffffffffffffffffff167fc3d58168c5ae7397731d063d5bbf3d657854427343f4c083240f7aacaa2d0f628585604051614817929190918252602082015260400190565b60405180910390a4505061391d565b8373ffffffffffffffffffffffffffffffffffffffff168573ffffffffffffffffffffffffffffffffffffffff168273ffffffffffffffffffffffffffffffffffffffff167f4a39dc06d4c0dbc64b70af90fd698a233a518aa5d07e595d983b8c0526c8f7fb868660405161489c9291906159c8565b60405180910390a45050505050565b8280548282559060005260206000209081019282156148e6579160200282015b828111156148e65782518255916020019190600101906148cb565b506148f29291506148f6565b5090565b5b808211156148f257600081556001016148f7565b803573ffffffffffffffffffffffffffffffffffffffff8116811461492f57600080fd5b919050565b6000806040838503121561494757600080fd5b6149508361490b565b946020939093013593505050565b7fffffffff000000000000000000000000000000000000000000000000000000008116811461350857600080fd5b60006020828403121561499e57600080fd5b81356124eb8161495e565b7f4e487b7100000000000000000000000000000000000000000000000000000000600052604160045260246000fd5b604051610100810167ffffffffffffffff811182821017156149fc576149fc6149a9565b60405290565b604051601f82017fffffffffffffffffffffffffffffffffffffffffffffffffffffffffffffffe016810167ffffffffffffffff81118282101715614a4957614a496149a9565b604052919050565b600082601f830112614a6257600080fd5b813567ffffffffffffffff811115614a7c57614a7c6149a9565b614aad60207fffffffffffffffffffffffffffffffffffffffffffffffffffffffffffffffe0601f84011601614a02565b818152846020838601011115614ac257600080fd5b816020850160208301376000918101602001919091529392505050565b803560ff8116811461492f57600080fd5b8035801515811461492f57600080fd5b600067ffffffffffffffff821115614b1a57614b1a6149a9565b5060051b60200190565b600082601f830112614b3557600080fd5b81356020614b4a614b4583614b00565b614a02565b82815260059290921b84018101918181019086841115614b6957600080fd5b8286015b84811015614b845780358352918301918301614b6d565b509695505050505050565b600060208284031215614ba157600080fd5b813567ffffffffffffffff80821115614bb957600080fd5b908301906101008286031215614bce57600080fd5b614bd66149d8565b82358152602083013582811115614bec57600080fd5b614bf887828601614a51565b602083015250604083013582811115614c1057600080fd5b614c1c87828601614a51565b60408301525060608301356060820152614c3860808401614adf565b6080820152614c4960a08401614af0565b60a0820152614c5a60c08401614adf565b60c082015260e083013582811115614c7157600080fd5b614c7d87828601614b24565b60e08301525095945050505050565b600060208284031215614c9e57600080fd5b5035919050565b6000815180845260005b81811015614ccb57602081850181015186830182015201614caf565b5060006020828601015260207fffffffffffffffffffffffffffffffffffffffffffffffffffffffffffffffe0601f83011685010191505092915050565b6020815260006124eb6020830184614ca5565b600060208284031215614d2e57600080fd5b6124eb82614adf565b60208152815160208201526000602083015173ffffffffffffffffffffffffffffffffffffffff80821660408501526040850151915060e06060850152614d82610100850183614ca5565b915060608501517fffffffffffffffffffffffffffffffffffffffffffffffffffffffffffffffe0858403016080860152614dbd8382614ca5565b9250508060808601511660a08501525060a084015160c084015260c084015160e08401528091505092915050565b600060208284031215614dfd57600080fd5b6124eb8261490b565b600081518084526020808501945080840160005b83811015614e3657815187529582019590820190600101614e1a565b509495945050505050565b6020815260006124eb6020830184614e06565b600080600060608486031215614e6957600080fd5b505081359360208301359350604090920135919050565b600080600080600060a08688031215614e9857600080fd5b614ea18661490b565b9450614eaf6020870161490b565b9350604086013567ffffffffffffffff80821115614ecc57600080fd5b614ed889838a01614b24565b94506060880135915080821115614eee57600080fd5b614efa89838a01614b24565b93506080880135915080821115614f1057600080fd5b50614f1d88828901614a51565b9150509295509295909350565b60008060408385031215614f3d57600080fd5b823567ffffffffffffffff80821115614f5557600080fd5b818501915085601f830112614f6957600080fd5b81356020614f79614b4583614b00565b82815260059290921b84018101918181019089841115614f9857600080fd5b948201945b83861015614fbd57614fae8661490b565b82529482019490820190614f9d565b96505086013592505080821115614fd357600080fd5b50614fe085828601614b24565b9150509250929050565b600080600060608486031215614fff57600080fd5b83359250602084013591506150166040850161490b565b90509250925092565b6020815281516020820152602082015160408201526000604083015161505d606084018273ffffffffffffffffffffffffffffffffffffffff169052565b50606083015161018080608085015261507a6101a0850183614ca5565b915060808501517fffffffffffffffffffffffffffffffffffffffffffffffffffffffffffffffe0808685030160a08701526150b68483614ca5565b935060a087015160c087015260c087015191506150d860e087018360ff169052565b60e087015191506101006150ef8188018415159052565b87015191506101206151058782018460ff169052565b808801519250506101408187860301818801526151228584614e06565b908801516101608881019190915290970151929095019190915250929392505050565b878152600073ffffffffffffffffffffffffffffffffffffffff808916602084015260e0604084015261517b60e0840189614ca5565b838103606085015261518d8189614ca5565b91909616608084015260a08301949094525060c0015295945050505050565b60006101608d83528c602084015273ffffffffffffffffffffffffffffffffffffffff8c1660408401528060608401526151e88184018c614ca5565b905082810360808401526151fc818b614ca5565b60a0840199909952505060ff95861660c082015293151560e085015291909316610100830152610120820192909252610140015295945050505050565b600060a0828403121561524b57600080fd5b60405160a0810167ffffffffffffffff828210818311171561526f5761526f6149a9565b81604052829350843591508082111561528757600080fd5b61529386838701614a51565b835260208501359150808211156152a957600080fd5b506152b685828601614a51565b6020830152506152c86040840161490b565b604082015260608301356060820152608083013560808201525092915050565b6000602082840312156152fa57600080fd5b813567ffffffffffffffff81111561531157600080fd5b61119684828501615239565b6000806040838503121561533057600080fd5b50508035926020909101359150565b6000806040838503121561535257600080fd5b61535b8361490b565b915061536960208401614af0565b90509250929050565b6000806040838503121561538557600080fd5b82359150602083013567ffffffffffffffff8111156153a357600080fd5b614fe085828601615239565b600080604083850312156153c257600080fd5b82359150602083013567ffffffffffffffff808211156153e157600080fd5b90840190606082870312156153f557600080fd5b604051606081018181108382111715615410576154106149a9565b60405282358281111561542257600080fd5b61542e88828601614a51565b82525060208301358281111561544357600080fd5b61544f88828601614a51565b602083015250604083013560408201528093505050509250929050565b6000806040838503121561547f57600080fd5b6154888361490b565b91506153696020840161490b565b600080600080600060a086880312156154ae57600080fd5b6154b78661490b565b94506154c56020870161490b565b93506040860135925060608601359150608086013567ffffffffffffffff8111156154ef57600080fd5b614f1d88828901614a51565b600181811c9082168061550f57607f821691505b602082108103611d53577f4e487b7100000000000000000000000000000000000000000000000000000000600052602260045260246000fd5b601f8211156119d157600081815260208120601f850160051c8101602086101561556f5750805b601f850160051c820191505b8181101561125c5782815560010161557b565b815167ffffffffffffffff8111156155a8576155a86149a9565b6155bc816155b684546154fb565b84615548565b602080601f83116001811461560f57600084156155d95750858301515b7fffffffffffffffffffffffffffffffffffffffffffffffffffffffffffffffff600386901b1c1916600185901b17855561125c565b6000858152602081207fffffffffffffffffffffffffffffffffffffffffffffffffffffffffffffffe08616915b8281101561565c5788860151825594840194600190910190840161563d565b508582101561569857878501517fffffffffffffffffffffffffffffffffffffffffffffffffffffffffffffffff600388901b60f8161c191681555b5050505050600190811b01905550565b60c0815260006156bb60c0830189614ca5565b82810360208401526156cd8189614ca5565b905060ff87166040840152851515606084015260ff8516608084015282810360a08401526156fb8185614e06565b9998505050505050505050565b7f4e487b7100000000000000000000000000000000000000000000000000000000600052601160045260246000fd5b60007fffffffffffffffffffffffffffffffffffffffffffffffffffffffffffffffff820361576857615768615708565b5060010190565b7f4e487b7100000000000000000000000000000000000000000000000000000000600052603260045260246000fd5b808201808211156109fd576109fd615708565b80820281158282048414176109fd576109fd615708565b6000826157fe577f4e487b7100000000000000000000000000000000000000000000000000000000600052601260045260246000fd5b500490565b818103818111156109fd576109fd615708565b600060ff821660ff810361582c5761582c615708565b60010192915050565b86815260c06020820152600061584e60c0830188614ca5565b82810360408401526158608188614ca5565b73ffffffffffffffffffffffffffffffffffffffff9690961660608401525050608081019290925260a0909101529392505050565b6040815260006158a86040830185614ca5565b82810360208401526158ba8185614ca5565b95945050505050565b8381528260208201526060604082015260006158ba6060830184614e06565b6000602082840312156158f457600080fd5b5051919050565b600073ffffffffffffffffffffffffffffffffffffffff808816835280871660208401525084604083015283606083015260a06080830152613df460a0830184614ca5565b60006020828403121561595257600080fd5b81516124eb8161495e565b600073ffffffffffffffffffffffffffffffffffffffff808816835280871660208401525060a0604083015261599660a0830186614e06565b82810360608401526159a88186614e06565b905082810360808401526159bc8185614ca5565b98975050505050505050565b6040815260006159db6040830185614e06565b82810360208401526158ba8185614e0656fea26469706673582212208133be47580ae0cdadc2e344580564a0419cbd67c039719a6193e4fed97aac3664736f6c63430008140033",
  "libraries": {},
  "devdoc": {
    "errors": {
      "ERC1155InsufficientBalance(address,uint256,uint256,uint256)": [
        {
          "details": "Indicates an error related to the current `balance` of a `sender`. Used in transfers.",
          "params": {
            "balance": "Current balance for the interacting account.",
            "needed": "Minimum amount required to perform a transfer.",
            "sender": "Address whose tokens are being transferred.",
            "tokenId": "Identifier number of a token."
          }
        }
      ],
      "ERC1155InvalidApprover(address)": [
        {
          "details": "Indicates a failure with the `approver` of a token to be approved. Used in approvals.",
          "params": {
            "approver": "Address initiating an approval operation."
          }
        }
      ],
      "ERC1155InvalidArrayLength(uint256,uint256)": [
        {
          "details": "Indicates an array length mismatch between ids and values in a safeBatchTransferFrom operation. Used in batch transfers.",
          "params": {
            "idsLength": "Length of the array of token identifiers",
            "valuesLength": "Length of the array of token amounts"
          }
        }
      ],
      "ERC1155InvalidOperator(address)": [
        {
          "details": "Indicates a failure with the `operator` to be approved. Used in approvals.",
          "params": {
            "operator": "Address that may be allowed to operate on tokens without being their owner."
          }
        }
      ],
      "ERC1155InvalidReceiver(address)": [
        {
          "details": "Indicates a failure with the token `receiver`. Used in transfers.",
          "params": {
            "receiver": "Address to which tokens are being transferred."
          }
        }
      ],
      "ERC1155InvalidSender(address)": [
        {
          "details": "Indicates a failure with the token `sender`. Used in transfers.",
          "params": {
            "sender": "Address whose tokens are being transferred."
          }
        }
      ],
      "ERC1155MissingApprovalForAll(address,address)": [
        {
          "details": "Indicates a failure with the `operator`s approval. Used in transfers.",
          "params": {
            "operator": "Address that may be allowed to operate on tokens without being their owner.",
            "owner": "Address of the current owner of a token."
          }
        }
      ],
      "OwnableInvalidOwner(address)": [
        {
          "details": "The owner is not a valid owner account. (eg. `address(0)`)"
        }
      ],
      "OwnableUnauthorizedAccount(address)": [
        {
          "details": "The caller account is not authorized to perform an operation."
        }
      ],
      "ReentrancyGuardReentrantCall()": [
        {
          "details": "Unauthorized reentrant call."
        }
      ]
    },
    "events": {
      "ApprovalForAll(address,address,bool)": {
        "details": "Emitted when `account` grants or revokes permission to `operator` to transfer their tokens, according to `approved`."
      },
      "TransferBatch(address,address,address,uint256[],uint256[])": {
        "details": "Equivalent to multiple {TransferSingle} events, where `operator`, `from` and `to` are the same for all transfers."
      },
      "TransferSingle(address,address,address,uint256,uint256)": {
        "details": "Emitted when `value` amount of tokens of type `id` are transferred from `from` to `to` by `operator`."
      },
      "URI(string,uint256)": {
        "details": "Emitted when the URI for token type `id` changes to `value`, if it is a non-programmatic URI. If an {URI} event was emitted for `id`, the standard https://eips.ethereum.org/EIPS/eip-1155#metadata-extensions[guarantees] that `value` will equal the value returned by {IERC1155MetadataURI-uri}."
      }
    },
    "kind": "dev",
    "methods": {
      "balanceOf(address,uint256)": {
        "details": "See {IERC1155-balanceOf}."
      },
      "balanceOfBatch(address[],uint256[])": {
        "details": "See {IERC1155-balanceOfBatch}. Requirements: - `accounts` and `ids` must have the same length."
      },
      "exists(uint256)": {
        "details": "Indicates whether any token exist with a given id, or not."
      },
      "isApprovedForAll(address,address)": {
        "details": "See {IERC1155-isApprovedForAll}."
      },
      "owner()": {
        "details": "Returns the address of the current owner."
      },
      "renounceOwnership()": {
        "details": "Leaves the contract without owner. It will not be possible to call `onlyOwner` functions. Can only be called by the current owner. NOTE: Renouncing ownership will leave the contract without an owner, thereby disabling any functionality that is only available to the owner."
      },
      "safeBatchTransferFrom(address,address,uint256[],uint256[],bytes)": {
        "details": "See {IERC1155-safeBatchTransferFrom}."
      },
      "safeTransferFrom(address,address,uint256,uint256,bytes)": {
        "details": "See {IERC1155-safeTransferFrom}."
      },
      "setApprovalForAll(address,bool)": {
        "details": "See {IERC1155-setApprovalForAll}."
      },
      "supportsInterface(bytes4)": {
        "details": "See {IERC165-supportsInterface}."
      },
      "totalSupply()": {
        "details": "Total value of tokens."
      },
      "totalSupply(uint256)": {
        "details": "Total value of tokens in with a given id."
      },
      "transferOwnership(address)": {
        "details": "Transfers ownership of the contract to a new account (`newOwner`). Can only be called by the current owner."
      },
      "uri(uint256)": {
        "details": "See {IERC1155MetadataURI-uri}. This implementation returns the same URI for *all* token types. It relies on the token type ID substitution mechanism https://eips.ethereum.org/EIPS/eip-1155#metadata[defined in the EIP]. Clients calling this function must replace the `\\{id\\}` substring with the actual token type ID."
      }
    },
    "version": 1
  },
  "userdoc": {
    "kind": "user",
    "methods": {},
    "version": 1
  },
  "storageLayout": {
    "storage": [
      {
        "astId": 8,
        "contract": "contracts/core/IndieX.sol:IndieX",
        "label": "_owner",
        "offset": 0,
        "slot": "0",
        "type": "t_address"
      },
      {
        "astId": 326,
        "contract": "contracts/core/IndieX.sol:IndieX",
        "label": "_balances",
        "offset": 0,
        "slot": "1",
        "type": "t_mapping(t_uint256,t_mapping(t_address,t_uint256))"
      },
      {
        "astId": 332,
        "contract": "contracts/core/IndieX.sol:IndieX",
        "label": "_operatorApprovals",
        "offset": 0,
        "slot": "2",
        "type": "t_mapping(t_address,t_mapping(t_address,t_bool))"
      },
      {
        "astId": 334,
        "contract": "contracts/core/IndieX.sol:IndieX",
        "label": "_uri",
        "offset": 0,
        "slot": "3",
        "type": "t_string_storage"
      },
      {
        "astId": 1511,
        "contract": "contracts/core/IndieX.sol:IndieX",
        "label": "_totalSupply",
        "offset": 0,
        "slot": "4",
        "type": "t_mapping(t_uint256,t_uint256)"
      },
      {
        "astId": 1513,
        "contract": "contracts/core/IndieX.sol:IndieX",
        "label": "_totalSupplyAll",
        "offset": 0,
        "slot": "5",
        "type": "t_uint256"
      },
      {
        "astId": 2569,
        "contract": "contracts/core/IndieX.sol:IndieX",
        "label": "_status",
        "offset": 0,
        "slot": "6",
        "type": "t_uint256"
      },
      {
        "astId": 3939,
        "contract": "contracts/core/IndieX.sol:IndieX",
        "label": "curveIndex",
        "offset": 0,
        "slot": "7",
        "type": "t_uint8"
      },
      {
        "astId": 3942,
        "contract": "contracts/core/IndieX.sol:IndieX",
        "label": "farmerIndex",
        "offset": 1,
        "slot": "7",
        "type": "t_uint8"
      },
      {
        "astId": 3945,
        "contract": "contracts/core/IndieX.sol:IndieX",
        "label": "appIndex",
        "offset": 0,
        "slot": "8",
        "type": "t_uint256"
      },
      {
        "astId": 3948,
        "contract": "contracts/core/IndieX.sol:IndieX",
        "label": "creationIndex",
        "offset": 0,
        "slot": "9",
        "type": "t_uint256"
      },
      {
        "astId": 3951,
        "contract": "contracts/core/IndieX.sol:IndieX",
        "label": "ethAmount",
        "offset": 0,
        "slot": "10",
        "type": "t_uint256"
      },
      {
        "astId": 3957,
        "contract": "contracts/core/IndieX.sol:IndieX",
        "label": "protocolFeePercent",
        "offset": 0,
        "slot": "11",
        "type": "t_uint256"
      },
      {
        "astId": 3959,
        "contract": "contracts/core/IndieX.sol:IndieX",
        "label": "protocolFeeTo",
        "offset": 0,
        "slot": "12",
        "type": "t_address"
      },
      {
        "astId": 3963,
        "contract": "contracts/core/IndieX.sol:IndieX",
        "label": "curves",
        "offset": 0,
        "slot": "13",
        "type": "t_mapping(t_uint8,t_address)"
      },
      {
        "astId": 3967,
        "contract": "contracts/core/IndieX.sol:IndieX",
        "label": "farmers",
        "offset": 0,
        "slot": "14",
        "type": "t_mapping(t_uint8,t_address)"
      },
      {
        "astId": 3972,
        "contract": "contracts/core/IndieX.sol:IndieX",
        "label": "apps",
        "offset": 0,
        "slot": "15",
        "type": "t_mapping(t_uint256,t_struct(App)3874_storage)"
      },
      {
        "astId": 3977,
        "contract": "contracts/core/IndieX.sol:IndieX",
        "label": "creations",
        "offset": 0,
        "slot": "16",
        "type": "t_mapping(t_uint256,t_struct(Creation)3925_storage)"
      },
      {
        "astId": 3982,
        "contract": "contracts/core/IndieX.sol:IndieX",
        "label": "userCreations",
        "offset": 0,
        "slot": "17",
        "type": "t_mapping(t_address,t_array(t_uint256)dyn_storage)"
      }
    ],
    "types": {
      "t_address": {
        "encoding": "inplace",
        "label": "address",
        "numberOfBytes": "20"
      },
      "t_array(t_uint256)dyn_storage": {
        "base": "t_uint256",
        "encoding": "dynamic_array",
        "label": "uint256[]",
        "numberOfBytes": "32"
      },
      "t_bool": {
        "encoding": "inplace",
        "label": "bool",
        "numberOfBytes": "1"
      },
      "t_mapping(t_address,t_array(t_uint256)dyn_storage)": {
        "encoding": "mapping",
        "key": "t_address",
        "label": "mapping(address => uint256[])",
        "numberOfBytes": "32",
        "value": "t_array(t_uint256)dyn_storage"
      },
      "t_mapping(t_address,t_bool)": {
        "encoding": "mapping",
        "key": "t_address",
        "label": "mapping(address => bool)",
        "numberOfBytes": "32",
        "value": "t_bool"
      },
      "t_mapping(t_address,t_mapping(t_address,t_bool))": {
        "encoding": "mapping",
        "key": "t_address",
        "label": "mapping(address => mapping(address => bool))",
        "numberOfBytes": "32",
        "value": "t_mapping(t_address,t_bool)"
      },
      "t_mapping(t_address,t_uint256)": {
        "encoding": "mapping",
        "key": "t_address",
        "label": "mapping(address => uint256)",
        "numberOfBytes": "32",
        "value": "t_uint256"
      },
      "t_mapping(t_uint256,t_mapping(t_address,t_uint256))": {
        "encoding": "mapping",
        "key": "t_uint256",
        "label": "mapping(uint256 => mapping(address => uint256))",
        "numberOfBytes": "32",
        "value": "t_mapping(t_address,t_uint256)"
      },
      "t_mapping(t_uint256,t_struct(App)3874_storage)": {
        "encoding": "mapping",
        "key": "t_uint256",
        "label": "mapping(uint256 => struct IndieX.App)",
        "numberOfBytes": "32",
        "value": "t_struct(App)3874_storage"
      },
      "t_mapping(t_uint256,t_struct(Creation)3925_storage)": {
        "encoding": "mapping",
        "key": "t_uint256",
        "label": "mapping(uint256 => struct IndieX.Creation)",
        "numberOfBytes": "32",
        "value": "t_struct(Creation)3925_storage"
      },
      "t_mapping(t_uint256,t_uint256)": {
        "encoding": "mapping",
        "key": "t_uint256",
        "label": "mapping(uint256 => uint256)",
        "numberOfBytes": "32",
        "value": "t_uint256"
      },
      "t_mapping(t_uint8,t_address)": {
        "encoding": "mapping",
        "key": "t_uint8",
        "label": "mapping(uint8 => address)",
        "numberOfBytes": "32",
        "value": "t_address"
      },
      "t_string_storage": {
        "encoding": "bytes",
        "label": "string",
        "numberOfBytes": "32"
      },
      "t_struct(App)3874_storage": {
        "encoding": "inplace",
        "label": "struct IndieX.App",
        "members": [
          {
            "astId": 3861,
            "contract": "contracts/core/IndieX.sol:IndieX",
            "label": "id",
            "offset": 0,
            "slot": "0",
            "type": "t_uint256"
          },
          {
            "astId": 3863,
            "contract": "contracts/core/IndieX.sol:IndieX",
            "label": "creator",
            "offset": 0,
            "slot": "1",
            "type": "t_address"
          },
          {
            "astId": 3865,
            "contract": "contracts/core/IndieX.sol:IndieX",
            "label": "name",
            "offset": 0,
            "slot": "2",
            "type": "t_string_storage"
          },
          {
            "astId": 3867,
            "contract": "contracts/core/IndieX.sol:IndieX",
            "label": "uri",
            "offset": 0,
            "slot": "3",
            "type": "t_string_storage"
          },
          {
            "astId": 3869,
            "contract": "contracts/core/IndieX.sol:IndieX",
            "label": "feeTo",
            "offset": 0,
            "slot": "4",
            "type": "t_address"
          },
          {
            "astId": 3871,
            "contract": "contracts/core/IndieX.sol:IndieX",
            "label": "appFeePercent",
            "offset": 0,
            "slot": "5",
            "type": "t_uint256"
          },
          {
            "astId": 3873,
            "contract": "contracts/core/IndieX.sol:IndieX",
            "label": "creatorFeePercent",
            "offset": 0,
            "slot": "6",
            "type": "t_uint256"
          }
        ],
        "numberOfBytes": "224"
      },
      "t_struct(Creation)3925_storage": {
        "encoding": "inplace",
        "label": "struct IndieX.Creation",
        "members": [
          {
            "astId": 3901,
            "contract": "contracts/core/IndieX.sol:IndieX",
            "label": "id",
            "offset": 0,
            "slot": "0",
            "type": "t_uint256"
          },
          {
            "astId": 3903,
            "contract": "contracts/core/IndieX.sol:IndieX",
            "label": "appId",
            "offset": 0,
            "slot": "1",
            "type": "t_uint256"
          },
          {
            "astId": 3905,
            "contract": "contracts/core/IndieX.sol:IndieX",
            "label": "creator",
            "offset": 0,
            "slot": "2",
            "type": "t_address"
          },
          {
            "astId": 3907,
            "contract": "contracts/core/IndieX.sol:IndieX",
            "label": "name",
            "offset": 0,
            "slot": "3",
            "type": "t_string_storage"
          },
          {
            "astId": 3909,
            "contract": "contracts/core/IndieX.sol:IndieX",
            "label": "uri",
            "offset": 0,
            "slot": "4",
            "type": "t_string_storage"
          },
          {
            "astId": 3911,
            "contract": "contracts/core/IndieX.sol:IndieX",
            "label": "curatorFeePercent",
            "offset": 0,
            "slot": "5",
            "type": "t_uint256"
          },
          {
            "astId": 3913,
            "contract": "contracts/core/IndieX.sol:IndieX",
            "label": "farmer",
            "offset": 0,
            "slot": "6",
            "type": "t_uint8"
          },
          {
            "astId": 3915,
            "contract": "contracts/core/IndieX.sol:IndieX",
            "label": "isFarming",
            "offset": 1,
            "slot": "6",
            "type": "t_bool"
          },
          {
            "astId": 3917,
            "contract": "contracts/core/IndieX.sol:IndieX",
            "label": "curve",
            "offset": 2,
            "slot": "6",
            "type": "t_uint8"
          },
          {
            "astId": 3920,
            "contract": "contracts/core/IndieX.sol:IndieX",
            "label": "curveArgs",
            "offset": 0,
            "slot": "7",
            "type": "t_array(t_uint256)dyn_storage"
          },
          {
            "astId": 3922,
            "contract": "contracts/core/IndieX.sol:IndieX",
            "label": "balance",
            "offset": 0,
            "slot": "8",
            "type": "t_uint256"
          },
          {
            "astId": 3924,
            "contract": "contracts/core/IndieX.sol:IndieX",
            "label": "volume",
            "offset": 0,
            "slot": "9",
            "type": "t_uint256"
          }
        ],
        "numberOfBytes": "320"
      },
      "t_uint256": {
        "encoding": "inplace",
        "label": "uint256",
        "numberOfBytes": "32"
      },
      "t_uint8": {
        "encoding": "inplace",
        "label": "uint8",
        "numberOfBytes": "1"
      }
    }
  }
}