{
  "address": "0x623d3a78dC45bEb0C29E856ca7b2Bf53a11F9bBD",
  "abi": [
    {
      "inputs": [
        {
          "internalType": "address",
          "name": "initialOwner",
          "type": "address"
        }
      ],
      "stateMutability": "nonpayable",
      "type": "constructor"
    },
    {
      "inputs": [
        {
          "internalType": "address",
          "name": "sender",
          "type": "address"
        },
        {
          "internalType": "uint256",
          "name": "balance",
          "type": "uint256"
        },
        {
          "internalType": "uint256",
          "name": "needed",
          "type": "uint256"
        },
        {
          "internalType": "uint256",
          "name": "tokenId",
          "type": "uint256"
        }
      ],
      "name": "ERC1155InsufficientBalance",
      "type": "error"
    },
    {
      "inputs": [
        {
          "internalType": "address",
          "name": "approver",
          "type": "address"
        }
      ],
      "name": "ERC1155InvalidApprover",
      "type": "error"
    },
    {
      "inputs": [
        {
          "internalType": "uint256",
          "name": "idsLength",
          "type": "uint256"
        },
        {
          "internalType": "uint256",
          "name": "valuesLength",
          "type": "uint256"
        }
      ],
      "name": "ERC1155InvalidArrayLength",
      "type": "error"
    },
    {
      "inputs": [
        {
          "internalType": "address",
          "name": "operator",
          "type": "address"
        }
      ],
      "name": "ERC1155InvalidOperator",
      "type": "error"
    },
    {
      "inputs": [
        {
          "internalType": "address",
          "name": "receiver",
          "type": "address"
        }
      ],
      "name": "ERC1155InvalidReceiver",
      "type": "error"
    },
    {
      "inputs": [
        {
          "internalType": "address",
          "name": "sender",
          "type": "address"
        }
      ],
      "name": "ERC1155InvalidSender",
      "type": "error"
    },
    {
      "inputs": [
        {
          "internalType": "address",
          "name": "operator",
          "type": "address"
        },
        {
          "internalType": "address",
          "name": "owner",
          "type": "address"
        }
      ],
      "name": "ERC1155MissingApprovalForAll",
      "type": "error"
    },
    {
      "inputs": [
        {
          "internalType": "address",
          "name": "owner",
          "type": "address"
        }
      ],
      "name": "OwnableInvalidOwner",
      "type": "error"
    },
    {
      "inputs": [
        {
          "internalType": "address",
          "name": "account",
          "type": "address"
        }
      ],
      "name": "OwnableUnauthorizedAccount",
      "type": "error"
    },
    {
      "inputs": [],
      "name": "ReentrancyGuardReentrantCall",
      "type": "error"
    },
    {
      "anonymous": false,
      "inputs": [
        {
          "indexed": true,
          "internalType": "address",
          "name": "account",
          "type": "address"
        },
        {
          "indexed": true,
          "internalType": "address",
          "name": "operator",
          "type": "address"
        },
        {
          "indexed": false,
          "internalType": "bool",
          "name": "approved",
          "type": "bool"
        }
      ],
      "name": "ApprovalForAll",
      "type": "event"
    },
    {
      "anonymous": false,
      "inputs": [
        {
          "indexed": true,
          "internalType": "uint256",
          "name": "creationId",
          "type": "uint256"
        },
        {
          "indexed": true,
          "internalType": "address",
          "name": "buyer",
          "type": "address"
        },
        {
          "indexed": false,
          "internalType": "uint256",
          "name": "amount",
          "type": "uint256"
        },
        {
          "indexed": false,
          "internalType": "uint256",
          "name": "totalPrice",
          "type": "uint256"
        }
      ],
      "name": "Buy",
      "type": "event"
    },
    {
      "anonymous": false,
      "inputs": [
        {
          "indexed": true,
          "internalType": "uint256",
          "name": "creationId",
          "type": "uint256"
        },
        {
          "indexed": true,
          "internalType": "address",
          "name": "creator",
          "type": "address"
        },
        {
          "indexed": true,
          "internalType": "uint256",
          "name": "appId",
          "type": "uint256"
        },
        {
          "indexed": false,
          "internalType": "uint8",
          "name": "curveType",
          "type": "uint8"
        },
        {
          "indexed": false,
          "internalType": "uint8",
          "name": "farmerType",
          "type": "uint8"
        }
      ],
      "name": "Create",
      "type": "event"
    },
    {
      "anonymous": false,
      "inputs": [
        {
          "indexed": true,
          "internalType": "uint256",
          "name": "id",
          "type": "uint256"
        },
        {
          "indexed": true,
          "internalType": "address",
          "name": "creator",
          "type": "address"
        },
        {
          "indexed": false,
          "internalType": "string",
          "name": "name",
          "type": "string"
        },
        {
          "indexed": false,
          "internalType": "string",
          "name": "dataURI",
          "type": "string"
        },
        {
          "indexed": false,
          "internalType": "address",
          "name": "feeTo",
          "type": "address"
        },
        {
          "indexed": false,
          "internalType": "uint256",
          "name": "appFeePercent",
          "type": "uint256"
        },
        {
          "indexed": false,
          "internalType": "uint256",
          "name": "creatorFeePercent",
          "type": "uint256"
        }
      ],
      "name": "NewApp",
      "type": "event"
    },
    {
      "anonymous": false,
      "inputs": [
        {
          "indexed": true,
          "internalType": "address",
          "name": "previousOwner",
          "type": "address"
        },
        {
          "indexed": true,
          "internalType": "address",
          "name": "newOwner",
          "type": "address"
        }
      ],
      "name": "OwnershipTransferred",
      "type": "event"
    },
    {
      "anonymous": false,
      "inputs": [
        {
          "indexed": true,
          "internalType": "uint256",
          "name": "creationId",
          "type": "uint256"
        },
        {
          "indexed": true,
          "internalType": "address",
          "name": "seller",
          "type": "address"
        },
        {
          "indexed": false,
          "internalType": "uint256",
          "name": "amount",
          "type": "uint256"
        },
        {
          "indexed": false,
          "internalType": "uint256",
          "name": "totalPrice",
          "type": "uint256"
        }
      ],
      "name": "Sell",
      "type": "event"
    },
    {
      "anonymous": false,
      "inputs": [
        {
          "indexed": true,
          "internalType": "address",
          "name": "operator",
          "type": "address"
        },
        {
          "indexed": true,
          "internalType": "address",
          "name": "from",
          "type": "address"
        },
        {
          "indexed": true,
          "internalType": "address",
          "name": "to",
          "type": "address"
        },
        {
          "indexed": false,
          "internalType": "uint256[]",
          "name": "ids",
          "type": "uint256[]"
        },
        {
          "indexed": false,
          "internalType": "uint256[]",
          "name": "values",
          "type": "uint256[]"
        }
      ],
      "name": "TransferBatch",
      "type": "event"
    },
    {
      "anonymous": false,
      "inputs": [
        {
          "indexed": true,
          "internalType": "address",
          "name": "operator",
          "type": "address"
        },
        {
          "indexed": true,
          "internalType": "address",
          "name": "from",
          "type": "address"
        },
        {
          "indexed": true,
          "internalType": "address",
          "name": "to",
          "type": "address"
        },
        {
          "indexed": false,
          "internalType": "uint256",
          "name": "id",
          "type": "uint256"
        },
        {
          "indexed": false,
          "internalType": "uint256",
          "name": "value",
          "type": "uint256"
        }
      ],
      "name": "TransferSingle",
      "type": "event"
    },
    {
      "anonymous": false,
      "inputs": [
        {
          "indexed": false,
          "internalType": "string",
          "name": "value",
          "type": "string"
        },
        {
          "indexed": true,
          "internalType": "uint256",
          "name": "id",
          "type": "uint256"
        }
      ],
      "name": "URI",
      "type": "event"
    },
    {
      "stateMutability": "payable",
      "type": "fallback"
    },
    {
      "inputs": [],
      "name": "CREATOR_PREMINT",
      "outputs": [
        {
          "internalType": "uint256",
          "name": "",
          "type": "uint256"
        }
      ],
      "stateMutability": "view",
      "type": "function"
    },
    {
      "inputs": [
        {
          "internalType": "address",
          "name": "curve",
          "type": "address"
        }
      ],
      "name": "addCurve",
      "outputs": [],
      "stateMutability": "nonpayable",
      "type": "function"
    },
    {
      "inputs": [
        {
          "internalType": "address",
          "name": "farmer",
          "type": "address"
        }
      ],
      "name": "addFarmer",
      "outputs": [],
      "stateMutability": "nonpayable",
      "type": "function"
    },
    {
      "inputs": [],
      "name": "appIndex",
      "outputs": [
        {
          "internalType": "uint256",
          "name": "",
          "type": "uint256"
        }
      ],
      "stateMutability": "view",
      "type": "function"
    },
    {
      "inputs": [
        {
          "internalType": "uint256",
          "name": "appId",
          "type": "uint256"
        }
      ],
      "name": "apps",
      "outputs": [
        {
          "internalType": "uint256",
          "name": "id",
          "type": "uint256"
        },
        {
          "internalType": "address",
          "name": "creator",
          "type": "address"
        },
        {
          "internalType": "string",
          "name": "name",
          "type": "string"
        },
        {
          "internalType": "string",
          "name": "dataURI",
          "type": "string"
        },
        {
          "internalType": "address",
          "name": "feeTo",
          "type": "address"
        },
        {
          "internalType": "uint256",
          "name": "appFeePercent",
          "type": "uint256"
        },
        {
          "internalType": "uint256",
          "name": "creatorFeePercent",
          "type": "uint256"
        }
      ],
      "stateMutability": "view",
      "type": "function"
    },
    {
      "inputs": [
        {
          "internalType": "address",
          "name": "account",
          "type": "address"
        },
        {
          "internalType": "uint256",
          "name": "id",
          "type": "uint256"
        }
      ],
      "name": "balanceOf",
      "outputs": [
        {
          "internalType": "uint256",
          "name": "",
          "type": "uint256"
        }
      ],
      "stateMutability": "view",
      "type": "function"
    },
    {
      "inputs": [
        {
          "internalType": "address[]",
          "name": "accounts",
          "type": "address[]"
        },
        {
          "internalType": "uint256[]",
          "name": "ids",
          "type": "uint256[]"
        }
      ],
      "name": "balanceOfBatch",
      "outputs": [
        {
          "internalType": "uint256[]",
          "name": "",
          "type": "uint256[]"
        }
      ],
      "stateMutability": "view",
      "type": "function"
    },
    {
      "inputs": [
        {
          "internalType": "uint256",
          "name": "creationId",
          "type": "uint256"
        },
        {
          "internalType": "uint256",
          "name": "amount",
          "type": "uint256"
        }
      ],
      "name": "buy",
      "outputs": [],
      "stateMutability": "payable",
      "type": "function"
    },
    {
      "inputs": [
        {
          "components": [
            {
              "internalType": "string",
              "name": "name",
              "type": "string"
            },
            {
              "internalType": "uint256",
              "name": "appId",
              "type": "uint256"
            },
            {
              "internalType": "uint8",
              "name": "curve",
              "type": "uint8"
            },
            {
              "internalType": "uint8",
              "name": "farmer",
              "type": "uint8"
            }
          ],
          "internalType": "struct IndieX.NewCreationInput",
          "name": "input",
          "type": "tuple"
        }
      ],
      "name": "create",
      "outputs": [],
      "stateMutability": "nonpayable",
      "type": "function"
    },
    {
      "inputs": [],
      "name": "creationIndex",
      "outputs": [
        {
          "internalType": "uint256",
          "name": "",
          "type": "uint256"
        }
      ],
      "stateMutability": "view",
      "type": "function"
    },
    {
      "inputs": [
        {
          "internalType": "uint256",
          "name": "creationId",
          "type": "uint256"
        }
      ],
      "name": "creations",
      "outputs": [
        {
          "internalType": "uint256",
          "name": "id",
          "type": "uint256"
        },
        {
          "internalType": "string",
          "name": "name",
          "type": "string"
        },
        {
          "internalType": "address",
          "name": "creator",
          "type": "address"
        },
        {
          "internalType": "uint256",
          "name": "appId",
          "type": "uint256"
        },
        {
          "internalType": "uint8",
          "name": "curve",
          "type": "uint8"
        },
        {
          "internalType": "uint8",
          "name": "farmer",
          "type": "uint8"
        }
      ],
      "stateMutability": "view",
      "type": "function"
    },
    {
      "inputs": [],
      "name": "curveIndex",
      "outputs": [
        {
          "internalType": "uint8",
          "name": "",
          "type": "uint8"
        }
      ],
      "stateMutability": "view",
      "type": "function"
    },
    {
      "inputs": [
        {
          "internalType": "uint8",
          "name": "curveType",
          "type": "uint8"
        }
      ],
      "name": "curves",
      "outputs": [
        {
          "internalType": "address",
          "name": "curve",
          "type": "address"
        }
      ],
      "stateMutability": "view",
      "type": "function"
    },
    {
      "inputs": [
        {
          "internalType": "uint256",
          "name": "id",
          "type": "uint256"
        }
      ],
      "name": "exists",
      "outputs": [
        {
          "internalType": "bool",
          "name": "",
          "type": "bool"
        }
      ],
      "stateMutability": "view",
      "type": "function"
    },
    {
      "inputs": [],
      "name": "farmerIndex",
      "outputs": [
        {
          "internalType": "uint8",
          "name": "",
          "type": "uint8"
        }
      ],
      "stateMutability": "view",
      "type": "function"
    },
    {
      "inputs": [
        {
          "internalType": "uint8",
          "name": "farmerType",
          "type": "uint8"
        }
      ],
      "name": "farmers",
      "outputs": [
        {
          "internalType": "address",
          "name": "farmer",
          "type": "address"
        }
      ],
      "stateMutability": "view",
      "type": "function"
    },
    {
      "inputs": [
        {
          "internalType": "uint256",
          "name": "creationId",
          "type": "uint256"
        },
        {
          "internalType": "uint256",
          "name": "amount",
          "type": "uint256"
        }
      ],
      "name": "getBuyPrice",
      "outputs": [
        {
          "internalType": "uint256",
          "name": "",
          "type": "uint256"
        }
      ],
      "stateMutability": "view",
      "type": "function"
    },
    {
      "inputs": [
        {
          "internalType": "uint256",
          "name": "creationId",
          "type": "uint256"
        },
        {
          "internalType": "uint256",
          "name": "amount",
          "type": "uint256"
        },
        {
          "internalType": "uint256",
          "name": "appId",
          "type": "uint256"
        }
      ],
      "name": "getBuyPriceAfterFee",
      "outputs": [
        {
          "internalType": "uint256",
          "name": "buyPriceAfterFee",
          "type": "uint256"
        },
        {
          "internalType": "uint256",
          "name": "buyPrice",
          "type": "uint256"
        },
        {
          "internalType": "uint256",
          "name": "creatorFee",
          "type": "uint256"
        },
        {
          "internalType": "uint256",
          "name": "appFee",
          "type": "uint256"
        }
      ],
      "stateMutability": "view",
      "type": "function"
    },
    {
      "inputs": [
        {
          "internalType": "uint256",
          "name": "creationId",
          "type": "uint256"
        },
        {
          "internalType": "uint256",
          "name": "amount",
          "type": "uint256"
        }
      ],
      "name": "getSellPrice",
      "outputs": [
        {
          "internalType": "uint256",
          "name": "",
          "type": "uint256"
        }
      ],
      "stateMutability": "view",
      "type": "function"
    },
    {
      "inputs": [
        {
          "internalType": "uint256",
          "name": "creationId",
          "type": "uint256"
        },
        {
          "internalType": "uint256",
          "name": "amount",
          "type": "uint256"
        },
        {
          "internalType": "uint256",
          "name": "appId",
          "type": "uint256"
        }
      ],
      "name": "getSellPriceAfterFee",
      "outputs": [
        {
          "internalType": "uint256",
          "name": "sellPriceAfterFee",
          "type": "uint256"
        },
        {
          "internalType": "uint256",
          "name": "sellPrice",
          "type": "uint256"
        },
        {
          "internalType": "uint256",
          "name": "creatorFee",
          "type": "uint256"
        },
        {
          "internalType": "uint256",
          "name": "appFee",
          "type": "uint256"
        }
      ],
      "stateMutability": "view",
      "type": "function"
    },
    {
      "inputs": [
        {
          "internalType": "address",
          "name": "creator",
          "type": "address"
        }
      ],
      "name": "getUserCreations",
      "outputs": [
        {
          "internalType": "uint256[]",
          "name": "",
          "type": "uint256[]"
        }
      ],
      "stateMutability": "view",
      "type": "function"
    },
    {
      "inputs": [
        {
          "internalType": "address",
          "name": "creator",
          "type": "address"
        }
      ],
      "name": "getUserLatestCreation",
      "outputs": [
        {
          "components": [
            {
              "internalType": "uint256",
              "name": "id",
              "type": "uint256"
            },
            {
              "internalType": "string",
              "name": "name",
              "type": "string"
            },
            {
              "internalType": "address",
              "name": "creator",
              "type": "address"
            },
            {
              "internalType": "uint256",
              "name": "appId",
              "type": "uint256"
            },
            {
              "internalType": "uint8",
              "name": "curve",
              "type": "uint8"
            },
            {
              "internalType": "uint8",
              "name": "farmer",
              "type": "uint8"
            }
          ],
          "internalType": "struct IndieX.Creation",
          "name": "creation",
          "type": "tuple"
        }
      ],
      "stateMutability": "view",
      "type": "function"
    },
    {
      "inputs": [
        {
          "internalType": "address",
          "name": "account",
          "type": "address"
        },
        {
          "internalType": "address",
          "name": "operator",
          "type": "address"
        }
      ],
      "name": "isApprovedForAll",
      "outputs": [
        {
          "internalType": "bool",
          "name": "",
          "type": "bool"
        }
      ],
      "stateMutability": "view",
      "type": "function"
    },
    {
      "inputs": [
        {
          "components": [
            {
              "internalType": "string",
              "name": "name",
              "type": "string"
            },
            {
              "internalType": "string",
              "name": "dataURI",
              "type": "string"
            },
            {
              "internalType": "address",
              "name": "feeTo",
              "type": "address"
            },
            {
              "internalType": "uint256",
              "name": "appFeePercent",
              "type": "uint256"
            },
            {
              "internalType": "uint256",
              "name": "creatorFeePercent",
              "type": "uint256"
            }
          ],
          "internalType": "struct IndieX.UpsertAppInput",
          "name": "input",
          "type": "tuple"
        }
      ],
      "name": "newApp",
      "outputs": [],
      "stateMutability": "nonpayable",
      "type": "function"
    },
    {
      "inputs": [],
      "name": "owner",
      "outputs": [
        {
          "internalType": "address",
          "name": "",
          "type": "address"
        }
      ],
      "stateMutability": "view",
      "type": "function"
    },
    {
      "inputs": [],
      "name": "protocolFeePercent",
      "outputs": [
        {
          "internalType": "uint256",
          "name": "",
          "type": "uint256"
        }
      ],
      "stateMutability": "view",
      "type": "function"
    },
    {
      "inputs": [],
      "name": "renounceOwnership",
      "outputs": [],
      "stateMutability": "nonpayable",
      "type": "function"
    },
    {
      "inputs": [
        {
          "internalType": "address",
          "name": "from",
          "type": "address"
        },
        {
          "internalType": "address",
          "name": "to",
          "type": "address"
        },
        {
          "internalType": "uint256[]",
          "name": "ids",
          "type": "uint256[]"
        },
        {
          "internalType": "uint256[]",
          "name": "values",
          "type": "uint256[]"
        },
        {
          "internalType": "bytes",
          "name": "data",
          "type": "bytes"
        }
      ],
      "name": "safeBatchTransferFrom",
      "outputs": [],
      "stateMutability": "nonpayable",
      "type": "function"
    },
    {
      "inputs": [
        {
          "internalType": "address",
          "name": "from",
          "type": "address"
        },
        {
          "internalType": "address",
          "name": "to",
          "type": "address"
        },
        {
          "internalType": "uint256",
          "name": "id",
          "type": "uint256"
        },
        {
          "internalType": "uint256",
          "name": "value",
          "type": "uint256"
        },
        {
          "internalType": "bytes",
          "name": "data",
          "type": "bytes"
        }
      ],
      "name": "safeTransferFrom",
      "outputs": [],
      "stateMutability": "nonpayable",
      "type": "function"
    },
    {
      "inputs": [
        {
          "internalType": "uint256",
          "name": "creationId",
          "type": "uint256"
        },
        {
          "internalType": "uint256",
          "name": "amount",
          "type": "uint256"
        }
      ],
      "name": "sell",
      "outputs": [],
      "stateMutability": "nonpayable",
      "type": "function"
    },
    {
      "inputs": [
        {
          "internalType": "address",
          "name": "operator",
          "type": "address"
        },
        {
          "internalType": "bool",
          "name": "approved",
          "type": "bool"
        }
      ],
      "name": "setApprovalForAll",
      "outputs": [],
      "stateMutability": "nonpayable",
      "type": "function"
    },
    {
      "inputs": [
        {
          "internalType": "string",
          "name": "newuri",
          "type": "string"
        }
      ],
      "name": "setURI",
      "outputs": [],
      "stateMutability": "nonpayable",
      "type": "function"
    },
    {
      "inputs": [
        {
          "internalType": "bytes4",
          "name": "interfaceId",
          "type": "bytes4"
        }
      ],
      "name": "supportsInterface",
      "outputs": [
        {
          "internalType": "bool",
          "name": "",
          "type": "bool"
        }
      ],
      "stateMutability": "view",
      "type": "function"
    },
    {
      "inputs": [],
      "name": "totalSupply",
      "outputs": [
        {
          "internalType": "uint256",
          "name": "",
          "type": "uint256"
        }
      ],
      "stateMutability": "view",
      "type": "function"
    },
    {
      "inputs": [
        {
          "internalType": "uint256",
          "name": "id",
          "type": "uint256"
        }
      ],
      "name": "totalSupply",
      "outputs": [
        {
          "internalType": "uint256",
          "name": "",
          "type": "uint256"
        }
      ],
      "stateMutability": "view",
      "type": "function"
    },
    {
      "inputs": [
        {
          "internalType": "address",
          "name": "newOwner",
          "type": "address"
        }
      ],
      "name": "transferOwnership",
      "outputs": [],
      "stateMutability": "nonpayable",
      "type": "function"
    },
    {
      "inputs": [
        {
          "internalType": "uint256",
          "name": "id",
          "type": "uint256"
        },
        {
          "components": [
            {
              "internalType": "string",
              "name": "name",
              "type": "string"
            },
            {
              "internalType": "string",
              "name": "dataURI",
              "type": "string"
            },
            {
              "internalType": "address",
              "name": "feeTo",
              "type": "address"
            },
            {
              "internalType": "uint256",
              "name": "appFeePercent",
              "type": "uint256"
            },
            {
              "internalType": "uint256",
              "name": "creatorFeePercent",
              "type": "uint256"
            }
          ],
          "internalType": "struct IndieX.UpsertAppInput",
          "name": "input",
          "type": "tuple"
        }
      ],
      "name": "updateApp",
      "outputs": [],
      "stateMutability": "nonpayable",
      "type": "function"
    },
    {
      "inputs": [
        {
          "internalType": "uint256",
          "name": "",
          "type": "uint256"
        }
      ],
      "name": "uri",
      "outputs": [
        {
          "internalType": "string",
          "name": "",
          "type": "string"
        }
      ],
      "stateMutability": "view",
      "type": "function"
    },
    {
      "inputs": [
        {
          "internalType": "address",
          "name": "account",
          "type": "address"
        },
        {
          "internalType": "uint256",
          "name": "",
          "type": "uint256"
        }
      ],
      "name": "userCreations",
      "outputs": [
        {
          "internalType": "uint256",
          "name": "creationId",
          "type": "uint256"
        }
      ],
      "stateMutability": "view",
      "type": "function"
    },
    {
      "stateMutability": "payable",
      "type": "receive"
    }
  ],
  "transactionHash": "0x19212c1982a3e344ba8237e7910e4ba5eb65c0bb3032e4d2a4ea0b66cf953224",
  "args": [
    "0x7FEA6971Eb1663623690Edbb779a05DD9440d824"
  ],
  "numDeployments": 2,
  "solcInputHash": "1722709b1da548750f2f66cd3067eadc",
  "bytecode": "0x60806040526007805460ff199081169091556009805490911690556611c37937e080006010553480156200003257600080fd5b506040516200499a3803806200499a83398101604081905262000055916200011a565b604080516020810190915260008152816001600160a01b0381166200009457604051631e4fbdf760e01b81526000600482015260240160405180910390fd5b6200009f81620000b8565b50620000ab8162000108565b50506001600655620002bd565b600080546001600160a01b038381166001600160a01b0319831681178455604051919092169283917f8be0079c531659141344cd1fd0a4f28419497f9722a3daafe3b4186f6b6457e09190a35050565b6003620001168282620001f1565b5050565b6000602082840312156200012d57600080fd5b81516001600160a01b03811681146200014557600080fd5b9392505050565b634e487b7160e01b600052604160045260246000fd5b600181811c908216806200017757607f821691505b6020821081036200019857634e487b7160e01b600052602260045260246000fd5b50919050565b601f821115620001ec57600081815260208120601f850160051c81016020861015620001c75750805b601f850160051c820191505b81811015620001e857828155600101620001d3565b5050505b505050565b81516001600160401b038111156200020d576200020d6200014c565b62000225816200021e845462000162565b846200019e565b602080601f8311600181146200025d5760008415620002445750858301515b600019600386901b1c1916600185901b178555620001e8565b600085815260208120601f198616915b828110156200028e578886015182559484019460019091019084016200026d565b5085821015620002ad5787850151600019600388901b60f8161c191681555b5050505050600190811b01905550565b6146cd80620002cd6000396000f3fe6080604052600436106102765760003560e01c806379d3663811610156578063bd85b039116100bf578063d79875eb11610079578063f242432a11610061578063f242432a1461081d578063f2fde38b1461083d578063fba41ebe1461085d57005b8063d79875eb146107a7578063e985e9c5146107c757005b8063c8d8cf88116100a7578063c8d8cf8814610768578063d6e6eb9f1461077e578063d6febde81461079457005b8063bd85b0391461071b578063c157253d1461074857005b80638d5fbf14116101105780639477d85d116100f85780639477d85d146106bb578063a22cb465146106db578063baef60d0146106fb57005b80638d5fbf14146106705780638da5cb5b1461069057005b80637ffb25ac1161013e5780637ffb25ac1461060257806380c3f96d1461061e5780638557a5311461063e57005b806379d36638146105935780637bdcdaff146105d657005b80632eb2c2d6116101f85780635926dd94116101b257806361acc37e1161019a57806361acc37e1461052b578063715018a61461055e57806374ec47af1461057357005b80635926dd94146104de5780635efdf628146104fe57005b80634d121ec1116101e05780634d121ec1146104795780634e1273f41461048f5780634f558e79146104af57005b80632eb2c2d61461043957806343e235ff1461045957005b80631721724c1161024957806320e1fc8c1161023157806320e1fc8c14610364578063269ba52c146103cc57806327fef863146103f957005b80631721724c1461032f57806318160ddd1461034f57005b8062fdd58e1461027f57806301ffc9a7146102b257806302fe5305146102e25780630e89341c1461030257005b3661027d57005b005b34801561028b57600080fd5b5061029f61029a36600461391f565b610877565b6040519081526020015b60405180910390f35b3480156102be57600080fd5b506102d26102cd366004613977565b6108ae565b60405190151581526020016102a9565b3480156102ee57600080fd5b5061027d6102fd366004613aa7565b610991565b34801561030e57600080fd5b5061032261031d366004613ae4565b6109a5565b6040516102a99190613b6b565b34801561033b57600080fd5b5061027d61034a366004613b8f565b610a39565b34801561035b57600080fd5b5060055461029f565b34801561037057600080fd5b506103a761037f366004613c3e565b60086020526000908152604090205473ffffffffffffffffffffffffffffffffffffffff1681565b60405173ffffffffffffffffffffffffffffffffffffffff90911681526020016102a9565b3480156103d857600080fd5b506103ec6103e7366004613c59565b610c18565b6040516102a99190613caf565b34801561040557600080fd5b50610419610414366004613cc2565b610c90565b6040805194855260208501939093529183015260608201526080016102a9565b34801561044557600080fd5b5061027d610454366004613d7d565b610eb1565b34801561046557600080fd5b5061029f61047436600461391f565b610f7c565b34801561048557600080fd5b5061029f600d5481565b34801561049b57600080fd5b506103ec6104aa366004613e27565b610fad565b3480156104bb57600080fd5b506102d26104ca366004613ae4565b600090815260046020526040902054151590565b3480156104ea57600080fd5b506104196104f9366004613cc2565b61109b565b34801561050a57600080fd5b5061051e610519366004613c59565b6112b0565b6040516102a99190613ee7565b34801561053757600080fd5b5061054b610546366004613ae4565b6114b8565b6040516102a99796959493929190613f5d565b34801561056a57600080fd5b5061027d611633565b34801561057f57600080fd5b5061027d61058e366004613c59565b611647565b34801561059f57600080fd5b506103a76105ae366004613c3e565b600a6020526000908152604090205473ffffffffffffffffffffffffffffffffffffffff1681565b3480156105e257600080fd5b506007546105f09060ff1681565b60405160ff90911681526020016102a9565b34801561060e57600080fd5b5061029f670de0b6b3a764000081565b34801561062a57600080fd5b5061027d610639366004613c59565b6116c8565b34801561064a57600080fd5b5061065e610659366004613ae4565b61172d565b6040516102a996959493929190613fc4565b34801561067c57600080fd5b5061027d61068b3660046140ca565b611809565b34801561069c57600080fd5b5060005473ffffffffffffffffffffffffffffffffffffffff166103a7565b3480156106c757600080fd5b5061029f6106d63660046140ff565b6119ab565b3480156106e757600080fd5b5061027d6106f6366004614121565b611b56565b34801561070757600080fd5b5061027d61071636600461415d565b611b65565b34801561072757600080fd5b5061029f610736366004613ae4565b60009081526004602052604090205490565b34801561075457600080fd5b5061029f6107633660046140ff565b611f35565b34801561077457600080fd5b5061029f600b5481565b34801561078a57600080fd5b5061029f60105481565b61027d6107a23660046140ff565b6120a3565b3480156107b357600080fd5b5061027d6107c23660046140ff565b612594565b3480156107d357600080fd5b506102d26107e236600461419a565b73ffffffffffffffffffffffffffffffffffffffff918216600090815260026020908152604080832093909416825291909152205460ff1690565b34801561082957600080fd5b5061027d6108383660046141cd565b6129f4565b34801561084957600080fd5b5061027d610858366004613c59565b612ab2565b34801561086957600080fd5b506009546105f09060ff1681565b600081815260016020908152604080832073ffffffffffffffffffffffffffffffffffffffff861684529091529020545b92915050565b60007fffffffff0000000000000000000000000000000000000000000000000000000082167fd9b67a2600000000000000000000000000000000000000000000000000000000148061094157507fffffffff0000000000000000000000000000000000000000000000000000000082167f0e89341c00000000000000000000000000000000000000000000000000000000145b806108a857507f01ffc9a7000000000000000000000000000000000000000000000000000000007fffffffff000000000000000000000000000000000000000000000000000000008316146108a8565b610999612b13565b6109a281612b66565b50565b6060600380546109b490614232565b80601f01602080910402602001604051908101604052809291908181526020018280546109e090614232565b8015610a2d5780601f10610a0257610100808354040283529160200191610a2d565b820191906000526020600020905b815481529060010190602001808311610a1057829003601f168201915b50505050509050919050565b6040805160c081018252600d548082528351602080840191825233848601819052868201516060808701919091528787015160ff9081166080880152908801511660a08601526000938452600e909152939091208251815590516001820190610aa290826142c5565b5060408281015160028301805473ffffffffffffffffffffffffffffffffffffffff9283167fffffffffffffffffffffffff00000000000000000000000000000000000000009091161790556060840151600384015560808401516004909301805460a09095015160ff908116610100027fffffffffffffffffffffffffffffffffffffffffffffffffffffffffffff0000909616941693909317939093179091559082166000908152600f6020908152828220600d8054825460018101845592855283852090920191909155548351918201909352908152610b90913391670de0b6b3a764000090612b72565b600d8054906000610ba08361440e565b919050555081602001518173ffffffffffffffffffffffffffffffffffffffff16600d547fc682062ae5e71d0bbb0cd25f95e75291b7df64bdc9f617823678cd8f69c5ad0f85604001518660600151604051610c0c92919060ff92831681529116602082015260400190565b60405180910390a45050565b73ffffffffffffffffffffffffffffffffffffffff81166000908152600f6020908152604091829020805483518184028101840190945280845260609392830182828015610a2d57602002820191906000526020600020905b815481526020019060010190808311610c715750505050509050919050565b6000818152600c60209081526040808320815160e08101835281548152600182015473ffffffffffffffffffffffffffffffffffffffff16938101939093526002810180548594859485948594929390929184019190610cef90614232565b80601f0160208091040260200160405190810160405280929190818152602001828054610d1b90614232565b8015610d685780601f10610d3d57610100808354040283529160200191610d68565b820191906000526020600020905b815481529060010190602001808311610d4b57829003601f168201915b50505050508152602001600382018054610d8190614232565b80601f0160208091040260200160405190810160405280929190818152602001828054610dad90614232565b8015610dfa5780601f10610dcf57610100808354040283529160200191610dfa565b820191906000526020600020905b815481529060010190602001808311610ddd57829003601f168201915b5050509183525050600482015473ffffffffffffffffffffffffffffffffffffffff166020820152600582015460408201526006909101546060909101529050610e4488886119ab565b9350670de0b6b3a76400008160c0015185610e5f9190614446565b610e69919061445d565b9250670de0b6b3a76400008160a0015185610e849190614446565b610e8e919061445d565b915082610e9b8386614498565b610ea59190614498565b94505093509350935093565b3373ffffffffffffffffffffffffffffffffffffffff86168114801590610f0b575073ffffffffffffffffffffffffffffffffffffffff80871660009081526002602090815260408083209385168352929052205460ff16155b15610f67576040517fe237d92200000000000000000000000000000000000000000000000000000000815273ffffffffffffffffffffffffffffffffffffffff8083166004830152871660248201526044015b60405180910390fd5b610f748686868686612bf5565b505050505050565b600f6020528160005260406000208181548110610f9857600080fd5b90600052602060002001600091509150505481565b60608151835114610ff757815183516040517f5b05999100000000000000000000000000000000000000000000000000000000815260048101929092526024820152604401610f5e565b6000835167ffffffffffffffff8111156110135761101361399b565b60405190808252806020026020018201604052801561103c578160200160208202803683370190505b50905060005b84518110156110935760208082028601015161106690602080840287010151610877565b828281518110611078576110786144ab565b602090810291909101015261108c8161440e565b9050611042565b509392505050565b6000818152600c60209081526040808320815160e08101835281548152600182015473ffffffffffffffffffffffffffffffffffffffff169381019390935260028101805485948594859485949293909291840191906110fa90614232565b80601f016020809104026020016040519081016040528092919081815260200182805461112690614232565b80156111735780601f1061114857610100808354040283529160200191611173565b820191906000526020600020905b81548152906001019060200180831161115657829003601f168201915b5050505050815260200160038201805461118c90614232565b80601f01602080910402602001604051908101604052809291908181526020018280546111b890614232565b80156112055780601f106111da57610100808354040283529160200191611205565b820191906000526020600020905b8154815290600101906020018083116111e857829003601f168201915b5050509183525050600482015473ffffffffffffffffffffffffffffffffffffffff16602082015260058201546040820152600690910154606090910152905061124f8888611f35565b9350670de0b6b3a76400008160c001518561126a9190614446565b611274919061445d565b9250670de0b6b3a76400008160a001518561128f9190614446565b611299919061445d565b9150826112a683866144da565b610ea591906144da565b6113056040518060c001604052806000815260200160608152602001600073ffffffffffffffffffffffffffffffffffffffff16815260200160008152602001600060ff168152602001600060ff1681525090565b73ffffffffffffffffffffffffffffffffffffffff82166000908152600f602090815260408083208054825181850281018501909352808352919290919083018282801561137257602002820191906000526020600020905b81548152602001906001019080831161135e575b505050505090506000815111156114b257600081600183516113949190614498565b815181106113a4576113a46144ab565b60200260200101519050600e60008281526020019081526020016000206040518060c0016040529081600082015481526020016001820180546113e690614232565b80601f016020809104026020016040519081016040528092919081815260200182805461141290614232565b801561145f5780601f106114345761010080835404028352916020019161145f565b820191906000526020600020905b81548152906001019060200180831161144257829003601f168201915b5050509183525050600282015473ffffffffffffffffffffffffffffffffffffffff1660208201526003820154604082015260049091015460ff8082166060840152610100909104166080909101529250505b50919050565b600c60205260009081526040902080546001820154600283018054929373ffffffffffffffffffffffffffffffffffffffff909216926114f790614232565b80601f016020809104026020016040519081016040528092919081815260200182805461152390614232565b80156115705780601f1061154557610100808354040283529160200191611570565b820191906000526020600020905b81548152906001019060200180831161155357829003601f168201915b50505050509080600301805461158590614232565b80601f01602080910402602001604051908101604052809291908181526020018280546115b190614232565b80156115fe5780601f106115d3576101008083540402835291602001916115fe565b820191906000526020600020905b8154815290600101906020018083116115e157829003601f168201915b5050505060048301546005840154600690940154929373ffffffffffffffffffffffffffffffffffffffff9091169290915087565b61163b612b13565b6116456000612ca9565b565b6007805460ff908116600090815260086020526040812080547fffffffffffffffffffffffff00000000000000000000000000000000000000001673ffffffffffffffffffffffffffffffffffffffff8616179055825490911691906116ac836144ed565b91906101000a81548160ff021916908360ff1602179055505050565b6009805460ff9081166000908152600a6020526040812080547fffffffffffffffffffffffff00000000000000000000000000000000000000001673ffffffffffffffffffffffffffffffffffffffff8616179055825490911691906116ac836144ed565b600e602052600090815260409020805460018201805491929161174f90614232565b80601f016020809104026020016040519081016040528092919081815260200182805461177b90614232565b80156117c85780601f1061179d576101008083540402835291602001916117c8565b820191906000526020600020905b8154815290600101906020018083116117ab57829003601f168201915b5050505060028301546003840154600490940154929373ffffffffffffffffffffffffffffffffffffffff9091169290915060ff8082169161010090041686565b6040805160e081018252600b548082523360208084019182528551848601908152868201516060808701919091528787015173ffffffffffffffffffffffffffffffffffffffff9081166080808901919091529189015160a08801529088015160c08701526000948552600c909252949092208351815590516001820180547fffffffffffffffffffffffff0000000000000000000000000000000000000000169190931617909155915190919060028201906118c690826142c5565b50606082015160038201906118db90826142c5565b506080828101516004830180547fffffffffffffffffffffffff00000000000000000000000000000000000000001673ffffffffffffffffffffffffffffffffffffffff90921691909117905560a0830151600583015560c090920151600690910155600b5482516020840151604080860151606087015195870151915133967f95860c408b95c37c8a315717a02901b7a1c080fac2b72783fcc47c0a875ab5cb9561198b95909490939261450c565b60405180910390a3600b80549060006119a38361440e565b919050555050565b600082815260046020908152604080832054600e8352818420825160c0810190935280548352600181018054929486949390840191906119ea90614232565b80601f0160208091040260200160405190810160405280929190818152602001828054611a1690614232565b8015611a635780601f10611a3857610100808354040283529160200191611a63565b820191906000526020600020905b815481529060010190602001808311611a4657829003601f168201915b5050509183525050600282015473ffffffffffffffffffffffffffffffffffffffff908116602080840191909152600384015460408085019190915260049094015460ff8082166060860152610100909104811660809485015292850151909216600090815260089092529190205491925016635cf4ee91611ae58685614498565b866040518363ffffffff1660e01b8152600401611b0c929190918252602082015260400190565b602060405180830381865afa158015611b29573d6000803e3d6000fd5b505050506040513d601f19601f82011682018060405250810190611b4d9190614565565b95945050505050565b611b61338383612d1e565b5050565b6000828152600c60209081526040808320815160e08101835281548152600182015473ffffffffffffffffffffffffffffffffffffffff16938101939093526002810180549192840191611bb890614232565b80601f0160208091040260200160405190810160405280929190818152602001828054611be490614232565b8015611c315780601f10611c0657610100808354040283529160200191611c31565b820191906000526020600020905b815481529060010190602001808311611c1457829003601f168201915b50505050508152602001600382018054611c4a90614232565b80601f0160208091040260200160405190810160405280929190818152602001828054611c7690614232565b8015611cc35780601f10611c9857610100808354040283529160200191611cc3565b820191906000526020600020905b815481529060010190602001808311611ca657829003601f168201915b5050509183525050600482015473ffffffffffffffffffffffffffffffffffffffff908116602080840191909152600584015460408401526006909301546060909201919091529082015191925016611d78576040517f08c379a000000000000000000000000000000000000000000000000000000000815260206004820152600f60248201527f417070206e6f74206578697374656400000000000000000000000000000000006044820152606401610f5e565b602081015173ffffffffffffffffffffffffffffffffffffffff163314611dfb576040517f08c379a000000000000000000000000000000000000000000000000000000000815260206004820152601b60248201527f4f6e6c792063726561746f722063616e207570646174652041707000000000006044820152606401610f5e565b6040805160e081018252825181523360208083019182528551838501908152868201516060808601919091528786015173ffffffffffffffffffffffffffffffffffffffff9081166080808801919091529189015160a08701529088015160c0860152600b546000908152600c909352949091208351815591516001830180547fffffffffffffffffffffffff000000000000000000000000000000000000000016919095161790935591519091906002820190611eb990826142c5565b5060608201516003820190611ece90826142c5565b5060808201516004820180547fffffffffffffffffffffffff00000000000000000000000000000000000000001673ffffffffffffffffffffffffffffffffffffffff90921691909117905560a0820151600582015560c090910151600690910155505050565b600082815260046020908152604080832054600e8352818420825160c081019093528054835260018101805492948694939084019190611f7490614232565b80601f0160208091040260200160405190810160405280929190818152602001828054611fa090614232565b8015611fed5780601f10611fc257610100808354040283529160200191611fed565b820191906000526020600020905b815481529060010190602001808311611fd057829003601f168201915b5050509183525050600282015473ffffffffffffffffffffffffffffffffffffffff908116602080840191909152600384015460408085019190915260049485015460ff8082166060870152610100909104811660809586015293860151909316600090815260089091528290205491517f5cf4ee910000000000000000000000000000000000000000000000000000000081529394501691635cf4ee9191611b0c918691899101918252602082015260400190565b6120ab612e06565b600d548210612116576040517f08c379a000000000000000000000000000000000000000000000000000000000815260206004820152601460248201527f4372656174696f6e206e6f7420657869737465640000000000000000000000006044820152606401610f5e565b6000600e60008481526020019081526020016000206040518060c00160405290816000820154815260200160018201805461215090614232565b80601f016020809104026020016040519081016040528092919081815260200182805461217c90614232565b80156121c95780601f1061219e576101008083540402835291602001916121c9565b820191906000526020600020905b8154815290600101906020018083116121ac57829003601f168201915b5050509183525050600282015473ffffffffffffffffffffffffffffffffffffffff1660208201526003820154604082015260049091015460ff8082166060808501919091526101009092041660809092019190915281015190915060009081908190819061223b908890889061109b565b9350935093509350833410156122ad576040517f08c379a000000000000000000000000000000000000000000000000000000000815260206004820152601460248201527f496e73756666696369656e74207061796d656e740000000000000000000000006044820152606401610f5e565b60a085015160ff166000908152600a6020908152604080832054815192830190915291815273ffffffffffffffffffffffffffffffffffffffff909116906122fa9033908a908a90612b72565b604080518881526020810187905233918a917fcc93b0018cb6ae09600353141c5e6471ae473f39200cfe34a3f588895176c28c910160405180910390a36123418185612e49565b8073ffffffffffffffffffffffffffffffffffffffff1663d0e30db06040518163ffffffff1660e01b8152600401600060405180830381600087803b15801561238957600080fd5b505af115801561239d573d6000803e3d6000fd5b505050506123af866040015184612e49565b8115612565576000888152600c60209081526040808320815160e08101835281548152600182015473ffffffffffffffffffffffffffffffffffffffff1693810193909352600281018054919284019161240890614232565b80601f016020809104026020016040519081016040528092919081815260200182805461243490614232565b80156124815780601f1061245657610100808354040283529160200191612481565b820191906000526020600020905b81548152906001019060200180831161246457829003601f168201915b5050505050815260200160038201805461249a90614232565b80601f01602080910402602001604051908101604052809291908181526020018280546124c690614232565b80156125135780601f106124e857610100808354040283529160200191612513565b820191906000526020600020905b8154815290600101906020018083116124f657829003601f168201915b5050509183525050600482015473ffffffffffffffffffffffffffffffffffffffff1660208201526005820154604082015260069091015460609091015260808101519091506125639084612e49565b505b60006125718634614498565b90508015612583576125833382612e49565b50505050505050611b616001600655565b61259c612e06565b600d548210612607576040517f08c379a000000000000000000000000000000000000000000000000000000000815260206004820152601460248201527f4372656174696f6e206e6f7420657869737465640000000000000000000000006044820152606401610f5e565b6000600e60008481526020019081526020016000206040518060c00160405290816000820154815260200160018201805461264190614232565b80601f016020809104026020016040519081016040528092919081815260200182805461266d90614232565b80156126ba5780601f1061268f576101008083540402835291602001916126ba565b820191906000526020600020905b81548152906001019060200180831161269d57829003601f168201915b5050509183525050600282015473ffffffffffffffffffffffffffffffffffffffff1660208201526003820154604082015260049091015460ff8082166060808501919091526101009092041660809092019190915281015190915060009081908190819061272c9088908890610c90565b60a089015160ff166000908152600a6020526040908190205490517f2e1a7d4d00000000000000000000000000000000000000000000000000000000815260048101859052949850929650909450925073ffffffffffffffffffffffffffffffffffffffff16908190632e1a7d4d90602401600060405180830381600087803b1580156127b857600080fd5b505af11580156127cc573d6000803e3d6000fd5b505050506127db338989612f32565b604080518881526020810187905233918a917fce55bfae73b3c55d09c9fb6723466656ecb31fc2f7c5b90c296456857480c88c910160405180910390a36128223386612e49565b612830866040015184612e49565b81156129e4576000888152600c60209081526040808320815160e08101835281548152600182015473ffffffffffffffffffffffffffffffffffffffff1693810193909352600281018054919284019161288990614232565b80601f01602080910402602001604051908101604052809291908181526020018280546128b590614232565b80156129025780601f106128d757610100808354040283529160200191612902565b820191906000526020600020905b8154815290600101906020018083116128e557829003601f168201915b5050505050815260200160038201805461291b90614232565b80601f016020809104026020016040519081016040528092919081815260200182805461294790614232565b80156129945780601f1061296957610100808354040283529160200191612994565b820191906000526020600020905b81548152906001019060200180831161297757829003601f168201915b5050509183525050600482015473ffffffffffffffffffffffffffffffffffffffff1660208201526005820154604082015260069091015460609091015260808101519091506125839084612e49565b505050505050611b616001600655565b3373ffffffffffffffffffffffffffffffffffffffff86168114801590612a4e575073ffffffffffffffffffffffffffffffffffffffff80871660009081526002602090815260408083209385168352929052205460ff16155b15612aa5576040517fe237d92200000000000000000000000000000000000000000000000000000000815273ffffffffffffffffffffffffffffffffffffffff808316600483015287166024820152604401610f5e565b610f748686868686612fc1565b612aba612b13565b73ffffffffffffffffffffffffffffffffffffffff8116612b0a576040517f1e4fbdf700000000000000000000000000000000000000000000000000000000815260006004820152602401610f5e565b6109a281612ca9565b60005473ffffffffffffffffffffffffffffffffffffffff163314611645576040517f118cdaa7000000000000000000000000000000000000000000000000000000008152336004820152602401610f5e565b6003611b6182826142c5565b73ffffffffffffffffffffffffffffffffffffffff8416612bc2576040517f57f447ce00000000000000000000000000000000000000000000000000000000815260006004820152602401610f5e565b60408051600180825260208201869052818301908152606082018590526080820190925290610f7460008784848761309c565b73ffffffffffffffffffffffffffffffffffffffff8416612c45576040517f57f447ce00000000000000000000000000000000000000000000000000000000815260006004820152602401610f5e565b73ffffffffffffffffffffffffffffffffffffffff8516612c95576040517f01a8351400000000000000000000000000000000000000000000000000000000815260006004820152602401610f5e565b612ca2858585858561309c565b5050505050565b6000805473ffffffffffffffffffffffffffffffffffffffff8381167fffffffffffffffffffffffff0000000000000000000000000000000000000000831681178455604051919092169283917f8be0079c531659141344cd1fd0a4f28419497f9722a3daafe3b4186f6b6457e09190a35050565b73ffffffffffffffffffffffffffffffffffffffff8216612d6e576040517fced3e10000000000000000000000000000000000000000000000000000000000815260006004820152602401610f5e565b73ffffffffffffffffffffffffffffffffffffffff83811660008181526002602090815260408083209487168084529482529182902080547fffffffffffffffffffffffffffffffffffffffffffffffffffffffffffffff001686151590811790915591519182527f17307eab39ab6107e8899845ad3d59bd9653f200f220920489ca2b5937696c31910160405180910390a3505050565b600260065403612e42576040517f3ee5aeb500000000000000000000000000000000000000000000000000000000815260040160405180910390fd5b6002600655565b6040805160008082526020820190925273ffffffffffffffffffffffffffffffffffffffff8416908390604051612e80919061457e565b60006040518083038185875af1925050503d8060008114612ebd576040519150601f19603f3d011682016040523d82523d6000602084013e612ec2565b606091505b5050905080612f2d576040517f08c379a000000000000000000000000000000000000000000000000000000000815260206004820152601360248201527f455448207472616e73666572206661696c6564000000000000000000000000006044820152606401610f5e565b505050565b73ffffffffffffffffffffffffffffffffffffffff8316612f82576040517f01a8351400000000000000000000000000000000000000000000000000000000815260006004820152602401610f5e565b604080516001808252602082018590528183019081526060820184905260a08201909252600060808201818152919291612ca29187918590859061309c565b73ffffffffffffffffffffffffffffffffffffffff8416613011576040517f57f447ce00000000000000000000000000000000000000000000000000000000815260006004820152602401610f5e565b73ffffffffffffffffffffffffffffffffffffffff8516613061576040517f01a8351400000000000000000000000000000000000000000000000000000000815260006004820152602401610f5e565b60408051600180825260208201869052818301908152606082018590526080820190925290613093878784848761309c565b50505050505050565b6130a8858585856130fc565b73ffffffffffffffffffffffffffffffffffffffff841615612ca257825133906001036130ee57602084810151908401516130e783898985858961310e565b5050610f74565b610f74818787878787613300565b61310884848484613491565b50505050565b73ffffffffffffffffffffffffffffffffffffffff84163b15610f74576040517ff23a6e6100000000000000000000000000000000000000000000000000000000815273ffffffffffffffffffffffffffffffffffffffff85169063f23a6e6190613185908990899088908890889060040161459a565b6020604051808303816000875af19250505080156131de575060408051601f3d9081017fffffffffffffffffffffffffffffffffffffffffffffffffffffffffffffffe01682019092526131db918101906145ea565b60015b61326d573d80801561320c576040519150601f19603f3d011682016040523d82523d6000602084013e613211565b606091505b508051600003613265576040517f57f447ce00000000000000000000000000000000000000000000000000000000815273ffffffffffffffffffffffffffffffffffffffff86166004820152602401610f5e565b805181602001fd5b7fffffffff0000000000000000000000000000000000000000000000000000000081167ff23a6e610000000000000000000000000000000000000000000000000000000014613093576040517f57f447ce00000000000000000000000000000000000000000000000000000000815273ffffffffffffffffffffffffffffffffffffffff86166004820152602401610f5e565b73ffffffffffffffffffffffffffffffffffffffff84163b15610f74576040517fbc197c8100000000000000000000000000000000000000000000000000000000815273ffffffffffffffffffffffffffffffffffffffff85169063bc197c81906133779089908990889088908890600401614607565b6020604051808303816000875af19250505080156133d0575060408051601f3d9081017fffffffffffffffffffffffffffffffffffffffffffffffffffffffffffffffe01682019092526133cd918101906145ea565b60015b6133fe573d80801561320c576040519150601f19603f3d011682016040523d82523d6000602084013e613211565b7fffffffff0000000000000000000000000000000000000000000000000000000081167fbc197c810000000000000000000000000000000000000000000000000000000014613093576040517f57f447ce00000000000000000000000000000000000000000000000000000000815273ffffffffffffffffffffffffffffffffffffffff86166004820152602401610f5e565b61349d84848484613605565b73ffffffffffffffffffffffffffffffffffffffff841661355d576000805b83518110156135435760008382815181106134d9576134d96144ab565b6020026020010151905080600460008785815181106134fa576134fa6144ab565b60200260200101518152602001908152602001600020600082825461351f91906144da565b9091555061352f905081846144da565b9250508061353c9061440e565b90506134bc565b50806005600082825461355691906144da565b9091555050505b73ffffffffffffffffffffffffffffffffffffffff8316613108576000805b83518110156135f4576000838281518110613599576135996144ab565b6020026020010151905080600460008785815181106135ba576135ba6144ab565b6020026020010151815260200190815260200160002060008282540392505081905550808301925050806135ed9061440e565b905061357c565b506005805491909103905550505050565b805182511461364d57815181516040517f5b05999100000000000000000000000000000000000000000000000000000000815260048101929092526024820152604401610f5e565b3360005b83518110156137c95760208181028581018201519085019091015173ffffffffffffffffffffffffffffffffffffffff88161561375557600082815260016020908152604080832073ffffffffffffffffffffffffffffffffffffffff8c1684529091529020548181101561371f576040517f03dee4c500000000000000000000000000000000000000000000000000000000815273ffffffffffffffffffffffffffffffffffffffff8a166004820152602481018290526044810183905260648101849052608401610f5e565b600083815260016020908152604080832073ffffffffffffffffffffffffffffffffffffffff8d16845290915290209082900390555b73ffffffffffffffffffffffffffffffffffffffff8716156137b657600082815260016020908152604080832073ffffffffffffffffffffffffffffffffffffffff8b168452909152812080548392906137b09084906144da565b90915550505b5050806137c29061440e565b9050613651565b50825160010361387157602083015160009060208401519091508573ffffffffffffffffffffffffffffffffffffffff168773ffffffffffffffffffffffffffffffffffffffff168473ffffffffffffffffffffffffffffffffffffffff167fc3d58168c5ae7397731d063d5bbf3d657854427343f4c083240f7aacaa2d0f628585604051613862929190918252602082015260400190565b60405180910390a45050612ca2565b8373ffffffffffffffffffffffffffffffffffffffff168573ffffffffffffffffffffffffffffffffffffffff168273ffffffffffffffffffffffffffffffffffffffff167f4a39dc06d4c0dbc64b70af90fd698a233a518aa5d07e595d983b8c0526c8f7fb86866040516138e7929190614672565b60405180910390a45050505050565b803573ffffffffffffffffffffffffffffffffffffffff8116811461391a57600080fd5b919050565b6000806040838503121561393257600080fd5b61393b836138f6565b946020939093013593505050565b7fffffffff00000000000000000000000000000000000000000000000000000000811681146109a257600080fd5b60006020828403121561398957600080fd5b813561399481613949565b9392505050565b7f4e487b7100000000000000000000000000000000000000000000000000000000600052604160045260246000fd5b604051601f82017fffffffffffffffffffffffffffffffffffffffffffffffffffffffffffffffe016810167ffffffffffffffff81118282101715613a1157613a1161399b565b604052919050565b600082601f830112613a2a57600080fd5b813567ffffffffffffffff811115613a4457613a4461399b565b613a7560207fffffffffffffffffffffffffffffffffffffffffffffffffffffffffffffffe0601f840116016139ca565b818152846020838601011115613a8a57600080fd5b816020850160208301376000918101602001919091529392505050565b600060208284031215613ab957600080fd5b813567ffffffffffffffff811115613ad057600080fd5b613adc84828501613a19565b949350505050565b600060208284031215613af657600080fd5b5035919050565b60005b83811015613b18578181015183820152602001613b00565b50506000910152565b60008151808452613b39816020860160208601613afd565b601f017fffffffffffffffffffffffffffffffffffffffffffffffffffffffffffffffe0169290920160200192915050565b6020815260006139946020830184613b21565b803560ff8116811461391a57600080fd5b600060208284031215613ba157600080fd5b813567ffffffffffffffff80821115613bb957600080fd5b9083019060808286031215613bcd57600080fd5b604051608081018181108382111715613be857613be861399b565b604052823582811115613bfa57600080fd5b613c0687828601613a19565b82525060208301356020820152613c1f60408401613b7e565b6040820152613c3060608401613b7e565b606082015295945050505050565b600060208284031215613c5057600080fd5b61399482613b7e565b600060208284031215613c6b57600080fd5b613994826138f6565b600081518084526020808501945080840160005b83811015613ca457815187529582019590820190600101613c88565b509495945050505050565b6020815260006139946020830184613c74565b600080600060608486031215613cd757600080fd5b505081359360208301359350604090920135919050565b600067ffffffffffffffff821115613d0857613d0861399b565b5060051b60200190565b600082601f830112613d2357600080fd5b81356020613d38613d3383613cee565b6139ca565b82815260059290921b84018101918181019086841115613d5757600080fd5b8286015b84811015613d725780358352918301918301613d5b565b509695505050505050565b600080600080600060a08688031215613d9557600080fd5b613d9e866138f6565b9450613dac602087016138f6565b9350604086013567ffffffffffffffff80821115613dc957600080fd5b613dd589838a01613d12565b94506060880135915080821115613deb57600080fd5b613df789838a01613d12565b93506080880135915080821115613e0d57600080fd5b50613e1a88828901613a19565b9150509295509295909350565b60008060408385031215613e3a57600080fd5b823567ffffffffffffffff80821115613e5257600080fd5b818501915085601f830112613e6657600080fd5b81356020613e76613d3383613cee565b82815260059290921b84018101918181019089841115613e9557600080fd5b948201945b83861015613eba57613eab866138f6565b82529482019490820190613e9a565b96505086013592505080821115613ed057600080fd5b50613edd85828601613d12565b9150509250929050565b60208152815160208201526000602083015160c06040840152613f0d60e0840182613b21565b905073ffffffffffffffffffffffffffffffffffffffff60408501511660608401526060840151608084015260ff60808501511660a084015260ff60a08501511660c08401528091505092915050565b878152600073ffffffffffffffffffffffffffffffffffffffff808916602084015260e06040840152613f9360e0840189613b21565b8381036060850152613fa58189613b21565b91909616608084015260a08301949094525060c0015295945050505050565b86815260c060208201526000613fdd60c0830188613b21565b73ffffffffffffffffffffffffffffffffffffffff96909616604083015250606081019390935260ff91821660808401521660a09091015292915050565b600060a0828403121561402d57600080fd5b60405160a0810167ffffffffffffffff82821081831117156140515761405161399b565b81604052829350843591508082111561406957600080fd5b61407586838701613a19565b8352602085013591508082111561408b57600080fd5b5061409885828601613a19565b6020830152506140aa604084016138f6565b604082015260608301356060820152608083013560808201525092915050565b6000602082840312156140dc57600080fd5b813567ffffffffffffffff8111156140f357600080fd5b613adc8482850161401b565b6000806040838503121561411257600080fd5b50508035926020909101359150565b6000806040838503121561413457600080fd5b61413d836138f6565b91506020830135801515811461415257600080fd5b809150509250929050565b6000806040838503121561417057600080fd5b82359150602083013567ffffffffffffffff81111561418e57600080fd5b613edd8582860161401b565b600080604083850312156141ad57600080fd5b6141b6836138f6565b91506141c4602084016138f6565b90509250929050565b600080600080600060a086880312156141e557600080fd5b6141ee866138f6565b94506141fc602087016138f6565b93506040860135925060608601359150608086013567ffffffffffffffff81111561422657600080fd5b613e1a88828901613a19565b600181811c9082168061424657607f821691505b6020821081036114b2577f4e487b7100000000000000000000000000000000000000000000000000000000600052602260045260246000fd5b601f821115612f2d57600081815260208120601f850160051c810160208610156142a65750805b601f850160051c820191505b81811015610f74578281556001016142b2565b815167ffffffffffffffff8111156142df576142df61399b565b6142f3816142ed8454614232565b8461427f565b602080601f83116001811461434657600084156143105750858301515b7fffffffffffffffffffffffffffffffffffffffffffffffffffffffffffffffff600386901b1c1916600185901b178555610f74565b6000858152602081207fffffffffffffffffffffffffffffffffffffffffffffffffffffffffffffffe08616915b8281101561439357888601518255948401946001909101908401614374565b50858210156143cf57878501517fffffffffffffffffffffffffffffffffffffffffffffffffffffffffffffffff600388901b60f8161c191681555b5050505050600190811b01905550565b7f4e487b7100000000000000000000000000000000000000000000000000000000600052601160045260246000fd5b60007fffffffffffffffffffffffffffffffffffffffffffffffffffffffffffffffff820361443f5761443f6143df565b5060010190565b80820281158282048414176108a8576108a86143df565b600082614493577f4e487b7100000000000000000000000000000000000000000000000000000000600052601260045260246000fd5b500490565b818103818111156108a8576108a86143df565b7f4e487b7100000000000000000000000000000000000000000000000000000000600052603260045260246000fd5b808201808211156108a8576108a86143df565b600060ff821660ff8103614503576145036143df565b60010192915050565b60a08152600061451f60a0830188613b21565b82810360208401526145318188613b21565b73ffffffffffffffffffffffffffffffffffffffff9690961660408401525050606081019290925260809091015292915050565b60006020828403121561457757600080fd5b5051919050565b60008251614590818460208701613afd565b9190910192915050565b600073ffffffffffffffffffffffffffffffffffffffff808816835280871660208401525084604083015283606083015260a060808301526145df60a0830184613b21565b979650505050505050565b6000602082840312156145fc57600080fd5b815161399481613949565b600073ffffffffffffffffffffffffffffffffffffffff808816835280871660208401525060a0604083015261464060a0830186613c74565b82810360608401526146528186613c74565b905082810360808401526146668185613b21565b98975050505050505050565b6040815260006146856040830185613c74565b8281036020840152611b4d8185613c7456fea2646970667358221220150c5ee9a2e9f309ec4b8562c47fbd39911c0eb40f753b780d51f15ab47a033964736f6c63430008140033",
  "libraries": {},
  "devdoc": {
    "errors": {
      "ERC1155InsufficientBalance(address,uint256,uint256,uint256)": [
        {
          "details": "Indicates an error related to the current `balance` of a `sender`. Used in transfers.",
          "params": {
            "balance": "Current balance for the interacting account.",
            "needed": "Minimum amount required to perform a transfer.",
            "sender": "Address whose tokens are being transferred.",
            "tokenId": "Identifier number of a token."
          }
        }
      ],
      "ERC1155InvalidApprover(address)": [
        {
          "details": "Indicates a failure with the `approver` of a token to be approved. Used in approvals.",
          "params": {
            "approver": "Address initiating an approval operation."
          }
        }
      ],
      "ERC1155InvalidArrayLength(uint256,uint256)": [
        {
          "details": "Indicates an array length mismatch between ids and values in a safeBatchTransferFrom operation. Used in batch transfers.",
          "params": {
            "idsLength": "Length of the array of token identifiers",
            "valuesLength": "Length of the array of token amounts"
          }
        }
      ],
      "ERC1155InvalidOperator(address)": [
        {
          "details": "Indicates a failure with the `operator` to be approved. Used in approvals.",
          "params": {
            "operator": "Address that may be allowed to operate on tokens without being their owner."
          }
        }
      ],
      "ERC1155InvalidReceiver(address)": [
        {
          "details": "Indicates a failure with the token `receiver`. Used in transfers.",
          "params": {
            "receiver": "Address to which tokens are being transferred."
          }
        }
      ],
      "ERC1155InvalidSender(address)": [
        {
          "details": "Indicates a failure with the token `sender`. Used in transfers.",
          "params": {
            "sender": "Address whose tokens are being transferred."
          }
        }
      ],
      "ERC1155MissingApprovalForAll(address,address)": [
        {
          "details": "Indicates a failure with the `operator`s approval. Used in transfers.",
          "params": {
            "operator": "Address that may be allowed to operate on tokens without being their owner.",
            "owner": "Address of the current owner of a token."
          }
        }
      ],
      "OwnableInvalidOwner(address)": [
        {
          "details": "The owner is not a valid owner account. (eg. `address(0)`)"
        }
      ],
      "OwnableUnauthorizedAccount(address)": [
        {
          "details": "The caller account is not authorized to perform an operation."
        }
      ],
      "ReentrancyGuardReentrantCall()": [
        {
          "details": "Unauthorized reentrant call."
        }
      ]
    },
    "events": {
      "ApprovalForAll(address,address,bool)": {
        "details": "Emitted when `account` grants or revokes permission to `operator` to transfer their tokens, according to `approved`."
      },
      "TransferBatch(address,address,address,uint256[],uint256[])": {
        "details": "Equivalent to multiple {TransferSingle} events, where `operator`, `from` and `to` are the same for all transfers."
      },
      "TransferSingle(address,address,address,uint256,uint256)": {
        "details": "Emitted when `value` amount of tokens of type `id` are transferred from `from` to `to` by `operator`."
      },
      "URI(string,uint256)": {
        "details": "Emitted when the URI for token type `id` changes to `value`, if it is a non-programmatic URI. If an {URI} event was emitted for `id`, the standard https://eips.ethereum.org/EIPS/eip-1155#metadata-extensions[guarantees] that `value` will equal the value returned by {IERC1155MetadataURI-uri}."
      }
    },
    "kind": "dev",
    "methods": {
      "balanceOf(address,uint256)": {
        "details": "See {IERC1155-balanceOf}."
      },
      "balanceOfBatch(address[],uint256[])": {
        "details": "See {IERC1155-balanceOfBatch}. Requirements: - `accounts` and `ids` must have the same length."
      },
      "exists(uint256)": {
        "details": "Indicates whether any token exist with a given id, or not."
      },
      "isApprovedForAll(address,address)": {
        "details": "See {IERC1155-isApprovedForAll}."
      },
      "owner()": {
        "details": "Returns the address of the current owner."
      },
      "renounceOwnership()": {
        "details": "Leaves the contract without owner. It will not be possible to call `onlyOwner` functions. Can only be called by the current owner. NOTE: Renouncing ownership will leave the contract without an owner, thereby disabling any functionality that is only available to the owner."
      },
      "safeBatchTransferFrom(address,address,uint256[],uint256[],bytes)": {
        "details": "See {IERC1155-safeBatchTransferFrom}."
      },
      "safeTransferFrom(address,address,uint256,uint256,bytes)": {
        "details": "See {IERC1155-safeTransferFrom}."
      },
      "setApprovalForAll(address,bool)": {
        "details": "See {IERC1155-setApprovalForAll}."
      },
      "supportsInterface(bytes4)": {
        "details": "See {IERC165-supportsInterface}."
      },
      "totalSupply()": {
        "details": "Total value of tokens."
      },
      "totalSupply(uint256)": {
        "details": "Total value of tokens in with a given id."
      },
      "transferOwnership(address)": {
        "details": "Transfers ownership of the contract to a new account (`newOwner`). Can only be called by the current owner."
      },
      "uri(uint256)": {
        "details": "See {IERC1155MetadataURI-uri}. This implementation returns the same URI for *all* token types. It relies on the token type ID substitution mechanism https://eips.ethereum.org/EIPS/eip-1155#metadata[defined in the EIP]. Clients calling this function must replace the `\\{id\\}` substring with the actual token type ID."
      }
    },
    "version": 1
  },
  "userdoc": {
    "kind": "user",
    "methods": {},
    "version": 1
  },
  "storageLayout": {
    "storage": [
      {
        "astId": 8,
        "contract": "contracts/core/IndieX.sol:IndieX",
        "label": "_owner",
        "offset": 0,
        "slot": "0",
        "type": "t_address"
      },
      {
        "astId": 326,
        "contract": "contracts/core/IndieX.sol:IndieX",
        "label": "_balances",
        "offset": 0,
        "slot": "1",
        "type": "t_mapping(t_uint256,t_mapping(t_address,t_uint256))"
      },
      {
        "astId": 332,
        "contract": "contracts/core/IndieX.sol:IndieX",
        "label": "_operatorApprovals",
        "offset": 0,
        "slot": "2",
        "type": "t_mapping(t_address,t_mapping(t_address,t_bool))"
      },
      {
        "astId": 334,
        "contract": "contracts/core/IndieX.sol:IndieX",
        "label": "_uri",
        "offset": 0,
        "slot": "3",
        "type": "t_string_storage"
      },
      {
        "astId": 1511,
        "contract": "contracts/core/IndieX.sol:IndieX",
        "label": "_totalSupply",
        "offset": 0,
        "slot": "4",
        "type": "t_mapping(t_uint256,t_uint256)"
      },
      {
        "astId": 1513,
        "contract": "contracts/core/IndieX.sol:IndieX",
        "label": "_totalSupplyAll",
        "offset": 0,
        "slot": "5",
        "type": "t_uint256"
      },
      {
        "astId": 2569,
        "contract": "contracts/core/IndieX.sol:IndieX",
        "label": "_status",
        "offset": 0,
        "slot": "6",
        "type": "t_uint256"
      },
      {
        "astId": 3900,
        "contract": "contracts/core/IndieX.sol:IndieX",
        "label": "curveIndex",
        "offset": 0,
        "slot": "7",
        "type": "t_uint8"
      },
      {
        "astId": 3904,
        "contract": "contracts/core/IndieX.sol:IndieX",
        "label": "curves",
        "offset": 0,
        "slot": "8",
        "type": "t_mapping(t_uint8,t_address)"
      },
      {
        "astId": 3907,
        "contract": "contracts/core/IndieX.sol:IndieX",
        "label": "farmerIndex",
        "offset": 0,
        "slot": "9",
        "type": "t_uint8"
      },
      {
        "astId": 3911,
        "contract": "contracts/core/IndieX.sol:IndieX",
        "label": "farmers",
        "offset": 0,
        "slot": "10",
        "type": "t_mapping(t_uint8,t_address)"
      },
      {
        "astId": 3913,
        "contract": "contracts/core/IndieX.sol:IndieX",
        "label": "appIndex",
        "offset": 0,
        "slot": "11",
        "type": "t_uint256"
      },
      {
        "astId": 3918,
        "contract": "contracts/core/IndieX.sol:IndieX",
        "label": "apps",
        "offset": 0,
        "slot": "12",
        "type": "t_mapping(t_uint256,t_struct(App)3875_storage)"
      },
      {
        "astId": 3920,
        "contract": "contracts/core/IndieX.sol:IndieX",
        "label": "creationIndex",
        "offset": 0,
        "slot": "13",
        "type": "t_uint256"
      },
      {
        "astId": 3925,
        "contract": "contracts/core/IndieX.sol:IndieX",
        "label": "creations",
        "offset": 0,
        "slot": "14",
        "type": "t_mapping(t_uint256,t_struct(Creation)3897_storage)"
      },
      {
        "astId": 3930,
        "contract": "contracts/core/IndieX.sol:IndieX",
        "label": "userCreations",
        "offset": 0,
        "slot": "15",
        "type": "t_mapping(t_address,t_array(t_uint256)dyn_storage)"
      },
      {
        "astId": 3936,
        "contract": "contracts/core/IndieX.sol:IndieX",
        "label": "protocolFeePercent",
        "offset": 0,
        "slot": "16",
        "type": "t_uint256"
      }
    ],
    "types": {
      "t_address": {
        "encoding": "inplace",
        "label": "address",
        "numberOfBytes": "20"
      },
      "t_array(t_uint256)dyn_storage": {
        "base": "t_uint256",
        "encoding": "dynamic_array",
        "label": "uint256[]",
        "numberOfBytes": "32"
      },
      "t_bool": {
        "encoding": "inplace",
        "label": "bool",
        "numberOfBytes": "1"
      },
      "t_mapping(t_address,t_array(t_uint256)dyn_storage)": {
        "encoding": "mapping",
        "key": "t_address",
        "label": "mapping(address => uint256[])",
        "numberOfBytes": "32",
        "value": "t_array(t_uint256)dyn_storage"
      },
      "t_mapping(t_address,t_bool)": {
        "encoding": "mapping",
        "key": "t_address",
        "label": "mapping(address => bool)",
        "numberOfBytes": "32",
        "value": "t_bool"
      },
      "t_mapping(t_address,t_mapping(t_address,t_bool))": {
        "encoding": "mapping",
        "key": "t_address",
        "label": "mapping(address => mapping(address => bool))",
        "numberOfBytes": "32",
        "value": "t_mapping(t_address,t_bool)"
      },
      "t_mapping(t_address,t_uint256)": {
        "encoding": "mapping",
        "key": "t_address",
        "label": "mapping(address => uint256)",
        "numberOfBytes": "32",
        "value": "t_uint256"
      },
      "t_mapping(t_uint256,t_mapping(t_address,t_uint256))": {
        "encoding": "mapping",
        "key": "t_uint256",
        "label": "mapping(uint256 => mapping(address => uint256))",
        "numberOfBytes": "32",
        "value": "t_mapping(t_address,t_uint256)"
      },
      "t_mapping(t_uint256,t_struct(App)3875_storage)": {
        "encoding": "mapping",
        "key": "t_uint256",
        "label": "mapping(uint256 => struct IndieX.App)",
        "numberOfBytes": "32",
        "value": "t_struct(App)3875_storage"
      },
      "t_mapping(t_uint256,t_struct(Creation)3897_storage)": {
        "encoding": "mapping",
        "key": "t_uint256",
        "label": "mapping(uint256 => struct IndieX.Creation)",
        "numberOfBytes": "32",
        "value": "t_struct(Creation)3897_storage"
      },
      "t_mapping(t_uint256,t_uint256)": {
        "encoding": "mapping",
        "key": "t_uint256",
        "label": "mapping(uint256 => uint256)",
        "numberOfBytes": "32",
        "value": "t_uint256"
      },
      "t_mapping(t_uint8,t_address)": {
        "encoding": "mapping",
        "key": "t_uint8",
        "label": "mapping(uint8 => address)",
        "numberOfBytes": "32",
        "value": "t_address"
      },
      "t_string_storage": {
        "encoding": "bytes",
        "label": "string",
        "numberOfBytes": "32"
      },
      "t_struct(App)3875_storage": {
        "encoding": "inplace",
        "label": "struct IndieX.App",
        "members": [
          {
            "astId": 3862,
            "contract": "contracts/core/IndieX.sol:IndieX",
            "label": "id",
            "offset": 0,
            "slot": "0",
            "type": "t_uint256"
          },
          {
            "astId": 3864,
            "contract": "contracts/core/IndieX.sol:IndieX",
            "label": "creator",
            "offset": 0,
            "slot": "1",
            "type": "t_address"
          },
          {
            "astId": 3866,
            "contract": "contracts/core/IndieX.sol:IndieX",
            "label": "name",
            "offset": 0,
            "slot": "2",
            "type": "t_string_storage"
          },
          {
            "astId": 3868,
            "contract": "contracts/core/IndieX.sol:IndieX",
            "label": "dataURI",
            "offset": 0,
            "slot": "3",
            "type": "t_string_storage"
          },
          {
            "astId": 3870,
            "contract": "contracts/core/IndieX.sol:IndieX",
            "label": "feeTo",
            "offset": 0,
            "slot": "4",
            "type": "t_address"
          },
          {
            "astId": 3872,
            "contract": "contracts/core/IndieX.sol:IndieX",
            "label": "appFeePercent",
            "offset": 0,
            "slot": "5",
            "type": "t_uint256"
          },
          {
            "astId": 3874,
            "contract": "contracts/core/IndieX.sol:IndieX",
            "label": "creatorFeePercent",
            "offset": 0,
            "slot": "6",
            "type": "t_uint256"
          }
        ],
        "numberOfBytes": "224"
      },
      "t_struct(Creation)3897_storage": {
        "encoding": "inplace",
        "label": "struct IndieX.Creation",
        "members": [
          {
            "astId": 3886,
            "contract": "contracts/core/IndieX.sol:IndieX",
            "label": "id",
            "offset": 0,
            "slot": "0",
            "type": "t_uint256"
          },
          {
            "astId": 3888,
            "contract": "contracts/core/IndieX.sol:IndieX",
            "label": "name",
            "offset": 0,
            "slot": "1",
            "type": "t_string_storage"
          },
          {
            "astId": 3890,
            "contract": "contracts/core/IndieX.sol:IndieX",
            "label": "creator",
            "offset": 0,
            "slot": "2",
            "type": "t_address"
          },
          {
            "astId": 3892,
            "contract": "contracts/core/IndieX.sol:IndieX",
            "label": "appId",
            "offset": 0,
            "slot": "3",
            "type": "t_uint256"
          },
          {
            "astId": 3894,
            "contract": "contracts/core/IndieX.sol:IndieX",
            "label": "curve",
            "offset": 0,
            "slot": "4",
            "type": "t_uint8"
          },
          {
            "astId": 3896,
            "contract": "contracts/core/IndieX.sol:IndieX",
            "label": "farmer",
            "offset": 1,
            "slot": "4",
            "type": "t_uint8"
          }
        ],
        "numberOfBytes": "160"
      },
      "t_uint256": {
        "encoding": "inplace",
        "label": "uint256",
        "numberOfBytes": "32"
      },
      "t_uint8": {
        "encoding": "inplace",
        "label": "uint8",
        "numberOfBytes": "1"
      }
    }
  }
}