{
  "address": "0x3a2eC87Ad66abFD9ca411d2A69D3356CD09c72bd",
  "abi": [
    {
      "inputs": [
        {
          "internalType": "address",
          "name": "initialOwner",
          "type": "address"
        }
      ],
      "stateMutability": "nonpayable",
      "type": "constructor"
    },
    {
      "inputs": [
        {
          "internalType": "address",
          "name": "sender",
          "type": "address"
        },
        {
          "internalType": "uint256",
          "name": "balance",
          "type": "uint256"
        },
        {
          "internalType": "uint256",
          "name": "needed",
          "type": "uint256"
        },
        {
          "internalType": "uint256",
          "name": "tokenId",
          "type": "uint256"
        }
      ],
      "name": "ERC1155InsufficientBalance",
      "type": "error"
    },
    {
      "inputs": [
        {
          "internalType": "address",
          "name": "approver",
          "type": "address"
        }
      ],
      "name": "ERC1155InvalidApprover",
      "type": "error"
    },
    {
      "inputs": [
        {
          "internalType": "uint256",
          "name": "idsLength",
          "type": "uint256"
        },
        {
          "internalType": "uint256",
          "name": "valuesLength",
          "type": "uint256"
        }
      ],
      "name": "ERC1155InvalidArrayLength",
      "type": "error"
    },
    {
      "inputs": [
        {
          "internalType": "address",
          "name": "operator",
          "type": "address"
        }
      ],
      "name": "ERC1155InvalidOperator",
      "type": "error"
    },
    {
      "inputs": [
        {
          "internalType": "address",
          "name": "receiver",
          "type": "address"
        }
      ],
      "name": "ERC1155InvalidReceiver",
      "type": "error"
    },
    {
      "inputs": [
        {
          "internalType": "address",
          "name": "sender",
          "type": "address"
        }
      ],
      "name": "ERC1155InvalidSender",
      "type": "error"
    },
    {
      "inputs": [
        {
          "internalType": "address",
          "name": "operator",
          "type": "address"
        },
        {
          "internalType": "address",
          "name": "owner",
          "type": "address"
        }
      ],
      "name": "ERC1155MissingApprovalForAll",
      "type": "error"
    },
    {
      "inputs": [
        {
          "internalType": "address",
          "name": "owner",
          "type": "address"
        }
      ],
      "name": "OwnableInvalidOwner",
      "type": "error"
    },
    {
      "inputs": [
        {
          "internalType": "address",
          "name": "account",
          "type": "address"
        }
      ],
      "name": "OwnableUnauthorizedAccount",
      "type": "error"
    },
    {
      "inputs": [],
      "name": "ReentrancyGuardReentrantCall",
      "type": "error"
    },
    {
      "anonymous": false,
      "inputs": [
        {
          "indexed": true,
          "internalType": "address",
          "name": "account",
          "type": "address"
        },
        {
          "indexed": true,
          "internalType": "address",
          "name": "operator",
          "type": "address"
        },
        {
          "indexed": false,
          "internalType": "bool",
          "name": "approved",
          "type": "bool"
        }
      ],
      "name": "ApprovalForAll",
      "type": "event"
    },
    {
      "anonymous": false,
      "inputs": [
        {
          "indexed": true,
          "internalType": "uint8",
          "name": "farmerIndex",
          "type": "uint8"
        },
        {
          "indexed": true,
          "internalType": "address",
          "name": "farmer",
          "type": "address"
        }
      ],
      "name": "FarmerAdded",
      "type": "event"
    },
    {
      "anonymous": false,
      "inputs": [
        {
          "indexed": false,
          "internalType": "uint256",
          "name": "id",
          "type": "uint256"
        },
        {
          "indexed": true,
          "internalType": "address",
          "name": "creator",
          "type": "address"
        },
        {
          "indexed": false,
          "internalType": "string",
          "name": "uri",
          "type": "string"
        },
        {
          "indexed": false,
          "internalType": "address",
          "name": "feeTo",
          "type": "address"
        },
        {
          "indexed": false,
          "internalType": "uint256",
          "name": "appFeePercent",
          "type": "uint256"
        },
        {
          "indexed": false,
          "internalType": "uint256",
          "name": "creatorFeePercent",
          "type": "uint256"
        }
      ],
      "name": "NewApp",
      "type": "event"
    },
    {
      "anonymous": false,
      "inputs": [
        {
          "indexed": true,
          "internalType": "uint256",
          "name": "creationId",
          "type": "uint256"
        },
        {
          "indexed": true,
          "internalType": "address",
          "name": "creator",
          "type": "address"
        },
        {
          "indexed": true,
          "internalType": "uint256",
          "name": "appId",
          "type": "uint256"
        },
        {
          "indexed": false,
          "internalType": "string",
          "name": "uri",
          "type": "string"
        },
        {
          "components": [
            {
              "internalType": "uint96",
              "name": "basePrice",
              "type": "uint96"
            },
            {
              "internalType": "uint32",
              "name": "inflectionPoint",
              "type": "uint32"
            },
            {
              "internalType": "uint128",
              "name": "inflectionPrice",
              "type": "uint128"
            },
            {
              "internalType": "uint128",
              "name": "linearPriceSlope",
              "type": "uint128"
            }
          ],
          "indexed": false,
          "internalType": "struct IndieX.Curve",
          "name": "curve",
          "type": "tuple"
        },
        {
          "indexed": false,
          "internalType": "uint8",
          "name": "farmerId",
          "type": "uint8"
        },
        {
          "indexed": false,
          "internalType": "bool",
          "name": "isFarming",
          "type": "bool"
        }
      ],
      "name": "NewCreation",
      "type": "event"
    },
    {
      "anonymous": false,
      "inputs": [
        {
          "indexed": true,
          "internalType": "address",
          "name": "previousOwner",
          "type": "address"
        },
        {
          "indexed": true,
          "internalType": "address",
          "name": "newOwner",
          "type": "address"
        }
      ],
      "name": "OwnershipTransferred",
      "type": "event"
    },
    {
      "anonymous": false,
      "inputs": [
        {
          "indexed": false,
          "internalType": "uint256",
          "name": "previousFeePercent",
          "type": "uint256"
        },
        {
          "indexed": false,
          "internalType": "uint256",
          "name": "newFeePercent",
          "type": "uint256"
        }
      ],
      "name": "ProtocolFeePercentUpdated",
      "type": "event"
    },
    {
      "anonymous": false,
      "inputs": [
        {
          "indexed": true,
          "internalType": "address",
          "name": "previousFeeTo",
          "type": "address"
        },
        {
          "indexed": true,
          "internalType": "address",
          "name": "newFeeTo",
          "type": "address"
        }
      ],
      "name": "ProtocolFeeToUpdated",
      "type": "event"
    },
    {
      "anonymous": false,
      "inputs": [
        {
          "indexed": true,
          "internalType": "enum IndieX.TradeType",
          "name": "tradeType",
          "type": "uint8"
        },
        {
          "indexed": true,
          "internalType": "uint256",
          "name": "creationId",
          "type": "uint256"
        },
        {
          "indexed": true,
          "internalType": "address",
          "name": "sender",
          "type": "address"
        },
        {
          "indexed": false,
          "internalType": "uint256",
          "name": "tokenAmount",
          "type": "uint256"
        },
        {
          "indexed": false,
          "internalType": "uint256",
          "name": "fundAmount",
          "type": "uint256"
        },
        {
          "indexed": false,
          "internalType": "uint256",
          "name": "creatorFee",
          "type": "uint256"
        },
        {
          "indexed": false,
          "internalType": "uint256",
          "name": "appFee",
          "type": "uint256"
        },
        {
          "indexed": false,
          "internalType": "uint256",
          "name": "protocolFee",
          "type": "uint256"
        },
        {
          "indexed": false,
          "internalType": "address",
          "name": "curator",
          "type": "address"
        },
        {
          "indexed": false,
          "internalType": "uint256",
          "name": "curatorFee",
          "type": "uint256"
        }
      ],
      "name": "Trade",
      "type": "event"
    },
    {
      "anonymous": false,
      "inputs": [
        {
          "indexed": true,
          "internalType": "address",
          "name": "operator",
          "type": "address"
        },
        {
          "indexed": true,
          "internalType": "address",
          "name": "from",
          "type": "address"
        },
        {
          "indexed": true,
          "internalType": "address",
          "name": "to",
          "type": "address"
        },
        {
          "indexed": false,
          "internalType": "uint256[]",
          "name": "ids",
          "type": "uint256[]"
        },
        {
          "indexed": false,
          "internalType": "uint256[]",
          "name": "values",
          "type": "uint256[]"
        }
      ],
      "name": "TransferBatch",
      "type": "event"
    },
    {
      "anonymous": false,
      "inputs": [
        {
          "indexed": true,
          "internalType": "address",
          "name": "operator",
          "type": "address"
        },
        {
          "indexed": true,
          "internalType": "address",
          "name": "from",
          "type": "address"
        },
        {
          "indexed": true,
          "internalType": "address",
          "name": "to",
          "type": "address"
        },
        {
          "indexed": false,
          "internalType": "uint256",
          "name": "id",
          "type": "uint256"
        },
        {
          "indexed": false,
          "internalType": "uint256",
          "name": "value",
          "type": "uint256"
        }
      ],
      "name": "TransferSingle",
      "type": "event"
    },
    {
      "anonymous": false,
      "inputs": [
        {
          "indexed": false,
          "internalType": "string",
          "name": "value",
          "type": "string"
        },
        {
          "indexed": true,
          "internalType": "uint256",
          "name": "id",
          "type": "uint256"
        }
      ],
      "name": "URI",
      "type": "event"
    },
    {
      "anonymous": false,
      "inputs": [
        {
          "indexed": false,
          "internalType": "uint256",
          "name": "id",
          "type": "uint256"
        },
        {
          "indexed": true,
          "internalType": "address",
          "name": "creator",
          "type": "address"
        },
        {
          "indexed": false,
          "internalType": "string",
          "name": "uri",
          "type": "string"
        },
        {
          "indexed": false,
          "internalType": "address",
          "name": "feeTo",
          "type": "address"
        },
        {
          "indexed": false,
          "internalType": "uint256",
          "name": "appFeePercent",
          "type": "uint256"
        },
        {
          "indexed": false,
          "internalType": "uint256",
          "name": "creatorFeePercent",
          "type": "uint256"
        }
      ],
      "name": "UpdateApp",
      "type": "event"
    },
    {
      "anonymous": false,
      "inputs": [
        {
          "indexed": true,
          "internalType": "uint256",
          "name": "creationId",
          "type": "uint256"
        },
        {
          "indexed": true,
          "internalType": "address",
          "name": "creator",
          "type": "address"
        },
        {
          "indexed": true,
          "internalType": "uint256",
          "name": "appId",
          "type": "uint256"
        },
        {
          "indexed": false,
          "internalType": "string",
          "name": "uri",
          "type": "string"
        }
      ],
      "name": "UpdateCreation",
      "type": "event"
    },
    {
      "stateMutability": "payable",
      "type": "fallback"
    },
    {
      "inputs": [],
      "name": "CREATOR_PREMINT",
      "outputs": [
        {
          "internalType": "uint256",
          "name": "",
          "type": "uint256"
        }
      ],
      "stateMutability": "view",
      "type": "function"
    },
    {
      "inputs": [
        {
          "internalType": "address",
          "name": "farmer",
          "type": "address"
        }
      ],
      "name": "addFarmer",
      "outputs": [],
      "stateMutability": "nonpayable",
      "type": "function"
    },
    {
      "inputs": [],
      "name": "appIndex",
      "outputs": [
        {
          "internalType": "uint256",
          "name": "",
          "type": "uint256"
        }
      ],
      "stateMutability": "view",
      "type": "function"
    },
    {
      "inputs": [
        {
          "internalType": "uint256",
          "name": "",
          "type": "uint256"
        }
      ],
      "name": "apps",
      "outputs": [
        {
          "internalType": "uint256",
          "name": "id",
          "type": "uint256"
        },
        {
          "internalType": "address",
          "name": "creator",
          "type": "address"
        },
        {
          "internalType": "string",
          "name": "uri",
          "type": "string"
        },
        {
          "internalType": "address",
          "name": "feeTo",
          "type": "address"
        },
        {
          "internalType": "uint256",
          "name": "appFeePercent",
          "type": "uint256"
        },
        {
          "internalType": "uint256",
          "name": "creatorFeePercent",
          "type": "uint256"
        }
      ],
      "stateMutability": "view",
      "type": "function"
    },
    {
      "inputs": [
        {
          "internalType": "address",
          "name": "account",
          "type": "address"
        },
        {
          "internalType": "uint256",
          "name": "id",
          "type": "uint256"
        }
      ],
      "name": "balanceOf",
      "outputs": [
        {
          "internalType": "uint256",
          "name": "",
          "type": "uint256"
        }
      ],
      "stateMutability": "view",
      "type": "function"
    },
    {
      "inputs": [
        {
          "internalType": "address[]",
          "name": "accounts",
          "type": "address[]"
        },
        {
          "internalType": "uint256[]",
          "name": "ids",
          "type": "uint256[]"
        }
      ],
      "name": "balanceOfBatch",
      "outputs": [
        {
          "internalType": "uint256[]",
          "name": "",
          "type": "uint256[]"
        }
      ],
      "stateMutability": "view",
      "type": "function"
    },
    {
      "inputs": [
        {
          "internalType": "uint256",
          "name": "creationId",
          "type": "uint256"
        },
        {
          "internalType": "uint32",
          "name": "amount",
          "type": "uint32"
        },
        {
          "internalType": "address",
          "name": "curator",
          "type": "address"
        }
      ],
      "name": "buy",
      "outputs": [],
      "stateMutability": "payable",
      "type": "function"
    },
    {
      "inputs": [],
      "name": "creationIndex",
      "outputs": [
        {
          "internalType": "uint256",
          "name": "",
          "type": "uint256"
        }
      ],
      "stateMutability": "view",
      "type": "function"
    },
    {
      "inputs": [
        {
          "internalType": "uint256",
          "name": "id",
          "type": "uint256"
        }
      ],
      "name": "creationSupply",
      "outputs": [
        {
          "internalType": "uint256",
          "name": "",
          "type": "uint256"
        }
      ],
      "stateMutability": "view",
      "type": "function"
    },
    {
      "inputs": [
        {
          "internalType": "uint256",
          "name": "",
          "type": "uint256"
        }
      ],
      "name": "creations",
      "outputs": [
        {
          "internalType": "uint256",
          "name": "id",
          "type": "uint256"
        },
        {
          "internalType": "uint256",
          "name": "appId",
          "type": "uint256"
        },
        {
          "internalType": "address",
          "name": "creator",
          "type": "address"
        },
        {
          "internalType": "string",
          "name": "uri",
          "type": "string"
        },
        {
          "internalType": "uint256",
          "name": "curatorFeePercent",
          "type": "uint256"
        },
        {
          "components": [
            {
              "internalType": "uint96",
              "name": "basePrice",
              "type": "uint96"
            },
            {
              "internalType": "uint32",
              "name": "inflectionPoint",
              "type": "uint32"
            },
            {
              "internalType": "uint128",
              "name": "inflectionPrice",
              "type": "uint128"
            },
            {
              "internalType": "uint128",
              "name": "linearPriceSlope",
              "type": "uint128"
            }
          ],
          "internalType": "struct IndieX.Curve",
          "name": "curve",
          "type": "tuple"
        },
        {
          "internalType": "uint8",
          "name": "farmer",
          "type": "uint8"
        },
        {
          "internalType": "bool",
          "name": "isFarming",
          "type": "bool"
        },
        {
          "internalType": "uint256",
          "name": "balance",
          "type": "uint256"
        },
        {
          "internalType": "uint256",
          "name": "volume",
          "type": "uint256"
        }
      ],
      "stateMutability": "view",
      "type": "function"
    },
    {
      "inputs": [
        {
          "internalType": "uint256",
          "name": "id",
          "type": "uint256"
        }
      ],
      "name": "exists",
      "outputs": [
        {
          "internalType": "bool",
          "name": "",
          "type": "bool"
        }
      ],
      "stateMutability": "view",
      "type": "function"
    },
    {
      "inputs": [],
      "name": "farmerIndex",
      "outputs": [
        {
          "internalType": "uint8",
          "name": "",
          "type": "uint8"
        }
      ],
      "stateMutability": "view",
      "type": "function"
    },
    {
      "inputs": [
        {
          "internalType": "uint8",
          "name": "",
          "type": "uint8"
        }
      ],
      "name": "farmers",
      "outputs": [
        {
          "internalType": "address",
          "name": "",
          "type": "address"
        }
      ],
      "stateMutability": "view",
      "type": "function"
    },
    {
      "inputs": [
        {
          "internalType": "uint256",
          "name": "id",
          "type": "uint256"
        }
      ],
      "name": "getApp",
      "outputs": [
        {
          "components": [
            {
              "internalType": "uint256",
              "name": "id",
              "type": "uint256"
            },
            {
              "internalType": "address",
              "name": "creator",
              "type": "address"
            },
            {
              "internalType": "string",
              "name": "uri",
              "type": "string"
            },
            {
              "internalType": "address",
              "name": "feeTo",
              "type": "address"
            },
            {
              "internalType": "uint256",
              "name": "appFeePercent",
              "type": "uint256"
            },
            {
              "internalType": "uint256",
              "name": "creatorFeePercent",
              "type": "uint256"
            }
          ],
          "internalType": "struct IndieX.App",
          "name": "",
          "type": "tuple"
        }
      ],
      "stateMutability": "view",
      "type": "function"
    },
    {
      "inputs": [
        {
          "internalType": "uint256",
          "name": "creationId",
          "type": "uint256"
        },
        {
          "internalType": "uint32",
          "name": "amount",
          "type": "uint32"
        }
      ],
      "name": "getBuyPrice",
      "outputs": [
        {
          "internalType": "uint256",
          "name": "",
          "type": "uint256"
        }
      ],
      "stateMutability": "view",
      "type": "function"
    },
    {
      "inputs": [
        {
          "internalType": "uint256",
          "name": "creationId",
          "type": "uint256"
        },
        {
          "internalType": "uint32",
          "name": "amount",
          "type": "uint32"
        },
        {
          "internalType": "uint256",
          "name": "appId",
          "type": "uint256"
        }
      ],
      "name": "getBuyPriceAfterFee",
      "outputs": [
        {
          "components": [
            {
              "internalType": "uint256",
              "name": "priceAfterFee",
              "type": "uint256"
            },
            {
              "internalType": "uint256",
              "name": "price",
              "type": "uint256"
            },
            {
              "internalType": "uint256",
              "name": "creatorFee",
              "type": "uint256"
            },
            {
              "internalType": "uint256",
              "name": "appFee",
              "type": "uint256"
            },
            {
              "internalType": "uint256",
              "name": "protocolFee",
              "type": "uint256"
            }
          ],
          "internalType": "struct IndieX.PriceInfo",
          "name": "",
          "type": "tuple"
        }
      ],
      "stateMutability": "view",
      "type": "function"
    },
    {
      "inputs": [
        {
          "internalType": "uint256",
          "name": "id",
          "type": "uint256"
        }
      ],
      "name": "getCreation",
      "outputs": [
        {
          "components": [
            {
              "internalType": "uint256",
              "name": "id",
              "type": "uint256"
            },
            {
              "internalType": "uint256",
              "name": "appId",
              "type": "uint256"
            },
            {
              "internalType": "address",
              "name": "creator",
              "type": "address"
            },
            {
              "internalType": "string",
              "name": "uri",
              "type": "string"
            },
            {
              "internalType": "uint256",
              "name": "curatorFeePercent",
              "type": "uint256"
            },
            {
              "components": [
                {
                  "internalType": "uint96",
                  "name": "basePrice",
                  "type": "uint96"
                },
                {
                  "internalType": "uint32",
                  "name": "inflectionPoint",
                  "type": "uint32"
                },
                {
                  "internalType": "uint128",
                  "name": "inflectionPrice",
                  "type": "uint128"
                },
                {
                  "internalType": "uint128",
                  "name": "linearPriceSlope",
                  "type": "uint128"
                }
              ],
              "internalType": "struct IndieX.Curve",
              "name": "curve",
              "type": "tuple"
            },
            {
              "internalType": "uint8",
              "name": "farmer",
              "type": "uint8"
            },
            {
              "internalType": "bool",
              "name": "isFarming",
              "type": "bool"
            },
            {
              "internalType": "uint256",
              "name": "balance",
              "type": "uint256"
            },
            {
              "internalType": "uint256",
              "name": "volume",
              "type": "uint256"
            }
          ],
          "internalType": "struct IndieX.Creation",
          "name": "",
          "type": "tuple"
        }
      ],
      "stateMutability": "view",
      "type": "function"
    },
    {
      "inputs": [
        {
          "internalType": "uint256",
          "name": "creationId",
          "type": "uint256"
        },
        {
          "internalType": "uint32",
          "name": "amount",
          "type": "uint32"
        }
      ],
      "name": "getSellPrice",
      "outputs": [
        {
          "internalType": "uint256",
          "name": "",
          "type": "uint256"
        }
      ],
      "stateMutability": "view",
      "type": "function"
    },
    {
      "inputs": [
        {
          "internalType": "uint256",
          "name": "creationId",
          "type": "uint256"
        },
        {
          "internalType": "uint32",
          "name": "amount",
          "type": "uint32"
        },
        {
          "internalType": "uint256",
          "name": "appId",
          "type": "uint256"
        }
      ],
      "name": "getSellPriceAfterFee",
      "outputs": [
        {
          "components": [
            {
              "internalType": "uint256",
              "name": "priceAfterFee",
              "type": "uint256"
            },
            {
              "internalType": "uint256",
              "name": "price",
              "type": "uint256"
            },
            {
              "internalType": "uint256",
              "name": "creatorFee",
              "type": "uint256"
            },
            {
              "internalType": "uint256",
              "name": "appFee",
              "type": "uint256"
            },
            {
              "internalType": "uint256",
              "name": "protocolFee",
              "type": "uint256"
            }
          ],
          "internalType": "struct IndieX.PriceInfo",
          "name": "",
          "type": "tuple"
        }
      ],
      "stateMutability": "view",
      "type": "function"
    },
    {
      "inputs": [
        {
          "components": [
            {
              "internalType": "uint256",
              "name": "id",
              "type": "uint256"
            },
            {
              "internalType": "uint256",
              "name": "appId",
              "type": "uint256"
            },
            {
              "internalType": "address",
              "name": "creator",
              "type": "address"
            },
            {
              "internalType": "string",
              "name": "uri",
              "type": "string"
            },
            {
              "internalType": "uint256",
              "name": "curatorFeePercent",
              "type": "uint256"
            },
            {
              "components": [
                {
                  "internalType": "uint96",
                  "name": "basePrice",
                  "type": "uint96"
                },
                {
                  "internalType": "uint32",
                  "name": "inflectionPoint",
                  "type": "uint32"
                },
                {
                  "internalType": "uint128",
                  "name": "inflectionPrice",
                  "type": "uint128"
                },
                {
                  "internalType": "uint128",
                  "name": "linearPriceSlope",
                  "type": "uint128"
                }
              ],
              "internalType": "struct IndieX.Curve",
              "name": "curve",
              "type": "tuple"
            },
            {
              "internalType": "uint8",
              "name": "farmer",
              "type": "uint8"
            },
            {
              "internalType": "bool",
              "name": "isFarming",
              "type": "bool"
            },
            {
              "internalType": "uint256",
              "name": "balance",
              "type": "uint256"
            },
            {
              "internalType": "uint256",
              "name": "volume",
              "type": "uint256"
            }
          ],
          "internalType": "struct IndieX.Creation",
          "name": "creation",
          "type": "tuple"
        },
        {
          "internalType": "uint32",
          "name": "fromSupply",
          "type": "uint32"
        },
        {
          "internalType": "uint32",
          "name": "quantity",
          "type": "uint32"
        }
      ],
      "name": "getSubTotal",
      "outputs": [
        {
          "internalType": "uint256",
          "name": "",
          "type": "uint256"
        }
      ],
      "stateMutability": "pure",
      "type": "function"
    },
    {
      "inputs": [
        {
          "internalType": "address",
          "name": "creator",
          "type": "address"
        }
      ],
      "name": "getUserCreations",
      "outputs": [
        {
          "internalType": "uint256[]",
          "name": "",
          "type": "uint256[]"
        }
      ],
      "stateMutability": "view",
      "type": "function"
    },
    {
      "inputs": [
        {
          "internalType": "address",
          "name": "creator",
          "type": "address"
        }
      ],
      "name": "getUserLatestCreation",
      "outputs": [
        {
          "components": [
            {
              "internalType": "uint256",
              "name": "id",
              "type": "uint256"
            },
            {
              "internalType": "uint256",
              "name": "appId",
              "type": "uint256"
            },
            {
              "internalType": "address",
              "name": "creator",
              "type": "address"
            },
            {
              "internalType": "string",
              "name": "uri",
              "type": "string"
            },
            {
              "internalType": "uint256",
              "name": "curatorFeePercent",
              "type": "uint256"
            },
            {
              "components": [
                {
                  "internalType": "uint96",
                  "name": "basePrice",
                  "type": "uint96"
                },
                {
                  "internalType": "uint32",
                  "name": "inflectionPoint",
                  "type": "uint32"
                },
                {
                  "internalType": "uint128",
                  "name": "inflectionPrice",
                  "type": "uint128"
                },
                {
                  "internalType": "uint128",
                  "name": "linearPriceSlope",
                  "type": "uint128"
                }
              ],
              "internalType": "struct IndieX.Curve",
              "name": "curve",
              "type": "tuple"
            },
            {
              "internalType": "uint8",
              "name": "farmer",
              "type": "uint8"
            },
            {
              "internalType": "bool",
              "name": "isFarming",
              "type": "bool"
            },
            {
              "internalType": "uint256",
              "name": "balance",
              "type": "uint256"
            },
            {
              "internalType": "uint256",
              "name": "volume",
              "type": "uint256"
            }
          ],
          "internalType": "struct IndieX.Creation",
          "name": "creation",
          "type": "tuple"
        }
      ],
      "stateMutability": "view",
      "type": "function"
    },
    {
      "inputs": [
        {
          "internalType": "address",
          "name": "account",
          "type": "address"
        },
        {
          "internalType": "address",
          "name": "operator",
          "type": "address"
        }
      ],
      "name": "isApprovedForAll",
      "outputs": [
        {
          "internalType": "bool",
          "name": "",
          "type": "bool"
        }
      ],
      "stateMutability": "view",
      "type": "function"
    },
    {
      "inputs": [
        {
          "components": [
            {
              "internalType": "string",
              "name": "uri",
              "type": "string"
            },
            {
              "internalType": "address",
              "name": "feeTo",
              "type": "address"
            },
            {
              "internalType": "uint256",
              "name": "appFeePercent",
              "type": "uint256"
            },
            {
              "internalType": "uint256",
              "name": "creatorFeePercent",
              "type": "uint256"
            }
          ],
          "internalType": "struct IndieX.UpsertAppInput",
          "name": "input",
          "type": "tuple"
        }
      ],
      "name": "newApp",
      "outputs": [],
      "stateMutability": "nonpayable",
      "type": "function"
    },
    {
      "inputs": [
        {
          "components": [
            {
              "internalType": "uint256",
              "name": "appId",
              "type": "uint256"
            },
            {
              "internalType": "string",
              "name": "uri",
              "type": "string"
            },
            {
              "internalType": "uint256",
              "name": "curatorFeePercent",
              "type": "uint256"
            },
            {
              "components": [
                {
                  "internalType": "uint96",
                  "name": "basePrice",
                  "type": "uint96"
                },
                {
                  "internalType": "uint32",
                  "name": "inflectionPoint",
                  "type": "uint32"
                },
                {
                  "internalType": "uint128",
                  "name": "inflectionPrice",
                  "type": "uint128"
                },
                {
                  "internalType": "uint128",
                  "name": "linearPriceSlope",
                  "type": "uint128"
                }
              ],
              "internalType": "struct IndieX.Curve",
              "name": "curve",
              "type": "tuple"
            },
            {
              "internalType": "uint8",
              "name": "farmer",
              "type": "uint8"
            },
            {
              "internalType": "bool",
              "name": "isFarming",
              "type": "bool"
            }
          ],
          "internalType": "struct IndieX.NewCreationInput",
          "name": "input",
          "type": "tuple"
        }
      ],
      "name": "newCreation",
      "outputs": [
        {
          "internalType": "uint256",
          "name": "creationId",
          "type": "uint256"
        }
      ],
      "stateMutability": "nonpayable",
      "type": "function"
    },
    {
      "inputs": [],
      "name": "owner",
      "outputs": [
        {
          "internalType": "address",
          "name": "",
          "type": "address"
        }
      ],
      "stateMutability": "view",
      "type": "function"
    },
    {
      "inputs": [],
      "name": "protocolFeePercent",
      "outputs": [
        {
          "internalType": "uint256",
          "name": "",
          "type": "uint256"
        }
      ],
      "stateMutability": "view",
      "type": "function"
    },
    {
      "inputs": [],
      "name": "protocolFeeTo",
      "outputs": [
        {
          "internalType": "address",
          "name": "",
          "type": "address"
        }
      ],
      "stateMutability": "view",
      "type": "function"
    },
    {
      "inputs": [],
      "name": "renounceOwnership",
      "outputs": [],
      "stateMutability": "nonpayable",
      "type": "function"
    },
    {
      "inputs": [
        {
          "internalType": "address",
          "name": "from",
          "type": "address"
        },
        {
          "internalType": "address",
          "name": "to",
          "type": "address"
        },
        {
          "internalType": "uint256[]",
          "name": "ids",
          "type": "uint256[]"
        },
        {
          "internalType": "uint256[]",
          "name": "values",
          "type": "uint256[]"
        },
        {
          "internalType": "bytes",
          "name": "data",
          "type": "bytes"
        }
      ],
      "name": "safeBatchTransferFrom",
      "outputs": [],
      "stateMutability": "nonpayable",
      "type": "function"
    },
    {
      "inputs": [
        {
          "internalType": "address",
          "name": "from",
          "type": "address"
        },
        {
          "internalType": "address",
          "name": "to",
          "type": "address"
        },
        {
          "internalType": "uint256",
          "name": "id",
          "type": "uint256"
        },
        {
          "internalType": "uint256",
          "name": "value",
          "type": "uint256"
        },
        {
          "internalType": "bytes",
          "name": "data",
          "type": "bytes"
        }
      ],
      "name": "safeTransferFrom",
      "outputs": [],
      "stateMutability": "nonpayable",
      "type": "function"
    },
    {
      "inputs": [
        {
          "internalType": "uint256",
          "name": "creationId",
          "type": "uint256"
        },
        {
          "internalType": "uint32",
          "name": "amount",
          "type": "uint32"
        }
      ],
      "name": "sell",
      "outputs": [],
      "stateMutability": "nonpayable",
      "type": "function"
    },
    {
      "inputs": [
        {
          "internalType": "address",
          "name": "operator",
          "type": "address"
        },
        {
          "internalType": "bool",
          "name": "approved",
          "type": "bool"
        }
      ],
      "name": "setApprovalForAll",
      "outputs": [],
      "stateMutability": "nonpayable",
      "type": "function"
    },
    {
      "inputs": [
        {
          "internalType": "uint256",
          "name": "_feePercent",
          "type": "uint256"
        }
      ],
      "name": "setProtocolFeePercent",
      "outputs": [],
      "stateMutability": "nonpayable",
      "type": "function"
    },
    {
      "inputs": [
        {
          "internalType": "address",
          "name": "_feeTo",
          "type": "address"
        }
      ],
      "name": "setProtocolFeeTo",
      "outputs": [],
      "stateMutability": "nonpayable",
      "type": "function"
    },
    {
      "inputs": [
        {
          "internalType": "bytes4",
          "name": "interfaceId",
          "type": "bytes4"
        }
      ],
      "name": "supportsInterface",
      "outputs": [
        {
          "internalType": "bool",
          "name": "",
          "type": "bool"
        }
      ],
      "stateMutability": "view",
      "type": "function"
    },
    {
      "inputs": [],
      "name": "totalSupply",
      "outputs": [
        {
          "internalType": "uint256",
          "name": "",
          "type": "uint256"
        }
      ],
      "stateMutability": "view",
      "type": "function"
    },
    {
      "inputs": [
        {
          "internalType": "uint256",
          "name": "id",
          "type": "uint256"
        }
      ],
      "name": "totalSupply",
      "outputs": [
        {
          "internalType": "uint256",
          "name": "",
          "type": "uint256"
        }
      ],
      "stateMutability": "view",
      "type": "function"
    },
    {
      "inputs": [
        {
          "internalType": "address",
          "name": "newOwner",
          "type": "address"
        }
      ],
      "name": "transferOwnership",
      "outputs": [],
      "stateMutability": "nonpayable",
      "type": "function"
    },
    {
      "inputs": [
        {
          "internalType": "uint256",
          "name": "id",
          "type": "uint256"
        },
        {
          "components": [
            {
              "internalType": "string",
              "name": "uri",
              "type": "string"
            },
            {
              "internalType": "address",
              "name": "feeTo",
              "type": "address"
            },
            {
              "internalType": "uint256",
              "name": "appFeePercent",
              "type": "uint256"
            },
            {
              "internalType": "uint256",
              "name": "creatorFeePercent",
              "type": "uint256"
            }
          ],
          "internalType": "struct IndieX.UpsertAppInput",
          "name": "input",
          "type": "tuple"
        }
      ],
      "name": "updateApp",
      "outputs": [],
      "stateMutability": "nonpayable",
      "type": "function"
    },
    {
      "inputs": [
        {
          "internalType": "uint256",
          "name": "id",
          "type": "uint256"
        },
        {
          "components": [
            {
              "internalType": "string",
              "name": "uri",
              "type": "string"
            },
            {
              "internalType": "uint256",
              "name": "curatorFeePercent",
              "type": "uint256"
            }
          ],
          "internalType": "struct IndieX.UpdateCreationInput",
          "name": "input",
          "type": "tuple"
        }
      ],
      "name": "updateCreation",
      "outputs": [],
      "stateMutability": "nonpayable",
      "type": "function"
    },
    {
      "inputs": [
        {
          "internalType": "uint256",
          "name": "",
          "type": "uint256"
        }
      ],
      "name": "uri",
      "outputs": [
        {
          "internalType": "string",
          "name": "",
          "type": "string"
        }
      ],
      "stateMutability": "view",
      "type": "function"
    },
    {
      "inputs": [
        {
          "internalType": "address",
          "name": "",
          "type": "address"
        },
        {
          "internalType": "uint256",
          "name": "",
          "type": "uint256"
        }
      ],
      "name": "userCreations",
      "outputs": [
        {
          "internalType": "uint256",
          "name": "",
          "type": "uint256"
        }
      ],
      "stateMutability": "view",
      "type": "function"
    },
    {
      "stateMutability": "payable",
      "type": "receive"
    }
  ],
  "transactionHash": "0x1e237ce86ef3d07ab0326740e7e1e18f813319c469fb1340282aff1cc683cbf5",
  "args": [
    "0x45aBBC64421a54CbffF878985AE6c4F0cfacfDb7"
  ],
  "numDeployments": 3,
  "solcInputHash": "141e7bb4098e7b8e9c3e3b48ea641b97",
  "bytecode": "0x60806040526007805460ff19169055600060088190556009819055600a55662386f26fc10000600b553480156200003557600080fd5b5060405162004af138038062004af183398101604081905262000058916200011d565b604080516020810190915260008152816001600160a01b0381166200009757604051631e4fbdf760e01b81526000600482015260240160405180910390fd5b620000a281620000bb565b50620000ae816200010b565b50506001600655620002c0565b600080546001600160a01b038381166001600160a01b0319831681178455604051919092169283917f8be0079c531659141344cd1fd0a4f28419497f9722a3daafe3b4186f6b6457e09190a35050565b6003620001198282620001f4565b5050565b6000602082840312156200013057600080fd5b81516001600160a01b03811681146200014857600080fd5b9392505050565b634e487b7160e01b600052604160045260246000fd5b600181811c908216806200017a57607f821691505b6020821081036200019b57634e487b7160e01b600052602260045260246000fd5b50919050565b601f821115620001ef57600081815260208120601f850160051c81016020861015620001ca5750805b601f850160051c820191505b81811015620001eb57828155600101620001d6565b5050505b505050565b81516001600160401b038111156200021057620002106200014f565b620002288162000221845462000165565b84620001a1565b602080601f831160018114620002605760008415620002475750858301515b600019600386901b1c1916600185901b178555620001eb565b600085815260208120601f198616915b82811015620002915788860151825594840194600190910190840162000270565b5085821015620002b05787850151600019600388901b60f8161c191681555b5050505050600190811b01905550565b61482180620002d06000396000f3fe6080604052600436106102af5760003560e01c806380c3f96d1161016c578063c8d8cf88116100ca578063e0e6799f11610084578063f242432a11610061578063f242432a1461089e578063f2fde38b146108be578063fba41ebe146108de57005b8063e0e6799f14610815578063e985e9c514610835578063ef3692521461087e57005b8063ceee47fa116100b2578063ceee47fa146107bf578063d6e6eb9f146107df578063d935e222146107f557005b8063c8d8cf8814610789578063cec8c97f1461079f57005b8063a498342111610126578063c5bae68611610103578063c5bae68614610729578063c6fdbc9014610749578063c75d54791461076957005b8063a4983421146106bc578063bd85b039146106dc578063c3dee4be1461070957005b80638da5cb5b116101545780638da5cb5b1461065e578063a0fae0e91461067c578063a22cb4651461069c57005b806380c3f96d146106085780638557a5311461062857005b806343e235ff116102195780635e48327d116101d3578063715018a6116101b0578063715018a61461059057806379d36638146105a55780637ffb25ac146105f357005b80635e48327d146105115780635efdf6281461053157806361acc37e1461055e57005b80634e1273f4116102015780634e1273f4146104605780634f558e79146104805780635e2cd5f4146104af57005b806343e235ff1461042a5780634d121ec11461044a57005b8063269ba52c1161026a578063315a75f911610252578063315a75f9146103d75780633470b2c4146103f7578063410d3c021461040a57005b8063269ba52c1461038a5780632eb2c2d6146103b757005b80630e89341c116102985780630e89341c1461031b57806318160ddd1461034857806324f3a51b1461035d57005b8062fdd58e146102b857806301ffc9a7146102eb57005b366102b657005b005b3480156102c457600080fd5b506102d86102d3366004613850565b61090a565b6040519081526020015b60405180910390f35b3480156102f757600080fd5b5061030b610306366004613890565b610934565b60405190151581526020016102e2565b34801561032757600080fd5b5061033b6103363660046138ad565b6109cf565b6040516102e2919061390c565b34801561035457600080fd5b506005546102d8565b34801561036957600080fd5b5061037d6103783660046138ad565b610a63565b6040516102e2919061391f565b34801561039657600080fd5b506103aa6103a5366004613989565b610ba8565b6040516102e291906139df565b3480156103c357600080fd5b506102b66103d2366004613ba8565b610c13565b3480156103e357600080fd5b506102b66103f2366004613c52565b610c9e565b6102b6610405366004613cff565b610dd3565b34801561041657600080fd5b506102d86104253660046138ad565b61128f565b34801561043657600080fd5b506102d8610445366004613850565b6112a3565b34801561045657600080fd5b506102d860095481565b34801561046c57600080fd5b506103aa61047b366004613d3b565b6112d4565b34801561048c57600080fd5b5061030b61049b3660046138ad565b600090815260046020526040902054151590565b3480156104bb57600080fd5b506104cf6104ca366004613dfb565b6113a9565b6040516102e29190600060a082019050825182526020830151602083015260408301516040830152606083015160608301526080830151608083015292915050565b34801561051d57600080fd5b506102d861052c366004613e30565b6113f0565b34801561053d57600080fd5b5061055161054c366004613989565b611405565b6040516102e29190613e5c565b34801561056a57600080fd5b5061057e6105793660046138ad565b6116ab565b6040516102e296959493929190613f45565b34801561059c57600080fd5b506102b661177e565b3480156105b157600080fd5b506105db6105c0366004613f9c565b600d602052600090815260409020546001600160a01b031681565b6040516001600160a01b0390911681526020016102e2565b3480156105ff57600080fd5b506102d8600181565b34801561061457600080fd5b506102b6610623366004613989565b611792565b34801561063457600080fd5b506106486106433660046138ad565b611828565b6040516102e29a99989796959493929190613fb7565b34801561066a57600080fd5b506000546001600160a01b03166105db565b34801561068857600080fd5b506102d8610697366004614105565b611964565b3480156106a857600080fd5b506102b66106b7366004614208565b611995565b3480156106c857600080fd5b506102b66106d73660046138ad565b6119a4565b3480156106e857600080fd5b506102d86106f73660046138ad565b60009081526004602052604090205490565b34801561071557600080fd5b506102b661072436600461429f565b611a44565b34801561073557600080fd5b506102b66107443660046142d4565b611c2b565b34801561075557600080fd5b506105516107643660046138ad565b611e38565b34801561077557600080fd5b506102d8610784366004614311565b61202a565b34801561079557600080fd5b506102d860085481565b3480156107ab57600080fd5b506102d86107ba366004613e30565b61227f565b3480156107cb57600080fd5b506104cf6107da366004613dfb565b61228d565b3480156107eb57600080fd5b506102d8600b5481565b34801561080157600080fd5b506102b6610810366004613e30565b6122cc565b34801561082157600080fd5b506102b6610830366004613989565b61273d565b34801561084157600080fd5b5061030b6108503660046143c8565b6001600160a01b03918216600090815260026020908152604080832093909416825291909152205460ff1690565b34801561088a57600080fd5b50600c546105db906001600160a01b031681565b3480156108aa57600080fd5b506102b66108b93660046143f2565b6127a1565b3480156108ca57600080fd5b506102b66108d9366004613989565b61281f565b3480156108ea57600080fd5b506007546108f89060ff1681565b60405160ff90911681526020016102e2565b60008181526001602090815260408083206001600160a01b03861684529091529020545b92915050565b60006001600160e01b031982167fd9b67a2600000000000000000000000000000000000000000000000000000000148061099757506001600160e01b031982167f0e89341c00000000000000000000000000000000000000000000000000000000145b8061092e57507f01ffc9a7000000000000000000000000000000000000000000000000000000006001600160e01b031983161461092e565b6060600380546109de90614457565b80601f0160208091040260200160405190810160405280929190818152602001828054610a0a90614457565b8015610a575780601f10610a2c57610100808354040283529160200191610a57565b820191906000526020600020905b815481529060010190602001808311610a3a57829003601f168201915b50505050509050919050565b610aae6040518060c001604052806000815260200160006001600160a01b031681526020016060815260200160006001600160a01b0316815260200160008152602001600081525090565b6000828152600e6020908152604091829020825160c0810184528154815260018201546001600160a01b0316928101929092526002810180549293919291840191610af890614457565b80601f0160208091040260200160405190810160405280929190818152602001828054610b2490614457565b8015610b715780601f10610b4657610100808354040283529160200191610b71565b820191906000526020600020905b815481529060010190602001808311610b5457829003601f168201915b505050918352505060038201546001600160a01b031660208201526004820154604082015260059091015460609091015292915050565b6001600160a01b038116600090815260106020908152604091829020805483518184028101840190945280845260609392830182828015610a5757602002820191906000526020600020905b815481526020019060010190808311610bf45750505050509050919050565b336001600160a01b0386168114801590610c5357506001600160a01b0380871660009081526002602090815260408083209385168352929052205460ff16155b15610c895760405163711bec9160e11b81526001600160a01b038083166004830152871660248201526044015b60405180910390fd5b610c968686868686612876565b505050505050565b6000828152600f6020526040902060028101546001600160a01b0316610d065760405162461bcd60e51b815260206004820152601460248201527f4372656174696f6e206e6f7420657869737465640000000000000000000000006044820152606401610c80565b60028101546001600160a01b03163314610d625760405162461bcd60e51b815260206004820181905260248201527f4f6e6c792063726561746f722063616e20757064617465204372656174696f6e6044820152606401610c80565b81516003820190610d7390826144d1565b506020820151600482015560018101546002820154825484516040516001600160a01b03909316927fcbba2aa0e57e497c9f3361897e44f181ee289d85c21bc9892dea18bcf8c84fdf91610dc69161390c565b60405180910390a4505050565b610ddb6128dd565b60008263ffffffff1611610e315760405162461bcd60e51b815260206004820152601960248201527f42757920616d6f756e742063616e6e6f74206265207a65726f000000000000006044820152606401610c80565b6009548310610e825760405162461bcd60e51b815260206004820152601760248201527f4372656174696f6e20646f6573206e6f742065786973740000000000000000006044820152606401610c80565b6000838152600f602052604081206001810154909190610ea590869086906113a9565b8051909150341015610ef95760405162461bcd60e51b815260206004820152601460248201527f496e73756666696369656e74207061796d656e740000000000000000000000006044820152606401610c80565b8060200151600a6000828254610f0f91906145a7565b90915550506020810151600883018054600090610f2d9084906145a7565b90915550506020810151600983018054600090610f4b9084906145a7565b92505081905550610f7333868663ffffffff1660405180602001604052806000815250612920565b6007820154610100900460ff161561100f57600782015460ff166000908152600d6020908152604090912054908201516001600160a01b0390911690610fba90829061297d565b806001600160a01b031663d0e30db06040518163ffffffff1660e01b8152600401600060405180830381600087803b158015610ff557600080fd5b505af1158015611009573d6000803e3d6000fd5b50505050505b60006001600160a01b0384161561108357670de0b6b3a76400008360040154836040015161103d91906145ba565b61104791906145d1565b60028401546040840151919250611074916001600160a01b039091169061106f9084906145f3565b61297d565b61107e848261297d565b6110a0565b600283015460408301516110a0916001600160a01b03169061297d565b6060820151156111b7576001808401546000908152600e60209081526040808320815160c08101835281548152948101546001600160a01b031692850192909252600282018054939493918401916110f790614457565b80601f016020809104026020016040519081016040528092919081815260200182805461112390614457565b80156111705780601f1061114557610100808354040283529160200191611170565b820191906000526020600020905b81548152906001019060200180831161115357829003601f168201915b505050918352505060038201546001600160a01b031660208201526004820154604082015260059091015460609182015281810151908501519192506111b59161297d565b505b6080820151156111dc57600c5460808301516111dc916001600160a01b03169061297d565b81516000906111eb90346145f3565b905080156111fd576111fd338261297d565b8251604080850151606080870151608080890151855163ffffffff8e168152602081019790975294860193909352908401528201526001600160a01b03861660a082015260c08101839052339088906001907f5e8ec80ece70688f5dfe49f24be4ed9b0d314d69abdd270b44b7718882ff6b939060e00160405180910390a45050505061128a6001600655565b505050565b60008181526004602052604081205461092e565b601060205281600052604060002081815481106112bf57600080fd5b90600052602060002001600091509150505481565b606081518351146113055781518351604051635b05999160e01b815260048101929092526024820152604401610c80565b6000835167ffffffffffffffff811115611321576113216139f2565b60405190808252806020026020018201604052801561134a578160200160208202803683370190505b50905060005b84518110156113a1576020808202860101516113749060208084028701015161090a565b82828151811061138657611386614606565b602090810291909101015261139a8161461c565b9050611350565b509392505050565b6113db6040518060a0016040528060008152602001600081526020016000815260200160008152602001600081525090565b6113e88484846001612a20565b949350505050565b60006113fe83836000612c56565b9392505050565b6114786040805161014081018252600080825260208083018290528284018290526060808401819052608080850184905285519081018652838152918201839052938101829052928301529060a08201908152600060208201819052604082018190526060820181905260809091015290565b6001600160a01b0382166000908152601060209081526040808320805482518185028101850190935280835291929091908301828280156114d857602002820191906000526020600020905b8154815260200190600101908083116114c4575b505050505090506000815111156116a557600f600082600184516114fc91906145f3565b8151811061150c5761150c614606565b602002602001015181526020019081526020016000206040518061014001604052908160008201548152602001600182015481526020016002820160009054906101000a90046001600160a01b03166001600160a01b03166001600160a01b0316815260200160038201805461158190614457565b80601f01602080910402602001604051908101604052809291908181526020018280546115ad90614457565b80156115fa5780601f106115cf576101008083540402835291602001916115fa565b820191906000526020600020905b8154815290600101906020018083116115dd57829003601f168201915b50505091835250506004820154602080830191909152604080516080808201835260058601546bffffffffffffffffffffffff81168352600160601b810463ffffffff1694830194909452600160801b9093046001600160801b039081168284015260068601541660608083019190915291840152600784015460ff80821692850192909252610100900416151590820152600882015460a082015260099091015460c09091015291505b50919050565b600e6020526000908152604090208054600182015460028301805492936001600160a01b03909216926116dd90614457565b80601f016020809104026020016040519081016040528092919081815260200182805461170990614457565b80156117565780601f1061172b57610100808354040283529160200191611756565b820191906000526020600020905b81548152906001019060200180831161173957829003601f168201915b505050506003830154600484015460059094015492936001600160a01b039091169290915086565b611786612e1a565b6117906000612e60565b565b61179a612e1a565b6007805460ff9081166000908152600d602052604080822080546001600160a01b0319166001600160a01b038716908117909155935490519216917f2226942937615a3decf2f421ffaa1491d7a4d76a0e382719f1e9a486ebb63ab69190a36007805460ff1690600061180c83614635565b91906101000a81548160ff021916908360ff1602179055505050565b600f602052600090815260409020805460018201546002830154600384018054939492936001600160a01b03909216929161186290614457565b80601f016020809104026020016040519081016040528092919081815260200182805461188e90614457565b80156118db5780601f106118b0576101008083540402835291602001916118db565b820191906000526020600020905b8154815290600101906020018083116118be57829003601f168201915b5050505060048301546040805160808101825260058601546bffffffffffffffffffffffff81168252600160601b810463ffffffff166020830152600160801b90046001600160801b039081169282019290925260068601549091166060820152600785015460088601546009909601549495929491935060ff8082169361010090920416918a565b6000808460a00151905061198c84848360000151846020015185604001518660600151612eb0565b95945050505050565b6119a0338383612f03565b5050565b6119ac612e1a565b662386f26fc10000811115611a035760405162461bcd60e51b815260206004820181905260248201527f70726f746f636f6c46656550657263656e74206d757374206265203c3d2031256044820152606401610c80565b600b5460408051918252602082018390527f219d87b3822c2cd9103f559e66b1fa6683e5a41c1dde2e43ee26577e40f637be910160405180910390a1600b55565b60208101516001600160a01b0316611a9e5760405162461bcd60e51b815260206004820152601560248201527f496e76616c696420666565546f206164647265737300000000000000000000006044820152606401610c80565b67016345785d8a000081604001511115611afa5760405162461bcd60e51b815260206004820152601c60248201527f61707046656550657263656e74206d757374206265203c3d20313025000000006044820152606401610c80565b6040805160c0810182526008548082523360208084019182528551848601908152868201516001600160a01b0390811660608088019190915288880151608088015288015160a08701526000948552600e909252949092208351815590516001820180546001600160a01b031916919093161790915591519091906002820190611b8490826144d1565b506060828101516003830180546001600160a01b0319166001600160a01b039092169190911790556080830151600483015560a0909201516005909101556008548251602084015160408086015194860151905133957f448c6815b4c1b9606fedfece55d55dad1668ed986d5e10773225260efa9d7b6295611c0b95909490939092614654565b60405180910390a260088054906000611c238361461c565b919050555050565b6000828152600e6020526040902060018101546001600160a01b0316611c935760405162461bcd60e51b815260206004820152600f60248201527f417070206e6f74206578697374656400000000000000000000000000000000006044820152606401610c80565b60018101546001600160a01b03163314611cef5760405162461bcd60e51b815260206004820152601b60248201527f4f6e6c792063726561746f722063616e207570646174652041707000000000006044820152606401610c80565b60208201516001600160a01b0316611d495760405162461bcd60e51b815260206004820152601560248201527f496e76616c696420666565546f206164647265737300000000000000000000006044820152606401610c80565b67016345785d8a000082604001511115611da55760405162461bcd60e51b815260206004820152601c60248201527f61707046656550657263656e74206d757374206265203c3d20313025000000006044820152606401610c80565b81516002820190611db690826144d1565b5060208201516003820180546001600160a01b0319166001600160a01b0383161790556040808401516004840181905560608501516005850181905584548651935133957f0ea722a002b06bb7a7ef32dccd702901269bb71e19462200bfe9802230b96a3995611e2b95939490939192614654565b60405180910390a2505050565b611eab6040805161014081018252600080825260208083018290528284018290526060808401819052608080850184905285519081018652838152918201839052938101829052928301529060a08201908152600060208201819052604082018190526060820181905260809091015290565b6000828152600f60209081526040918290208251610140810184528154815260018201549281019290925260028101546001600160a01b031692820192909252600382018054919291606084019190611f0390614457565b80601f0160208091040260200160405190810160405280929190818152602001828054611f2f90614457565b8015611f7c5780601f10611f5157610100808354040283529160200191611f7c565b820191906000526020600020905b815481529060010190602001808311611f5f57829003601f168201915b50505091835250506004820154602080830191909152604080516080808201835260058601546bffffffffffffffffffffffff81168352600160601b810463ffffffff1694830194909452600160801b9093046001600160801b039081168284015260068601541660608083019190915291840152600784015460ff80821692850192909252610100900416151590820152600882015460a082015260099091015460c09091015292915050565b6009546040805161014081018252828152835160208083019182523383850181815282880151606080870191825289880151608080890191909152908a015160a080890191909152908a015160ff1660c0880152890151151560e0870152600061010087018190526101208701819052888152600f90945295909220845181559251600184015590516002830180546001600160a01b0319166001600160a01b03909216919091179055925160038201906120e590826144d1565b506080820151600482015560a082015180516005830180546020808501516040808701516001600160801b03908116600160801b0263ffffffff909316600160601b027fffffffffffffffffffffffffffffffff000000000000000000000000000000009586166bffffffffffffffffffffffff90981697909717969096178616919091179093556060909401516006860180549190941691161790915560c084015160078401805460e0870151151561010090810261ffff1990921660ff909416939093171790558401516008840155610120909301516009909201919091556001600160a01b0383166000908152601082528281208054600181810183559183528383200186905583519283019093528152612207918391859190612920565b8260000151816001600160a01b0316837f405b1a16c11a637c6cb7f6762b101f2d3a2f50821890315d267d79b8f34221d48660200151876060015188608001518960a0015160405161225c9493929190614693565b60405180910390a4600980549060006122748361461c565b919050555050919050565b60006113fe83836001612c56565b6122bf6040518060a0016040528060008152602001600081526020016000815260200160008152602001600081525090565b6113e88484846000612a20565b6122d46128dd565b60095482106123255760405162461bcd60e51b815260206004820152601460248201527f4372656174696f6e206e6f7420657869737465640000000000000000000000006044820152606401610c80565b8063ffffffff16612336338461090a565b10156123845760405162461bcd60e51b815260206004820152601360248201527f496e73756666696369656e7420616d6f756e74000000000000000000000000006044820152606401610c80565b8063ffffffff1660016123a38460009081526004602052604090205490565b6123ad91906145f3565b10156124215760405162461bcd60e51b815260206004820152602260248201527f416d6f756e742073686f756c642062656c6f77207072656d696e7420616d6f7560448201527f6e740000000000000000000000000000000000000000000000000000000000006064820152608401610c80565b6000828152600f602052604081206001810154909190612444908590859061228d565b90508060200151600a600082825461245c91906145f3565b9091555050602081015160088301805460009061247a9084906145f3565b909155505060208101516009830180546000906124989084906145a7565b909155506124af9050338563ffffffff8616612fb3565b6007820154610100900460ff161561255657600782015460ff166000908152600d6020908152604091829020549083015191517f2e1a7d4d00000000000000000000000000000000000000000000000000000000815260048101929092526001600160a01b0316908190632e1a7d4d90602401600060405180830381600087803b15801561253c57600080fd5b505af1158015612550573d6000803e3d6000fd5b50505050505b61256433826000015161297d565b60028201546040820151612581916001600160a01b03169061297d565b606081015115612698576001808301546000908152600e60209081526040808320815160c08101835281548152948101546001600160a01b031692850192909252600282018054939493918401916125d890614457565b80601f016020809104026020016040519081016040528092919081815260200182805461260490614457565b80156126515780601f1061262657610100808354040283529160200191612651565b820191906000526020600020905b81548152906001019060200180831161263457829003601f168201915b505050918352505060038201546001600160a01b031660208201526004820154604082015260059091015460609182015281810151908401519192506126969161297d565b505b6080810151156126bd57600c5460808201516126bd916001600160a01b03169061297d565b3384600283516040808601516060808801516080808a0151855163ffffffff8e16815260208101979097529486019390935290840152820152600060a0820181905260c08201527f5e8ec80ece70688f5dfe49f24be4ed9b0d314d69abdd270b44b7718882ff6b939060e00160405180910390a450506119a06001600655565b612745612e1a565b600c546040516001600160a01b038084169216907fdc99a16aa686e03e551f2993b0cb279e2638cebde991551598b75177d21ef7c290600090a3600c80546001600160a01b0319166001600160a01b0392909216919091179055565b336001600160a01b03861681148015906127e157506001600160a01b0380871660009081526002602090815260408083209385168352929052205460ff16155b156128125760405163711bec9160e11b81526001600160a01b03808316600483015287166024820152604401610c80565b610c96868686868661301b565b612827612e1a565b6001600160a01b03811661286a576040517f1e4fbdf700000000000000000000000000000000000000000000000000000000815260006004820152602401610c80565b61287381612e60565b50565b6001600160a01b0384166128a057604051632bfa23e760e11b815260006004820152602401610c80565b6001600160a01b0385166128c957604051626a0d4560e21b815260006004820152602401610c80565b6128d685858585856130a9565b5050505050565b600260065403612919576040517f3ee5aeb500000000000000000000000000000000000000000000000000000000815260040160405180910390fd5b6002600655565b6001600160a01b03841661294a57604051632bfa23e760e11b815260006004820152602401610c80565b60408051600180825260208201869052818301908152606082018590526080820190925290610c966000878484876130a9565b6000826001600160a01b03168260405160006040518083038185875af1925050503d80600081146129ca576040519150601f19603f3d011682016040523d82523d6000602084013e6129cf565b606091505b505090508061128a5760405162461bcd60e51b815260206004820152601360248201527f455448207472616e73666572206661696c6564000000000000000000000000006044820152606401610c80565b612a526040518060a0016040528060008152602001600081526020016000815260200160008152602001600081525090565b6000838152600e60209081526040808320815160c0810183528154815260018201546001600160a01b0316938101939093526002810180549192840191612a9890614457565b80601f0160208091040260200160405190810160405280929190818152602001828054612ac490614457565b8015612b115780601f10612ae657610100808354040283529160200191612b11565b820191906000526020600020905b815481529060010190602001808311612af457829003601f168201915b505050918352505060038201546001600160a01b03166020820152600482015460408201526005909101546060909101529050600083612b5a57612b5587876113f0565b612b64565b612b64878761227f565b90506000670de0b6b3a76400008360a0015183612b8191906145ba565b612b8b91906145d1565b90506000670de0b6b3a7640000600b5484612ba691906145ba565b612bb091906145d1565b90506000670de0b6b3a7640000856080015185612bcd91906145ba565b612bd791906145d1565b9050600087612c05578282612bec86886145f3565b612bf691906145f3565b612c0091906145f3565b612c25565b8282612c1186886145a7565b612c1b91906145a7565b612c2591906145a7565b6040805160a08101825291825260208201969096529485019390935260608401526080830152509695505050505050565b600083815260046020908152604080832054600f83528184208251610140810184528154815260018201549481019490945260028101546001600160a01b03169284019290925260038201805491938593909290916060840191612cb990614457565b80601f0160208091040260200160405190810160405280929190818152602001828054612ce590614457565b8015612d325780601f10612d0757610100808354040283529160200191612d32565b820191906000526020600020905b815481529060010190602001808311612d1557829003601f168201915b50505091835250506004820154602080830191909152604080516080808201835260058601546bffffffffffffffffffffffff81168352600160601b810463ffffffff1694830194909452600160801b9093046001600160801b039081168284015260068601541660608083019190915291840152600784015460ff80821692850192909252610100900416151590820152600882015460a082015260099091015460c0909101529050600084612df857612df363ffffffff8716846145f3565b612dfa565b825b9050612e0f82612e09836130fc565b88611964565b979650505050505050565b6000546001600160a01b03163314611790576040517f118cdaa7000000000000000000000000000000000000000000000000000000008152336004820152602401610c80565b600080546001600160a01b038381166001600160a01b0319831681178455604051919092169283917f8be0079c531659141344cd1fd0a4f28419497f9722a3daafe3b4186f6b6457e09190a35050565b63ffffffff8581168581026bffffffffffffffffffffffff16916001600160801b0384169089166001818101820291909301808401020390911c0201612ef884848989613116565b019695505050505050565b6001600160a01b038216612f46576040517fced3e10000000000000000000000000000000000000000000000000000000000815260006004820152602401610c80565b6001600160a01b03838116600081815260026020908152604080832094871680845294825291829020805460ff191686151590811790915591519182527f17307eab39ab6107e8899845ad3d59bd9653f200f220920489ca2b5937696c31910160405180910390a3505050565b6001600160a01b038316612fdc57604051626a0d4560e21b815260006004820152602401610c80565b604080516001808252602082018590528183019081526060820184905260a082019092526000608082018181529192916128d6918791859085906130a9565b6001600160a01b03841661304557604051632bfa23e760e11b815260006004820152602401610c80565b6001600160a01b03851661306e57604051626a0d4560e21b815260006004820152602401610c80565b604080516001808252602082018690528183019081526060820185905260808201909252906130a087878484876130a9565b50505050505050565b6130b585858585613271565b6001600160a01b038416156128d657825133906001036130ee57602084810151908401516130e7838989858589613283565b5050610c96565b610c968187878787876133a7565b6000640100000000821061311257613112613490565b5090565b600063ffffffff85166001600160801b038516808202830361313d576000925050506113e8565b600163ffffffff8681168281019291871601018381188185110284188083101561319d576006600163ffffffff8a16818101026401fffffffe8b831b16820102600019840180850290831b90920191909102030485800285040295509150815b81831015613264576003850260021c600185901b5b6000613248888488030270ffffffffffffffffffffffffffffffffff811160071b81811c68ffffffffffffffffff1060061b1781811c64ffffffffff1060051b1781811c62ffffff1060041b1781811c620100000160b5600192831c1b0260121c80830401811c80830401811c80830401811c80830401811c80830401811c80830401811c80830401901c908190048111900390565b8202889004989098019750600180860195859003016131b25750505b5050505050949350505050565b61327d8484848461349e565b50505050565b6001600160a01b0384163b15610c965760405163f23a6e6160e01b81526001600160a01b0385169063f23a6e61906132c79089908990889088908890600401614713565b6020604051808303816000875af1925050508015613302575060408051601f3d908101601f191682019092526132ff9181019061474b565b60015b61336b573d808015613330576040519150601f19603f3d011682016040523d82523d6000602084013e613335565b606091505b50805160000361336357604051632bfa23e760e11b81526001600160a01b0386166004820152602401610c80565b805181602001fd5b6001600160e01b0319811663f23a6e6160e01b146130a057604051632bfa23e760e11b81526001600160a01b0386166004820152602401610c80565b6001600160a01b0384163b15610c965760405163bc197c8160e01b81526001600160a01b0385169063bc197c81906133eb9089908990889088908890600401614768565b6020604051808303816000875af1925050508015613426575060408051601f3d908101601f191682019092526134239181019061474b565b60015b613454573d808015613330576040519150601f19603f3d011682016040523d82523d6000602084013e613335565b6001600160e01b0319811663bc197c8160e01b146130a057604051632bfa23e760e11b81526001600160a01b0386166004820152602401610c80565b6335278d126000526004601cfd5b6134aa848484846135f8565b6001600160a01b03841661355d576000805b83518110156135435760008382815181106134d9576134d9614606565b6020026020010151905080600460008785815181106134fa576134fa614606565b60200260200101518152602001908152602001600020600082825461351f91906145a7565b9091555061352f905081846145a7565b9250508061353c9061461c565b90506134bc565b50806005600082825461355691906145a7565b9091555050505b6001600160a01b03831661327d576000805b83518110156135e757600083828151811061358c5761358c614606565b6020026020010151905080600460008785815181106135ad576135ad614606565b6020026020010151815260200190815260200160002060008282540392505081905550808301925050806135e09061461c565b905061356f565b506005805491909103905550505050565b80518251146136275781518151604051635b05999160e01b815260048101929092526024820152604401610c80565b3360005b8351811015613755576020818102858101820151908501909101516001600160a01b038816156136fb5760008281526001602090815260408083206001600160a01b038c168452909152902054818110156136d2576040517f03dee4c50000000000000000000000000000000000000000000000000000000081526001600160a01b038a166004820152602481018290526044810183905260648101849052608401610c80565b60008381526001602090815260408083206001600160a01b038d16845290915290209082900390555b6001600160a01b038716156137425760008281526001602090815260408083206001600160a01b038b1684529091528120805483929061373c9084906145a7565b90915550505b50508061374e9061461c565b905061362b565b5082516001036137d65760208301516000906020840151909150856001600160a01b0316876001600160a01b0316846001600160a01b03167fc3d58168c5ae7397731d063d5bbf3d657854427343f4c083240f7aacaa2d0f6285856040516137c7929190918252602082015260400190565b60405180910390a450506128d6565b836001600160a01b0316856001600160a01b0316826001600160a01b03167f4a39dc06d4c0dbc64b70af90fd698a233a518aa5d07e595d983b8c0526c8f7fb86866040516138259291906147c6565b60405180910390a45050505050565b80356001600160a01b038116811461384b57600080fd5b919050565b6000806040838503121561386357600080fd5b61386c83613834565b946020939093013593505050565b6001600160e01b03198116811461287357600080fd5b6000602082840312156138a257600080fd5b81356113fe8161387a565b6000602082840312156138bf57600080fd5b5035919050565b6000815180845260005b818110156138ec576020818501810151868301820152016138d0565b506000602082860101526020601f19601f83011685010191505092915050565b6020815260006113fe60208301846138c6565b6020815281516020820152600060208301516001600160a01b0380821660408501526040850151915060c0606085015261395c60e08501836138c6565b915080606086015116608085015250608084015160a084015260a084015160c08401528091505092915050565b60006020828403121561399b57600080fd5b6113fe82613834565b600081518084526020808501945080840160005b838110156139d4578151875295820195908201906001016139b8565b509495945050505050565b6020815260006113fe60208301846139a4565b634e487b7160e01b600052604160045260246000fd5b6040516080810167ffffffffffffffff81118282101715613a2b57613a2b6139f2565b60405290565b604051610140810167ffffffffffffffff81118282101715613a2b57613a2b6139f2565b60405160c0810167ffffffffffffffff81118282101715613a2b57613a2b6139f2565b604051601f8201601f1916810167ffffffffffffffff81118282101715613aa157613aa16139f2565b604052919050565b600067ffffffffffffffff821115613ac357613ac36139f2565b5060051b60200190565b600082601f830112613ade57600080fd5b81356020613af3613aee83613aa9565b613a78565b82815260059290921b84018101918181019086841115613b1257600080fd5b8286015b84811015613b2d5780358352918301918301613b16565b509695505050505050565b600082601f830112613b4957600080fd5b813567ffffffffffffffff811115613b6357613b636139f2565b613b76601f8201601f1916602001613a78565b818152846020838601011115613b8b57600080fd5b816020850160208301376000918101602001919091529392505050565b600080600080600060a08688031215613bc057600080fd5b613bc986613834565b9450613bd760208701613834565b9350604086013567ffffffffffffffff80821115613bf457600080fd5b613c0089838a01613acd565b94506060880135915080821115613c1657600080fd5b613c2289838a01613acd565b93506080880135915080821115613c3857600080fd5b50613c4588828901613b38565b9150509295509295909350565b60008060408385031215613c6557600080fd5b82359150602083013567ffffffffffffffff80821115613c8457600080fd5b9084019060408287031215613c9857600080fd5b604051604081018181108382111715613cb357613cb36139f2565b604052823582811115613cc557600080fd5b613cd188828601613b38565b825250602083013560208201528093505050509250929050565b803563ffffffff8116811461384b57600080fd5b600080600060608486031215613d1457600080fd5b83359250613d2460208501613ceb565b9150613d3260408501613834565b90509250925092565b60008060408385031215613d4e57600080fd5b823567ffffffffffffffff80821115613d6657600080fd5b818501915085601f830112613d7a57600080fd5b81356020613d8a613aee83613aa9565b82815260059290921b84018101918181019089841115613da957600080fd5b948201945b83861015613dce57613dbf86613834565b82529482019490820190613dae565b96505086013592505080821115613de457600080fd5b50613df185828601613acd565b9150509250929050565b600080600060608486031215613e1057600080fd5b83359250613e2060208501613ceb565b9150604084013590509250925092565b60008060408385031215613e4357600080fd5b82359150613e5360208401613ceb565b90509250929050565b60208152815160208201526020820151604082015260006040830151613e8d60608401826001600160a01b03169052565b5060608301516101a0806080850152613eaa6101c08501836138c6565b608086015160a08681019190915286015180516bffffffffffffffffffffffff1660c0870152602081015163ffffffff1660e087015260408101516001600160801b039081166101008801526060820151166101208701529092505060c085015160ff81166101408601525060e085015180151561016086015250610100850151610180850152610120909401519390920192909252919050565b86815260006001600160a01b03808816602084015260c06040840152613f6e60c08401886138c6565b9516606083015250608081019290925260a0909101529392505050565b803560ff8116811461384b57600080fd5b600060208284031215613fae57600080fd5b6113fe82613f8b565b60006101a08c83528b60208401526001600160a01b038b166040840152806060840152613fe68184018b6138c6565b608084018a905288516bffffffffffffffffffffffff1660a0850152602089015163ffffffff1660c085015260408901516001600160801b0390811660e086015260608a015116610100850152915061403c9050565b60ff95909516610120820152921515610140840152610160830191909152610180909101529695505050505050565b80356001600160801b038116811461384b57600080fd5b60006080828403121561409457600080fd5b61409c613a08565b905081356bffffffffffffffffffffffff811681146140ba57600080fd5b81526140c860208301613ceb565b60208201526140d96040830161406b565b60408201526140ea6060830161406b565b606082015292915050565b8035801515811461384b57600080fd5b60008060006060848603121561411a57600080fd5b833567ffffffffffffffff8082111561413257600080fd5b908501906101a0828803121561414757600080fd5b61414f613a31565b823581526020830135602082015261416960408401613834565b604082015260608301358281111561418057600080fd5b61418c89828601613b38565b606083015250608083013560808201526141a98860a08501614082565b60a082015261012091506141be828401613f8b565b60c08201526141d061014084016140f5565b60e0820152610160830135610100820152610180909201359082015292506141fa60208501613ceb565b9150613d3260408501613ceb565b6000806040838503121561421b57600080fd5b61422483613834565b9150613e53602084016140f5565b60006080828403121561424457600080fd5b61424c613a08565b9050813567ffffffffffffffff81111561426557600080fd5b61427184828501613b38565b82525061428060208301613834565b6020820152604082013560408201526060820135606082015292915050565b6000602082840312156142b157600080fd5b813567ffffffffffffffff8111156142c857600080fd5b6113e884828501614232565b600080604083850312156142e757600080fd5b82359150602083013567ffffffffffffffff81111561430557600080fd5b613df185828601614232565b60006020828403121561432357600080fd5b813567ffffffffffffffff8082111561433b57600080fd5b90830190610120828603121561435057600080fd5b614358613a55565b8235815260208301358281111561436e57600080fd5b61437a87828601613b38565b602083015250604083013560408201526143978660608501614082565b60608201526143a860e08401613f8b565b60808201526143ba61010084016140f5565b60a082015295945050505050565b600080604083850312156143db57600080fd5b6143e483613834565b9150613e5360208401613834565b600080600080600060a0868803121561440a57600080fd5b61441386613834565b945061442160208701613834565b93506040860135925060608601359150608086013567ffffffffffffffff81111561444b57600080fd5b613c4588828901613b38565b600181811c9082168061446b57607f821691505b6020821081036116a557634e487b7160e01b600052602260045260246000fd5b601f82111561128a57600081815260208120601f850160051c810160208610156144b25750805b601f850160051c820191505b81811015610c96578281556001016144be565b815167ffffffffffffffff8111156144eb576144eb6139f2565b6144ff816144f98454614457565b8461448b565b602080601f831160018114614534576000841561451c5750858301515b600019600386901b1c1916600185901b178555610c96565b600085815260208120601f198616915b8281101561456357888601518255948401946001909101908401614544565b50858210156145815787850151600019600388901b60f8161c191681555b5050505050600190811b01905550565b634e487b7160e01b600052601160045260246000fd5b8082018082111561092e5761092e614591565b808202811582820484141761092e5761092e614591565b6000826145ee57634e487b7160e01b600052601260045260246000fd5b500490565b8181038181111561092e5761092e614591565b634e487b7160e01b600052603260045260246000fd5b60006001820161462e5761462e614591565b5060010190565b600060ff821660ff810361464b5761464b614591565b60010192915050565b85815260a06020820152600061466d60a08301876138c6565b6001600160a01b0395909516604083015250606081019290925260809091015292915050565b60e0815260006146a660e08301876138c6565b90506146f960208301866bffffffffffffffffffffffff815116825263ffffffff602082015116602083015260408101516001600160801b03808216604085015280606084015116606085015250505050565b60ff841660a083015282151560c083015295945050505050565b60006001600160a01b03808816835280871660208401525084604083015283606083015260a06080830152612e0f60a08301846138c6565b60006020828403121561475d57600080fd5b81516113fe8161387a565b60006001600160a01b03808816835280871660208401525060a0604083015261479460a08301866139a4565b82810360608401526147a681866139a4565b905082810360808401526147ba81856138c6565b98975050505050505050565b6040815260006147d960408301856139a4565b828103602084015261198c81856139a456fea26469706673582212204a06e2ecad4c64865496e769a79fa8f5a9235915b19b6a9e8265fbf1401da19164736f6c63430008140033",
  "libraries": {},
  "devdoc": {
    "errors": {
      "ERC1155InsufficientBalance(address,uint256,uint256,uint256)": [
        {
          "details": "Indicates an error related to the current `balance` of a `sender`. Used in transfers.",
          "params": {
            "balance": "Current balance for the interacting account.",
            "needed": "Minimum amount required to perform a transfer.",
            "sender": "Address whose tokens are being transferred.",
            "tokenId": "Identifier number of a token."
          }
        }
      ],
      "ERC1155InvalidApprover(address)": [
        {
          "details": "Indicates a failure with the `approver` of a token to be approved. Used in approvals.",
          "params": {
            "approver": "Address initiating an approval operation."
          }
        }
      ],
      "ERC1155InvalidArrayLength(uint256,uint256)": [
        {
          "details": "Indicates an array length mismatch between ids and values in a safeBatchTransferFrom operation. Used in batch transfers.",
          "params": {
            "idsLength": "Length of the array of token identifiers",
            "valuesLength": "Length of the array of token amounts"
          }
        }
      ],
      "ERC1155InvalidOperator(address)": [
        {
          "details": "Indicates a failure with the `operator` to be approved. Used in approvals.",
          "params": {
            "operator": "Address that may be allowed to operate on tokens without being their owner."
          }
        }
      ],
      "ERC1155InvalidReceiver(address)": [
        {
          "details": "Indicates a failure with the token `receiver`. Used in transfers.",
          "params": {
            "receiver": "Address to which tokens are being transferred."
          }
        }
      ],
      "ERC1155InvalidSender(address)": [
        {
          "details": "Indicates a failure with the token `sender`. Used in transfers.",
          "params": {
            "sender": "Address whose tokens are being transferred."
          }
        }
      ],
      "ERC1155MissingApprovalForAll(address,address)": [
        {
          "details": "Indicates a failure with the `operator`s approval. Used in transfers.",
          "params": {
            "operator": "Address that may be allowed to operate on tokens without being their owner.",
            "owner": "Address of the current owner of a token."
          }
        }
      ],
      "OwnableInvalidOwner(address)": [
        {
          "details": "The owner is not a valid owner account. (eg. `address(0)`)"
        }
      ],
      "OwnableUnauthorizedAccount(address)": [
        {
          "details": "The caller account is not authorized to perform an operation."
        }
      ],
      "ReentrancyGuardReentrantCall()": [
        {
          "details": "Unauthorized reentrant call."
        }
      ]
    },
    "events": {
      "ApprovalForAll(address,address,bool)": {
        "details": "Emitted when `account` grants or revokes permission to `operator` to transfer their tokens, according to `approved`."
      },
      "TransferBatch(address,address,address,uint256[],uint256[])": {
        "details": "Equivalent to multiple {TransferSingle} events, where `operator`, `from` and `to` are the same for all transfers."
      },
      "TransferSingle(address,address,address,uint256,uint256)": {
        "details": "Emitted when `value` amount of tokens of type `id` are transferred from `from` to `to` by `operator`."
      },
      "URI(string,uint256)": {
        "details": "Emitted when the URI for token type `id` changes to `value`, if it is a non-programmatic URI. If an {URI} event was emitted for `id`, the standard https://eips.ethereum.org/EIPS/eip-1155#metadata-extensions[guarantees] that `value` will equal the value returned by {IERC1155MetadataURI-uri}."
      }
    },
    "kind": "dev",
    "methods": {
      "balanceOf(address,uint256)": {
        "details": "See {IERC1155-balanceOf}."
      },
      "balanceOfBatch(address[],uint256[])": {
        "details": "See {IERC1155-balanceOfBatch}. Requirements: - `accounts` and `ids` must have the same length."
      },
      "exists(uint256)": {
        "details": "Indicates whether any token exist with a given id, or not."
      },
      "isApprovedForAll(address,address)": {
        "details": "See {IERC1155-isApprovedForAll}."
      },
      "owner()": {
        "details": "Returns the address of the current owner."
      },
      "renounceOwnership()": {
        "details": "Leaves the contract without owner. It will not be possible to call `onlyOwner` functions. Can only be called by the current owner. NOTE: Renouncing ownership will leave the contract without an owner, thereby disabling any functionality that is only available to the owner."
      },
      "safeBatchTransferFrom(address,address,uint256[],uint256[],bytes)": {
        "details": "See {IERC1155-safeBatchTransferFrom}."
      },
      "safeTransferFrom(address,address,uint256,uint256,bytes)": {
        "details": "See {IERC1155-safeTransferFrom}."
      },
      "setApprovalForAll(address,bool)": {
        "details": "See {IERC1155-setApprovalForAll}."
      },
      "supportsInterface(bytes4)": {
        "details": "See {IERC165-supportsInterface}."
      },
      "totalSupply()": {
        "details": "Total value of tokens."
      },
      "totalSupply(uint256)": {
        "details": "Total value of tokens in with a given id."
      },
      "transferOwnership(address)": {
        "details": "Transfers ownership of the contract to a new account (`newOwner`). Can only be called by the current owner."
      },
      "uri(uint256)": {
        "details": "See {IERC1155MetadataURI-uri}. This implementation returns the same URI for *all* token types. It relies on the token type ID substitution mechanism https://eips.ethereum.org/EIPS/eip-1155#metadata[defined in the EIP]. Clients calling this function must replace the `\\{id\\}` substring with the actual token type ID."
      }
    },
    "version": 1
  },
  "userdoc": {
    "kind": "user",
    "methods": {},
    "version": 1
  },
  "storageLayout": {
    "storage": [
      {
        "astId": 8,
        "contract": "contracts/core/IndieX.sol:IndieX",
        "label": "_owner",
        "offset": 0,
        "slot": "0",
        "type": "t_address"
      },
      {
        "astId": 351,
        "contract": "contracts/core/IndieX.sol:IndieX",
        "label": "_balances",
        "offset": 0,
        "slot": "1",
        "type": "t_mapping(t_uint256,t_mapping(t_address,t_uint256))"
      },
      {
        "astId": 357,
        "contract": "contracts/core/IndieX.sol:IndieX",
        "label": "_operatorApprovals",
        "offset": 0,
        "slot": "2",
        "type": "t_mapping(t_address,t_mapping(t_address,t_bool))"
      },
      {
        "astId": 359,
        "contract": "contracts/core/IndieX.sol:IndieX",
        "label": "_uri",
        "offset": 0,
        "slot": "3",
        "type": "t_string_storage"
      },
      {
        "astId": 1536,
        "contract": "contracts/core/IndieX.sol:IndieX",
        "label": "_totalSupply",
        "offset": 0,
        "slot": "4",
        "type": "t_mapping(t_uint256,t_uint256)"
      },
      {
        "astId": 1538,
        "contract": "contracts/core/IndieX.sol:IndieX",
        "label": "_totalSupplyAll",
        "offset": 0,
        "slot": "5",
        "type": "t_uint256"
      },
      {
        "astId": 3438,
        "contract": "contracts/core/IndieX.sol:IndieX",
        "label": "_status",
        "offset": 0,
        "slot": "6",
        "type": "t_uint256"
      },
      {
        "astId": 6027,
        "contract": "contracts/core/IndieX.sol:IndieX",
        "label": "farmerIndex",
        "offset": 0,
        "slot": "7",
        "type": "t_uint8"
      },
      {
        "astId": 6030,
        "contract": "contracts/core/IndieX.sol:IndieX",
        "label": "appIndex",
        "offset": 0,
        "slot": "8",
        "type": "t_uint256"
      },
      {
        "astId": 6033,
        "contract": "contracts/core/IndieX.sol:IndieX",
        "label": "creationIndex",
        "offset": 0,
        "slot": "9",
        "type": "t_uint256"
      },
      {
        "astId": 6036,
        "contract": "contracts/core/IndieX.sol:IndieX",
        "label": "ethAmount",
        "offset": 0,
        "slot": "10",
        "type": "t_uint256"
      },
      {
        "astId": 6042,
        "contract": "contracts/core/IndieX.sol:IndieX",
        "label": "protocolFeePercent",
        "offset": 0,
        "slot": "11",
        "type": "t_uint256"
      },
      {
        "astId": 6044,
        "contract": "contracts/core/IndieX.sol:IndieX",
        "label": "protocolFeeTo",
        "offset": 0,
        "slot": "12",
        "type": "t_address"
      },
      {
        "astId": 6048,
        "contract": "contracts/core/IndieX.sol:IndieX",
        "label": "farmers",
        "offset": 0,
        "slot": "13",
        "type": "t_mapping(t_uint8,t_address)"
      },
      {
        "astId": 6053,
        "contract": "contracts/core/IndieX.sol:IndieX",
        "label": "apps",
        "offset": 0,
        "slot": "14",
        "type": "t_mapping(t_uint256,t_struct(App)5963_storage)"
      },
      {
        "astId": 6058,
        "contract": "contracts/core/IndieX.sol:IndieX",
        "label": "creations",
        "offset": 0,
        "slot": "15",
        "type": "t_mapping(t_uint256,t_struct(Creation)6004_storage)"
      },
      {
        "astId": 6063,
        "contract": "contracts/core/IndieX.sol:IndieX",
        "label": "userCreations",
        "offset": 0,
        "slot": "16",
        "type": "t_mapping(t_address,t_array(t_uint256)dyn_storage)"
      }
    ],
    "types": {
      "t_address": {
        "encoding": "inplace",
        "label": "address",
        "numberOfBytes": "20"
      },
      "t_array(t_uint256)dyn_storage": {
        "base": "t_uint256",
        "encoding": "dynamic_array",
        "label": "uint256[]",
        "numberOfBytes": "32"
      },
      "t_bool": {
        "encoding": "inplace",
        "label": "bool",
        "numberOfBytes": "1"
      },
      "t_mapping(t_address,t_array(t_uint256)dyn_storage)": {
        "encoding": "mapping",
        "key": "t_address",
        "label": "mapping(address => uint256[])",
        "numberOfBytes": "32",
        "value": "t_array(t_uint256)dyn_storage"
      },
      "t_mapping(t_address,t_bool)": {
        "encoding": "mapping",
        "key": "t_address",
        "label": "mapping(address => bool)",
        "numberOfBytes": "32",
        "value": "t_bool"
      },
      "t_mapping(t_address,t_mapping(t_address,t_bool))": {
        "encoding": "mapping",
        "key": "t_address",
        "label": "mapping(address => mapping(address => bool))",
        "numberOfBytes": "32",
        "value": "t_mapping(t_address,t_bool)"
      },
      "t_mapping(t_address,t_uint256)": {
        "encoding": "mapping",
        "key": "t_address",
        "label": "mapping(address => uint256)",
        "numberOfBytes": "32",
        "value": "t_uint256"
      },
      "t_mapping(t_uint256,t_mapping(t_address,t_uint256))": {
        "encoding": "mapping",
        "key": "t_uint256",
        "label": "mapping(uint256 => mapping(address => uint256))",
        "numberOfBytes": "32",
        "value": "t_mapping(t_address,t_uint256)"
      },
      "t_mapping(t_uint256,t_struct(App)5963_storage)": {
        "encoding": "mapping",
        "key": "t_uint256",
        "label": "mapping(uint256 => struct IndieX.App)",
        "numberOfBytes": "32",
        "value": "t_struct(App)5963_storage"
      },
      "t_mapping(t_uint256,t_struct(Creation)6004_storage)": {
        "encoding": "mapping",
        "key": "t_uint256",
        "label": "mapping(uint256 => struct IndieX.Creation)",
        "numberOfBytes": "32",
        "value": "t_struct(Creation)6004_storage"
      },
      "t_mapping(t_uint256,t_uint256)": {
        "encoding": "mapping",
        "key": "t_uint256",
        "label": "mapping(uint256 => uint256)",
        "numberOfBytes": "32",
        "value": "t_uint256"
      },
      "t_mapping(t_uint8,t_address)": {
        "encoding": "mapping",
        "key": "t_uint8",
        "label": "mapping(uint8 => address)",
        "numberOfBytes": "32",
        "value": "t_address"
      },
      "t_string_storage": {
        "encoding": "bytes",
        "label": "string",
        "numberOfBytes": "32"
      },
      "t_struct(App)5963_storage": {
        "encoding": "inplace",
        "label": "struct IndieX.App",
        "members": [
          {
            "astId": 5952,
            "contract": "contracts/core/IndieX.sol:IndieX",
            "label": "id",
            "offset": 0,
            "slot": "0",
            "type": "t_uint256"
          },
          {
            "astId": 5954,
            "contract": "contracts/core/IndieX.sol:IndieX",
            "label": "creator",
            "offset": 0,
            "slot": "1",
            "type": "t_address"
          },
          {
            "astId": 5956,
            "contract": "contracts/core/IndieX.sol:IndieX",
            "label": "uri",
            "offset": 0,
            "slot": "2",
            "type": "t_string_storage"
          },
          {
            "astId": 5958,
            "contract": "contracts/core/IndieX.sol:IndieX",
            "label": "feeTo",
            "offset": 0,
            "slot": "3",
            "type": "t_address"
          },
          {
            "astId": 5960,
            "contract": "contracts/core/IndieX.sol:IndieX",
            "label": "appFeePercent",
            "offset": 0,
            "slot": "4",
            "type": "t_uint256"
          },
          {
            "astId": 5962,
            "contract": "contracts/core/IndieX.sol:IndieX",
            "label": "creatorFeePercent",
            "offset": 0,
            "slot": "5",
            "type": "t_uint256"
          }
        ],
        "numberOfBytes": "192"
      },
      "t_struct(Creation)6004_storage": {
        "encoding": "inplace",
        "label": "struct IndieX.Creation",
        "members": [
          {
            "astId": 5984,
            "contract": "contracts/core/IndieX.sol:IndieX",
            "label": "id",
            "offset": 0,
            "slot": "0",
            "type": "t_uint256"
          },
          {
            "astId": 5986,
            "contract": "contracts/core/IndieX.sol:IndieX",
            "label": "appId",
            "offset": 0,
            "slot": "1",
            "type": "t_uint256"
          },
          {
            "astId": 5988,
            "contract": "contracts/core/IndieX.sol:IndieX",
            "label": "creator",
            "offset": 0,
            "slot": "2",
            "type": "t_address"
          },
          {
            "astId": 5990,
            "contract": "contracts/core/IndieX.sol:IndieX",
            "label": "uri",
            "offset": 0,
            "slot": "3",
            "type": "t_string_storage"
          },
          {
            "astId": 5992,
            "contract": "contracts/core/IndieX.sol:IndieX",
            "label": "curatorFeePercent",
            "offset": 0,
            "slot": "4",
            "type": "t_uint256"
          },
          {
            "astId": 5995,
            "contract": "contracts/core/IndieX.sol:IndieX",
            "label": "curve",
            "offset": 0,
            "slot": "5",
            "type": "t_struct(Curve)6013_storage"
          },
          {
            "astId": 5997,
            "contract": "contracts/core/IndieX.sol:IndieX",
            "label": "farmer",
            "offset": 0,
            "slot": "7",
            "type": "t_uint8"
          },
          {
            "astId": 5999,
            "contract": "contracts/core/IndieX.sol:IndieX",
            "label": "isFarming",
            "offset": 1,
            "slot": "7",
            "type": "t_bool"
          },
          {
            "astId": 6001,
            "contract": "contracts/core/IndieX.sol:IndieX",
            "label": "balance",
            "offset": 0,
            "slot": "8",
            "type": "t_uint256"
          },
          {
            "astId": 6003,
            "contract": "contracts/core/IndieX.sol:IndieX",
            "label": "volume",
            "offset": 0,
            "slot": "9",
            "type": "t_uint256"
          }
        ],
        "numberOfBytes": "320"
      },
      "t_struct(Curve)6013_storage": {
        "encoding": "inplace",
        "label": "struct IndieX.Curve",
        "members": [
          {
            "astId": 6006,
            "contract": "contracts/core/IndieX.sol:IndieX",
            "label": "basePrice",
            "offset": 0,
            "slot": "0",
            "type": "t_uint96"
          },
          {
            "astId": 6008,
            "contract": "contracts/core/IndieX.sol:IndieX",
            "label": "inflectionPoint",
            "offset": 12,
            "slot": "0",
            "type": "t_uint32"
          },
          {
            "astId": 6010,
            "contract": "contracts/core/IndieX.sol:IndieX",
            "label": "inflectionPrice",
            "offset": 16,
            "slot": "0",
            "type": "t_uint128"
          },
          {
            "astId": 6012,
            "contract": "contracts/core/IndieX.sol:IndieX",
            "label": "linearPriceSlope",
            "offset": 0,
            "slot": "1",
            "type": "t_uint128"
          }
        ],
        "numberOfBytes": "64"
      },
      "t_uint128": {
        "encoding": "inplace",
        "label": "uint128",
        "numberOfBytes": "16"
      },
      "t_uint256": {
        "encoding": "inplace",
        "label": "uint256",
        "numberOfBytes": "32"
      },
      "t_uint32": {
        "encoding": "inplace",
        "label": "uint32",
        "numberOfBytes": "4"
      },
      "t_uint8": {
        "encoding": "inplace",
        "label": "uint8",
        "numberOfBytes": "1"
      },
      "t_uint96": {
        "encoding": "inplace",
        "label": "uint96",
        "numberOfBytes": "12"
      }
    }
  }
}