{
  "address": "0x4f34574c630119D572B4Ab0465Bd1Bc4Ed0fD666",
  "abi": [
    {
      "inputs": [
        {
          "internalType": "address",
          "name": "initialOwner",
          "type": "address"
        }
      ],
      "stateMutability": "nonpayable",
      "type": "constructor"
    },
    {
      "inputs": [
        {
          "internalType": "address",
          "name": "sender",
          "type": "address"
        },
        {
          "internalType": "uint256",
          "name": "balance",
          "type": "uint256"
        },
        {
          "internalType": "uint256",
          "name": "needed",
          "type": "uint256"
        },
        {
          "internalType": "uint256",
          "name": "tokenId",
          "type": "uint256"
        }
      ],
      "name": "ERC1155InsufficientBalance",
      "type": "error"
    },
    {
      "inputs": [
        {
          "internalType": "address",
          "name": "approver",
          "type": "address"
        }
      ],
      "name": "ERC1155InvalidApprover",
      "type": "error"
    },
    {
      "inputs": [
        {
          "internalType": "uint256",
          "name": "idsLength",
          "type": "uint256"
        },
        {
          "internalType": "uint256",
          "name": "valuesLength",
          "type": "uint256"
        }
      ],
      "name": "ERC1155InvalidArrayLength",
      "type": "error"
    },
    {
      "inputs": [
        {
          "internalType": "address",
          "name": "operator",
          "type": "address"
        }
      ],
      "name": "ERC1155InvalidOperator",
      "type": "error"
    },
    {
      "inputs": [
        {
          "internalType": "address",
          "name": "receiver",
          "type": "address"
        }
      ],
      "name": "ERC1155InvalidReceiver",
      "type": "error"
    },
    {
      "inputs": [
        {
          "internalType": "address",
          "name": "sender",
          "type": "address"
        }
      ],
      "name": "ERC1155InvalidSender",
      "type": "error"
    },
    {
      "inputs": [
        {
          "internalType": "address",
          "name": "operator",
          "type": "address"
        },
        {
          "internalType": "address",
          "name": "owner",
          "type": "address"
        }
      ],
      "name": "ERC1155MissingApprovalForAll",
      "type": "error"
    },
    {
      "inputs": [
        {
          "internalType": "address",
          "name": "owner",
          "type": "address"
        }
      ],
      "name": "OwnableInvalidOwner",
      "type": "error"
    },
    {
      "inputs": [
        {
          "internalType": "address",
          "name": "account",
          "type": "address"
        }
      ],
      "name": "OwnableUnauthorizedAccount",
      "type": "error"
    },
    {
      "inputs": [],
      "name": "ReentrancyGuardReentrantCall",
      "type": "error"
    },
    {
      "anonymous": false,
      "inputs": [
        {
          "indexed": true,
          "internalType": "address",
          "name": "account",
          "type": "address"
        },
        {
          "indexed": true,
          "internalType": "address",
          "name": "operator",
          "type": "address"
        },
        {
          "indexed": false,
          "internalType": "bool",
          "name": "approved",
          "type": "bool"
        }
      ],
      "name": "ApprovalForAll",
      "type": "event"
    },
    {
      "anonymous": false,
      "inputs": [
        {
          "indexed": false,
          "internalType": "uint256",
          "name": "id",
          "type": "uint256"
        },
        {
          "indexed": true,
          "internalType": "address",
          "name": "creator",
          "type": "address"
        },
        {
          "indexed": false,
          "internalType": "string",
          "name": "name",
          "type": "string"
        },
        {
          "indexed": false,
          "internalType": "string",
          "name": "uri",
          "type": "string"
        },
        {
          "indexed": false,
          "internalType": "address",
          "name": "feeTo",
          "type": "address"
        },
        {
          "indexed": false,
          "internalType": "uint256",
          "name": "appFeePercent",
          "type": "uint256"
        },
        {
          "indexed": false,
          "internalType": "uint256",
          "name": "creatorFeePercent",
          "type": "uint256"
        }
      ],
      "name": "NewApp",
      "type": "event"
    },
    {
      "anonymous": false,
      "inputs": [
        {
          "indexed": true,
          "internalType": "uint256",
          "name": "creationId",
          "type": "uint256"
        },
        {
          "indexed": true,
          "internalType": "address",
          "name": "creator",
          "type": "address"
        },
        {
          "indexed": true,
          "internalType": "uint256",
          "name": "appId",
          "type": "uint256"
        },
        {
          "indexed": false,
          "internalType": "string",
          "name": "name",
          "type": "string"
        },
        {
          "indexed": false,
          "internalType": "string",
          "name": "uri",
          "type": "string"
        },
        {
          "indexed": false,
          "internalType": "uint8",
          "name": "curveId",
          "type": "uint8"
        },
        {
          "indexed": false,
          "internalType": "uint8",
          "name": "farmerId",
          "type": "uint8"
        }
      ],
      "name": "NewCreation",
      "type": "event"
    },
    {
      "anonymous": false,
      "inputs": [
        {
          "indexed": true,
          "internalType": "address",
          "name": "previousOwner",
          "type": "address"
        },
        {
          "indexed": true,
          "internalType": "address",
          "name": "newOwner",
          "type": "address"
        }
      ],
      "name": "OwnershipTransferred",
      "type": "event"
    },
    {
      "anonymous": false,
      "inputs": [
        {
          "indexed": true,
          "internalType": "enum IndieX.TradeType",
          "name": "tradeType",
          "type": "uint8"
        },
        {
          "indexed": true,
          "internalType": "uint256",
          "name": "creationId",
          "type": "uint256"
        },
        {
          "indexed": true,
          "internalType": "address",
          "name": "sender",
          "type": "address"
        },
        {
          "indexed": false,
          "internalType": "uint256",
          "name": "tokenAmount",
          "type": "uint256"
        },
        {
          "indexed": false,
          "internalType": "uint256",
          "name": "fundAmount",
          "type": "uint256"
        },
        {
          "indexed": false,
          "internalType": "uint256",
          "name": "creatorFee",
          "type": "uint256"
        },
        {
          "indexed": false,
          "internalType": "uint256",
          "name": "appFee",
          "type": "uint256"
        }
      ],
      "name": "Trade",
      "type": "event"
    },
    {
      "anonymous": false,
      "inputs": [
        {
          "indexed": true,
          "internalType": "address",
          "name": "operator",
          "type": "address"
        },
        {
          "indexed": true,
          "internalType": "address",
          "name": "from",
          "type": "address"
        },
        {
          "indexed": true,
          "internalType": "address",
          "name": "to",
          "type": "address"
        },
        {
          "indexed": false,
          "internalType": "uint256[]",
          "name": "ids",
          "type": "uint256[]"
        },
        {
          "indexed": false,
          "internalType": "uint256[]",
          "name": "values",
          "type": "uint256[]"
        }
      ],
      "name": "TransferBatch",
      "type": "event"
    },
    {
      "anonymous": false,
      "inputs": [
        {
          "indexed": true,
          "internalType": "address",
          "name": "operator",
          "type": "address"
        },
        {
          "indexed": true,
          "internalType": "address",
          "name": "from",
          "type": "address"
        },
        {
          "indexed": true,
          "internalType": "address",
          "name": "to",
          "type": "address"
        },
        {
          "indexed": false,
          "internalType": "uint256",
          "name": "id",
          "type": "uint256"
        },
        {
          "indexed": false,
          "internalType": "uint256",
          "name": "value",
          "type": "uint256"
        }
      ],
      "name": "TransferSingle",
      "type": "event"
    },
    {
      "anonymous": false,
      "inputs": [
        {
          "indexed": false,
          "internalType": "string",
          "name": "value",
          "type": "string"
        },
        {
          "indexed": true,
          "internalType": "uint256",
          "name": "id",
          "type": "uint256"
        }
      ],
      "name": "URI",
      "type": "event"
    },
    {
      "anonymous": false,
      "inputs": [
        {
          "indexed": false,
          "internalType": "uint256",
          "name": "id",
          "type": "uint256"
        },
        {
          "indexed": true,
          "internalType": "address",
          "name": "creator",
          "type": "address"
        },
        {
          "indexed": false,
          "internalType": "string",
          "name": "name",
          "type": "string"
        },
        {
          "indexed": false,
          "internalType": "string",
          "name": "uri",
          "type": "string"
        },
        {
          "indexed": false,
          "internalType": "address",
          "name": "feeTo",
          "type": "address"
        },
        {
          "indexed": false,
          "internalType": "uint256",
          "name": "appFeePercent",
          "type": "uint256"
        },
        {
          "indexed": false,
          "internalType": "uint256",
          "name": "creatorFeePercent",
          "type": "uint256"
        }
      ],
      "name": "UpdateApp",
      "type": "event"
    },
    {
      "anonymous": false,
      "inputs": [
        {
          "indexed": true,
          "internalType": "uint256",
          "name": "creationId",
          "type": "uint256"
        },
        {
          "indexed": true,
          "internalType": "address",
          "name": "creator",
          "type": "address"
        },
        {
          "indexed": true,
          "internalType": "uint256",
          "name": "appId",
          "type": "uint256"
        },
        {
          "indexed": false,
          "internalType": "string",
          "name": "name",
          "type": "string"
        },
        {
          "indexed": false,
          "internalType": "string",
          "name": "uri",
          "type": "string"
        }
      ],
      "name": "UpdateCreation",
      "type": "event"
    },
    {
      "stateMutability": "payable",
      "type": "fallback"
    },
    {
      "inputs": [],
      "name": "CREATOR_PREMINT",
      "outputs": [
        {
          "internalType": "uint256",
          "name": "",
          "type": "uint256"
        }
      ],
      "stateMutability": "view",
      "type": "function"
    },
    {
      "inputs": [
        {
          "internalType": "address",
          "name": "curve",
          "type": "address"
        }
      ],
      "name": "addCurve",
      "outputs": [],
      "stateMutability": "nonpayable",
      "type": "function"
    },
    {
      "inputs": [
        {
          "internalType": "address",
          "name": "farmer",
          "type": "address"
        }
      ],
      "name": "addFarmer",
      "outputs": [],
      "stateMutability": "nonpayable",
      "type": "function"
    },
    {
      "inputs": [],
      "name": "appIndex",
      "outputs": [
        {
          "internalType": "uint256",
          "name": "",
          "type": "uint256"
        }
      ],
      "stateMutability": "view",
      "type": "function"
    },
    {
      "inputs": [
        {
          "internalType": "uint256",
          "name": "appId",
          "type": "uint256"
        }
      ],
      "name": "apps",
      "outputs": [
        {
          "internalType": "uint256",
          "name": "id",
          "type": "uint256"
        },
        {
          "internalType": "address",
          "name": "creator",
          "type": "address"
        },
        {
          "internalType": "string",
          "name": "name",
          "type": "string"
        },
        {
          "internalType": "string",
          "name": "uri",
          "type": "string"
        },
        {
          "internalType": "address",
          "name": "feeTo",
          "type": "address"
        },
        {
          "internalType": "uint256",
          "name": "appFeePercent",
          "type": "uint256"
        },
        {
          "internalType": "uint256",
          "name": "creatorFeePercent",
          "type": "uint256"
        }
      ],
      "stateMutability": "view",
      "type": "function"
    },
    {
      "inputs": [
        {
          "internalType": "address",
          "name": "account",
          "type": "address"
        },
        {
          "internalType": "uint256",
          "name": "id",
          "type": "uint256"
        }
      ],
      "name": "balanceOf",
      "outputs": [
        {
          "internalType": "uint256",
          "name": "",
          "type": "uint256"
        }
      ],
      "stateMutability": "view",
      "type": "function"
    },
    {
      "inputs": [
        {
          "internalType": "address[]",
          "name": "accounts",
          "type": "address[]"
        },
        {
          "internalType": "uint256[]",
          "name": "ids",
          "type": "uint256[]"
        }
      ],
      "name": "balanceOfBatch",
      "outputs": [
        {
          "internalType": "uint256[]",
          "name": "",
          "type": "uint256[]"
        }
      ],
      "stateMutability": "view",
      "type": "function"
    },
    {
      "inputs": [
        {
          "internalType": "uint256",
          "name": "creationId",
          "type": "uint256"
        },
        {
          "internalType": "uint256",
          "name": "amount",
          "type": "uint256"
        }
      ],
      "name": "buy",
      "outputs": [],
      "stateMutability": "payable",
      "type": "function"
    },
    {
      "inputs": [],
      "name": "creationIndex",
      "outputs": [
        {
          "internalType": "uint256",
          "name": "",
          "type": "uint256"
        }
      ],
      "stateMutability": "view",
      "type": "function"
    },
    {
      "inputs": [
        {
          "internalType": "uint256",
          "name": "id",
          "type": "uint256"
        }
      ],
      "name": "creationSupply",
      "outputs": [
        {
          "internalType": "uint256",
          "name": "",
          "type": "uint256"
        }
      ],
      "stateMutability": "view",
      "type": "function"
    },
    {
      "inputs": [
        {
          "internalType": "uint256",
          "name": "creationId",
          "type": "uint256"
        }
      ],
      "name": "creations",
      "outputs": [
        {
          "internalType": "uint256",
          "name": "id",
          "type": "uint256"
        },
        {
          "internalType": "address",
          "name": "creator",
          "type": "address"
        },
        {
          "internalType": "uint256",
          "name": "appId",
          "type": "uint256"
        },
        {
          "internalType": "string",
          "name": "name",
          "type": "string"
        },
        {
          "internalType": "string",
          "name": "uri",
          "type": "string"
        },
        {
          "internalType": "uint8",
          "name": "farmer",
          "type": "uint8"
        },
        {
          "internalType": "uint8",
          "name": "curve",
          "type": "uint8"
        },
        {
          "internalType": "uint256",
          "name": "balance",
          "type": "uint256"
        },
        {
          "internalType": "uint256",
          "name": "volume",
          "type": "uint256"
        }
      ],
      "stateMutability": "view",
      "type": "function"
    },
    {
      "inputs": [],
      "name": "curveIndex",
      "outputs": [
        {
          "internalType": "uint8",
          "name": "",
          "type": "uint8"
        }
      ],
      "stateMutability": "view",
      "type": "function"
    },
    {
      "inputs": [
        {
          "internalType": "uint8",
          "name": "curveId",
          "type": "uint8"
        }
      ],
      "name": "curves",
      "outputs": [
        {
          "internalType": "address",
          "name": "curve",
          "type": "address"
        }
      ],
      "stateMutability": "view",
      "type": "function"
    },
    {
      "inputs": [
        {
          "internalType": "uint256",
          "name": "id",
          "type": "uint256"
        }
      ],
      "name": "exists",
      "outputs": [
        {
          "internalType": "bool",
          "name": "",
          "type": "bool"
        }
      ],
      "stateMutability": "view",
      "type": "function"
    },
    {
      "inputs": [],
      "name": "farmerIndex",
      "outputs": [
        {
          "internalType": "uint8",
          "name": "",
          "type": "uint8"
        }
      ],
      "stateMutability": "view",
      "type": "function"
    },
    {
      "inputs": [
        {
          "internalType": "uint8",
          "name": "farmerId",
          "type": "uint8"
        }
      ],
      "name": "farmers",
      "outputs": [
        {
          "internalType": "address",
          "name": "farmer",
          "type": "address"
        }
      ],
      "stateMutability": "view",
      "type": "function"
    },
    {
      "inputs": [
        {
          "internalType": "uint256",
          "name": "id",
          "type": "uint256"
        }
      ],
      "name": "getApp",
      "outputs": [
        {
          "components": [
            {
              "internalType": "uint256",
              "name": "id",
              "type": "uint256"
            },
            {
              "internalType": "address",
              "name": "creator",
              "type": "address"
            },
            {
              "internalType": "string",
              "name": "name",
              "type": "string"
            },
            {
              "internalType": "string",
              "name": "uri",
              "type": "string"
            },
            {
              "internalType": "address",
              "name": "feeTo",
              "type": "address"
            },
            {
              "internalType": "uint256",
              "name": "appFeePercent",
              "type": "uint256"
            },
            {
              "internalType": "uint256",
              "name": "creatorFeePercent",
              "type": "uint256"
            }
          ],
          "internalType": "struct IndieX.App",
          "name": "",
          "type": "tuple"
        }
      ],
      "stateMutability": "view",
      "type": "function"
    },
    {
      "inputs": [
        {
          "internalType": "uint256",
          "name": "creationId",
          "type": "uint256"
        },
        {
          "internalType": "uint256",
          "name": "amount",
          "type": "uint256"
        }
      ],
      "name": "getBuyPrice",
      "outputs": [
        {
          "internalType": "uint256",
          "name": "",
          "type": "uint256"
        }
      ],
      "stateMutability": "view",
      "type": "function"
    },
    {
      "inputs": [
        {
          "internalType": "uint256",
          "name": "creationId",
          "type": "uint256"
        },
        {
          "internalType": "uint256",
          "name": "amount",
          "type": "uint256"
        },
        {
          "internalType": "uint256",
          "name": "appId",
          "type": "uint256"
        }
      ],
      "name": "getBuyPriceAfterFee",
      "outputs": [
        {
          "internalType": "uint256",
          "name": "buyPriceAfterFee",
          "type": "uint256"
        },
        {
          "internalType": "uint256",
          "name": "buyPrice",
          "type": "uint256"
        },
        {
          "internalType": "uint256",
          "name": "creatorFee",
          "type": "uint256"
        },
        {
          "internalType": "uint256",
          "name": "appFee",
          "type": "uint256"
        }
      ],
      "stateMutability": "view",
      "type": "function"
    },
    {
      "inputs": [
        {
          "internalType": "uint256",
          "name": "id",
          "type": "uint256"
        }
      ],
      "name": "getCreation",
      "outputs": [
        {
          "components": [
            {
              "internalType": "uint256",
              "name": "id",
              "type": "uint256"
            },
            {
              "internalType": "address",
              "name": "creator",
              "type": "address"
            },
            {
              "internalType": "uint256",
              "name": "appId",
              "type": "uint256"
            },
            {
              "internalType": "string",
              "name": "name",
              "type": "string"
            },
            {
              "internalType": "string",
              "name": "uri",
              "type": "string"
            },
            {
              "internalType": "uint8",
              "name": "farmer",
              "type": "uint8"
            },
            {
              "internalType": "uint8",
              "name": "curve",
              "type": "uint8"
            },
            {
              "internalType": "uint256[]",
              "name": "curveArgs",
              "type": "uint256[]"
            },
            {
              "internalType": "uint256",
              "name": "balance",
              "type": "uint256"
            },
            {
              "internalType": "uint256",
              "name": "volume",
              "type": "uint256"
            }
          ],
          "internalType": "struct IndieX.Creation",
          "name": "",
          "type": "tuple"
        }
      ],
      "stateMutability": "view",
      "type": "function"
    },
    {
      "inputs": [
        {
          "internalType": "uint256",
          "name": "creationId",
          "type": "uint256"
        },
        {
          "internalType": "uint256",
          "name": "amount",
          "type": "uint256"
        }
      ],
      "name": "getSellPrice",
      "outputs": [
        {
          "internalType": "uint256",
          "name": "",
          "type": "uint256"
        }
      ],
      "stateMutability": "view",
      "type": "function"
    },
    {
      "inputs": [
        {
          "internalType": "uint256",
          "name": "creationId",
          "type": "uint256"
        },
        {
          "internalType": "uint256",
          "name": "amount",
          "type": "uint256"
        },
        {
          "internalType": "uint256",
          "name": "appId",
          "type": "uint256"
        }
      ],
      "name": "getSellPriceAfterFee",
      "outputs": [
        {
          "internalType": "uint256",
          "name": "sellPriceAfterFee",
          "type": "uint256"
        },
        {
          "internalType": "uint256",
          "name": "sellPrice",
          "type": "uint256"
        },
        {
          "internalType": "uint256",
          "name": "creatorFee",
          "type": "uint256"
        },
        {
          "internalType": "uint256",
          "name": "appFee",
          "type": "uint256"
        }
      ],
      "stateMutability": "view",
      "type": "function"
    },
    {
      "inputs": [
        {
          "internalType": "address",
          "name": "creator",
          "type": "address"
        }
      ],
      "name": "getUserCreations",
      "outputs": [
        {
          "internalType": "uint256[]",
          "name": "",
          "type": "uint256[]"
        }
      ],
      "stateMutability": "view",
      "type": "function"
    },
    {
      "inputs": [
        {
          "internalType": "address",
          "name": "creator",
          "type": "address"
        }
      ],
      "name": "getUserLatestCreation",
      "outputs": [
        {
          "components": [
            {
              "internalType": "uint256",
              "name": "id",
              "type": "uint256"
            },
            {
              "internalType": "address",
              "name": "creator",
              "type": "address"
            },
            {
              "internalType": "uint256",
              "name": "appId",
              "type": "uint256"
            },
            {
              "internalType": "string",
              "name": "name",
              "type": "string"
            },
            {
              "internalType": "string",
              "name": "uri",
              "type": "string"
            },
            {
              "internalType": "uint8",
              "name": "farmer",
              "type": "uint8"
            },
            {
              "internalType": "uint8",
              "name": "curve",
              "type": "uint8"
            },
            {
              "internalType": "uint256[]",
              "name": "curveArgs",
              "type": "uint256[]"
            },
            {
              "internalType": "uint256",
              "name": "balance",
              "type": "uint256"
            },
            {
              "internalType": "uint256",
              "name": "volume",
              "type": "uint256"
            }
          ],
          "internalType": "struct IndieX.Creation",
          "name": "creation",
          "type": "tuple"
        }
      ],
      "stateMutability": "view",
      "type": "function"
    },
    {
      "inputs": [
        {
          "internalType": "address",
          "name": "account",
          "type": "address"
        },
        {
          "internalType": "address",
          "name": "operator",
          "type": "address"
        }
      ],
      "name": "isApprovedForAll",
      "outputs": [
        {
          "internalType": "bool",
          "name": "",
          "type": "bool"
        }
      ],
      "stateMutability": "view",
      "type": "function"
    },
    {
      "inputs": [
        {
          "components": [
            {
              "internalType": "string",
              "name": "name",
              "type": "string"
            },
            {
              "internalType": "string",
              "name": "uri",
              "type": "string"
            },
            {
              "internalType": "address",
              "name": "feeTo",
              "type": "address"
            },
            {
              "internalType": "uint256",
              "name": "appFeePercent",
              "type": "uint256"
            },
            {
              "internalType": "uint256",
              "name": "creatorFeePercent",
              "type": "uint256"
            }
          ],
          "internalType": "struct IndieX.UpsertAppInput",
          "name": "input",
          "type": "tuple"
        }
      ],
      "name": "newApp",
      "outputs": [],
      "stateMutability": "nonpayable",
      "type": "function"
    },
    {
      "inputs": [
        {
          "components": [
            {
              "internalType": "string",
              "name": "name",
              "type": "string"
            },
            {
              "internalType": "uint256",
              "name": "appId",
              "type": "uint256"
            },
            {
              "internalType": "uint8",
              "name": "farmer",
              "type": "uint8"
            },
            {
              "internalType": "uint8",
              "name": "curve",
              "type": "uint8"
            },
            {
              "internalType": "uint256[]",
              "name": "curveArgs",
              "type": "uint256[]"
            },
            {
              "internalType": "string",
              "name": "uri",
              "type": "string"
            }
          ],
          "internalType": "struct IndieX.NewCreationInput",
          "name": "input",
          "type": "tuple"
        }
      ],
      "name": "newCreation",
      "outputs": [],
      "stateMutability": "nonpayable",
      "type": "function"
    },
    {
      "inputs": [],
      "name": "owner",
      "outputs": [
        {
          "internalType": "address",
          "name": "",
          "type": "address"
        }
      ],
      "stateMutability": "view",
      "type": "function"
    },
    {
      "inputs": [],
      "name": "protocolFeePercent",
      "outputs": [
        {
          "internalType": "uint256",
          "name": "",
          "type": "uint256"
        }
      ],
      "stateMutability": "view",
      "type": "function"
    },
    {
      "inputs": [],
      "name": "renounceOwnership",
      "outputs": [],
      "stateMutability": "nonpayable",
      "type": "function"
    },
    {
      "inputs": [
        {
          "internalType": "address",
          "name": "from",
          "type": "address"
        },
        {
          "internalType": "address",
          "name": "to",
          "type": "address"
        },
        {
          "internalType": "uint256[]",
          "name": "ids",
          "type": "uint256[]"
        },
        {
          "internalType": "uint256[]",
          "name": "values",
          "type": "uint256[]"
        },
        {
          "internalType": "bytes",
          "name": "data",
          "type": "bytes"
        }
      ],
      "name": "safeBatchTransferFrom",
      "outputs": [],
      "stateMutability": "nonpayable",
      "type": "function"
    },
    {
      "inputs": [
        {
          "internalType": "address",
          "name": "from",
          "type": "address"
        },
        {
          "internalType": "address",
          "name": "to",
          "type": "address"
        },
        {
          "internalType": "uint256",
          "name": "id",
          "type": "uint256"
        },
        {
          "internalType": "uint256",
          "name": "value",
          "type": "uint256"
        },
        {
          "internalType": "bytes",
          "name": "data",
          "type": "bytes"
        }
      ],
      "name": "safeTransferFrom",
      "outputs": [],
      "stateMutability": "nonpayable",
      "type": "function"
    },
    {
      "inputs": [
        {
          "internalType": "uint256",
          "name": "creationId",
          "type": "uint256"
        },
        {
          "internalType": "uint256",
          "name": "amount",
          "type": "uint256"
        }
      ],
      "name": "sell",
      "outputs": [],
      "stateMutability": "nonpayable",
      "type": "function"
    },
    {
      "inputs": [
        {
          "internalType": "address",
          "name": "operator",
          "type": "address"
        },
        {
          "internalType": "bool",
          "name": "approved",
          "type": "bool"
        }
      ],
      "name": "setApprovalForAll",
      "outputs": [],
      "stateMutability": "nonpayable",
      "type": "function"
    },
    {
      "inputs": [
        {
          "internalType": "bytes4",
          "name": "interfaceId",
          "type": "bytes4"
        }
      ],
      "name": "supportsInterface",
      "outputs": [
        {
          "internalType": "bool",
          "name": "",
          "type": "bool"
        }
      ],
      "stateMutability": "view",
      "type": "function"
    },
    {
      "inputs": [],
      "name": "totalSupply",
      "outputs": [
        {
          "internalType": "uint256",
          "name": "",
          "type": "uint256"
        }
      ],
      "stateMutability": "view",
      "type": "function"
    },
    {
      "inputs": [
        {
          "internalType": "uint256",
          "name": "id",
          "type": "uint256"
        }
      ],
      "name": "totalSupply",
      "outputs": [
        {
          "internalType": "uint256",
          "name": "",
          "type": "uint256"
        }
      ],
      "stateMutability": "view",
      "type": "function"
    },
    {
      "inputs": [
        {
          "internalType": "address",
          "name": "newOwner",
          "type": "address"
        }
      ],
      "name": "transferOwnership",
      "outputs": [],
      "stateMutability": "nonpayable",
      "type": "function"
    },
    {
      "inputs": [
        {
          "internalType": "uint256",
          "name": "id",
          "type": "uint256"
        },
        {
          "components": [
            {
              "internalType": "string",
              "name": "name",
              "type": "string"
            },
            {
              "internalType": "string",
              "name": "uri",
              "type": "string"
            },
            {
              "internalType": "address",
              "name": "feeTo",
              "type": "address"
            },
            {
              "internalType": "uint256",
              "name": "appFeePercent",
              "type": "uint256"
            },
            {
              "internalType": "uint256",
              "name": "creatorFeePercent",
              "type": "uint256"
            }
          ],
          "internalType": "struct IndieX.UpsertAppInput",
          "name": "input",
          "type": "tuple"
        }
      ],
      "name": "updateApp",
      "outputs": [],
      "stateMutability": "nonpayable",
      "type": "function"
    },
    {
      "inputs": [
        {
          "internalType": "uint256",
          "name": "id",
          "type": "uint256"
        },
        {
          "components": [
            {
              "internalType": "string",
              "name": "name",
              "type": "string"
            },
            {
              "internalType": "string",
              "name": "uri",
              "type": "string"
            }
          ],
          "internalType": "struct IndieX.UpdateCreationInput",
          "name": "input",
          "type": "tuple"
        }
      ],
      "name": "updateCreation",
      "outputs": [],
      "stateMutability": "nonpayable",
      "type": "function"
    },
    {
      "inputs": [
        {
          "internalType": "uint256",
          "name": "",
          "type": "uint256"
        }
      ],
      "name": "uri",
      "outputs": [
        {
          "internalType": "string",
          "name": "",
          "type": "string"
        }
      ],
      "stateMutability": "view",
      "type": "function"
    },
    {
      "inputs": [
        {
          "internalType": "address",
          "name": "account",
          "type": "address"
        },
        {
          "internalType": "uint256",
          "name": "",
          "type": "uint256"
        }
      ],
      "name": "userCreations",
      "outputs": [
        {
          "internalType": "uint256",
          "name": "creationId",
          "type": "uint256"
        }
      ],
      "stateMutability": "view",
      "type": "function"
    },
    {
      "stateMutability": "payable",
      "type": "receive"
    }
  ],
  "transactionHash": "0x98ea60d924ed6d17287e04a00dfd582f0d723058f02bdc7e32286cc4d679e703",
  "args": [
    "0x7FEA6971Eb1663623690Edbb779a05DD9440d824"
  ],
  "numDeployments": 8,
  "solcInputHash": "5eab562a192d9f25b29f0762019014aa",
  "bytecode": "0x60806040526007805460ff1990811690915560098054909116905560006010556611c37937e080006011553480156200003757600080fd5b50604051620055f8380380620055f88339810160408190526200005a916200011f565b604080516020810190915260008152816001600160a01b0381166200009957604051631e4fbdf760e01b81526000600482015260240160405180910390fd5b620000a481620000bd565b50620000b0816200010d565b50506001600655620002c2565b600080546001600160a01b038381166001600160a01b0319831681178455604051919092169283917f8be0079c531659141344cd1fd0a4f28419497f9722a3daafe3b4186f6b6457e09190a35050565b60036200011b8282620001f6565b5050565b6000602082840312156200013257600080fd5b81516001600160a01b03811681146200014a57600080fd5b9392505050565b634e487b7160e01b600052604160045260246000fd5b600181811c908216806200017c57607f821691505b6020821081036200019d57634e487b7160e01b600052602260045260246000fd5b50919050565b601f821115620001f157600081815260208120601f850160051c81016020861015620001cc5750805b601f850160051c820191505b81811015620001ed57828155600101620001d8565b5050505b505050565b81516001600160401b0381111562000212576200021262000151565b6200022a8162000223845462000167565b84620001a3565b602080601f831160018114620002625760008415620002495750858301515b600019600386901b1c1916600185901b178555620001ed565b600085815260208120601f198616915b82811015620002935788860151825594840194600190910190840162000272565b5085821015620002b25787850151600019600388901b60f8161c191681555b5050505050600190811b01905550565b61532680620002d26000396000f3fe6080604052600436106102a45760003560e01c806379d3663811610161578063bd85b039116100ca578063d6febde811610084578063f242432a11610061578063f242432a146108bb578063f2fde38b146108db578063fba41ebe146108fb57005b8063d6febde814610832578063d79875eb14610845578063e985e9c51461086557005b8063c6fdbc90116100b2578063c6fdbc90146107e6578063c8d8cf8814610806578063d6e6eb9f1461081c57005b8063bd85b03914610799578063c157253d146107c657005b80638d5fbf141161011b5780639477d85d116101035780639477d85d14610739578063a22cb46514610759578063baef60d01461077957005b80638d5fbf14146106ee5780638da5cb5b1461070e57005b80637ffb25ac116101495780637ffb25ac1461067d57806380c3f96d146106995780638557a531146106b957005b806379d366381461060e5780637bdcdaff1461065157005b80632eb2c2d61161020e5780634f558e79116101c857806361acc37e116101a557806361acc37e146105a6578063715018a6146105d957806374ec47af146105ee57005b80634f558e791461052a5780635926dd94146105595780635efdf6281461057957005b806343e235ff116101f657806343e235ff146104d45780634d121ec1146104f45780634e1273f41461050a57005b80632eb2c2d614610494578063410d3c02146104b457005b80631f313a041161025f57806324f3a51b1161024757806324f3a51b146103fa578063269ba52c1461042757806327fef8631461045457005b80631f313a041461037257806320e1fc8c1461039257005b80630e89341c1161028d5780630e89341c1461031057806318160ddd1461033d5780631b207a321461035257005b8062fdd58e146102ad57806301ffc9a7146102e057005b366102ab57005b005b3480156102b957600080fd5b506102cd6102c83660046142ae565b610915565b6040519081526020015b60405180910390f35b3480156102ec57600080fd5b506103006102fb366004614306565b61094c565b60405190151581526020016102d7565b34801561031c57600080fd5b5061033061032b36600461432a565b610a2f565b6040516102d791906143b1565b34801561034957600080fd5b506005546102cd565b34801561035e57600080fd5b506102ab61036d366004614599565b610ac3565b34801561037e57600080fd5b506102ab61038d36600461467a565b610d1e565b34801561039e57600080fd5b506103d56103ad36600461472d565b60086020526000908152604090205473ffffffffffffffffffffffffffffffffffffffff1681565b60405173ffffffffffffffffffffffffffffffffffffffff90911681526020016102d7565b34801561040657600080fd5b5061041a61041536600461432a565b610ec5565b6040516102d79190614748565b34801561043357600080fd5b506104476104423660046147fc565b6110d7565b6040516102d79190614852565b34801561046057600080fd5b5061047461046f366004614865565b61114f565b6040805194855260208501939093529183015260608201526080016102d7565b3480156104a057600080fd5b506102ab6104af366004614891565b611370565b3480156104c057600080fd5b506102cd6104cf36600461432a565b611436565b3480156104e057600080fd5b506102cd6104ef3660046142ae565b61144a565b34801561050057600080fd5b506102cd600d5481565b34801561051657600080fd5b5061044761052536600461493b565b61147b565b34801561053657600080fd5b5061030061054536600461432a565b600090815260046020526040902054151590565b34801561056557600080fd5b50610474610574366004614865565b611569565b34801561058557600080fd5b506105996105943660046147fc565b61177e565b6040516102d791906149fb565b3480156105b257600080fd5b506105c66105c136600461432a565b611ade565b6040516102d79796959493929190614afa565b3480156105e557600080fd5b506102ab611c59565b3480156105fa57600080fd5b506102ab6106093660046147fc565b611c6d565b34801561061a57600080fd5b506103d561062936600461472d565b600a6020526000908152604090205473ffffffffffffffffffffffffffffffffffffffff1681565b34801561065d57600080fd5b5060075461066b9060ff1681565b60405160ff90911681526020016102d7565b34801561068957600080fd5b506102cd670de0b6b3a764000081565b3480156106a557600080fd5b506102ab6106b43660046147fc565b611cee565b3480156106c557600080fd5b506106d96106d436600461432a565b611d53565b6040516102d799989796959493929190614b61565b3480156106fa57600080fd5b506102ab610709366004614c8d565b611eca565b34801561071a57600080fd5b5060005473ffffffffffffffffffffffffffffffffffffffff166103d5565b34801561074557600080fd5b506102cd610754366004614cca565b61206e565b34801561076557600080fd5b506102ab610774366004614cec565b61232e565b34801561078557600080fd5b506102ab610794366004614d28565b61233d565b3480156107a557600080fd5b506102cd6107b436600461432a565b60009081526004602052604090205490565b3480156107d257600080fd5b506102cd6107e1366004614cca565b6125e0565b3480156107f257600080fd5b5061059961080136600461432a565b612866565b34801561081257600080fd5b506102cd600b5481565b34801561082857600080fd5b506102cd60115481565b6102ab610840366004614cca565b612ae6565b34801561085157600080fd5b506102ab610860366004614cca565b612f51565b34801561087157600080fd5b50610300610880366004614d65565b73ffffffffffffffffffffffffffffffffffffffff918216600090815260026020908152604080832093909416825291909152205460ff1690565b3480156108c757600080fd5b506102ab6108d6366004614d98565b61332c565b3480156108e757600080fd5b506102ab6108f63660046147fc565b6133ea565b34801561090757600080fd5b5060095461066b9060ff1681565b600081815260016020908152604080832073ffffffffffffffffffffffffffffffffffffffff861684529091529020545b92915050565b60007fffffffff0000000000000000000000000000000000000000000000000000000082167fd9b67a260000000000000000000000000000000000000000000000000000000014806109df57507fffffffff0000000000000000000000000000000000000000000000000000000082167f0e89341c00000000000000000000000000000000000000000000000000000000145b8061094657507f01ffc9a7000000000000000000000000000000000000000000000000000000007fffffffff00000000000000000000000000000000000000000000000000000000831614610946565b606060038054610a3e90614dfd565b80601f0160208091040260200160405190810160405280929190818152602001828054610a6a90614dfd565b8015610ab75780601f10610a8c57610100808354040283529160200191610ab7565b820191906000526020600020905b815481529060010190602001808311610a9a57829003601f168201915b50505050509050919050565b6040805161014081018252600d54808252336020808401828152868201518587019081528751606080880191825260a0808b01516080808b01919091528b8b015160ff908116928b0192909252918b01511660c089015289015160e0880152600061010088018190526101208801819052958652600e909352959093208451815592516001840180547fffffffffffffffffffffffff00000000000000000000000000000000000000001673ffffffffffffffffffffffffffffffffffffffff9092169190911790559351600283015592516003820190610ba49082614e90565b5060808201516004820190610bb99082614e90565b5060a082015160058201805460c085015160ff908116610100027fffffffffffffffffffffffffffffffffffffffffffffffffffffffffffff000090921693169290921791909117905560e08201518051610c1e916006840191602090910190614225565b5061010082015160078201556101209091015160089091015573ffffffffffffffffffffffffffffffffffffffff81166000908152600f60209081526040808320600d8054825460018101845592865284862090920191909155548151928301909152918152610c99913391670de0b6b3a76400009061344e565b81602001518173ffffffffffffffffffffffffffffffffffffffff16600d547f37ff3ce307074e539a2c0c50bd6e14862505c57511ac0d2a273d7a877e524e3085600001518660a0015187606001518860400151604051610cfd9493929190614faa565b60405180910390a4600d8054906000610d158361501c565b91905055505050565b6000828152600e60205260409020600181015473ffffffffffffffffffffffffffffffffffffffff16610db2576040517f08c379a000000000000000000000000000000000000000000000000000000000815260206004820152600f60248201527f417070206e6f742065786973746564000000000000000000000000000000000060448201526064015b60405180910390fd5b600181015473ffffffffffffffffffffffffffffffffffffffff163314610e35576040517f08c379a000000000000000000000000000000000000000000000000000000000815260206004820181905260248201527f4f6e6c792063726561746f722063616e20757064617465204372656174696f6e6044820152606401610da9565b81516003820190610e469082614e90565b5060208201516004820190610e5b9082614e90565b506002810154600182015482548451602086015160405173ffffffffffffffffffffffffffffffffffffffff909416937fc0a9e8589e9e2e63ca19d5641ea5676d3d031b3d29667ebd42b071fb8f5c2b9692610eb8929091615054565b60405180910390a4505050565b610f316040518060e0016040528060008152602001600073ffffffffffffffffffffffffffffffffffffffff1681526020016060815260200160608152602001600073ffffffffffffffffffffffffffffffffffffffff16815260200160008152602001600081525090565b6000828152600c6020908152604091829020825160e08101845281548152600182015473ffffffffffffffffffffffffffffffffffffffff16928101929092526002810180549293919291840191610f8890614dfd565b80601f0160208091040260200160405190810160405280929190818152602001828054610fb490614dfd565b80156110015780601f10610fd657610100808354040283529160200191611001565b820191906000526020600020905b815481529060010190602001808311610fe457829003601f168201915b5050505050815260200160038201805461101a90614dfd565b80601f016020809104026020016040519081016040528092919081815260200182805461104690614dfd565b80156110935780601f1061106857610100808354040283529160200191611093565b820191906000526020600020905b81548152906001019060200180831161107657829003601f168201915b5050509183525050600482015473ffffffffffffffffffffffffffffffffffffffff1660208201526005820154604082015260069091015460609091015292915050565b73ffffffffffffffffffffffffffffffffffffffff81166000908152600f6020908152604091829020805483518184028101840190945280845260609392830182828015610ab757602002820191906000526020600020905b8154815260200190600101908083116111305750505050509050919050565b6000818152600c60209081526040808320815160e08101835281548152600182015473ffffffffffffffffffffffffffffffffffffffff169381019390935260028101805485948594859485949293909291840191906111ae90614dfd565b80601f01602080910402602001604051908101604052809291908181526020018280546111da90614dfd565b80156112275780601f106111fc57610100808354040283529160200191611227565b820191906000526020600020905b81548152906001019060200180831161120a57829003601f168201915b5050505050815260200160038201805461124090614dfd565b80601f016020809104026020016040519081016040528092919081815260200182805461126c90614dfd565b80156112b95780601f1061128e576101008083540402835291602001916112b9565b820191906000526020600020905b81548152906001019060200180831161129c57829003601f168201915b5050509183525050600482015473ffffffffffffffffffffffffffffffffffffffff166020820152600582015460408201526006909101546060909101529050611303888861206e565b9350670de0b6b3a76400008160c001518561131e9190615079565b6113289190615090565b9250670de0b6b3a76400008160a00151856113439190615079565b61134d9190615090565b91508261135a83866150cb565b61136491906150cb565b94505093509350935093565b3373ffffffffffffffffffffffffffffffffffffffff861681148015906113ca575073ffffffffffffffffffffffffffffffffffffffff80871660009081526002602090815260408083209385168352929052205460ff16155b15611421576040517fe237d92200000000000000000000000000000000000000000000000000000000815273ffffffffffffffffffffffffffffffffffffffff808316600483015287166024820152604401610da9565b61142e86868686866134d1565b505050505050565b600081815260046020526040812054610946565b600f602052816000526040600020818154811061146657600080fd5b90600052602060002001600091509150505481565b606081518351146114c557815183516040517f5b05999100000000000000000000000000000000000000000000000000000000815260048101929092526024820152604401610da9565b6000835167ffffffffffffffff8111156114e1576114e16143c4565b60405190808252806020026020018201604052801561150a578160200160208202803683370190505b50905060005b84518110156115615760208082028601015161153490602080840287010151610915565b828281518110611546576115466150de565b602090810291909101015261155a8161501c565b9050611510565b509392505050565b6000818152600c60209081526040808320815160e08101835281548152600182015473ffffffffffffffffffffffffffffffffffffffff169381019390935260028101805485948594859485949293909291840191906115c890614dfd565b80601f01602080910402602001604051908101604052809291908181526020018280546115f490614dfd565b80156116415780601f1061161657610100808354040283529160200191611641565b820191906000526020600020905b81548152906001019060200180831161162457829003601f168201915b5050505050815260200160038201805461165a90614dfd565b80601f016020809104026020016040519081016040528092919081815260200182805461168690614dfd565b80156116d35780601f106116a8576101008083540402835291602001916116d3565b820191906000526020600020905b8154815290600101906020018083116116b657829003601f168201915b5050509183525050600482015473ffffffffffffffffffffffffffffffffffffffff16602082015260058201546040820152600690910154606090910152905061171d88886125e0565b9350670de0b6b3a76400008160c00151856117389190615079565b6117429190615090565b9250670de0b6b3a76400008160a001518561175d9190615079565b6117679190615090565b915082611774838661510d565b611364919061510d565b6117f060405180610140016040528060008152602001600073ffffffffffffffffffffffffffffffffffffffff168152602001600081526020016060815260200160608152602001600060ff168152602001600060ff1681526020016060815260200160008152602001600081525090565b73ffffffffffffffffffffffffffffffffffffffff82166000908152600f602090815260408083208054825181850281018501909352808352919290919083018282801561185d57602002820191906000526020600020905b815481526020019060010190808311611849575b50505050509050600081511115611ad8576000816001835161187f91906150cb565b8151811061188f5761188f6150de565b60200260200101519050600e600082815260200190815260200160002060405180610140016040529081600082015481526020016001820160009054906101000a900473ffffffffffffffffffffffffffffffffffffffff1673ffffffffffffffffffffffffffffffffffffffff1673ffffffffffffffffffffffffffffffffffffffff1681526020016002820154815260200160038201805461193290614dfd565b80601f016020809104026020016040519081016040528092919081815260200182805461195e90614dfd565b80156119ab5780601f10611980576101008083540402835291602001916119ab565b820191906000526020600020905b81548152906001019060200180831161198e57829003601f168201915b505050505081526020016004820180546119c490614dfd565b80601f01602080910402602001604051908101604052809291908181526020018280546119f090614dfd565b8015611a3d5780601f10611a1257610100808354040283529160200191611a3d565b820191906000526020600020905b815481529060010190602001808311611a2057829003601f168201915b5050509183525050600582015460ff808216602080850191909152610100909204166040808401919091526006840180548251818502810185019093528083526060909401939192909190830182828015611ab757602002820191906000526020600020905b815481526020019060010190808311611aa3575b50505050508152602001600782015481526020016008820154815250509250505b50919050565b600c60205260009081526040902080546001820154600283018054929373ffffffffffffffffffffffffffffffffffffffff90921692611b1d90614dfd565b80601f0160208091040260200160405190810160405280929190818152602001828054611b4990614dfd565b8015611b965780601f10611b6b57610100808354040283529160200191611b96565b820191906000526020600020905b815481529060010190602001808311611b7957829003601f168201915b505050505090806003018054611bab90614dfd565b80601f0160208091040260200160405190810160405280929190818152602001828054611bd790614dfd565b8015611c245780601f10611bf957610100808354040283529160200191611c24565b820191906000526020600020905b815481529060010190602001808311611c0757829003601f168201915b5050505060048301546005840154600690940154929373ffffffffffffffffffffffffffffffffffffffff9091169290915087565b611c61613585565b611c6b60006135d8565b565b6007805460ff908116600090815260086020526040812080547fffffffffffffffffffffffff00000000000000000000000000000000000000001673ffffffffffffffffffffffffffffffffffffffff861617905582549091169190611cd283615120565b91906101000a81548160ff021916908360ff1602179055505050565b6009805460ff9081166000908152600a6020526040812080547fffffffffffffffffffffffff00000000000000000000000000000000000000001673ffffffffffffffffffffffffffffffffffffffff861617905582549091169190611cd283615120565b600e602052600090815260409020805460018201546002830154600384018054939473ffffffffffffffffffffffffffffffffffffffff90931693919291611d9a90614dfd565b80601f0160208091040260200160405190810160405280929190818152602001828054611dc690614dfd565b8015611e135780601f10611de857610100808354040283529160200191611e13565b820191906000526020600020905b815481529060010190602001808311611df657829003601f168201915b505050505090806004018054611e2890614dfd565b80601f0160208091040260200160405190810160405280929190818152602001828054611e5490614dfd565b8015611ea15780601f10611e7657610100808354040283529160200191611ea1565b820191906000526020600020905b815481529060010190602001808311611e8457829003601f168201915b50505060058401546007850154600890950154939460ff80831695610100909304169350915089565b6040805160e081018252600b548082523360208084019182528551848601908152868201516060808701919091528787015173ffffffffffffffffffffffffffffffffffffffff9081166080808901919091529189015160a08801529088015160c08701526000948552600c909252949092208351815590516001820180547fffffffffffffffffffffffff000000000000000000000000000000000000000016919093161790915591519091906002820190611f879082614e90565b5060608201516003820190611f9c9082614e90565b506080828101516004830180547fffffffffffffffffffffffff00000000000000000000000000000000000000001673ffffffffffffffffffffffffffffffffffffffff90921691909117905560a0830151600583015560c090920151600690910155600b5482516020840151604080860151606087015195870151915133967f95860c408b95c37c8a315717a02901b7a1c080fac2b72783fcc47c0a875ab5cb9661204e969095909490939261513f565b60405180910390a2600b80549060006120668361501c565b919050555050565b600082815260046020908152604080832054600e835281842082516101408101845281548152600182015473ffffffffffffffffffffffffffffffffffffffff1694810194909452600281015492840192909252600382018054919385939092909160608401916120de90614dfd565b80601f016020809104026020016040519081016040528092919081815260200182805461210a90614dfd565b80156121575780601f1061212c57610100808354040283529160200191612157565b820191906000526020600020905b81548152906001019060200180831161213a57829003601f168201915b5050505050815260200160048201805461217090614dfd565b80601f016020809104026020016040519081016040528092919081815260200182805461219c90614dfd565b80156121e95780601f106121be576101008083540402835291602001916121e9565b820191906000526020600020905b8154815290600101906020018083116121cc57829003601f168201915b5050509183525050600582015460ff80821660208085019190915261010090920416604080840191909152600684018054825181850281018501909352808352606090940193919290919083018282801561226357602002820191906000526020600020905b81548152602001906001019080831161224f575b5050509183525050600782015460208083019190915260089283015460409283015260c084015160ff16600090815292905290205490915073ffffffffffffffffffffffffffffffffffffffff166317c8ad7c6122c086856150cb565b868460e001516040518463ffffffff1660e01b81526004016122e49392919061519f565b602060405180830381865afa158015612301573d6000803e3d6000fd5b505050506040513d601f19601f8201168201806040525081019061232591906151be565b95945050505050565b61233933838361364d565b5050565b6000828152600c60205260409020600181015473ffffffffffffffffffffffffffffffffffffffff166123cc576040517f08c379a000000000000000000000000000000000000000000000000000000000815260206004820152600f60248201527f417070206e6f74206578697374656400000000000000000000000000000000006044820152606401610da9565b600181015473ffffffffffffffffffffffffffffffffffffffff16331461244f576040517f08c379a000000000000000000000000000000000000000000000000000000000815260206004820152601b60248201527f4f6e6c792063726561746f722063616e207570646174652041707000000000006044820152606401610da9565b6040805160e081018252825481523360208083019182528551838501908152868201516060808601919091528786015173ffffffffffffffffffffffffffffffffffffffff9081166080808801919091529189015160a08701529088015160c0860152600b546000908152600c909352949091208351815591516001830180547fffffffffffffffffffffffff00000000000000000000000000000000000000001691909516179093559151909190600282019061250d9082614e90565b50606082015160038201906125229082614e90565b506080828101516004830180547fffffffffffffffffffffffff00000000000000000000000000000000000000001673ffffffffffffffffffffffffffffffffffffffff90921691909117905560a0830151600583015560c090920151600690910155815483516020850151604080870151606088015195880151915133967f2a24f65606d720ce9fcf601d2f201f9807a391a3eb1f04ae8b49b6313b101c3d966125d3969095909490939261513f565b60405180910390a2505050565b600082815260046020908152604080832054600e835281842082516101408101845281548152600182015473ffffffffffffffffffffffffffffffffffffffff16948101949094526002810154928401929092526003820180549193859390929091606084019161265090614dfd565b80601f016020809104026020016040519081016040528092919081815260200182805461267c90614dfd565b80156126c95780601f1061269e576101008083540402835291602001916126c9565b820191906000526020600020905b8154815290600101906020018083116126ac57829003601f168201915b505050505081526020016004820180546126e290614dfd565b80601f016020809104026020016040519081016040528092919081815260200182805461270e90614dfd565b801561275b5780601f106127305761010080835404028352916020019161275b565b820191906000526020600020905b81548152906001019060200180831161273e57829003601f168201915b5050509183525050600582015460ff8082166020808501919091526101009092041660408084019190915260068401805482518185028101850190935280835260609094019391929091908301828280156127d557602002820191906000526020600020905b8154815260200190600101908083116127c1575b5050509183525050600782015460208083019190915260089283015460409283015260c084015160ff166000908152929052908190205460e083015191517f17c8ad7c00000000000000000000000000000000000000000000000000000000815292935073ffffffffffffffffffffffffffffffffffffffff16916317c8ad7c916122e4918691899160040161519f565b6128d860405180610140016040528060008152602001600073ffffffffffffffffffffffffffffffffffffffff168152602001600081526020016060815260200160608152602001600060ff168152602001600060ff1681526020016060815260200160008152602001600081525090565b6000828152600e602090815260409182902082516101408101845281548152600182015473ffffffffffffffffffffffffffffffffffffffff169281019290925260028101549282019290925260038201805491929160608401919061293d90614dfd565b80601f016020809104026020016040519081016040528092919081815260200182805461296990614dfd565b80156129b65780601f1061298b576101008083540402835291602001916129b6565b820191906000526020600020905b81548152906001019060200180831161299957829003601f168201915b505050505081526020016004820180546129cf90614dfd565b80601f01602080910402602001604051908101604052809291908181526020018280546129fb90614dfd565b8015612a485780601f10612a1d57610100808354040283529160200191612a48565b820191906000526020600020905b815481529060010190602001808311612a2b57829003601f168201915b5050509183525050600582015460ff808216602080850191909152610100909204166040808401919091526006840180548251818502810185019093528083526060909401939192909190830182828015612ac257602002820191906000526020600020905b815481526020019060010190808311612aae575b50505050508152602001600782015481526020016008820154815250509050919050565b612aee613735565b600d548210612b59576040517f08c379a000000000000000000000000000000000000000000000000000000000815260206004820152601460248201527f4372656174696f6e206e6f7420657869737465640000000000000000000000006044820152606401610da9565b6000600e60008481526020019081526020016000209050600080600080612b8587878760020154611569565b935093509350935083341015612bf7576040517f08c379a000000000000000000000000000000000000000000000000000000000815260206004820152601460248201527f496e73756666696369656e74207061796d656e740000000000000000000000006044820152606401610da9565b600585015460ff166000908152600a6020908152604080832054815192830190915291815273ffffffffffffffffffffffffffffffffffffffff90911690612c449033908a908a9061344e565b33886001604080518b8152602081018a9052908101879052606081018690527f817bc0138a01add0b2c69b5a8be38829332e3b471218b3cbcd27a0a85efaedba9060800160405180910390a4612c9a8185613778565b8073ffffffffffffffffffffffffffffffffffffffff1663d0e30db06040518163ffffffff1660e01b8152600401600060405180830381600087803b158015612ce257600080fd5b505af1158015612cf6573d6000803e3d6000fd5b505050508360106000828254612d0c919061510d565b9250508190555083866007016000828254612d27919061510d565b9250508190555083866008016000828254612d42919061510d565b90915550506001860154612d6c9073ffffffffffffffffffffffffffffffffffffffff1684613778565b8115612f22576000888152600c60209081526040808320815160e08101835281548152600182015473ffffffffffffffffffffffffffffffffffffffff16938101939093526002810180549192840191612dc590614dfd565b80601f0160208091040260200160405190810160405280929190818152602001828054612df190614dfd565b8015612e3e5780601f10612e1357610100808354040283529160200191612e3e565b820191906000526020600020905b815481529060010190602001808311612e2157829003601f168201915b50505050508152602001600382018054612e5790614dfd565b80601f0160208091040260200160405190810160405280929190818152602001828054612e8390614dfd565b8015612ed05780601f10612ea557610100808354040283529160200191612ed0565b820191906000526020600020905b815481529060010190602001808311612eb357829003601f168201915b5050509183525050600482015473ffffffffffffffffffffffffffffffffffffffff166020820152600582015460408201526006909101546060909101526080810151909150612f209084613778565b505b6000612f2e86346150cb565b90508015612f4057612f403382613778565b505050505050506123396001600655565b612f59613735565b600d548210612fc4576040517f08c379a000000000000000000000000000000000000000000000000000000000815260206004820152601460248201527f4372656174696f6e206e6f7420657869737465640000000000000000000000006044820152606401610da9565b6000600e60008481526020019081526020016000209050600080600080612ff08787876002015461114f565b600589015460ff166000908152600a6020526040908190205490517f2e1a7d4d00000000000000000000000000000000000000000000000000000000815260048101859052949850929650909450925073ffffffffffffffffffffffffffffffffffffffff16908190632e1a7d4d90602401600060405180830381600087803b15801561307c57600080fd5b505af1158015613090573d6000803e3d6000fd5b5050505083601060008282546130a691906150cb565b92505081905550838660070160008282546130c191906150cb565b92505081905550838660080160008282546130dc919061510d565b909155506130ed9050338989613861565b33886001604080518b8152602081018a9052908101879052606081018690527f817bc0138a01add0b2c69b5a8be38829332e3b471218b3cbcd27a0a85efaedba9060800160405180910390a46131433386613778565b60018601546131689073ffffffffffffffffffffffffffffffffffffffff1684613778565b811561331c576000888152600c60209081526040808320815160e08101835281548152600182015473ffffffffffffffffffffffffffffffffffffffff169381019390935260028101805491928401916131c190614dfd565b80601f01602080910402602001604051908101604052809291908181526020018280546131ed90614dfd565b801561323a5780601f1061320f5761010080835404028352916020019161323a565b820191906000526020600020905b81548152906001019060200180831161321d57829003601f168201915b5050505050815260200160038201805461325390614dfd565b80601f016020809104026020016040519081016040528092919081815260200182805461327f90614dfd565b80156132cc5780601f106132a1576101008083540402835291602001916132cc565b820191906000526020600020905b8154815290600101906020018083116132af57829003601f168201915b5050509183525050600482015473ffffffffffffffffffffffffffffffffffffffff166020820152600582015460408201526006909101546060909101526080810151909150612f409084613778565b5050505050506123396001600655565b3373ffffffffffffffffffffffffffffffffffffffff86168114801590613386575073ffffffffffffffffffffffffffffffffffffffff80871660009081526002602090815260408083209385168352929052205460ff16155b156133dd576040517fe237d92200000000000000000000000000000000000000000000000000000000815273ffffffffffffffffffffffffffffffffffffffff808316600483015287166024820152604401610da9565b61142e86868686866138f0565b6133f2613585565b73ffffffffffffffffffffffffffffffffffffffff8116613442576040517f1e4fbdf700000000000000000000000000000000000000000000000000000000815260006004820152602401610da9565b61344b816135d8565b50565b73ffffffffffffffffffffffffffffffffffffffff841661349e576040517f57f447ce00000000000000000000000000000000000000000000000000000000815260006004820152602401610da9565b6040805160018082526020820186905281830190815260608201859052608082019092529061142e6000878484876139cb565b73ffffffffffffffffffffffffffffffffffffffff8416613521576040517f57f447ce00000000000000000000000000000000000000000000000000000000815260006004820152602401610da9565b73ffffffffffffffffffffffffffffffffffffffff8516613571576040517f01a8351400000000000000000000000000000000000000000000000000000000815260006004820152602401610da9565b61357e85858585856139cb565b5050505050565b60005473ffffffffffffffffffffffffffffffffffffffff163314611c6b576040517f118cdaa7000000000000000000000000000000000000000000000000000000008152336004820152602401610da9565b6000805473ffffffffffffffffffffffffffffffffffffffff8381167fffffffffffffffffffffffff0000000000000000000000000000000000000000831681178455604051919092169283917f8be0079c531659141344cd1fd0a4f28419497f9722a3daafe3b4186f6b6457e09190a35050565b73ffffffffffffffffffffffffffffffffffffffff821661369d576040517fced3e10000000000000000000000000000000000000000000000000000000000815260006004820152602401610da9565b73ffffffffffffffffffffffffffffffffffffffff83811660008181526002602090815260408083209487168084529482529182902080547fffffffffffffffffffffffffffffffffffffffffffffffffffffffffffffff001686151590811790915591519182527f17307eab39ab6107e8899845ad3d59bd9653f200f220920489ca2b5937696c31910160405180910390a3505050565b600260065403613771576040517f3ee5aeb500000000000000000000000000000000000000000000000000000000815260040160405180910390fd5b6002600655565b6040805160008082526020820190925273ffffffffffffffffffffffffffffffffffffffff84169083906040516137af91906151d7565b60006040518083038185875af1925050503d80600081146137ec576040519150601f19603f3d011682016040523d82523d6000602084013e6137f1565b606091505b505090508061385c576040517f08c379a000000000000000000000000000000000000000000000000000000000815260206004820152601360248201527f455448207472616e73666572206661696c6564000000000000000000000000006044820152606401610da9565b505050565b73ffffffffffffffffffffffffffffffffffffffff83166138b1576040517f01a8351400000000000000000000000000000000000000000000000000000000815260006004820152602401610da9565b604080516001808252602082018590528183019081526060820184905260a0820190925260006080820181815291929161357e918791859085906139cb565b73ffffffffffffffffffffffffffffffffffffffff8416613940576040517f57f447ce00000000000000000000000000000000000000000000000000000000815260006004820152602401610da9565b73ffffffffffffffffffffffffffffffffffffffff8516613990576040517f01a8351400000000000000000000000000000000000000000000000000000000815260006004820152602401610da9565b604080516001808252602082018690528183019081526060820185905260808201909252906139c287878484876139cb565b50505050505050565b6139d785858585613a2b565b73ffffffffffffffffffffffffffffffffffffffff84161561357e5782513390600103613a1d5760208481015190840151613a16838989858589613a3d565b505061142e565b61142e818787878787613c2f565b613a3784848484613dc0565b50505050565b73ffffffffffffffffffffffffffffffffffffffff84163b1561142e576040517ff23a6e6100000000000000000000000000000000000000000000000000000000815273ffffffffffffffffffffffffffffffffffffffff85169063f23a6e6190613ab490899089908890889088906004016151f3565b6020604051808303816000875af1925050508015613b0d575060408051601f3d9081017fffffffffffffffffffffffffffffffffffffffffffffffffffffffffffffffe0168201909252613b0a91810190615243565b60015b613b9c573d808015613b3b576040519150601f19603f3d011682016040523d82523d6000602084013e613b40565b606091505b508051600003613b94576040517f57f447ce00000000000000000000000000000000000000000000000000000000815273ffffffffffffffffffffffffffffffffffffffff86166004820152602401610da9565b805181602001fd5b7fffffffff0000000000000000000000000000000000000000000000000000000081167ff23a6e6100000000000000000000000000000000000000000000000000000000146139c2576040517f57f447ce00000000000000000000000000000000000000000000000000000000815273ffffffffffffffffffffffffffffffffffffffff86166004820152602401610da9565b73ffffffffffffffffffffffffffffffffffffffff84163b1561142e576040517fbc197c8100000000000000000000000000000000000000000000000000000000815273ffffffffffffffffffffffffffffffffffffffff85169063bc197c8190613ca69089908990889088908890600401615260565b6020604051808303816000875af1925050508015613cff575060408051601f3d9081017fffffffffffffffffffffffffffffffffffffffffffffffffffffffffffffffe0168201909252613cfc91810190615243565b60015b613d2d573d808015613b3b576040519150601f19603f3d011682016040523d82523d6000602084013e613b40565b7fffffffff0000000000000000000000000000000000000000000000000000000081167fbc197c8100000000000000000000000000000000000000000000000000000000146139c2576040517f57f447ce00000000000000000000000000000000000000000000000000000000815273ffffffffffffffffffffffffffffffffffffffff86166004820152602401610da9565b613dcc84848484613f34565b73ffffffffffffffffffffffffffffffffffffffff8416613e8c576000805b8351811015613e72576000838281518110613e0857613e086150de565b602002602001015190508060046000878581518110613e2957613e296150de565b602002602001015181526020019081526020016000206000828254613e4e919061510d565b90915550613e5e9050818461510d565b92505080613e6b9061501c565b9050613deb565b508060056000828254613e85919061510d565b9091555050505b73ffffffffffffffffffffffffffffffffffffffff8316613a37576000805b8351811015613f23576000838281518110613ec857613ec86150de565b602002602001015190508060046000878581518110613ee957613ee96150de565b602002602001015181526020019081526020016000206000828254039250508190555080830192505080613f1c9061501c565b9050613eab565b506005805491909103905550505050565b8051825114613f7c57815181516040517f5b05999100000000000000000000000000000000000000000000000000000000815260048101929092526024820152604401610da9565b3360005b83518110156140f85760208181028581018201519085019091015173ffffffffffffffffffffffffffffffffffffffff88161561408457600082815260016020908152604080832073ffffffffffffffffffffffffffffffffffffffff8c1684529091529020548181101561404e576040517f03dee4c500000000000000000000000000000000000000000000000000000000815273ffffffffffffffffffffffffffffffffffffffff8a166004820152602481018290526044810183905260648101849052608401610da9565b600083815260016020908152604080832073ffffffffffffffffffffffffffffffffffffffff8d16845290915290209082900390555b73ffffffffffffffffffffffffffffffffffffffff8716156140e557600082815260016020908152604080832073ffffffffffffffffffffffffffffffffffffffff8b168452909152812080548392906140df90849061510d565b90915550505b5050806140f19061501c565b9050613f80565b5082516001036141a057602083015160009060208401519091508573ffffffffffffffffffffffffffffffffffffffff168773ffffffffffffffffffffffffffffffffffffffff168473ffffffffffffffffffffffffffffffffffffffff167fc3d58168c5ae7397731d063d5bbf3d657854427343f4c083240f7aacaa2d0f628585604051614191929190918252602082015260400190565b60405180910390a4505061357e565b8373ffffffffffffffffffffffffffffffffffffffff168573ffffffffffffffffffffffffffffffffffffffff168273ffffffffffffffffffffffffffffffffffffffff167f4a39dc06d4c0dbc64b70af90fd698a233a518aa5d07e595d983b8c0526c8f7fb86866040516142169291906152cb565b60405180910390a45050505050565b828054828255906000526020600020908101928215614260579160200282015b82811115614260578251825591602001919060010190614245565b5061426c929150614270565b5090565b5b8082111561426c5760008155600101614271565b803573ffffffffffffffffffffffffffffffffffffffff811681146142a957600080fd5b919050565b600080604083850312156142c157600080fd5b6142ca83614285565b946020939093013593505050565b7fffffffff000000000000000000000000000000000000000000000000000000008116811461344b57600080fd5b60006020828403121561431857600080fd5b8135614323816142d8565b9392505050565b60006020828403121561433c57600080fd5b5035919050565b60005b8381101561435e578181015183820152602001614346565b50506000910152565b6000815180845261437f816020860160208601614343565b601f017fffffffffffffffffffffffffffffffffffffffffffffffffffffffffffffffe0169290920160200192915050565b6020815260006143236020830184614367565b7f4e487b7100000000000000000000000000000000000000000000000000000000600052604160045260246000fd5b60405160c0810167ffffffffffffffff81118282101715614416576144166143c4565b60405290565b604051601f82017fffffffffffffffffffffffffffffffffffffffffffffffffffffffffffffffe016810167ffffffffffffffff81118282101715614463576144636143c4565b604052919050565b600082601f83011261447c57600080fd5b813567ffffffffffffffff811115614496576144966143c4565b6144c760207fffffffffffffffffffffffffffffffffffffffffffffffffffffffffffffffe0601f8401160161441c565b8181528460208386010111156144dc57600080fd5b816020850160208301376000918101602001919091529392505050565b803560ff811681146142a957600080fd5b600067ffffffffffffffff821115614524576145246143c4565b5060051b60200190565b600082601f83011261453f57600080fd5b8135602061455461454f8361450a565b61441c565b82815260059290921b8401810191818101908684111561457357600080fd5b8286015b8481101561458e5780358352918301918301614577565b509695505050505050565b6000602082840312156145ab57600080fd5b813567ffffffffffffffff808211156145c357600080fd5b9083019060c082860312156145d757600080fd5b6145df6143f3565b8235828111156145ee57600080fd5b6145fa8782860161446b565b82525060208301356020820152614613604084016144f9565b6040820152614624606084016144f9565b606082015260808301358281111561463b57600080fd5b6146478782860161452e565b60808301525060a08301358281111561465f57600080fd5b61466b8782860161446b565b60a08301525095945050505050565b6000806040838503121561468d57600080fd5b82359150602083013567ffffffffffffffff808211156146ac57600080fd5b90840190604082870312156146c057600080fd5b6040516040810181811083821117156146db576146db6143c4565b6040528235828111156146ed57600080fd5b6146f98882860161446b565b82525060208301358281111561470e57600080fd5b61471a8882860161446b565b6020830152508093505050509250929050565b60006020828403121561473f57600080fd5b614323826144f9565b60208152815160208201526000602083015173ffffffffffffffffffffffffffffffffffffffff80821660408501526040850151915060e06060850152614793610100850183614367565b915060608501517fffffffffffffffffffffffffffffffffffffffffffffffffffffffffffffffe08584030160808601526147ce8382614367565b9250508060808601511660a08501525060a084015160c084015260c084015160e08401528091505092915050565b60006020828403121561480e57600080fd5b61432382614285565b600081518084526020808501945080840160005b838110156148475781518752958201959082019060010161482b565b509495945050505050565b6020815260006143236020830184614817565b60008060006060848603121561487a57600080fd5b505081359360208301359350604090920135919050565b600080600080600060a086880312156148a957600080fd5b6148b286614285565b94506148c060208701614285565b9350604086013567ffffffffffffffff808211156148dd57600080fd5b6148e989838a0161452e565b945060608801359150808211156148ff57600080fd5b61490b89838a0161452e565b9350608088013591508082111561492157600080fd5b5061492e8882890161446b565b9150509295509295909350565b6000806040838503121561494e57600080fd5b823567ffffffffffffffff8082111561496657600080fd5b818501915085601f83011261497a57600080fd5b8135602061498a61454f8361450a565b82815260059290921b840181019181810190898411156149a957600080fd5b948201945b838610156149ce576149bf86614285565b825294820194908201906149ae565b965050860135925050808211156149e457600080fd5b506149f18582860161452e565b9150509250929050565b602081528151602082015260006020830151614a2f604084018273ffffffffffffffffffffffffffffffffffffffff169052565b50604083015160608301526060830151610140806080850152614a56610160850183614367565b915060808501517fffffffffffffffffffffffffffffffffffffffffffffffffffffffffffffffe0808685030160a0870152614a928483614367565b935060a08701519150614aaa60c087018360ff169052565b60c087015160ff811660e0880152915060e08701519150610100818786030181880152614ad78584614817565b908801516101208881019190915290970151929095019190915250929392505050565b878152600073ffffffffffffffffffffffffffffffffffffffff808916602084015260e06040840152614b3060e0840189614367565b8381036060850152614b428189614367565b91909616608084015260a08301949094525060c0015295945050505050565b60006101208b835273ffffffffffffffffffffffffffffffffffffffff8b166020840152896040840152806060840152614b9d8184018a614367565b90508281036080840152614bb18189614367565b60ff97881660a08501529590961660c08301525060e0810192909252610100909101529695505050505050565b600060a08284031215614bf057600080fd5b60405160a0810167ffffffffffffffff8282108183111715614c1457614c146143c4565b816040528293508435915080821115614c2c57600080fd5b614c388683870161446b565b83526020850135915080821115614c4e57600080fd5b50614c5b8582860161446b565b602083015250614c6d60408401614285565b604082015260608301356060820152608083013560808201525092915050565b600060208284031215614c9f57600080fd5b813567ffffffffffffffff811115614cb657600080fd5b614cc284828501614bde565b949350505050565b60008060408385031215614cdd57600080fd5b50508035926020909101359150565b60008060408385031215614cff57600080fd5b614d0883614285565b915060208301358015158114614d1d57600080fd5b809150509250929050565b60008060408385031215614d3b57600080fd5b82359150602083013567ffffffffffffffff811115614d5957600080fd5b6149f185828601614bde565b60008060408385031215614d7857600080fd5b614d8183614285565b9150614d8f60208401614285565b90509250929050565b600080600080600060a08688031215614db057600080fd5b614db986614285565b9450614dc760208701614285565b93506040860135925060608601359150608086013567ffffffffffffffff811115614df157600080fd5b61492e8882890161446b565b600181811c90821680614e1157607f821691505b602082108103611ad8577f4e487b7100000000000000000000000000000000000000000000000000000000600052602260045260246000fd5b601f82111561385c57600081815260208120601f850160051c81016020861015614e715750805b601f850160051c820191505b8181101561142e57828155600101614e7d565b815167ffffffffffffffff811115614eaa57614eaa6143c4565b614ebe81614eb88454614dfd565b84614e4a565b602080601f831160018114614f115760008415614edb5750858301515b7fffffffffffffffffffffffffffffffffffffffffffffffffffffffffffffffff600386901b1c1916600185901b17855561142e565b6000858152602081207fffffffffffffffffffffffffffffffffffffffffffffffffffffffffffffffe08616915b82811015614f5e57888601518255948401946001909101908401614f3f565b5085821015614f9a57878501517fffffffffffffffffffffffffffffffffffffffffffffffffffffffffffffffff600388901b60f8161c191681555b5050505050600190811b01905550565b608081526000614fbd6080830187614367565b8281036020840152614fcf8187614367565b91505060ff8416604083015260ff8316606083015295945050505050565b7f4e487b7100000000000000000000000000000000000000000000000000000000600052601160045260246000fd5b60007fffffffffffffffffffffffffffffffffffffffffffffffffffffffffffffffff820361504d5761504d614fed565b5060010190565b6040815260006150676040830185614367565b82810360208401526123258185614367565b808202811582820484141761094657610946614fed565b6000826150c6577f4e487b7100000000000000000000000000000000000000000000000000000000600052601260045260246000fd5b500490565b8181038181111561094657610946614fed565b7f4e487b7100000000000000000000000000000000000000000000000000000000600052603260045260246000fd5b8082018082111561094657610946614fed565b600060ff821660ff810361513657615136614fed565b60010192915050565b86815260c06020820152600061515860c0830188614367565b828103604084015261516a8188614367565b73ffffffffffffffffffffffffffffffffffffffff9690961660608401525050608081019290925260a0909101529392505050565b8381528260208201526060604082015260006123256060830184614817565b6000602082840312156151d057600080fd5b5051919050565b600082516151e9818460208701614343565b9190910192915050565b600073ffffffffffffffffffffffffffffffffffffffff808816835280871660208401525084604083015283606083015260a0608083015261523860a0830184614367565b979650505050505050565b60006020828403121561525557600080fd5b8151614323816142d8565b600073ffffffffffffffffffffffffffffffffffffffff808816835280871660208401525060a0604083015261529960a0830186614817565b82810360608401526152ab8186614817565b905082810360808401526152bf8185614367565b98975050505050505050565b6040815260006152de6040830185614817565b8281036020840152612325818561481756fea2646970667358221220541d9103fd8e2e0902d5c6cd10fe3de1d0be11b9649e1bb430a272302f74a14764736f6c63430008140033",
  "libraries": {},
  "devdoc": {
    "errors": {
      "ERC1155InsufficientBalance(address,uint256,uint256,uint256)": [
        {
          "details": "Indicates an error related to the current `balance` of a `sender`. Used in transfers.",
          "params": {
            "balance": "Current balance for the interacting account.",
            "needed": "Minimum amount required to perform a transfer.",
            "sender": "Address whose tokens are being transferred.",
            "tokenId": "Identifier number of a token."
          }
        }
      ],
      "ERC1155InvalidApprover(address)": [
        {
          "details": "Indicates a failure with the `approver` of a token to be approved. Used in approvals.",
          "params": {
            "approver": "Address initiating an approval operation."
          }
        }
      ],
      "ERC1155InvalidArrayLength(uint256,uint256)": [
        {
          "details": "Indicates an array length mismatch between ids and values in a safeBatchTransferFrom operation. Used in batch transfers.",
          "params": {
            "idsLength": "Length of the array of token identifiers",
            "valuesLength": "Length of the array of token amounts"
          }
        }
      ],
      "ERC1155InvalidOperator(address)": [
        {
          "details": "Indicates a failure with the `operator` to be approved. Used in approvals.",
          "params": {
            "operator": "Address that may be allowed to operate on tokens without being their owner."
          }
        }
      ],
      "ERC1155InvalidReceiver(address)": [
        {
          "details": "Indicates a failure with the token `receiver`. Used in transfers.",
          "params": {
            "receiver": "Address to which tokens are being transferred."
          }
        }
      ],
      "ERC1155InvalidSender(address)": [
        {
          "details": "Indicates a failure with the token `sender`. Used in transfers.",
          "params": {
            "sender": "Address whose tokens are being transferred."
          }
        }
      ],
      "ERC1155MissingApprovalForAll(address,address)": [
        {
          "details": "Indicates a failure with the `operator`s approval. Used in transfers.",
          "params": {
            "operator": "Address that may be allowed to operate on tokens without being their owner.",
            "owner": "Address of the current owner of a token."
          }
        }
      ],
      "OwnableInvalidOwner(address)": [
        {
          "details": "The owner is not a valid owner account. (eg. `address(0)`)"
        }
      ],
      "OwnableUnauthorizedAccount(address)": [
        {
          "details": "The caller account is not authorized to perform an operation."
        }
      ],
      "ReentrancyGuardReentrantCall()": [
        {
          "details": "Unauthorized reentrant call."
        }
      ]
    },
    "events": {
      "ApprovalForAll(address,address,bool)": {
        "details": "Emitted when `account` grants or revokes permission to `operator` to transfer their tokens, according to `approved`."
      },
      "TransferBatch(address,address,address,uint256[],uint256[])": {
        "details": "Equivalent to multiple {TransferSingle} events, where `operator`, `from` and `to` are the same for all transfers."
      },
      "TransferSingle(address,address,address,uint256,uint256)": {
        "details": "Emitted when `value` amount of tokens of type `id` are transferred from `from` to `to` by `operator`."
      },
      "URI(string,uint256)": {
        "details": "Emitted when the URI for token type `id` changes to `value`, if it is a non-programmatic URI. If an {URI} event was emitted for `id`, the standard https://eips.ethereum.org/EIPS/eip-1155#metadata-extensions[guarantees] that `value` will equal the value returned by {IERC1155MetadataURI-uri}."
      }
    },
    "kind": "dev",
    "methods": {
      "balanceOf(address,uint256)": {
        "details": "See {IERC1155-balanceOf}."
      },
      "balanceOfBatch(address[],uint256[])": {
        "details": "See {IERC1155-balanceOfBatch}. Requirements: - `accounts` and `ids` must have the same length."
      },
      "exists(uint256)": {
        "details": "Indicates whether any token exist with a given id, or not."
      },
      "isApprovedForAll(address,address)": {
        "details": "See {IERC1155-isApprovedForAll}."
      },
      "owner()": {
        "details": "Returns the address of the current owner."
      },
      "renounceOwnership()": {
        "details": "Leaves the contract without owner. It will not be possible to call `onlyOwner` functions. Can only be called by the current owner. NOTE: Renouncing ownership will leave the contract without an owner, thereby disabling any functionality that is only available to the owner."
      },
      "safeBatchTransferFrom(address,address,uint256[],uint256[],bytes)": {
        "details": "See {IERC1155-safeBatchTransferFrom}."
      },
      "safeTransferFrom(address,address,uint256,uint256,bytes)": {
        "details": "See {IERC1155-safeTransferFrom}."
      },
      "setApprovalForAll(address,bool)": {
        "details": "See {IERC1155-setApprovalForAll}."
      },
      "supportsInterface(bytes4)": {
        "details": "See {IERC165-supportsInterface}."
      },
      "totalSupply()": {
        "details": "Total value of tokens."
      },
      "totalSupply(uint256)": {
        "details": "Total value of tokens in with a given id."
      },
      "transferOwnership(address)": {
        "details": "Transfers ownership of the contract to a new account (`newOwner`). Can only be called by the current owner."
      },
      "uri(uint256)": {
        "details": "See {IERC1155MetadataURI-uri}. This implementation returns the same URI for *all* token types. It relies on the token type ID substitution mechanism https://eips.ethereum.org/EIPS/eip-1155#metadata[defined in the EIP]. Clients calling this function must replace the `\\{id\\}` substring with the actual token type ID."
      }
    },
    "version": 1
  },
  "userdoc": {
    "kind": "user",
    "methods": {},
    "version": 1
  },
  "storageLayout": {
    "storage": [
      {
        "astId": 8,
        "contract": "contracts/core/IndieX.sol:IndieX",
        "label": "_owner",
        "offset": 0,
        "slot": "0",
        "type": "t_address"
      },
      {
        "astId": 326,
        "contract": "contracts/core/IndieX.sol:IndieX",
        "label": "_balances",
        "offset": 0,
        "slot": "1",
        "type": "t_mapping(t_uint256,t_mapping(t_address,t_uint256))"
      },
      {
        "astId": 332,
        "contract": "contracts/core/IndieX.sol:IndieX",
        "label": "_operatorApprovals",
        "offset": 0,
        "slot": "2",
        "type": "t_mapping(t_address,t_mapping(t_address,t_bool))"
      },
      {
        "astId": 334,
        "contract": "contracts/core/IndieX.sol:IndieX",
        "label": "_uri",
        "offset": 0,
        "slot": "3",
        "type": "t_string_storage"
      },
      {
        "astId": 1511,
        "contract": "contracts/core/IndieX.sol:IndieX",
        "label": "_totalSupply",
        "offset": 0,
        "slot": "4",
        "type": "t_mapping(t_uint256,t_uint256)"
      },
      {
        "astId": 1513,
        "contract": "contracts/core/IndieX.sol:IndieX",
        "label": "_totalSupplyAll",
        "offset": 0,
        "slot": "5",
        "type": "t_uint256"
      },
      {
        "astId": 2569,
        "contract": "contracts/core/IndieX.sol:IndieX",
        "label": "_status",
        "offset": 0,
        "slot": "6",
        "type": "t_uint256"
      },
      {
        "astId": 3919,
        "contract": "contracts/core/IndieX.sol:IndieX",
        "label": "curveIndex",
        "offset": 0,
        "slot": "7",
        "type": "t_uint8"
      },
      {
        "astId": 3923,
        "contract": "contracts/core/IndieX.sol:IndieX",
        "label": "curves",
        "offset": 0,
        "slot": "8",
        "type": "t_mapping(t_uint8,t_address)"
      },
      {
        "astId": 3926,
        "contract": "contracts/core/IndieX.sol:IndieX",
        "label": "farmerIndex",
        "offset": 0,
        "slot": "9",
        "type": "t_uint8"
      },
      {
        "astId": 3930,
        "contract": "contracts/core/IndieX.sol:IndieX",
        "label": "farmers",
        "offset": 0,
        "slot": "10",
        "type": "t_mapping(t_uint8,t_address)"
      },
      {
        "astId": 3932,
        "contract": "contracts/core/IndieX.sol:IndieX",
        "label": "appIndex",
        "offset": 0,
        "slot": "11",
        "type": "t_uint256"
      },
      {
        "astId": 3937,
        "contract": "contracts/core/IndieX.sol:IndieX",
        "label": "apps",
        "offset": 0,
        "slot": "12",
        "type": "t_mapping(t_uint256,t_struct(App)3875_storage)"
      },
      {
        "astId": 3939,
        "contract": "contracts/core/IndieX.sol:IndieX",
        "label": "creationIndex",
        "offset": 0,
        "slot": "13",
        "type": "t_uint256"
      },
      {
        "astId": 3944,
        "contract": "contracts/core/IndieX.sol:IndieX",
        "label": "creations",
        "offset": 0,
        "slot": "14",
        "type": "t_mapping(t_uint256,t_struct(Creation)3916_storage)"
      },
      {
        "astId": 3949,
        "contract": "contracts/core/IndieX.sol:IndieX",
        "label": "userCreations",
        "offset": 0,
        "slot": "15",
        "type": "t_mapping(t_address,t_array(t_uint256)dyn_storage)"
      },
      {
        "astId": 3952,
        "contract": "contracts/core/IndieX.sol:IndieX",
        "label": "ethAmount",
        "offset": 0,
        "slot": "16",
        "type": "t_uint256"
      },
      {
        "astId": 3958,
        "contract": "contracts/core/IndieX.sol:IndieX",
        "label": "protocolFeePercent",
        "offset": 0,
        "slot": "17",
        "type": "t_uint256"
      }
    ],
    "types": {
      "t_address": {
        "encoding": "inplace",
        "label": "address",
        "numberOfBytes": "20"
      },
      "t_array(t_uint256)dyn_storage": {
        "base": "t_uint256",
        "encoding": "dynamic_array",
        "label": "uint256[]",
        "numberOfBytes": "32"
      },
      "t_bool": {
        "encoding": "inplace",
        "label": "bool",
        "numberOfBytes": "1"
      },
      "t_mapping(t_address,t_array(t_uint256)dyn_storage)": {
        "encoding": "mapping",
        "key": "t_address",
        "label": "mapping(address => uint256[])",
        "numberOfBytes": "32",
        "value": "t_array(t_uint256)dyn_storage"
      },
      "t_mapping(t_address,t_bool)": {
        "encoding": "mapping",
        "key": "t_address",
        "label": "mapping(address => bool)",
        "numberOfBytes": "32",
        "value": "t_bool"
      },
      "t_mapping(t_address,t_mapping(t_address,t_bool))": {
        "encoding": "mapping",
        "key": "t_address",
        "label": "mapping(address => mapping(address => bool))",
        "numberOfBytes": "32",
        "value": "t_mapping(t_address,t_bool)"
      },
      "t_mapping(t_address,t_uint256)": {
        "encoding": "mapping",
        "key": "t_address",
        "label": "mapping(address => uint256)",
        "numberOfBytes": "32",
        "value": "t_uint256"
      },
      "t_mapping(t_uint256,t_mapping(t_address,t_uint256))": {
        "encoding": "mapping",
        "key": "t_uint256",
        "label": "mapping(uint256 => mapping(address => uint256))",
        "numberOfBytes": "32",
        "value": "t_mapping(t_address,t_uint256)"
      },
      "t_mapping(t_uint256,t_struct(App)3875_storage)": {
        "encoding": "mapping",
        "key": "t_uint256",
        "label": "mapping(uint256 => struct IndieX.App)",
        "numberOfBytes": "32",
        "value": "t_struct(App)3875_storage"
      },
      "t_mapping(t_uint256,t_struct(Creation)3916_storage)": {
        "encoding": "mapping",
        "key": "t_uint256",
        "label": "mapping(uint256 => struct IndieX.Creation)",
        "numberOfBytes": "32",
        "value": "t_struct(Creation)3916_storage"
      },
      "t_mapping(t_uint256,t_uint256)": {
        "encoding": "mapping",
        "key": "t_uint256",
        "label": "mapping(uint256 => uint256)",
        "numberOfBytes": "32",
        "value": "t_uint256"
      },
      "t_mapping(t_uint8,t_address)": {
        "encoding": "mapping",
        "key": "t_uint8",
        "label": "mapping(uint8 => address)",
        "numberOfBytes": "32",
        "value": "t_address"
      },
      "t_string_storage": {
        "encoding": "bytes",
        "label": "string",
        "numberOfBytes": "32"
      },
      "t_struct(App)3875_storage": {
        "encoding": "inplace",
        "label": "struct IndieX.App",
        "members": [
          {
            "astId": 3862,
            "contract": "contracts/core/IndieX.sol:IndieX",
            "label": "id",
            "offset": 0,
            "slot": "0",
            "type": "t_uint256"
          },
          {
            "astId": 3864,
            "contract": "contracts/core/IndieX.sol:IndieX",
            "label": "creator",
            "offset": 0,
            "slot": "1",
            "type": "t_address"
          },
          {
            "astId": 3866,
            "contract": "contracts/core/IndieX.sol:IndieX",
            "label": "name",
            "offset": 0,
            "slot": "2",
            "type": "t_string_storage"
          },
          {
            "astId": 3868,
            "contract": "contracts/core/IndieX.sol:IndieX",
            "label": "uri",
            "offset": 0,
            "slot": "3",
            "type": "t_string_storage"
          },
          {
            "astId": 3870,
            "contract": "contracts/core/IndieX.sol:IndieX",
            "label": "feeTo",
            "offset": 0,
            "slot": "4",
            "type": "t_address"
          },
          {
            "astId": 3872,
            "contract": "contracts/core/IndieX.sol:IndieX",
            "label": "appFeePercent",
            "offset": 0,
            "slot": "5",
            "type": "t_uint256"
          },
          {
            "astId": 3874,
            "contract": "contracts/core/IndieX.sol:IndieX",
            "label": "creatorFeePercent",
            "offset": 0,
            "slot": "6",
            "type": "t_uint256"
          }
        ],
        "numberOfBytes": "224"
      },
      "t_struct(Creation)3916_storage": {
        "encoding": "inplace",
        "label": "struct IndieX.Creation",
        "members": [
          {
            "astId": 3896,
            "contract": "contracts/core/IndieX.sol:IndieX",
            "label": "id",
            "offset": 0,
            "slot": "0",
            "type": "t_uint256"
          },
          {
            "astId": 3898,
            "contract": "contracts/core/IndieX.sol:IndieX",
            "label": "creator",
            "offset": 0,
            "slot": "1",
            "type": "t_address"
          },
          {
            "astId": 3900,
            "contract": "contracts/core/IndieX.sol:IndieX",
            "label": "appId",
            "offset": 0,
            "slot": "2",
            "type": "t_uint256"
          },
          {
            "astId": 3902,
            "contract": "contracts/core/IndieX.sol:IndieX",
            "label": "name",
            "offset": 0,
            "slot": "3",
            "type": "t_string_storage"
          },
          {
            "astId": 3904,
            "contract": "contracts/core/IndieX.sol:IndieX",
            "label": "uri",
            "offset": 0,
            "slot": "4",
            "type": "t_string_storage"
          },
          {
            "astId": 3906,
            "contract": "contracts/core/IndieX.sol:IndieX",
            "label": "farmer",
            "offset": 0,
            "slot": "5",
            "type": "t_uint8"
          },
          {
            "astId": 3908,
            "contract": "contracts/core/IndieX.sol:IndieX",
            "label": "curve",
            "offset": 1,
            "slot": "5",
            "type": "t_uint8"
          },
          {
            "astId": 3911,
            "contract": "contracts/core/IndieX.sol:IndieX",
            "label": "curveArgs",
            "offset": 0,
            "slot": "6",
            "type": "t_array(t_uint256)dyn_storage"
          },
          {
            "astId": 3913,
            "contract": "contracts/core/IndieX.sol:IndieX",
            "label": "balance",
            "offset": 0,
            "slot": "7",
            "type": "t_uint256"
          },
          {
            "astId": 3915,
            "contract": "contracts/core/IndieX.sol:IndieX",
            "label": "volume",
            "offset": 0,
            "slot": "8",
            "type": "t_uint256"
          }
        ],
        "numberOfBytes": "288"
      },
      "t_uint256": {
        "encoding": "inplace",
        "label": "uint256",
        "numberOfBytes": "32"
      },
      "t_uint8": {
        "encoding": "inplace",
        "label": "uint8",
        "numberOfBytes": "1"
      }
    }
  }
}