{
  "address": "0x3175106c4997B5120eA27E5a18Df36101dC96111",
  "abi": [
    {
      "inputs": [
        {
          "internalType": "address",
          "name": "initialOwner",
          "type": "address"
        }
      ],
      "stateMutability": "nonpayable",
      "type": "constructor"
    },
    {
      "inputs": [
        {
          "internalType": "address",
          "name": "sender",
          "type": "address"
        },
        {
          "internalType": "uint256",
          "name": "balance",
          "type": "uint256"
        },
        {
          "internalType": "uint256",
          "name": "needed",
          "type": "uint256"
        },
        {
          "internalType": "uint256",
          "name": "tokenId",
          "type": "uint256"
        }
      ],
      "name": "ERC1155InsufficientBalance",
      "type": "error"
    },
    {
      "inputs": [
        {
          "internalType": "address",
          "name": "approver",
          "type": "address"
        }
      ],
      "name": "ERC1155InvalidApprover",
      "type": "error"
    },
    {
      "inputs": [
        {
          "internalType": "uint256",
          "name": "idsLength",
          "type": "uint256"
        },
        {
          "internalType": "uint256",
          "name": "valuesLength",
          "type": "uint256"
        }
      ],
      "name": "ERC1155InvalidArrayLength",
      "type": "error"
    },
    {
      "inputs": [
        {
          "internalType": "address",
          "name": "operator",
          "type": "address"
        }
      ],
      "name": "ERC1155InvalidOperator",
      "type": "error"
    },
    {
      "inputs": [
        {
          "internalType": "address",
          "name": "receiver",
          "type": "address"
        }
      ],
      "name": "ERC1155InvalidReceiver",
      "type": "error"
    },
    {
      "inputs": [
        {
          "internalType": "address",
          "name": "sender",
          "type": "address"
        }
      ],
      "name": "ERC1155InvalidSender",
      "type": "error"
    },
    {
      "inputs": [
        {
          "internalType": "address",
          "name": "operator",
          "type": "address"
        },
        {
          "internalType": "address",
          "name": "owner",
          "type": "address"
        }
      ],
      "name": "ERC1155MissingApprovalForAll",
      "type": "error"
    },
    {
      "inputs": [
        {
          "internalType": "address",
          "name": "owner",
          "type": "address"
        }
      ],
      "name": "OwnableInvalidOwner",
      "type": "error"
    },
    {
      "inputs": [
        {
          "internalType": "address",
          "name": "account",
          "type": "address"
        }
      ],
      "name": "OwnableUnauthorizedAccount",
      "type": "error"
    },
    {
      "inputs": [],
      "name": "ReentrancyGuardReentrantCall",
      "type": "error"
    },
    {
      "anonymous": false,
      "inputs": [
        {
          "indexed": true,
          "internalType": "address",
          "name": "account",
          "type": "address"
        },
        {
          "indexed": true,
          "internalType": "address",
          "name": "operator",
          "type": "address"
        },
        {
          "indexed": false,
          "internalType": "bool",
          "name": "approved",
          "type": "bool"
        }
      ],
      "name": "ApprovalForAll",
      "type": "event"
    },
    {
      "anonymous": false,
      "inputs": [
        {
          "indexed": false,
          "internalType": "uint256",
          "name": "id",
          "type": "uint256"
        },
        {
          "indexed": true,
          "internalType": "address",
          "name": "creator",
          "type": "address"
        },
        {
          "indexed": false,
          "internalType": "string",
          "name": "name",
          "type": "string"
        },
        {
          "indexed": false,
          "internalType": "string",
          "name": "uri",
          "type": "string"
        },
        {
          "indexed": false,
          "internalType": "address",
          "name": "feeTo",
          "type": "address"
        },
        {
          "indexed": false,
          "internalType": "uint256",
          "name": "appFeePercent",
          "type": "uint256"
        },
        {
          "indexed": false,
          "internalType": "uint256",
          "name": "creatorFeePercent",
          "type": "uint256"
        }
      ],
      "name": "NewApp",
      "type": "event"
    },
    {
      "anonymous": false,
      "inputs": [
        {
          "indexed": true,
          "internalType": "uint256",
          "name": "creationId",
          "type": "uint256"
        },
        {
          "indexed": true,
          "internalType": "address",
          "name": "creator",
          "type": "address"
        },
        {
          "indexed": true,
          "internalType": "uint256",
          "name": "appId",
          "type": "uint256"
        },
        {
          "indexed": false,
          "internalType": "string",
          "name": "name",
          "type": "string"
        },
        {
          "indexed": false,
          "internalType": "string",
          "name": "uri",
          "type": "string"
        },
        {
          "indexed": false,
          "internalType": "uint8",
          "name": "curveId",
          "type": "uint8"
        },
        {
          "indexed": false,
          "internalType": "uint8",
          "name": "farmerId",
          "type": "uint8"
        }
      ],
      "name": "NewCreation",
      "type": "event"
    },
    {
      "anonymous": false,
      "inputs": [
        {
          "indexed": true,
          "internalType": "address",
          "name": "previousOwner",
          "type": "address"
        },
        {
          "indexed": true,
          "internalType": "address",
          "name": "newOwner",
          "type": "address"
        }
      ],
      "name": "OwnershipTransferred",
      "type": "event"
    },
    {
      "anonymous": false,
      "inputs": [
        {
          "indexed": true,
          "internalType": "enum IndieX.TradeType",
          "name": "tradeType",
          "type": "uint8"
        },
        {
          "indexed": true,
          "internalType": "uint256",
          "name": "creationId",
          "type": "uint256"
        },
        {
          "indexed": true,
          "internalType": "address",
          "name": "sender",
          "type": "address"
        },
        {
          "indexed": false,
          "internalType": "uint256",
          "name": "tokenAmount",
          "type": "uint256"
        },
        {
          "indexed": false,
          "internalType": "uint256",
          "name": "fundAmount",
          "type": "uint256"
        },
        {
          "indexed": false,
          "internalType": "uint256",
          "name": "creatorFee",
          "type": "uint256"
        },
        {
          "indexed": false,
          "internalType": "uint256",
          "name": "appFee",
          "type": "uint256"
        }
      ],
      "name": "Trade",
      "type": "event"
    },
    {
      "anonymous": false,
      "inputs": [
        {
          "indexed": true,
          "internalType": "address",
          "name": "operator",
          "type": "address"
        },
        {
          "indexed": true,
          "internalType": "address",
          "name": "from",
          "type": "address"
        },
        {
          "indexed": true,
          "internalType": "address",
          "name": "to",
          "type": "address"
        },
        {
          "indexed": false,
          "internalType": "uint256[]",
          "name": "ids",
          "type": "uint256[]"
        },
        {
          "indexed": false,
          "internalType": "uint256[]",
          "name": "values",
          "type": "uint256[]"
        }
      ],
      "name": "TransferBatch",
      "type": "event"
    },
    {
      "anonymous": false,
      "inputs": [
        {
          "indexed": true,
          "internalType": "address",
          "name": "operator",
          "type": "address"
        },
        {
          "indexed": true,
          "internalType": "address",
          "name": "from",
          "type": "address"
        },
        {
          "indexed": true,
          "internalType": "address",
          "name": "to",
          "type": "address"
        },
        {
          "indexed": false,
          "internalType": "uint256",
          "name": "id",
          "type": "uint256"
        },
        {
          "indexed": false,
          "internalType": "uint256",
          "name": "value",
          "type": "uint256"
        }
      ],
      "name": "TransferSingle",
      "type": "event"
    },
    {
      "anonymous": false,
      "inputs": [
        {
          "indexed": false,
          "internalType": "string",
          "name": "value",
          "type": "string"
        },
        {
          "indexed": true,
          "internalType": "uint256",
          "name": "id",
          "type": "uint256"
        }
      ],
      "name": "URI",
      "type": "event"
    },
    {
      "anonymous": false,
      "inputs": [
        {
          "indexed": false,
          "internalType": "uint256",
          "name": "id",
          "type": "uint256"
        },
        {
          "indexed": true,
          "internalType": "address",
          "name": "creator",
          "type": "address"
        },
        {
          "indexed": false,
          "internalType": "string",
          "name": "name",
          "type": "string"
        },
        {
          "indexed": false,
          "internalType": "string",
          "name": "uri",
          "type": "string"
        },
        {
          "indexed": false,
          "internalType": "address",
          "name": "feeTo",
          "type": "address"
        },
        {
          "indexed": false,
          "internalType": "uint256",
          "name": "appFeePercent",
          "type": "uint256"
        },
        {
          "indexed": false,
          "internalType": "uint256",
          "name": "creatorFeePercent",
          "type": "uint256"
        }
      ],
      "name": "UpdateApp",
      "type": "event"
    },
    {
      "anonymous": false,
      "inputs": [
        {
          "indexed": true,
          "internalType": "uint256",
          "name": "creationId",
          "type": "uint256"
        },
        {
          "indexed": true,
          "internalType": "address",
          "name": "creator",
          "type": "address"
        },
        {
          "indexed": true,
          "internalType": "uint256",
          "name": "appId",
          "type": "uint256"
        },
        {
          "indexed": false,
          "internalType": "string",
          "name": "name",
          "type": "string"
        },
        {
          "indexed": false,
          "internalType": "string",
          "name": "uri",
          "type": "string"
        }
      ],
      "name": "UpdateCreation",
      "type": "event"
    },
    {
      "stateMutability": "payable",
      "type": "fallback"
    },
    {
      "inputs": [],
      "name": "CREATOR_PREMINT",
      "outputs": [
        {
          "internalType": "uint256",
          "name": "",
          "type": "uint256"
        }
      ],
      "stateMutability": "view",
      "type": "function"
    },
    {
      "inputs": [
        {
          "internalType": "address",
          "name": "curve",
          "type": "address"
        }
      ],
      "name": "addCurve",
      "outputs": [],
      "stateMutability": "nonpayable",
      "type": "function"
    },
    {
      "inputs": [
        {
          "internalType": "address",
          "name": "farmer",
          "type": "address"
        }
      ],
      "name": "addFarmer",
      "outputs": [],
      "stateMutability": "nonpayable",
      "type": "function"
    },
    {
      "inputs": [],
      "name": "appIndex",
      "outputs": [
        {
          "internalType": "uint256",
          "name": "",
          "type": "uint256"
        }
      ],
      "stateMutability": "view",
      "type": "function"
    },
    {
      "inputs": [
        {
          "internalType": "uint256",
          "name": "appId",
          "type": "uint256"
        }
      ],
      "name": "apps",
      "outputs": [
        {
          "internalType": "uint256",
          "name": "id",
          "type": "uint256"
        },
        {
          "internalType": "address",
          "name": "creator",
          "type": "address"
        },
        {
          "internalType": "string",
          "name": "name",
          "type": "string"
        },
        {
          "internalType": "string",
          "name": "uri",
          "type": "string"
        },
        {
          "internalType": "address",
          "name": "feeTo",
          "type": "address"
        },
        {
          "internalType": "uint256",
          "name": "appFeePercent",
          "type": "uint256"
        },
        {
          "internalType": "uint256",
          "name": "creatorFeePercent",
          "type": "uint256"
        }
      ],
      "stateMutability": "view",
      "type": "function"
    },
    {
      "inputs": [
        {
          "internalType": "address",
          "name": "account",
          "type": "address"
        },
        {
          "internalType": "uint256",
          "name": "id",
          "type": "uint256"
        }
      ],
      "name": "balanceOf",
      "outputs": [
        {
          "internalType": "uint256",
          "name": "",
          "type": "uint256"
        }
      ],
      "stateMutability": "view",
      "type": "function"
    },
    {
      "inputs": [
        {
          "internalType": "address[]",
          "name": "accounts",
          "type": "address[]"
        },
        {
          "internalType": "uint256[]",
          "name": "ids",
          "type": "uint256[]"
        }
      ],
      "name": "balanceOfBatch",
      "outputs": [
        {
          "internalType": "uint256[]",
          "name": "",
          "type": "uint256[]"
        }
      ],
      "stateMutability": "view",
      "type": "function"
    },
    {
      "inputs": [
        {
          "internalType": "uint256",
          "name": "creationId",
          "type": "uint256"
        },
        {
          "internalType": "uint32",
          "name": "amount",
          "type": "uint32"
        }
      ],
      "name": "buy",
      "outputs": [],
      "stateMutability": "payable",
      "type": "function"
    },
    {
      "inputs": [],
      "name": "creationIndex",
      "outputs": [
        {
          "internalType": "uint256",
          "name": "",
          "type": "uint256"
        }
      ],
      "stateMutability": "view",
      "type": "function"
    },
    {
      "inputs": [
        {
          "internalType": "uint256",
          "name": "creationId",
          "type": "uint256"
        }
      ],
      "name": "creations",
      "outputs": [
        {
          "internalType": "uint256",
          "name": "id",
          "type": "uint256"
        },
        {
          "internalType": "address",
          "name": "creator",
          "type": "address"
        },
        {
          "internalType": "uint256",
          "name": "appId",
          "type": "uint256"
        },
        {
          "internalType": "string",
          "name": "name",
          "type": "string"
        },
        {
          "internalType": "string",
          "name": "uri",
          "type": "string"
        },
        {
          "internalType": "uint8",
          "name": "farmer",
          "type": "uint8"
        },
        {
          "internalType": "uint8",
          "name": "curve",
          "type": "uint8"
        },
        {
          "internalType": "uint256",
          "name": "balance",
          "type": "uint256"
        },
        {
          "internalType": "uint256",
          "name": "volume",
          "type": "uint256"
        }
      ],
      "stateMutability": "view",
      "type": "function"
    },
    {
      "inputs": [],
      "name": "curveIndex",
      "outputs": [
        {
          "internalType": "uint8",
          "name": "",
          "type": "uint8"
        }
      ],
      "stateMutability": "view",
      "type": "function"
    },
    {
      "inputs": [
        {
          "internalType": "uint8",
          "name": "curveId",
          "type": "uint8"
        }
      ],
      "name": "curves",
      "outputs": [
        {
          "internalType": "address",
          "name": "curve",
          "type": "address"
        }
      ],
      "stateMutability": "view",
      "type": "function"
    },
    {
      "inputs": [
        {
          "internalType": "uint256",
          "name": "id",
          "type": "uint256"
        }
      ],
      "name": "exists",
      "outputs": [
        {
          "internalType": "bool",
          "name": "",
          "type": "bool"
        }
      ],
      "stateMutability": "view",
      "type": "function"
    },
    {
      "inputs": [],
      "name": "farmerIndex",
      "outputs": [
        {
          "internalType": "uint8",
          "name": "",
          "type": "uint8"
        }
      ],
      "stateMutability": "view",
      "type": "function"
    },
    {
      "inputs": [
        {
          "internalType": "uint8",
          "name": "farmerId",
          "type": "uint8"
        }
      ],
      "name": "farmers",
      "outputs": [
        {
          "internalType": "address",
          "name": "farmer",
          "type": "address"
        }
      ],
      "stateMutability": "view",
      "type": "function"
    },
    {
      "inputs": [
        {
          "internalType": "uint256",
          "name": "creationId",
          "type": "uint256"
        },
        {
          "internalType": "uint32",
          "name": "amount",
          "type": "uint32"
        }
      ],
      "name": "getBuyPrice",
      "outputs": [
        {
          "internalType": "uint256",
          "name": "",
          "type": "uint256"
        }
      ],
      "stateMutability": "view",
      "type": "function"
    },
    {
      "inputs": [
        {
          "internalType": "uint256",
          "name": "creationId",
          "type": "uint256"
        },
        {
          "internalType": "uint32",
          "name": "amount",
          "type": "uint32"
        },
        {
          "internalType": "uint256",
          "name": "appId",
          "type": "uint256"
        }
      ],
      "name": "getBuyPriceAfterFee",
      "outputs": [
        {
          "internalType": "uint256",
          "name": "buyPriceAfterFee",
          "type": "uint256"
        },
        {
          "internalType": "uint256",
          "name": "buyPrice",
          "type": "uint256"
        },
        {
          "internalType": "uint256",
          "name": "creatorFee",
          "type": "uint256"
        },
        {
          "internalType": "uint256",
          "name": "appFee",
          "type": "uint256"
        }
      ],
      "stateMutability": "view",
      "type": "function"
    },
    {
      "inputs": [
        {
          "internalType": "uint256",
          "name": "creationId",
          "type": "uint256"
        },
        {
          "internalType": "uint32",
          "name": "amount",
          "type": "uint32"
        }
      ],
      "name": "getSellPrice",
      "outputs": [
        {
          "internalType": "uint256",
          "name": "",
          "type": "uint256"
        }
      ],
      "stateMutability": "view",
      "type": "function"
    },
    {
      "inputs": [
        {
          "internalType": "uint256",
          "name": "creationId",
          "type": "uint256"
        },
        {
          "internalType": "uint32",
          "name": "amount",
          "type": "uint32"
        },
        {
          "internalType": "uint256",
          "name": "appId",
          "type": "uint256"
        }
      ],
      "name": "getSellPriceAfterFee",
      "outputs": [
        {
          "internalType": "uint256",
          "name": "sellPriceAfterFee",
          "type": "uint256"
        },
        {
          "internalType": "uint256",
          "name": "sellPrice",
          "type": "uint256"
        },
        {
          "internalType": "uint256",
          "name": "creatorFee",
          "type": "uint256"
        },
        {
          "internalType": "uint256",
          "name": "appFee",
          "type": "uint256"
        }
      ],
      "stateMutability": "view",
      "type": "function"
    },
    {
      "inputs": [
        {
          "internalType": "address",
          "name": "creator",
          "type": "address"
        }
      ],
      "name": "getUserCreations",
      "outputs": [
        {
          "internalType": "uint256[]",
          "name": "",
          "type": "uint256[]"
        }
      ],
      "stateMutability": "view",
      "type": "function"
    },
    {
      "inputs": [
        {
          "internalType": "address",
          "name": "creator",
          "type": "address"
        }
      ],
      "name": "getUserLatestCreation",
      "outputs": [
        {
          "components": [
            {
              "internalType": "uint256",
              "name": "id",
              "type": "uint256"
            },
            {
              "internalType": "address",
              "name": "creator",
              "type": "address"
            },
            {
              "internalType": "uint256",
              "name": "appId",
              "type": "uint256"
            },
            {
              "internalType": "string",
              "name": "name",
              "type": "string"
            },
            {
              "internalType": "string",
              "name": "uri",
              "type": "string"
            },
            {
              "internalType": "uint8",
              "name": "farmer",
              "type": "uint8"
            },
            {
              "internalType": "uint8",
              "name": "curve",
              "type": "uint8"
            },
            {
              "internalType": "uint256[]",
              "name": "curveArgs",
              "type": "uint256[]"
            },
            {
              "internalType": "uint256",
              "name": "balance",
              "type": "uint256"
            },
            {
              "internalType": "uint256",
              "name": "volume",
              "type": "uint256"
            }
          ],
          "internalType": "struct IndieX.Creation",
          "name": "creation",
          "type": "tuple"
        }
      ],
      "stateMutability": "view",
      "type": "function"
    },
    {
      "inputs": [
        {
          "internalType": "address",
          "name": "account",
          "type": "address"
        },
        {
          "internalType": "address",
          "name": "operator",
          "type": "address"
        }
      ],
      "name": "isApprovedForAll",
      "outputs": [
        {
          "internalType": "bool",
          "name": "",
          "type": "bool"
        }
      ],
      "stateMutability": "view",
      "type": "function"
    },
    {
      "inputs": [
        {
          "components": [
            {
              "internalType": "string",
              "name": "name",
              "type": "string"
            },
            {
              "internalType": "string",
              "name": "uri",
              "type": "string"
            },
            {
              "internalType": "address",
              "name": "feeTo",
              "type": "address"
            },
            {
              "internalType": "uint256",
              "name": "appFeePercent",
              "type": "uint256"
            },
            {
              "internalType": "uint256",
              "name": "creatorFeePercent",
              "type": "uint256"
            }
          ],
          "internalType": "struct IndieX.UpsertAppInput",
          "name": "input",
          "type": "tuple"
        }
      ],
      "name": "newApp",
      "outputs": [],
      "stateMutability": "nonpayable",
      "type": "function"
    },
    {
      "inputs": [
        {
          "components": [
            {
              "internalType": "string",
              "name": "name",
              "type": "string"
            },
            {
              "internalType": "uint256",
              "name": "appId",
              "type": "uint256"
            },
            {
              "internalType": "uint8",
              "name": "farmer",
              "type": "uint8"
            },
            {
              "internalType": "uint8",
              "name": "curve",
              "type": "uint8"
            },
            {
              "internalType": "uint256[]",
              "name": "curveArgs",
              "type": "uint256[]"
            },
            {
              "internalType": "string",
              "name": "uri",
              "type": "string"
            }
          ],
          "internalType": "struct IndieX.NewCreationInput",
          "name": "input",
          "type": "tuple"
        }
      ],
      "name": "newCreation",
      "outputs": [],
      "stateMutability": "nonpayable",
      "type": "function"
    },
    {
      "inputs": [],
      "name": "owner",
      "outputs": [
        {
          "internalType": "address",
          "name": "",
          "type": "address"
        }
      ],
      "stateMutability": "view",
      "type": "function"
    },
    {
      "inputs": [],
      "name": "protocolFeePercent",
      "outputs": [
        {
          "internalType": "uint256",
          "name": "",
          "type": "uint256"
        }
      ],
      "stateMutability": "view",
      "type": "function"
    },
    {
      "inputs": [],
      "name": "renounceOwnership",
      "outputs": [],
      "stateMutability": "nonpayable",
      "type": "function"
    },
    {
      "inputs": [
        {
          "internalType": "address",
          "name": "from",
          "type": "address"
        },
        {
          "internalType": "address",
          "name": "to",
          "type": "address"
        },
        {
          "internalType": "uint256[]",
          "name": "ids",
          "type": "uint256[]"
        },
        {
          "internalType": "uint256[]",
          "name": "values",
          "type": "uint256[]"
        },
        {
          "internalType": "bytes",
          "name": "data",
          "type": "bytes"
        }
      ],
      "name": "safeBatchTransferFrom",
      "outputs": [],
      "stateMutability": "nonpayable",
      "type": "function"
    },
    {
      "inputs": [
        {
          "internalType": "address",
          "name": "from",
          "type": "address"
        },
        {
          "internalType": "address",
          "name": "to",
          "type": "address"
        },
        {
          "internalType": "uint256",
          "name": "id",
          "type": "uint256"
        },
        {
          "internalType": "uint256",
          "name": "value",
          "type": "uint256"
        },
        {
          "internalType": "bytes",
          "name": "data",
          "type": "bytes"
        }
      ],
      "name": "safeTransferFrom",
      "outputs": [],
      "stateMutability": "nonpayable",
      "type": "function"
    },
    {
      "inputs": [
        {
          "internalType": "uint256",
          "name": "creationId",
          "type": "uint256"
        },
        {
          "internalType": "uint32",
          "name": "amount",
          "type": "uint32"
        }
      ],
      "name": "sell",
      "outputs": [],
      "stateMutability": "nonpayable",
      "type": "function"
    },
    {
      "inputs": [
        {
          "internalType": "address",
          "name": "operator",
          "type": "address"
        },
        {
          "internalType": "bool",
          "name": "approved",
          "type": "bool"
        }
      ],
      "name": "setApprovalForAll",
      "outputs": [],
      "stateMutability": "nonpayable",
      "type": "function"
    },
    {
      "inputs": [
        {
          "internalType": "bytes4",
          "name": "interfaceId",
          "type": "bytes4"
        }
      ],
      "name": "supportsInterface",
      "outputs": [
        {
          "internalType": "bool",
          "name": "",
          "type": "bool"
        }
      ],
      "stateMutability": "view",
      "type": "function"
    },
    {
      "inputs": [],
      "name": "totalSupply",
      "outputs": [
        {
          "internalType": "uint256",
          "name": "",
          "type": "uint256"
        }
      ],
      "stateMutability": "view",
      "type": "function"
    },
    {
      "inputs": [
        {
          "internalType": "uint256",
          "name": "id",
          "type": "uint256"
        }
      ],
      "name": "totalSupply",
      "outputs": [
        {
          "internalType": "uint256",
          "name": "",
          "type": "uint256"
        }
      ],
      "stateMutability": "view",
      "type": "function"
    },
    {
      "inputs": [
        {
          "internalType": "address",
          "name": "newOwner",
          "type": "address"
        }
      ],
      "name": "transferOwnership",
      "outputs": [],
      "stateMutability": "nonpayable",
      "type": "function"
    },
    {
      "inputs": [
        {
          "internalType": "uint256",
          "name": "id",
          "type": "uint256"
        },
        {
          "components": [
            {
              "internalType": "string",
              "name": "name",
              "type": "string"
            },
            {
              "internalType": "string",
              "name": "uri",
              "type": "string"
            },
            {
              "internalType": "address",
              "name": "feeTo",
              "type": "address"
            },
            {
              "internalType": "uint256",
              "name": "appFeePercent",
              "type": "uint256"
            },
            {
              "internalType": "uint256",
              "name": "creatorFeePercent",
              "type": "uint256"
            }
          ],
          "internalType": "struct IndieX.UpsertAppInput",
          "name": "input",
          "type": "tuple"
        }
      ],
      "name": "updateApp",
      "outputs": [],
      "stateMutability": "nonpayable",
      "type": "function"
    },
    {
      "inputs": [
        {
          "internalType": "uint256",
          "name": "id",
          "type": "uint256"
        },
        {
          "components": [
            {
              "internalType": "string",
              "name": "name",
              "type": "string"
            },
            {
              "internalType": "string",
              "name": "uri",
              "type": "string"
            }
          ],
          "internalType": "struct IndieX.UpdateCreationInput",
          "name": "input",
          "type": "tuple"
        }
      ],
      "name": "updateCreation",
      "outputs": [],
      "stateMutability": "nonpayable",
      "type": "function"
    },
    {
      "inputs": [
        {
          "internalType": "uint256",
          "name": "",
          "type": "uint256"
        }
      ],
      "name": "uri",
      "outputs": [
        {
          "internalType": "string",
          "name": "",
          "type": "string"
        }
      ],
      "stateMutability": "view",
      "type": "function"
    },
    {
      "inputs": [
        {
          "internalType": "address",
          "name": "account",
          "type": "address"
        },
        {
          "internalType": "uint256",
          "name": "",
          "type": "uint256"
        }
      ],
      "name": "userCreations",
      "outputs": [
        {
          "internalType": "uint256",
          "name": "creationId",
          "type": "uint256"
        }
      ],
      "stateMutability": "view",
      "type": "function"
    },
    {
      "stateMutability": "payable",
      "type": "receive"
    }
  ],
  "transactionHash": "0x13435c655a9b56f2618e215db6bed5b69374aec6a39d6ca0b631a4972a54f63e",
  "args": [
    "0x7FEA6971Eb1663623690Edbb779a05DD9440d824"
  ],
  "numDeployments": 5,
  "solcInputHash": "f9b6f5aa14567507f22897e1aba1d9a6",
  "bytecode": "0x60806040526007805460ff1990811690915560098054909116905560006010556611c37937e080006011553480156200003757600080fd5b5060405162005021380380620050218339810160408190526200005a916200011f565b604080516020810190915260008152816001600160a01b0381166200009957604051631e4fbdf760e01b81526000600482015260240160405180910390fd5b620000a481620000bd565b50620000b0816200010d565b50506001600655620002c2565b600080546001600160a01b038381166001600160a01b0319831681178455604051919092169283917f8be0079c531659141344cd1fd0a4f28419497f9722a3daafe3b4186f6b6457e09190a35050565b60036200011b8282620001f6565b5050565b6000602082840312156200013257600080fd5b81516001600160a01b03811681146200014a57600080fd5b9392505050565b634e487b7160e01b600052604160045260246000fd5b600181811c908216806200017c57607f821691505b6020821081036200019d57634e487b7160e01b600052602260045260246000fd5b50919050565b601f821115620001f157600081815260208120601f850160051c81016020861015620001cc5750805b601f850160051c820191505b81811015620001ed57828155600101620001d8565b5050505b505050565b81516001600160401b0381111562000212576200021262000151565b6200022a8162000223845462000167565b84620001a3565b602080601f831160018114620002625760008415620002495750858301515b600019600386901b1c1916600185901b178555620001ed565b600085815260208120601f198616915b82811015620002935788860151825594840194600190910190840162000272565b5085821015620002b25787850151600019600388901b60f8161c191681555b5050505050600190811b01905550565b614d4f80620002d26000396000f3fe6080604052600436106102765760003560e01c806379d3663811610156578063c8d8cf88116100bf578063df519f0b11610079578063f242432a11610061578063f242432a14610819578063f2fde38b14610839578063fba41ebe1461085957005b8063df519f0b146107b0578063e985e9c5146107c357005b8063ceee47fa116100a7578063ceee47fa1461075a578063d6e6eb9f1461077a578063d935e2221461079057005b8063c8d8cf8814610724578063cec8c97f1461073a57005b80638d5fbf1411610110578063a22cb465116100f8578063a22cb465146106b7578063baef60d0146106d7578063bd85b039146106f757005b80638d5fbf141461066c5780638da5cb5b1461068c57005b80637ffb25ac1161013e5780637ffb25ac1461060257806380c3f96d146106175780638557a5311461063757005b806379d36638146105935780637bdcdaff146105d657005b806343e235ff116101f85780635e48327d116101b257806361acc37e1161019a57806361acc37e1461052b578063715018a61461055e57806374ec47af1461057357005b80635e48327d146104de5780635efdf628146104fe57005b80634e1273f4116101e05780634e1273f41461044f5780634f558e791461046f5780635e2cd5f41461049e57005b806343e235ff146104195780634d121ec11461043957005b80631b207a321161024957806320e1fc8c1161023157806320e1fc8c14610364578063269ba52c146103cc5780632eb2c2d6146103f957005b80631b207a32146103245780631f313a041461034457005b8062fdd58e1461027f57806301ffc9a7146102b25780630e89341c146102e257806318160ddd1461030f57005b3661027d57005b005b34801561028b57600080fd5b5061029f61029a366004613d67565b610873565b6040519081526020015b60405180910390f35b3480156102be57600080fd5b506102d26102cd366004613dbf565b6108aa565b60405190151581526020016102a9565b3480156102ee57600080fd5b506103026102fd366004613de3565b61098d565b6040516102a99190613e6a565b34801561031b57600080fd5b5060055461029f565b34801561033057600080fd5b5061027d61033f366004614052565b610a21565b34801561035057600080fd5b5061027d61035f366004614133565b610c6e565b34801561037057600080fd5b506103a761037f3660046141e6565b60086020526000908152604090205473ffffffffffffffffffffffffffffffffffffffff1681565b60405173ffffffffffffffffffffffffffffffffffffffff90911681526020016102a9565b3480156103d857600080fd5b506103ec6103e7366004614201565b610e15565b6040516102a99190614257565b34801561040557600080fd5b5061027d61041436600461426a565b610e8d565b34801561042557600080fd5b5061029f610434366004613d67565b610f53565b34801561044557600080fd5b5061029f600d5481565b34801561045b57600080fd5b506103ec61046a366004614314565b610f84565b34801561047b57600080fd5b506102d261048a366004613de3565b600090815260046020526040902054151590565b3480156104aa57600080fd5b506104be6104b93660046143e8565b611072565b6040805194855260208501939093529183015260608201526080016102a9565b3480156104ea57600080fd5b5061029f6104f936600461441d565b611293565b34801561050a57600080fd5b5061051e610519366004614201565b611559565b6040516102a99190614449565b34801561053757600080fd5b5061054b610546366004613de3565b6118b9565b6040516102a99796959493929190614548565b34801561056a57600080fd5b5061027d611a34565b34801561057f57600080fd5b5061027d61058e366004614201565b611a48565b34801561059f57600080fd5b506103a76105ae3660046141e6565b600a6020526000908152604090205473ffffffffffffffffffffffffffffffffffffffff1681565b3480156105e257600080fd5b506007546105f09060ff1681565b60405160ff90911681526020016102a9565b34801561060e57600080fd5b5061029f600181565b34801561062357600080fd5b5061027d610632366004614201565b611ac9565b34801561064357600080fd5b50610657610652366004613de3565b611b2e565b6040516102a9999897969594939291906145af565b34801561067857600080fd5b5061027d6106873660046146db565b611ca5565b34801561069857600080fd5b5060005473ffffffffffffffffffffffffffffffffffffffff166103a7565b3480156106c357600080fd5b5061027d6106d2366004614718565b611e49565b3480156106e357600080fd5b5061027d6106f2366004614754565b611e58565b34801561070357600080fd5b5061029f610712366004613de3565b60009081526004602052604090205490565b34801561073057600080fd5b5061029f600b5481565b34801561074657600080fd5b5061029f61075536600461441d565b6120fb565b34801561076657600080fd5b506104be6107753660046143e8565b612381565b34801561078657600080fd5b5061029f60115481565b34801561079c57600080fd5b5061027d6107ab36600461441d565b612596565b61027d6107be36600461441d565b61297f565b3480156107cf57600080fd5b506102d26107de366004614791565b73ffffffffffffffffffffffffffffffffffffffff918216600090815260026020908152604080832093909416825291909152205460ff1690565b34801561082557600080fd5b5061027d6108343660046147bb565b612de5565b34801561084557600080fd5b5061027d610854366004614201565b612ea3565b34801561086557600080fd5b506009546105f09060ff1681565b600081815260016020908152604080832073ffffffffffffffffffffffffffffffffffffffff861684529091529020545b92915050565b60007fffffffff0000000000000000000000000000000000000000000000000000000082167fd9b67a2600000000000000000000000000000000000000000000000000000000148061093d57507fffffffff0000000000000000000000000000000000000000000000000000000082167f0e89341c00000000000000000000000000000000000000000000000000000000145b806108a457507f01ffc9a7000000000000000000000000000000000000000000000000000000007fffffffff000000000000000000000000000000000000000000000000000000008316146108a4565b60606003805461099c90614820565b80601f01602080910402602001604051908101604052809291908181526020018280546109c890614820565b8015610a155780601f106109ea57610100808354040283529160200191610a15565b820191906000526020600020905b8154815290600101906020018083116109f857829003601f168201915b50505050509050919050565b6040805161014081018252600d54808252336020808401828152868201518587019081528751606080880191825260a0808b01516080808b01919091528b8b015160ff908116928b0192909252918b01511660c089015289015160e0880152600061010088018190526101208801819052958652600e909352959093208451815592516001840180547fffffffffffffffffffffffff00000000000000000000000000000000000000001673ffffffffffffffffffffffffffffffffffffffff9092169190911790559351600283015592516003820190610b0290826148b3565b5060808201516004820190610b1790826148b3565b5060a082015160058201805460c085015160ff908116610100027fffffffffffffffffffffffffffffffffffffffffffffffffffffffffffff000090921693169290921791909117905560e08201518051610b7c916006840191602090910190613cde565b5061010082015160078201556101209091015160089091015573ffffffffffffffffffffffffffffffffffffffff81166000908152600f60209081526040808320600d80548254600181810185559387528587200155548251938401909252928252610be9923392612f07565b81602001518173ffffffffffffffffffffffffffffffffffffffff16600d547f37ff3ce307074e539a2c0c50bd6e14862505c57511ac0d2a273d7a877e524e3085600001518660a0015187606001518860400151604051610c4d94939291906149cd565b60405180910390a4600d8054906000610c6583614a3f565b91905055505050565b6000828152600e60205260409020600181015473ffffffffffffffffffffffffffffffffffffffff16610d02576040517f08c379a000000000000000000000000000000000000000000000000000000000815260206004820152600f60248201527f417070206e6f742065786973746564000000000000000000000000000000000060448201526064015b60405180910390fd5b600181015473ffffffffffffffffffffffffffffffffffffffff163314610d85576040517f08c379a000000000000000000000000000000000000000000000000000000000815260206004820181905260248201527f4f6e6c792063726561746f722063616e20757064617465204372656174696f6e6044820152606401610cf9565b81516003820190610d9690826148b3565b5060208201516004820190610dab90826148b3565b506002810154600182015482548451602086015160405173ffffffffffffffffffffffffffffffffffffffff909416937fc0a9e8589e9e2e63ca19d5641ea5676d3d031b3d29667ebd42b071fb8f5c2b9692610e08929091614a77565b60405180910390a4505050565b73ffffffffffffffffffffffffffffffffffffffff81166000908152600f6020908152604091829020805483518184028101840190945280845260609392830182828015610a1557602002820191906000526020600020905b815481526020019060010190808311610e6e5750505050509050919050565b3373ffffffffffffffffffffffffffffffffffffffff86168114801590610ee7575073ffffffffffffffffffffffffffffffffffffffff80871660009081526002602090815260408083209385168352929052205460ff16155b15610f3e576040517fe237d92200000000000000000000000000000000000000000000000000000000815273ffffffffffffffffffffffffffffffffffffffff808316600483015287166024820152604401610cf9565b610f4b8686868686612f8a565b505050505050565b600f6020528160005260406000208181548110610f6f57600080fd5b90600052602060002001600091509150505481565b60608151835114610fce57815183516040517f5b05999100000000000000000000000000000000000000000000000000000000815260048101929092526024820152604401610cf9565b6000835167ffffffffffffffff811115610fea57610fea613e7d565b604051908082528060200260200182016040528015611013578160200160208202803683370190505b50905060005b845181101561106a5760208082028601015161103d90602080840287010151610873565b82828151811061104f5761104f614a9c565b602090810291909101015261106381614a3f565b9050611019565b509392505050565b6000818152600c60209081526040808320815160e08101835281548152600182015473ffffffffffffffffffffffffffffffffffffffff169381019390935260028101805485948594859485949293909291840191906110d190614820565b80601f01602080910402602001604051908101604052809291908181526020018280546110fd90614820565b801561114a5780601f1061111f5761010080835404028352916020019161114a565b820191906000526020600020905b81548152906001019060200180831161112d57829003601f168201915b5050505050815260200160038201805461116390614820565b80601f016020809104026020016040519081016040528092919081815260200182805461118f90614820565b80156111dc5780601f106111b1576101008083540402835291602001916111dc565b820191906000526020600020905b8154815290600101906020018083116111bf57829003601f168201915b5050509183525050600482015473ffffffffffffffffffffffffffffffffffffffff16602082015260058201546040820152600690910154606090910152905061122688886120fb565b9350670de0b6b3a76400008160c00151856112419190614acb565b61124b9190614ae2565b9250670de0b6b3a76400008160a00151856112669190614acb565b6112709190614ae2565b91508261127d8386614b1d565b6112879190614b1d565b94505093509350935093565b600082815260046020908152604080832054600e835281842082516101408101845281548152600182015473ffffffffffffffffffffffffffffffffffffffff16948101949094526002810154928401929092526003820180549193859390929091606084019161130390614820565b80601f016020809104026020016040519081016040528092919081815260200182805461132f90614820565b801561137c5780601f106113515761010080835404028352916020019161137c565b820191906000526020600020905b81548152906001019060200180831161135f57829003601f168201915b5050505050815260200160048201805461139590614820565b80601f01602080910402602001604051908101604052809291908181526020018280546113c190614820565b801561140e5780601f106113e35761010080835404028352916020019161140e565b820191906000526020600020905b8154815290600101906020018083116113f157829003601f168201915b5050509183525050600582015460ff80821660208085019190915261010090920416604080840191909152600684018054825181850281018501909352808352606090940193919290919083018282801561148857602002820191906000526020600020905b815481526020019060010190808311611474575b5050509183525050600782015460208083019190915260089283015460409283015260c084015160ff16600090815292905290205490915073ffffffffffffffffffffffffffffffffffffffff1663d8c3e83b6114eb63ffffffff871685614b30565b868460e001516040518463ffffffff1660e01b815260040161150f93929190614b43565b602060405180830381865afa15801561152c573d6000803e3d6000fd5b505050506040513d601f19601f820116820180604052508101906115509190614b68565b95945050505050565b6115cb60405180610140016040528060008152602001600073ffffffffffffffffffffffffffffffffffffffff168152602001600081526020016060815260200160608152602001600060ff168152602001600060ff1681526020016060815260200160008152602001600081525090565b73ffffffffffffffffffffffffffffffffffffffff82166000908152600f602090815260408083208054825181850281018501909352808352919290919083018282801561163857602002820191906000526020600020905b815481526020019060010190808311611624575b505050505090506000815111156118b3576000816001835161165a9190614b30565b8151811061166a5761166a614a9c565b60200260200101519050600e600082815260200190815260200160002060405180610140016040529081600082015481526020016001820160009054906101000a900473ffffffffffffffffffffffffffffffffffffffff1673ffffffffffffffffffffffffffffffffffffffff1673ffffffffffffffffffffffffffffffffffffffff1681526020016002820154815260200160038201805461170d90614820565b80601f016020809104026020016040519081016040528092919081815260200182805461173990614820565b80156117865780601f1061175b57610100808354040283529160200191611786565b820191906000526020600020905b81548152906001019060200180831161176957829003601f168201915b5050505050815260200160048201805461179f90614820565b80601f01602080910402602001604051908101604052809291908181526020018280546117cb90614820565b80156118185780601f106117ed57610100808354040283529160200191611818565b820191906000526020600020905b8154815290600101906020018083116117fb57829003601f168201915b5050509183525050600582015460ff80821660208085019190915261010090920416604080840191909152600684018054825181850281018501909352808352606090940193919290919083018282801561189257602002820191906000526020600020905b81548152602001906001019080831161187e575b50505050508152602001600782015481526020016008820154815250509250505b50919050565b600c60205260009081526040902080546001820154600283018054929373ffffffffffffffffffffffffffffffffffffffff909216926118f890614820565b80601f016020809104026020016040519081016040528092919081815260200182805461192490614820565b80156119715780601f1061194657610100808354040283529160200191611971565b820191906000526020600020905b81548152906001019060200180831161195457829003601f168201915b50505050509080600301805461198690614820565b80601f01602080910402602001604051908101604052809291908181526020018280546119b290614820565b80156119ff5780601f106119d4576101008083540402835291602001916119ff565b820191906000526020600020905b8154815290600101906020018083116119e257829003601f168201915b5050505060048301546005840154600690940154929373ffffffffffffffffffffffffffffffffffffffff9091169290915087565b611a3c61303e565b611a466000613091565b565b6007805460ff908116600090815260086020526040812080547fffffffffffffffffffffffff00000000000000000000000000000000000000001673ffffffffffffffffffffffffffffffffffffffff861617905582549091169190611aad83614b81565b91906101000a81548160ff021916908360ff1602179055505050565b6009805460ff9081166000908152600a6020526040812080547fffffffffffffffffffffffff00000000000000000000000000000000000000001673ffffffffffffffffffffffffffffffffffffffff861617905582549091169190611aad83614b81565b600e602052600090815260409020805460018201546002830154600384018054939473ffffffffffffffffffffffffffffffffffffffff90931693919291611b7590614820565b80601f0160208091040260200160405190810160405280929190818152602001828054611ba190614820565b8015611bee5780601f10611bc357610100808354040283529160200191611bee565b820191906000526020600020905b815481529060010190602001808311611bd157829003601f168201915b505050505090806004018054611c0390614820565b80601f0160208091040260200160405190810160405280929190818152602001828054611c2f90614820565b8015611c7c5780601f10611c5157610100808354040283529160200191611c7c565b820191906000526020600020905b815481529060010190602001808311611c5f57829003601f168201915b50505060058401546007850154600890950154939460ff80831695610100909304169350915089565b6040805160e081018252600b548082523360208084019182528551848601908152868201516060808701919091528787015173ffffffffffffffffffffffffffffffffffffffff9081166080808901919091529189015160a08801529088015160c08701526000948552600c909252949092208351815590516001820180547fffffffffffffffffffffffff000000000000000000000000000000000000000016919093161790915591519091906002820190611d6290826148b3565b5060608201516003820190611d7790826148b3565b506080828101516004830180547fffffffffffffffffffffffff00000000000000000000000000000000000000001673ffffffffffffffffffffffffffffffffffffffff90921691909117905560a0830151600583015560c090920151600690910155600b5482516020840151604080860151606087015195870151915133967f95860c408b95c37c8a315717a02901b7a1c080fac2b72783fcc47c0a875ab5cb96611e299690959094909392614ba0565b60405180910390a2600b8054906000611e4183614a3f565b919050555050565b611e54338383613106565b5050565b6000828152600c60205260409020600181015473ffffffffffffffffffffffffffffffffffffffff16611ee7576040517f08c379a000000000000000000000000000000000000000000000000000000000815260206004820152600f60248201527f417070206e6f74206578697374656400000000000000000000000000000000006044820152606401610cf9565b600181015473ffffffffffffffffffffffffffffffffffffffff163314611f6a576040517f08c379a000000000000000000000000000000000000000000000000000000000815260206004820152601b60248201527f4f6e6c792063726561746f722063616e207570646174652041707000000000006044820152606401610cf9565b6040805160e081018252825481523360208083019182528551838501908152868201516060808601919091528786015173ffffffffffffffffffffffffffffffffffffffff9081166080808801919091529189015160a08701529088015160c0860152600b546000908152600c909352949091208351815591516001830180547fffffffffffffffffffffffff00000000000000000000000000000000000000001691909516179093559151909190600282019061202890826148b3565b506060820151600382019061203d90826148b3565b506080828101516004830180547fffffffffffffffffffffffff00000000000000000000000000000000000000001673ffffffffffffffffffffffffffffffffffffffff90921691909117905560a0830151600583015560c090920151600690910155815483516020850151604080870151606088015195880151915133967f2a24f65606d720ce9fcf601d2f201f9807a391a3eb1f04ae8b49b6313b101c3d966120ee9690959094909392614ba0565b60405180910390a2505050565b600082815260046020908152604080832054600e835281842082516101408101845281548152600182015473ffffffffffffffffffffffffffffffffffffffff16948101949094526002810154928401929092526003820180549193859390929091606084019161216b90614820565b80601f016020809104026020016040519081016040528092919081815260200182805461219790614820565b80156121e45780601f106121b9576101008083540402835291602001916121e4565b820191906000526020600020905b8154815290600101906020018083116121c757829003601f168201915b505050505081526020016004820180546121fd90614820565b80601f016020809104026020016040519081016040528092919081815260200182805461222990614820565b80156122765780601f1061224b57610100808354040283529160200191612276565b820191906000526020600020905b81548152906001019060200180831161225957829003601f168201915b5050509183525050600582015460ff8082166020808501919091526101009092041660408084019190915260068401805482518185028101850190935280835260609094019391929091908301828280156122f057602002820191906000526020600020905b8154815260200190600101908083116122dc575b5050509183525050600782015460208083019190915260089283015460409283015260c084015160ff166000908152929052908190205460e083015191517fd8c3e83b00000000000000000000000000000000000000000000000000000000815292935073ffffffffffffffffffffffffffffffffffffffff169163d8c3e83b9161150f9186918991600401614b43565b6000818152600c60209081526040808320815160e08101835281548152600182015473ffffffffffffffffffffffffffffffffffffffff169381019390935260028101805485948594859485949293909291840191906123e090614820565b80601f016020809104026020016040519081016040528092919081815260200182805461240c90614820565b80156124595780601f1061242e57610100808354040283529160200191612459565b820191906000526020600020905b81548152906001019060200180831161243c57829003601f168201915b5050505050815260200160038201805461247290614820565b80601f016020809104026020016040519081016040528092919081815260200182805461249e90614820565b80156124eb5780601f106124c0576101008083540402835291602001916124eb565b820191906000526020600020905b8154815290600101906020018083116124ce57829003601f168201915b5050509183525050600482015473ffffffffffffffffffffffffffffffffffffffff1660208201526005820154604082015260069091015460609091015290506125358888611293565b9350670de0b6b3a76400008160c00151856125509190614acb565b61255a9190614ae2565b9250670de0b6b3a76400008160a00151856125759190614acb565b61257f9190614ae2565b91508261258c8386614b30565b6112879190614b30565b61259e6131ee565b600d548210612609576040517f08c379a000000000000000000000000000000000000000000000000000000000815260206004820152601460248201527f4372656174696f6e206e6f7420657869737465640000000000000000000000006044820152606401610cf9565b6000600e6000848152602001908152602001600020905060008060008061263587878760020154612381565b600589015460ff166000908152600a6020526040908190205490517f2e1a7d4d00000000000000000000000000000000000000000000000000000000815260048101859052949850929650909450925073ffffffffffffffffffffffffffffffffffffffff16908190632e1a7d4d90602401600060405180830381600087803b1580156126c157600080fd5b505af11580156126d5573d6000803e3d6000fd5b5050505083601060008282546126eb9190614b30565b92505081905550838660070160008282546127069190614b30565b92505081905550838660080160008282546127219190614b1d565b909155506127389050338963ffffffff8a16613231565b338860016040805163ffffffff8c168152602081018a9052908101879052606081018690527f817bc0138a01add0b2c69b5a8be38829332e3b471218b3cbcd27a0a85efaedba9060800160405180910390a461279433866132c0565b60018601546127b99073ffffffffffffffffffffffffffffffffffffffff16846132c0565b811561296f576000888152600c60209081526040808320815160e08101835281548152600182015473ffffffffffffffffffffffffffffffffffffffff1693810193909352600281018054919284019161281290614820565b80601f016020809104026020016040519081016040528092919081815260200182805461283e90614820565b801561288b5780601f106128605761010080835404028352916020019161288b565b820191906000526020600020905b81548152906001019060200180831161286e57829003601f168201915b505050505081526020016003820180546128a490614820565b80601f01602080910402602001604051908101604052809291908181526020018280546128d090614820565b801561291d5780601f106128f25761010080835404028352916020019161291d565b820191906000526020600020905b81548152906001019060200180831161290057829003601f168201915b5050509183525050600482015473ffffffffffffffffffffffffffffffffffffffff16602082015260058201546040820152600690910154606090910152608081015190915061296d90846132c0565b505b505050505050611e546001600655565b6129876131ee565b600d5482106129f2576040517f08c379a000000000000000000000000000000000000000000000000000000000815260206004820152601460248201527f4372656174696f6e206e6f7420657869737465640000000000000000000000006044820152606401610cf9565b6000600e60008481526020019081526020016000209050600080600080612a1e87878760020154611072565b935093509350935083341015612a90576040517f08c379a000000000000000000000000000000000000000000000000000000000815260206004820152601460248201527f496e73756666696369656e74207061796d656e740000000000000000000000006044820152606401610cf9565b600585015460ff166000908152600a6020908152604080832054815192830190915291815273ffffffffffffffffffffffffffffffffffffffff90911690612ae39033908a9063ffffffff8b1690612f07565b338860016040805163ffffffff8c168152602081018a9052908101879052606081018690527f817bc0138a01add0b2c69b5a8be38829332e3b471218b3cbcd27a0a85efaedba9060800160405180910390a4612b3f81856132c0565b8073ffffffffffffffffffffffffffffffffffffffff1663d0e30db06040518163ffffffff1660e01b8152600401600060405180830381600087803b158015612b8757600080fd5b505af1158015612b9b573d6000803e3d6000fd5b505050508360106000828254612bb19190614b1d565b9250508190555083866007016000828254612bcc9190614b1d565b9250508190555083866008016000828254612be79190614b1d565b90915550506001860154612c119073ffffffffffffffffffffffffffffffffffffffff16846132c0565b8115612dc7576000888152600c60209081526040808320815160e08101835281548152600182015473ffffffffffffffffffffffffffffffffffffffff16938101939093526002810180549192840191612c6a90614820565b80601f0160208091040260200160405190810160405280929190818152602001828054612c9690614820565b8015612ce35780601f10612cb857610100808354040283529160200191612ce3565b820191906000526020600020905b815481529060010190602001808311612cc657829003601f168201915b50505050508152602001600382018054612cfc90614820565b80601f0160208091040260200160405190810160405280929190818152602001828054612d2890614820565b8015612d755780601f10612d4a57610100808354040283529160200191612d75565b820191906000526020600020905b815481529060010190602001808311612d5857829003601f168201915b5050509183525050600482015473ffffffffffffffffffffffffffffffffffffffff166020820152600582015460408201526006909101546060909101526080810151909150612dc590846132c0565b505b6000612dd38634614b30565b9050801561296d5761296d33826132c0565b3373ffffffffffffffffffffffffffffffffffffffff86168114801590612e3f575073ffffffffffffffffffffffffffffffffffffffff80871660009081526002602090815260408083209385168352929052205460ff16155b15612e96576040517fe237d92200000000000000000000000000000000000000000000000000000000815273ffffffffffffffffffffffffffffffffffffffff808316600483015287166024820152604401610cf9565b610f4b86868686866133a9565b612eab61303e565b73ffffffffffffffffffffffffffffffffffffffff8116612efb576040517f1e4fbdf700000000000000000000000000000000000000000000000000000000815260006004820152602401610cf9565b612f0481613091565b50565b73ffffffffffffffffffffffffffffffffffffffff8416612f57576040517f57f447ce00000000000000000000000000000000000000000000000000000000815260006004820152602401610cf9565b60408051600180825260208201869052818301908152606082018590526080820190925290610f4b600087848487613484565b73ffffffffffffffffffffffffffffffffffffffff8416612fda576040517f57f447ce00000000000000000000000000000000000000000000000000000000815260006004820152602401610cf9565b73ffffffffffffffffffffffffffffffffffffffff851661302a576040517f01a8351400000000000000000000000000000000000000000000000000000000815260006004820152602401610cf9565b6130378585858585613484565b5050505050565b60005473ffffffffffffffffffffffffffffffffffffffff163314611a46576040517f118cdaa7000000000000000000000000000000000000000000000000000000008152336004820152602401610cf9565b6000805473ffffffffffffffffffffffffffffffffffffffff8381167fffffffffffffffffffffffff0000000000000000000000000000000000000000831681178455604051919092169283917f8be0079c531659141344cd1fd0a4f28419497f9722a3daafe3b4186f6b6457e09190a35050565b73ffffffffffffffffffffffffffffffffffffffff8216613156576040517fced3e10000000000000000000000000000000000000000000000000000000000815260006004820152602401610cf9565b73ffffffffffffffffffffffffffffffffffffffff83811660008181526002602090815260408083209487168084529482529182902080547fffffffffffffffffffffffffffffffffffffffffffffffffffffffffffffff001686151590811790915591519182527f17307eab39ab6107e8899845ad3d59bd9653f200f220920489ca2b5937696c31910160405180910390a3505050565b60026006540361322a576040517f3ee5aeb500000000000000000000000000000000000000000000000000000000815260040160405180910390fd5b6002600655565b73ffffffffffffffffffffffffffffffffffffffff8316613281576040517f01a8351400000000000000000000000000000000000000000000000000000000815260006004820152602401610cf9565b604080516001808252602082018590528183019081526060820184905260a0820190925260006080820181815291929161303791879185908590613484565b6040805160008082526020820190925273ffffffffffffffffffffffffffffffffffffffff84169083906040516132f79190614c00565b60006040518083038185875af1925050503d8060008114613334576040519150601f19603f3d011682016040523d82523d6000602084013e613339565b606091505b50509050806133a4576040517f08c379a000000000000000000000000000000000000000000000000000000000815260206004820152601360248201527f455448207472616e73666572206661696c6564000000000000000000000000006044820152606401610cf9565b505050565b73ffffffffffffffffffffffffffffffffffffffff84166133f9576040517f57f447ce00000000000000000000000000000000000000000000000000000000815260006004820152602401610cf9565b73ffffffffffffffffffffffffffffffffffffffff8516613449576040517f01a8351400000000000000000000000000000000000000000000000000000000815260006004820152602401610cf9565b6040805160018082526020820186905281830190815260608201859052608082019092529061347b8787848487613484565b50505050505050565b613490858585856134e4565b73ffffffffffffffffffffffffffffffffffffffff84161561303757825133906001036134d657602084810151908401516134cf8389898585896134f6565b5050610f4b565b610f4b8187878787876136e8565b6134f084848484613879565b50505050565b73ffffffffffffffffffffffffffffffffffffffff84163b15610f4b576040517ff23a6e6100000000000000000000000000000000000000000000000000000000815273ffffffffffffffffffffffffffffffffffffffff85169063f23a6e619061356d9089908990889088908890600401614c1c565b6020604051808303816000875af19250505080156135c6575060408051601f3d9081017fffffffffffffffffffffffffffffffffffffffffffffffffffffffffffffffe01682019092526135c391810190614c6c565b60015b613655573d8080156135f4576040519150601f19603f3d011682016040523d82523d6000602084013e6135f9565b606091505b50805160000361364d576040517f57f447ce00000000000000000000000000000000000000000000000000000000815273ffffffffffffffffffffffffffffffffffffffff86166004820152602401610cf9565b805181602001fd5b7fffffffff0000000000000000000000000000000000000000000000000000000081167ff23a6e61000000000000000000000000000000000000000000000000000000001461347b576040517f57f447ce00000000000000000000000000000000000000000000000000000000815273ffffffffffffffffffffffffffffffffffffffff86166004820152602401610cf9565b73ffffffffffffffffffffffffffffffffffffffff84163b15610f4b576040517fbc197c8100000000000000000000000000000000000000000000000000000000815273ffffffffffffffffffffffffffffffffffffffff85169063bc197c819061375f9089908990889088908890600401614c89565b6020604051808303816000875af19250505080156137b8575060408051601f3d9081017fffffffffffffffffffffffffffffffffffffffffffffffffffffffffffffffe01682019092526137b591810190614c6c565b60015b6137e6573d8080156135f4576040519150601f19603f3d011682016040523d82523d6000602084013e6135f9565b7fffffffff0000000000000000000000000000000000000000000000000000000081167fbc197c81000000000000000000000000000000000000000000000000000000001461347b576040517f57f447ce00000000000000000000000000000000000000000000000000000000815273ffffffffffffffffffffffffffffffffffffffff86166004820152602401610cf9565b613885848484846139ed565b73ffffffffffffffffffffffffffffffffffffffff8416613945576000805b835181101561392b5760008382815181106138c1576138c1614a9c565b6020026020010151905080600460008785815181106138e2576138e2614a9c565b6020026020010151815260200190815260200160002060008282546139079190614b1d565b9091555061391790508184614b1d565b9250508061392490614a3f565b90506138a4565b50806005600082825461393e9190614b1d565b9091555050505b73ffffffffffffffffffffffffffffffffffffffff83166134f0576000805b83518110156139dc57600083828151811061398157613981614a9c565b6020026020010151905080600460008785815181106139a2576139a2614a9c565b6020026020010151815260200190815260200160002060008282540392505081905550808301925050806139d590614a3f565b9050613964565b506005805491909103905550505050565b8051825114613a3557815181516040517f5b05999100000000000000000000000000000000000000000000000000000000815260048101929092526024820152604401610cf9565b3360005b8351811015613bb15760208181028581018201519085019091015173ffffffffffffffffffffffffffffffffffffffff881615613b3d57600082815260016020908152604080832073ffffffffffffffffffffffffffffffffffffffff8c16845290915290205481811015613b07576040517f03dee4c500000000000000000000000000000000000000000000000000000000815273ffffffffffffffffffffffffffffffffffffffff8a166004820152602481018290526044810183905260648101849052608401610cf9565b600083815260016020908152604080832073ffffffffffffffffffffffffffffffffffffffff8d16845290915290209082900390555b73ffffffffffffffffffffffffffffffffffffffff871615613b9e57600082815260016020908152604080832073ffffffffffffffffffffffffffffffffffffffff8b16845290915281208054839290613b98908490614b1d565b90915550505b505080613baa90614a3f565b9050613a39565b508251600103613c5957602083015160009060208401519091508573ffffffffffffffffffffffffffffffffffffffff168773ffffffffffffffffffffffffffffffffffffffff168473ffffffffffffffffffffffffffffffffffffffff167fc3d58168c5ae7397731d063d5bbf3d657854427343f4c083240f7aacaa2d0f628585604051613c4a929190918252602082015260400190565b60405180910390a45050613037565b8373ffffffffffffffffffffffffffffffffffffffff168573ffffffffffffffffffffffffffffffffffffffff168273ffffffffffffffffffffffffffffffffffffffff167f4a39dc06d4c0dbc64b70af90fd698a233a518aa5d07e595d983b8c0526c8f7fb8686604051613ccf929190614cf4565b60405180910390a45050505050565b828054828255906000526020600020908101928215613d19579160200282015b82811115613d19578251825591602001919060010190613cfe565b50613d25929150613d29565b5090565b5b80821115613d255760008155600101613d2a565b803573ffffffffffffffffffffffffffffffffffffffff81168114613d6257600080fd5b919050565b60008060408385031215613d7a57600080fd5b613d8383613d3e565b946020939093013593505050565b7fffffffff0000000000000000000000000000000000000000000000000000000081168114612f0457600080fd5b600060208284031215613dd157600080fd5b8135613ddc81613d91565b9392505050565b600060208284031215613df557600080fd5b5035919050565b60005b83811015613e17578181015183820152602001613dff565b50506000910152565b60008151808452613e38816020860160208601613dfc565b601f017fffffffffffffffffffffffffffffffffffffffffffffffffffffffffffffffe0169290920160200192915050565b602081526000613ddc6020830184613e20565b7f4e487b7100000000000000000000000000000000000000000000000000000000600052604160045260246000fd5b60405160c0810167ffffffffffffffff81118282101715613ecf57613ecf613e7d565b60405290565b604051601f82017fffffffffffffffffffffffffffffffffffffffffffffffffffffffffffffffe016810167ffffffffffffffff81118282101715613f1c57613f1c613e7d565b604052919050565b600082601f830112613f3557600080fd5b813567ffffffffffffffff811115613f4f57613f4f613e7d565b613f8060207fffffffffffffffffffffffffffffffffffffffffffffffffffffffffffffffe0601f84011601613ed5565b818152846020838601011115613f9557600080fd5b816020850160208301376000918101602001919091529392505050565b803560ff81168114613d6257600080fd5b600067ffffffffffffffff821115613fdd57613fdd613e7d565b5060051b60200190565b600082601f830112613ff857600080fd5b8135602061400d61400883613fc3565b613ed5565b82815260059290921b8401810191818101908684111561402c57600080fd5b8286015b848110156140475780358352918301918301614030565b509695505050505050565b60006020828403121561406457600080fd5b813567ffffffffffffffff8082111561407c57600080fd5b9083019060c0828603121561409057600080fd5b614098613eac565b8235828111156140a757600080fd5b6140b387828601613f24565b825250602083013560208201526140cc60408401613fb2565b60408201526140dd60608401613fb2565b60608201526080830135828111156140f457600080fd5b61410087828601613fe7565b60808301525060a08301358281111561411857600080fd5b61412487828601613f24565b60a08301525095945050505050565b6000806040838503121561414657600080fd5b82359150602083013567ffffffffffffffff8082111561416557600080fd5b908401906040828703121561417957600080fd5b60405160408101818110838211171561419457614194613e7d565b6040528235828111156141a657600080fd5b6141b288828601613f24565b8252506020830135828111156141c757600080fd5b6141d388828601613f24565b6020830152508093505050509250929050565b6000602082840312156141f857600080fd5b613ddc82613fb2565b60006020828403121561421357600080fd5b613ddc82613d3e565b600081518084526020808501945080840160005b8381101561424c57815187529582019590820190600101614230565b509495945050505050565b602081526000613ddc602083018461421c565b600080600080600060a0868803121561428257600080fd5b61428b86613d3e565b945061429960208701613d3e565b9350604086013567ffffffffffffffff808211156142b657600080fd5b6142c289838a01613fe7565b945060608801359150808211156142d857600080fd5b6142e489838a01613fe7565b935060808801359150808211156142fa57600080fd5b5061430788828901613f24565b9150509295509295909350565b6000806040838503121561432757600080fd5b823567ffffffffffffffff8082111561433f57600080fd5b818501915085601f83011261435357600080fd5b8135602061436361400883613fc3565b82815260059290921b8401810191818101908984111561438257600080fd5b948201945b838610156143a75761439886613d3e565b82529482019490820190614387565b965050860135925050808211156143bd57600080fd5b506143ca85828601613fe7565b9150509250929050565b803563ffffffff81168114613d6257600080fd5b6000806000606084860312156143fd57600080fd5b8335925061440d602085016143d4565b9150604084013590509250925092565b6000806040838503121561443057600080fd5b82359150614440602084016143d4565b90509250929050565b60208152815160208201526000602083015161447d604084018273ffffffffffffffffffffffffffffffffffffffff169052565b506040830151606083015260608301516101408060808501526144a4610160850183613e20565b915060808501517fffffffffffffffffffffffffffffffffffffffffffffffffffffffffffffffe0808685030160a08701526144e08483613e20565b935060a087015191506144f860c087018360ff169052565b60c087015160ff811660e0880152915060e08701519150610100818786030181880152614525858461421c565b908801516101208881019190915290970151929095019190915250929392505050565b878152600073ffffffffffffffffffffffffffffffffffffffff808916602084015260e0604084015261457e60e0840189613e20565b83810360608501526145908189613e20565b91909616608084015260a08301949094525060c0015295945050505050565b60006101208b835273ffffffffffffffffffffffffffffffffffffffff8b1660208401528960408401528060608401526145eb8184018a613e20565b905082810360808401526145ff8189613e20565b60ff97881660a08501529590961660c08301525060e0810192909252610100909101529695505050505050565b600060a0828403121561463e57600080fd5b60405160a0810167ffffffffffffffff828210818311171561466257614662613e7d565b81604052829350843591508082111561467a57600080fd5b61468686838701613f24565b8352602085013591508082111561469c57600080fd5b506146a985828601613f24565b6020830152506146bb60408401613d3e565b604082015260608301356060820152608083013560808201525092915050565b6000602082840312156146ed57600080fd5b813567ffffffffffffffff81111561470457600080fd5b6147108482850161462c565b949350505050565b6000806040838503121561472b57600080fd5b61473483613d3e565b91506020830135801515811461474957600080fd5b809150509250929050565b6000806040838503121561476757600080fd5b82359150602083013567ffffffffffffffff81111561478557600080fd5b6143ca8582860161462c565b600080604083850312156147a457600080fd5b6147ad83613d3e565b915061444060208401613d3e565b600080600080600060a086880312156147d357600080fd5b6147dc86613d3e565b94506147ea60208701613d3e565b93506040860135925060608601359150608086013567ffffffffffffffff81111561481457600080fd5b61430788828901613f24565b600181811c9082168061483457607f821691505b6020821081036118b3577f4e487b7100000000000000000000000000000000000000000000000000000000600052602260045260246000fd5b601f8211156133a457600081815260208120601f850160051c810160208610156148945750805b601f850160051c820191505b81811015610f4b578281556001016148a0565b815167ffffffffffffffff8111156148cd576148cd613e7d565b6148e1816148db8454614820565b8461486d565b602080601f83116001811461493457600084156148fe5750858301515b7fffffffffffffffffffffffffffffffffffffffffffffffffffffffffffffffff600386901b1c1916600185901b178555610f4b565b6000858152602081207fffffffffffffffffffffffffffffffffffffffffffffffffffffffffffffffe08616915b8281101561498157888601518255948401946001909101908401614962565b50858210156149bd57878501517fffffffffffffffffffffffffffffffffffffffffffffffffffffffffffffffff600388901b60f8161c191681555b5050505050600190811b01905550565b6080815260006149e06080830187613e20565b82810360208401526149f28187613e20565b91505060ff8416604083015260ff8316606083015295945050505050565b7f4e487b7100000000000000000000000000000000000000000000000000000000600052601160045260246000fd5b60007fffffffffffffffffffffffffffffffffffffffffffffffffffffffffffffffff8203614a7057614a70614a10565b5060010190565b604081526000614a8a6040830185613e20565b82810360208401526115508185613e20565b7f4e487b7100000000000000000000000000000000000000000000000000000000600052603260045260246000fd5b80820281158282048414176108a4576108a4614a10565b600082614b18577f4e487b7100000000000000000000000000000000000000000000000000000000600052601260045260246000fd5b500490565b808201808211156108a4576108a4614a10565b818103818111156108a4576108a4614a10565b83815263ffffffff83166020820152606060408201526000611550606083018461421c565b600060208284031215614b7a57600080fd5b5051919050565b600060ff821660ff8103614b9757614b97614a10565b60010192915050565b86815260c060208201526000614bb960c0830188613e20565b8281036040840152614bcb8188613e20565b73ffffffffffffffffffffffffffffffffffffffff9690961660608401525050608081019290925260a0909101529392505050565b60008251614c12818460208701613dfc565b9190910192915050565b600073ffffffffffffffffffffffffffffffffffffffff808816835280871660208401525084604083015283606083015260a06080830152614c6160a0830184613e20565b979650505050505050565b600060208284031215614c7e57600080fd5b8151613ddc81613d91565b600073ffffffffffffffffffffffffffffffffffffffff808816835280871660208401525060a06040830152614cc260a083018661421c565b8281036060840152614cd4818661421c565b90508281036080840152614ce88185613e20565b98975050505050505050565b604081526000614d07604083018561421c565b8281036020840152611550818561421c56fea2646970667358221220ed8ac0d93f45071affae48040484446f5fabdba52de1c11a9c9d5093a22c1fee64736f6c63430008140033",
  "libraries": {},
  "devdoc": {
    "errors": {
      "ERC1155InsufficientBalance(address,uint256,uint256,uint256)": [
        {
          "details": "Indicates an error related to the current `balance` of a `sender`. Used in transfers.",
          "params": {
            "balance": "Current balance for the interacting account.",
            "needed": "Minimum amount required to perform a transfer.",
            "sender": "Address whose tokens are being transferred.",
            "tokenId": "Identifier number of a token."
          }
        }
      ],
      "ERC1155InvalidApprover(address)": [
        {
          "details": "Indicates a failure with the `approver` of a token to be approved. Used in approvals.",
          "params": {
            "approver": "Address initiating an approval operation."
          }
        }
      ],
      "ERC1155InvalidArrayLength(uint256,uint256)": [
        {
          "details": "Indicates an array length mismatch between ids and values in a safeBatchTransferFrom operation. Used in batch transfers.",
          "params": {
            "idsLength": "Length of the array of token identifiers",
            "valuesLength": "Length of the array of token amounts"
          }
        }
      ],
      "ERC1155InvalidOperator(address)": [
        {
          "details": "Indicates a failure with the `operator` to be approved. Used in approvals.",
          "params": {
            "operator": "Address that may be allowed to operate on tokens without being their owner."
          }
        }
      ],
      "ERC1155InvalidReceiver(address)": [
        {
          "details": "Indicates a failure with the token `receiver`. Used in transfers.",
          "params": {
            "receiver": "Address to which tokens are being transferred."
          }
        }
      ],
      "ERC1155InvalidSender(address)": [
        {
          "details": "Indicates a failure with the token `sender`. Used in transfers.",
          "params": {
            "sender": "Address whose tokens are being transferred."
          }
        }
      ],
      "ERC1155MissingApprovalForAll(address,address)": [
        {
          "details": "Indicates a failure with the `operator`s approval. Used in transfers.",
          "params": {
            "operator": "Address that may be allowed to operate on tokens without being their owner.",
            "owner": "Address of the current owner of a token."
          }
        }
      ],
      "OwnableInvalidOwner(address)": [
        {
          "details": "The owner is not a valid owner account. (eg. `address(0)`)"
        }
      ],
      "OwnableUnauthorizedAccount(address)": [
        {
          "details": "The caller account is not authorized to perform an operation."
        }
      ],
      "ReentrancyGuardReentrantCall()": [
        {
          "details": "Unauthorized reentrant call."
        }
      ]
    },
    "events": {
      "ApprovalForAll(address,address,bool)": {
        "details": "Emitted when `account` grants or revokes permission to `operator` to transfer their tokens, according to `approved`."
      },
      "TransferBatch(address,address,address,uint256[],uint256[])": {
        "details": "Equivalent to multiple {TransferSingle} events, where `operator`, `from` and `to` are the same for all transfers."
      },
      "TransferSingle(address,address,address,uint256,uint256)": {
        "details": "Emitted when `value` amount of tokens of type `id` are transferred from `from` to `to` by `operator`."
      },
      "URI(string,uint256)": {
        "details": "Emitted when the URI for token type `id` changes to `value`, if it is a non-programmatic URI. If an {URI} event was emitted for `id`, the standard https://eips.ethereum.org/EIPS/eip-1155#metadata-extensions[guarantees] that `value` will equal the value returned by {IERC1155MetadataURI-uri}."
      }
    },
    "kind": "dev",
    "methods": {
      "balanceOf(address,uint256)": {
        "details": "See {IERC1155-balanceOf}."
      },
      "balanceOfBatch(address[],uint256[])": {
        "details": "See {IERC1155-balanceOfBatch}. Requirements: - `accounts` and `ids` must have the same length."
      },
      "exists(uint256)": {
        "details": "Indicates whether any token exist with a given id, or not."
      },
      "isApprovedForAll(address,address)": {
        "details": "See {IERC1155-isApprovedForAll}."
      },
      "owner()": {
        "details": "Returns the address of the current owner."
      },
      "renounceOwnership()": {
        "details": "Leaves the contract without owner. It will not be possible to call `onlyOwner` functions. Can only be called by the current owner. NOTE: Renouncing ownership will leave the contract without an owner, thereby disabling any functionality that is only available to the owner."
      },
      "safeBatchTransferFrom(address,address,uint256[],uint256[],bytes)": {
        "details": "See {IERC1155-safeBatchTransferFrom}."
      },
      "safeTransferFrom(address,address,uint256,uint256,bytes)": {
        "details": "See {IERC1155-safeTransferFrom}."
      },
      "setApprovalForAll(address,bool)": {
        "details": "See {IERC1155-setApprovalForAll}."
      },
      "supportsInterface(bytes4)": {
        "details": "See {IERC165-supportsInterface}."
      },
      "totalSupply()": {
        "details": "Total value of tokens."
      },
      "totalSupply(uint256)": {
        "details": "Total value of tokens in with a given id."
      },
      "transferOwnership(address)": {
        "details": "Transfers ownership of the contract to a new account (`newOwner`). Can only be called by the current owner."
      },
      "uri(uint256)": {
        "details": "See {IERC1155MetadataURI-uri}. This implementation returns the same URI for *all* token types. It relies on the token type ID substitution mechanism https://eips.ethereum.org/EIPS/eip-1155#metadata[defined in the EIP]. Clients calling this function must replace the `\\{id\\}` substring with the actual token type ID."
      }
    },
    "version": 1
  },
  "userdoc": {
    "kind": "user",
    "methods": {},
    "version": 1
  },
  "storageLayout": {
    "storage": [
      {
        "astId": 8,
        "contract": "contracts/core/IndieX.sol:IndieX",
        "label": "_owner",
        "offset": 0,
        "slot": "0",
        "type": "t_address"
      },
      {
        "astId": 326,
        "contract": "contracts/core/IndieX.sol:IndieX",
        "label": "_balances",
        "offset": 0,
        "slot": "1",
        "type": "t_mapping(t_uint256,t_mapping(t_address,t_uint256))"
      },
      {
        "astId": 332,
        "contract": "contracts/core/IndieX.sol:IndieX",
        "label": "_operatorApprovals",
        "offset": 0,
        "slot": "2",
        "type": "t_mapping(t_address,t_mapping(t_address,t_bool))"
      },
      {
        "astId": 334,
        "contract": "contracts/core/IndieX.sol:IndieX",
        "label": "_uri",
        "offset": 0,
        "slot": "3",
        "type": "t_string_storage"
      },
      {
        "astId": 1511,
        "contract": "contracts/core/IndieX.sol:IndieX",
        "label": "_totalSupply",
        "offset": 0,
        "slot": "4",
        "type": "t_mapping(t_uint256,t_uint256)"
      },
      {
        "astId": 1513,
        "contract": "contracts/core/IndieX.sol:IndieX",
        "label": "_totalSupplyAll",
        "offset": 0,
        "slot": "5",
        "type": "t_uint256"
      },
      {
        "astId": 2569,
        "contract": "contracts/core/IndieX.sol:IndieX",
        "label": "_status",
        "offset": 0,
        "slot": "6",
        "type": "t_uint256"
      },
      {
        "astId": 3919,
        "contract": "contracts/core/IndieX.sol:IndieX",
        "label": "curveIndex",
        "offset": 0,
        "slot": "7",
        "type": "t_uint8"
      },
      {
        "astId": 3923,
        "contract": "contracts/core/IndieX.sol:IndieX",
        "label": "curves",
        "offset": 0,
        "slot": "8",
        "type": "t_mapping(t_uint8,t_address)"
      },
      {
        "astId": 3926,
        "contract": "contracts/core/IndieX.sol:IndieX",
        "label": "farmerIndex",
        "offset": 0,
        "slot": "9",
        "type": "t_uint8"
      },
      {
        "astId": 3930,
        "contract": "contracts/core/IndieX.sol:IndieX",
        "label": "farmers",
        "offset": 0,
        "slot": "10",
        "type": "t_mapping(t_uint8,t_address)"
      },
      {
        "astId": 3932,
        "contract": "contracts/core/IndieX.sol:IndieX",
        "label": "appIndex",
        "offset": 0,
        "slot": "11",
        "type": "t_uint256"
      },
      {
        "astId": 3937,
        "contract": "contracts/core/IndieX.sol:IndieX",
        "label": "apps",
        "offset": 0,
        "slot": "12",
        "type": "t_mapping(t_uint256,t_struct(App)3875_storage)"
      },
      {
        "astId": 3939,
        "contract": "contracts/core/IndieX.sol:IndieX",
        "label": "creationIndex",
        "offset": 0,
        "slot": "13",
        "type": "t_uint256"
      },
      {
        "astId": 3944,
        "contract": "contracts/core/IndieX.sol:IndieX",
        "label": "creations",
        "offset": 0,
        "slot": "14",
        "type": "t_mapping(t_uint256,t_struct(Creation)3916_storage)"
      },
      {
        "astId": 3949,
        "contract": "contracts/core/IndieX.sol:IndieX",
        "label": "userCreations",
        "offset": 0,
        "slot": "15",
        "type": "t_mapping(t_address,t_array(t_uint256)dyn_storage)"
      },
      {
        "astId": 3952,
        "contract": "contracts/core/IndieX.sol:IndieX",
        "label": "ethAmount",
        "offset": 0,
        "slot": "16",
        "type": "t_uint256"
      },
      {
        "astId": 3958,
        "contract": "contracts/core/IndieX.sol:IndieX",
        "label": "protocolFeePercent",
        "offset": 0,
        "slot": "17",
        "type": "t_uint256"
      }
    ],
    "types": {
      "t_address": {
        "encoding": "inplace",
        "label": "address",
        "numberOfBytes": "20"
      },
      "t_array(t_uint256)dyn_storage": {
        "base": "t_uint256",
        "encoding": "dynamic_array",
        "label": "uint256[]",
        "numberOfBytes": "32"
      },
      "t_bool": {
        "encoding": "inplace",
        "label": "bool",
        "numberOfBytes": "1"
      },
      "t_mapping(t_address,t_array(t_uint256)dyn_storage)": {
        "encoding": "mapping",
        "key": "t_address",
        "label": "mapping(address => uint256[])",
        "numberOfBytes": "32",
        "value": "t_array(t_uint256)dyn_storage"
      },
      "t_mapping(t_address,t_bool)": {
        "encoding": "mapping",
        "key": "t_address",
        "label": "mapping(address => bool)",
        "numberOfBytes": "32",
        "value": "t_bool"
      },
      "t_mapping(t_address,t_mapping(t_address,t_bool))": {
        "encoding": "mapping",
        "key": "t_address",
        "label": "mapping(address => mapping(address => bool))",
        "numberOfBytes": "32",
        "value": "t_mapping(t_address,t_bool)"
      },
      "t_mapping(t_address,t_uint256)": {
        "encoding": "mapping",
        "key": "t_address",
        "label": "mapping(address => uint256)",
        "numberOfBytes": "32",
        "value": "t_uint256"
      },
      "t_mapping(t_uint256,t_mapping(t_address,t_uint256))": {
        "encoding": "mapping",
        "key": "t_uint256",
        "label": "mapping(uint256 => mapping(address => uint256))",
        "numberOfBytes": "32",
        "value": "t_mapping(t_address,t_uint256)"
      },
      "t_mapping(t_uint256,t_struct(App)3875_storage)": {
        "encoding": "mapping",
        "key": "t_uint256",
        "label": "mapping(uint256 => struct IndieX.App)",
        "numberOfBytes": "32",
        "value": "t_struct(App)3875_storage"
      },
      "t_mapping(t_uint256,t_struct(Creation)3916_storage)": {
        "encoding": "mapping",
        "key": "t_uint256",
        "label": "mapping(uint256 => struct IndieX.Creation)",
        "numberOfBytes": "32",
        "value": "t_struct(Creation)3916_storage"
      },
      "t_mapping(t_uint256,t_uint256)": {
        "encoding": "mapping",
        "key": "t_uint256",
        "label": "mapping(uint256 => uint256)",
        "numberOfBytes": "32",
        "value": "t_uint256"
      },
      "t_mapping(t_uint8,t_address)": {
        "encoding": "mapping",
        "key": "t_uint8",
        "label": "mapping(uint8 => address)",
        "numberOfBytes": "32",
        "value": "t_address"
      },
      "t_string_storage": {
        "encoding": "bytes",
        "label": "string",
        "numberOfBytes": "32"
      },
      "t_struct(App)3875_storage": {
        "encoding": "inplace",
        "label": "struct IndieX.App",
        "members": [
          {
            "astId": 3862,
            "contract": "contracts/core/IndieX.sol:IndieX",
            "label": "id",
            "offset": 0,
            "slot": "0",
            "type": "t_uint256"
          },
          {
            "astId": 3864,
            "contract": "contracts/core/IndieX.sol:IndieX",
            "label": "creator",
            "offset": 0,
            "slot": "1",
            "type": "t_address"
          },
          {
            "astId": 3866,
            "contract": "contracts/core/IndieX.sol:IndieX",
            "label": "name",
            "offset": 0,
            "slot": "2",
            "type": "t_string_storage"
          },
          {
            "astId": 3868,
            "contract": "contracts/core/IndieX.sol:IndieX",
            "label": "uri",
            "offset": 0,
            "slot": "3",
            "type": "t_string_storage"
          },
          {
            "astId": 3870,
            "contract": "contracts/core/IndieX.sol:IndieX",
            "label": "feeTo",
            "offset": 0,
            "slot": "4",
            "type": "t_address"
          },
          {
            "astId": 3872,
            "contract": "contracts/core/IndieX.sol:IndieX",
            "label": "appFeePercent",
            "offset": 0,
            "slot": "5",
            "type": "t_uint256"
          },
          {
            "astId": 3874,
            "contract": "contracts/core/IndieX.sol:IndieX",
            "label": "creatorFeePercent",
            "offset": 0,
            "slot": "6",
            "type": "t_uint256"
          }
        ],
        "numberOfBytes": "224"
      },
      "t_struct(Creation)3916_storage": {
        "encoding": "inplace",
        "label": "struct IndieX.Creation",
        "members": [
          {
            "astId": 3896,
            "contract": "contracts/core/IndieX.sol:IndieX",
            "label": "id",
            "offset": 0,
            "slot": "0",
            "type": "t_uint256"
          },
          {
            "astId": 3898,
            "contract": "contracts/core/IndieX.sol:IndieX",
            "label": "creator",
            "offset": 0,
            "slot": "1",
            "type": "t_address"
          },
          {
            "astId": 3900,
            "contract": "contracts/core/IndieX.sol:IndieX",
            "label": "appId",
            "offset": 0,
            "slot": "2",
            "type": "t_uint256"
          },
          {
            "astId": 3902,
            "contract": "contracts/core/IndieX.sol:IndieX",
            "label": "name",
            "offset": 0,
            "slot": "3",
            "type": "t_string_storage"
          },
          {
            "astId": 3904,
            "contract": "contracts/core/IndieX.sol:IndieX",
            "label": "uri",
            "offset": 0,
            "slot": "4",
            "type": "t_string_storage"
          },
          {
            "astId": 3906,
            "contract": "contracts/core/IndieX.sol:IndieX",
            "label": "farmer",
            "offset": 0,
            "slot": "5",
            "type": "t_uint8"
          },
          {
            "astId": 3908,
            "contract": "contracts/core/IndieX.sol:IndieX",
            "label": "curve",
            "offset": 1,
            "slot": "5",
            "type": "t_uint8"
          },
          {
            "astId": 3911,
            "contract": "contracts/core/IndieX.sol:IndieX",
            "label": "curveArgs",
            "offset": 0,
            "slot": "6",
            "type": "t_array(t_uint256)dyn_storage"
          },
          {
            "astId": 3913,
            "contract": "contracts/core/IndieX.sol:IndieX",
            "label": "balance",
            "offset": 0,
            "slot": "7",
            "type": "t_uint256"
          },
          {
            "astId": 3915,
            "contract": "contracts/core/IndieX.sol:IndieX",
            "label": "volume",
            "offset": 0,
            "slot": "8",
            "type": "t_uint256"
          }
        ],
        "numberOfBytes": "288"
      },
      "t_uint256": {
        "encoding": "inplace",
        "label": "uint256",
        "numberOfBytes": "32"
      },
      "t_uint8": {
        "encoding": "inplace",
        "label": "uint8",
        "numberOfBytes": "1"
      }
    }
  }
}