{
  "address": "0x63A2eD8B770585230F1c398e5fA5ac6ec495eE10",
  "abi": [
    {
      "inputs": [
        {
          "internalType": "uint256",
          "name": "supply",
          "type": "uint256"
        },
        {
          "internalType": "uint256",
          "name": "amount",
          "type": "uint256"
        },
        {
          "internalType": "uint256[]",
          "name": "args",
          "type": "uint256[]"
        }
      ],
      "name": "getPrice",
      "outputs": [
        {
          "internalType": "uint256",
          "name": "",
          "type": "uint256"
        }
      ],
      "stateMutability": "pure",
      "type": "function"
    }
  ],
  "transactionHash": "0xef20d5bec6d005f5caa1e66aeba268a7d9726c339315b90e808de244e5cf302f",
  "args": [],
  "numDeployments": 1,
  "solcInputHash": "d949873f1b4615206a20f8723926673a",
  "bytecode": "0x608060405234801561001057600080fd5b50610378806100206000396000f3fe608060405234801561001057600080fd5b506004361061002b5760003560e01c806317c8ad7c14610030575b600080fd5b61004361003e36600461017b565b610055565b60405190815260200160405180910390f35b8051600090818161006e5767016bcc41e900000061008a565b836000815181106100815761008161026c565b60200260200101515b905060006001831161009d5760646100b9565b846001815181106100b0576100b061026c565b60200260200101515b9050600081670de0b6b3a76400006100d08a61013a565b6100e26100dd8b8d6102ca565b61013a565b6100ec91906102dd565b6100f691906102f0565b61010091906102f0565b90506000670de0b6b3a7640000610117898661032b565b61012191906102f0565b905061012d81836102ca565b9998505050505050505050565b6000610146828061032b565b92915050565b7f4e487b7100000000000000000000000000000000000000000000000000000000600052604160045260246000fd5b60008060006060848603121561019057600080fd5b833592506020808501359250604085013567ffffffffffffffff808211156101b757600080fd5b818701915087601f8301126101cb57600080fd5b8135818111156101dd576101dd61014c565b8060051b6040517fffffffffffffffffffffffffffffffffffffffffffffffffffffffffffffffe0603f830116810181811085821117156102205761022061014c565b60405291825284820192508381018501918a83111561023e57600080fd5b938501935b8285101561025c57843584529385019392850192610243565b8096505050505050509250925092565b7f4e487b7100000000000000000000000000000000000000000000000000000000600052603260045260246000fd5b7f4e487b7100000000000000000000000000000000000000000000000000000000600052601160045260246000fd5b808201808211156101465761014661029b565b818103818111156101465761014661029b565b600082610326577f4e487b7100000000000000000000000000000000000000000000000000000000600052601260045260246000fd5b500490565b80820281158282048414176101465761014661029b56fea2646970667358221220be87451f569fe227d13b8d14027c3a21507ccd4f991825d923834e860499261b64736f6c63430008140033",
  "libraries": {},
  "devdoc": {
    "kind": "dev",
    "methods": {},
    "version": 1
  },
  "userdoc": {
    "kind": "user",
    "methods": {},
    "version": 1
  },
  "storageLayout": {
    "storage": [],
    "types": null
  }
}