{
  "address": "0x74cD6084EB3A834e4E9e90f900c62794a951eA03",
  "abi": [
    {
      "inputs": [
        {
          "internalType": "address",
          "name": "target",
          "type": "address"
        }
      ],
      "name": "AddressEmptyCode",
      "type": "error"
    },
    {
      "inputs": [
        {
          "internalType": "address",
          "name": "account",
          "type": "address"
        }
      ],
      "name": "AddressInsufficientBalance",
      "type": "error"
    },
    {
      "inputs": [],
      "name": "FailedInnerCall",
      "type": "error"
    },
    {
      "inputs": [
        {
          "internalType": "address",
          "name": "token",
          "type": "address"
        }
      ],
      "name": "SafeERC20FailedOperation",
      "type": "error"
    },
    {
      "anonymous": false,
      "inputs": [
        {
          "indexed": true,
          "internalType": "address",
          "name": "user",
          "type": "address"
        },
        {
          "indexed": false,
          "internalType": "uint256",
          "name": "duration",
          "type": "uint256"
        },
        {
          "indexed": false,
          "internalType": "uint256",
          "name": "tokenAmount",
          "type": "uint256"
        }
      ],
      "name": "Subscribed",
      "type": "event"
    },
    {
      "anonymous": false,
      "inputs": [
        {
          "indexed": true,
          "internalType": "address",
          "name": "user",
          "type": "address"
        },
        {
          "indexed": false,
          "internalType": "uint256",
          "name": "amount",
          "type": "uint256"
        }
      ],
      "name": "Unsubscribed",
      "type": "event"
    },
    {
      "inputs": [],
      "name": "SUBSCRIPTION_PRICE",
      "outputs": [
        {
          "internalType": "uint256",
          "name": "",
          "type": "uint256"
        }
      ],
      "stateMutability": "view",
      "type": "function"
    }
  ],
  "transactionHash": "0x602ba1ad05b6410106f37d07e655164a05c8661b0e7bf280880b6bcd91ba2be5",
  "args": [],
  "numDeployments": 2,
  "solcInputHash": "9c0f622ea4ac1548d69f4c102b5b59fa",
  "bytecode": "0x61114461003a600b82828239805160001a60731461002d57634e487b7160e01b600052600060045260246000fd5b30600052607381538281f3fe73000000000000000000000000000000000000000030146080604052600436106100c85760003560e01c80636a890cb21161008057806390e836141161006557806390e83614146101a2578063db2a376c146101c2578063f7084514146101e257600080fd5b80636a890cb214610174578063889f8de01461018257600080fd5b80631a6cb80d116100b15780631a6cb80d1461010e578063218ed0a11461012e5780633b2d73b41461015457600080fd5b806301bb0196146100cd578063075b9916146100ef575b600080fd5b8180156100d957600080fd5b506100ed6100e8366004610e47565b61023c565b005b8180156100fb57600080fd5b506100ed61010a366004610e88565b9055565b81801561011a57600080fd5b506100ed610129366004610eaa565b610382565b61014161013c366004610edf565b6103d0565b6040519081526020015b60405180910390f35b81801561016057600080fd5b506100ed61016f366004610f14565b6104ea565b610141660746a52880000081565b81801561018e57600080fd5b506100ed61019d366004610e88565b610572565b6101b56101b0366004610f14565b6108d0565b60405161014b9190610f40565b6101d56101d0366004610eaa565b61095f565b60405161014b9190610f79565b6102216101f0366004610eaa565b6040805180820190915260008082526020820152506040805180820190915281548152600190910154602082015290565b6040805182518152602092830151928101929092520161014b565b3360009081526002850160205260409020811561025f5761025f30338187610aab565b8060030154600003610287574280825560018201556102816003860133610b20565b50610302565b6002810154815460009161029a91611008565b421190508015610300576040805160a081018252428082526000602080840182815284860183815260608601848152608087019586523385526002808f019094529690932094518555516001850155905190830155915160038201559051600482015591505b505b61030c85336104ea565b838160030160008282546103209190611008565b925050819055508281600201600082825461033b9190611008565b9091555050604080518481526020810186905233917ff94991dcbea6e8ac439cbc93bd9c62a4d39f04e0ad656df9a703f13552c2787f910160405180910390a25050505050565b600061039082600301610b35565b905060005b818110156103cb5760006103ac6003850183610b3f565b90506103b884826104ea565b50806103c38161101b565b915050610395565b505050565b6001600160a01b0382166000908152600280850160209081526040808420815160a08101835281548152600182015493810193909352928301549082018190526003830154606083015260049092015460808201529082036104365760009150506104e3565b80518310156104495760009150506104e3565b6040810151815161045a9190611008565b83111561047d57806080015181606001516104759190611034565b9150506104e3565b6000816080015182606001516104939190611034565b9050600084836040015184600001516104ac9190611008565b6104b69190611034565b9050808360200151866104c99190611034565b6104d39084611047565b6104dd919061105e565b93505050505b9392505050565b6001600160a01b03811660009081526002830160205260408120805490910361051257505050565b600061051f8484426103d0565b90508060000361052f5750505050565b4282600101819055508082600401600082825461054c9190611008565b92505081905550808460010160008282546105679190611008565b909155505050505050565b3360009081526002830160205260408120600381015490910361059457505050565b600082116105e95760405162461bcd60e51b815260206004820181905260248201527f416d6f756e74206d7573742062652067726561746572207468616e207a65726f60448201526064015b60405180910390fd5b806004015481600301546105fd9190611034565b82111561064c5760405162461bcd60e51b815260206004820152601060248201527f416d6f756e7420746f6f206c617267650000000000000000000000000000000060448201526064016105e0565b61065683336104ea565b8060040154816003015461066a9190611034565b8203610786576000816004015482600301546106869190611034565b3360008181526002808801602052604082208281556001810183905590810182905560038082018390556004909101919091559192506106c891860190610b4b565b50808460010160008282546106dd9190611008565b909155505060405163a9059cbb60e01b815233600482015260248101829052309063a9059cbb906044016020604051808303816000875af1158015610726573d6000803e3d6000fd5b505050506040513d601f19601f8201168201806040525081019061074a9190611080565b5060405181815233907f3a55fe27d475f752627ad5cef7a30389a812bdee18d467b4601ea007cfbace019060200160405180910390a250505050565b6000428260020154836000015461079d9190611008565b6107a79190611034565b90506000826004015483600301546107bf9190611034565b90506000816107ce8487611047565b6107d8919061105e565b9050808460020160008282546107ee9190611034565b92505081905550848460030160008282546108099190611034565b909155505060405163a9059cbb60e01b815233600482015260248101869052309063a9059cbb906044016020604051808303816000875af1158015610852573d6000803e3d6000fd5b505050506040513d601f19601f820116820180604052508101906108769190611080565b5083600301548460040154106108c8573360008181526002808901602052604082208281556001810183905590810182905560038082018390556004909101919091556108c69190880190610b4b565b505b505050505050565b6109026040518060a0016040528060008152602001600081526020016000815260200160008152602001600081525090565b506001600160a01b038116600090815260028084016020908152604092839020835160a081018552815481526001820154928101929092529182015492810192909252600381015460608301526004015460808201525b92915050565b6060600061096f83600301610b35565b905060008167ffffffffffffffff81111561098c5761098c61109d565b6040519080825280602002602001820160405280156109ef57816020015b6109dc6040518060a0016040528060008152602001600081526020016000815260200160008152602001600081525090565b8152602001906001900390816109aa5790505b50905060005b82811015610aa3576000610a0c6003870183610b3f565b9050856002016000826001600160a01b03166001600160a01b031681526020019081526020016000206040518060a001604052908160008201548152602001600182015481526020016002820154815260200160038201548152602001600482015481525050838381518110610a8457610a846110b3565b6020026020010181905250508080610a9b9061101b565b9150506109f5565b509392505050565b604080516001600160a01b0385811660248301528416604482015260648082018490528251808303909101815260849091019091526020810180517bffffffffffffffffffffffffffffffffffffffffffffffffffffffff166323b872dd60e01b179052610b1a908590610b60565b50505050565b60006104e3836001600160a01b038416610bc3565b6000610959825490565b60006104e38383610c12565b60006104e3836001600160a01b038416610c3c565b6000610b756001600160a01b03841683610d2f565b90508051600014158015610b9a575080806020019051810190610b989190611080565b155b156103cb57604051635274afe760e01b81526001600160a01b03841660048201526024016105e0565b6000818152600183016020526040812054610c0a57508154600181810184556000848152602080822090930184905584548482528286019093526040902091909155610959565b506000610959565b6000826000018281548110610c2957610c296110b3565b9060005260206000200154905092915050565b60008181526001830160205260408120548015610d25576000610c60600183611034565b8554909150600090610c7490600190611034565b9050808214610cd9576000866000018281548110610c9457610c946110b3565b9060005260206000200154905080876000018481548110610cb757610cb76110b3565b6000918252602080832090910192909255918252600188019052604090208390555b8554869080610cea57610cea6110c9565b600190038181906000526020600020016000905590558560010160008681526020019081526020016000206000905560019350505050610959565b6000915050610959565b60606104e38383600084600080856001600160a01b03168486604051610d5591906110df565b60006040518083038185875af1925050503d8060008114610d92576040519150601f19603f3d011682016040523d82523d6000602084013e610d97565b606091505b5091509150610da7868383610db1565b9695505050505050565b606082610dc657610dc182610e0d565b6104e3565b8151158015610ddd57506001600160a01b0384163b155b15610e0657604051639996b31560e01b81526001600160a01b03851660048201526024016105e0565b50806104e3565b805115610e1d5780518082602001fd5b604051630a12f52160e11b815260040160405180910390fd5b50565b8015158114610e3657600080fd5b60008060008060808587031215610e5d57600080fd5b8435935060208501359250604085013591506060850135610e7d81610e39565b939692955090935050565b60008060408385031215610e9b57600080fd5b50508035926020909101359150565b600060208284031215610ebc57600080fd5b5035919050565b80356001600160a01b0381168114610eda57600080fd5b919050565b600080600060608486031215610ef457600080fd5b83359250610f0460208501610ec3565b9150604084013590509250925092565b60008060408385031215610f2757600080fd5b82359150610f3760208401610ec3565b90509250929050565b60a08101610959828480518252602081015160208301526040810151604083015260608101516060830152608081015160808301525050565b6020808252825182820181905260009190848201906040850190845b81811015610fe657610fd383855180518252602081015160208301526040810151604083015260608101516060830152608081015160808301525050565b9284019260a09290920191600101610f95565b50909695505050505050565b634e487b7160e01b600052601160045260246000fd5b8082018082111561095957610959610ff2565b60006001820161102d5761102d610ff2565b5060010190565b8181038181111561095957610959610ff2565b808202811582820484141761095957610959610ff2565b60008261107b57634e487b7160e01b600052601260045260246000fd5b500490565b60006020828403121561109257600080fd5b81516104e381610e39565b634e487b7160e01b600052604160045260246000fd5b634e487b7160e01b600052603260045260246000fd5b634e487b7160e01b600052603160045260246000fd5b6000825160005b8181101561110057602081860181015185830152016110e6565b50600092019182525091905056fea264697066735822122078f5867fcbdc4583ff6c329d1e051d4a4ad090b67d22dfddf9b0408cdc6feba764736f6c63430008140033",
  "libraries": {},
  "devdoc": {
    "errors": {
      "AddressEmptyCode(address)": [
        {
          "details": "There's no code at `target` (it is not a contract)."
        }
      ],
      "AddressInsufficientBalance(address)": [
        {
          "details": "The ETH balance of the account is not enough to perform the operation."
        }
      ],
      "FailedInnerCall()": [
        {
          "details": "A call to an address target failed. The target may have reverted."
        }
      ],
      "SafeERC20FailedOperation(address)": [
        {
          "details": "An operation with an ERC20 token failed."
        }
      ]
    },
    "kind": "dev",
    "methods": {},
    "version": 1
  },
  "userdoc": {
    "kind": "user",
    "methods": {},
    "version": 1
  },
  "storageLayout": {
    "storage": [],
    "types": null
  }
}