{
  "address": "0x25fb602a1C8397ac05c11b6EBbDf838129396bb1",
  "abi": [
    {
      "inputs": [
        {
          "internalType": "uint256",
          "name": "supply",
          "type": "uint256"
        },
        {
          "internalType": "uint256",
          "name": "amount",
          "type": "uint256"
        },
        {
          "internalType": "uint256[]",
          "name": "args",
          "type": "uint256[]"
        }
      ],
      "name": "getPrice",
      "outputs": [
        {
          "internalType": "uint256",
          "name": "",
          "type": "uint256"
        }
      ],
      "stateMutability": "pure",
      "type": "function"
    }
  ],
  "transactionHash": "0x48c2f4accf567147e56c4f127fe02cbf5e68b43cdfebb5a99ae76e8553de165d",
  "args": [],
  "numDeployments": 6,
  "solcInputHash": "025de0de27a33664f214c2f742d5d03b",
  "bytecode": "0x608060405234801561001057600080fd5b5061038e806100206000396000f3fe608060405234801561001057600080fd5b506004361061002b5760003560e01c806317c8ad7c14610030575b600080fd5b61004361003e366004610191565b610055565b60405190815260200160405180910390f35b8051600090818161006d576603a35294400000610089565b8360008151811061008057610080610282565b60200260200101515b905060006001831161009d5761c3506100b9565b846001815181106100b0576100b0610282565b60200260200101515b9050600081670de0b6b3a7640000806100d18b610145565b6100e36100de8c8e6102e0565b610145565b6100ed91906102f3565b6100f79190610306565b6101019190610306565b61010b9190610306565b90506000670de0b6b3a76400006101228986610341565b61012c9190610306565b905061013881836102e0565b9998505050505050505050565b6000816101528180610341565b61015c9190610341565b92915050565b7f4e487b7100000000000000000000000000000000000000000000000000000000600052604160045260246000fd5b6000806000606084860312156101a657600080fd5b833592506020808501359250604085013567ffffffffffffffff808211156101cd57600080fd5b818701915087601f8301126101e157600080fd5b8135818111156101f3576101f3610162565b8060051b6040517fffffffffffffffffffffffffffffffffffffffffffffffffffffffffffffffe0603f8301168101818110858211171561023657610236610162565b60405291825284820192508381018501918a83111561025457600080fd5b938501935b8285101561027257843584529385019392850192610259565b8096505050505050509250925092565b7f4e487b7100000000000000000000000000000000000000000000000000000000600052603260045260246000fd5b7f4e487b7100000000000000000000000000000000000000000000000000000000600052601160045260246000fd5b8082018082111561015c5761015c6102b1565b8181038181111561015c5761015c6102b1565b60008261033c577f4e487b7100000000000000000000000000000000000000000000000000000000600052601260045260246000fd5b500490565b808202811582820484141761015c5761015c6102b156fea2646970667358221220385aa59cd6de1b5dff6fe7665f9bb9592318446e22ac230c3d3043802e87eae764736f6c63430008140033",
  "libraries": {},
  "devdoc": {
    "kind": "dev",
    "methods": {},
    "version": 1
  },
  "userdoc": {
    "kind": "user",
    "methods": {},
    "version": 1
  },
  "storageLayout": {
    "storage": [],
    "types": null
  }
}