{
  "address": "0x513840cbD635a08e4c1a83efd7a2a6AD6047b3BB",
  "abi": [
    {
      "inputs": [
        {
          "internalType": "uint256",
          "name": "supply",
          "type": "uint256"
        },
        {
          "internalType": "uint256",
          "name": "amount",
          "type": "uint256"
        },
        {
          "internalType": "uint32[]",
          "name": "args",
          "type": "uint32[]"
        }
      ],
      "name": "getPrice",
      "outputs": [
        {
          "internalType": "uint256",
          "name": "",
          "type": "uint256"
        }
      ],
      "stateMutability": "pure",
      "type": "function"
    }
  ],
  "transactionHash": "0xfcffa9996da00d56602a73d5995ee32d0c36ffe2ef85acaa61e6066b8adaddc5",
  "args": [],
  "numDeployments": 3,
  "solcInputHash": "d53cac8614196297ec6247a485e4a42f",
  "bytecode": "0x608060405234801561001057600080fd5b5061022d806100206000396000f3fe608060405234801561001057600080fd5b506004361061002b5760003560e01c806328df976114610030575b600080fd5b61004361003e3660046100cd565b610055565b60405190815260200160405180910390f35b600061c350670de0b6b3a76400008061006d886100b0565b61007f61007a898b61017f565b6100b0565b6100899190610192565b61009391906101a5565b61009d91906101a5565b6100a791906101a5565b95945050505050565b6000816100bd81806101e0565b6100c791906101e0565b92915050565b600080600080606085870312156100e357600080fd5b8435935060208501359250604085013567ffffffffffffffff8082111561010957600080fd5b818701915087601f83011261011d57600080fd5b81358181111561012c57600080fd5b8860208260051b850101111561014157600080fd5b95989497505060200194505050565b7f4e487b7100000000000000000000000000000000000000000000000000000000600052601160045260246000fd5b808201808211156100c7576100c7610150565b818103818111156100c7576100c7610150565b6000826101db577f4e487b7100000000000000000000000000000000000000000000000000000000600052601260045260246000fd5b500490565b80820281158282048414176100c7576100c761015056fea26469706673582212203782523c9204b3c8ca3d439863015fad459588a2ab653ece204f155ca5501af964736f6c63430008140033",
  "libraries": {},
  "devdoc": {
    "kind": "dev",
    "methods": {},
    "version": 1
  },
  "userdoc": {
    "kind": "user",
    "methods": {},
    "version": 1
  },
  "storageLayout": {
    "storage": [],
    "types": null
  }
}