{
  "address": "0x842afFA0dbbdA4c2e04694b5D3209359fe417e4d",
  "abi": [
    {
      "inputs": [
        {
          "internalType": "uint256",
          "name": "supply",
          "type": "uint256"
        },
        {
          "internalType": "uint256",
          "name": "amount",
          "type": "uint256"
        }
      ],
      "name": "getPrice",
      "outputs": [
        {
          "internalType": "uint256",
          "name": "",
          "type": "uint256"
        }
      ],
      "stateMutability": "pure",
      "type": "function"
    }
  ],
  "transactionHash": "0xb21cddbe0a0170b64637bd19af5930d12604bb6bce71b88cd1c377fbf0fb3630",
  "args": [],
  "numDeployments": 1,
  "solcInputHash": "59b4aab3a0b93eb447aae00b1cd39346",
  "bytecode": "0x608060405234801561001057600080fd5b506101c6806100206000396000f3fe608060405234801561001057600080fd5b506004361061002b5760003560e01c80635cf4ee9114610030575b600080fd5b61004361003e3660046100c7565b610055565b60405190815260200160405180910390f35b600061c350670de0b6b3a76400008061006d866100b0565b61007f61007a8789610118565b6100b0565b610089919061012b565b610093919061013e565b61009d919061013e565b6100a7919061013e565b90505b92915050565b6000816100bd8180610179565b6100aa9190610179565b600080604083850312156100da57600080fd5b50508035926020909101359150565b7f4e487b7100000000000000000000000000000000000000000000000000000000600052601160045260246000fd5b808201808211156100aa576100aa6100e9565b818103818111156100aa576100aa6100e9565b600082610174577f4e487b7100000000000000000000000000000000000000000000000000000000600052601260045260246000fd5b500490565b80820281158282048414176100aa576100aa6100e956fea26469706673582212208d42a36abfdec50173dff2dd514d8003f676f3091b843b76707177dd41ed47a664736f6c63430008140033",
  "libraries": {},
  "devdoc": {
    "kind": "dev",
    "methods": {},
    "version": 1
  },
  "userdoc": {
    "kind": "user",
    "methods": {},
    "version": 1
  },
  "storageLayout": {
    "storage": [],
    "types": null
  }
}