{
  "address": "0x8c86C104a2358dC47530378f11aeD5d90CD3bC5C",
  "abi": [
    {
      "anonymous": false,
      "inputs": [
        {
          "indexed": false,
          "internalType": "address",
          "name": "user",
          "type": "address"
        },
        {
          "indexed": false,
          "internalType": "uint256",
          "name": "amount",
          "type": "uint256"
        }
      ],
      "name": "Claimed",
      "type": "event"
    },
    {
      "anonymous": false,
      "inputs": [
        {
          "indexed": true,
          "internalType": "address",
          "name": "account",
          "type": "address"
        }
      ],
      "name": "ContributorAdded",
      "type": "event"
    },
    {
      "anonymous": false,
      "inputs": [
        {
          "indexed": false,
          "internalType": "uint256",
          "name": "accumulated",
          "type": "uint256"
        }
      ],
      "name": "RewardsPerShareUpdated",
      "type": "event"
    },
    {
      "anonymous": false,
      "inputs": [
        {
          "indexed": true,
          "internalType": "address",
          "name": "from",
          "type": "address"
        },
        {
          "indexed": true,
          "internalType": "address",
          "name": "to",
          "type": "address"
        },
        {
          "indexed": false,
          "internalType": "uint256",
          "name": "amount",
          "type": "uint256"
        }
      ],
      "name": "SharesTransferred",
      "type": "event"
    },
    {
      "anonymous": false,
      "inputs": [
        {
          "indexed": true,
          "internalType": "address",
          "name": "payer",
          "type": "address"
        },
        {
          "indexed": true,
          "internalType": "address",
          "name": "beneficiary",
          "type": "address"
        },
        {
          "indexed": false,
          "internalType": "uint256",
          "name": "start",
          "type": "uint256"
        },
        {
          "indexed": false,
          "internalType": "uint256",
          "name": "duration",
          "type": "uint256"
        },
        {
          "indexed": false,
          "internalType": "uint256",
          "name": "allocation",
          "type": "uint256"
        }
      ],
      "name": "VestingAdded",
      "type": "event"
    },
    {
      "anonymous": false,
      "inputs": [
        {
          "indexed": true,
          "internalType": "address",
          "name": "payer",
          "type": "address"
        },
        {
          "indexed": true,
          "internalType": "address",
          "name": "beneficiary",
          "type": "address"
        },
        {
          "indexed": false,
          "internalType": "uint256",
          "name": "amount",
          "type": "uint256"
        }
      ],
      "name": "VestingReleased",
      "type": "event"
    },
    {
      "inputs": [],
      "name": "MAX_SHARES_SUPPLY",
      "outputs": [
        {
          "internalType": "uint256",
          "name": "",
          "type": "uint256"
        }
      ],
      "stateMutability": "view",
      "type": "function"
    },
    {
      "inputs": [],
      "name": "PER_SHARE_PRECISION",
      "outputs": [
        {
          "internalType": "uint256",
          "name": "",
          "type": "uint256"
        }
      ],
      "stateMutability": "view",
      "type": "function"
    }
  ],
  "transactionHash": "0x238c02ad3bcf9981716988b4a059b6ca4ab1fad78bc58671525b7d2ca024b717",
  "args": [],
  "numDeployments": 1,
  "solcInputHash": "d2dbc9be78a7d0dbcd359efd8d7b4138",
  "bytecode": "0x6112c861003a600b82828239805160001a60731461002d57634e487b7160e01b600052600060045260246000fd5b30600052607381538281f3fe73000000000000000000000000000000000000000030146080604052600436106100e95760003560e01c8063819052a0116100965780639dc96a3a116100705780639dc96a3a14610224578063a9479ab114610237578063ed6de06014610257578063f351007e1461026a57600080fd5b8063819052a0146101da57806385d0fdce146101fa5780638cc890da1461020457600080fd5b80635fbab1e5116100c75780635fbab1e51461015257806377e7a4e71461019a578063816f8cfa146101ba57600080fd5b80632137f0ba146100ee5780632ce9a45f1461012157806333719aaa14610143575b600080fd5b8180156100fa57600080fd5b5061010e610109366004611057565b61028a565b6040519081526020015b60405180910390f35b81801561012d57600080fd5b5061014161013c366004611057565b610316565b005b61010e670de0b6b3a764000081565b61016561016036600461108c565b610323565b604051610118919081518152602080830151908201526040808301519082015260609182015115159181019190915260800190565b6101ad6101a8366004611057565b6103a8565b60405161011891906110b8565b8180156101c657600080fd5b506101416101d5366004611057565b6104e9565b8180156101e657600080fd5b506101416101f5366004611110565b6106e0565b61010e620f424081565b610217610212366004611057565b610942565b6040516101189190611156565b61010e6102323660046111a3565b6109a8565b81801561024357600080fd5b5061014161025236600461108c565b610a36565b61010e61026536600461108c565b610b75565b81801561027657600080fd5b506101416102853660046111a3565b610bff565b60003361029683610df3565b506102a18382610e56565b6001600160a01b0381166000908152600384016020526040812060010180549190556102cd8282610f36565b604080516001600160a01b0384168152602081018390527fd8138f8a3f377c5259ca548e70e4c2de94f129f5a11036a15b69513cba2b426a910160405180910390a19392505050565b61031f81610df3565b5050565b61035060405180608001604052806000815260200160008152602001600081526020016000151581525090565b506001600160a01b03811660009081526003808401602090815260409283902083516080810185528154815260018201549281019290925260028101549382019390935291015460ff16151560608201525b92915050565b600581015460609060009067ffffffffffffffff8111156103cb576103cb6111d8565b60405190808252806020026020018201604052801561041057816020015b60408051808201909152600080825260208201528152602001906001900390816103e95790505b50905060005b60058401548110156104e2576040518060400160405280856005018381548110610442576104426111ee565b9060005260206000200160009054906101000a90046001600160a01b03166001600160a01b03168152602001856003016000876005018581548110610489576104896111ee565b60009182526020808320909101546001600160a01b03168352820192909252604001902054905282518390839081106104c4576104c46111ee565b602002602001018190525080806104da9061121a565b915050610416565b5092915050565b336000908152600482016020526040812060018101549091036105535760405162461bcd60e51b815260206004820152601a60248201527f42656e656669636961727920646f6573206e6f7420657869737400000000000060448201526064015b60405180910390fd5b600081600401546105658433426109a8565b61056f9190611233565b9050600081116105c15760405162461bcd60e51b815260206004820152601d60248201527f4e6f20736861726573206172652064756520666f722072656c65617365000000604482015260640161054a565b808260040160008282546105d59190611246565b9091555050815460405182815233916001600160a01b0316907fc800dba4e4ee938f9d72daf6b9a44b6e148a9dabe80a5e295e585cca791a54499060200160405180910390a381546001600160a01b0316600090815260038401602052604090205481106106855760405162461bcd60e51b815260206004820152601360248201527f496e73756666696369656e742073686172657300000000000000000000000000604482015260640161054a565b81546001600160a01b03166000908152600384016020526040812080548392906106b0908490611233565b9091555050336000908152600384016020526040812080548392906106d6908490611246565b9091555050505050565b6001600160a01b0384166107365760405162461bcd60e51b815260206004820152601b60248201527f42656e6566696369617279206973207a65726f20616464726573730000000000604482015260640161054a565b6001600160a01b0384166000908152600486016020526040902060010154156107a15760405162461bcd60e51b815260206004820152601a60248201527f42656e656669636961727920616c726561647920657869737473000000000000604482015260640161054a565b6001600160a01b038416600090815260038087016020526040909120015460ff166107d5576107d08585610a36565b6107e0565b6107de85610df3565b505b6040518060a00160405280336001600160a01b031681526020018481526020018381526020018281526020016000815250856004016000866001600160a01b03166001600160a01b0316815260200190815260200160002060008201518160000160006101000a8154816001600160a01b0302191690836001600160a01b031602179055506020820151816001015560408201518160020155606082015181600301556080820151816004015590505084600601849080600181540180825580915050600190039060005260206000200160009091909190916101000a8154816001600160a01b0302191690836001600160a01b03160217905550836001600160a01b0316336001600160a01b03167f61838b56b2b866547d8f639aa6390ca56e72d74b3acf6d32ced3594ca0cec541858585604051610933939291909283526020830191909152604082015260600190565b60405180910390a35050505050565b60608160060180548060200260200160405190810160405280929190818152602001828054801561099c57602002820191906000526020600020905b81546001600160a01b0316815260019091019060200180831161097e575b50505050509050919050565b6001600160a01b0382166000908152600484016020526040812060018101548310156109d8576000915050610a2f565b806002015481600101546109ec9190611246565b8311156109fe57600301549050610a2f565b60028101546001820154610a129085611233565b8260030154610a219190611259565b610a2b9190611270565b9150505b9392505050565b6001600160a01b038116600090815260038084016020526040909120015460ff1615610aa45760405162461bcd60e51b815260206004820152601660248201527f436f6e7472696275746f72206973206578697374656400000000000000000000604482015260640161054a565b610aad82610df3565b5060408051608081018252600080825260208083018281528385018381526001606086018181526001600160a01b03891680875260038b8101875289882098518955945188840155925160028801555195909201805460ff191695151595909517909455600587018054918201815583529082200180547fffffffffffffffffffffffff00000000000000000000000000000000000000001683179055915190917f07681ffd9d424587412481b41d2ee582bb7bca757f626b0477051f302947027291a25050565b6001600160a01b03811660009081526003808401602090815260408084208151608081018352815481526001820154938101939093526002810154918301919091529091015460ff161515606082015281610bcf85610fde565b90506000610be68360000151846040015184611026565b8360200151610bf59190611246565b9695505050505050565b33600090815260038085016020526040909120015460ff16610c635760405162461bcd60e51b815260206004820152601b60248201527f53656e646572206973206e6f74206120636f6e7472696275746f720000000000604482015260640161054a565b336000908152600384016020526040902054811115610cc45760405162461bcd60e51b815260206004820152601360248201527f496e73756666696369656e742073686172657300000000000000000000000000604482015260640161054a565b6001600160a01b038216610d1a5760405162461bcd60e51b815260206004820152601960248201527f496e76616c696420726563697069656e74206164647265737300000000000000604482015260640161054a565b6001600160a01b038216600090815260038085016020526040909120015460ff16610d4e57610d498383610a36565b610d59565b610d5783610df3565b505b33600090815260038401602052604081208054839290610d7a908490611233565b90915550506001600160a01b038216600090815260038401602052604081208054839290610da9908490611246565b90915550506040518181526001600160a01b0383169033907f99c01cd4f8275976ef33d24514b1694c8a9d5730d92e26996834343e09778e999060200160405180910390a3505050565b600080610dff83610fde565b60028401549091508114801590610e1557600084555b600284018290556040518281527fee6950fa914047f22a73cfd1d28ca7684f4ab6fd927d35598326a759e3ea6dde9060200160405180910390a15092915050565b6001600160a01b03811660009081526003808401602090815260409283902083516080810185528154815260018201549281019290925260028082015494830185905292015460ff161515606082015290840154909103610eb657505050565b610ecd816000015182604001518560020154611026565b81602001818151610ede9190611246565b90525060028381015460408381019182526001600160a01b0394909416600090815260039586016020908152949020835181559383015160018501555190830155606001519101805460ff1916911515919091179055565b6000826001600160a01b03168260405160006040518083038185875af1925050503d8060008114610f83576040519150601f19603f3d011682016040523d82523d6000602084013e610f88565b606091505b5050905080610fd95760405162461bcd60e51b815260206004820152601360248201527f455448207472616e73666572206661696c656400000000000000000000000000604482015260640161054a565b505050565b60008160010154600003610ff457506002015490565b6001820154825461100d90670de0b6b3a7640000611259565b6110179190611270565b82600201546103a29190611246565b6000670de0b6b3a764000061103b8484611233565b6110459086611259565b61104f9190611270565b949350505050565b60006020828403121561106957600080fd5b5035919050565b80356001600160a01b038116811461108757600080fd5b919050565b6000806040838503121561109f57600080fd5b823591506110af60208401611070565b90509250929050565b602080825282518282018190526000919060409081850190868401855b8281101561110357815180516001600160a01b031685528601518685015292840192908501906001016110d5565b5091979650505050505050565b600080600080600060a0868803121561112857600080fd5b8535945061113860208701611070565b94979496505050506040830135926060810135926080909101359150565b6020808252825182820181905260009190848201906040850190845b818110156111975783516001600160a01b031683529284019291840191600101611172565b50909695505050505050565b6000806000606084860312156111b857600080fd5b833592506111c860208501611070565b9150604084013590509250925092565b634e487b7160e01b600052604160045260246000fd5b634e487b7160e01b600052603260045260246000fd5b634e487b7160e01b600052601160045260246000fd5b60006001820161122c5761122c611204565b5060010190565b818103818111156103a2576103a2611204565b808201808211156103a2576103a2611204565b80820281158282048414176103a2576103a2611204565b60008261128d57634e487b7160e01b600052601260045260246000fd5b50049056fea26469706673582212206582c71feddc82bf0934ca347bb35ab59865c566bbf67ccfe4026ae61783f58c64736f6c63430008140033",
  "libraries": {},
  "devdoc": {
    "kind": "dev",
    "methods": {},
    "version": 1
  },
  "userdoc": {
    "kind": "user",
    "methods": {},
    "version": 1
  },
  "storageLayout": {
    "storage": [],
    "types": null
  }
}