{
  "address": "0xB2260139f43F50020bD7cb0Fe40eb10eecb66204",
  "abi": [
    {
      "inputs": [
        {
          "internalType": "address",
          "name": "_founder",
          "type": "address"
        },
        {
          "internalType": "string",
          "name": "_name",
          "type": "string"
        },
        {
          "internalType": "string",
          "name": "_symbol",
          "type": "string"
        }
      ],
      "stateMutability": "nonpayable",
      "type": "constructor"
    },
    {
      "inputs": [],
      "name": "ECDSAInvalidSignature",
      "type": "error"
    },
    {
      "inputs": [
        {
          "internalType": "uint256",
          "name": "length",
          "type": "uint256"
        }
      ],
      "name": "ECDSAInvalidSignatureLength",
      "type": "error"
    },
    {
      "inputs": [
        {
          "internalType": "bytes32",
          "name": "s",
          "type": "bytes32"
        }
      ],
      "name": "ECDSAInvalidSignatureS",
      "type": "error"
    },
    {
      "inputs": [
        {
          "internalType": "address",
          "name": "spender",
          "type": "address"
        },
        {
          "internalType": "uint256",
          "name": "allowance",
          "type": "uint256"
        },
        {
          "internalType": "uint256",
          "name": "needed",
          "type": "uint256"
        }
      ],
      "name": "ERC20InsufficientAllowance",
      "type": "error"
    },
    {
      "inputs": [
        {
          "internalType": "address",
          "name": "sender",
          "type": "address"
        },
        {
          "internalType": "uint256",
          "name": "balance",
          "type": "uint256"
        },
        {
          "internalType": "uint256",
          "name": "needed",
          "type": "uint256"
        }
      ],
      "name": "ERC20InsufficientBalance",
      "type": "error"
    },
    {
      "inputs": [
        {
          "internalType": "address",
          "name": "approver",
          "type": "address"
        }
      ],
      "name": "ERC20InvalidApprover",
      "type": "error"
    },
    {
      "inputs": [
        {
          "internalType": "address",
          "name": "receiver",
          "type": "address"
        }
      ],
      "name": "ERC20InvalidReceiver",
      "type": "error"
    },
    {
      "inputs": [
        {
          "internalType": "address",
          "name": "sender",
          "type": "address"
        }
      ],
      "name": "ERC20InvalidSender",
      "type": "error"
    },
    {
      "inputs": [
        {
          "internalType": "address",
          "name": "spender",
          "type": "address"
        }
      ],
      "name": "ERC20InvalidSpender",
      "type": "error"
    },
    {
      "inputs": [
        {
          "internalType": "uint256",
          "name": "deadline",
          "type": "uint256"
        }
      ],
      "name": "ERC2612ExpiredSignature",
      "type": "error"
    },
    {
      "inputs": [
        {
          "internalType": "address",
          "name": "signer",
          "type": "address"
        },
        {
          "internalType": "address",
          "name": "owner",
          "type": "address"
        }
      ],
      "name": "ERC2612InvalidSigner",
      "type": "error"
    },
    {
      "inputs": [
        {
          "internalType": "address",
          "name": "account",
          "type": "address"
        },
        {
          "internalType": "uint256",
          "name": "currentNonce",
          "type": "uint256"
        }
      ],
      "name": "InvalidAccountNonce",
      "type": "error"
    },
    {
      "inputs": [],
      "name": "InvalidShortString",
      "type": "error"
    },
    {
      "inputs": [],
      "name": "ReentrancyGuardReentrantCall",
      "type": "error"
    },
    {
      "inputs": [
        {
          "internalType": "string",
          "name": "str",
          "type": "string"
        }
      ],
      "name": "StringTooLong",
      "type": "error"
    },
    {
      "anonymous": false,
      "inputs": [
        {
          "indexed": true,
          "internalType": "address",
          "name": "owner",
          "type": "address"
        },
        {
          "indexed": true,
          "internalType": "address",
          "name": "spender",
          "type": "address"
        },
        {
          "indexed": false,
          "internalType": "uint256",
          "name": "value",
          "type": "uint256"
        }
      ],
      "name": "Approval",
      "type": "event"
    },
    {
      "anonymous": false,
      "inputs": [
        {
          "indexed": false,
          "internalType": "address",
          "name": "user",
          "type": "address"
        },
        {
          "indexed": false,
          "internalType": "uint256",
          "name": "amount",
          "type": "uint256"
        }
      ],
      "name": "Claimed",
      "type": "event"
    },
    {
      "anonymous": false,
      "inputs": [],
      "name": "EIP712DomainChanged",
      "type": "event"
    },
    {
      "anonymous": false,
      "inputs": [
        {
          "indexed": false,
          "internalType": "uint256",
          "name": "accumulated",
          "type": "uint256"
        }
      ],
      "name": "RewardsPerShareUpdated",
      "type": "event"
    },
    {
      "anonymous": false,
      "inputs": [
        {
          "indexed": true,
          "internalType": "address",
          "name": "from",
          "type": "address"
        },
        {
          "indexed": true,
          "internalType": "address",
          "name": "to",
          "type": "address"
        },
        {
          "indexed": false,
          "internalType": "uint256",
          "name": "value",
          "type": "uint256"
        }
      ],
      "name": "Transfer",
      "type": "event"
    },
    {
      "stateMutability": "payable",
      "type": "fallback"
    },
    {
      "inputs": [],
      "name": "DOMAIN_SEPARATOR",
      "outputs": [
        {
          "internalType": "bytes32",
          "name": "",
          "type": "bytes32"
        }
      ],
      "stateMutability": "view",
      "type": "function"
    },
    {
      "inputs": [],
      "name": "PER_SHARE_PRECISION",
      "outputs": [
        {
          "internalType": "uint256",
          "name": "",
          "type": "uint256"
        }
      ],
      "stateMutability": "view",
      "type": "function"
    },
    {
      "inputs": [],
      "name": "accumulatedRewardsPerShare",
      "outputs": [
        {
          "internalType": "uint256",
          "name": "",
          "type": "uint256"
        }
      ],
      "stateMutability": "view",
      "type": "function"
    },
    {
      "inputs": [
        {
          "components": [
            {
              "internalType": "address",
              "name": "account",
              "type": "address"
            },
            {
              "internalType": "uint256",
              "name": "share",
              "type": "uint256"
            }
          ],
          "internalType": "struct Share.UpsertCollaboratorInput",
          "name": "input",
          "type": "tuple"
        }
      ],
      "name": "addCollaborator",
      "outputs": [],
      "stateMutability": "nonpayable",
      "type": "function"
    },
    {
      "inputs": [
        {
          "internalType": "address",
          "name": "owner",
          "type": "address"
        },
        {
          "internalType": "address",
          "name": "spender",
          "type": "address"
        }
      ],
      "name": "allowance",
      "outputs": [
        {
          "internalType": "uint256",
          "name": "",
          "type": "uint256"
        }
      ],
      "stateMutability": "view",
      "type": "function"
    },
    {
      "inputs": [
        {
          "internalType": "address",
          "name": "spender",
          "type": "address"
        },
        {
          "internalType": "uint256",
          "name": "value",
          "type": "uint256"
        }
      ],
      "name": "approve",
      "outputs": [
        {
          "internalType": "bool",
          "name": "",
          "type": "bool"
        }
      ],
      "stateMutability": "nonpayable",
      "type": "function"
    },
    {
      "inputs": [
        {
          "internalType": "address",
          "name": "account",
          "type": "address"
        }
      ],
      "name": "balanceOf",
      "outputs": [
        {
          "internalType": "uint256",
          "name": "",
          "type": "uint256"
        }
      ],
      "stateMutability": "view",
      "type": "function"
    },
    {
      "inputs": [],
      "name": "claim",
      "outputs": [
        {
          "internalType": "uint256",
          "name": "",
          "type": "uint256"
        }
      ],
      "stateMutability": "nonpayable",
      "type": "function"
    },
    {
      "inputs": [
        {
          "internalType": "uint256",
          "name": "",
          "type": "uint256"
        }
      ],
      "name": "collaboratorAddresses",
      "outputs": [
        {
          "internalType": "address",
          "name": "",
          "type": "address"
        }
      ],
      "stateMutability": "view",
      "type": "function"
    },
    {
      "inputs": [
        {
          "internalType": "address",
          "name": "",
          "type": "address"
        }
      ],
      "name": "collaborators",
      "outputs": [
        {
          "internalType": "uint256",
          "name": "share",
          "type": "uint256"
        },
        {
          "internalType": "uint256",
          "name": "rewards",
          "type": "uint256"
        },
        {
          "internalType": "uint256",
          "name": "checkpoint",
          "type": "uint256"
        }
      ],
      "stateMutability": "view",
      "type": "function"
    },
    {
      "inputs": [
        {
          "internalType": "address",
          "name": "user",
          "type": "address"
        }
      ],
      "name": "currentCollaboratorRewards",
      "outputs": [
        {
          "internalType": "uint256",
          "name": "",
          "type": "uint256"
        }
      ],
      "stateMutability": "view",
      "type": "function"
    },
    {
      "inputs": [],
      "name": "daoFees",
      "outputs": [
        {
          "internalType": "uint256",
          "name": "",
          "type": "uint256"
        }
      ],
      "stateMutability": "view",
      "type": "function"
    },
    {
      "inputs": [],
      "name": "decimals",
      "outputs": [
        {
          "internalType": "uint8",
          "name": "",
          "type": "uint8"
        }
      ],
      "stateMutability": "view",
      "type": "function"
    },
    {
      "inputs": [],
      "name": "distribute",
      "outputs": [],
      "stateMutability": "nonpayable",
      "type": "function"
    },
    {
      "inputs": [],
      "name": "eip712Domain",
      "outputs": [
        {
          "internalType": "bytes1",
          "name": "fields",
          "type": "bytes1"
        },
        {
          "internalType": "string",
          "name": "name",
          "type": "string"
        },
        {
          "internalType": "string",
          "name": "version",
          "type": "string"
        },
        {
          "internalType": "uint256",
          "name": "chainId",
          "type": "uint256"
        },
        {
          "internalType": "address",
          "name": "verifyingContract",
          "type": "address"
        },
        {
          "internalType": "bytes32",
          "name": "salt",
          "type": "bytes32"
        },
        {
          "internalType": "uint256[]",
          "name": "extensions",
          "type": "uint256[]"
        }
      ],
      "stateMutability": "view",
      "type": "function"
    },
    {
      "inputs": [],
      "name": "founder",
      "outputs": [
        {
          "internalType": "address",
          "name": "",
          "type": "address"
        }
      ],
      "stateMutability": "view",
      "type": "function"
    },
    {
      "inputs": [],
      "name": "getCollaborators",
      "outputs": [
        {
          "internalType": "address[]",
          "name": "",
          "type": "address[]"
        },
        {
          "components": [
            {
              "internalType": "uint256",
              "name": "share",
              "type": "uint256"
            },
            {
              "internalType": "uint256",
              "name": "rewards",
              "type": "uint256"
            },
            {
              "internalType": "uint256",
              "name": "checkpoint",
              "type": "uint256"
            }
          ],
          "internalType": "struct Share.Collaborator[]",
          "name": "",
          "type": "tuple[]"
        }
      ],
      "stateMutability": "view",
      "type": "function"
    },
    {
      "inputs": [],
      "name": "name",
      "outputs": [
        {
          "internalType": "string",
          "name": "",
          "type": "string"
        }
      ],
      "stateMutability": "view",
      "type": "function"
    },
    {
      "inputs": [
        {
          "internalType": "address",
          "name": "owner",
          "type": "address"
        }
      ],
      "name": "nonces",
      "outputs": [
        {
          "internalType": "uint256",
          "name": "",
          "type": "uint256"
        }
      ],
      "stateMutability": "view",
      "type": "function"
    },
    {
      "inputs": [
        {
          "internalType": "address",
          "name": "owner",
          "type": "address"
        },
        {
          "internalType": "address",
          "name": "spender",
          "type": "address"
        },
        {
          "internalType": "uint256",
          "name": "value",
          "type": "uint256"
        },
        {
          "internalType": "uint256",
          "name": "deadline",
          "type": "uint256"
        },
        {
          "internalType": "uint8",
          "name": "v",
          "type": "uint8"
        },
        {
          "internalType": "bytes32",
          "name": "r",
          "type": "bytes32"
        },
        {
          "internalType": "bytes32",
          "name": "s",
          "type": "bytes32"
        }
      ],
      "name": "permit",
      "outputs": [],
      "stateMutability": "nonpayable",
      "type": "function"
    },
    {
      "inputs": [],
      "name": "symbol",
      "outputs": [
        {
          "internalType": "string",
          "name": "",
          "type": "string"
        }
      ],
      "stateMutability": "view",
      "type": "function"
    },
    {
      "inputs": [],
      "name": "totalShare",
      "outputs": [
        {
          "internalType": "uint256",
          "name": "",
          "type": "uint256"
        }
      ],
      "stateMutability": "view",
      "type": "function"
    },
    {
      "inputs": [],
      "name": "totalSupply",
      "outputs": [
        {
          "internalType": "uint256",
          "name": "",
          "type": "uint256"
        }
      ],
      "stateMutability": "view",
      "type": "function"
    },
    {
      "inputs": [
        {
          "internalType": "address",
          "name": "to",
          "type": "address"
        },
        {
          "internalType": "uint256",
          "name": "value",
          "type": "uint256"
        }
      ],
      "name": "transfer",
      "outputs": [
        {
          "internalType": "bool",
          "name": "",
          "type": "bool"
        }
      ],
      "stateMutability": "nonpayable",
      "type": "function"
    },
    {
      "inputs": [
        {
          "internalType": "address",
          "name": "from",
          "type": "address"
        },
        {
          "internalType": "address",
          "name": "to",
          "type": "address"
        },
        {
          "internalType": "uint256",
          "name": "value",
          "type": "uint256"
        }
      ],
      "name": "transferFrom",
      "outputs": [
        {
          "internalType": "bool",
          "name": "",
          "type": "bool"
        }
      ],
      "stateMutability": "nonpayable",
      "type": "function"
    },
    {
      "inputs": [
        {
          "components": [
            {
              "internalType": "address",
              "name": "account",
              "type": "address"
            },
            {
              "internalType": "uint256",
              "name": "share",
              "type": "uint256"
            }
          ],
          "internalType": "struct Share.UpsertCollaboratorInput[]",
          "name": "_collaborators",
          "type": "tuple[]"
        }
      ],
      "name": "upsertCollaborators",
      "outputs": [],
      "stateMutability": "nonpayable",
      "type": "function"
    },
    {
      "inputs": [],
      "name": "withdrawDaoFee",
      "outputs": [],
      "stateMutability": "nonpayable",
      "type": "function"
    },
    {
      "stateMutability": "payable",
      "type": "receive"
    }
  ],
  "transactionHash": "0xb0625424a39e6c6f47ebebb4a55036e3eabf0ef7f536e3dc61501a24f7bffc64",
  "args": [
    "0x45aBBC64421a54CbffF878985AE6c4F0cfacfDb7",
    "Space share",
    "SHARE"
  ],
  "numDeployments": 3,
  "solcInputHash": "769555c07581301a30d27c8e9f2f4cc4",
  "bytecode": "0x6101a0604052670de0b6b3a76400006101605260006009819055600b553480156200002957600080fd5b506040516200227e3803806200227e8339810160408190526200004c91620002fd565b6040805180820190915260018152603160f81b6020820152829081908184600362000078838262000416565b50600462000087828262000416565b506200009991508390506005620001ab565b61012052620000aa816006620001ab565b61014052815160208084019190912060e052815190820120610100524660a0526200013860e05161010051604080517f8b73c3c69bb8fe3d512ecc4cf759cc79239f7b179b0ffacaa9a75d522b39400f60208201529081019290925260608201524660808201523060a082015260009060c00160405160208183030381529060405280519060200120905090565b60805250503060c0525050600160088190556001600160a01b03929092166101808190526040805160608101825268056bc75e2d63100000815260006020808301828152838501838152958352600c9091529290209051815590519381019390935551600290920191909155506200053c565b6000602083511015620001cb57620001c383620001e4565b9050620001de565b81620001d8848262000416565b5060ff90505b92915050565b600080829050601f815111156200021b578260405163305a27a960e01b8152600401620002129190620004e2565b60405180910390fd5b8051620002288262000517565b179392505050565b634e487b7160e01b600052604160045260246000fd5b60005b838110156200026357818101518382015260200162000249565b50506000910152565b600082601f8301126200027e57600080fd5b81516001600160401b03808211156200029b576200029b62000230565b604051601f8301601f19908116603f01168101908282118183101715620002c657620002c662000230565b81604052838152866020858801011115620002e057600080fd5b620002f384602083016020890162000246565b9695505050505050565b6000806000606084860312156200031357600080fd5b83516001600160a01b03811681146200032b57600080fd5b60208501519093506001600160401b03808211156200034957600080fd5b62000357878388016200026c565b935060408601519150808211156200036e57600080fd5b506200037d868287016200026c565b9150509250925092565b600181811c908216806200039c57607f821691505b602082108103620003bd57634e487b7160e01b600052602260045260246000fd5b50919050565b601f8211156200041157600081815260208120601f850160051c81016020861015620003ec5750805b601f850160051c820191505b818110156200040d57828155600101620003f8565b5050505b505050565b81516001600160401b0381111562000432576200043262000230565b6200044a8162000443845462000387565b84620003c3565b602080601f831160018114620004825760008415620004695750858301515b600019600386901b1c1916600185901b1785556200040d565b600085815260208120601f198616915b82811015620004b35788860151825594840194600190910190840162000492565b5085821015620004d25787850151600019600388901b60f8161c191681555b5050505050600190811b01905550565b60208152600082518060208401526200050381604085016020870162000246565b601f01601f19169190910160400192915050565b80516020808301519190811015620003bd5760001960209190910360031b1b16919050565b60805160a05160c05160e0516101005161012051610140516101605161018051611ca7620005d7600039600081816102d00152818161077e015281816109e701528181610aa70152610ae901526000818161026701528181611010015261104f0152600061123c0152600061120f01526000610fa001526000610f7801526000610ed301526000610efd01526000610f270152611ca76000f3fe60806040526004361061013d5760003560e01c8063026c420714610146578063061960aa1461016f57806306fdde0314610185578063095ea7b3146101a757806316f2db0d146101d757806318160ddd1461020457806323b872dd14610219578063313ce5671461023957806333719aaa146102555780633644e515146102895780633d52b8ce1461029e5780634d853ee5146102be5780634e71d92d146102f257806370a082311461030757806370a123931461033d5780637ecebe001461035357806384b0196e1461037357806395d89b411461039b5780639ec706aa146103b0578063a9059cbb146103d0578063b9f13be0146103f0578063c172698a14610447578063d1fbb02414610467578063d505accf1461047c578063dd62ed3e1461049c578063e4fc6b6d146104bc578063ffad0fc6146104d157005b3661014457005b005b34801561015257600080fd5b5061015c600a5481565b6040519081526020015b60405180910390f35b34801561017b57600080fd5b5061015c600b5481565b34801561019157600080fd5b5061019a6104f4565b60405161016691906117e1565b3480156101b357600080fd5b506101c76101c2366004611817565b610586565b6040519015158152602001610166565b3480156101e357600080fd5b506101f76101f2366004611841565b6105a0565b604051610166919061185a565b34801561021057600080fd5b5060025461015c565b34801561022557600080fd5b506101c761023436600461186e565b6105ca565b34801561024557600080fd5b5060405160128152602001610166565b34801561026157600080fd5b5061015c7f000000000000000000000000000000000000000000000000000000000000000081565b34801561029557600080fd5b5061015c6105ee565b3480156102aa57600080fd5b5061015c6102b93660046118aa565b6105fd565b3480156102ca57600080fd5b506101f77f000000000000000000000000000000000000000000000000000000000000000081565b3480156102fe57600080fd5b5061015c610670565b34801561031357600080fd5b5061015c6103223660046118aa565b6001600160a01b031660009081526020819052604090205490565b34801561034957600080fd5b5061015c60095481565b34801561035f57600080fd5b5061015c61036e3660046118aa565b610700565b34801561037f57600080fd5b5061038861071e565b60405161016697969594939291906118c5565b3480156103a757600080fd5b5061019a610764565b3480156103bc57600080fd5b506101446103cb36600461195b565b610773565b3480156103dc57600080fd5b506101c76103eb366004611817565b6109ce565b3480156103fc57600080fd5b5061042c61040b3660046118aa565b600c6020526000908152604090208054600182015460029092015490919083565b60408051938452602084019290925290820152606001610166565b34801561045357600080fd5b506101446104623660046119cf565b6109dc565b34801561047357600080fd5b50610144610a9c565b34801561048857600080fd5b506101446104973660046119e7565b610b17565b3480156104a857600080fd5b5061015c6104b7366004611a5a565b610c51565b3480156104c857600080fd5b50610144610c7c565b3480156104dd57600080fd5b506104e6610c87565b604051610166929190611a8d565b60606003805461050390611b26565b80601f016020809104026020016040519081016040528092919081815260200182805461052f90611b26565b801561057c5780601f106105515761010080835404028352916020019161057c565b820191906000526020600020905b81548152906001019060200180831161055f57829003601f168201915b5050505050905090565b600033610594818585610e07565b60019150505b92915050565b600d81815481106105b057600080fd5b6000918252602090912001546001600160a01b0316905081565b6000336105d8858285610e14565b6105e3858585610e67565b506001949350505050565b60006105f8610ec6565b905090565b6001600160a01b0381166000908152600c60209081526040808320815160608101835281548152600182015493810193909352600201549082015281610641610ff1565b90506000610658836000015184604001518461104b565b83602001516106679190611b70565b95945050505050565b600061067a611094565b33610684816110be565b6001600160a01b0381166000908152600c6020526040812060010180549190556106ae828261116f565b604080516001600160a01b0384168152602081018390527fd8138f8a3f377c5259ca548e70e4c2de94f129f5a11036a15b69513cba2b426a910160405180910390a19150506106fd6001600855565b90565b6001600160a01b03811660009081526007602052604081205461059a565b600060608060008060006060610732611208565b61073a611235565b60408051600080825260208201909252600f60f81b9b939a50919850469750309650945092509050565b60606004805461050390611b26565b336001600160a01b037f000000000000000000000000000000000000000000000000000000000000000016146107c45760405162461bcd60e51b81526004016107bb90611b99565b60405180910390fd5b6107cc611262565b5060005b818110156109c95760008383838181106107ec576107ec611bbf565b61080292602060409092020190810191506118aa565b9050600084848481811061081857610818611bbf565b90506040020160200135905060006001600160a01b0316826001600160a01b0316036108785760405162461bcd60e51b815260206004820152600f60248201526e496e76616c6964206164647265737360881b60448201526064016107bb565b600081116108c15760405162461bcd60e51b81526020600482015260166024820152755368617265206d75737420626520706f73697469766560501b60448201526064016107bb565b6001600160a01b0382166000908152600c6020526040812054900361096c5760408051606081018252600080825260208083018281528385018381526001600160a01b038816808552600c90935294832093518455516001808501919091559351600290930192909255600d8054938401815590527fd7b6990105719101dabeb77144f2a3385c8033acd3af97e9423a695e81ad1eb590910180546001600160a01b03191690911790555b610975826110be565b6001600160a01b0382166000908152600c60205260408120829055819061099c8383611bd5565b600a60008282546109ad9190611bd5565b90915550505050505080806109c190611be8565b9150506107d0565b505050565b600033610594818585610e67565b336001600160a01b037f00000000000000000000000000000000000000000000000000000000000000001614610a245760405162461bcd60e51b81526004016107bb90611b99565b610a2c611262565b50604051806060016040528082602001358152602001600081526020016000815250600c6000836000016020810190610a6591906118aa565b6001600160a01b03168152602080820192909252604090810160002083518155918301516001830155919091015160029091015550565b336001600160a01b037f00000000000000000000000000000000000000000000000000000000000000001614610ae45760405162461bcd60e51b81526004016107bb90611b99565b610b107f000000000000000000000000000000000000000000000000000000000000000060095461116f565b6000600955565b83421115610b3b5760405163313c898160e11b8152600481018590526024016107bb565b60007f6e71edae12b1b97f4d1f60370fef10105fa2faae0126114a169c64845d6126c9888888610b888c6001600160a01b0316600090815260076020526040902080546001810190915590565b6040805160208101969096526001600160a01b0394851690860152929091166060840152608083015260a082015260c0810186905260e0016040516020818303038152906040528051906020012090506000610be3826112c0565b90506000610bf3828787876112ed565b9050896001600160a01b0316816001600160a01b031614610c3a576040516325c0072360e11b81526001600160a01b0380831660048301528b1660248201526044016107bb565b610c458a8a8a610e07565b50505050505050505050565b6001600160a01b03918216600090815260016020908152604080832093909416825291909152205490565b610c84611262565b50565b6060806000600d805490506001600160401b03811115610ca957610ca9611b83565b604051908082528060200260200182016040528015610cfe57816020015b610ceb60405180606001604052806000815260200160008152602001600081525090565b815260200190600190039081610cc75790505b50905060005b600d54811015610d9e57600c6000600d8381548110610d2557610d25611bbf565b60009182526020808320909101546001600160a01b03168352828101939093526040918201902081516060810183528154815260018201549381019390935260020154908201528251839083908110610d8057610d80611bbf565b60200260200101819052508080610d9690611be8565b915050610d04565b50600d8181805480602002602001604051908101604052809291908181526020018280548015610df757602002820191906000526020600020905b81546001600160a01b03168152600190910190602001808311610dd9575b5050505050915092509250509091565b6109c9838383600161131b565b6000610e208484610c51565b90506000198114610e615781811015610e5257828183604051637dc7a0d960e11b81526004016107bb93929190611c01565b610e618484848403600061131b565b50505050565b6001600160a01b038316610e91576000604051634b637e8f60e11b81526004016107bb919061185a565b6001600160a01b038216610ebb57600060405163ec442f0560e01b81526004016107bb919061185a565b6109c98383836113f0565b6000306001600160a01b037f000000000000000000000000000000000000000000000000000000000000000016148015610f1f57507f000000000000000000000000000000000000000000000000000000000000000046145b15610f4957507f000000000000000000000000000000000000000000000000000000000000000090565b6105f8604080517f8b73c3c69bb8fe3d512ecc4cf759cc79239f7b179b0ffacaa9a75d522b39400f60208201527f0000000000000000000000000000000000000000000000000000000000000000918101919091527f000000000000000000000000000000000000000000000000000000000000000060608201524660808201523060a082015260009060c00160405160208183030381529060405280519060200120905090565b6000600a546000036110045750600b5490565b600a54600954611034907f0000000000000000000000000000000000000000000000000000000000000000611c22565b61103e9190611c39565b600b546105f89190611b70565b60007f00000000000000000000000000000000000000000000000000000000000000006110788484611bd5565b6110829086611c22565b61108c9190611c39565b949350505050565b6002600854036110b757604051633ee5aeb560e01b815260040160405180910390fd5b6002600855565b6001600160a01b0381166000908152600c602090815260409182902082516060810184528154815260018201549281019290925260020154918101829052600b5490910361110a575050565b61111f81600001518260400151600b5461104b565b816020018181516111309190611b70565b905250600b5460408083019182526001600160a01b039093166000908152600c6020908152939020825181559290910151600183015551600290910155565b6000826001600160a01b03168260405160006040518083038185875af1925050503d80600081146111bc576040519150601f19603f3d011682016040523d82523d6000602084013e6111c1565b606091505b50509050806109c95760405162461bcd60e51b8152602060048201526013602482015272115512081d1c985b9cd9995c8819985a5b1959606a1b60448201526064016107bb565b60606105f87f00000000000000000000000000000000000000000000000000000000000000006005611507565b60606105f87f00000000000000000000000000000000000000000000000000000000000000006006611507565b60008061126d610ff1565b600b5490915081148015906112825760006009555b600b8290556040518281527fee6950fa914047f22a73cfd1d28ca7684f4ab6fd927d35598326a759e3ea6dde9060200160405180910390a150919050565b600061059a6112cd610ec6565b8360405161190160f01b8152600281019290925260228201526042902090565b6000806000806112ff888888886115b2565b92509250925061130f8282611677565b50909695505050505050565b6001600160a01b03841661134557600060405163e602df0560e01b81526004016107bb919061185a565b6001600160a01b03831661136f576000604051634a1406b160e11b81526004016107bb919061185a565b6001600160a01b0380851660009081526001602090815260408083209387168352929052208290558015610e6157826001600160a01b0316846001600160a01b03167f8c5be1e5ebec7d5bd14f71427d1e84f3dd0314c0f7b2291e5b200ac8c7c3b925846040516113e291815260200190565b60405180910390a350505050565b6001600160a01b03831661141b5780600260008282546114109190611b70565b9091555061147a9050565b6001600160a01b0383166000908152602081905260409020548181101561145b5783818360405163391434e360e21b81526004016107bb93929190611c01565b6001600160a01b03841660009081526020819052604090209082900390555b6001600160a01b038216611496576002805482900390556114b5565b6001600160a01b03821660009081526020819052604090208054820190555b816001600160a01b0316836001600160a01b03167fddf252ad1be2c89b69c2b068fc378daa952ba7f163c4a11628f55a4df523b3ef836040516114fa91815260200190565b60405180910390a3505050565b606060ff83146115215761151a83611734565b905061059a565b81805461152d90611b26565b80601f016020809104026020016040519081016040528092919081815260200182805461155990611b26565b80156115a65780601f1061157b576101008083540402835291602001916115a6565b820191906000526020600020905b81548152906001019060200180831161158957829003601f168201915b5050505050905061059a565b600080806fa2a8918ca85bafe22016d0b997e4df60600160ff1b038411156115e3575060009150600390508261166d565b604080516000808252602082018084528a905260ff891692820192909252606081018790526080810186905260019060a0016020604051602081039080840390855afa158015611637573d6000803e3d6000fd5b5050604051601f1901519150506001600160a01b0381166116635750600092506001915082905061166d565b9250600091508190505b9450945094915050565b600082600381111561168b5761168b611c5b565b03611694575050565b60018260038111156116a8576116a8611c5b565b036116c65760405163f645eedf60e01b815260040160405180910390fd5b60028260038111156116da576116da611c5b565b036116fb5760405163fce698f760e01b8152600481018290526024016107bb565b600382600381111561170f5761170f611c5b565b03611730576040516335e2f38360e21b8152600481018290526024016107bb565b5050565b6060600061174183611773565b604080516020808252818301909252919250600091906020820181803683375050509182525060208101929092525090565b600060ff8216601f81111561059a57604051632cd44ac360e21b815260040160405180910390fd5b6000815180845260005b818110156117c1576020818501810151868301820152016117a5565b506000602082860101526020601f19601f83011685010191505092915050565b6020815260006117f4602083018461179b565b9392505050565b80356001600160a01b038116811461181257600080fd5b919050565b6000806040838503121561182a57600080fd5b611833836117fb565b946020939093013593505050565b60006020828403121561185357600080fd5b5035919050565b6001600160a01b0391909116815260200190565b60008060006060848603121561188357600080fd5b61188c846117fb565b925061189a602085016117fb565b9150604084013590509250925092565b6000602082840312156118bc57600080fd5b6117f4826117fb565b60ff60f81b881681526000602060e0818401526118e560e084018a61179b565b83810360408501526118f7818a61179b565b606085018990526001600160a01b038816608086015260a0850187905284810360c0860152855180825283870192509083019060005b818110156119495783518352928401929184019160010161192d565b50909c9b505050505050505050505050565b6000806020838503121561196e57600080fd5b82356001600160401b038082111561198557600080fd5b818501915085601f83011261199957600080fd5b8135818111156119a857600080fd5b8660208260061b85010111156119bd57600080fd5b60209290920196919550909350505050565b6000604082840312156119e157600080fd5b50919050565b600080600080600080600060e0888a031215611a0257600080fd5b611a0b886117fb565b9650611a19602089016117fb565b95506040880135945060608801359350608088013560ff81168114611a3d57600080fd5b9699959850939692959460a0840135945060c09093013592915050565b60008060408385031215611a6d57600080fd5b611a76836117fb565b9150611a84602084016117fb565b90509250929050565b6040808252835182820181905260009190606090818501906020808901865b83811015611ad15781516001600160a01b031685529382019390820190600101611aac565b5050868303818801528751808452888201938201925060005b81811015611b17578451805185528381015184860152870151878501529382019392850192600101611aea565b50919998505050505050505050565b600181811c90821680611b3a57607f821691505b6020821081036119e157634e487b7160e01b600052602260045260246000fd5b634e487b7160e01b600052601160045260246000fd5b8082018082111561059a5761059a611b5a565b634e487b7160e01b600052604160045260246000fd5b6020808252600c908201526b27b7363c902337bab73232b960a11b604082015260600190565b634e487b7160e01b600052603260045260246000fd5b8181038181111561059a5761059a611b5a565b600060018201611bfa57611bfa611b5a565b5060010190565b6001600160a01b039390931683526020830191909152604082015260600190565b808202811582820484141761059a5761059a611b5a565b600082611c5657634e487b7160e01b600052601260045260246000fd5b500490565b634e487b7160e01b600052602160045260246000fdfea26469706673582212206e2ae35c43167616a103730b51f677e39bc619f6296db88bd053fed326cf224264736f6c63430008140033",
  "libraries": {},
  "devdoc": {
    "errors": {
      "ECDSAInvalidSignature()": [
        {
          "details": "The signature derives the `address(0)`."
        }
      ],
      "ECDSAInvalidSignatureLength(uint256)": [
        {
          "details": "The signature has an invalid length."
        }
      ],
      "ECDSAInvalidSignatureS(bytes32)": [
        {
          "details": "The signature has an S value that is in the upper half order."
        }
      ],
      "ERC20InsufficientAllowance(address,uint256,uint256)": [
        {
          "details": "Indicates a failure with the `spender`s `allowance`. Used in transfers.",
          "params": {
            "allowance": "Amount of tokens a `spender` is allowed to operate with.",
            "needed": "Minimum amount required to perform a transfer.",
            "spender": "Address that may be allowed to operate on tokens without being their owner."
          }
        }
      ],
      "ERC20InsufficientBalance(address,uint256,uint256)": [
        {
          "details": "Indicates an error related to the current `balance` of a `sender`. Used in transfers.",
          "params": {
            "balance": "Current balance for the interacting account.",
            "needed": "Minimum amount required to perform a transfer.",
            "sender": "Address whose tokens are being transferred."
          }
        }
      ],
      "ERC20InvalidApprover(address)": [
        {
          "details": "Indicates a failure with the `approver` of a token to be approved. Used in approvals.",
          "params": {
            "approver": "Address initiating an approval operation."
          }
        }
      ],
      "ERC20InvalidReceiver(address)": [
        {
          "details": "Indicates a failure with the token `receiver`. Used in transfers.",
          "params": {
            "receiver": "Address to which tokens are being transferred."
          }
        }
      ],
      "ERC20InvalidSender(address)": [
        {
          "details": "Indicates a failure with the token `sender`. Used in transfers.",
          "params": {
            "sender": "Address whose tokens are being transferred."
          }
        }
      ],
      "ERC20InvalidSpender(address)": [
        {
          "details": "Indicates a failure with the `spender` to be approved. Used in approvals.",
          "params": {
            "spender": "Address that may be allowed to operate on tokens without being their owner."
          }
        }
      ],
      "ERC2612ExpiredSignature(uint256)": [
        {
          "details": "Permit deadline has expired."
        }
      ],
      "ERC2612InvalidSigner(address,address)": [
        {
          "details": "Mismatched signature."
        }
      ],
      "InvalidAccountNonce(address,uint256)": [
        {
          "details": "The nonce used for an `account` is not the expected current nonce."
        }
      ],
      "ReentrancyGuardReentrantCall()": [
        {
          "details": "Unauthorized reentrant call."
        }
      ]
    },
    "events": {
      "Approval(address,address,uint256)": {
        "details": "Emitted when the allowance of a `spender` for an `owner` is set by a call to {approve}. `value` is the new allowance."
      },
      "EIP712DomainChanged()": {
        "details": "MAY be emitted to signal that the domain could have changed."
      },
      "Transfer(address,address,uint256)": {
        "details": "Emitted when `value` tokens are moved from one account (`from`) to another (`to`). Note that `value` may be zero."
      }
    },
    "kind": "dev",
    "methods": {
      "DOMAIN_SEPARATOR()": {
        "details": "Returns the domain separator used in the encoding of the signature for {permit}, as defined by {EIP712}."
      },
      "allowance(address,address)": {
        "details": "See {IERC20-allowance}."
      },
      "approve(address,uint256)": {
        "details": "See {IERC20-approve}. NOTE: If `value` is the maximum `uint256`, the allowance is not updated on `transferFrom`. This is semantically equivalent to an infinite approval. Requirements: - `spender` cannot be the zero address."
      },
      "balanceOf(address)": {
        "details": "See {IERC20-balanceOf}."
      },
      "decimals()": {
        "details": "Returns the number of decimals used to get its user representation. For example, if `decimals` equals `2`, a balance of `505` tokens should be displayed to a user as `5.05` (`505 / 10 ** 2`). Tokens usually opt for a value of 18, imitating the relationship between Ether and Wei. This is the default value returned by this function, unless it's overridden. NOTE: This information is only used for _display_ purposes: it in no way affects any of the arithmetic of the contract, including {IERC20-balanceOf} and {IERC20-transfer}."
      },
      "eip712Domain()": {
        "details": "See {IERC-5267}."
      },
      "name()": {
        "details": "Returns the name of the token."
      },
      "nonces(address)": {
        "details": "Returns the current nonce for `owner`. This value must be included whenever a signature is generated for {permit}. Every successful call to {permit} increases ``owner``'s nonce by one. This prevents a signature from being used multiple times."
      },
      "permit(address,address,uint256,uint256,uint8,bytes32,bytes32)": {
        "details": "Sets `value` as the allowance of `spender` over ``owner``'s tokens, given ``owner``'s signed approval. IMPORTANT: The same issues {IERC20-approve} has related to transaction ordering also apply here. Emits an {Approval} event. Requirements: - `spender` cannot be the zero address. - `deadline` must be a timestamp in the future. - `v`, `r` and `s` must be a valid `secp256k1` signature from `owner` over the EIP712-formatted function arguments. - the signature must use ``owner``'s current nonce (see {nonces}). For more information on the signature format, see the https://eips.ethereum.org/EIPS/eip-2612#specification[relevant EIP section]. CAUTION: See Security Considerations above."
      },
      "symbol()": {
        "details": "Returns the symbol of the token, usually a shorter version of the name."
      },
      "totalSupply()": {
        "details": "See {IERC20-totalSupply}."
      },
      "transfer(address,uint256)": {
        "details": "See {IERC20-transfer}. Requirements: - `to` cannot be the zero address. - the caller must have a balance of at least `value`."
      },
      "transferFrom(address,address,uint256)": {
        "details": "See {IERC20-transferFrom}. Emits an {Approval} event indicating the updated allowance. This is not required by the EIP. See the note at the beginning of {ERC20}. NOTE: Does not update the allowance if the current allowance is the maximum `uint256`. Requirements: - `from` and `to` cannot be the zero address. - `from` must have a balance of at least `value`. - the caller must have allowance for ``from``'s tokens of at least `value`."
      }
    },
    "version": 1
  },
  "userdoc": {
    "kind": "user",
    "methods": {},
    "version": 1
  },
  "storageLayout": {
    "storage": [
      {
        "astId": 1817,
        "contract": "contracts/space/Share.sol:Share",
        "label": "_balances",
        "offset": 0,
        "slot": "0",
        "type": "t_mapping(t_address,t_uint256)"
      },
      {
        "astId": 1823,
        "contract": "contracts/space/Share.sol:Share",
        "label": "_allowances",
        "offset": 0,
        "slot": "1",
        "type": "t_mapping(t_address,t_mapping(t_address,t_uint256))"
      },
      {
        "astId": 1825,
        "contract": "contracts/space/Share.sol:Share",
        "label": "_totalSupply",
        "offset": 0,
        "slot": "2",
        "type": "t_uint256"
      },
      {
        "astId": 1827,
        "contract": "contracts/space/Share.sol:Share",
        "label": "_name",
        "offset": 0,
        "slot": "3",
        "type": "t_string_storage"
      },
      {
        "astId": 1829,
        "contract": "contracts/space/Share.sol:Share",
        "label": "_symbol",
        "offset": 0,
        "slot": "4",
        "type": "t_string_storage"
      },
      {
        "astId": 4463,
        "contract": "contracts/space/Share.sol:Share",
        "label": "_nameFallback",
        "offset": 0,
        "slot": "5",
        "type": "t_string_storage"
      },
      {
        "astId": 4465,
        "contract": "contracts/space/Share.sol:Share",
        "label": "_versionFallback",
        "offset": 0,
        "slot": "6",
        "type": "t_string_storage"
      },
      {
        "astId": 3373,
        "contract": "contracts/space/Share.sol:Share",
        "label": "_nonces",
        "offset": 0,
        "slot": "7",
        "type": "t_mapping(t_address,t_uint256)"
      },
      {
        "astId": 3438,
        "contract": "contracts/space/Share.sol:Share",
        "label": "_status",
        "offset": 0,
        "slot": "8",
        "type": "t_uint256"
      },
      {
        "astId": 8103,
        "contract": "contracts/space/Share.sol:Share",
        "label": "daoFees",
        "offset": 0,
        "slot": "9",
        "type": "t_uint256"
      },
      {
        "astId": 8105,
        "contract": "contracts/space/Share.sol:Share",
        "label": "totalShare",
        "offset": 0,
        "slot": "10",
        "type": "t_uint256"
      },
      {
        "astId": 8108,
        "contract": "contracts/space/Share.sol:Share",
        "label": "accumulatedRewardsPerShare",
        "offset": 0,
        "slot": "11",
        "type": "t_uint256"
      },
      {
        "astId": 8113,
        "contract": "contracts/space/Share.sol:Share",
        "label": "collaborators",
        "offset": 0,
        "slot": "12",
        "type": "t_mapping(t_address,t_struct(Collaborator)8128_storage)"
      },
      {
        "astId": 8116,
        "contract": "contracts/space/Share.sol:Share",
        "label": "collaboratorAddresses",
        "offset": 0,
        "slot": "13",
        "type": "t_array(t_address)dyn_storage"
      }
    ],
    "types": {
      "t_address": {
        "encoding": "inplace",
        "label": "address",
        "numberOfBytes": "20"
      },
      "t_array(t_address)dyn_storage": {
        "base": "t_address",
        "encoding": "dynamic_array",
        "label": "address[]",
        "numberOfBytes": "32"
      },
      "t_mapping(t_address,t_mapping(t_address,t_uint256))": {
        "encoding": "mapping",
        "key": "t_address",
        "label": "mapping(address => mapping(address => uint256))",
        "numberOfBytes": "32",
        "value": "t_mapping(t_address,t_uint256)"
      },
      "t_mapping(t_address,t_struct(Collaborator)8128_storage)": {
        "encoding": "mapping",
        "key": "t_address",
        "label": "mapping(address => struct Share.Collaborator)",
        "numberOfBytes": "32",
        "value": "t_struct(Collaborator)8128_storage"
      },
      "t_mapping(t_address,t_uint256)": {
        "encoding": "mapping",
        "key": "t_address",
        "label": "mapping(address => uint256)",
        "numberOfBytes": "32",
        "value": "t_uint256"
      },
      "t_string_storage": {
        "encoding": "bytes",
        "label": "string",
        "numberOfBytes": "32"
      },
      "t_struct(Collaborator)8128_storage": {
        "encoding": "inplace",
        "label": "struct Share.Collaborator",
        "members": [
          {
            "astId": 8123,
            "contract": "contracts/space/Share.sol:Share",
            "label": "share",
            "offset": 0,
            "slot": "0",
            "type": "t_uint256"
          },
          {
            "astId": 8125,
            "contract": "contracts/space/Share.sol:Share",
            "label": "rewards",
            "offset": 0,
            "slot": "1",
            "type": "t_uint256"
          },
          {
            "astId": 8127,
            "contract": "contracts/space/Share.sol:Share",
            "label": "checkpoint",
            "offset": 0,
            "slot": "2",
            "type": "t_uint256"
          }
        ],
        "numberOfBytes": "96"
      },
      "t_uint256": {
        "encoding": "inplace",
        "label": "uint256",
        "numberOfBytes": "32"
      }
    }
  }
}