{
  "address": "0xF5a030b321aE2773F6BBa147ACbaaB0D1871511B",
  "abi": [
    {
      "anonymous": false,
      "inputs": [
        {
          "indexed": false,
          "internalType": "address",
          "name": "user",
          "type": "address"
        },
        {
          "indexed": false,
          "internalType": "uint256",
          "name": "amount",
          "type": "uint256"
        }
      ],
      "name": "Claimed",
      "type": "event"
    },
    {
      "anonymous": false,
      "inputs": [
        {
          "indexed": false,
          "internalType": "uint256",
          "name": "accumulated",
          "type": "uint256"
        }
      ],
      "name": "RewardsPerShareUpdated",
      "type": "event"
    },
    {
      "inputs": [],
      "name": "PER_SHARE_PRECISION",
      "outputs": [
        {
          "internalType": "uint256",
          "name": "",
          "type": "uint256"
        }
      ],
      "stateMutability": "view",
      "type": "function"
    }
  ],
  "transactionHash": "0x399680525a45a04add68b7e2b756e3df9b321d1ef7a4ad6b68859b0ee2d29f6a",
  "args": [],
  "numDeployments": 2,
  "solcInputHash": "fd64fbbe13b75e2918153982320f53c0",
  "bytecode": "0x610b8261003a600b82828239805160001a60731461002d57634e487b7160e01b600052600060045260246000fd5b30600052607381538281f3fe73000000000000000000000000000000000000000030146080604052600436106100875760003560e01c806333719aaa1161006557806333719aaa1461010157806377e7a4e7146101105780639078620a14610130578063ed6de0601461015057600080fd5b806302b76a4e1461008c5780632137f0ba146100ae5780632ce9a45f146100e1575b600080fd5b81801561009857600080fd5b506100ac6100a7366004610900565b610163565b005b8180156100ba57600080fd5b506100ce6100c9366004610938565b61024f565b6040519081526020015b60405180910390f35b8180156100ed57600080fd5b506100ac6100fc366004610938565b6102db565b6100ce670de0b6b3a764000081565b61012361011e366004610938565b6102e8565b6040516100d89190610951565b81801561013c57600080fd5b506100ac61014b3660046109a9565b610429565b6100ce61015e366004610a44565b610646565b61016c826106bf565b506040518060600160405280826020013581526020016000815260200160008152508260030160008360000160208101906101a79190610a70565b6001600160a01b0316815260208082019290925260409081016000208351815583830151600182015592015160029092019190915560048301906101ed90830183610a70565b81546001808201845560009384526020808520909201805473ffffffffffffffffffffffffffffffffffffffff19166001600160a01b039490941693909317909255908401805491840135929091610246908490610aa8565b90915550505050565b60003361025b836106bf565b506102668382610722565b6001600160a01b03811660009081526003840160205260408120600101805491905561029282826107df565b604080516001600160a01b0384168152602081018390527fd8138f8a3f377c5259ca548e70e4c2de94f129f5a11036a15b69513cba2b426a910160405180910390a19392505050565b6102e4816106bf565b5050565b600481015460609060009067ffffffffffffffff81111561030b5761030b610abb565b60405190808252806020026020018201604052801561035057816020015b60408051808201909152600080825260208201528152602001906001900390816103295790505b50905060005b600484015481101561042257604051806040016040528085600401838154811061038257610382610ad1565b9060005260206000200160009054906101000a90046001600160a01b03166001600160a01b031681526020018560030160008760040185815481106103c9576103c9610ad1565b60009182526020808320909101546001600160a01b031683528201929092526040019020549052825183908390811061040457610404610ad1565b6020026020010181905250808061041a90610ae7565b915050610356565b5092915050565b610432836106bf565b5060005b8181101561064057600083838381811061045257610452610ad1565b6104689260206040909202019081019150610a70565b9050600084848481811061047e5761047e610ad1565b90506040020160200135905060006001600160a01b0316826001600160a01b0316036104f15760405162461bcd60e51b815260206004820152600f60248201527f496e76616c69642061646472657373000000000000000000000000000000000060448201526064015b60405180910390fd5b600081116105415760405162461bcd60e51b815260206004820152601660248201527f5368617265206d75737420626520706f7369746976650000000000000000000060448201526064016104e8565b6001600160a01b038216600090815260038701602052604081205490036105de5760408051606081018252600080825260208083018281528385018381526001600160a01b03881680855260038d018452958420945185559051600180860191909155905160029094019390935560048a01805493840181558252902001805473ffffffffffffffffffffffffffffffffffffffff191690911790555b6105e88683610722565b6001600160a01b0382166000908152600387016020526040812082905581906106118383610b00565b8860010160008282546106249190610b00565b909155505050505050808061063890610ae7565b915050610436565b50505050565b6001600160a01b0381166000908152600383016020908152604080832081516060810183528154815260018201549381019390935260020154908201528161068d85610887565b905060006106a483600001518460400151846108cf565b83602001516106b39190610aa8565b93505050505b92915050565b6000806106cb83610887565b600284015490915081148015906106e157600084555b600284018290556040518281527fee6950fa914047f22a73cfd1d28ca7684f4ab6fd927d35598326a759e3ea6dde9060200160405180910390a15092915050565b6001600160a01b038116600090815260038301602090815260409182902082516060810184528154815260018201549281019290925260029081015492820183905284015490910361077357505050565b61078a8160000151826040015185600201546108cf565b8160200181815161079b9190610aa8565b90525060028084015460408084019182526001600160a01b039094166000908152600390950160209081529390942082518155929091015160018301559151910155565b6000826001600160a01b03168260405160006040518083038185875af1925050503d806000811461082c576040519150601f19603f3d011682016040523d82523d6000602084013e610831565b606091505b50509050806108825760405162461bcd60e51b815260206004820152601360248201527f455448207472616e73666572206661696c65640000000000000000000000000060448201526064016104e8565b505050565b6000816001015460000361089d57506002015490565b600182015482546108b690670de0b6b3a7640000610b13565b6108c09190610b2a565b82600201546106b99190610aa8565b6000670de0b6b3a76400006108e48484610b00565b6108ee9086610b13565b6108f89190610b2a565b949350505050565b600080828403606081121561091457600080fd5b833592506040601f198201121561092a57600080fd5b506020830190509250929050565b60006020828403121561094a57600080fd5b5035919050565b602080825282518282018190526000919060409081850190868401855b8281101561099c57815180516001600160a01b0316855286015186850152928401929085019060010161096e565b5091979650505050505050565b6000806000604084860312156109be57600080fd5b83359250602084013567ffffffffffffffff808211156109dd57600080fd5b818601915086601f8301126109f157600080fd5b813581811115610a0057600080fd5b8760208260061b8501011115610a1557600080fd5b6020830194508093505050509250925092565b80356001600160a01b0381168114610a3f57600080fd5b919050565b60008060408385031215610a5757600080fd5b82359150610a6760208401610a28565b90509250929050565b600060208284031215610a8257600080fd5b610a8b82610a28565b9392505050565b634e487b7160e01b600052601160045260246000fd5b808201808211156106b9576106b9610a92565b634e487b7160e01b600052604160045260246000fd5b634e487b7160e01b600052603260045260246000fd5b600060018201610af957610af9610a92565b5060010190565b818103818111156106b9576106b9610a92565b80820281158282048414176106b9576106b9610a92565b600082610b4757634e487b7160e01b600052601260045260246000fd5b50049056fea26469706673582212202cac64230c9006c7ff462dedf5a9114c685705257bee8809c5f8479d712b2f5464736f6c63430008140033",
  "libraries": {},
  "devdoc": {
    "kind": "dev",
    "methods": {},
    "version": 1
  },
  "userdoc": {
    "kind": "user",
    "methods": {},
    "version": 1
  },
  "storageLayout": {
    "storage": [],
    "types": null
  }
}