{
  "address": "0x8552A770AC8bc2452808BeE9fA2DC3a89C1a6fEE",
  "abi": [
    {
      "inputs": [
        {
          "internalType": "address",
          "name": "initialOwner",
          "type": "address"
        },
        {
          "internalType": "address",
          "name": "_indieX",
          "type": "address"
        }
      ],
      "stateMutability": "nonpayable",
      "type": "constructor"
    },
    {
      "inputs": [
        {
          "internalType": "address",
          "name": "owner",
          "type": "address"
        }
      ],
      "name": "OwnableInvalidOwner",
      "type": "error"
    },
    {
      "inputs": [
        {
          "internalType": "address",
          "name": "account",
          "type": "address"
        }
      ],
      "name": "OwnableUnauthorizedAccount",
      "type": "error"
    },
    {
      "anonymous": false,
      "inputs": [
        {
          "indexed": false,
          "internalType": "uint256",
          "name": "spaceId",
          "type": "uint256"
        },
        {
          "indexed": true,
          "internalType": "address",
          "name": "spaceAddress",
          "type": "address"
        },
        {
          "indexed": false,
          "internalType": "address",
          "name": "creator",
          "type": "address"
        },
        {
          "indexed": false,
          "internalType": "string",
          "name": "spaceName",
          "type": "string"
        },
        {
          "indexed": false,
          "internalType": "string",
          "name": "symbol",
          "type": "string"
        }
      ],
      "name": "Create",
      "type": "event"
    },
    {
      "anonymous": false,
      "inputs": [
        {
          "indexed": true,
          "internalType": "address",
          "name": "previousOwner",
          "type": "address"
        },
        {
          "indexed": true,
          "internalType": "address",
          "name": "newOwner",
          "type": "address"
        }
      ],
      "name": "OwnershipTransferred",
      "type": "event"
    },
    {
      "inputs": [
        {
          "internalType": "string",
          "name": "spaceName",
          "type": "string"
        },
        {
          "internalType": "string",
          "name": "symbol",
          "type": "string"
        },
        {
          "components": [
            {
              "internalType": "uint256",
              "name": "appId",
              "type": "uint256"
            },
            {
              "internalType": "string",
              "name": "uri",
              "type": "string"
            },
            {
              "internalType": "uint256",
              "name": "curatorFeePercent",
              "type": "uint256"
            },
            {
              "components": [
                {
                  "internalType": "uint96",
                  "name": "basePrice",
                  "type": "uint96"
                },
                {
                  "internalType": "uint32",
                  "name": "inflectionPoint",
                  "type": "uint32"
                },
                {
                  "internalType": "uint128",
                  "name": "inflectionPrice",
                  "type": "uint128"
                },
                {
                  "internalType": "uint128",
                  "name": "linearPriceSlope",
                  "type": "uint128"
                }
              ],
              "internalType": "struct IIndieX.Curve",
              "name": "curve",
              "type": "tuple"
            },
            {
              "internalType": "uint8",
              "name": "farmer",
              "type": "uint8"
            },
            {
              "internalType": "bool",
              "name": "isFarming",
              "type": "bool"
            }
          ],
          "internalType": "struct IIndieX.NewCreationInput",
          "name": "creationInput",
          "type": "tuple"
        },
        {
          "components": [
            {
              "internalType": "uint256",
              "name": "appId",
              "type": "uint256"
            },
            {
              "internalType": "string",
              "name": "uri",
              "type": "string"
            },
            {
              "internalType": "uint256",
              "name": "curatorFeePercent",
              "type": "uint256"
            },
            {
              "components": [
                {
                  "internalType": "uint96",
                  "name": "basePrice",
                  "type": "uint96"
                },
                {
                  "internalType": "uint32",
                  "name": "inflectionPoint",
                  "type": "uint32"
                },
                {
                  "internalType": "uint128",
                  "name": "inflectionPrice",
                  "type": "uint128"
                },
                {
                  "internalType": "uint128",
                  "name": "linearPriceSlope",
                  "type": "uint128"
                }
              ],
              "internalType": "struct IIndieX.Curve",
              "name": "curve",
              "type": "tuple"
            },
            {
              "internalType": "uint8",
              "name": "farmer",
              "type": "uint8"
            },
            {
              "internalType": "bool",
              "name": "isFarming",
              "type": "bool"
            }
          ],
          "internalType": "struct IIndieX.NewCreationInput",
          "name": "sponsorCreationInput",
          "type": "tuple"
        }
      ],
      "name": "create",
      "outputs": [],
      "stateMutability": "nonpayable",
      "type": "function"
    },
    {
      "inputs": [
        {
          "internalType": "address",
          "name": "user",
          "type": "address"
        }
      ],
      "name": "getUserLatestSpace",
      "outputs": [
        {
          "components": [
            {
              "internalType": "string",
              "name": "name",
              "type": "string"
            },
            {
              "internalType": "string",
              "name": "symbol",
              "type": "string"
            },
            {
              "internalType": "address",
              "name": "token",
              "type": "address"
            },
            {
              "internalType": "address",
              "name": "stakingRewards",
              "type": "address"
            },
            {
              "internalType": "uint256",
              "name": "creationId",
              "type": "uint256"
            },
            {
              "internalType": "uint256",
              "name": "sponsorCreationId",
              "type": "uint256"
            }
          ],
          "internalType": "struct Space.SpaceInfo",
          "name": "info",
          "type": "tuple"
        }
      ],
      "stateMutability": "view",
      "type": "function"
    },
    {
      "inputs": [
        {
          "internalType": "address",
          "name": "user",
          "type": "address"
        }
      ],
      "name": "getUserSpaces",
      "outputs": [
        {
          "internalType": "address[]",
          "name": "",
          "type": "address[]"
        }
      ],
      "stateMutability": "view",
      "type": "function"
    },
    {
      "inputs": [],
      "name": "indieX",
      "outputs": [
        {
          "internalType": "address",
          "name": "",
          "type": "address"
        }
      ],
      "stateMutability": "view",
      "type": "function"
    },
    {
      "inputs": [],
      "name": "owner",
      "outputs": [
        {
          "internalType": "address",
          "name": "",
          "type": "address"
        }
      ],
      "stateMutability": "view",
      "type": "function"
    },
    {
      "inputs": [],
      "name": "renounceOwnership",
      "outputs": [],
      "stateMutability": "nonpayable",
      "type": "function"
    },
    {
      "inputs": [],
      "name": "spaceIndex",
      "outputs": [
        {
          "internalType": "uint256",
          "name": "",
          "type": "uint256"
        }
      ],
      "stateMutability": "view",
      "type": "function"
    },
    {
      "inputs": [
        {
          "internalType": "uint256",
          "name": "",
          "type": "uint256"
        }
      ],
      "name": "spaces",
      "outputs": [
        {
          "internalType": "address",
          "name": "",
          "type": "address"
        }
      ],
      "stateMutability": "view",
      "type": "function"
    },
    {
      "inputs": [
        {
          "internalType": "address",
          "name": "newOwner",
          "type": "address"
        }
      ],
      "name": "transferOwnership",
      "outputs": [],
      "stateMutability": "nonpayable",
      "type": "function"
    },
    {
      "inputs": [
        {
          "internalType": "address",
          "name": "",
          "type": "address"
        },
        {
          "internalType": "uint256",
          "name": "",
          "type": "uint256"
        }
      ],
      "name": "userSpaces",
      "outputs": [
        {
          "internalType": "address",
          "name": "",
          "type": "address"
        }
      ],
      "stateMutability": "view",
      "type": "function"
    }
  ],
  "transactionHash": "0xff54fefffe2218f6ed22e73cb02a1a036249332612ee817120dcd4e9a05734f4",
  "args": [
    "0x45aBBC64421a54CbffF878985AE6c4F0cfacfDb7",
    "0x3a2eC87Ad66abFD9ca411d2A69D3356CD09c72bd"
  ],
  "numDeployments": 5,
  "solcInputHash": "c3a8e23096f1ebd8aa915274577661e3",
  "bytecode": "0x60a0604052600060015534801561001557600080fd5b5060405162005ba538038062005ba5833981016040819052610036916100ed565b816001600160a01b03811661006557604051631e4fbdf760e01b81526000600482015260240160405180910390fd5b61006e81610081565b506001600160a01b031660805250610120565b600080546001600160a01b038381166001600160a01b0319831681178455604051919092169283917f8be0079c531659141344cd1fd0a4f28419497f9722a3daafe3b4186f6b6457e09190a35050565b80516001600160a01b03811681146100e857600080fd5b919050565b6000806040838503121561010057600080fd5b610109836100d1565b9150610117602084016100d1565b90509250929050565b608051615a626200014360003960008181610153015261026b0152615a626000f3fe608060405234801561001057600080fd5b50600436106100be5760003560e01c8063c1be6ef311610076578063db80043c1161005b578063db80043c14610195578063e9be46fe146101b5578063f2fde38b146101c857600080fd5b8063c1be6ef31461014e578063da02099e1461017557600080fd5b80637586353b116100a75780637586353b146100e95780638da5cb5b1461012a578063a4f1f45f1461013b57600080fd5b80634eb68762146100c3578063715018a6146100df575b600080fd5b6100cc60015481565b6040519081526020015b60405180910390f35b6100e76101db565b005b6101126100f73660046106b2565b6002602052600090815260409020546001600160a01b031681565b6040516001600160a01b0390911681526020016100d6565b6000546001600160a01b0316610112565b6100e7610149366004610727565b6101ef565b6101127f000000000000000000000000000000000000000000000000000000000000000081565b6101886101833660046107f3565b610397565b6040516100d69190610817565b6101a86101a33660046107f3565b61040d565b6040516100d691906108b4565b6101126101c3366004610931565b61056e565b6100e76101d63660046107f3565b6105a6565b6101e3610602565b6101ed6000610648565b565b6000336040516101fe906106a5565b6001600160a01b039091168152602001604051809103906000f08015801561022a573d6000803e3d6000fd5b506040517fa21cc9250000000000000000000000000000000000000000000000000000000081529091506001600160a01b0382169063a21cc9259061029f907f0000000000000000000000000000000000000000000000000000000000000000908b908b908b908b908b908b90600401610af6565b600060405180830381600087803b1580156102b957600080fd5b505af11580156102cd573d6000803e3d6000fd5b505060018054600090815260026020908152604080832080546001600160a01b03891673ffffffffffffffffffffffffffffffffffffffff1991821681179092553380865260038552838620805480890182559087529490952090930180549093168117909255925492519094507f4e9124cfa456690cd56bf3d36fe58f11cafd4e3faf6b2748e8eabe68e08a337093506103719291908c908c908c908c90610b62565b60405180910390a26001805490600061038983610bc1565b919050555050505050505050565b6001600160a01b03811660009081526003602090815260409182902080548351818402810184019094528084526060939283018282801561040157602002820191906000526020600020905b81546001600160a01b031681526001909101906020018083116103e3575b50505050509050919050565b6104586040518060c00160405280606081526020016060815260200160006001600160a01b0316815260200160006001600160a01b0316815260200160008152602001600081525090565b6001600160a01b0382166000908152600360209081526040808320805482518185028101850190935280835291929091908301828280156104c257602002820191906000526020600020905b81546001600160a01b031681526001909101906020018083116104a4575b5050505050905060008151111561056857600081600183516104e49190610bda565b815181106104f4576104f4610bf3565b60200260200101519050806001600160a01b0316635a9b0b896040518163ffffffff1660e01b8152600401600060405180830381865afa15801561053c573d6000803e3d6000fd5b505050506040513d6000823e601f3d908101601f191682016040526105649190810190610cdb565b9250505b50919050565b6003602052816000526040600020818154811061058a57600080fd5b6000918252602090912001546001600160a01b03169150829050565b6105ae610602565b6001600160a01b0381166105f6576040517f1e4fbdf7000000000000000000000000000000000000000000000000000000008152600060048201526024015b60405180910390fd5b6105ff81610648565b50565b6000546001600160a01b031633146101ed576040517f118cdaa70000000000000000000000000000000000000000000000000000000081523360048201526024016105ed565b600080546001600160a01b0383811673ffffffffffffffffffffffffffffffffffffffff19831681178455604051919092169283917f8be0079c531659141344cd1fd0a4f28419497f9722a3daafe3b4186f6b6457e09190a35050565b614c8780610da683390190565b6000602082840312156106c457600080fd5b5035919050565b60008083601f8401126106dd57600080fd5b50813567ffffffffffffffff8111156106f557600080fd5b60208301915083602082850101111561070d57600080fd5b9250929050565b6000610120828403121561056857600080fd5b6000806000806000806080878903121561074057600080fd5b863567ffffffffffffffff8082111561075857600080fd5b6107648a838b016106cb565b9098509650602089013591508082111561077d57600080fd5b6107898a838b016106cb565b909650945060408901359150808211156107a257600080fd5b6107ae8a838b01610714565b935060608901359150808211156107c457600080fd5b506107d189828a01610714565b9150509295509295509295565b6001600160a01b03811681146105ff57600080fd5b60006020828403121561080557600080fd5b8135610810816107de565b9392505050565b6020808252825182820181905260009190848201906040850190845b818110156108585783516001600160a01b031683529284019291840191600101610833565b50909695505050505050565b60005b8381101561087f578181015183820152602001610867565b50506000910152565b600081518084526108a0816020860160208601610864565b601f01601f19169290920160200192915050565b602081526000825160c060208401526108d060e0840182610888565b90506020840151601f198483030160408501526108ed8282610888565b91505060408401516001600160a01b0380821660608601528060608701511660808601525050608084015160a084015260a084015160c08401528091505092915050565b6000806040838503121561094457600080fd5b823561094f816107de565b946020939093013593505050565b81835281816020850137506000828201602090810191909152601f909101601f19169091010190565b80356fffffffffffffffffffffffffffffffff811681146109a657600080fd5b919050565b80356bffffffffffffffffffffffff81168082146109c857600080fd5b835250602081013563ffffffff81168082146109e357600080fd5b6020840152506109f560408201610986565b6fffffffffffffffffffffffffffffffff808216604085015280610a1b60608501610986565b16606085015250505050565b803560ff811681146109a657600080fd5b803580151581146109a657600080fd5b6000610120823584526020830135601e19843603018112610a6857600080fd5b830160208101903567ffffffffffffffff811115610a8557600080fd5b803603821315610a9457600080fd5b826020870152610aa7838701828461095d565b9250505060408301356040850152610ac560608501606085016109ab565b610ad160e08401610a27565b60ff1660e0850152610100610ae7848201610a38565b15159401939093525090919050565b6001600160a01b038816815260a060208201526000610b1960a08301888a61095d565b8281036040840152610b2c81878961095d565b90508281036060840152610b408186610a48565b90508281036080840152610b548185610a48565b9a9950505050505050505050565b8681526001600160a01b0386166020820152608060408201526000610b8b60808301868861095d565b8281036060840152610b9e81858761095d565b9998505050505050505050565b634e487b7160e01b600052601160045260246000fd5b600060018201610bd357610bd3610bab565b5060010190565b81810381811115610bed57610bed610bab565b92915050565b634e487b7160e01b600052603260045260246000fd5b634e487b7160e01b600052604160045260246000fd5b60405160c0810167ffffffffffffffff81118282101715610c4257610c42610c09565b60405290565b600082601f830112610c5957600080fd5b815167ffffffffffffffff80821115610c7457610c74610c09565b604051601f8301601f19908116603f01168101908282118183101715610c9c57610c9c610c09565b81604052838152866020858801011115610cb557600080fd5b610cc6846020830160208901610864565b9695505050505050565b80516109a6816107de565b600060208284031215610ced57600080fd5b815167ffffffffffffffff80821115610d0557600080fd5b9083019060c08286031215610d1957600080fd5b610d21610c1f565b825182811115610d3057600080fd5b610d3c87828601610c48565b825250602083015182811115610d5157600080fd5b610d5d87828601610c48565b602083015250610d6f60408401610cd0565b6040820152610d8060608401610cd0565b60608201526080830151608082015260a083015160a08201528093505050509291505056fe60c0604052670de0b6b3a76400006080908152506706f05b59d3b20000600755600060085560006009556000600a556000600c5534801561003f57600080fd5b5060405162004c8738038062004c8783398101604081905261006091610076565b60016000556001600160a01b031660a0526100a6565b60006020828403121561008857600080fd5b81516001600160a01b038116811461009f57600080fd5b9392505050565b60805160a051614b83620001046000396000818161036d01528181610aa001528181610b1d01528181610d8c01528181610f9d01528181610fef0152611053015260008181610312015281816110b001526110f90152614b836000f3fe6080604052600436106200018b5760003560e01c8063874d218511620000db578063babd83731162000083578063e4fc6b6d116200005d578063e4fc6b6d14620005a5578063eabb178b14620005bd578063f23a6e6114620005d557005b8063babd83731462000512578063bc197c81146200052a578063d1fbb024146200058d57005b8063a21cc92511620000b5578063a21cc9251462000479578063a5a57fef146200049e578063b9f13be014620004b657005b8063874d2185146200041757806395d89b41146200043c5780639ec706aa146200045457005b80633d52b8ce116200013f5780635a9b0b8911620001195780635a9b0b8914620003c05780636dca7e7b14620003e757806370a1239314620003ff57005b80633d52b8ce14620003345780634d853ee514620003595780634e71d92d14620003a857005b8063061960aa1162000171578063061960aa14620002bf57806306fdde0314620002d757806333719aaa14620002fe57005b806301ffc9a7146200025e578063026c4207146200029857005b366200025c576007543490600090670de0b6b3a764000090620001af9084620012d1565b620001bb9190620012eb565b90506000620001cb82846200130e565b905081600a6000828254620001e1919062001324565b925050819055508060096000828254620001fc919062001324565b909155505060045462000219906001600160a01b0316826200061e565b60408051338152602081018490529081018290527f74cf3d18d0ddca79038197ad0dd2c7fa5005ef61a5d1ed190e8a8a437e2fcf109060600160405180910390a1005b005b3480156200026b57600080fd5b50620002836200027d3660046200133a565b620006ce565b60405190151581526020015b60405180910390f35b348015620002a557600080fd5b50620002b0600b5481565b6040519081526020016200028f565b348015620002cc57600080fd5b50620002b0600c5481565b348015620002e457600080fd5b50620002ef62000738565b6040516200028f9190620013b5565b3480156200030b57600080fd5b50620002b07f000000000000000000000000000000000000000000000000000000000000000081565b3480156200034157600080fd5b50620002b062000353366004620013e7565b620007ce565b3480156200036657600080fd5b506200038f7f000000000000000000000000000000000000000000000000000000000000000081565b6040516001600160a01b0390911681526020016200028f565b348015620003b557600080fd5b50620002b062000847565b348015620003cd57600080fd5b50620003d8620008de565b6040516200028f919062001405565b348015620003f457600080fd5b50620002b060095481565b3480156200040c57600080fd5b50620002b0600a5481565b3480156200042457600080fd5b506200025c6200043636600462001486565b62000a95565b3480156200044957600080fd5b50620002ef62000b03565b3480156200046157600080fd5b506200025c62000473366004620014a0565b62000b12565b3480156200048657600080fd5b506200025c62000498366004620017d9565b62000d68565b348015620004ab57600080fd5b50620002b060065481565b348015620004c357600080fd5b50620004f6620004d5366004620013e7565b600d6020526000908152604090208054600182015460029092015490919083565b604080519384526020840192909252908201526060016200028f565b3480156200051f57600080fd5b50620002b060075481565b3480156200053757600080fd5b5062000573620005493660046200195d565b7fbc197c810000000000000000000000000000000000000000000000000000000095945050505050565b6040516001600160e01b031990911681526020016200028f565b3480156200059a57600080fd5b506200025c62000fe4565b348015620005b257600080fd5b506200025c62001082565b348015620005ca57600080fd5b50620002b060055481565b348015620005e257600080fd5b5062000573620005f436600462001a15565b7ff23a6e610000000000000000000000000000000000000000000000000000000095945050505050565b6000826001600160a01b03168260405160006040518083038185875af1925050503d80600081146200066d576040519150601f19603f3d011682016040523d82523d6000602084013e62000672565b606091505b5050905080620006c95760405162461bcd60e51b815260206004820152601360248201527f455448207472616e73666572206661696c65640000000000000000000000000060448201526064015b60405180910390fd5b505050565b60006001600160e01b031982167f4e2312e00000000000000000000000000000000000000000000000000000000014806200073257507f01ffc9a7000000000000000000000000000000000000000000000000000000006001600160e01b03198316145b92915050565b60018054620007479062001a82565b80601f0160208091040260200160405190810160405280929190818152602001828054620007759062001a82565b8015620007c65780601f106200079a57610100808354040283529160200191620007c6565b820191906000526020600020905b815481529060010190602001808311620007a857829003601f168201915b505050505081565b6001600160a01b0381166000908152600d60209081526040808320815160608101835281548152600182015493810193909352600201549082015281620008146200108f565b905060006200082d8360000151846040015184620010f5565b83602001516200083e919062001324565b95945050505050565b60006200085362001144565b336200085f8162001188565b6001600160a01b0381166000908152600d6020526040812060010180549190556200088b82826200061e565b604080516001600160a01b0384168152602081018390527fd8138f8a3f377c5259ca548e70e4c2de94f129f5a11036a15b69513cba2b426a910160405180910390a1915050620008db6001600055565b90565b6200092a6040518060c00160405280606081526020016060815260200160006001600160a01b0316815260200160006001600160a01b0316815260200160008152602001600081525090565b6040518060c0016040528060018054620009449062001a82565b80601f0160208091040260200160405190810160405280929190818152602001828054620009729062001a82565b8015620009c35780601f106200099757610100808354040283529160200191620009c3565b820191906000526020600020905b815481529060010190602001808311620009a557829003601f168201915b5050505050815260200160028054620009dc9062001a82565b80601f016020809104026020016040519081016040528092919081815260200182805462000a0a9062001a82565b801562000a5b5780601f1062000a2f5761010080835404028352916020019162000a5b565b820191906000526020600020905b81548152906001019060200180831162000a3d57829003601f168201915b50505091835250506003546001600160a01b0390811660208301526004541660408201526005546060820152600654608090910152919050565b336001600160a01b037f0000000000000000000000000000000000000000000000000000000000000000161462000afe5760405162461bcd60e51b815260206004820152600c60248201526b27b7363c902337bab73232b960a11b6044820152606401620006c0565b600755565b60028054620007479062001a82565b336001600160a01b037f0000000000000000000000000000000000000000000000000000000000000000161462000b7b5760405162461bcd60e51b815260206004820152600c60248201526b27b7363c902337bab73232b960a11b6044820152606401620006c0565b62000b856200123e565b5060005b81811015620006c957600083838381811062000ba95762000ba962001abe565b62000bc19260206040909202019081019150620013e7565b9050600084848481811062000bda5762000bda62001abe565b90506040020160200135905060006001600160a01b0316826001600160a01b03160362000c4a5760405162461bcd60e51b815260206004820152600f60248201527f496e76616c6964206164647265737300000000000000000000000000000000006044820152606401620006c0565b6000811162000c9c5760405162461bcd60e51b815260206004820152601660248201527f5368617265206d75737420626520706f736974697665000000000000000000006044820152606401620006c0565b6001600160a01b0382166000908152600d6020526040812054900362000d025760408051606081018252600080825260208083018281528385018381526001600160a01b0388168452600d90925293909120915182559151600182015590516002909101555b62000d0d8262001188565b6001600160a01b0382166000908152600d60205260408120829055819062000d3683836200130e565b600b600082825462000d4991906200130e565b909155505050505050808062000d5f9062001ad4565b91505062000b89565b600162000d7786888362001b42565b50600262000d8784868362001b42565b5060007f00000000000000000000000000000000000000000000000000000000000000008787878760405162000dbd906200129f565b62000dcd95949392919062001c39565b604051809103906000f08015801562000dea573d6000803e3d6000fd5b506003805473ffffffffffffffffffffffffffffffffffffffff19166001600160a01b03831690811790915560405191925060009162000e2a90620012ad565b6001600160a01b039091168152602001604051809103906000f08015801562000e57573d6000803e3d6000fd5b506004805473ffffffffffffffffffffffffffffffffffffffff19166001600160a01b0383811691909117825560405163c75d547960e01b81529293508b169163c75d54799162000eab9188910162001c7f565b6020604051808303816000875af115801562000ecb573d6000803e3d6000fd5b505050506040513d601f19601f8201168201806040525081019062000ef1919062001d3a565b60055560405163c75d547960e01b81526001600160a01b038a169063c75d54799062000f2290869060040162001c7f565b6020604051808303816000875af115801562000f42573d6000803e3d6000fd5b505050506040513d601f19601f8201168201806040525081019062000f68919062001d3a565b60065550506040805160608101825268056bc75e2d631000008152600060208083018281528385018381526001600160a01b037f0000000000000000000000000000000000000000000000000000000000000000168452600d909252939091209151825591516001820155905160029091015550505050505050565b336001600160a01b037f000000000000000000000000000000000000000000000000000000000000000016146200104d5760405162461bcd60e51b815260206004820152600c60248201526b27b7363c902337bab73232b960a11b6044820152606401620006c0565b6200107b7f0000000000000000000000000000000000000000000000000000000000000000600a546200061e565b6000600a55565b6200108c6200123e565b50565b6000600b54600003620010a35750600c5490565b600b54600a54620010d5907f0000000000000000000000000000000000000000000000000000000000000000620012d1565b620010e19190620012eb565b600c54620010f0919062001324565b905090565b60007f00000000000000000000000000000000000000000000000000000000000000006200112484846200130e565b620011309086620012d1565b6200113c9190620012eb565b949350505050565b60026000540362001181576040517f3ee5aeb500000000000000000000000000000000000000000000000000000000815260040160405180910390fd5b6002600055565b6001600160a01b0381166000908152600d602090815260409182902082516060810184528154815260018201549281019290925260020154918101829052600c54909103620011d5575050565b620011ec81600001518260400151600c54620010f5565b81602001818151620011ff919062001324565b905250600c5460408083019182526001600160a01b039093166000908152600d6020908152939020825181559290910151600183015551600290910155565b6000806200124b6200108f565b600c54909150811480159062001261576000600a555b600c8290556040518281527fee6950fa914047f22a73cfd1d28ca7684f4ab6fd927d35598326a759e3ea6dde9060200160405180910390a150919050565b61207f8062001d5583390190565b610d7a8062003dd483390190565b634e487b7160e01b600052601160045260246000fd5b8082028115828204841417620007325762000732620012bb565b6000826200130957634e487b7160e01b600052601260045260246000fd5b500490565b81810381811115620007325762000732620012bb565b80820180821115620007325762000732620012bb565b6000602082840312156200134d57600080fd5b81356001600160e01b0319811681146200136657600080fd5b9392505050565b6000815180845260005b81811015620013955760208185018101518683018201520162001377565b506000602082860101526020601f19601f83011685010191505092915050565b6020815260006200136660208301846200136d565b80356001600160a01b0381168114620013e257600080fd5b919050565b600060208284031215620013fa57600080fd5b6200136682620013ca565b602081526000825160c060208401526200142360e08401826200136d565b90506020840151601f198483030160408501526200144282826200136d565b91505060408401516001600160a01b0380821660608601528060608701511660808601525050608084015160a084015260a084015160c08401528091505092915050565b6000602082840312156200149957600080fd5b5035919050565b60008060208385031215620014b457600080fd5b823567ffffffffffffffff80821115620014cd57600080fd5b818501915085601f830112620014e257600080fd5b813581811115620014f257600080fd5b8660208260061b85010111156200150857600080fd5b60209290920196919550909350505050565b60008083601f8401126200152d57600080fd5b50813567ffffffffffffffff8111156200154657600080fd5b6020830191508360208285010111156200155f57600080fd5b9250929050565b634e487b7160e01b600052604160045260246000fd5b60405160c0810167ffffffffffffffff81118282101715620015a257620015a262001566565b60405290565b604051601f8201601f1916810167ffffffffffffffff81118282101715620015d457620015d462001566565b604052919050565b600067ffffffffffffffff831115620015f957620015f962001566565b6200160e601f8401601f1916602001620015a8565b90508281528383830111156200162357600080fd5b828260208301376000602084830101529392505050565b80356fffffffffffffffffffffffffffffffff81168114620013e257600080fd5b6000608082840312156200166e57600080fd5b6040516080810181811067ffffffffffffffff8211171562001694576200169462001566565b60405290508082356bffffffffffffffffffffffff81168114620016b757600080fd5b8152602083013563ffffffff81168114620016d157600080fd5b6020820152620016e4604084016200163a565b6040820152620016f7606084016200163a565b60608201525092915050565b803560ff81168114620013e257600080fd5b80358015158114620013e257600080fd5b600061012082840312156200173a57600080fd5b620017446200157c565b905081358152602082013567ffffffffffffffff8111156200176557600080fd5b8201601f810184136200177757600080fd5b6200178884823560208401620015dc565b60208301525060408201356040820152620017a783606084016200165b565b6060820152620017ba60e0830162001703565b6080820152620017ce610100830162001715565b60a082015292915050565b600080600080600080600060a0888a031215620017f557600080fd5b6200180088620013ca565b9650602088013567ffffffffffffffff808211156200181e57600080fd5b6200182c8b838c016200151a565b909850965060408a01359150808211156200184657600080fd5b620018548b838c016200151a565b909650945060608a01359150808211156200186e57600080fd5b6200187c8b838c0162001726565b935060808a01359150808211156200189357600080fd5b50620018a28a828b0162001726565b91505092959891949750929550565b600082601f830112620018c357600080fd5b8135602067ffffffffffffffff821115620018e257620018e262001566565b8160051b620018f3828201620015a8565b92835284810182019282810190878511156200190e57600080fd5b83870192505b848310156200192f5782358252918301919083019062001914565b979650505050505050565b600082601f8301126200194c57600080fd5b6200136683833560208501620015dc565b600080600080600060a086880312156200197657600080fd5b6200198186620013ca565b94506200199160208701620013ca565b9350604086013567ffffffffffffffff80821115620019af57600080fd5b620019bd89838a01620018b1565b94506060880135915080821115620019d457600080fd5b620019e289838a01620018b1565b93506080880135915080821115620019f957600080fd5b5062001a08888289016200193a565b9150509295509295909350565b600080600080600060a0868803121562001a2e57600080fd5b62001a3986620013ca565b945062001a4960208701620013ca565b93506040860135925060608601359150608086013567ffffffffffffffff81111562001a7457600080fd5b62001a08888289016200193a565b600181811c9082168062001a9757607f821691505b60208210810362001ab857634e487b7160e01b600052602260045260246000fd5b50919050565b634e487b7160e01b600052603260045260246000fd5b60006001820162001ae95762001ae9620012bb565b5060010190565b601f821115620006c957600081815260208120601f850160051c8101602086101562001b195750805b601f850160051c820191505b8181101562001b3a5782815560010162001b25565b505050505050565b67ffffffffffffffff83111562001b5d5762001b5d62001566565b62001b758362001b6e835462001a82565b8362001af0565b6000601f84116001811462001bac576000851562001b935750838201355b600019600387901b1c1916600186901b17835562001c09565b600083815260209020601f19861690835b8281101562001bdf578685013582556020948501946001909201910162001bbd565b508682101562001bfd5760001960f88860031b161c19848701351681555b505060018560011b0183555b5050505050565b81835281816020850137506000828201602090810191909152601f909101601f19169091010190565b6001600160a01b038616815260606020820152600062001c5e60608301868862001c10565b828103604084015262001c7381858762001c10565b98975050505050505050565b60208152815160208201526000602083015161012080604085015262001caa6101408501836200136d565b91506040850151606085015260608501516bffffffffffffffffffffffff815116608086015263ffffffff60208201511660a086015260408101516fffffffffffffffffffffffffffffffff80821660c08801528060608401511660e0880152505050608085015162001d2361010086018260ff169052565b5060a0850151801515858301525090949350505050565b60006020828403121562001d4d57600080fd5b505191905056fe6101806040526801a055690d9db800006009556b037790a0e8714009b49c0000600a553480156200002f57600080fd5b506040516200207f3803806200207f8339810160408190526200005291620002b4565b6040805180820190915260018152603160f81b602082015282908190818460036200007e8382620003cd565b5060046200008d8282620003cd565b506200009f9150839050600562000162565b61012052620000b081600662000162565b61014052815160208084019190912060e052815190820120610100524660a0526200013e60e05161010051604080517f8b73c3c69bb8fe3d512ecc4cf759cc79239f7b179b0ffacaa9a75d522b39400f60208201529081019290925260608201524660808201523060a082015260009060c00160405160208183030381529060405280519060200120905090565b60805250503060c05250506001600855506001600160a01b031661016052620004f3565b600060208351101562000182576200017a836200019b565b905062000195565b816200018f8482620003cd565b5060ff90505b92915050565b600080829050601f81511115620001d2578260405163305a27a960e01b8152600401620001c9919062000499565b60405180910390fd5b8051620001df82620004ce565b179392505050565b634e487b7160e01b600052604160045260246000fd5b60005b838110156200021a57818101518382015260200162000200565b50506000910152565b600082601f8301126200023557600080fd5b81516001600160401b0380821115620002525762000252620001e7565b604051601f8301601f19908116603f011681019082821181831017156200027d576200027d620001e7565b816040528381528660208588010111156200029757600080fd5b620002aa846020830160208901620001fd565b9695505050505050565b600080600060608486031215620002ca57600080fd5b83516001600160a01b0381168114620002e257600080fd5b60208501519093506001600160401b03808211156200030057600080fd5b6200030e8783880162000223565b935060408601519150808211156200032557600080fd5b50620003348682870162000223565b9150509250925092565b600181811c908216806200035357607f821691505b6020821081036200037457634e487b7160e01b600052602260045260246000fd5b50919050565b601f821115620003c857600081815260208120601f850160051c81016020861015620003a35750805b601f850160051c820191505b81811015620003c457828155600101620003af565b5050505b505050565b81516001600160401b03811115620003e957620003e9620001e7565b6200040181620003fa84546200033e565b846200037a565b602080601f831160018114620004395760008415620004205750858301515b600019600386901b1c1916600185901b178555620003c4565b600085815260208120601f198616915b828110156200046a5788860151825594840194600190910190840162000449565b5085821015620004895787850151600019600388901b60f8161c191681555b5050505050600190811b01905550565b6020815260008251806020840152620004ba816040850160208701620001fd565b601f01601f19169190910160400192915050565b80516020808301519190811015620003745760001960209190910360031b1b16919050565b60805160a05160c05160e05161010051610120516101405161016051611b0a62000575600039600081816102e9015281816105c7015281816106b5015281816107970152610854015260006110c60152600061109901526000610f8401526000610f5c01526000610eb701526000610ee101526000610f0b0152611b0a6000f3fe60806040526004361061018d5760003560e01c80637ecebe00116100d5578063a9059cbb11610084578063d955b0f311610061578063d955b0f314610451578063dd62ed3e14610471578063e4849b32146104b7578063ffdd6dd8146104ca57005b8063a9059cbb146103e9578063b4f40c6114610409578063d505accf1461043157005b806395d89b41116100b257806395d89b41146103b6578063a56dfe4a146103cb578063a6f2ae3a146103e157005b80637ecebe001461035957806382a00b3c1461037957806384b0196e1461038e57005b80632d11c58a1161013c5780633644e515116101195780633644e515146102ad5780634d4beb3b146102c25780634d853ee5146102d757806370a082311461032357005b80632d11c58a14610267578063313ce5671461027c57806332d5d74e1461029857005b80630c55699c1161016a5780630c55699c1461021c57806318160ddd1461023257806323b872dd1461024757005b806306fdde0314610196578063095ea7b3146101c15780630c0f9f2d146101f157005b3661019457005b005b3480156101a257600080fd5b506101ab6104ec565b6040516101b891906117a9565b60405180910390f35b3480156101cd57600080fd5b506101e16101dc3660046117df565b61057e565b60405190151581526020016101b8565b3480156101fd57600080fd5b5061020e6801a055690d9db8000081565b6040519081526020016101b8565b34801561022857600080fd5b5061020e60095481565b34801561023e57600080fd5b5060025461020e565b34801561025357600080fd5b506101e1610262366004611809565b610598565b34801561027357600080fd5b5061020e600181565b34801561028857600080fd5b50604051601281526020016101b8565b3480156102a457600080fd5b506101946105bc565b3480156102b957600080fd5b5061020e610733565b3480156102ce57600080fd5b5061020e610742565b3480156102e357600080fd5b5061030b7f000000000000000000000000000000000000000000000000000000000000000081565b6040516001600160a01b0390911681526020016101b8565b34801561032f57600080fd5b5061020e61033e366004611845565b6001600160a01b031660009081526020819052604090205490565b34801561036557600080fd5b5061020e610374366004611845565b61076e565b34801561038557600080fd5b5061019461078c565b34801561039a57600080fd5b506103a361087c565b6040516101b89796959493929190611860565b3480156103c257600080fd5b506101ab6108de565b3480156103d757600080fd5b5061020e600a5481565b6101946108ed565b3480156103f557600080fd5b506101e16104043660046117df565b610a41565b34801561041557600080fd5b5061020e7305a37324b8ac5eceebef390a22a97c200000000081565b34801561043d57600080fd5b5061019461044c366004611912565b610a4f565b34801561045d57600080fd5b5061020e6b037790a0e8714009b49c000081565b34801561047d57600080fd5b5061020e61048c366004611985565b6001600160a01b03918216600090815260016020908152604080832093909416825291909152205490565b6101946104c53660046119b8565b610bbb565b3480156104d657600080fd5b503060009081526020819052604090205461020e565b6060600380546104fb906119d1565b80601f0160208091040260200160405190810160405280929190818152602001828054610527906119d1565b80156105745780601f1061054957610100808354040283529160200191610574565b820191906000526020600020905b81548152906001019060200180831161055757829003601f168201915b5050505050905090565b60003361058c818585610da2565b60019150505b92915050565b6000336105a6858285610db4565b6105b1858585610e4b565b506001949350505050565b336001600160a01b037f000000000000000000000000000000000000000000000000000000000000000016146106285760405162461bcd60e51b815260206004820152600c60248201526b27b7363c902337bab73232b960a11b60448201526064015b60405180910390fd5b30600090815260208190526040902054806106855760405162461bcd60e51b815260206004820152601a60248201527f4e6f206578636573732050454e5820746f207769746864726177000000000000604482015260640161061f565b6040517fa9059cbb0000000000000000000000000000000000000000000000000000000081526001600160a01b037f000000000000000000000000000000000000000000000000000000000000000016600482015260248101829052309063a9059cbb906044016020604051808303816000875af115801561070b573d6000803e3d6000fd5b505050506040513d601f19601f8201168201806040525081019061072f9190611a0b565b5050565b600061073d610eaa565b905090565b6000806801a055690d9db8000060095461075c9190611a43565b90506107688147611a43565b91505090565b6001600160a01b038116600090815260076020526040812054610592565b336001600160a01b037f000000000000000000000000000000000000000000000000000000000000000016146107f35760405162461bcd60e51b815260206004820152600c60248201526b27b7363c902337bab73232b960a11b604482015260640161061f565b60006107fd610742565b90506000811161084f5760405162461bcd60e51b815260206004820152601960248201527f4e6f206578636573732045544820746f20776974686472617700000000000000604482015260640161061f565b6108797f000000000000000000000000000000000000000000000000000000000000000082610fd5565b50565b600060608060008060006060610890611092565b6108986110bf565b604080516000808252602082019092527f0f000000000000000000000000000000000000000000000000000000000000009b939a50919850469750309650945092509050565b6060600480546104fb906119d1565b6108f56110ec565b34806109685760405162461bcd60e51b8152602060048201526024808201527f45544820616d6f756e74206d7573742062652067726561746572207468616e2060448201527f7a65726f00000000000000000000000000000000000000000000000000000000606482015260840161061f565b60006064610977600184611a56565b6109819190611a6d565b9050600061098f8284611a43565b90506000816009546109a19190611a8f565b905060006109c3827305a37324b8ac5eceebef390a22a97c2000000000611a6d565b9050600081600a546109d59190611a43565b6009849055600a83905590506109eb338261112f565b33600060408051898152602081018590529081018890527ff660d6af156f2b284576f789df6df4915f78d4fef681203d39da097c588c85329060600160405180910390a3505050505050610a3f6001600855565b565b60003361058c818585610e4b565b83421115610a8c576040517f627913020000000000000000000000000000000000000000000000000000000081526004810185905260240161061f565b60007f6e71edae12b1b97f4d1f60370fef10105fa2faae0126114a169c64845d6126c9888888610ad98c6001600160a01b0316600090815260076020526040902080546001810190915590565b6040805160208101969096526001600160a01b0394851690860152929091166060840152608083015260a082015260c0810186905260e0016040516020818303038152906040528051906020012090506000610b3482611165565b90506000610b44828787876111ad565b9050896001600160a01b0316816001600160a01b031614610ba4576040517f4b800e460000000000000000000000000000000000000000000000000000000081526001600160a01b0380831660048301528b16602482015260440161061f565b610baf8a8a8a610da2565b50505050505050505050565b610bc36110ec565b60008111610c395760405162461bcd60e51b815260206004820152602660248201527f546f6b656e20616d6f756e74206d75737420626520677265617465722074686160448201527f6e207a65726f0000000000000000000000000000000000000000000000000000606482015260840161061f565b60006064610c48600184611a56565b610c529190611a6d565b90506000610c608284611a43565b9050600081600a54610c729190611a8f565b90506000610c94827305a37324b8ac5eceebef390a22a97c2000000000611a6d565b9050600081600954610ca69190611a43565b600a84905560098390556040517f23b872dd0000000000000000000000000000000000000000000000000000000081523360048201523060248201819052604482018990529192506323b872dd906064016020604051808303816000875af1158015610d16573d6000803e3d6000fd5b505050506040513d601f19601f82011682018060405250810190610d3a9190611a0b565b50610d4530856111db565b610d4f3382610fd5565b33600160408051848152602081018a90529081018890527ff660d6af156f2b284576f789df6df4915f78d4fef681203d39da097c588c85329060600160405180910390a350505050506108796001600855565b610daf8383836001611211565b505050565b6001600160a01b038381166000908152600160209081526040808320938616835292905220546000198114610e455781811015610e36576040517ffb8f41b20000000000000000000000000000000000000000000000000000000081526001600160a01b0384166004820152602481018290526044810183905260640161061f565b610e4584848484036000611211565b50505050565b6001600160a01b038316610e7557604051634b637e8f60e11b81526000600482015260240161061f565b6001600160a01b038216610e9f5760405163ec442f0560e01b81526000600482015260240161061f565b610daf838383611318565b6000306001600160a01b037f000000000000000000000000000000000000000000000000000000000000000016148015610f0357507f000000000000000000000000000000000000000000000000000000000000000046145b15610f2d57507f000000000000000000000000000000000000000000000000000000000000000090565b61073d604080517f8b73c3c69bb8fe3d512ecc4cf759cc79239f7b179b0ffacaa9a75d522b39400f60208201527f0000000000000000000000000000000000000000000000000000000000000000918101919091527f000000000000000000000000000000000000000000000000000000000000000060608201524660808201523060a082015260009060c00160405160208183030381529060405280519060200120905090565b604080516000808252602082019092526001600160a01b038416908390604051610fff9190611ab8565b60006040518083038185875af1925050503d806000811461103c576040519150601f19603f3d011682016040523d82523d6000602084013e611041565b606091505b5050905080610daf5760405162461bcd60e51b815260206004820152601360248201527f455448207472616e73666572206661696c656400000000000000000000000000604482015260640161061f565b606061073d7f0000000000000000000000000000000000000000000000000000000000000000600561145b565b606061073d7f0000000000000000000000000000000000000000000000000000000000000000600661145b565b600260085403611128576040517f3ee5aeb500000000000000000000000000000000000000000000000000000000815260040160405180910390fd5b6002600855565b6001600160a01b0382166111595760405163ec442f0560e01b81526000600482015260240161061f565b61072f60008383611318565b6000610592611172610eaa565b836040517f19010000000000000000000000000000000000000000000000000000000000008152600281019290925260228201526042902090565b6000806000806111bf88888888611506565b9250925092506111cf82826115d5565b50909695505050505050565b6001600160a01b03821661120557604051634b637e8f60e11b81526000600482015260240161061f565b61072f82600083611318565b6001600160a01b038416611254576040517fe602df050000000000000000000000000000000000000000000000000000000081526000600482015260240161061f565b6001600160a01b038316611297576040517f94280d620000000000000000000000000000000000000000000000000000000081526000600482015260240161061f565b6001600160a01b0380851660009081526001602090815260408083209387168352929052208290558015610e4557826001600160a01b0316846001600160a01b03167f8c5be1e5ebec7d5bd14f71427d1e84f3dd0314c0f7b2291e5b200ac8c7c3b9258460405161130a91815260200190565b60405180910390a350505050565b6001600160a01b0383166113435780600260008282546113389190611a8f565b909155506113ce9050565b6001600160a01b038316600090815260208190526040902054818110156113af576040517fe450d38c0000000000000000000000000000000000000000000000000000000081526001600160a01b0385166004820152602481018290526044810183905260640161061f565b6001600160a01b03841660009081526020819052604090209082900390555b6001600160a01b0382166113ea57600280548290039055611409565b6001600160a01b03821660009081526020819052604090208054820190555b816001600160a01b0316836001600160a01b03167fddf252ad1be2c89b69c2b068fc378daa952ba7f163c4a11628f55a4df523b3ef8360405161144e91815260200190565b60405180910390a3505050565b606060ff83146114755761146e836116d9565b9050610592565b818054611481906119d1565b80601f01602080910402602001604051908101604052809291908181526020018280546114ad906119d1565b80156114fa5780601f106114cf576101008083540402835291602001916114fa565b820191906000526020600020905b8154815290600101906020018083116114dd57829003601f168201915b50505050509050610592565b600080807f7fffffffffffffffffffffffffffffff5d576e7357a4501ddfe92f46681b20a084111561154157506000915060039050826115cb565b604080516000808252602082018084528a905260ff891692820192909252606081018790526080810186905260019060a0016020604051602081039080840390855afa158015611595573d6000803e3d6000fd5b5050604051601f1901519150506001600160a01b0381166115c1575060009250600191508290506115cb565b9250600091508190505b9450945094915050565b60008260038111156115e9576115e9611aa2565b036115f2575050565b600182600381111561160657611606611aa2565b0361163d576040517ff645eedf00000000000000000000000000000000000000000000000000000000815260040160405180910390fd5b600282600381111561165157611651611aa2565b0361168b576040517ffce698f70000000000000000000000000000000000000000000000000000000081526004810182905260240161061f565b600382600381111561169f5761169f611aa2565b0361072f576040517fd78bce0c0000000000000000000000000000000000000000000000000000000081526004810182905260240161061f565b606060006116e683611718565b604080516020808252818301909252919250600091906020820181803683375050509182525060208101929092525090565b600060ff8216601f811115610592576040517fb3512b0c00000000000000000000000000000000000000000000000000000000815260040160405180910390fd5b60005b8381101561177457818101518382015260200161175c565b50506000910152565b60008151808452611795816020860160208601611759565b601f01601f19169290920160200192915050565b6020815260006117bc602083018461177d565b9392505050565b80356001600160a01b03811681146117da57600080fd5b919050565b600080604083850312156117f257600080fd5b6117fb836117c3565b946020939093013593505050565b60008060006060848603121561181e57600080fd5b611827846117c3565b9250611835602085016117c3565b9150604084013590509250925092565b60006020828403121561185757600080fd5b6117bc826117c3565b7fff00000000000000000000000000000000000000000000000000000000000000881681526000602060e08184015261189c60e084018a61177d565b83810360408501526118ae818a61177d565b606085018990526001600160a01b038816608086015260a0850187905284810360c0860152855180825283870192509083019060005b81811015611900578351835292840192918401916001016118e4565b50909c9b505050505050505050505050565b600080600080600080600060e0888a03121561192d57600080fd5b611936886117c3565b9650611944602089016117c3565b95506040880135945060608801359350608088013560ff8116811461196857600080fd5b9699959850939692959460a0840135945060c09093013592915050565b6000806040838503121561199857600080fd5b6119a1836117c3565b91506119af602084016117c3565b90509250929050565b6000602082840312156119ca57600080fd5b5035919050565b600181811c908216806119e557607f821691505b602082108103611a0557634e487b7160e01b600052602260045260246000fd5b50919050565b600060208284031215611a1d57600080fd5b815180151581146117bc57600080fd5b634e487b7160e01b600052601160045260246000fd5b8181038181111561059257610592611a2d565b808202811582820484141761059257610592611a2d565b600082611a8a57634e487b7160e01b600052601260045260246000fd5b500490565b8082018082111561059257610592611a2d565b634e487b7160e01b600052602160045260246000fd5b60008251611aca818460208701611759565b919091019291505056fea2646970667358221220ef26860c656496399edb7d1ac5b911734aa3700c9d4d8394b2e00652d60e710464736f6c6343000814003360a06040526706f05b59d3b200006002556000600355600060065534801561002657600080fd5b50604051610d7a380380610d7a8339810160408190526100459161005b565b60016000556001600160a01b031660805261008b565b60006020828403121561006d57600080fd5b81516001600160a01b038116811461008457600080fd5b9392505050565b608051610cc66100b4600039600081816101e60152818161037a015261056d0152610cc66000f3fe6080604052600436106100d55760003560e01c806373f273fc11610079578063a694fc3a11610056578063a694fc3a1461029f578063babd8373146102bf578063e4fc6b6d146102d5578063ecba345b146102ea57005b806373f273fc14610220578063817b1cd214610269578063a2dc05741461027f57005b80634e71d92d116100b25780634e71d92d1461017c57806368e5585d146101915780636dca7e7b146101be57806372f702f3146101d457005b8063083966461461011e5780632e17de7814610146578063389621861461016657005b3661011c573460038190556040805133815260208101929092527f88a5966d370b9919b20f3e2c13ff65706f196a4e32cc2c12bf57088f88525874910160405180910390a1005b005b34801561012a57600080fd5b50610133610306565b6040519081526020015b60405180910390f35b34801561015257600080fd5b5061011c610161366004610b88565b610315565b34801561017257600080fd5b5061013360065481565b34801561018857600080fd5b506101336103f2565b34801561019d57600080fd5b506101336101ac366004610ba1565b60056020526000908152604090205481565b3480156101ca57600080fd5b5061013360035481565b3480156101e057600080fd5b506102087f000000000000000000000000000000000000000000000000000000000000000081565b6040516001600160a01b03909116815260200161013d565b34801561022c57600080fd5b5061025461023b366004610ba1565b6007602052600090815260409020805460019091015482565b6040805192835260208301919091520161013d565b34801561027557600080fd5b5061013360045481565b34801561028b57600080fd5b5061013361029a366004610ba1565b610480565b3480156102ab57600080fd5b5061011c6102ba366004610b88565b610508565b3480156102cb57600080fd5b5061013360025481565b3480156102e157600080fd5b5061011c6105d4565b3480156102f657600080fd5b50610133670de0b6b3a764000081565b60006103106105dc565b905090565b61031d61061e565b3361032781610661565b50816004600082825461033a9190610be0565b90915550506001600160a01b03811660009081526005602052604081208054849290610367908490610be0565b909155506103a190506001600160a01b037f000000000000000000000000000000000000000000000000000000000000000016828461077d565b604080516001600160a01b0383168152602081018490527f0f5bb82176feb1b5e747e28471aa92156a04d9f3ab9f45f28e2d704232b93f7591015b60405180910390a1506103ef6001600055565b50565b60006103fc61061e565b3361040681610661565b506001600160a01b0381166000908152600760205260408120805491905561042e82826107f6565b604080516001600160a01b0384168152602081018390527fd8138f8a3f377c5259ca548e70e4c2de94f129f5a11036a15b69513cba2b426a910160405180910390a191505061047d6001600055565b90565b6001600160a01b03811660009081526007602090815260408083208151808301909252805482526001015491810191909152816104bb6105dc565b905060006104f360056000876001600160a01b03166001600160a01b03168152602001908152602001600020548460200151846108b8565b83516104ff9190610bf3565b95945050505050565b61051061061e565b3361051a81610661565b50816004600082825461052d9190610bf3565b90915550506001600160a01b0381166000908152600560205260408120805484929061055a908490610bf3565b9091555061059590506001600160a01b037f0000000000000000000000000000000000000000000000000000000000000000168230856108eb565b604080516001600160a01b0383168152602081018490527f9e71bc8eea02a63969f509818f2dafb9254532904319f9dbda79b67bd34a5f3d91016103dc565b6103ef61092a565b60006004546000036105ef575060065490565b60045460035461060790670de0b6b3a7640000610c06565b6106119190610c1d565b6006546103109190610bf3565b60026000540361065a576040517f3ee5aeb500000000000000000000000000000000000000000000000000000000815260040160405180910390fd5b6002600055565b604080518082019091526000808252602082015261067d61092a565b506001600160a01b0382166000908152600760209081526040918290208251808401909352805483526001015490820181905260065490036106bf5792915050565b6106f560056000856001600160a01b03166001600160a01b031681526020019081526020016000205482602001516006546108b8565b81518290610704908390610bf3565b90525060065460208281019182526001600160a01b038516600081815260078352604090819020855180825594516001909101819055815192835292820193909352918201527f5b9aaf4cc5141c090a75f8b8a627863eba92df81f0c83c096350da9b79aedd049060600160405180910390a192915050565b6040516001600160a01b038381166024830152604482018390526107f191859182169063a9059cbb906064015b604051602081830303815290604052915060e01b6020820180517bffffffffffffffffffffffffffffffffffffffffffffffffffffffff8381831617835250505050610988565b505050565b6000826001600160a01b03168260405160006040518083038185875af1925050503d8060008114610843576040519150601f19603f3d011682016040523d82523d6000602084013e610848565b606091505b50509050806107f1576040517f08c379a000000000000000000000000000000000000000000000000000000000815260206004820152601360248201527f455448207472616e73666572206661696c65640000000000000000000000000060448201526064015b60405180910390fd5b6000670de0b6b3a76400006108cd8484610be0565b6108d79086610c06565b6108e19190610c1d565b90505b9392505050565b6040516001600160a01b0384811660248301528381166044830152606482018390526109249186918216906323b872dd906084016107aa565b50505050565b6000806109356105dc565b600654909150811480159061094a5760006003555b60068290556040518281527fe972555b20cae8150e291bb40efce3ef4e3ed6b6b2c39c029346600e95469d489060200160405180910390a150919050565b600061099d6001600160a01b03841683610a04565b905080516000141580156109c25750808060200190518101906109c09190610c3f565b155b156107f1576040517f5274afe70000000000000000000000000000000000000000000000000000000081526001600160a01b03841660048201526024016108af565b6060610a1283836000610a1b565b90505b92915050565b606081471015610a59576040517fcd7860590000000000000000000000000000000000000000000000000000000081523060048201526024016108af565b600080856001600160a01b03168486604051610a759190610c61565b60006040518083038185875af1925050503d8060008114610ab2576040519150601f19603f3d011682016040523d82523d6000602084013e610ab7565b606091505b5091509150610ac7868383610ad1565b9695505050505050565b606082610ae657610ae182610b46565b6108e4565b8151158015610afd57506001600160a01b0384163b155b15610b3f576040517f9996b3150000000000000000000000000000000000000000000000000000000081526001600160a01b03851660048201526024016108af565b50806108e4565b805115610b565780518082602001fd5b6040517f1425ea4200000000000000000000000000000000000000000000000000000000815260040160405180910390fd5b600060208284031215610b9a57600080fd5b5035919050565b600060208284031215610bb357600080fd5b81356001600160a01b03811681146108e457600080fd5b634e487b7160e01b600052601160045260246000fd5b81810381811115610a1557610a15610bca565b80820180821115610a1557610a15610bca565b8082028115828204841417610a1557610a15610bca565b600082610c3a57634e487b7160e01b600052601260045260246000fd5b500490565b600060208284031215610c5157600080fd5b815180151581146108e457600080fd5b6000825160005b81811015610c825760208186018101518583015201610c68565b50600092019182525091905056fea264697066735822122019204afeef5d026c67fba6f2dcbcb3bef383a2056ec5d10ca013a9b3105a2ee864736f6c63430008140033a2646970667358221220d85618ebced18e7d694a4b9c8def1657243f381788537b1c3262d6d912283c5664736f6c63430008140033a26469706673582212209cfc8fa23bf050c8fe33164d5d8d9e60453312844197e25c721a18f1f0c4be2664736f6c63430008140033",
  "libraries": {},
  "devdoc": {
    "errors": {
      "OwnableInvalidOwner(address)": [
        {
          "details": "The owner is not a valid owner account. (eg. `address(0)`)"
        }
      ],
      "OwnableUnauthorizedAccount(address)": [
        {
          "details": "The caller account is not authorized to perform an operation."
        }
      ]
    },
    "kind": "dev",
    "methods": {
      "owner()": {
        "details": "Returns the address of the current owner."
      },
      "renounceOwnership()": {
        "details": "Leaves the contract without owner. It will not be possible to call `onlyOwner` functions. Can only be called by the current owner. NOTE: Renouncing ownership will leave the contract without an owner, thereby disabling any functionality that is only available to the owner."
      },
      "transferOwnership(address)": {
        "details": "Transfers ownership of the contract to a new account (`newOwner`). Can only be called by the current owner."
      }
    },
    "version": 1
  },
  "userdoc": {
    "kind": "user",
    "methods": {},
    "version": 1
  },
  "storageLayout": {
    "storage": [
      {
        "astId": 8,
        "contract": "contracts/space/SpaceFactory.sol:SpaceFactory",
        "label": "_owner",
        "offset": 0,
        "slot": "0",
        "type": "t_address"
      },
      {
        "astId": 6926,
        "contract": "contracts/space/SpaceFactory.sol:SpaceFactory",
        "label": "spaceIndex",
        "offset": 0,
        "slot": "1",
        "type": "t_uint256"
      },
      {
        "astId": 6930,
        "contract": "contracts/space/SpaceFactory.sol:SpaceFactory",
        "label": "spaces",
        "offset": 0,
        "slot": "2",
        "type": "t_mapping(t_uint256,t_address)"
      },
      {
        "astId": 6935,
        "contract": "contracts/space/SpaceFactory.sol:SpaceFactory",
        "label": "userSpaces",
        "offset": 0,
        "slot": "3",
        "type": "t_mapping(t_address,t_array(t_address)dyn_storage)"
      }
    ],
    "types": {
      "t_address": {
        "encoding": "inplace",
        "label": "address",
        "numberOfBytes": "20"
      },
      "t_array(t_address)dyn_storage": {
        "base": "t_address",
        "encoding": "dynamic_array",
        "label": "address[]",
        "numberOfBytes": "32"
      },
      "t_mapping(t_address,t_array(t_address)dyn_storage)": {
        "encoding": "mapping",
        "key": "t_address",
        "label": "mapping(address => address[])",
        "numberOfBytes": "32",
        "value": "t_array(t_address)dyn_storage"
      },
      "t_mapping(t_uint256,t_address)": {
        "encoding": "mapping",
        "key": "t_uint256",
        "label": "mapping(uint256 => address)",
        "numberOfBytes": "32",
        "value": "t_address"
      },
      "t_uint256": {
        "encoding": "inplace",
        "label": "uint256",
        "numberOfBytes": "32"
      }
    }
  }
}