{
  "address": "0xb73CA4A87932B6D380BeaE21427D8E34968d96EA",
  "abi": [
    {
      "inputs": [
        {
          "internalType": "address",
          "name": "_founder",
          "type": "address"
        },
        {
          "internalType": "string",
          "name": "_name",
          "type": "string"
        },
        {
          "internalType": "string",
          "name": "_symbol",
          "type": "string"
        }
      ],
      "stateMutability": "nonpayable",
      "type": "constructor"
    },
    {
      "inputs": [],
      "name": "ECDSAInvalidSignature",
      "type": "error"
    },
    {
      "inputs": [
        {
          "internalType": "uint256",
          "name": "length",
          "type": "uint256"
        }
      ],
      "name": "ECDSAInvalidSignatureLength",
      "type": "error"
    },
    {
      "inputs": [
        {
          "internalType": "bytes32",
          "name": "s",
          "type": "bytes32"
        }
      ],
      "name": "ECDSAInvalidSignatureS",
      "type": "error"
    },
    {
      "inputs": [
        {
          "internalType": "address",
          "name": "spender",
          "type": "address"
        },
        {
          "internalType": "uint256",
          "name": "allowance",
          "type": "uint256"
        },
        {
          "internalType": "uint256",
          "name": "needed",
          "type": "uint256"
        }
      ],
      "name": "ERC20InsufficientAllowance",
      "type": "error"
    },
    {
      "inputs": [
        {
          "internalType": "address",
          "name": "sender",
          "type": "address"
        },
        {
          "internalType": "uint256",
          "name": "balance",
          "type": "uint256"
        },
        {
          "internalType": "uint256",
          "name": "needed",
          "type": "uint256"
        }
      ],
      "name": "ERC20InsufficientBalance",
      "type": "error"
    },
    {
      "inputs": [
        {
          "internalType": "address",
          "name": "approver",
          "type": "address"
        }
      ],
      "name": "ERC20InvalidApprover",
      "type": "error"
    },
    {
      "inputs": [
        {
          "internalType": "address",
          "name": "receiver",
          "type": "address"
        }
      ],
      "name": "ERC20InvalidReceiver",
      "type": "error"
    },
    {
      "inputs": [
        {
          "internalType": "address",
          "name": "sender",
          "type": "address"
        }
      ],
      "name": "ERC20InvalidSender",
      "type": "error"
    },
    {
      "inputs": [
        {
          "internalType": "address",
          "name": "spender",
          "type": "address"
        }
      ],
      "name": "ERC20InvalidSpender",
      "type": "error"
    },
    {
      "inputs": [
        {
          "internalType": "uint256",
          "name": "deadline",
          "type": "uint256"
        }
      ],
      "name": "ERC2612ExpiredSignature",
      "type": "error"
    },
    {
      "inputs": [
        {
          "internalType": "address",
          "name": "signer",
          "type": "address"
        },
        {
          "internalType": "address",
          "name": "owner",
          "type": "address"
        }
      ],
      "name": "ERC2612InvalidSigner",
      "type": "error"
    },
    {
      "inputs": [
        {
          "internalType": "address",
          "name": "account",
          "type": "address"
        },
        {
          "internalType": "uint256",
          "name": "currentNonce",
          "type": "uint256"
        }
      ],
      "name": "InvalidAccountNonce",
      "type": "error"
    },
    {
      "inputs": [],
      "name": "InvalidShortString",
      "type": "error"
    },
    {
      "inputs": [],
      "name": "ReentrancyGuardReentrantCall",
      "type": "error"
    },
    {
      "inputs": [
        {
          "internalType": "string",
          "name": "str",
          "type": "string"
        }
      ],
      "name": "StringTooLong",
      "type": "error"
    },
    {
      "anonymous": false,
      "inputs": [
        {
          "indexed": true,
          "internalType": "address",
          "name": "owner",
          "type": "address"
        },
        {
          "indexed": true,
          "internalType": "address",
          "name": "spender",
          "type": "address"
        },
        {
          "indexed": false,
          "internalType": "uint256",
          "name": "value",
          "type": "uint256"
        }
      ],
      "name": "Approval",
      "type": "event"
    },
    {
      "anonymous": false,
      "inputs": [],
      "name": "EIP712DomainChanged",
      "type": "event"
    },
    {
      "anonymous": false,
      "inputs": [
        {
          "indexed": false,
          "internalType": "address",
          "name": "sender",
          "type": "address"
        },
        {
          "indexed": false,
          "internalType": "uint256",
          "name": "daoFee",
          "type": "uint256"
        },
        {
          "indexed": false,
          "internalType": "uint256",
          "name": "stakingFee",
          "type": "uint256"
        }
      ],
      "name": "Received",
      "type": "event"
    },
    {
      "anonymous": false,
      "inputs": [
        {
          "indexed": true,
          "internalType": "address",
          "name": "from",
          "type": "address"
        },
        {
          "indexed": true,
          "internalType": "address",
          "name": "to",
          "type": "address"
        },
        {
          "indexed": false,
          "internalType": "uint256",
          "name": "value",
          "type": "uint256"
        }
      ],
      "name": "Transfer",
      "type": "event"
    },
    {
      "stateMutability": "payable",
      "type": "fallback"
    },
    {
      "inputs": [],
      "name": "DOMAIN_SEPARATOR",
      "outputs": [
        {
          "internalType": "bytes32",
          "name": "",
          "type": "bytes32"
        }
      ],
      "stateMutability": "view",
      "type": "function"
    },
    {
      "inputs": [
        {
          "internalType": "address",
          "name": "account",
          "type": "address"
        }
      ],
      "name": "addContributor",
      "outputs": [],
      "stateMutability": "nonpayable",
      "type": "function"
    },
    {
      "inputs": [
        {
          "internalType": "address",
          "name": "beneficiaryAddress",
          "type": "address"
        },
        {
          "internalType": "uint256",
          "name": "startTimestamp",
          "type": "uint256"
        },
        {
          "internalType": "uint256",
          "name": "durationSeconds",
          "type": "uint256"
        },
        {
          "internalType": "uint256",
          "name": "allocationAmount",
          "type": "uint256"
        }
      ],
      "name": "addVesting",
      "outputs": [],
      "stateMutability": "nonpayable",
      "type": "function"
    },
    {
      "inputs": [
        {
          "internalType": "address",
          "name": "owner",
          "type": "address"
        },
        {
          "internalType": "address",
          "name": "spender",
          "type": "address"
        }
      ],
      "name": "allowance",
      "outputs": [
        {
          "internalType": "uint256",
          "name": "",
          "type": "uint256"
        }
      ],
      "stateMutability": "view",
      "type": "function"
    },
    {
      "inputs": [
        {
          "internalType": "address",
          "name": "spender",
          "type": "address"
        },
        {
          "internalType": "uint256",
          "name": "value",
          "type": "uint256"
        }
      ],
      "name": "approve",
      "outputs": [
        {
          "internalType": "bool",
          "name": "",
          "type": "bool"
        }
      ],
      "stateMutability": "nonpayable",
      "type": "function"
    },
    {
      "inputs": [
        {
          "internalType": "address",
          "name": "account",
          "type": "address"
        }
      ],
      "name": "balanceOf",
      "outputs": [
        {
          "internalType": "uint256",
          "name": "",
          "type": "uint256"
        }
      ],
      "stateMutability": "view",
      "type": "function"
    },
    {
      "inputs": [],
      "name": "buy",
      "outputs": [
        {
          "internalType": "uint256",
          "name": "",
          "type": "uint256"
        }
      ],
      "stateMutability": "payable",
      "type": "function"
    },
    {
      "inputs": [],
      "name": "claimShareRewards",
      "outputs": [],
      "stateMutability": "nonpayable",
      "type": "function"
    },
    {
      "inputs": [],
      "name": "claimStakingRewards",
      "outputs": [
        {
          "internalType": "uint256",
          "name": "",
          "type": "uint256"
        }
      ],
      "stateMutability": "nonpayable",
      "type": "function"
    },
    {
      "inputs": [
        {
          "internalType": "address",
          "name": "user",
          "type": "address"
        }
      ],
      "name": "currentContributorRewards",
      "outputs": [
        {
          "internalType": "uint256",
          "name": "",
          "type": "uint256"
        }
      ],
      "stateMutability": "view",
      "type": "function"
    },
    {
      "inputs": [],
      "name": "currentRewardsPerToken",
      "outputs": [
        {
          "internalType": "uint256",
          "name": "",
          "type": "uint256"
        }
      ],
      "stateMutability": "view",
      "type": "function"
    },
    {
      "inputs": [
        {
          "internalType": "address",
          "name": "user",
          "type": "address"
        }
      ],
      "name": "currentUserRewards",
      "outputs": [
        {
          "internalType": "uint256",
          "name": "",
          "type": "uint256"
        }
      ],
      "stateMutability": "view",
      "type": "function"
    },
    {
      "inputs": [],
      "name": "daoFeePercent",
      "outputs": [
        {
          "internalType": "uint256",
          "name": "",
          "type": "uint256"
        }
      ],
      "stateMutability": "view",
      "type": "function"
    },
    {
      "inputs": [],
      "name": "decimals",
      "outputs": [
        {
          "internalType": "uint8",
          "name": "",
          "type": "uint8"
        }
      ],
      "stateMutability": "view",
      "type": "function"
    },
    {
      "inputs": [],
      "name": "distributeShareRewards",
      "outputs": [],
      "stateMutability": "nonpayable",
      "type": "function"
    },
    {
      "inputs": [
        {
          "internalType": "address",
          "name": "user",
          "type": "address"
        }
      ],
      "name": "distributeSingleSubscription",
      "outputs": [],
      "stateMutability": "nonpayable",
      "type": "function"
    },
    {
      "inputs": [],
      "name": "distributeStakingRewards",
      "outputs": [],
      "stateMutability": "nonpayable",
      "type": "function"
    },
    {
      "inputs": [],
      "name": "distributeSubscriptionRewards",
      "outputs": [],
      "stateMutability": "nonpayable",
      "type": "function"
    },
    {
      "inputs": [],
      "name": "eip712Domain",
      "outputs": [
        {
          "internalType": "bytes1",
          "name": "fields",
          "type": "bytes1"
        },
        {
          "internalType": "string",
          "name": "name",
          "type": "string"
        },
        {
          "internalType": "string",
          "name": "version",
          "type": "string"
        },
        {
          "internalType": "uint256",
          "name": "chainId",
          "type": "uint256"
        },
        {
          "internalType": "address",
          "name": "verifyingContract",
          "type": "address"
        },
        {
          "internalType": "bytes32",
          "name": "salt",
          "type": "bytes32"
        },
        {
          "internalType": "uint256[]",
          "name": "extensions",
          "type": "uint256[]"
        }
      ],
      "stateMutability": "view",
      "type": "function"
    },
    {
      "inputs": [],
      "name": "founder",
      "outputs": [
        {
          "internalType": "address",
          "name": "",
          "type": "address"
        }
      ],
      "stateMutability": "view",
      "type": "function"
    },
    {
      "inputs": [
        {
          "internalType": "address",
          "name": "account",
          "type": "address"
        }
      ],
      "name": "getContributor",
      "outputs": [
        {
          "components": [
            {
              "internalType": "uint256",
              "name": "shares",
              "type": "uint256"
            },
            {
              "internalType": "uint256",
              "name": "rewards",
              "type": "uint256"
            },
            {
              "internalType": "uint256",
              "name": "checkpoint",
              "type": "uint256"
            },
            {
              "internalType": "bool",
              "name": "exists",
              "type": "bool"
            }
          ],
          "internalType": "struct Share.Contributor",
          "name": "",
          "type": "tuple"
        }
      ],
      "stateMutability": "view",
      "type": "function"
    },
    {
      "inputs": [],
      "name": "getContributors",
      "outputs": [
        {
          "components": [
            {
              "internalType": "address",
              "name": "account",
              "type": "address"
            },
            {
              "internalType": "uint256",
              "name": "shares",
              "type": "uint256"
            }
          ],
          "internalType": "struct Share.ContributorInfo[]",
          "name": "",
          "type": "tuple[]"
        }
      ],
      "stateMutability": "view",
      "type": "function"
    },
    {
      "inputs": [
        {
          "internalType": "uint256",
          "name": "tokenAmount",
          "type": "uint256"
        }
      ],
      "name": "getEthAmount",
      "outputs": [
        {
          "internalType": "uint256",
          "name": "ethAmount",
          "type": "uint256"
        },
        {
          "internalType": "uint256",
          "name": "tokenAmountAfterFee",
          "type": "uint256"
        },
        {
          "internalType": "uint256",
          "name": "newX",
          "type": "uint256"
        },
        {
          "internalType": "uint256",
          "name": "newY",
          "type": "uint256"
        },
        {
          "internalType": "uint256",
          "name": "fee",
          "type": "uint256"
        }
      ],
      "stateMutability": "view",
      "type": "function"
    },
    {
      "inputs": [],
      "name": "getMemberInfo",
      "outputs": [
        {
          "components": [
            {
              "internalType": "uint256",
              "name": "subscriptionPrice",
              "type": "uint256"
            },
            {
              "internalType": "uint256",
              "name": "subscriptionIncome",
              "type": "uint256"
            }
          ],
          "internalType": "struct Member.Info",
          "name": "",
          "type": "tuple"
        }
      ],
      "stateMutability": "view",
      "type": "function"
    },
    {
      "inputs": [],
      "name": "getSpaceInfo",
      "outputs": [
        {
          "components": [
            {
              "internalType": "string",
              "name": "name",
              "type": "string"
            },
            {
              "internalType": "string",
              "name": "symbol",
              "type": "string"
            },
            {
              "internalType": "address",
              "name": "founder",
              "type": "address"
            },
            {
              "internalType": "uint256",
              "name": "x",
              "type": "uint256"
            },
            {
              "internalType": "uint256",
              "name": "y",
              "type": "uint256"
            },
            {
              "internalType": "uint256",
              "name": "k",
              "type": "uint256"
            },
            {
              "internalType": "uint256",
              "name": "daoFees",
              "type": "uint256"
            },
            {
              "internalType": "uint256",
              "name": "stakingFees",
              "type": "uint256"
            },
            {
              "internalType": "uint256",
              "name": "subscriptionPrice",
              "type": "uint256"
            },
            {
              "internalType": "uint256",
              "name": "subscriptionIncome",
              "type": "uint256"
            },
            {
              "internalType": "uint256",
              "name": "totalStaked",
              "type": "uint256"
            },
            {
              "internalType": "uint256",
              "name": "accumulatedRewardsPerToken",
              "type": "uint256"
            },
            {
              "internalType": "uint256",
              "name": "totalShare",
              "type": "uint256"
            },
            {
              "internalType": "uint256",
              "name": "accumulatedRewardsPerShare",
              "type": "uint256"
            }
          ],
          "internalType": "struct Space.SpaceInfo",
          "name": "",
          "type": "tuple"
        }
      ],
      "stateMutability": "view",
      "type": "function"
    },
    {
      "inputs": [],
      "name": "getStakingInfo",
      "outputs": [
        {
          "components": [
            {
              "internalType": "uint256",
              "name": "stakingFees",
              "type": "uint256"
            },
            {
              "internalType": "uint256",
              "name": "totalStaked",
              "type": "uint256"
            },
            {
              "internalType": "uint256",
              "name": "accumulatedRewardsPerToken",
              "type": "uint256"
            }
          ],
          "internalType": "struct Staking.Info",
          "name": "",
          "type": "tuple"
        }
      ],
      "stateMutability": "view",
      "type": "function"
    },
    {
      "inputs": [
        {
          "internalType": "address",
          "name": "user",
          "type": "address"
        }
      ],
      "name": "getSubscription",
      "outputs": [
        {
          "components": [
            {
              "internalType": "uint256",
              "name": "start",
              "type": "uint256"
            },
            {
              "internalType": "uint256",
              "name": "checkpoint",
              "type": "uint256"
            },
            {
              "internalType": "uint256",
              "name": "duration",
              "type": "uint256"
            },
            {
              "internalType": "uint256",
              "name": "amount",
              "type": "uint256"
            },
            {
              "internalType": "uint256",
              "name": "consumed",
              "type": "uint256"
            }
          ],
          "internalType": "struct Member.Subscription",
          "name": "",
          "type": "tuple"
        }
      ],
      "stateMutability": "view",
      "type": "function"
    },
    {
      "inputs": [],
      "name": "getSubscriptions",
      "outputs": [
        {
          "components": [
            {
              "internalType": "uint256",
              "name": "start",
              "type": "uint256"
            },
            {
              "internalType": "uint256",
              "name": "checkpoint",
              "type": "uint256"
            },
            {
              "internalType": "uint256",
              "name": "duration",
              "type": "uint256"
            },
            {
              "internalType": "uint256",
              "name": "amount",
              "type": "uint256"
            },
            {
              "internalType": "uint256",
              "name": "consumed",
              "type": "uint256"
            }
          ],
          "internalType": "struct Member.Subscription[]",
          "name": "",
          "type": "tuple[]"
        }
      ],
      "stateMutability": "view",
      "type": "function"
    },
    {
      "inputs": [
        {
          "internalType": "uint256",
          "name": "ethAmount",
          "type": "uint256"
        }
      ],
      "name": "getTokenAmount",
      "outputs": [
        {
          "internalType": "uint256",
          "name": "tokenAmount",
          "type": "uint256"
        },
        {
          "internalType": "uint256",
          "name": "newX",
          "type": "uint256"
        },
        {
          "internalType": "uint256",
          "name": "newY",
          "type": "uint256"
        },
        {
          "internalType": "uint256",
          "name": "fee",
          "type": "uint256"
        }
      ],
      "stateMutability": "view",
      "type": "function"
    },
    {
      "inputs": [],
      "name": "getTokenPricePerSecond",
      "outputs": [
        {
          "internalType": "uint256",
          "name": "",
          "type": "uint256"
        }
      ],
      "stateMutability": "view",
      "type": "function"
    },
    {
      "inputs": [],
      "name": "initialize",
      "outputs": [],
      "stateMutability": "nonpayable",
      "type": "function"
    },
    {
      "inputs": [],
      "name": "name",
      "outputs": [
        {
          "internalType": "string",
          "name": "",
          "type": "string"
        }
      ],
      "stateMutability": "view",
      "type": "function"
    },
    {
      "inputs": [
        {
          "internalType": "address",
          "name": "owner",
          "type": "address"
        }
      ],
      "name": "nonces",
      "outputs": [
        {
          "internalType": "uint256",
          "name": "",
          "type": "uint256"
        }
      ],
      "stateMutability": "view",
      "type": "function"
    },
    {
      "inputs": [
        {
          "internalType": "address",
          "name": "",
          "type": "address"
        },
        {
          "internalType": "address",
          "name": "",
          "type": "address"
        },
        {
          "internalType": "uint256[]",
          "name": "",
          "type": "uint256[]"
        },
        {
          "internalType": "uint256[]",
          "name": "",
          "type": "uint256[]"
        },
        {
          "internalType": "bytes",
          "name": "",
          "type": "bytes"
        }
      ],
      "name": "onERC1155BatchReceived",
      "outputs": [
        {
          "internalType": "bytes4",
          "name": "",
          "type": "bytes4"
        }
      ],
      "stateMutability": "nonpayable",
      "type": "function"
    },
    {
      "inputs": [
        {
          "internalType": "address",
          "name": "",
          "type": "address"
        },
        {
          "internalType": "address",
          "name": "",
          "type": "address"
        },
        {
          "internalType": "uint256",
          "name": "",
          "type": "uint256"
        },
        {
          "internalType": "uint256",
          "name": "",
          "type": "uint256"
        },
        {
          "internalType": "bytes",
          "name": "",
          "type": "bytes"
        }
      ],
      "name": "onERC1155Received",
      "outputs": [
        {
          "internalType": "bytes4",
          "name": "",
          "type": "bytes4"
        }
      ],
      "stateMutability": "nonpayable",
      "type": "function"
    },
    {
      "inputs": [
        {
          "internalType": "address",
          "name": "user",
          "type": "address"
        },
        {
          "internalType": "uint256",
          "name": "timestamp",
          "type": "uint256"
        }
      ],
      "name": "payedAmount",
      "outputs": [
        {
          "internalType": "uint256",
          "name": "",
          "type": "uint256"
        }
      ],
      "stateMutability": "view",
      "type": "function"
    },
    {
      "inputs": [
        {
          "internalType": "address",
          "name": "owner",
          "type": "address"
        },
        {
          "internalType": "address",
          "name": "spender",
          "type": "address"
        },
        {
          "internalType": "uint256",
          "name": "value",
          "type": "uint256"
        },
        {
          "internalType": "uint256",
          "name": "deadline",
          "type": "uint256"
        },
        {
          "internalType": "uint8",
          "name": "v",
          "type": "uint8"
        },
        {
          "internalType": "bytes32",
          "name": "r",
          "type": "bytes32"
        },
        {
          "internalType": "bytes32",
          "name": "s",
          "type": "bytes32"
        }
      ],
      "name": "permit",
      "outputs": [],
      "stateMutability": "nonpayable",
      "type": "function"
    },
    {
      "inputs": [],
      "name": "releaseVesting",
      "outputs": [],
      "stateMutability": "nonpayable",
      "type": "function"
    },
    {
      "inputs": [
        {
          "internalType": "uint256",
          "name": "tokenAmount",
          "type": "uint256"
        }
      ],
      "name": "sell",
      "outputs": [
        {
          "internalType": "uint256",
          "name": "",
          "type": "uint256"
        }
      ],
      "stateMutability": "payable",
      "type": "function"
    },
    {
      "inputs": [
        {
          "internalType": "uint256",
          "name": "price",
          "type": "uint256"
        }
      ],
      "name": "setSubscriptionPrice",
      "outputs": [],
      "stateMutability": "nonpayable",
      "type": "function"
    },
    {
      "inputs": [],
      "name": "share",
      "outputs": [
        {
          "internalType": "uint256",
          "name": "daoFees",
          "type": "uint256"
        },
        {
          "internalType": "uint256",
          "name": "totalShare",
          "type": "uint256"
        },
        {
          "internalType": "uint256",
          "name": "accumulatedRewardsPerShare",
          "type": "uint256"
        }
      ],
      "stateMutability": "view",
      "type": "function"
    },
    {
      "inputs": [
        {
          "internalType": "uint256",
          "name": "amount",
          "type": "uint256"
        }
      ],
      "name": "stake",
      "outputs": [],
      "stateMutability": "nonpayable",
      "type": "function"
    },
    {
      "inputs": [],
      "name": "staking",
      "outputs": [
        {
          "internalType": "uint256",
          "name": "stakingFees",
          "type": "uint256"
        },
        {
          "internalType": "uint256",
          "name": "totalStaked",
          "type": "uint256"
        },
        {
          "internalType": "uint256",
          "name": "accumulatedRewardsPerToken",
          "type": "uint256"
        }
      ],
      "stateMutability": "view",
      "type": "function"
    },
    {
      "inputs": [],
      "name": "subscribeByEth",
      "outputs": [],
      "stateMutability": "payable",
      "type": "function"
    },
    {
      "inputs": [
        {
          "internalType": "uint256",
          "name": "amount",
          "type": "uint256"
        }
      ],
      "name": "subscribeByToken",
      "outputs": [],
      "stateMutability": "nonpayable",
      "type": "function"
    },
    {
      "inputs": [
        {
          "internalType": "bytes4",
          "name": "interfaceId",
          "type": "bytes4"
        }
      ],
      "name": "supportsInterface",
      "outputs": [
        {
          "internalType": "bool",
          "name": "",
          "type": "bool"
        }
      ],
      "stateMutability": "view",
      "type": "function"
    },
    {
      "inputs": [],
      "name": "symbol",
      "outputs": [
        {
          "internalType": "string",
          "name": "",
          "type": "string"
        }
      ],
      "stateMutability": "view",
      "type": "function"
    },
    {
      "inputs": [],
      "name": "token",
      "outputs": [
        {
          "internalType": "uint256",
          "name": "x",
          "type": "uint256"
        },
        {
          "internalType": "uint256",
          "name": "y",
          "type": "uint256"
        },
        {
          "internalType": "uint256",
          "name": "k",
          "type": "uint256"
        }
      ],
      "stateMutability": "view",
      "type": "function"
    },
    {
      "inputs": [],
      "name": "totalSupply",
      "outputs": [
        {
          "internalType": "uint256",
          "name": "",
          "type": "uint256"
        }
      ],
      "stateMutability": "view",
      "type": "function"
    },
    {
      "inputs": [
        {
          "internalType": "address",
          "name": "to",
          "type": "address"
        },
        {
          "internalType": "uint256",
          "name": "value",
          "type": "uint256"
        }
      ],
      "name": "transfer",
      "outputs": [
        {
          "internalType": "bool",
          "name": "",
          "type": "bool"
        }
      ],
      "stateMutability": "nonpayable",
      "type": "function"
    },
    {
      "inputs": [
        {
          "internalType": "address",
          "name": "from",
          "type": "address"
        },
        {
          "internalType": "address",
          "name": "to",
          "type": "address"
        },
        {
          "internalType": "uint256",
          "name": "value",
          "type": "uint256"
        }
      ],
      "name": "transferFrom",
      "outputs": [
        {
          "internalType": "bool",
          "name": "",
          "type": "bool"
        }
      ],
      "stateMutability": "nonpayable",
      "type": "function"
    },
    {
      "inputs": [
        {
          "internalType": "address",
          "name": "to",
          "type": "address"
        },
        {
          "internalType": "uint256",
          "name": "amount",
          "type": "uint256"
        }
      ],
      "name": "transferShares",
      "outputs": [],
      "stateMutability": "nonpayable",
      "type": "function"
    },
    {
      "inputs": [
        {
          "internalType": "uint256",
          "name": "amount",
          "type": "uint256"
        }
      ],
      "name": "unstake",
      "outputs": [],
      "stateMutability": "nonpayable",
      "type": "function"
    },
    {
      "inputs": [
        {
          "internalType": "uint256",
          "name": "amount",
          "type": "uint256"
        }
      ],
      "name": "unsubscribeByToken",
      "outputs": [],
      "stateMutability": "nonpayable",
      "type": "function"
    },
    {
      "inputs": [
        {
          "internalType": "address",
          "name": "beneficiaryAddress",
          "type": "address"
        },
        {
          "internalType": "uint256",
          "name": "timestamp",
          "type": "uint256"
        }
      ],
      "name": "vestedAmount",
      "outputs": [
        {
          "internalType": "uint256",
          "name": "",
          "type": "uint256"
        }
      ],
      "stateMutability": "view",
      "type": "function"
    },
    {
      "stateMutability": "payable",
      "type": "receive"
    }
  ],
  "transactionHash": "0x0aaf3f9bab32cbfd191a9636b0388abb890cc7228c47fe9047780e0029f18fc2",
  "args": [
    "0x45aBBC64421a54CbffF878985AE6c4F0cfacfDb7",
    "Space",
    "xSPACE"
  ],
  "numDeployments": 3,
  "solcInputHash": "9c0f622ea4ac1548d69f4c102b5b59fa",
  "bytecode": "0x6101806040526706f05b59d3b200006009553480156200001e57600080fd5b506040516200397a3803806200397a8339810160408190526200004191620002a3565b6040805180820190915260018152603160f81b602082015282908190818460036200006d8382620003bc565b5060046200007c8282620003bc565b506200008e9150839050600562000151565b610120526200009f81600662000151565b61014052815160208084019190912060e052815190820120610100524660a0526200012d60e05161010051604080517f8b73c3c69bb8fe3d512ecc4cf759cc79239f7b179b0ffacaa9a75d522b39400f60208201529081019290925260608201524660808201523060a082015260009060c00160405160208183030381529060405280519060200120905090565b60805250503060c05250506001600855506001600160a01b031661016052620004e2565b6000602083511015620001715762000169836200018a565b905062000184565b816200017e8482620003bc565b5060ff90505b92915050565b600080829050601f81511115620001c1578260405163305a27a960e01b8152600401620001b8919062000488565b60405180910390fd5b8051620001ce82620004bd565b179392505050565b634e487b7160e01b600052604160045260246000fd5b60005b8381101562000209578181015183820152602001620001ef565b50506000910152565b600082601f8301126200022457600080fd5b81516001600160401b0380821115620002415762000241620001d6565b604051601f8301601f19908116603f011681019082821181831017156200026c576200026c620001d6565b816040528381528660208588010111156200028657600080fd5b62000299846020830160208901620001ec565b9695505050505050565b600080600060608486031215620002b957600080fd5b83516001600160a01b0381168114620002d157600080fd5b60208501519093506001600160401b0380821115620002ef57600080fd5b620002fd8783880162000212565b935060408601519150808211156200031457600080fd5b50620003238682870162000212565b9150509250925092565b600181811c908216806200034257607f821691505b6020821081036200036357634e487b7160e01b600052602260045260246000fd5b50919050565b601f821115620003b757600081815260208120601f850160051c81016020861015620003925750805b601f850160051c820191505b81811015620003b3578281556001016200039e565b5050505b505050565b81516001600160401b03811115620003d857620003d8620001d6565b620003f081620003e984546200032d565b8462000369565b602080601f8311600181146200042857600084156200040f5750858301515b600019600386901b1c1916600185901b178555620003b3565b600085815260208120601f198616915b82811015620004595788860151825594840194600190910190840162000438565b5085821015620004785787850151600019600388901b60f8161c191681555b5050505050600190811b01905550565b6020815260008251806020840152620004a9816040850160208701620001ec565b601f01601f19169190910160400192915050565b80516020808301519190811015620003635760001960209190910360031b1b16919050565b60805160a05160c05160e0516101005161012051610140516101605161340f6200056b600039600081816106a401528181610e4801528181610f700152818161160d0152818161168a0152611b61015260006123480152600061231b015260006122c30152600061229b015260006121f6015260006122200152600061224a015261340f6000f3fe6080604052600436106103345760003560e01c80638129fc1c116101ae578063b60e3455116100eb578063d505accf1161008f578063dd62ed3e1161006c578063dd62ed3e14610aea578063e4849b3214610b30578063f23a6e6114610b43578063fc0c546a14610b6f57005b8063d505accf14610a95578063d611740f14610ab5578063dcb2a3f514610aca57005b8063c2507ac1116100c8578063c2507ac114610a18578063cd5c642614610a58578063d12f208214610a6d578063d26942ec14610a7557005b8063b60e3455146109a8578063babd8373146109bd578063bc197c81146109d357005b8063a694fc3a11610152578063a9059cbb1161012f578063a9059cbb1461090f578063af157c191461092f578063b40cd21d14610951578063b579184f1461098857005b8063a694fc3a146108c8578063a6f2ae3a146108e8578063a8d5fd65146108f057005b80638fcb4e5b1161018b5780638fcb4e5b1461085e57806392fd9e8b1461087e57806395d89b4114610893578063a2dc0574146108a857005b80638129fc1c146107d957806384b0196e146107ee5780638fc7a25d1461081657005b80633644e5151161027c57806360104e11116102205780636e54a87c116101fd5780636e54a87c1461074357806370a08231146107635780637c2eb78c146107995780637ecebe00146107b957005b806360104e11146106de5780636b69e05b1461070e5780636c7e63b01461072357005b80633d8270f5116102595780633d8270f5146105e35780634cf088d9146106385780634cf518a1146106725780634d853ee51461069257005b80633644e51514610597578063395afcca146105ac5780633b47a9ac146105c157005b806317cf5391116102e357806323b872dd116102c057806323b872dd1461052657806323ca0eb0146105465780632e17de781461055b578063313ce5671461057b57005b806317cf5391146104d157806318160ddd146104f15780631a5ee7791461050657005b8063095ea7b311610311578063095ea7b3146104625780630cbebc241461048257806316a78b04146104af57005b806301ffc9a7146103e857806306fdde031461041d578063083966461461043f57005b366103e6576009543490600090670de0b6b3a76400009061035590846128e4565b61035f91906128fb565b9050600061036d828461291d565b905081600d60000160008282546103849190612930565b90915550506014805482919060009061039e908490612930565b909155505060408051338152602081018490529081018290527f74cf3d18d0ddca79038197ad0dd2c7fa5005ef61a5d1ed190e8a8a437e2fcf109060600160405180910390a1005b005b3480156103f457600080fd5b50610408610403366004612943565b610b8e565b60405190151581526020015b60405180910390f35b34801561042957600080fd5b50610432610bc5565b60405161041491906129b3565b34801561044b57600080fd5b50610454610c57565b604051908152602001610414565b34801561046e57600080fd5b5061040861047d3660046129db565b610cd3565b34801561048e57600080fd5b506104a261049d366004612a07565b610ceb565b6040516104149190612a24565b3480156104bb57600080fd5b506104c4610da0565b6040516104149190612a5d565b3480156104dd57600080fd5b506104546104ec3660046129db565b610ed0565b3480156104fd57600080fd5b50600254610454565b34801561051257600080fd5b506103e6610521366004612b4c565b610f65565b34801561053257600080fd5b50610408610541366004612b65565b611040565b34801561055257600080fd5b506103e6611064565b34801561056757600080fd5b506103e6610576366004612b4c565b6110ca565b34801561058757600080fd5b5060405160128152602001610414565b3480156105a357600080fd5b50610454611146565b3480156105b857600080fd5b506103e6611150565b3480156105cd57600080fd5b506105d66111c7565b6040516104149190612ba6565b3480156105ef57600080fd5b506106036105fe366004612a07565b611242565b604051610414919081518152602080830151908201526040808301519082015260609182015115159181019190915260800190565b34801561064457600080fd5b5060145460155460165461065792919083565b60408051938452602084019290925290820152606001610414565b34801561067e57600080fd5b506103e661068d366004612c13565b6112f2565b34801561069e57600080fd5b506106c67f000000000000000000000000000000000000000000000000000000000000000081565b6040516001600160a01b039091168152602001610414565b3480156106ea57600080fd5b506106f361138b565b60408051825181526020928301519281019290925201610414565b34801561071a57600080fd5b50610454611410565b34801561072f57600080fd5b506103e661073e366004612b4c565b61149d565b34801561074f57600080fd5b506103e661075e366004612a07565b611543565b34801561076f57600080fd5b5061045461077e366004612a07565b6001600160a01b031660009081526020819052604090205490565b3480156107a557600080fd5b506103e66107b4366004612b4c565b61158a565b3480156107c557600080fd5b506104546107d4366004612a07565b6115d1565b3480156107e557600080fd5b506103e66115ef565b3480156107fa57600080fd5b50610803611720565b6040516104149796959493929190612c4e565b34801561082257600080fd5b50610836610831366004612b4c565b611766565b604080519586526020860194909452928401919091526060830152608082015260a001610414565b34801561086a57600080fd5b506103e66108793660046129db565b6117fe565b34801561088a57600080fd5b506103e661188d565b34801561089f57600080fd5b50610432611914565b3480156108b457600080fd5b506104546108c3366004612a07565b611923565b3480156108d457600080fd5b506103e66108e3366004612b4c565b6119aa565b6104546119f1565b3480156108fc57600080fd5b50600d54600e54600f5461065792919083565b34801561091b57600080fd5b5061040861092a3660046129db565b611a84565b34801561093b57600080fd5b50610944611a92565b6040516104149190612ce4565b34801561095d57600080fd5b50610966611b0d565b6040805182518152602080840151908201529181015190820152606001610414565b34801561099457600080fd5b506103e66109a3366004612a07565b611b56565b3480156109b457600080fd5b506103e6611c04565b3480156109c957600080fd5b5061045460095481565b3480156109df57600080fd5b506109ff6109ee366004612eab565b63bc197c8160e01b95945050505050565b6040516001600160e01b03199091168152602001610414565b348015610a2457600080fd5b50610a38610a33366004612b4c565b611c3c565b604080519485526020850193909352918301526060820152608001610414565b348015610a6457600080fd5b506103e6611ccf565b6103e6611d07565b348015610a8157600080fd5b50610454610a903660046129db565b611e2d565b348015610aa157600080fd5b506103e6610ab0366004612f59565b611e7e565b348015610ac157600080fd5b50610454611fb8565b348015610ad657600080fd5b50610454610ae5366004612a07565b611fe7565b348015610af657600080fd5b50610454610b05366004612fd0565b6001600160a01b03918216600090815260016020908152604080832093909416825291909152205490565b610454610b3e366004612b4c565b612031565b348015610b4f57600080fd5b506109ff610b5e366004613009565b63f23a6e6160e01b95945050505050565b348015610b7b57600080fd5b50600a54600b54600c5461065792919083565b60006001600160e01b03198216630271189760e51b1480610bbf57506301ffc9a760e01b6001600160e01b03198316145b92915050565b606060038054610bd490613072565b80601f0160208091040260200160405190810160405280929190818152602001828054610c0090613072565b8015610c4d5780601f10610c2257610100808354040283529160200191610c4d565b820191906000526020600020905b815481529060010190602001808311610c3057829003601f168201915b5050505050905090565b604051631026011560e11b815260146004820152600090731f716bc526465101349273087367ea9850CdFC179063204c022a90602401602060405180830381865af4158015610caa573d6000803e3d6000fd5b505050506040513d601f19601f82011682018060405250810190610cce91906130ac565b905090565b600033610ce18185856120d6565b5060019392505050565b610d1d6040518060a0016040528060008152602001600081526020016000815260200160008152602001600081525090565b60405163243a0d8560e21b8152601960048201526001600160a01b03831660248201527374cD6084EB3A834e4E9e90f900c62794a951eA03906390e836149060440160a060405180830381865af4158015610d7c573d6000803e3d6000fd5b505050506040513d601f19601f82011682018060405250810190610bbf9190613135565b610e1b604051806101c00160405280606081526020016060815260200160006001600160a01b0316815260200160008152602001600081526020016000815260200160008152602001600081526020016000815260200160008152602001600081526020016000815260200160008152602001600081525090565b604051806101c00160405280610e2f610bc5565b8152602001610e3c611914565b81526001600160a01b037f0000000000000000000000000000000000000000000000000000000000000000166020820152600a546040820152600b546060820152600c546080820152600d5460a082015260145460c082015260195460e0820152601a54610100820152601554610120820152601654610140820152600e54610160820152600f5461018090910152919050565b604051634ee4b51d60e11b8152600d60048201526001600160a01b038316602482015260448101829052600090738c86C104a2358dC47530378f11aeD5d90CD3bC5C90639dc96a3a906064015b602060405180830381865af4158015610f3a573d6000803e3d6000fd5b505050506040513d601f19601f82011682018060405250810190610f5e91906130ac565b9392505050565b336001600160a01b037f00000000000000000000000000000000000000000000000000000000000000001614610fd15760405162461bcd60e51b815260206004820152600c60248201526b27b7363c902337bab73232b960a11b60448201526064015b60405180910390fd5b6040516303adcc8b60e11b815260196004820152602481018290527374cD6084EB3A834e4E9e90f900c62794a951eA039063075b9916906044015b60006040518083038186803b15801561102457600080fd5b505af4158015611038573d6000803e3d6000fd5b505050505b50565b60003361104e8582856120e8565b611059858585612160565b506001949350505050565b604051636679b0f960e11b815260146004820152731f716bc526465101349273087367ea9850CdFC179063ccf361f2906024015b60006040518083038186803b1580156110b057600080fd5b505af41580156110c4573d6000803e3d6000fd5b50505050565b6110d26121bf565b60405162c4a11560e11b81526014600482015260248101829052731f716bc526465101349273087367ea9850CdFC1790630189422a906044015b60006040518083038186803b15801561112457600080fd5b505af4158015611138573d6000803e3d6000fd5b5050505061103d6001600855565b6000610cce6121e9565b6111586121bf565b6040516340b7c67d60e11b8152600d6004820152738c86C104a2358dC47530378f11aeD5d90CD3bC5C9063816f8cfa9060240160006040518083038186803b1580156111a357600080fd5b505af41580156111b7573d6000803e3d6000fd5b505050506111c56001600855565b565b6040516336ca8ddb60e21b8152601960048201526060907374cD6084EB3A834e4E9e90f900c62794a951eA039063db2a376c90602401600060405180830381865af415801561121a573d6000803e3d6000fd5b505050506040513d6000823e601f3d908101601f19168201604052610cce9190810190613151565b61126f60405180608001604052806000815260200160008152602001600081526020016000151581525090565b604051635fbab1e560e01b8152600d60048201526001600160a01b0383166024820152738c86C104a2358dC47530378f11aeD5d90CD3bC5C90635fbab1e590604401608060405180830381865af41580156112ce573d6000803e3d6000fd5b505050506040513d601f19601f82011682018060405250810190610bbf91906131eb565b6112fa6121bf565b60405163040c829560e51b8152600d60048201526001600160a01b0385166024820152604481018490526064810183905260848101829052738c86C104a2358dC47530378f11aeD5d90CD3bC5C9063819052a09060a40160006040518083038186803b15801561136957600080fd5b505af415801561137d573d6000803e3d6000fd5b505050506110c46001600855565b604080518082018252600080825260208201529051633dc2114560e21b8152601960048201527374cD6084EB3A834e4E9e90f900c62794a951eA039063f7084514906024016040805180830381865af41580156113ec573d6000803e3d6000fd5b505050506040513d601f19601f82011682018060405250810190610cce919061325c565b600061141a6121bf565b60405163710e206160e11b815260146004820152731f716bc526465101349273087367ea9850CdFC179063e21c40c290602401602060405180830381865af415801561146a573d6000803e3d6000fd5b505050506040513d601f19601f8201168201806040525081019061148e91906130ac565b905061149a6001600855565b90565b6114a56121bf565b60006114af611fb8565b905060006114bd82846128fb565b60405162dd80cb60e11b8152601960048201526024810185905260448101829052600160648201529091507374cD6084EB3A834e4E9e90f900c62794a951eA03906301bb01969060840160006040518083038186803b15801561151f57600080fd5b505af4158015611533573d6000803e3d6000fd5b50505050505061103d6001600855565b604051630ecb5ced60e21b8152601960048201526001600160a01b03821660248201527374cD6084EB3A834e4E9e90f900c62794a951eA0390633b2d73b49060440161100c565b6115926121bf565b604051630444fc6f60e51b815260196004820152602481018290527374cD6084EB3A834e4E9e90f900c62794a951eA039063889f8de09060440161110c565b6001600160a01b038116600090815260076020526040812054610bbf565b60405163a9479ab160e01b8152600d60048201526001600160a01b037f0000000000000000000000000000000000000000000000000000000000000000166024820152738c86C104a2358dC47530378f11aeD5d90CD3bC5C9063a9479ab19060440160006040518083038186803b15801561166957600080fd5b505af415801561167d573d6000803e3d6000fd5b5050506001600160a01b037f000000000000000000000000000000000000000000000000000000000000000016600090815260106020908152604091829020620f42409055660746a52880000060195581516060810183526801a055690d9db800008082526b037790a0e8714009b49c00009282018390527305a37324b8ac5eceebef390a22a97c200000000091909301819052600a92909255600b55600c5550565b600060608060008060006060611734612314565b61173c612341565b60408051600080825260208201909252600f60f81b9b939a50919850469750309650945092509050565b604051633d5fa9d760e01b8152600a6004820152602481018290526000908190819081908190737341A3Bd560F830AB179729763dA8329a4EaE65B90633d5fa9d79060440160a060405180830381865af41580156117c8573d6000803e3d6000fd5b505050506040513d601f19601f820116820180604052508101906117ec919061328e565b939a9299509097509550909350915050565b6118066121bf565b6040516379a8803f60e11b8152600d60048201526001600160a01b038316602482015260448101829052738c86C104a2358dC47530378f11aeD5d90CD3bC5C9063f351007e9060640160006040518083038186803b15801561186757600080fd5b505af415801561187b573d6000803e3d6000fd5b505050506118896001600855565b5050565b6118956121bf565b60405163109bf85d60e11b8152600d6004820152738c86C104a2358dC47530378f11aeD5d90CD3bC5C90632137f0ba90602401602060405180830381865af41580156118e5573d6000803e3d6000fd5b505050506040513d601f19601f8201168201806040525081019061190991906130ac565b506111c56001600855565b606060048054610bd490613072565b604051630157d38b60e71b8152601460048201526001600160a01b0382166024820152600090731f716bc526465101349273087367ea9850CdFC179063abe9c580906044015b602060405180830381865af4158015611986573d6000803e3d6000fd5b505050506040513d601f19601f82011682018060405250810190610bbf91906130ac565b6119b26121bf565b604051632c4780bf60e11b81526014600482015260248101829052731f716bc526465101349273087367ea9850CdFC179063588f017e9060440161110c565b60006119fb6121bf565b60405163b01d1a5560e01b8152600a6004820152346024820152600090737341A3Bd560F830AB179729763dA8329a4EaE65B9063b01d1a5590604401602060405180830381865af4158015611a54573d6000803e3d6000fd5b505050506040513d601f19601f82011682018060405250810190611a7891906130ac565b905061148e338261236e565b600033610ce1818585612160565b6040516377e7a4e760e01b8152600d6004820152606090738c86C104a2358dC47530378f11aeD5d90CD3bC5C906377e7a4e790602401600060405180830381865af4158015611ae5573d6000803e3d6000fd5b505050506040513d6000823e601f3d908101601f19168201604052610cce91908101906132ce565b611b3160405180606001604052806000815260200160008152602001600081525090565b5060408051606081018252601454815260155460208201526016549181019190915290565b336001600160a01b037f00000000000000000000000000000000000000000000000000000000000000001614611bbd5760405162461bcd60e51b815260206004820152600c60248201526b27b7363c902337bab73232b960a11b6044820152606401610fc8565b60405163a9479ab160e01b8152600d60048201526001600160a01b0382166024820152738c86C104a2358dC47530378f11aeD5d90CD3bC5C9063a9479ab19060440161100c565b604051631a6cb80d60e01b8152601960048201527374cD6084EB3A834e4E9e90f900c62794a951eA0390631a6cb80d90602401611098565b60405163e5fadd1360e01b8152600a600482015260248101829052600090819081908190737341A3Bd560F830AB179729763dA8329a4EaE65B9063e5fadd1390604401608060405180830381865af4158015611c9c573d6000803e3d6000fd5b505050506040513d601f19601f82011682018060405250810190611cc0919061338d565b93509350935093509193509193565b604051632ce9a45f60e01b8152600d6004820152738c86C104a2358dC47530378f11aeD5d90CD3bC5C90632ce9a45f90602401611098565b611d0f6121bf565b60405163b01d1a5560e01b8152600a6004820152346024820181905290600090737341A3Bd560F830AB179729763dA8329a4EaE65B9063b01d1a5590604401602060405180830381865af4158015611d6b573d6000803e3d6000fd5b505050506040513d601f19601f82011682018060405250810190611d8f91906130ac565b90506000611d9b611fb8565b90506000611da982846128fb565b60405162dd80cb60e11b8152601960048201526024810185905260448101829052600060648201529091507374cD6084EB3A834e4E9e90f900c62794a951eA03906301bb01969060840160006040518083038186803b158015611e0b57600080fd5b505af4158015611e1f573d6000803e3d6000fd5b505050506111b7308461236e565b60405163218ed0a160e01b8152601960048201526001600160a01b0383166024820152604481018290526000907374cD6084EB3A834e4E9e90f900c62794a951eA039063218ed0a190606401610f1d565b83421115611ea25760405163313c898160e11b815260048101859052602401610fc8565b60007f6e71edae12b1b97f4d1f60370fef10105fa2faae0126114a169c64845d6126c9888888611eef8c6001600160a01b0316600090815260076020526040902080546001810190915590565b6040805160208101969096526001600160a01b0394851690860152929091166060840152608083015260a082015260c0810186905260e0016040516020818303038152906040528051906020012090506000611f4a826123a4565b90506000611f5a828787876123d1565b9050896001600160a01b0316816001600160a01b031614611fa1576040516325c0072360e11b81526001600160a01b0380831660048301528b166024820152604401610fc8565b611fac8a8a8a6120d6565b50505050505050505050565b60008062278d00601960000154611fcf91906128fb565b90506000611fdc82611c3c565b509195945050505050565b60405163076b6f0360e51b8152600d60048201526001600160a01b0382166024820152600090738c86C104a2358dC47530378f11aeD5d90CD3bC5C9063ed6de06090604401611969565b600061203b6121bf565b60405163a727a3b160e01b8152600a600482015260248101839052600090737341A3Bd560F830AB179729763dA8329a4EaE65B9063a727a3b190604401602060405180830381865af4158015612095573d6000803e3d6000fd5b505050506040513d601f19601f820116820180604052508101906120b991906130ac565b90506120c530826123ff565b90506120d16001600855565b919050565b6120e38383836001612435565b505050565b6001600160a01b0383811660009081526001602090815260408083209386168352929052205460001981146110c4578181101561215157604051637dc7a0d960e11b81526001600160a01b03841660048201526024810182905260448101839052606401610fc8565b6110c484848484036000612435565b6001600160a01b03831661218a57604051634b637e8f60e11b815260006004820152602401610fc8565b6001600160a01b0382166121b45760405163ec442f0560e01b815260006004820152602401610fc8565b6120e383838361250a565b6002600854036121e257604051633ee5aeb560e01b815260040160405180910390fd5b6002600855565b6000306001600160a01b037f00000000000000000000000000000000000000000000000000000000000000001614801561224257507f000000000000000000000000000000000000000000000000000000000000000046145b1561226c57507f000000000000000000000000000000000000000000000000000000000000000090565b610cce604080517f8b73c3c69bb8fe3d512ecc4cf759cc79239f7b179b0ffacaa9a75d522b39400f60208201527f0000000000000000000000000000000000000000000000000000000000000000918101919091527f000000000000000000000000000000000000000000000000000000000000000060608201524660808201523060a082015260009060c00160405160208183030381529060405280519060200120905090565b6060610cce7f00000000000000000000000000000000000000000000000000000000000000006005612634565b6060610cce7f00000000000000000000000000000000000000000000000000000000000000006006612634565b6001600160a01b0382166123985760405163ec442f0560e01b815260006004820152602401610fc8565b6118896000838361250a565b6000610bbf6123b16121e9565b8360405161190160f01b8152600281019290925260228201526042902090565b6000806000806123e3888888886126df565b9250925092506123f382826127ae565b50909695505050505050565b6001600160a01b03821661242957604051634b637e8f60e11b815260006004820152602401610fc8565b6118898260008361250a565b6001600160a01b03841661245f5760405163e602df0560e01b815260006004820152602401610fc8565b6001600160a01b03831661248957604051634a1406b160e11b815260006004820152602401610fc8565b6001600160a01b03808516600090815260016020908152604080832093871683529290522082905580156110c457826001600160a01b0316846001600160a01b03167f8c5be1e5ebec7d5bd14f71427d1e84f3dd0314c0f7b2291e5b200ac8c7c3b925846040516124fc91815260200190565b60405180910390a350505050565b6001600160a01b03831661253557806002600082825461252a9190612930565b909155506125a79050565b6001600160a01b038316600090815260208190526040902054818110156125885760405163391434e360e21b81526001600160a01b03851660048201526024810182905260448101839052606401610fc8565b6001600160a01b03841660009081526020819052604090209082900390555b6001600160a01b0382166125c3576002805482900390556125e2565b6001600160a01b03821660009081526020819052604090208054820190555b816001600160a01b0316836001600160a01b03167fddf252ad1be2c89b69c2b068fc378daa952ba7f163c4a11628f55a4df523b3ef8360405161262791815260200190565b60405180910390a3505050565b606060ff831461264e5761264783612867565b9050610bbf565b81805461265a90613072565b80601f016020809104026020016040519081016040528092919081815260200182805461268690613072565b80156126d35780601f106126a8576101008083540402835291602001916126d3565b820191906000526020600020905b8154815290600101906020018083116126b657829003601f168201915b50505050509050610bbf565b600080807f7fffffffffffffffffffffffffffffff5d576e7357a4501ddfe92f46681b20a084111561271a57506000915060039050826127a4565b604080516000808252602082018084528a905260ff891692820192909252606081018790526080810186905260019060a0016020604051602081039080840390855afa15801561276e573d6000803e3d6000fd5b5050604051601f1901519150506001600160a01b03811661279a575060009250600191508290506127a4565b9250600091508190505b9450945094915050565b60008260038111156127c2576127c26133c3565b036127cb575050565b60018260038111156127df576127df6133c3565b036127fd5760405163f645eedf60e01b815260040160405180910390fd5b6002826003811115612811576128116133c3565b036128325760405163fce698f760e01b815260048101829052602401610fc8565b6003826003811115612846576128466133c3565b03611889576040516335e2f38360e21b815260048101829052602401610fc8565b60606000612874836128a6565b604080516020808252818301909252919250600091906020820181803683375050509182525060208101929092525090565b600060ff8216601f811115610bbf57604051632cd44ac360e21b815260040160405180910390fd5b634e487b7160e01b600052601160045260246000fd5b8082028115828204841417610bbf57610bbf6128ce565b60008261291857634e487b7160e01b600052601260045260246000fd5b500490565b81810381811115610bbf57610bbf6128ce565b80820180821115610bbf57610bbf6128ce565b60006020828403121561295557600080fd5b81356001600160e01b031981168114610f5e57600080fd5b6000815180845260005b8181101561299357602081850181015186830182015201612977565b506000602082860101526020601f19601f83011685010191505092915050565b602081526000610f5e602083018461296d565b6001600160a01b038116811461103d57600080fd5b600080604083850312156129ee57600080fd5b82356129f9816129c6565b946020939093013593505050565b600060208284031215612a1957600080fd5b8135610f5e816129c6565b60a08101610bbf828480518252602081015160208301526040810151604083015260608101516060830152608081015160808301525050565b60208152600082516101c0806020850152612a7c6101e085018361296d565b91506020850151601f19858403016040860152612a99838261296d565b9250506040850151612ab660608601826001600160a01b03169052565b5060608501516080850152608085015160a085015260a085015160c085015260c085015160e085015260e08501516101008181870152808701519150506101208181870152808701519150506101408181870152808701519150506101608181870152808701519150506101808181870152808701519150506101a0818187015280870151838701525050508091505092915050565b600060208284031215612b5e57600080fd5b5035919050565b600080600060608486031215612b7a57600080fd5b8335612b85816129c6565b92506020840135612b95816129c6565b929592945050506040919091013590565b6020808252825182820181905260009190848201906040850190845b818110156123f357612c0083855180518252602081015160208301526040810151604083015260608101516060830152608081015160808301525050565b9284019260a09290920191600101612bc2565b60008060008060808587031215612c2957600080fd5b8435612c34816129c6565b966020860135965060408601359560600135945092505050565b60ff60f81b881681526000602060e081840152612c6e60e084018a61296d565b8381036040850152612c80818a61296d565b606085018990526001600160a01b038816608086015260a0850187905284810360c0860152855180825283870192509083019060005b81811015612cd257835183529284019291840191600101612cb6565b50909c9b505050505050505050505050565b602080825282518282018190526000919060409081850190868401855b82811015612d2f57815180516001600160a01b03168552860151868501529284019290850190600101612d01565b5091979650505050505050565b634e487b7160e01b600052604160045260246000fd5b6040805190810167ffffffffffffffff81118282101715612d7557612d75612d3c565b60405290565b604051601f8201601f1916810167ffffffffffffffff81118282101715612da457612da4612d3c565b604052919050565b600067ffffffffffffffff821115612dc657612dc6612d3c565b5060051b60200190565b600082601f830112612de157600080fd5b81356020612df6612df183612dac565b612d7b565b82815260059290921b84018101918181019086841115612e1557600080fd5b8286015b84811015612e305780358352918301918301612e19565b509695505050505050565b600082601f830112612e4c57600080fd5b813567ffffffffffffffff811115612e6657612e66612d3c565b612e79601f8201601f1916602001612d7b565b818152846020838601011115612e8e57600080fd5b816020850160208301376000918101602001919091529392505050565b600080600080600060a08688031215612ec357600080fd5b8535612ece816129c6565b94506020860135612ede816129c6565b9350604086013567ffffffffffffffff80821115612efb57600080fd5b612f0789838a01612dd0565b94506060880135915080821115612f1d57600080fd5b612f2989838a01612dd0565b93506080880135915080821115612f3f57600080fd5b50612f4c88828901612e3b565b9150509295509295909350565b600080600080600080600060e0888a031215612f7457600080fd5b8735612f7f816129c6565b96506020880135612f8f816129c6565b95506040880135945060608801359350608088013560ff81168114612fb357600080fd5b9699959850939692959460a0840135945060c09093013592915050565b60008060408385031215612fe357600080fd5b8235612fee816129c6565b91506020830135612ffe816129c6565b809150509250929050565b600080600080600060a0868803121561302157600080fd5b853561302c816129c6565b9450602086013561303c816129c6565b93506040860135925060608601359150608086013567ffffffffffffffff81111561306657600080fd5b612f4c88828901612e3b565b600181811c9082168061308657607f821691505b6020821081036130a657634e487b7160e01b600052602260045260246000fd5b50919050565b6000602082840312156130be57600080fd5b5051919050565b600060a082840312156130d757600080fd5b60405160a0810181811067ffffffffffffffff821117156130fa576130fa612d3c565b806040525080915082518152602083015160208201526040830151604082015260608301516060820152608083015160808201525092915050565b600060a0828403121561314757600080fd5b610f5e83836130c5565b6000602080838503121561316457600080fd5b825167ffffffffffffffff81111561317b57600080fd5b8301601f8101851361318c57600080fd5b805161319a612df182612dac565b81815260a091820283018401918482019190888411156131b957600080fd5b938501935b838510156131df576131d089866130c5565b835293840193918501916131be565b50979650505050505050565b6000608082840312156131fd57600080fd5b6040516080810181811067ffffffffffffffff8211171561322057613220612d3c565b80604052508251815260208301516020820152604083015160408201526060830151801515811461325057600080fd5b60608201529392505050565b60006040828403121561326e57600080fd5b613276612d52565b82518152602083015160208201528091505092915050565b600080600080600060a086880312156132a657600080fd5b5050835160208501516040860151606087015160809097015192989197509594509092509050565b600060208083850312156132e157600080fd5b825167ffffffffffffffff8111156132f857600080fd5b8301601f8101851361330957600080fd5b8051613317612df182612dac565b81815260069190911b8201830190838101908783111561333657600080fd5b928401925b8284101561338257604084890312156133545760008081fd5b61335c612d52565b8451613367816129c6565b8152848601518682015282526040909301929084019061333b565b979650505050505050565b600080600080608085870312156133a357600080fd5b505082516020840151604085015160609095015191969095509092509050565b634e487b7160e01b600052602160045260246000fdfea26469706673582212207fac4e2e2466af8642a6e0ddfd2b4f588135fd14fc131479ff7454abddda995564736f6c63430008140033",
  "deployedBytecode": "0x6080604052600436106103345760003560e01c80638129fc1c116101ae578063b60e3455116100eb578063d505accf1161008f578063dd62ed3e1161006c578063dd62ed3e14610aea578063e4849b3214610b30578063f23a6e6114610b43578063fc0c546a14610b6f57005b8063d505accf14610a95578063d611740f14610ab5578063dcb2a3f514610aca57005b8063c2507ac1116100c8578063c2507ac114610a18578063cd5c642614610a58578063d12f208214610a6d578063d26942ec14610a7557005b8063b60e3455146109a8578063babd8373146109bd578063bc197c81146109d357005b8063a694fc3a11610152578063a9059cbb1161012f578063a9059cbb1461090f578063af157c191461092f578063b40cd21d14610951578063b579184f1461098857005b8063a694fc3a146108c8578063a6f2ae3a146108e8578063a8d5fd65146108f057005b80638fcb4e5b1161018b5780638fcb4e5b1461085e57806392fd9e8b1461087e57806395d89b4114610893578063a2dc0574146108a857005b80638129fc1c146107d957806384b0196e146107ee5780638fc7a25d1461081657005b80633644e5151161027c57806360104e11116102205780636e54a87c116101fd5780636e54a87c1461074357806370a08231146107635780637c2eb78c146107995780637ecebe00146107b957005b806360104e11146106de5780636b69e05b1461070e5780636c7e63b01461072357005b80633d8270f5116102595780633d8270f5146105e35780634cf088d9146106385780634cf518a1146106725780634d853ee51461069257005b80633644e51514610597578063395afcca146105ac5780633b47a9ac146105c157005b806317cf5391116102e357806323b872dd116102c057806323b872dd1461052657806323ca0eb0146105465780632e17de781461055b578063313ce5671461057b57005b806317cf5391146104d157806318160ddd146104f15780631a5ee7791461050657005b8063095ea7b311610311578063095ea7b3146104625780630cbebc241461048257806316a78b04146104af57005b806301ffc9a7146103e857806306fdde031461041d578063083966461461043f57005b366103e6576009543490600090670de0b6b3a76400009061035590846128e4565b61035f91906128fb565b9050600061036d828461291d565b905081600d60000160008282546103849190612930565b90915550506014805482919060009061039e908490612930565b909155505060408051338152602081018490529081018290527f74cf3d18d0ddca79038197ad0dd2c7fa5005ef61a5d1ed190e8a8a437e2fcf109060600160405180910390a1005b005b3480156103f457600080fd5b50610408610403366004612943565b610b8e565b60405190151581526020015b60405180910390f35b34801561042957600080fd5b50610432610bc5565b60405161041491906129b3565b34801561044b57600080fd5b50610454610c57565b604051908152602001610414565b34801561046e57600080fd5b5061040861047d3660046129db565b610cd3565b34801561048e57600080fd5b506104a261049d366004612a07565b610ceb565b6040516104149190612a24565b3480156104bb57600080fd5b506104c4610da0565b6040516104149190612a5d565b3480156104dd57600080fd5b506104546104ec3660046129db565b610ed0565b3480156104fd57600080fd5b50600254610454565b34801561051257600080fd5b506103e6610521366004612b4c565b610f65565b34801561053257600080fd5b50610408610541366004612b65565b611040565b34801561055257600080fd5b506103e6611064565b34801561056757600080fd5b506103e6610576366004612b4c565b6110ca565b34801561058757600080fd5b5060405160128152602001610414565b3480156105a357600080fd5b50610454611146565b3480156105b857600080fd5b506103e6611150565b3480156105cd57600080fd5b506105d66111c7565b6040516104149190612ba6565b3480156105ef57600080fd5b506106036105fe366004612a07565b611242565b604051610414919081518152602080830151908201526040808301519082015260609182015115159181019190915260800190565b34801561064457600080fd5b5060145460155460165461065792919083565b60408051938452602084019290925290820152606001610414565b34801561067e57600080fd5b506103e661068d366004612c13565b6112f2565b34801561069e57600080fd5b506106c67f000000000000000000000000000000000000000000000000000000000000000081565b6040516001600160a01b039091168152602001610414565b3480156106ea57600080fd5b506106f361138b565b60408051825181526020928301519281019290925201610414565b34801561071a57600080fd5b50610454611410565b34801561072f57600080fd5b506103e661073e366004612b4c565b61149d565b34801561074f57600080fd5b506103e661075e366004612a07565b611543565b34801561076f57600080fd5b5061045461077e366004612a07565b6001600160a01b031660009081526020819052604090205490565b3480156107a557600080fd5b506103e66107b4366004612b4c565b61158a565b3480156107c557600080fd5b506104546107d4366004612a07565b6115d1565b3480156107e557600080fd5b506103e66115ef565b3480156107fa57600080fd5b50610803611720565b6040516104149796959493929190612c4e565b34801561082257600080fd5b50610836610831366004612b4c565b611766565b604080519586526020860194909452928401919091526060830152608082015260a001610414565b34801561086a57600080fd5b506103e66108793660046129db565b6117fe565b34801561088a57600080fd5b506103e661188d565b34801561089f57600080fd5b50610432611914565b3480156108b457600080fd5b506104546108c3366004612a07565b611923565b3480156108d457600080fd5b506103e66108e3366004612b4c565b6119aa565b6104546119f1565b3480156108fc57600080fd5b50600d54600e54600f5461065792919083565b34801561091b57600080fd5b5061040861092a3660046129db565b611a84565b34801561093b57600080fd5b50610944611a92565b6040516104149190612ce4565b34801561095d57600080fd5b50610966611b0d565b6040805182518152602080840151908201529181015190820152606001610414565b34801561099457600080fd5b506103e66109a3366004612a07565b611b56565b3480156109b457600080fd5b506103e6611c04565b3480156109c957600080fd5b5061045460095481565b3480156109df57600080fd5b506109ff6109ee366004612eab565b63bc197c8160e01b95945050505050565b6040516001600160e01b03199091168152602001610414565b348015610a2457600080fd5b50610a38610a33366004612b4c565b611c3c565b604080519485526020850193909352918301526060820152608001610414565b348015610a6457600080fd5b506103e6611ccf565b6103e6611d07565b348015610a8157600080fd5b50610454610a903660046129db565b611e2d565b348015610aa157600080fd5b506103e6610ab0366004612f59565b611e7e565b348015610ac157600080fd5b50610454611fb8565b348015610ad657600080fd5b50610454610ae5366004612a07565b611fe7565b348015610af657600080fd5b50610454610b05366004612fd0565b6001600160a01b03918216600090815260016020908152604080832093909416825291909152205490565b610454610b3e366004612b4c565b612031565b348015610b4f57600080fd5b506109ff610b5e366004613009565b63f23a6e6160e01b95945050505050565b348015610b7b57600080fd5b50600a54600b54600c5461065792919083565b60006001600160e01b03198216630271189760e51b1480610bbf57506301ffc9a760e01b6001600160e01b03198316145b92915050565b606060038054610bd490613072565b80601f0160208091040260200160405190810160405280929190818152602001828054610c0090613072565b8015610c4d5780601f10610c2257610100808354040283529160200191610c4d565b820191906000526020600020905b815481529060010190602001808311610c3057829003601f168201915b5050505050905090565b604051631026011560e11b81526014600482015260009073__$b2fda0c84abdf24a5bde0680bf090c8e0e$__9063204c022a90602401602060405180830381865af4158015610caa573d6000803e3d6000fd5b505050506040513d601f19601f82011682018060405250810190610cce91906130ac565b905090565b600033610ce18185856120d6565b5060019392505050565b610d1d6040518060a0016040528060008152602001600081526020016000815260200160008152602001600081525090565b60405163243a0d8560e21b8152601960048201526001600160a01b038316602482015273__$481ca34c951945c71f6bbcbbb91702f088$__906390e836149060440160a060405180830381865af4158015610d7c573d6000803e3d6000fd5b505050506040513d601f19601f82011682018060405250810190610bbf9190613135565b610e1b604051806101c00160405280606081526020016060815260200160006001600160a01b0316815260200160008152602001600081526020016000815260200160008152602001600081526020016000815260200160008152602001600081526020016000815260200160008152602001600081525090565b604051806101c00160405280610e2f610bc5565b8152602001610e3c611914565b81526001600160a01b037f0000000000000000000000000000000000000000000000000000000000000000166020820152600a546040820152600b546060820152600c546080820152600d5460a082015260145460c082015260195460e0820152601a54610100820152601554610120820152601654610140820152600e54610160820152600f5461018090910152919050565b604051634ee4b51d60e11b8152600d60048201526001600160a01b03831660248201526044810182905260009073__$aee754128d0d1775ed250cc6ad74f33f25$__90639dc96a3a906064015b602060405180830381865af4158015610f3a573d6000803e3d6000fd5b505050506040513d601f19601f82011682018060405250810190610f5e91906130ac565b9392505050565b336001600160a01b037f00000000000000000000000000000000000000000000000000000000000000001614610fd15760405162461bcd60e51b815260206004820152600c60248201526b27b7363c902337bab73232b960a11b60448201526064015b60405180910390fd5b6040516303adcc8b60e11b8152601960048201526024810182905273__$481ca34c951945c71f6bbcbbb91702f088$__9063075b9916906044015b60006040518083038186803b15801561102457600080fd5b505af4158015611038573d6000803e3d6000fd5b505050505b50565b60003361104e8582856120e8565b611059858585612160565b506001949350505050565b604051636679b0f960e11b81526014600482015273__$b2fda0c84abdf24a5bde0680bf090c8e0e$__9063ccf361f2906024015b60006040518083038186803b1580156110b057600080fd5b505af41580156110c4573d6000803e3d6000fd5b50505050565b6110d26121bf565b60405162c4a11560e11b8152601460048201526024810182905273__$b2fda0c84abdf24a5bde0680bf090c8e0e$__90630189422a906044015b60006040518083038186803b15801561112457600080fd5b505af4158015611138573d6000803e3d6000fd5b5050505061103d6001600855565b6000610cce6121e9565b6111586121bf565b6040516340b7c67d60e11b8152600d600482015273__$aee754128d0d1775ed250cc6ad74f33f25$__9063816f8cfa9060240160006040518083038186803b1580156111a357600080fd5b505af41580156111b7573d6000803e3d6000fd5b505050506111c56001600855565b565b6040516336ca8ddb60e21b81526019600482015260609073__$481ca34c951945c71f6bbcbbb91702f088$__9063db2a376c90602401600060405180830381865af415801561121a573d6000803e3d6000fd5b505050506040513d6000823e601f3d908101601f19168201604052610cce9190810190613151565b61126f60405180608001604052806000815260200160008152602001600081526020016000151581525090565b604051635fbab1e560e01b8152600d60048201526001600160a01b038316602482015273__$aee754128d0d1775ed250cc6ad74f33f25$__90635fbab1e590604401608060405180830381865af41580156112ce573d6000803e3d6000fd5b505050506040513d601f19601f82011682018060405250810190610bbf91906131eb565b6112fa6121bf565b60405163040c829560e51b8152600d60048201526001600160a01b038516602482015260448101849052606481018390526084810182905273__$aee754128d0d1775ed250cc6ad74f33f25$__9063819052a09060a40160006040518083038186803b15801561136957600080fd5b505af415801561137d573d6000803e3d6000fd5b505050506110c46001600855565b604080518082018252600080825260208201529051633dc2114560e21b81526019600482015273__$481ca34c951945c71f6bbcbbb91702f088$__9063f7084514906024016040805180830381865af41580156113ec573d6000803e3d6000fd5b505050506040513d601f19601f82011682018060405250810190610cce919061325c565b600061141a6121bf565b60405163710e206160e11b81526014600482015273__$b2fda0c84abdf24a5bde0680bf090c8e0e$__9063e21c40c290602401602060405180830381865af415801561146a573d6000803e3d6000fd5b505050506040513d601f19601f8201168201806040525081019061148e91906130ac565b905061149a6001600855565b90565b6114a56121bf565b60006114af611fb8565b905060006114bd82846128fb565b60405162dd80cb60e11b81526019600482015260248101859052604481018290526001606482015290915073__$481ca34c951945c71f6bbcbbb91702f088$__906301bb01969060840160006040518083038186803b15801561151f57600080fd5b505af4158015611533573d6000803e3d6000fd5b50505050505061103d6001600855565b604051630ecb5ced60e21b8152601960048201526001600160a01b038216602482015273__$481ca34c951945c71f6bbcbbb91702f088$__90633b2d73b49060440161100c565b6115926121bf565b604051630444fc6f60e51b8152601960048201526024810182905273__$481ca34c951945c71f6bbcbbb91702f088$__9063889f8de09060440161110c565b6001600160a01b038116600090815260076020526040812054610bbf565b60405163a9479ab160e01b8152600d60048201526001600160a01b037f000000000000000000000000000000000000000000000000000000000000000016602482015273__$aee754128d0d1775ed250cc6ad74f33f25$__9063a9479ab19060440160006040518083038186803b15801561166957600080fd5b505af415801561167d573d6000803e3d6000fd5b5050506001600160a01b037f000000000000000000000000000000000000000000000000000000000000000016600090815260106020908152604091829020620f42409055660746a52880000060195581516060810183526801a055690d9db800008082526b037790a0e8714009b49c00009282018390527305a37324b8ac5eceebef390a22a97c200000000091909301819052600a92909255600b55600c5550565b600060608060008060006060611734612314565b61173c612341565b60408051600080825260208201909252600f60f81b9b939a50919850469750309650945092509050565b604051633d5fa9d760e01b8152600a600482015260248101829052600090819081908190819073__$ff3a2bd404286ed9d5b3b36a2bfde83b52$__90633d5fa9d79060440160a060405180830381865af41580156117c8573d6000803e3d6000fd5b505050506040513d601f19601f820116820180604052508101906117ec919061328e565b939a9299509097509550909350915050565b6118066121bf565b6040516379a8803f60e11b8152600d60048201526001600160a01b03831660248201526044810182905273__$aee754128d0d1775ed250cc6ad74f33f25$__9063f351007e9060640160006040518083038186803b15801561186757600080fd5b505af415801561187b573d6000803e3d6000fd5b505050506118896001600855565b5050565b6118956121bf565b60405163109bf85d60e11b8152600d600482015273__$aee754128d0d1775ed250cc6ad74f33f25$__90632137f0ba90602401602060405180830381865af41580156118e5573d6000803e3d6000fd5b505050506040513d601f19601f8201168201806040525081019061190991906130ac565b506111c56001600855565b606060048054610bd490613072565b604051630157d38b60e71b8152601460048201526001600160a01b038216602482015260009073__$b2fda0c84abdf24a5bde0680bf090c8e0e$__9063abe9c580906044015b602060405180830381865af4158015611986573d6000803e3d6000fd5b505050506040513d601f19601f82011682018060405250810190610bbf91906130ac565b6119b26121bf565b604051632c4780bf60e11b8152601460048201526024810182905273__$b2fda0c84abdf24a5bde0680bf090c8e0e$__9063588f017e9060440161110c565b60006119fb6121bf565b60405163b01d1a5560e01b8152600a600482015234602482015260009073__$ff3a2bd404286ed9d5b3b36a2bfde83b52$__9063b01d1a5590604401602060405180830381865af4158015611a54573d6000803e3d6000fd5b505050506040513d601f19601f82011682018060405250810190611a7891906130ac565b905061148e338261236e565b600033610ce1818585612160565b6040516377e7a4e760e01b8152600d600482015260609073__$aee754128d0d1775ed250cc6ad74f33f25$__906377e7a4e790602401600060405180830381865af4158015611ae5573d6000803e3d6000fd5b505050506040513d6000823e601f3d908101601f19168201604052610cce91908101906132ce565b611b3160405180606001604052806000815260200160008152602001600081525090565b5060408051606081018252601454815260155460208201526016549181019190915290565b336001600160a01b037f00000000000000000000000000000000000000000000000000000000000000001614611bbd5760405162461bcd60e51b815260206004820152600c60248201526b27b7363c902337bab73232b960a11b6044820152606401610fc8565b60405163a9479ab160e01b8152600d60048201526001600160a01b038216602482015273__$aee754128d0d1775ed250cc6ad74f33f25$__9063a9479ab19060440161100c565b604051631a6cb80d60e01b81526019600482015273__$481ca34c951945c71f6bbcbbb91702f088$__90631a6cb80d90602401611098565b60405163e5fadd1360e01b8152600a60048201526024810182905260009081908190819073__$ff3a2bd404286ed9d5b3b36a2bfde83b52$__9063e5fadd1390604401608060405180830381865af4158015611c9c573d6000803e3d6000fd5b505050506040513d601f19601f82011682018060405250810190611cc0919061338d565b93509350935093509193509193565b604051632ce9a45f60e01b8152600d600482015273__$aee754128d0d1775ed250cc6ad74f33f25$__90632ce9a45f90602401611098565b611d0f6121bf565b60405163b01d1a5560e01b8152600a600482015234602482018190529060009073__$ff3a2bd404286ed9d5b3b36a2bfde83b52$__9063b01d1a5590604401602060405180830381865af4158015611d6b573d6000803e3d6000fd5b505050506040513d601f19601f82011682018060405250810190611d8f91906130ac565b90506000611d9b611fb8565b90506000611da982846128fb565b60405162dd80cb60e11b81526019600482015260248101859052604481018290526000606482015290915073__$481ca34c951945c71f6bbcbbb91702f088$__906301bb01969060840160006040518083038186803b158015611e0b57600080fd5b505af4158015611e1f573d6000803e3d6000fd5b505050506111b7308461236e565b60405163218ed0a160e01b8152601960048201526001600160a01b03831660248201526044810182905260009073__$481ca34c951945c71f6bbcbbb91702f088$__9063218ed0a190606401610f1d565b83421115611ea25760405163313c898160e11b815260048101859052602401610fc8565b60007f6e71edae12b1b97f4d1f60370fef10105fa2faae0126114a169c64845d6126c9888888611eef8c6001600160a01b0316600090815260076020526040902080546001810190915590565b6040805160208101969096526001600160a01b0394851690860152929091166060840152608083015260a082015260c0810186905260e0016040516020818303038152906040528051906020012090506000611f4a826123a4565b90506000611f5a828787876123d1565b9050896001600160a01b0316816001600160a01b031614611fa1576040516325c0072360e11b81526001600160a01b0380831660048301528b166024820152604401610fc8565b611fac8a8a8a6120d6565b50505050505050505050565b60008062278d00601960000154611fcf91906128fb565b90506000611fdc82611c3c565b509195945050505050565b60405163076b6f0360e51b8152600d60048201526001600160a01b038216602482015260009073__$aee754128d0d1775ed250cc6ad74f33f25$__9063ed6de06090604401611969565b600061203b6121bf565b60405163a727a3b160e01b8152600a60048201526024810183905260009073__$ff3a2bd404286ed9d5b3b36a2bfde83b52$__9063a727a3b190604401602060405180830381865af4158015612095573d6000803e3d6000fd5b505050506040513d601f19601f820116820180604052508101906120b991906130ac565b90506120c530826123ff565b90506120d16001600855565b919050565b6120e38383836001612435565b505050565b6001600160a01b0383811660009081526001602090815260408083209386168352929052205460001981146110c4578181101561215157604051637dc7a0d960e11b81526001600160a01b03841660048201526024810182905260448101839052606401610fc8565b6110c484848484036000612435565b6001600160a01b03831661218a57604051634b637e8f60e11b815260006004820152602401610fc8565b6001600160a01b0382166121b45760405163ec442f0560e01b815260006004820152602401610fc8565b6120e383838361250a565b6002600854036121e257604051633ee5aeb560e01b815260040160405180910390fd5b6002600855565b6000306001600160a01b037f00000000000000000000000000000000000000000000000000000000000000001614801561224257507f000000000000000000000000000000000000000000000000000000000000000046145b1561226c57507f000000000000000000000000000000000000000000000000000000000000000090565b610cce604080517f8b73c3c69bb8fe3d512ecc4cf759cc79239f7b179b0ffacaa9a75d522b39400f60208201527f0000000000000000000000000000000000000000000000000000000000000000918101919091527f000000000000000000000000000000000000000000000000000000000000000060608201524660808201523060a082015260009060c00160405160208183030381529060405280519060200120905090565b6060610cce7f00000000000000000000000000000000000000000000000000000000000000006005612634565b6060610cce7f00000000000000000000000000000000000000000000000000000000000000006006612634565b6001600160a01b0382166123985760405163ec442f0560e01b815260006004820152602401610fc8565b6118896000838361250a565b6000610bbf6123b16121e9565b8360405161190160f01b8152600281019290925260228201526042902090565b6000806000806123e3888888886126df565b9250925092506123f382826127ae565b50909695505050505050565b6001600160a01b03821661242957604051634b637e8f60e11b815260006004820152602401610fc8565b6118898260008361250a565b6001600160a01b03841661245f5760405163e602df0560e01b815260006004820152602401610fc8565b6001600160a01b03831661248957604051634a1406b160e11b815260006004820152602401610fc8565b6001600160a01b03808516600090815260016020908152604080832093871683529290522082905580156110c457826001600160a01b0316846001600160a01b03167f8c5be1e5ebec7d5bd14f71427d1e84f3dd0314c0f7b2291e5b200ac8c7c3b925846040516124fc91815260200190565b60405180910390a350505050565b6001600160a01b03831661253557806002600082825461252a9190612930565b909155506125a79050565b6001600160a01b038316600090815260208190526040902054818110156125885760405163391434e360e21b81526001600160a01b03851660048201526024810182905260448101839052606401610fc8565b6001600160a01b03841660009081526020819052604090209082900390555b6001600160a01b0382166125c3576002805482900390556125e2565b6001600160a01b03821660009081526020819052604090208054820190555b816001600160a01b0316836001600160a01b03167fddf252ad1be2c89b69c2b068fc378daa952ba7f163c4a11628f55a4df523b3ef8360405161262791815260200190565b60405180910390a3505050565b606060ff831461264e5761264783612867565b9050610bbf565b81805461265a90613072565b80601f016020809104026020016040519081016040528092919081815260200182805461268690613072565b80156126d35780601f106126a8576101008083540402835291602001916126d3565b820191906000526020600020905b8154815290600101906020018083116126b657829003601f168201915b50505050509050610bbf565b600080807f7fffffffffffffffffffffffffffffff5d576e7357a4501ddfe92f46681b20a084111561271a57506000915060039050826127a4565b604080516000808252602082018084528a905260ff891692820192909252606081018790526080810186905260019060a0016020604051602081039080840390855afa15801561276e573d6000803e3d6000fd5b5050604051601f1901519150506001600160a01b03811661279a575060009250600191508290506127a4565b9250600091508190505b9450945094915050565b60008260038111156127c2576127c26133c3565b036127cb575050565b60018260038111156127df576127df6133c3565b036127fd5760405163f645eedf60e01b815260040160405180910390fd5b6002826003811115612811576128116133c3565b036128325760405163fce698f760e01b815260048101829052602401610fc8565b6003826003811115612846576128466133c3565b03611889576040516335e2f38360e21b815260048101829052602401610fc8565b60606000612874836128a6565b604080516020808252818301909252919250600091906020820181803683375050509182525060208101929092525090565b600060ff8216601f811115610bbf57604051632cd44ac360e21b815260040160405180910390fd5b634e487b7160e01b600052601160045260246000fd5b8082028115828204841417610bbf57610bbf6128ce565b60008261291857634e487b7160e01b600052601260045260246000fd5b500490565b81810381811115610bbf57610bbf6128ce565b80820180821115610bbf57610bbf6128ce565b60006020828403121561295557600080fd5b81356001600160e01b031981168114610f5e57600080fd5b6000815180845260005b8181101561299357602081850181015186830182015201612977565b506000602082860101526020601f19601f83011685010191505092915050565b602081526000610f5e602083018461296d565b6001600160a01b038116811461103d57600080fd5b600080604083850312156129ee57600080fd5b82356129f9816129c6565b946020939093013593505050565b600060208284031215612a1957600080fd5b8135610f5e816129c6565b60a08101610bbf828480518252602081015160208301526040810151604083015260608101516060830152608081015160808301525050565b60208152600082516101c0806020850152612a7c6101e085018361296d565b91506020850151601f19858403016040860152612a99838261296d565b9250506040850151612ab660608601826001600160a01b03169052565b5060608501516080850152608085015160a085015260a085015160c085015260c085015160e085015260e08501516101008181870152808701519150506101208181870152808701519150506101408181870152808701519150506101608181870152808701519150506101808181870152808701519150506101a0818187015280870151838701525050508091505092915050565b600060208284031215612b5e57600080fd5b5035919050565b600080600060608486031215612b7a57600080fd5b8335612b85816129c6565b92506020840135612b95816129c6565b929592945050506040919091013590565b6020808252825182820181905260009190848201906040850190845b818110156123f357612c0083855180518252602081015160208301526040810151604083015260608101516060830152608081015160808301525050565b9284019260a09290920191600101612bc2565b60008060008060808587031215612c2957600080fd5b8435612c34816129c6565b966020860135965060408601359560600135945092505050565b60ff60f81b881681526000602060e081840152612c6e60e084018a61296d565b8381036040850152612c80818a61296d565b606085018990526001600160a01b038816608086015260a0850187905284810360c0860152855180825283870192509083019060005b81811015612cd257835183529284019291840191600101612cb6565b50909c9b505050505050505050505050565b602080825282518282018190526000919060409081850190868401855b82811015612d2f57815180516001600160a01b03168552860151868501529284019290850190600101612d01565b5091979650505050505050565b634e487b7160e01b600052604160045260246000fd5b6040805190810167ffffffffffffffff81118282101715612d7557612d75612d3c565b60405290565b604051601f8201601f1916810167ffffffffffffffff81118282101715612da457612da4612d3c565b604052919050565b600067ffffffffffffffff821115612dc657612dc6612d3c565b5060051b60200190565b600082601f830112612de157600080fd5b81356020612df6612df183612dac565b612d7b565b82815260059290921b84018101918181019086841115612e1557600080fd5b8286015b84811015612e305780358352918301918301612e19565b509695505050505050565b600082601f830112612e4c57600080fd5b813567ffffffffffffffff811115612e6657612e66612d3c565b612e79601f8201601f1916602001612d7b565b818152846020838601011115612e8e57600080fd5b816020850160208301376000918101602001919091529392505050565b600080600080600060a08688031215612ec357600080fd5b8535612ece816129c6565b94506020860135612ede816129c6565b9350604086013567ffffffffffffffff80821115612efb57600080fd5b612f0789838a01612dd0565b94506060880135915080821115612f1d57600080fd5b612f2989838a01612dd0565b93506080880135915080821115612f3f57600080fd5b50612f4c88828901612e3b565b9150509295509295909350565b600080600080600080600060e0888a031215612f7457600080fd5b8735612f7f816129c6565b96506020880135612f8f816129c6565b95506040880135945060608801359350608088013560ff81168114612fb357600080fd5b9699959850939692959460a0840135945060c09093013592915050565b60008060408385031215612fe357600080fd5b8235612fee816129c6565b91506020830135612ffe816129c6565b809150509250929050565b600080600080600060a0868803121561302157600080fd5b853561302c816129c6565b9450602086013561303c816129c6565b93506040860135925060608601359150608086013567ffffffffffffffff81111561306657600080fd5b612f4c88828901612e3b565b600181811c9082168061308657607f821691505b6020821081036130a657634e487b7160e01b600052602260045260246000fd5b50919050565b6000602082840312156130be57600080fd5b5051919050565b600060a082840312156130d757600080fd5b60405160a0810181811067ffffffffffffffff821117156130fa576130fa612d3c565b806040525080915082518152602083015160208201526040830151604082015260608301516060820152608083015160808201525092915050565b600060a0828403121561314757600080fd5b610f5e83836130c5565b6000602080838503121561316457600080fd5b825167ffffffffffffffff81111561317b57600080fd5b8301601f8101851361318c57600080fd5b805161319a612df182612dac565b81815260a091820283018401918482019190888411156131b957600080fd5b938501935b838510156131df576131d089866130c5565b835293840193918501916131be565b50979650505050505050565b6000608082840312156131fd57600080fd5b6040516080810181811067ffffffffffffffff8211171561322057613220612d3c565b80604052508251815260208301516020820152604083015160408201526060830151801515811461325057600080fd5b60608201529392505050565b60006040828403121561326e57600080fd5b613276612d52565b82518152602083015160208201528091505092915050565b600080600080600060a086880312156132a657600080fd5b5050835160208501516040860151606087015160809097015192989197509594509092509050565b600060208083850312156132e157600080fd5b825167ffffffffffffffff8111156132f857600080fd5b8301601f8101851361330957600080fd5b8051613317612df182612dac565b81815260069190911b8201830190838101908783111561333657600080fd5b928401925b8284101561338257604084890312156133545760008081fd5b61335c612d52565b8451613367816129c6565b8152848601518682015282526040909301929084019061333b565b979650505050505050565b600080600080608085870312156133a357600080fd5b505082516020840151604085015160609095015191969095509092509050565b634e487b7160e01b600052602160045260246000fdfea26469706673582212207fac4e2e2466af8642a6e0ddfd2b4f588135fd14fc131479ff7454abddda995564736f6c63430008140033",
  "libraries": {
    "Token": "0x7341A3Bd560F830AB179729763dA8329a4EaE65B",
    "Share": "0x8c86C104a2358dC47530378f11aeD5d90CD3bC5C",
    "Staking": "0x1f716bc526465101349273087367ea9850CdFC17",
    "Member": "0x74cD6084EB3A834e4E9e90f900c62794a951eA03"
  },
  "devdoc": {
    "errors": {
      "ECDSAInvalidSignature()": [
        {
          "details": "The signature derives the `address(0)`."
        }
      ],
      "ECDSAInvalidSignatureLength(uint256)": [
        {
          "details": "The signature has an invalid length."
        }
      ],
      "ECDSAInvalidSignatureS(bytes32)": [
        {
          "details": "The signature has an S value that is in the upper half order."
        }
      ],
      "ERC20InsufficientAllowance(address,uint256,uint256)": [
        {
          "details": "Indicates a failure with the `spender`s `allowance`. Used in transfers.",
          "params": {
            "allowance": "Amount of tokens a `spender` is allowed to operate with.",
            "needed": "Minimum amount required to perform a transfer.",
            "spender": "Address that may be allowed to operate on tokens without being their owner."
          }
        }
      ],
      "ERC20InsufficientBalance(address,uint256,uint256)": [
        {
          "details": "Indicates an error related to the current `balance` of a `sender`. Used in transfers.",
          "params": {
            "balance": "Current balance for the interacting account.",
            "needed": "Minimum amount required to perform a transfer.",
            "sender": "Address whose tokens are being transferred."
          }
        }
      ],
      "ERC20InvalidApprover(address)": [
        {
          "details": "Indicates a failure with the `approver` of a token to be approved. Used in approvals.",
          "params": {
            "approver": "Address initiating an approval operation."
          }
        }
      ],
      "ERC20InvalidReceiver(address)": [
        {
          "details": "Indicates a failure with the token `receiver`. Used in transfers.",
          "params": {
            "receiver": "Address to which tokens are being transferred."
          }
        }
      ],
      "ERC20InvalidSender(address)": [
        {
          "details": "Indicates a failure with the token `sender`. Used in transfers.",
          "params": {
            "sender": "Address whose tokens are being transferred."
          }
        }
      ],
      "ERC20InvalidSpender(address)": [
        {
          "details": "Indicates a failure with the `spender` to be approved. Used in approvals.",
          "params": {
            "spender": "Address that may be allowed to operate on tokens without being their owner."
          }
        }
      ],
      "ERC2612ExpiredSignature(uint256)": [
        {
          "details": "Permit deadline has expired."
        }
      ],
      "ERC2612InvalidSigner(address,address)": [
        {
          "details": "Mismatched signature."
        }
      ],
      "InvalidAccountNonce(address,uint256)": [
        {
          "details": "The nonce used for an `account` is not the expected current nonce."
        }
      ],
      "ReentrancyGuardReentrantCall()": [
        {
          "details": "Unauthorized reentrant call."
        }
      ]
    },
    "events": {
      "Approval(address,address,uint256)": {
        "details": "Emitted when the allowance of a `spender` for an `owner` is set by a call to {approve}. `value` is the new allowance."
      },
      "EIP712DomainChanged()": {
        "details": "MAY be emitted to signal that the domain could have changed."
      },
      "Transfer(address,address,uint256)": {
        "details": "Emitted when `value` tokens are moved from one account (`from`) to another (`to`). Note that `value` may be zero."
      }
    },
    "kind": "dev",
    "methods": {
      "DOMAIN_SEPARATOR()": {
        "details": "Returns the domain separator used in the encoding of the signature for {permit}, as defined by {EIP712}."
      },
      "allowance(address,address)": {
        "details": "See {IERC20-allowance}."
      },
      "approve(address,uint256)": {
        "details": "See {IERC20-approve}. NOTE: If `value` is the maximum `uint256`, the allowance is not updated on `transferFrom`. This is semantically equivalent to an infinite approval. Requirements: - `spender` cannot be the zero address."
      },
      "balanceOf(address)": {
        "details": "See {IERC20-balanceOf}."
      },
      "decimals()": {
        "details": "Returns the number of decimals used to get its user representation. For example, if `decimals` equals `2`, a balance of `505` tokens should be displayed to a user as `5.05` (`505 / 10 ** 2`). Tokens usually opt for a value of 18, imitating the relationship between Ether and Wei. This is the default value returned by this function, unless it's overridden. NOTE: This information is only used for _display_ purposes: it in no way affects any of the arithmetic of the contract, including {IERC20-balanceOf} and {IERC20-transfer}."
      },
      "eip712Domain()": {
        "details": "See {IERC-5267}."
      },
      "name()": {
        "details": "Returns the name of the token."
      },
      "nonces(address)": {
        "details": "Returns the current nonce for `owner`. This value must be included whenever a signature is generated for {permit}. Every successful call to {permit} increases ``owner``'s nonce by one. This prevents a signature from being used multiple times."
      },
      "permit(address,address,uint256,uint256,uint8,bytes32,bytes32)": {
        "details": "Sets `value` as the allowance of `spender` over ``owner``'s tokens, given ``owner``'s signed approval. IMPORTANT: The same issues {IERC20-approve} has related to transaction ordering also apply here. Emits an {Approval} event. Requirements: - `spender` cannot be the zero address. - `deadline` must be a timestamp in the future. - `v`, `r` and `s` must be a valid `secp256k1` signature from `owner` over the EIP712-formatted function arguments. - the signature must use ``owner``'s current nonce (see {nonces}). For more information on the signature format, see the https://eips.ethereum.org/EIPS/eip-2612#specification[relevant EIP section]. CAUTION: See Security Considerations above."
      },
      "supportsInterface(bytes4)": {
        "details": "See {IERC165-supportsInterface}."
      },
      "symbol()": {
        "details": "Returns the symbol of the token, usually a shorter version of the name."
      },
      "totalSupply()": {
        "details": "See {IERC20-totalSupply}."
      },
      "transfer(address,uint256)": {
        "details": "See {IERC20-transfer}. Requirements: - `to` cannot be the zero address. - the caller must have a balance of at least `value`."
      },
      "transferFrom(address,address,uint256)": {
        "details": "See {IERC20-transferFrom}. Emits an {Approval} event indicating the updated allowance. This is not required by the EIP. See the note at the beginning of {ERC20}. NOTE: Does not update the allowance if the current allowance is the maximum `uint256`. Requirements: - `from` and `to` cannot be the zero address. - `from` must have a balance of at least `value`. - the caller must have allowance for ``from``'s tokens of at least `value`."
      }
    },
    "version": 1
  },
  "userdoc": {
    "kind": "user",
    "methods": {},
    "version": 1
  },
  "storageLayout": {
    "storage": [
      {
        "astId": 1817,
        "contract": "contracts/Space.sol:Space",
        "label": "_balances",
        "offset": 0,
        "slot": "0",
        "type": "t_mapping(t_address,t_uint256)"
      },
      {
        "astId": 1823,
        "contract": "contracts/Space.sol:Space",
        "label": "_allowances",
        "offset": 0,
        "slot": "1",
        "type": "t_mapping(t_address,t_mapping(t_address,t_uint256))"
      },
      {
        "astId": 1825,
        "contract": "contracts/Space.sol:Space",
        "label": "_totalSupply",
        "offset": 0,
        "slot": "2",
        "type": "t_uint256"
      },
      {
        "astId": 1827,
        "contract": "contracts/Space.sol:Space",
        "label": "_name",
        "offset": 0,
        "slot": "3",
        "type": "t_string_storage"
      },
      {
        "astId": 1829,
        "contract": "contracts/Space.sol:Space",
        "label": "_symbol",
        "offset": 0,
        "slot": "4",
        "type": "t_string_storage"
      },
      {
        "astId": 4463,
        "contract": "contracts/Space.sol:Space",
        "label": "_nameFallback",
        "offset": 0,
        "slot": "5",
        "type": "t_string_storage"
      },
      {
        "astId": 4465,
        "contract": "contracts/Space.sol:Space",
        "label": "_versionFallback",
        "offset": 0,
        "slot": "6",
        "type": "t_string_storage"
      },
      {
        "astId": 3373,
        "contract": "contracts/Space.sol:Space",
        "label": "_nonces",
        "offset": 0,
        "slot": "7",
        "type": "t_mapping(t_address,t_uint256)"
      },
      {
        "astId": 3438,
        "contract": "contracts/Space.sol:Space",
        "label": "_status",
        "offset": 0,
        "slot": "8",
        "type": "t_uint256"
      },
      {
        "astId": 6566,
        "contract": "contracts/Space.sol:Space",
        "label": "daoFeePercent",
        "offset": 0,
        "slot": "9",
        "type": "t_uint256"
      },
      {
        "astId": 6569,
        "contract": "contracts/Space.sol:Space",
        "label": "token",
        "offset": 0,
        "slot": "10",
        "type": "t_struct(State)9468_storage"
      },
      {
        "astId": 6572,
        "contract": "contracts/Space.sol:Space",
        "label": "share",
        "offset": 0,
        "slot": "13",
        "type": "t_struct(State)8211_storage"
      },
      {
        "astId": 6575,
        "contract": "contracts/Space.sol:Space",
        "label": "staking",
        "offset": 0,
        "slot": "20",
        "type": "t_struct(State)8999_storage"
      },
      {
        "astId": 6578,
        "contract": "contracts/Space.sol:Space",
        "label": "member",
        "offset": 0,
        "slot": "25",
        "type": "t_struct(State)7523_storage"
      }
    ],
    "types": {
      "t_address": {
        "encoding": "inplace",
        "label": "address",
        "numberOfBytes": "20"
      },
      "t_array(t_address)dyn_storage": {
        "base": "t_address",
        "encoding": "dynamic_array",
        "label": "address[]",
        "numberOfBytes": "32"
      },
      "t_array(t_bytes32)dyn_storage": {
        "base": "t_bytes32",
        "encoding": "dynamic_array",
        "label": "bytes32[]",
        "numberOfBytes": "32"
      },
      "t_bool": {
        "encoding": "inplace",
        "label": "bool",
        "numberOfBytes": "1"
      },
      "t_bytes32": {
        "encoding": "inplace",
        "label": "bytes32",
        "numberOfBytes": "32"
      },
      "t_mapping(t_address,t_mapping(t_address,t_uint256))": {
        "encoding": "mapping",
        "key": "t_address",
        "label": "mapping(address => mapping(address => uint256))",
        "numberOfBytes": "32",
        "value": "t_mapping(t_address,t_uint256)"
      },
      "t_mapping(t_address,t_struct(Contributor)8172_storage)": {
        "encoding": "mapping",
        "key": "t_address",
        "label": "mapping(address => struct Share.Contributor)",
        "numberOfBytes": "32",
        "value": "t_struct(Contributor)8172_storage"
      },
      "t_mapping(t_address,t_struct(Subscription)7534_storage)": {
        "encoding": "mapping",
        "key": "t_address",
        "label": "mapping(address => struct Member.Subscription)",
        "numberOfBytes": "32",
        "value": "t_struct(Subscription)7534_storage"
      },
      "t_mapping(t_address,t_struct(UserRewards)9004_storage)": {
        "encoding": "mapping",
        "key": "t_address",
        "label": "mapping(address => struct Staking.UserRewards)",
        "numberOfBytes": "32",
        "value": "t_struct(UserRewards)9004_storage"
      },
      "t_mapping(t_address,t_struct(Vesting)8188_storage)": {
        "encoding": "mapping",
        "key": "t_address",
        "label": "mapping(address => struct Share.Vesting)",
        "numberOfBytes": "32",
        "value": "t_struct(Vesting)8188_storage"
      },
      "t_mapping(t_address,t_uint256)": {
        "encoding": "mapping",
        "key": "t_address",
        "label": "mapping(address => uint256)",
        "numberOfBytes": "32",
        "value": "t_uint256"
      },
      "t_mapping(t_bytes32,t_uint256)": {
        "encoding": "mapping",
        "key": "t_bytes32",
        "label": "mapping(bytes32 => uint256)",
        "numberOfBytes": "32",
        "value": "t_uint256"
      },
      "t_string_storage": {
        "encoding": "bytes",
        "label": "string",
        "numberOfBytes": "32"
      },
      "t_struct(AddressSet)6248_storage": {
        "encoding": "inplace",
        "label": "struct EnumerableSet.AddressSet",
        "members": [
          {
            "astId": 6247,
            "contract": "contracts/Space.sol:Space",
            "label": "_inner",
            "offset": 0,
            "slot": "0",
            "type": "t_struct(Set)5933_storage"
          }
        ],
        "numberOfBytes": "64"
      },
      "t_struct(Contributor)8172_storage": {
        "encoding": "inplace",
        "label": "struct Share.Contributor",
        "members": [
          {
            "astId": 8165,
            "contract": "contracts/Space.sol:Space",
            "label": "shares",
            "offset": 0,
            "slot": "0",
            "type": "t_uint256"
          },
          {
            "astId": 8167,
            "contract": "contracts/Space.sol:Space",
            "label": "rewards",
            "offset": 0,
            "slot": "1",
            "type": "t_uint256"
          },
          {
            "astId": 8169,
            "contract": "contracts/Space.sol:Space",
            "label": "checkpoint",
            "offset": 0,
            "slot": "2",
            "type": "t_uint256"
          },
          {
            "astId": 8171,
            "contract": "contracts/Space.sol:Space",
            "label": "exists",
            "offset": 0,
            "slot": "3",
            "type": "t_bool"
          }
        ],
        "numberOfBytes": "128"
      },
      "t_struct(Set)5933_storage": {
        "encoding": "inplace",
        "label": "struct EnumerableSet.Set",
        "members": [
          {
            "astId": 5928,
            "contract": "contracts/Space.sol:Space",
            "label": "_values",
            "offset": 0,
            "slot": "0",
            "type": "t_array(t_bytes32)dyn_storage"
          },
          {
            "astId": 5932,
            "contract": "contracts/Space.sol:Space",
            "label": "_positions",
            "offset": 0,
            "slot": "1",
            "type": "t_mapping(t_bytes32,t_uint256)"
          }
        ],
        "numberOfBytes": "64"
      },
      "t_struct(State)7523_storage": {
        "encoding": "inplace",
        "label": "struct Member.State",
        "members": [
          {
            "astId": 7512,
            "contract": "contracts/Space.sol:Space",
            "label": "subscriptionPrice",
            "offset": 0,
            "slot": "0",
            "type": "t_uint256"
          },
          {
            "astId": 7514,
            "contract": "contracts/Space.sol:Space",
            "label": "subscriptionIncome",
            "offset": 0,
            "slot": "1",
            "type": "t_uint256"
          },
          {
            "astId": 7519,
            "contract": "contracts/Space.sol:Space",
            "label": "subscriptions",
            "offset": 0,
            "slot": "2",
            "type": "t_mapping(t_address,t_struct(Subscription)7534_storage)"
          },
          {
            "astId": 7522,
            "contract": "contracts/Space.sol:Space",
            "label": "subscribers",
            "offset": 0,
            "slot": "3",
            "type": "t_struct(AddressSet)6248_storage"
          }
        ],
        "numberOfBytes": "160"
      },
      "t_struct(State)8211_storage": {
        "encoding": "inplace",
        "label": "struct Share.State",
        "members": [
          {
            "astId": 8190,
            "contract": "contracts/Space.sol:Space",
            "label": "daoFees",
            "offset": 0,
            "slot": "0",
            "type": "t_uint256"
          },
          {
            "astId": 8192,
            "contract": "contracts/Space.sol:Space",
            "label": "totalShare",
            "offset": 0,
            "slot": "1",
            "type": "t_uint256"
          },
          {
            "astId": 8194,
            "contract": "contracts/Space.sol:Space",
            "label": "accumulatedRewardsPerShare",
            "offset": 0,
            "slot": "2",
            "type": "t_uint256"
          },
          {
            "astId": 8199,
            "contract": "contracts/Space.sol:Space",
            "label": "contributors",
            "offset": 0,
            "slot": "3",
            "type": "t_mapping(t_address,t_struct(Contributor)8172_storage)"
          },
          {
            "astId": 8204,
            "contract": "contracts/Space.sol:Space",
            "label": "vestings",
            "offset": 0,
            "slot": "4",
            "type": "t_mapping(t_address,t_struct(Vesting)8188_storage)"
          },
          {
            "astId": 8207,
            "contract": "contracts/Space.sol:Space",
            "label": "contributorAddresses",
            "offset": 0,
            "slot": "5",
            "type": "t_array(t_address)dyn_storage"
          },
          {
            "astId": 8210,
            "contract": "contracts/Space.sol:Space",
            "label": "vestingAddresses",
            "offset": 0,
            "slot": "6",
            "type": "t_array(t_address)dyn_storage"
          }
        ],
        "numberOfBytes": "224"
      },
      "t_struct(State)8999_storage": {
        "encoding": "inplace",
        "label": "struct Staking.State",
        "members": [
          {
            "astId": 8985,
            "contract": "contracts/Space.sol:Space",
            "label": "stakingFees",
            "offset": 0,
            "slot": "0",
            "type": "t_uint256"
          },
          {
            "astId": 8987,
            "contract": "contracts/Space.sol:Space",
            "label": "totalStaked",
            "offset": 0,
            "slot": "1",
            "type": "t_uint256"
          },
          {
            "astId": 8989,
            "contract": "contracts/Space.sol:Space",
            "label": "accumulatedRewardsPerToken",
            "offset": 0,
            "slot": "2",
            "type": "t_uint256"
          },
          {
            "astId": 8993,
            "contract": "contracts/Space.sol:Space",
            "label": "userStake",
            "offset": 0,
            "slot": "3",
            "type": "t_mapping(t_address,t_uint256)"
          },
          {
            "astId": 8998,
            "contract": "contracts/Space.sol:Space",
            "label": "accumulatedRewards",
            "offset": 0,
            "slot": "4",
            "type": "t_mapping(t_address,t_struct(UserRewards)9004_storage)"
          }
        ],
        "numberOfBytes": "160"
      },
      "t_struct(State)9468_storage": {
        "encoding": "inplace",
        "label": "struct Token.State",
        "members": [
          {
            "astId": 9463,
            "contract": "contracts/Space.sol:Space",
            "label": "x",
            "offset": 0,
            "slot": "0",
            "type": "t_uint256"
          },
          {
            "astId": 9465,
            "contract": "contracts/Space.sol:Space",
            "label": "y",
            "offset": 0,
            "slot": "1",
            "type": "t_uint256"
          },
          {
            "astId": 9467,
            "contract": "contracts/Space.sol:Space",
            "label": "k",
            "offset": 0,
            "slot": "2",
            "type": "t_uint256"
          }
        ],
        "numberOfBytes": "96"
      },
      "t_struct(Subscription)7534_storage": {
        "encoding": "inplace",
        "label": "struct Member.Subscription",
        "members": [
          {
            "astId": 7525,
            "contract": "contracts/Space.sol:Space",
            "label": "start",
            "offset": 0,
            "slot": "0",
            "type": "t_uint256"
          },
          {
            "astId": 7527,
            "contract": "contracts/Space.sol:Space",
            "label": "checkpoint",
            "offset": 0,
            "slot": "1",
            "type": "t_uint256"
          },
          {
            "astId": 7529,
            "contract": "contracts/Space.sol:Space",
            "label": "duration",
            "offset": 0,
            "slot": "2",
            "type": "t_uint256"
          },
          {
            "astId": 7531,
            "contract": "contracts/Space.sol:Space",
            "label": "amount",
            "offset": 0,
            "slot": "3",
            "type": "t_uint256"
          },
          {
            "astId": 7533,
            "contract": "contracts/Space.sol:Space",
            "label": "consumed",
            "offset": 0,
            "slot": "4",
            "type": "t_uint256"
          }
        ],
        "numberOfBytes": "160"
      },
      "t_struct(UserRewards)9004_storage": {
        "encoding": "inplace",
        "label": "struct Staking.UserRewards",
        "members": [
          {
            "astId": 9001,
            "contract": "contracts/Space.sol:Space",
            "label": "accumulated",
            "offset": 0,
            "slot": "0",
            "type": "t_uint256"
          },
          {
            "astId": 9003,
            "contract": "contracts/Space.sol:Space",
            "label": "checkpoint",
            "offset": 0,
            "slot": "1",
            "type": "t_uint256"
          }
        ],
        "numberOfBytes": "64"
      },
      "t_struct(Vesting)8188_storage": {
        "encoding": "inplace",
        "label": "struct Share.Vesting",
        "members": [
          {
            "astId": 8179,
            "contract": "contracts/Space.sol:Space",
            "label": "payer",
            "offset": 0,
            "slot": "0",
            "type": "t_address"
          },
          {
            "astId": 8181,
            "contract": "contracts/Space.sol:Space",
            "label": "start",
            "offset": 0,
            "slot": "1",
            "type": "t_uint256"
          },
          {
            "astId": 8183,
            "contract": "contracts/Space.sol:Space",
            "label": "duration",
            "offset": 0,
            "slot": "2",
            "type": "t_uint256"
          },
          {
            "astId": 8185,
            "contract": "contracts/Space.sol:Space",
            "label": "allocation",
            "offset": 0,
            "slot": "3",
            "type": "t_uint256"
          },
          {
            "astId": 8187,
            "contract": "contracts/Space.sol:Space",
            "label": "released",
            "offset": 0,
            "slot": "4",
            "type": "t_uint256"
          }
        ],
        "numberOfBytes": "160"
      },
      "t_uint256": {
        "encoding": "inplace",
        "label": "uint256",
        "numberOfBytes": "32"
      }
    }
  }
}