{
  "address": "0xf90Eac26d0753813D3FBb6cCA1A4e0b5d0C45c0e",
  "abi": [
    {
      "inputs": [
        {
          "internalType": "address",
          "name": "_indieX",
          "type": "address"
        },
        {
          "internalType": "address",
          "name": "_founder",
          "type": "address"
        },
        {
          "internalType": "string",
          "name": "_name",
          "type": "string"
        },
        {
          "internalType": "string",
          "name": "_symbol",
          "type": "string"
        }
      ],
      "stateMutability": "nonpayable",
      "type": "constructor"
    },
    {
      "inputs": [],
      "name": "ECDSAInvalidSignature",
      "type": "error"
    },
    {
      "inputs": [
        {
          "internalType": "uint256",
          "name": "length",
          "type": "uint256"
        }
      ],
      "name": "ECDSAInvalidSignatureLength",
      "type": "error"
    },
    {
      "inputs": [
        {
          "internalType": "bytes32",
          "name": "s",
          "type": "bytes32"
        }
      ],
      "name": "ECDSAInvalidSignatureS",
      "type": "error"
    },
    {
      "inputs": [
        {
          "internalType": "address",
          "name": "spender",
          "type": "address"
        },
        {
          "internalType": "uint256",
          "name": "allowance",
          "type": "uint256"
        },
        {
          "internalType": "uint256",
          "name": "needed",
          "type": "uint256"
        }
      ],
      "name": "ERC20InsufficientAllowance",
      "type": "error"
    },
    {
      "inputs": [
        {
          "internalType": "address",
          "name": "sender",
          "type": "address"
        },
        {
          "internalType": "uint256",
          "name": "balance",
          "type": "uint256"
        },
        {
          "internalType": "uint256",
          "name": "needed",
          "type": "uint256"
        }
      ],
      "name": "ERC20InsufficientBalance",
      "type": "error"
    },
    {
      "inputs": [
        {
          "internalType": "address",
          "name": "approver",
          "type": "address"
        }
      ],
      "name": "ERC20InvalidApprover",
      "type": "error"
    },
    {
      "inputs": [
        {
          "internalType": "address",
          "name": "receiver",
          "type": "address"
        }
      ],
      "name": "ERC20InvalidReceiver",
      "type": "error"
    },
    {
      "inputs": [
        {
          "internalType": "address",
          "name": "sender",
          "type": "address"
        }
      ],
      "name": "ERC20InvalidSender",
      "type": "error"
    },
    {
      "inputs": [
        {
          "internalType": "address",
          "name": "spender",
          "type": "address"
        }
      ],
      "name": "ERC20InvalidSpender",
      "type": "error"
    },
    {
      "inputs": [
        {
          "internalType": "uint256",
          "name": "deadline",
          "type": "uint256"
        }
      ],
      "name": "ERC2612ExpiredSignature",
      "type": "error"
    },
    {
      "inputs": [
        {
          "internalType": "address",
          "name": "signer",
          "type": "address"
        },
        {
          "internalType": "address",
          "name": "owner",
          "type": "address"
        }
      ],
      "name": "ERC2612InvalidSigner",
      "type": "error"
    },
    {
      "inputs": [
        {
          "internalType": "address",
          "name": "account",
          "type": "address"
        },
        {
          "internalType": "uint256",
          "name": "currentNonce",
          "type": "uint256"
        }
      ],
      "name": "InvalidAccountNonce",
      "type": "error"
    },
    {
      "inputs": [],
      "name": "InvalidShortString",
      "type": "error"
    },
    {
      "inputs": [],
      "name": "ReentrancyGuardReentrantCall",
      "type": "error"
    },
    {
      "inputs": [
        {
          "internalType": "string",
          "name": "str",
          "type": "string"
        }
      ],
      "name": "StringTooLong",
      "type": "error"
    },
    {
      "anonymous": false,
      "inputs": [
        {
          "indexed": true,
          "internalType": "address",
          "name": "owner",
          "type": "address"
        },
        {
          "indexed": true,
          "internalType": "address",
          "name": "spender",
          "type": "address"
        },
        {
          "indexed": false,
          "internalType": "uint256",
          "name": "value",
          "type": "uint256"
        }
      ],
      "name": "Approval",
      "type": "event"
    },
    {
      "anonymous": false,
      "inputs": [],
      "name": "EIP712DomainChanged",
      "type": "event"
    },
    {
      "anonymous": false,
      "inputs": [
        {
          "indexed": false,
          "internalType": "address",
          "name": "sender",
          "type": "address"
        },
        {
          "indexed": false,
          "internalType": "uint256",
          "name": "daoFee",
          "type": "uint256"
        },
        {
          "indexed": false,
          "internalType": "uint256",
          "name": "stakingFee",
          "type": "uint256"
        }
      ],
      "name": "Received",
      "type": "event"
    },
    {
      "anonymous": false,
      "inputs": [
        {
          "indexed": true,
          "internalType": "enum Space.TradeType",
          "name": "tradeType",
          "type": "uint8"
        },
        {
          "indexed": true,
          "internalType": "address",
          "name": "account",
          "type": "address"
        },
        {
          "indexed": false,
          "internalType": "uint256",
          "name": "ethAmount",
          "type": "uint256"
        },
        {
          "indexed": false,
          "internalType": "uint256",
          "name": "tokenAmount",
          "type": "uint256"
        },
        {
          "indexed": false,
          "internalType": "uint256",
          "name": "fee",
          "type": "uint256"
        }
      ],
      "name": "Trade",
      "type": "event"
    },
    {
      "anonymous": false,
      "inputs": [
        {
          "indexed": true,
          "internalType": "address",
          "name": "from",
          "type": "address"
        },
        {
          "indexed": true,
          "internalType": "address",
          "name": "to",
          "type": "address"
        },
        {
          "indexed": false,
          "internalType": "uint256",
          "name": "value",
          "type": "uint256"
        }
      ],
      "name": "Transfer",
      "type": "event"
    },
    {
      "stateMutability": "payable",
      "type": "fallback"
    },
    {
      "inputs": [],
      "name": "DOMAIN_SEPARATOR",
      "outputs": [
        {
          "internalType": "bytes32",
          "name": "",
          "type": "bytes32"
        }
      ],
      "stateMutability": "view",
      "type": "function"
    },
    {
      "inputs": [],
      "name": "FEE_RATE",
      "outputs": [
        {
          "internalType": "uint256",
          "name": "",
          "type": "uint256"
        }
      ],
      "stateMutability": "view",
      "type": "function"
    },
    {
      "inputs": [
        {
          "components": [
            {
              "internalType": "address",
              "name": "account",
              "type": "address"
            },
            {
              "internalType": "uint256",
              "name": "share",
              "type": "uint256"
            }
          ],
          "internalType": "struct Share.UpsertContributorInput",
          "name": "_contributor",
          "type": "tuple"
        }
      ],
      "name": "addContributor",
      "outputs": [],
      "stateMutability": "nonpayable",
      "type": "function"
    },
    {
      "inputs": [
        {
          "internalType": "address",
          "name": "owner",
          "type": "address"
        },
        {
          "internalType": "address",
          "name": "spender",
          "type": "address"
        }
      ],
      "name": "allowance",
      "outputs": [
        {
          "internalType": "uint256",
          "name": "",
          "type": "uint256"
        }
      ],
      "stateMutability": "view",
      "type": "function"
    },
    {
      "inputs": [
        {
          "internalType": "address",
          "name": "spender",
          "type": "address"
        },
        {
          "internalType": "uint256",
          "name": "value",
          "type": "uint256"
        }
      ],
      "name": "approve",
      "outputs": [
        {
          "internalType": "bool",
          "name": "",
          "type": "bool"
        }
      ],
      "stateMutability": "nonpayable",
      "type": "function"
    },
    {
      "inputs": [
        {
          "internalType": "address",
          "name": "account",
          "type": "address"
        }
      ],
      "name": "balanceOf",
      "outputs": [
        {
          "internalType": "uint256",
          "name": "",
          "type": "uint256"
        }
      ],
      "stateMutability": "view",
      "type": "function"
    },
    {
      "inputs": [],
      "name": "buy",
      "outputs": [],
      "stateMutability": "payable",
      "type": "function"
    },
    {
      "inputs": [],
      "name": "claimShareRewards",
      "outputs": [],
      "stateMutability": "nonpayable",
      "type": "function"
    },
    {
      "inputs": [],
      "name": "claimStakingRewards",
      "outputs": [
        {
          "internalType": "uint256",
          "name": "",
          "type": "uint256"
        }
      ],
      "stateMutability": "nonpayable",
      "type": "function"
    },
    {
      "inputs": [
        {
          "internalType": "address",
          "name": "user",
          "type": "address"
        }
      ],
      "name": "currentContributorRewards",
      "outputs": [
        {
          "internalType": "uint256",
          "name": "",
          "type": "uint256"
        }
      ],
      "stateMutability": "view",
      "type": "function"
    },
    {
      "inputs": [],
      "name": "currentRewardsPerToken",
      "outputs": [
        {
          "internalType": "uint256",
          "name": "",
          "type": "uint256"
        }
      ],
      "stateMutability": "view",
      "type": "function"
    },
    {
      "inputs": [
        {
          "internalType": "address",
          "name": "user",
          "type": "address"
        }
      ],
      "name": "currentUserRewards",
      "outputs": [
        {
          "internalType": "uint256",
          "name": "",
          "type": "uint256"
        }
      ],
      "stateMutability": "view",
      "type": "function"
    },
    {
      "inputs": [],
      "name": "daoFeePercent",
      "outputs": [
        {
          "internalType": "uint256",
          "name": "",
          "type": "uint256"
        }
      ],
      "stateMutability": "view",
      "type": "function"
    },
    {
      "inputs": [],
      "name": "decimals",
      "outputs": [
        {
          "internalType": "uint8",
          "name": "",
          "type": "uint8"
        }
      ],
      "stateMutability": "view",
      "type": "function"
    },
    {
      "inputs": [],
      "name": "distributeShareRewards",
      "outputs": [],
      "stateMutability": "nonpayable",
      "type": "function"
    },
    {
      "inputs": [],
      "name": "distributeStakingRewards",
      "outputs": [],
      "stateMutability": "nonpayable",
      "type": "function"
    },
    {
      "inputs": [],
      "name": "eip712Domain",
      "outputs": [
        {
          "internalType": "bytes1",
          "name": "fields",
          "type": "bytes1"
        },
        {
          "internalType": "string",
          "name": "name",
          "type": "string"
        },
        {
          "internalType": "string",
          "name": "version",
          "type": "string"
        },
        {
          "internalType": "uint256",
          "name": "chainId",
          "type": "uint256"
        },
        {
          "internalType": "address",
          "name": "verifyingContract",
          "type": "address"
        },
        {
          "internalType": "bytes32",
          "name": "salt",
          "type": "bytes32"
        },
        {
          "internalType": "uint256[]",
          "name": "extensions",
          "type": "uint256[]"
        }
      ],
      "stateMutability": "view",
      "type": "function"
    },
    {
      "inputs": [],
      "name": "founder",
      "outputs": [
        {
          "internalType": "address",
          "name": "",
          "type": "address"
        }
      ],
      "stateMutability": "view",
      "type": "function"
    },
    {
      "inputs": [],
      "name": "getContributors",
      "outputs": [
        {
          "components": [
            {
              "internalType": "address",
              "name": "account",
              "type": "address"
            },
            {
              "internalType": "uint256",
              "name": "share",
              "type": "uint256"
            }
          ],
          "internalType": "struct Share.ContributorInfo[]",
          "name": "",
          "type": "tuple[]"
        }
      ],
      "stateMutability": "view",
      "type": "function"
    },
    {
      "inputs": [],
      "name": "getExcessEth",
      "outputs": [
        {
          "internalType": "uint256",
          "name": "",
          "type": "uint256"
        }
      ],
      "stateMutability": "view",
      "type": "function"
    },
    {
      "inputs": [],
      "name": "getExcessToken",
      "outputs": [
        {
          "internalType": "uint256",
          "name": "",
          "type": "uint256"
        }
      ],
      "stateMutability": "view",
      "type": "function"
    },
    {
      "inputs": [],
      "name": "getInfo",
      "outputs": [
        {
          "components": [
            {
              "internalType": "string",
              "name": "name",
              "type": "string"
            },
            {
              "internalType": "address",
              "name": "founder",
              "type": "address"
            },
            {
              "internalType": "uint256",
              "name": "creationId",
              "type": "uint256"
            },
            {
              "internalType": "uint256",
              "name": "daoFees",
              "type": "uint256"
            },
            {
              "internalType": "uint256",
              "name": "stakingFees",
              "type": "uint256"
            }
          ],
          "internalType": "struct Space.SpaceInfo",
          "name": "",
          "type": "tuple"
        }
      ],
      "stateMutability": "view",
      "type": "function"
    },
    {
      "inputs": [],
      "name": "getStakingInfo",
      "outputs": [
        {
          "components": [
            {
              "internalType": "uint256",
              "name": "stakingFees",
              "type": "uint256"
            },
            {
              "internalType": "uint256",
              "name": "totalStaked",
              "type": "uint256"
            },
            {
              "internalType": "uint256",
              "name": "accumulatedRewardsPerToken",
              "type": "uint256"
            }
          ],
          "internalType": "struct Staking.Info",
          "name": "",
          "type": "tuple"
        }
      ],
      "stateMutability": "view",
      "type": "function"
    },
    {
      "inputs": [],
      "name": "indieX",
      "outputs": [
        {
          "internalType": "address",
          "name": "",
          "type": "address"
        }
      ],
      "stateMutability": "view",
      "type": "function"
    },
    {
      "inputs": [],
      "name": "initialX",
      "outputs": [
        {
          "internalType": "uint256",
          "name": "",
          "type": "uint256"
        }
      ],
      "stateMutability": "view",
      "type": "function"
    },
    {
      "inputs": [],
      "name": "initialY",
      "outputs": [
        {
          "internalType": "uint256",
          "name": "",
          "type": "uint256"
        }
      ],
      "stateMutability": "view",
      "type": "function"
    },
    {
      "inputs": [
        {
          "components": [
            {
              "internalType": "uint256",
              "name": "appId",
              "type": "uint256"
            },
            {
              "internalType": "string",
              "name": "uri",
              "type": "string"
            },
            {
              "internalType": "uint256",
              "name": "curatorFeePercent",
              "type": "uint256"
            },
            {
              "components": [
                {
                  "internalType": "uint96",
                  "name": "basePrice",
                  "type": "uint96"
                },
                {
                  "internalType": "uint32",
                  "name": "inflectionPoint",
                  "type": "uint32"
                },
                {
                  "internalType": "uint128",
                  "name": "inflectionPrice",
                  "type": "uint128"
                },
                {
                  "internalType": "uint128",
                  "name": "linearPriceSlope",
                  "type": "uint128"
                }
              ],
              "internalType": "struct IIndieX.Curve",
              "name": "curve",
              "type": "tuple"
            },
            {
              "internalType": "uint8",
              "name": "farmer",
              "type": "uint8"
            },
            {
              "internalType": "bool",
              "name": "isFarming",
              "type": "bool"
            }
          ],
          "internalType": "struct IIndieX.NewCreationInput",
          "name": "creationInput",
          "type": "tuple"
        }
      ],
      "name": "initialize",
      "outputs": [],
      "stateMutability": "nonpayable",
      "type": "function"
    },
    {
      "inputs": [],
      "name": "k",
      "outputs": [
        {
          "internalType": "uint256",
          "name": "",
          "type": "uint256"
        }
      ],
      "stateMutability": "view",
      "type": "function"
    },
    {
      "inputs": [],
      "name": "name",
      "outputs": [
        {
          "internalType": "string",
          "name": "",
          "type": "string"
        }
      ],
      "stateMutability": "view",
      "type": "function"
    },
    {
      "inputs": [
        {
          "components": [
            {
              "internalType": "uint256",
              "name": "appId",
              "type": "uint256"
            },
            {
              "internalType": "string",
              "name": "uri",
              "type": "string"
            },
            {
              "internalType": "uint256",
              "name": "curatorFeePercent",
              "type": "uint256"
            },
            {
              "components": [
                {
                  "internalType": "uint96",
                  "name": "basePrice",
                  "type": "uint96"
                },
                {
                  "internalType": "uint32",
                  "name": "inflectionPoint",
                  "type": "uint32"
                },
                {
                  "internalType": "uint128",
                  "name": "inflectionPrice",
                  "type": "uint128"
                },
                {
                  "internalType": "uint128",
                  "name": "linearPriceSlope",
                  "type": "uint128"
                }
              ],
              "internalType": "struct IIndieX.Curve",
              "name": "curve",
              "type": "tuple"
            },
            {
              "internalType": "uint8",
              "name": "farmer",
              "type": "uint8"
            },
            {
              "internalType": "bool",
              "name": "isFarming",
              "type": "bool"
            }
          ],
          "internalType": "struct IIndieX.NewCreationInput",
          "name": "input",
          "type": "tuple"
        }
      ],
      "name": "newCreation",
      "outputs": [],
      "stateMutability": "nonpayable",
      "type": "function"
    },
    {
      "inputs": [
        {
          "internalType": "address",
          "name": "owner",
          "type": "address"
        }
      ],
      "name": "nonces",
      "outputs": [
        {
          "internalType": "uint256",
          "name": "",
          "type": "uint256"
        }
      ],
      "stateMutability": "view",
      "type": "function"
    },
    {
      "inputs": [
        {
          "internalType": "address",
          "name": "",
          "type": "address"
        },
        {
          "internalType": "address",
          "name": "",
          "type": "address"
        },
        {
          "internalType": "uint256[]",
          "name": "",
          "type": "uint256[]"
        },
        {
          "internalType": "uint256[]",
          "name": "",
          "type": "uint256[]"
        },
        {
          "internalType": "bytes",
          "name": "",
          "type": "bytes"
        }
      ],
      "name": "onERC1155BatchReceived",
      "outputs": [
        {
          "internalType": "bytes4",
          "name": "",
          "type": "bytes4"
        }
      ],
      "stateMutability": "nonpayable",
      "type": "function"
    },
    {
      "inputs": [
        {
          "internalType": "address",
          "name": "",
          "type": "address"
        },
        {
          "internalType": "address",
          "name": "",
          "type": "address"
        },
        {
          "internalType": "uint256",
          "name": "",
          "type": "uint256"
        },
        {
          "internalType": "uint256",
          "name": "",
          "type": "uint256"
        },
        {
          "internalType": "bytes",
          "name": "",
          "type": "bytes"
        }
      ],
      "name": "onERC1155Received",
      "outputs": [
        {
          "internalType": "bytes4",
          "name": "",
          "type": "bytes4"
        }
      ],
      "stateMutability": "nonpayable",
      "type": "function"
    },
    {
      "inputs": [
        {
          "internalType": "address",
          "name": "owner",
          "type": "address"
        },
        {
          "internalType": "address",
          "name": "spender",
          "type": "address"
        },
        {
          "internalType": "uint256",
          "name": "value",
          "type": "uint256"
        },
        {
          "internalType": "uint256",
          "name": "deadline",
          "type": "uint256"
        },
        {
          "internalType": "uint8",
          "name": "v",
          "type": "uint8"
        },
        {
          "internalType": "bytes32",
          "name": "r",
          "type": "bytes32"
        },
        {
          "internalType": "bytes32",
          "name": "s",
          "type": "bytes32"
        }
      ],
      "name": "permit",
      "outputs": [],
      "stateMutability": "nonpayable",
      "type": "function"
    },
    {
      "inputs": [
        {
          "internalType": "uint256",
          "name": "tokenAmount",
          "type": "uint256"
        }
      ],
      "name": "sell",
      "outputs": [],
      "stateMutability": "payable",
      "type": "function"
    },
    {
      "inputs": [
        {
          "internalType": "uint256",
          "name": "amount",
          "type": "uint256"
        }
      ],
      "name": "stake",
      "outputs": [],
      "stateMutability": "nonpayable",
      "type": "function"
    },
    {
      "inputs": [
        {
          "internalType": "bytes4",
          "name": "interfaceId",
          "type": "bytes4"
        }
      ],
      "name": "supportsInterface",
      "outputs": [
        {
          "internalType": "bool",
          "name": "",
          "type": "bool"
        }
      ],
      "stateMutability": "view",
      "type": "function"
    },
    {
      "inputs": [],
      "name": "symbol",
      "outputs": [
        {
          "internalType": "string",
          "name": "",
          "type": "string"
        }
      ],
      "stateMutability": "view",
      "type": "function"
    },
    {
      "inputs": [],
      "name": "totalSupply",
      "outputs": [
        {
          "internalType": "uint256",
          "name": "",
          "type": "uint256"
        }
      ],
      "stateMutability": "view",
      "type": "function"
    },
    {
      "inputs": [
        {
          "internalType": "address",
          "name": "to",
          "type": "address"
        },
        {
          "internalType": "uint256",
          "name": "value",
          "type": "uint256"
        }
      ],
      "name": "transfer",
      "outputs": [
        {
          "internalType": "bool",
          "name": "",
          "type": "bool"
        }
      ],
      "stateMutability": "nonpayable",
      "type": "function"
    },
    {
      "inputs": [
        {
          "internalType": "address",
          "name": "from",
          "type": "address"
        },
        {
          "internalType": "address",
          "name": "to",
          "type": "address"
        },
        {
          "internalType": "uint256",
          "name": "value",
          "type": "uint256"
        }
      ],
      "name": "transferFrom",
      "outputs": [
        {
          "internalType": "bool",
          "name": "",
          "type": "bool"
        }
      ],
      "stateMutability": "nonpayable",
      "type": "function"
    },
    {
      "inputs": [
        {
          "internalType": "uint256",
          "name": "amount",
          "type": "uint256"
        }
      ],
      "name": "unstake",
      "outputs": [],
      "stateMutability": "nonpayable",
      "type": "function"
    },
    {
      "inputs": [
        {
          "components": [
            {
              "internalType": "address",
              "name": "account",
              "type": "address"
            },
            {
              "internalType": "uint256",
              "name": "share",
              "type": "uint256"
            }
          ],
          "internalType": "struct Share.UpsertContributorInput[]",
          "name": "_contributors",
          "type": "tuple[]"
        }
      ],
      "name": "upsertContributors",
      "outputs": [],
      "stateMutability": "nonpayable",
      "type": "function"
    },
    {
      "inputs": [],
      "name": "x",
      "outputs": [
        {
          "internalType": "uint256",
          "name": "",
          "type": "uint256"
        }
      ],
      "stateMutability": "view",
      "type": "function"
    },
    {
      "inputs": [],
      "name": "y",
      "outputs": [
        {
          "internalType": "uint256",
          "name": "",
          "type": "uint256"
        }
      ],
      "stateMutability": "view",
      "type": "function"
    },
    {
      "stateMutability": "payable",
      "type": "receive"
    }
  ],
  "transactionHash": "0x13e66b732ce6884b455a574b270e97931b25872ae8c2fda41f1f94d1042acb59",
  "args": [
    "0x45aBBC64421a54CbffF878985AE6c4F0cfacfDb7",
    "0x45aBBC64421a54CbffF878985AE6c4F0cfacfDb7",
    "Space",
    "xSPACE"
  ],
  "numDeployments": 7,
  "solcInputHash": "fd64fbbe13b75e2918153982320f53c0",
  "bytecode": "0x6101a06040526801a055690d9db800006009556b037790a0e8714009b49c0000600a556706f05b59d3b20000600c553480156200003b57600080fd5b506040516200333c3803806200333c8339810160408190526200005e91620002e4565b6040805180820190915260018152603160f81b602082015282908190818460036200008a838262000403565b50600462000099828262000403565b50620000ab9150839050600562000175565b61012052620000bc81600662000175565b61014052815160208084019190912060e052815190820120610100524660a0526200014a60e05161010051604080517f8b73c3c69bb8fe3d512ecc4cf759cc79239f7b179b0ffacaa9a75d522b39400f60208201529081019290925260608201524660808201523060a082015260009060c00160405160208183030381529060405280519060200120905090565b60805250503060c05250506001600855506001600160a01b0391821661018052166101605262000529565b600060208351101562000195576200018d83620001ae565b9050620001a8565b81620001a2848262000403565b5060ff90505b92915050565b600080829050601f81511115620001e5578260405163305a27a960e01b8152600401620001dc9190620004cf565b60405180910390fd5b8051620001f28262000504565b179392505050565b80516001600160a01b03811681146200021257600080fd5b919050565b634e487b7160e01b600052604160045260246000fd5b60005b838110156200024a57818101518382015260200162000230565b50506000910152565b600082601f8301126200026557600080fd5b81516001600160401b038082111562000282576200028262000217565b604051601f8301601f19908116603f01168101908282118183101715620002ad57620002ad62000217565b81604052838152866020858801011115620002c757600080fd5b620002da8460208301602089016200022d565b9695505050505050565b60008060008060808587031215620002fb57600080fd5b6200030685620001fa565b93506200031660208601620001fa565b60408601519093506001600160401b03808211156200033457600080fd5b620003428883890162000253565b935060608701519150808211156200035957600080fd5b50620003688782880162000253565b91505092959194509250565b600181811c908216806200038957607f821691505b602082108103620003aa57634e487b7160e01b600052602260045260246000fd5b50919050565b601f821115620003fe57600081815260208120601f850160051c81016020861015620003d95750805b601f850160051c820191505b81811015620003fa57828155600101620003e5565b5050505b505050565b81516001600160401b038111156200041f576200041f62000217565b620004378162000430845462000374565b84620003b0565b602080601f8311600181146200046f5760008415620004565750858301515b600019600386901b1c1916600185901b178555620003fa565b600085815260208120601f198616915b82811015620004a0578886015182559484019460019091019084016200047f565b5085821015620004bf5787850151600019600388901b60f8161c191681555b5050505050600190811b01905550565b6020815260008251806020840152620004f08160408501602087016200022d565b601f01601f19169190910160400192915050565b80516020808301519190811015620003aa5760001960209190910360031b1b16919050565b60805160a05160c05160e0516101005161012051610140516101605161018051612d78620005c4600039600081816107c301528181610ec301528181610fa2015261131501526000818161051e01528181610c5901528181610f5d015261101101526000611a3701526000611a0a015260006119b20152600061198a015260006118e50152600061190f015260006119390152612d786000f3fe6080604052600436106102c65760003560e01c8063a2dc057411610177578063c1be6ef3116100d5578063dcb2a3f511610084578063f23a6e6111610061578063f23a6e61146108f3578063f691f0e71461091f578063ffdd6dd81461093f57005b8063dcb2a3f51461087a578063dd62ed3e1461089a578063e4849b32146108e057005b8063d505accf116100b2578063d505accf1461081a578063d955b0f31461083a578063dc02fc0e1461085a57005b8063c1be6ef3146107b1578063c75d5479146107e5578063cd5c64261461080557005b8063a9059cbb11610131578063b4f40c611161010e578063b4f40c611461072e578063babd837314610756578063bc197c811461076c57005b8063a9059cbb146106b5578063af157c19146106d5578063b40cd21d146106f757005b8063a56dfe4a1161015f578063a56dfe4a14610677578063a694fc3a1461068d578063a6f2ae3a146106ad57005b8063a2dc057414610637578063a50978481461065757005b8063313ce567116102245780636b69e05b116101de57806384b0196e116101bb57806384b0196e146105e557806392fd9e8b1461060d57806395d89b411461062257005b80636b69e05b1461057a57806370a082311461058f5780637ecebe00146105c557005b80634d4beb3b1161020c5780634d4beb3b146104f75780634d853ee51461050c5780635a9b0b891461055857005b8063313ce567146104c65780633644e515146104e257005b80630c55699c1161028057806323ca0eb01161025d57806323ca0eb01461047c5780632d11c58a146104915780632e17de78146104a657005b80630c55699c1461043157806318160ddd1461044757806323b872dd1461045c57005b806308396646116102ae57806308396646146103d1578063095ea7b3146103f45780630c0f9f2d1461041457005b806301ffc9a71461037a57806306fdde03146103af57005b3661037857600c543490600090670de0b6b3a7640000906102e79084612076565b6102f1919061208d565b905060006102ff82846120af565b905081600d600001600082825461031691906120c2565b9091555050601280548291906000906103309084906120c2565b909155505060408051338152602081018490529081018290527f74cf3d18d0ddca79038197ad0dd2c7fa5005ef61a5d1ed190e8a8a437e2fcf109060600160405180910390a1005b005b34801561038657600080fd5b5061039a6103953660046120d5565b610961565b60405190151581526020015b60405180910390f35b3480156103bb57600080fd5b506103c4610998565b6040516103a69190612145565b3480156103dd57600080fd5b506103e6610a2a565b6040519081526020016103a6565b34801561040057600080fd5b5061039a61040f36600461216d565b610aa6565b34801561042057600080fd5b506103e66801a055690d9db8000081565b34801561043d57600080fd5b506103e660095481565b34801561045357600080fd5b506002546103e6565b34801561046857600080fd5b5061039a610477366004612199565b610abe565b34801561048857600080fd5b50610378610ae4565b34801561049d57600080fd5b506103e6600181565b3480156104b257600080fd5b506103786104c13660046121da565b610b4a565b3480156104d257600080fd5b50604051601281526020016103a6565b3480156104ee57600080fd5b506103e6610bc9565b34801561050357600080fd5b506103e6610bd3565b34801561051857600080fd5b506105407f000000000000000000000000000000000000000000000000000000000000000081565b6040516001600160a01b0390911681526020016103a6565b34801561056457600080fd5b5061056d610bff565b6040516103a691906121f3565b34801561058657600080fd5b506103e6610c9c565b34801561059b57600080fd5b506103e66105aa36600461224c565b6001600160a01b031660009081526020819052604090205490565b3480156105d157600080fd5b506103e66105e036600461224c565b610d29565b3480156105f157600080fd5b506105fa610d47565b6040516103a69796959493929190612269565b34801561061957600080fd5b50610378610d8d565b34801561062e57600080fd5b506103c4610e16565b34801561064357600080fd5b506103e661065236600461224c565b610e25565b34801561066357600080fd5b506103786106723660046122ff565b610eac565b34801561068357600080fd5b506103e6600a5481565b34801561069957600080fd5b506103786106a83660046121da565b6110a7565b6103786110ee565b3480156106c157600080fd5b5061039a6106d036600461216d565b61122c565b3480156106e157600080fd5b506106ea61123a565b6040516103a6919061233b565b34801561070357600080fd5b5061070c6112b5565b60408051825181526020808401519082015291810151908201526060016103a6565b34801561073a57600080fd5b506103e67305a37324b8ac5eceebef390a22a97c200000000081565b34801561076257600080fd5b506103e6600c5481565b34801561077857600080fd5b50610798610787366004612535565b63bc197c8160e01b95945050505050565b6040516001600160e01b031990911681526020016103a6565b3480156107bd57600080fd5b506105407f000000000000000000000000000000000000000000000000000000000000000081565b3480156107f157600080fd5b506103786108003660046126e2565b6112fe565b34801561081157600080fd5b50610378611391565b34801561082657600080fd5b506103786108353660046127ae565b6113c9565b34801561084657600080fd5b506103e66b037790a0e8714009b49c000081565b34801561086657600080fd5b5061037861087536600461281c565b611503565b34801561088657600080fd5b506103e661089536600461224c565b61153d565b3480156108a657600080fd5b506103e66108b5366004612834565b6001600160a01b03918216600090815260016020908152604080832093909416825291909152205490565b6103786108ee3660046121da565b611587565b3480156108ff57600080fd5b5061079861090e36600461286d565b63f23a6e6160e01b95945050505050565b34801561092b57600080fd5b5061037861093a3660046128d6565b611755565b34801561094b57600080fd5b50306000908152602081905260409020546103e6565b60006001600160e01b03198216630271189760e51b148061099257506301ffc9a760e01b6001600160e01b03198316145b92915050565b6060600380546109a79061294b565b80601f01602080910402602001604051908101604052809291908181526020018280546109d39061294b565b8015610a205780601f106109f557610100808354040283529160200191610a20565b820191906000526020600020905b815481529060010190602001808311610a0357829003601f168201915b5050505050905090565b604051631026011560e11b81526012600482015260009073404ED7010DdfA6401AEbf9de42172058B73E25ED9063204c022a90602401602060405180830381865af4158015610a7d573d6000803e3d6000fd5b505050506040513d601f19601f82011682018060405250810190610aa1919061297f565b905090565b600033610ab48185856117c5565b5060019392505050565b600033610acc8582856117d7565b610ad785858561184f565b60019150505b9392505050565b604051636679b0f960e11b81526012600482015273404ED7010DdfA6401AEbf9de42172058B73E25ED9063ccf361f2906024015b60006040518083038186803b158015610b3057600080fd5b505af4158015610b44573d6000803e3d6000fd5b50505050565b610b526118ae565b60405162c4a11560e11b8152601260048201526024810182905273404ED7010DdfA6401AEbf9de42172058B73E25ED90630189422a906044015b60006040518083038186803b158015610ba457600080fd5b505af4158015610bb8573d6000803e3d6000fd5b50505050610bc66001600855565b50565b6000610aa16118d8565b6000806801a055690d9db80000600954610bed91906120af565b9050610bf981476120af565b91505090565b610c3a6040518060a001604052806060815260200160006001600160a01b031681526020016000815260200160008152602001600081525090565b6040518060a00160405280610c4d610998565b81526001600160a01b037f0000000000000000000000000000000000000000000000000000000000000000166020820152600b546040820152600d546060820152601254608090910152919050565b6000610ca66118ae565b60405163710e206160e11b81526012600482015273404ED7010DdfA6401AEbf9de42172058B73E25ED9063e21c40c290602401602060405180830381865af4158015610cf6573d6000803e3d6000fd5b505050506040513d601f19601f82011682018060405250810190610d1a919061297f565b9050610d266001600855565b90565b6001600160a01b038116600090815260076020526040812054610992565b600060608060008060006060610d5b611a03565b610d63611a30565b60408051600080825260208201909252600f60f81b9b939a50919850469750309650945092509050565b610d956118ae565b60405163109bf85d60e11b8152600d600482015273F5a030b321aE2773F6BBa147ACbaaB0D1871511B90632137f0ba90602401602060405180830381865af4158015610de5573d6000803e3d6000fd5b505050506040513d601f19601f82011682018060405250810190610e09919061297f565b50610e146001600855565b565b6060600480546109a79061294b565b604051630157d38b60e71b8152601260048201526001600160a01b038216602482015260009073404ED7010DdfA6401AEbf9de42172058B73E25ED9063abe9c580906044015b602060405180830381865af4158015610e88573d6000803e3d6000fd5b505050506040513d601f19601f82011682018060405250810190610992919061297f565b60405163c75d547960e01b81526001600160a01b037f0000000000000000000000000000000000000000000000000000000000000000169063c75d547990610ef8908490600401612a2f565b6020604051808303816000875af1158015610f17573d6000803e3d6000fd5b505050506040513d601f19601f82011682018060405250810190610f3b919061297f565b600b819055604051637921219560e11b81523060048201526001600160a01b037f00000000000000000000000000000000000000000000000000000000000000008116602483015260448201929092526001606482015260a06084820152600060a48201527f00000000000000000000000000000000000000000000000000000000000000009091169063f242432a9060c401600060405180830381600087803b158015610fe857600080fd5b505af1158015610ffc573d6000803e3d6000fd5b50506040805180820182526001600160a01b037f00000000000000000000000000000000000000000000000000000000000000001681526127106020820152905163015bb52760e11b815273F5a030b321aE2773F6BBa147ACbaaB0D1871511B93506302b76a4e925061107491600d91600401612af7565b60006040518083038186803b15801561108c57600080fd5b505af41580156110a0573d6000803e3d6000fd5b5050505050565b6110af6118ae565b604051632c4780bf60e11b8152601260048201526024810182905273404ED7010DdfA6401AEbf9de42172058B73E25ED9063588f017e90604401610b8c565b6110f66118ae565b34806111555760405162461bcd60e51b8152602060048201526024808201527f45544820616d6f756e74206d7573742062652067726561746572207468616e206044820152637a65726f60e01b60648201526084015b60405180910390fd5b60006064611164600184612076565b61116e919061208d565b9050600061117c82846120af565b905060008160095461118e91906120c2565b905060006111b0827305a37324b8ac5eceebef390a22a97c200000000061208d565b9050600081600a546111c291906120af565b6009849055600a83905590506111d83382611a5d565b33600060408051898152602081018590529081018890527ff660d6af156f2b284576f789df6df4915f78d4fef681203d39da097c588c85329060600160405180910390a3505050505050610e146001600855565b600033610ab481858561184f565b6040516377e7a4e760e01b8152600d600482015260609073F5a030b321aE2773F6BBa147ACbaaB0D1871511B906377e7a4e790602401600060405180830381865af415801561128d573d6000803e3d6000fd5b505050506040513d6000823e601f3d908101601f19168201604052610aa19190810190612b34565b6112d960405180606001604052806000815260200160008152602001600081525090565b5060408051606081018252601254815260135460208201526014549181019190915290565b60405163c75d547960e01b81526001600160a01b037f0000000000000000000000000000000000000000000000000000000000000000169063c75d54799061134a908490600401612bf3565b6020604051808303816000875af1158015611369573d6000803e3d6000fd5b505050506040513d601f19601f8201168201806040525081019061138d919061297f565b5050565b604051632ce9a45f60e01b8152600d600482015273F5a030b321aE2773F6BBa147ACbaaB0D1871511B90632ce9a45f90602401610b18565b834211156113ed5760405163313c898160e11b81526004810185905260240161114c565b60007f6e71edae12b1b97f4d1f60370fef10105fa2faae0126114a169c64845d6126c988888861143a8c6001600160a01b0316600090815260076020526040902080546001810190915590565b6040805160208101969096526001600160a01b0394851690860152929091166060840152608083015260a082015260c0810186905260e001604051602081830303815290604052805190602001209050600061149582611a93565b905060006114a582878787611ac0565b9050896001600160a01b0316816001600160a01b0316146114ec576040516325c0072360e11b81526001600160a01b0380831660048301528b16602482015260440161114c565b6114f78a8a8a6117c5565b50505050505050505050565b60405163015bb52760e11b815273F5a030b321aE2773F6BBa147ACbaaB0D1871511B906302b76a4e9061107490600d908590600401612cc7565b60405163076b6f0360e51b8152600d60048201526001600160a01b038216602482015260009073F5a030b321aE2773F6BBa147ACbaaB0D1871511B9063ed6de06090604401610e6b565b61158f6118ae565b600081116116055760405162461bcd60e51b815260206004820152602660248201527f546f6b656e20616d6f756e74206d75737420626520677265617465722074686160448201527f6e207a65726f0000000000000000000000000000000000000000000000000000606482015260840161114c565b60006064611614600184612076565b61161e919061208d565b9050600061162c82846120af565b9050600081600a5461163e91906120c2565b90506000611660827305a37324b8ac5eceebef390a22a97c200000000061208d565b905060008160095461167291906120af565b600a84905560098390556040516323b872dd60e01b81523360048201523060248201819052604482018990529192506323b872dd906064016020604051808303816000875af11580156116c9573d6000803e3d6000fd5b505050506040513d601f19601f820116820180604052508101906116ed9190612cdb565b506116f83085611aee565b6117023382611b24565b33600160408051848152602081018a90529081018890527ff660d6af156f2b284576f789df6df4915f78d4fef681203d39da097c588c85329060600160405180910390a35050505050610bc66001600855565b60405163483c310560e11b815273F5a030b321aE2773F6BBa147ACbaaB0D1871511B90639078620a9061179190600d9086908690600401612cf8565b60006040518083038186803b1580156117a957600080fd5b505af41580156117bd573d6000803e3d6000fd5b505050505050565b6117d28383836001611bc7565b505050565b6001600160a01b038381166000908152600160209081526040808320938616835292905220546000198114610b44578181101561184057604051637dc7a0d960e11b81526001600160a01b0384166004820152602481018290526044810183905260640161114c565b610b4484848484036000611bc7565b6001600160a01b03831661187957604051634b637e8f60e11b81526000600482015260240161114c565b6001600160a01b0382166118a35760405163ec442f0560e01b81526000600482015260240161114c565b6117d2838383611c9c565b6002600854036118d157604051633ee5aeb560e01b815260040160405180910390fd5b6002600855565b6000306001600160a01b037f00000000000000000000000000000000000000000000000000000000000000001614801561193157507f000000000000000000000000000000000000000000000000000000000000000046145b1561195b57507f000000000000000000000000000000000000000000000000000000000000000090565b610aa1604080517f8b73c3c69bb8fe3d512ecc4cf759cc79239f7b179b0ffacaa9a75d522b39400f60208201527f0000000000000000000000000000000000000000000000000000000000000000918101919091527f000000000000000000000000000000000000000000000000000000000000000060608201524660808201523060a082015260009060c00160405160208183030381529060405280519060200120905090565b6060610aa17f00000000000000000000000000000000000000000000000000000000000000006005611dc6565b6060610aa17f00000000000000000000000000000000000000000000000000000000000000006006611dc6565b6001600160a01b038216611a875760405163ec442f0560e01b81526000600482015260240161114c565b61138d60008383611c9c565b6000610992611aa06118d8565b8360405161190160f01b8152600281019290925260228201526042902090565b600080600080611ad288888888611e71565b925092509250611ae28282611f40565b50909695505050505050565b6001600160a01b038216611b1857604051634b637e8f60e11b81526000600482015260240161114c565b61138d82600083611c9c565b6000826001600160a01b03168260405160006040518083038185875af1925050503d8060008114611b71576040519150601f19603f3d011682016040523d82523d6000602084013e611b76565b606091505b50509050806117d25760405162461bcd60e51b815260206004820152601360248201527f455448207472616e73666572206661696c656400000000000000000000000000604482015260640161114c565b6001600160a01b038416611bf15760405163e602df0560e01b81526000600482015260240161114c565b6001600160a01b038316611c1b57604051634a1406b160e11b81526000600482015260240161114c565b6001600160a01b0380851660009081526001602090815260408083209387168352929052208290558015610b4457826001600160a01b0316846001600160a01b03167f8c5be1e5ebec7d5bd14f71427d1e84f3dd0314c0f7b2291e5b200ac8c7c3b92584604051611c8e91815260200190565b60405180910390a350505050565b6001600160a01b038316611cc7578060026000828254611cbc91906120c2565b90915550611d399050565b6001600160a01b03831660009081526020819052604090205481811015611d1a5760405163391434e360e21b81526001600160a01b0385166004820152602481018290526044810183905260640161114c565b6001600160a01b03841660009081526020819052604090209082900390555b6001600160a01b038216611d5557600280548290039055611d74565b6001600160a01b03821660009081526020819052604090208054820190555b816001600160a01b0316836001600160a01b03167fddf252ad1be2c89b69c2b068fc378daa952ba7f163c4a11628f55a4df523b3ef83604051611db991815260200190565b60405180910390a3505050565b606060ff8314611de057611dd983611ff9565b9050610992565b818054611dec9061294b565b80601f0160208091040260200160405190810160405280929190818152602001828054611e189061294b565b8015611e655780601f10611e3a57610100808354040283529160200191611e65565b820191906000526020600020905b815481529060010190602001808311611e4857829003601f168201915b50505050509050610992565b600080807f7fffffffffffffffffffffffffffffff5d576e7357a4501ddfe92f46681b20a0841115611eac5750600091506003905082611f36565b604080516000808252602082018084528a905260ff891692820192909252606081018790526080810186905260019060a0016020604051602081039080840390855afa158015611f00573d6000803e3d6000fd5b5050604051601f1901519150506001600160a01b038116611f2c57506000925060019150829050611f36565b9250600091508190505b9450945094915050565b6000826003811115611f5457611f54612b1e565b03611f5d575050565b6001826003811115611f7157611f71612b1e565b03611f8f5760405163f645eedf60e01b815260040160405180910390fd5b6002826003811115611fa357611fa3612b1e565b03611fc45760405163fce698f760e01b81526004810182905260240161114c565b6003826003811115611fd857611fd8612b1e565b0361138d576040516335e2f38360e21b81526004810182905260240161114c565b6060600061200683612038565b604080516020808252818301909252919250600091906020820181803683375050509182525060208101929092525090565b600060ff8216601f81111561099257604051632cd44ac360e21b815260040160405180910390fd5b634e487b7160e01b600052601160045260246000fd5b808202811582820484141761099257610992612060565b6000826120aa57634e487b7160e01b600052601260045260246000fd5b500490565b8181038181111561099257610992612060565b8082018082111561099257610992612060565b6000602082840312156120e757600080fd5b81356001600160e01b031981168114610add57600080fd5b6000815180845260005b8181101561212557602081850181015186830182015201612109565b506000602082860101526020601f19601f83011685010191505092915050565b602081526000610add60208301846120ff565b6001600160a01b0381168114610bc657600080fd5b6000806040838503121561218057600080fd5b823561218b81612158565b946020939093013593505050565b6000806000606084860312156121ae57600080fd5b83356121b981612158565b925060208401356121c981612158565b929592945050506040919091013590565b6000602082840312156121ec57600080fd5b5035919050565b602081526000825160a0602084015261220f60c08401826120ff565b90506001600160a01b0360208501511660408401526040840151606084015260608401516080840152608084015160a08401528091505092915050565b60006020828403121561225e57600080fd5b8135610add81612158565b60ff60f81b881681526000602060e08184015261228960e084018a6120ff565b838103604085015261229b818a6120ff565b606085018990526001600160a01b038816608086015260a0850187905284810360c0860152855180825283870192509083019060005b818110156122ed578351835292840192918401916001016122d1565b50909c9b505050505050505050505050565b60006020828403121561231157600080fd5b813567ffffffffffffffff81111561232857600080fd5b82016101208185031215610add57600080fd5b602080825282518282018190526000919060409081850190868401855b8281101561238e5761237e84835180516001600160a01b03168252602090810151910152565b9284019290850190600101612358565b5091979650505050505050565b634e487b7160e01b600052604160045260246000fd5b60405160c0810167ffffffffffffffff811182821017156123d4576123d461239b565b60405290565b6040805190810167ffffffffffffffff811182821017156123d4576123d461239b565b604051601f8201601f1916810167ffffffffffffffff811182821017156124265761242661239b565b604052919050565b600067ffffffffffffffff8211156124485761244861239b565b5060051b60200190565b600082601f83011261246357600080fd5b813560206124786124738361242e565b6123fd565b82815260059290921b8401810191818101908684111561249757600080fd5b8286015b848110156124b2578035835291830191830161249b565b509695505050505050565b600067ffffffffffffffff8311156124d7576124d761239b565b6124ea601f8401601f19166020016123fd565b90508281528383830111156124fe57600080fd5b828260208301376000602084830101529392505050565b600082601f83011261252657600080fd5b610add838335602085016124bd565b600080600080600060a0868803121561254d57600080fd5b853561255881612158565b9450602086013561256881612158565b9350604086013567ffffffffffffffff8082111561258557600080fd5b61259189838a01612452565b945060608801359150808211156125a757600080fd5b6125b389838a01612452565b935060808801359150808211156125c957600080fd5b506125d688828901612515565b9150509295509295909350565b80356bffffffffffffffffffffffff811681146125ff57600080fd5b919050565b803563ffffffff811681146125ff57600080fd5b80356fffffffffffffffffffffffffffffffff811681146125ff57600080fd5b60006080828403121561264a57600080fd5b6040516080810181811067ffffffffffffffff8211171561266d5761266d61239b565b60405290508061267c836125e3565b815261268a60208401612604565b602082015261269b60408401612618565b60408201526126ac60608401612618565b60608201525092915050565b803560ff811681146125ff57600080fd5b8015158114610bc657600080fd5b80356125ff816126c9565b6000602082840312156126f457600080fd5b813567ffffffffffffffff8082111561270c57600080fd5b90830190610120828603121561272157600080fd5b6127296123b1565b8235815260208301358281111561273f57600080fd5b83019150601f8201861361275257600080fd5b612761868335602085016124bd565b60208201526040830135604082015261277d8660608501612638565b606082015261278e60e084016126b8565b60808201526127a061010084016126d7565b60a082015295945050505050565b600080600080600080600060e0888a0312156127c957600080fd5b87356127d481612158565b965060208801356127e481612158565b95506040880135945060608801359350612800608089016126b8565b925060a0880135915060c0880135905092959891949750929550565b60006040828403121561282e57600080fd5b50919050565b6000806040838503121561284757600080fd5b823561285281612158565b9150602083013561286281612158565b809150509250929050565b600080600080600060a0868803121561288557600080fd5b853561289081612158565b945060208601356128a081612158565b93506040860135925060608601359150608086013567ffffffffffffffff8111156128ca57600080fd5b6125d688828901612515565b600080602083850312156128e957600080fd5b823567ffffffffffffffff8082111561290157600080fd5b818501915085601f83011261291557600080fd5b81358181111561292457600080fd5b8660208260061b850101111561293957600080fd5b60209290920196919550909350505050565b600181811c9082168061295f57607f821691505b60208210810361282e57634e487b7160e01b600052602260045260246000fd5b60006020828403121561299157600080fd5b5051919050565b81835281816020850137506000828201602090810191909152601f909101601f19169091010190565b6bffffffffffffffffffffffff6129d7826125e3565b16825263ffffffff6129eb60208301612604565b1660208301526129fd60408201612618565b6fffffffffffffffffffffffffffffffff808216604085015280612a2360608501612618565b16606085015250505050565b602081528135602082015260006020830135601e19843603018112612a5357600080fd5b830160208101903567ffffffffffffffff811115612a7057600080fd5b803603821315612a7f57600080fd5b610120806040860152612a9761014086018385612998565b925060408601356060860152612ab360808601606088016129c1565b612abf60e087016126b8565b9150610100612ad28187018460ff169052565b612add8188016126d7565b925050612aed8186018315159052565b5090949350505050565b82815260608101610add602083018480516001600160a01b03168252602090810151910152565b634e487b7160e01b600052602160045260246000fd5b60006020808385031215612b4757600080fd5b825167ffffffffffffffff811115612b5e57600080fd5b8301601f81018513612b6f57600080fd5b8051612b7d6124738261242e565b81815260069190911b82018301908381019087831115612b9c57600080fd5b928401925b82841015612be85760408489031215612bba5760008081fd5b612bc26123da565b8451612bcd81612158565b81528486015186820152825260409093019290840190612ba1565b979650505050505050565b602081528151602082015260006020830151610120806040850152612c1c6101408501836120ff565b91506040850151606085015260608501516bffffffffffffffffffffffff815116608086015263ffffffff60208201511660a086015260408101516fffffffffffffffffffffffffffffffff80821660c08801528060608401511660e08801525050506080850151612c9461010086018260ff169052565b5060a085015180151585830152612aed565b8035612cb181612158565b6001600160a01b03168252602090810135910152565b82815260608101610add6020830184612ca6565b600060208284031215612ced57600080fd5b8151610add816126c9565b8381526040602082018190528181018390526000908460608401835b86811015612d3657612d268284612ca6565b9183019190830190600101612d14565b5097965050505050505056fea2646970667358221220ca731f3863ae34fd2e4512036d766c235ff66dca515dd8947a2d38c921ca4b6264736f6c63430008140033",
  "deployedBytecode": "0x6080604052600436106102c65760003560e01c8063a2dc057411610177578063c1be6ef3116100d5578063dcb2a3f511610084578063f23a6e6111610061578063f23a6e61146108f3578063f691f0e71461091f578063ffdd6dd81461093f57005b8063dcb2a3f51461087a578063dd62ed3e1461089a578063e4849b32146108e057005b8063d505accf116100b2578063d505accf1461081a578063d955b0f31461083a578063dc02fc0e1461085a57005b8063c1be6ef3146107b1578063c75d5479146107e5578063cd5c64261461080557005b8063a9059cbb11610131578063b4f40c611161010e578063b4f40c611461072e578063babd837314610756578063bc197c811461076c57005b8063a9059cbb146106b5578063af157c19146106d5578063b40cd21d146106f757005b8063a56dfe4a1161015f578063a56dfe4a14610677578063a694fc3a1461068d578063a6f2ae3a146106ad57005b8063a2dc057414610637578063a50978481461065757005b8063313ce567116102245780636b69e05b116101de57806384b0196e116101bb57806384b0196e146105e557806392fd9e8b1461060d57806395d89b411461062257005b80636b69e05b1461057a57806370a082311461058f5780637ecebe00146105c557005b80634d4beb3b1161020c5780634d4beb3b146104f75780634d853ee51461050c5780635a9b0b891461055857005b8063313ce567146104c65780633644e515146104e257005b80630c55699c1161028057806323ca0eb01161025d57806323ca0eb01461047c5780632d11c58a146104915780632e17de78146104a657005b80630c55699c1461043157806318160ddd1461044757806323b872dd1461045c57005b806308396646116102ae57806308396646146103d1578063095ea7b3146103f45780630c0f9f2d1461041457005b806301ffc9a71461037a57806306fdde03146103af57005b3661037857600c543490600090670de0b6b3a7640000906102e79084612076565b6102f1919061208d565b905060006102ff82846120af565b905081600d600001600082825461031691906120c2565b9091555050601280548291906000906103309084906120c2565b909155505060408051338152602081018490529081018290527f74cf3d18d0ddca79038197ad0dd2c7fa5005ef61a5d1ed190e8a8a437e2fcf109060600160405180910390a1005b005b34801561038657600080fd5b5061039a6103953660046120d5565b610961565b60405190151581526020015b60405180910390f35b3480156103bb57600080fd5b506103c4610998565b6040516103a69190612145565b3480156103dd57600080fd5b506103e6610a2a565b6040519081526020016103a6565b34801561040057600080fd5b5061039a61040f36600461216d565b610aa6565b34801561042057600080fd5b506103e66801a055690d9db8000081565b34801561043d57600080fd5b506103e660095481565b34801561045357600080fd5b506002546103e6565b34801561046857600080fd5b5061039a610477366004612199565b610abe565b34801561048857600080fd5b50610378610ae4565b34801561049d57600080fd5b506103e6600181565b3480156104b257600080fd5b506103786104c13660046121da565b610b4a565b3480156104d257600080fd5b50604051601281526020016103a6565b3480156104ee57600080fd5b506103e6610bc9565b34801561050357600080fd5b506103e6610bd3565b34801561051857600080fd5b506105407f000000000000000000000000000000000000000000000000000000000000000081565b6040516001600160a01b0390911681526020016103a6565b34801561056457600080fd5b5061056d610bff565b6040516103a691906121f3565b34801561058657600080fd5b506103e6610c9c565b34801561059b57600080fd5b506103e66105aa36600461224c565b6001600160a01b031660009081526020819052604090205490565b3480156105d157600080fd5b506103e66105e036600461224c565b610d29565b3480156105f157600080fd5b506105fa610d47565b6040516103a69796959493929190612269565b34801561061957600080fd5b50610378610d8d565b34801561062e57600080fd5b506103c4610e16565b34801561064357600080fd5b506103e661065236600461224c565b610e25565b34801561066357600080fd5b506103786106723660046122ff565b610eac565b34801561068357600080fd5b506103e6600a5481565b34801561069957600080fd5b506103786106a83660046121da565b6110a7565b6103786110ee565b3480156106c157600080fd5b5061039a6106d036600461216d565b61122c565b3480156106e157600080fd5b506106ea61123a565b6040516103a6919061233b565b34801561070357600080fd5b5061070c6112b5565b60408051825181526020808401519082015291810151908201526060016103a6565b34801561073a57600080fd5b506103e67305a37324b8ac5eceebef390a22a97c200000000081565b34801561076257600080fd5b506103e6600c5481565b34801561077857600080fd5b50610798610787366004612535565b63bc197c8160e01b95945050505050565b6040516001600160e01b031990911681526020016103a6565b3480156107bd57600080fd5b506105407f000000000000000000000000000000000000000000000000000000000000000081565b3480156107f157600080fd5b506103786108003660046126e2565b6112fe565b34801561081157600080fd5b50610378611391565b34801561082657600080fd5b506103786108353660046127ae565b6113c9565b34801561084657600080fd5b506103e66b037790a0e8714009b49c000081565b34801561086657600080fd5b5061037861087536600461281c565b611503565b34801561088657600080fd5b506103e661089536600461224c565b61153d565b3480156108a657600080fd5b506103e66108b5366004612834565b6001600160a01b03918216600090815260016020908152604080832093909416825291909152205490565b6103786108ee3660046121da565b611587565b3480156108ff57600080fd5b5061079861090e36600461286d565b63f23a6e6160e01b95945050505050565b34801561092b57600080fd5b5061037861093a3660046128d6565b611755565b34801561094b57600080fd5b50306000908152602081905260409020546103e6565b60006001600160e01b03198216630271189760e51b148061099257506301ffc9a760e01b6001600160e01b03198316145b92915050565b6060600380546109a79061294b565b80601f01602080910402602001604051908101604052809291908181526020018280546109d39061294b565b8015610a205780601f106109f557610100808354040283529160200191610a20565b820191906000526020600020905b815481529060010190602001808311610a0357829003601f168201915b5050505050905090565b604051631026011560e11b81526012600482015260009073__$b2fda0c84abdf24a5bde0680bf090c8e0e$__9063204c022a90602401602060405180830381865af4158015610a7d573d6000803e3d6000fd5b505050506040513d601f19601f82011682018060405250810190610aa1919061297f565b905090565b600033610ab48185856117c5565b5060019392505050565b600033610acc8582856117d7565b610ad785858561184f565b60019150505b9392505050565b604051636679b0f960e11b81526012600482015273__$b2fda0c84abdf24a5bde0680bf090c8e0e$__9063ccf361f2906024015b60006040518083038186803b158015610b3057600080fd5b505af4158015610b44573d6000803e3d6000fd5b50505050565b610b526118ae565b60405162c4a11560e11b8152601260048201526024810182905273__$b2fda0c84abdf24a5bde0680bf090c8e0e$__90630189422a906044015b60006040518083038186803b158015610ba457600080fd5b505af4158015610bb8573d6000803e3d6000fd5b50505050610bc66001600855565b50565b6000610aa16118d8565b6000806801a055690d9db80000600954610bed91906120af565b9050610bf981476120af565b91505090565b610c3a6040518060a001604052806060815260200160006001600160a01b031681526020016000815260200160008152602001600081525090565b6040518060a00160405280610c4d610998565b81526001600160a01b037f0000000000000000000000000000000000000000000000000000000000000000166020820152600b546040820152600d546060820152601254608090910152919050565b6000610ca66118ae565b60405163710e206160e11b81526012600482015273__$b2fda0c84abdf24a5bde0680bf090c8e0e$__9063e21c40c290602401602060405180830381865af4158015610cf6573d6000803e3d6000fd5b505050506040513d601f19601f82011682018060405250810190610d1a919061297f565b9050610d266001600855565b90565b6001600160a01b038116600090815260076020526040812054610992565b600060608060008060006060610d5b611a03565b610d63611a30565b60408051600080825260208201909252600f60f81b9b939a50919850469750309650945092509050565b610d956118ae565b60405163109bf85d60e11b8152600d600482015273__$aee754128d0d1775ed250cc6ad74f33f25$__90632137f0ba90602401602060405180830381865af4158015610de5573d6000803e3d6000fd5b505050506040513d601f19601f82011682018060405250810190610e09919061297f565b50610e146001600855565b565b6060600480546109a79061294b565b604051630157d38b60e71b8152601260048201526001600160a01b038216602482015260009073__$b2fda0c84abdf24a5bde0680bf090c8e0e$__9063abe9c580906044015b602060405180830381865af4158015610e88573d6000803e3d6000fd5b505050506040513d601f19601f82011682018060405250810190610992919061297f565b60405163c75d547960e01b81526001600160a01b037f0000000000000000000000000000000000000000000000000000000000000000169063c75d547990610ef8908490600401612a2f565b6020604051808303816000875af1158015610f17573d6000803e3d6000fd5b505050506040513d601f19601f82011682018060405250810190610f3b919061297f565b600b819055604051637921219560e11b81523060048201526001600160a01b037f00000000000000000000000000000000000000000000000000000000000000008116602483015260448201929092526001606482015260a06084820152600060a48201527f00000000000000000000000000000000000000000000000000000000000000009091169063f242432a9060c401600060405180830381600087803b158015610fe857600080fd5b505af1158015610ffc573d6000803e3d6000fd5b50506040805180820182526001600160a01b037f00000000000000000000000000000000000000000000000000000000000000001681526127106020820152905163015bb52760e11b815273__$aee754128d0d1775ed250cc6ad74f33f25$__93506302b76a4e925061107491600d91600401612af7565b60006040518083038186803b15801561108c57600080fd5b505af41580156110a0573d6000803e3d6000fd5b5050505050565b6110af6118ae565b604051632c4780bf60e11b8152601260048201526024810182905273__$b2fda0c84abdf24a5bde0680bf090c8e0e$__9063588f017e90604401610b8c565b6110f66118ae565b34806111555760405162461bcd60e51b8152602060048201526024808201527f45544820616d6f756e74206d7573742062652067726561746572207468616e206044820152637a65726f60e01b60648201526084015b60405180910390fd5b60006064611164600184612076565b61116e919061208d565b9050600061117c82846120af565b905060008160095461118e91906120c2565b905060006111b0827305a37324b8ac5eceebef390a22a97c200000000061208d565b9050600081600a546111c291906120af565b6009849055600a83905590506111d83382611a5d565b33600060408051898152602081018590529081018890527ff660d6af156f2b284576f789df6df4915f78d4fef681203d39da097c588c85329060600160405180910390a3505050505050610e146001600855565b600033610ab481858561184f565b6040516377e7a4e760e01b8152600d600482015260609073__$aee754128d0d1775ed250cc6ad74f33f25$__906377e7a4e790602401600060405180830381865af415801561128d573d6000803e3d6000fd5b505050506040513d6000823e601f3d908101601f19168201604052610aa19190810190612b34565b6112d960405180606001604052806000815260200160008152602001600081525090565b5060408051606081018252601254815260135460208201526014549181019190915290565b60405163c75d547960e01b81526001600160a01b037f0000000000000000000000000000000000000000000000000000000000000000169063c75d54799061134a908490600401612bf3565b6020604051808303816000875af1158015611369573d6000803e3d6000fd5b505050506040513d601f19601f8201168201806040525081019061138d919061297f565b5050565b604051632ce9a45f60e01b8152600d600482015273__$aee754128d0d1775ed250cc6ad74f33f25$__90632ce9a45f90602401610b18565b834211156113ed5760405163313c898160e11b81526004810185905260240161114c565b60007f6e71edae12b1b97f4d1f60370fef10105fa2faae0126114a169c64845d6126c988888861143a8c6001600160a01b0316600090815260076020526040902080546001810190915590565b6040805160208101969096526001600160a01b0394851690860152929091166060840152608083015260a082015260c0810186905260e001604051602081830303815290604052805190602001209050600061149582611a93565b905060006114a582878787611ac0565b9050896001600160a01b0316816001600160a01b0316146114ec576040516325c0072360e11b81526001600160a01b0380831660048301528b16602482015260440161114c565b6114f78a8a8a6117c5565b50505050505050505050565b60405163015bb52760e11b815273__$aee754128d0d1775ed250cc6ad74f33f25$__906302b76a4e9061107490600d908590600401612cc7565b60405163076b6f0360e51b8152600d60048201526001600160a01b038216602482015260009073__$aee754128d0d1775ed250cc6ad74f33f25$__9063ed6de06090604401610e6b565b61158f6118ae565b600081116116055760405162461bcd60e51b815260206004820152602660248201527f546f6b656e20616d6f756e74206d75737420626520677265617465722074686160448201527f6e207a65726f0000000000000000000000000000000000000000000000000000606482015260840161114c565b60006064611614600184612076565b61161e919061208d565b9050600061162c82846120af565b9050600081600a5461163e91906120c2565b90506000611660827305a37324b8ac5eceebef390a22a97c200000000061208d565b905060008160095461167291906120af565b600a84905560098390556040516323b872dd60e01b81523360048201523060248201819052604482018990529192506323b872dd906064016020604051808303816000875af11580156116c9573d6000803e3d6000fd5b505050506040513d601f19601f820116820180604052508101906116ed9190612cdb565b506116f83085611aee565b6117023382611b24565b33600160408051848152602081018a90529081018890527ff660d6af156f2b284576f789df6df4915f78d4fef681203d39da097c588c85329060600160405180910390a35050505050610bc66001600855565b60405163483c310560e11b815273__$aee754128d0d1775ed250cc6ad74f33f25$__90639078620a9061179190600d9086908690600401612cf8565b60006040518083038186803b1580156117a957600080fd5b505af41580156117bd573d6000803e3d6000fd5b505050505050565b6117d28383836001611bc7565b505050565b6001600160a01b038381166000908152600160209081526040808320938616835292905220546000198114610b44578181101561184057604051637dc7a0d960e11b81526001600160a01b0384166004820152602481018290526044810183905260640161114c565b610b4484848484036000611bc7565b6001600160a01b03831661187957604051634b637e8f60e11b81526000600482015260240161114c565b6001600160a01b0382166118a35760405163ec442f0560e01b81526000600482015260240161114c565b6117d2838383611c9c565b6002600854036118d157604051633ee5aeb560e01b815260040160405180910390fd5b6002600855565b6000306001600160a01b037f00000000000000000000000000000000000000000000000000000000000000001614801561193157507f000000000000000000000000000000000000000000000000000000000000000046145b1561195b57507f000000000000000000000000000000000000000000000000000000000000000090565b610aa1604080517f8b73c3c69bb8fe3d512ecc4cf759cc79239f7b179b0ffacaa9a75d522b39400f60208201527f0000000000000000000000000000000000000000000000000000000000000000918101919091527f000000000000000000000000000000000000000000000000000000000000000060608201524660808201523060a082015260009060c00160405160208183030381529060405280519060200120905090565b6060610aa17f00000000000000000000000000000000000000000000000000000000000000006005611dc6565b6060610aa17f00000000000000000000000000000000000000000000000000000000000000006006611dc6565b6001600160a01b038216611a875760405163ec442f0560e01b81526000600482015260240161114c565b61138d60008383611c9c565b6000610992611aa06118d8565b8360405161190160f01b8152600281019290925260228201526042902090565b600080600080611ad288888888611e71565b925092509250611ae28282611f40565b50909695505050505050565b6001600160a01b038216611b1857604051634b637e8f60e11b81526000600482015260240161114c565b61138d82600083611c9c565b6000826001600160a01b03168260405160006040518083038185875af1925050503d8060008114611b71576040519150601f19603f3d011682016040523d82523d6000602084013e611b76565b606091505b50509050806117d25760405162461bcd60e51b815260206004820152601360248201527f455448207472616e73666572206661696c656400000000000000000000000000604482015260640161114c565b6001600160a01b038416611bf15760405163e602df0560e01b81526000600482015260240161114c565b6001600160a01b038316611c1b57604051634a1406b160e11b81526000600482015260240161114c565b6001600160a01b0380851660009081526001602090815260408083209387168352929052208290558015610b4457826001600160a01b0316846001600160a01b03167f8c5be1e5ebec7d5bd14f71427d1e84f3dd0314c0f7b2291e5b200ac8c7c3b92584604051611c8e91815260200190565b60405180910390a350505050565b6001600160a01b038316611cc7578060026000828254611cbc91906120c2565b90915550611d399050565b6001600160a01b03831660009081526020819052604090205481811015611d1a5760405163391434e360e21b81526001600160a01b0385166004820152602481018290526044810183905260640161114c565b6001600160a01b03841660009081526020819052604090209082900390555b6001600160a01b038216611d5557600280548290039055611d74565b6001600160a01b03821660009081526020819052604090208054820190555b816001600160a01b0316836001600160a01b03167fddf252ad1be2c89b69c2b068fc378daa952ba7f163c4a11628f55a4df523b3ef83604051611db991815260200190565b60405180910390a3505050565b606060ff8314611de057611dd983611ff9565b9050610992565b818054611dec9061294b565b80601f0160208091040260200160405190810160405280929190818152602001828054611e189061294b565b8015611e655780601f10611e3a57610100808354040283529160200191611e65565b820191906000526020600020905b815481529060010190602001808311611e4857829003601f168201915b50505050509050610992565b600080807f7fffffffffffffffffffffffffffffff5d576e7357a4501ddfe92f46681b20a0841115611eac5750600091506003905082611f36565b604080516000808252602082018084528a905260ff891692820192909252606081018790526080810186905260019060a0016020604051602081039080840390855afa158015611f00573d6000803e3d6000fd5b5050604051601f1901519150506001600160a01b038116611f2c57506000925060019150829050611f36565b9250600091508190505b9450945094915050565b6000826003811115611f5457611f54612b1e565b03611f5d575050565b6001826003811115611f7157611f71612b1e565b03611f8f5760405163f645eedf60e01b815260040160405180910390fd5b6002826003811115611fa357611fa3612b1e565b03611fc45760405163fce698f760e01b81526004810182905260240161114c565b6003826003811115611fd857611fd8612b1e565b0361138d576040516335e2f38360e21b81526004810182905260240161114c565b6060600061200683612038565b604080516020808252818301909252919250600091906020820181803683375050509182525060208101929092525090565b600060ff8216601f81111561099257604051632cd44ac360e21b815260040160405180910390fd5b634e487b7160e01b600052601160045260246000fd5b808202811582820484141761099257610992612060565b6000826120aa57634e487b7160e01b600052601260045260246000fd5b500490565b8181038181111561099257610992612060565b8082018082111561099257610992612060565b6000602082840312156120e757600080fd5b81356001600160e01b031981168114610add57600080fd5b6000815180845260005b8181101561212557602081850181015186830182015201612109565b506000602082860101526020601f19601f83011685010191505092915050565b602081526000610add60208301846120ff565b6001600160a01b0381168114610bc657600080fd5b6000806040838503121561218057600080fd5b823561218b81612158565b946020939093013593505050565b6000806000606084860312156121ae57600080fd5b83356121b981612158565b925060208401356121c981612158565b929592945050506040919091013590565b6000602082840312156121ec57600080fd5b5035919050565b602081526000825160a0602084015261220f60c08401826120ff565b90506001600160a01b0360208501511660408401526040840151606084015260608401516080840152608084015160a08401528091505092915050565b60006020828403121561225e57600080fd5b8135610add81612158565b60ff60f81b881681526000602060e08184015261228960e084018a6120ff565b838103604085015261229b818a6120ff565b606085018990526001600160a01b038816608086015260a0850187905284810360c0860152855180825283870192509083019060005b818110156122ed578351835292840192918401916001016122d1565b50909c9b505050505050505050505050565b60006020828403121561231157600080fd5b813567ffffffffffffffff81111561232857600080fd5b82016101208185031215610add57600080fd5b602080825282518282018190526000919060409081850190868401855b8281101561238e5761237e84835180516001600160a01b03168252602090810151910152565b9284019290850190600101612358565b5091979650505050505050565b634e487b7160e01b600052604160045260246000fd5b60405160c0810167ffffffffffffffff811182821017156123d4576123d461239b565b60405290565b6040805190810167ffffffffffffffff811182821017156123d4576123d461239b565b604051601f8201601f1916810167ffffffffffffffff811182821017156124265761242661239b565b604052919050565b600067ffffffffffffffff8211156124485761244861239b565b5060051b60200190565b600082601f83011261246357600080fd5b813560206124786124738361242e565b6123fd565b82815260059290921b8401810191818101908684111561249757600080fd5b8286015b848110156124b2578035835291830191830161249b565b509695505050505050565b600067ffffffffffffffff8311156124d7576124d761239b565b6124ea601f8401601f19166020016123fd565b90508281528383830111156124fe57600080fd5b828260208301376000602084830101529392505050565b600082601f83011261252657600080fd5b610add838335602085016124bd565b600080600080600060a0868803121561254d57600080fd5b853561255881612158565b9450602086013561256881612158565b9350604086013567ffffffffffffffff8082111561258557600080fd5b61259189838a01612452565b945060608801359150808211156125a757600080fd5b6125b389838a01612452565b935060808801359150808211156125c957600080fd5b506125d688828901612515565b9150509295509295909350565b80356bffffffffffffffffffffffff811681146125ff57600080fd5b919050565b803563ffffffff811681146125ff57600080fd5b80356fffffffffffffffffffffffffffffffff811681146125ff57600080fd5b60006080828403121561264a57600080fd5b6040516080810181811067ffffffffffffffff8211171561266d5761266d61239b565b60405290508061267c836125e3565b815261268a60208401612604565b602082015261269b60408401612618565b60408201526126ac60608401612618565b60608201525092915050565b803560ff811681146125ff57600080fd5b8015158114610bc657600080fd5b80356125ff816126c9565b6000602082840312156126f457600080fd5b813567ffffffffffffffff8082111561270c57600080fd5b90830190610120828603121561272157600080fd5b6127296123b1565b8235815260208301358281111561273f57600080fd5b83019150601f8201861361275257600080fd5b612761868335602085016124bd565b60208201526040830135604082015261277d8660608501612638565b606082015261278e60e084016126b8565b60808201526127a061010084016126d7565b60a082015295945050505050565b600080600080600080600060e0888a0312156127c957600080fd5b87356127d481612158565b965060208801356127e481612158565b95506040880135945060608801359350612800608089016126b8565b925060a0880135915060c0880135905092959891949750929550565b60006040828403121561282e57600080fd5b50919050565b6000806040838503121561284757600080fd5b823561285281612158565b9150602083013561286281612158565b809150509250929050565b600080600080600060a0868803121561288557600080fd5b853561289081612158565b945060208601356128a081612158565b93506040860135925060608601359150608086013567ffffffffffffffff8111156128ca57600080fd5b6125d688828901612515565b600080602083850312156128e957600080fd5b823567ffffffffffffffff8082111561290157600080fd5b818501915085601f83011261291557600080fd5b81358181111561292457600080fd5b8660208260061b850101111561293957600080fd5b60209290920196919550909350505050565b600181811c9082168061295f57607f821691505b60208210810361282e57634e487b7160e01b600052602260045260246000fd5b60006020828403121561299157600080fd5b5051919050565b81835281816020850137506000828201602090810191909152601f909101601f19169091010190565b6bffffffffffffffffffffffff6129d7826125e3565b16825263ffffffff6129eb60208301612604565b1660208301526129fd60408201612618565b6fffffffffffffffffffffffffffffffff808216604085015280612a2360608501612618565b16606085015250505050565b602081528135602082015260006020830135601e19843603018112612a5357600080fd5b830160208101903567ffffffffffffffff811115612a7057600080fd5b803603821315612a7f57600080fd5b610120806040860152612a9761014086018385612998565b925060408601356060860152612ab360808601606088016129c1565b612abf60e087016126b8565b9150610100612ad28187018460ff169052565b612add8188016126d7565b925050612aed8186018315159052565b5090949350505050565b82815260608101610add602083018480516001600160a01b03168252602090810151910152565b634e487b7160e01b600052602160045260246000fd5b60006020808385031215612b4757600080fd5b825167ffffffffffffffff811115612b5e57600080fd5b8301601f81018513612b6f57600080fd5b8051612b7d6124738261242e565b81815260069190911b82018301908381019087831115612b9c57600080fd5b928401925b82841015612be85760408489031215612bba5760008081fd5b612bc26123da565b8451612bcd81612158565b81528486015186820152825260409093019290840190612ba1565b979650505050505050565b602081528151602082015260006020830151610120806040850152612c1c6101408501836120ff565b91506040850151606085015260608501516bffffffffffffffffffffffff815116608086015263ffffffff60208201511660a086015260408101516fffffffffffffffffffffffffffffffff80821660c08801528060608401511660e08801525050506080850151612c9461010086018260ff169052565b5060a085015180151585830152612aed565b8035612cb181612158565b6001600160a01b03168252602090810135910152565b82815260608101610add6020830184612ca6565b600060208284031215612ced57600080fd5b8151610add816126c9565b8381526040602082018190528181018390526000908460608401835b86811015612d3657612d268284612ca6565b9183019190830190600101612d14565b5097965050505050505056fea2646970667358221220ca731f3863ae34fd2e4512036d766c235ff66dca515dd8947a2d38c921ca4b6264736f6c63430008140033",
  "libraries": {
    "Share": "0xF5a030b321aE2773F6BBa147ACbaaB0D1871511B",
    "Staking": "0x404ED7010DdfA6401AEbf9de42172058B73E25ED"
  },
  "devdoc": {
    "errors": {
      "ECDSAInvalidSignature()": [
        {
          "details": "The signature derives the `address(0)`."
        }
      ],
      "ECDSAInvalidSignatureLength(uint256)": [
        {
          "details": "The signature has an invalid length."
        }
      ],
      "ECDSAInvalidSignatureS(bytes32)": [
        {
          "details": "The signature has an S value that is in the upper half order."
        }
      ],
      "ERC20InsufficientAllowance(address,uint256,uint256)": [
        {
          "details": "Indicates a failure with the `spender`s `allowance`. Used in transfers.",
          "params": {
            "allowance": "Amount of tokens a `spender` is allowed to operate with.",
            "needed": "Minimum amount required to perform a transfer.",
            "spender": "Address that may be allowed to operate on tokens without being their owner."
          }
        }
      ],
      "ERC20InsufficientBalance(address,uint256,uint256)": [
        {
          "details": "Indicates an error related to the current `balance` of a `sender`. Used in transfers.",
          "params": {
            "balance": "Current balance for the interacting account.",
            "needed": "Minimum amount required to perform a transfer.",
            "sender": "Address whose tokens are being transferred."
          }
        }
      ],
      "ERC20InvalidApprover(address)": [
        {
          "details": "Indicates a failure with the `approver` of a token to be approved. Used in approvals.",
          "params": {
            "approver": "Address initiating an approval operation."
          }
        }
      ],
      "ERC20InvalidReceiver(address)": [
        {
          "details": "Indicates a failure with the token `receiver`. Used in transfers.",
          "params": {
            "receiver": "Address to which tokens are being transferred."
          }
        }
      ],
      "ERC20InvalidSender(address)": [
        {
          "details": "Indicates a failure with the token `sender`. Used in transfers.",
          "params": {
            "sender": "Address whose tokens are being transferred."
          }
        }
      ],
      "ERC20InvalidSpender(address)": [
        {
          "details": "Indicates a failure with the `spender` to be approved. Used in approvals.",
          "params": {
            "spender": "Address that may be allowed to operate on tokens without being their owner."
          }
        }
      ],
      "ERC2612ExpiredSignature(uint256)": [
        {
          "details": "Permit deadline has expired."
        }
      ],
      "ERC2612InvalidSigner(address,address)": [
        {
          "details": "Mismatched signature."
        }
      ],
      "InvalidAccountNonce(address,uint256)": [
        {
          "details": "The nonce used for an `account` is not the expected current nonce."
        }
      ],
      "ReentrancyGuardReentrantCall()": [
        {
          "details": "Unauthorized reentrant call."
        }
      ]
    },
    "events": {
      "Approval(address,address,uint256)": {
        "details": "Emitted when the allowance of a `spender` for an `owner` is set by a call to {approve}. `value` is the new allowance."
      },
      "EIP712DomainChanged()": {
        "details": "MAY be emitted to signal that the domain could have changed."
      },
      "Transfer(address,address,uint256)": {
        "details": "Emitted when `value` tokens are moved from one account (`from`) to another (`to`). Note that `value` may be zero."
      }
    },
    "kind": "dev",
    "methods": {
      "DOMAIN_SEPARATOR()": {
        "details": "Returns the domain separator used in the encoding of the signature for {permit}, as defined by {EIP712}."
      },
      "allowance(address,address)": {
        "details": "See {IERC20-allowance}."
      },
      "approve(address,uint256)": {
        "details": "See {IERC20-approve}. NOTE: If `value` is the maximum `uint256`, the allowance is not updated on `transferFrom`. This is semantically equivalent to an infinite approval. Requirements: - `spender` cannot be the zero address."
      },
      "balanceOf(address)": {
        "details": "See {IERC20-balanceOf}."
      },
      "decimals()": {
        "details": "Returns the number of decimals used to get its user representation. For example, if `decimals` equals `2`, a balance of `505` tokens should be displayed to a user as `5.05` (`505 / 10 ** 2`). Tokens usually opt for a value of 18, imitating the relationship between Ether and Wei. This is the default value returned by this function, unless it's overridden. NOTE: This information is only used for _display_ purposes: it in no way affects any of the arithmetic of the contract, including {IERC20-balanceOf} and {IERC20-transfer}."
      },
      "eip712Domain()": {
        "details": "See {IERC-5267}."
      },
      "name()": {
        "details": "Returns the name of the token."
      },
      "nonces(address)": {
        "details": "Returns the current nonce for `owner`. This value must be included whenever a signature is generated for {permit}. Every successful call to {permit} increases ``owner``'s nonce by one. This prevents a signature from being used multiple times."
      },
      "permit(address,address,uint256,uint256,uint8,bytes32,bytes32)": {
        "details": "Sets `value` as the allowance of `spender` over ``owner``'s tokens, given ``owner``'s signed approval. IMPORTANT: The same issues {IERC20-approve} has related to transaction ordering also apply here. Emits an {Approval} event. Requirements: - `spender` cannot be the zero address. - `deadline` must be a timestamp in the future. - `v`, `r` and `s` must be a valid `secp256k1` signature from `owner` over the EIP712-formatted function arguments. - the signature must use ``owner``'s current nonce (see {nonces}). For more information on the signature format, see the https://eips.ethereum.org/EIPS/eip-2612#specification[relevant EIP section]. CAUTION: See Security Considerations above."
      },
      "supportsInterface(bytes4)": {
        "details": "See {IERC165-supportsInterface}."
      },
      "symbol()": {
        "details": "Returns the symbol of the token, usually a shorter version of the name."
      },
      "totalSupply()": {
        "details": "See {IERC20-totalSupply}."
      },
      "transfer(address,uint256)": {
        "details": "See {IERC20-transfer}. Requirements: - `to` cannot be the zero address. - the caller must have a balance of at least `value`."
      },
      "transferFrom(address,address,uint256)": {
        "details": "See {IERC20-transferFrom}. Emits an {Approval} event indicating the updated allowance. This is not required by the EIP. See the note at the beginning of {ERC20}. NOTE: Does not update the allowance if the current allowance is the maximum `uint256`. Requirements: - `from` and `to` cannot be the zero address. - `from` must have a balance of at least `value`. - the caller must have allowance for ``from``'s tokens of at least `value`."
      }
    },
    "version": 1
  },
  "userdoc": {
    "kind": "user",
    "methods": {},
    "version": 1
  },
  "storageLayout": {
    "storage": [
      {
        "astId": 1817,
        "contract": "contracts/space/Space.sol:Space",
        "label": "_balances",
        "offset": 0,
        "slot": "0",
        "type": "t_mapping(t_address,t_uint256)"
      },
      {
        "astId": 1823,
        "contract": "contracts/space/Space.sol:Space",
        "label": "_allowances",
        "offset": 0,
        "slot": "1",
        "type": "t_mapping(t_address,t_mapping(t_address,t_uint256))"
      },
      {
        "astId": 1825,
        "contract": "contracts/space/Space.sol:Space",
        "label": "_totalSupply",
        "offset": 0,
        "slot": "2",
        "type": "t_uint256"
      },
      {
        "astId": 1827,
        "contract": "contracts/space/Space.sol:Space",
        "label": "_name",
        "offset": 0,
        "slot": "3",
        "type": "t_string_storage"
      },
      {
        "astId": 1829,
        "contract": "contracts/space/Space.sol:Space",
        "label": "_symbol",
        "offset": 0,
        "slot": "4",
        "type": "t_string_storage"
      },
      {
        "astId": 4463,
        "contract": "contracts/space/Space.sol:Space",
        "label": "_nameFallback",
        "offset": 0,
        "slot": "5",
        "type": "t_string_storage"
      },
      {
        "astId": 4465,
        "contract": "contracts/space/Space.sol:Space",
        "label": "_versionFallback",
        "offset": 0,
        "slot": "6",
        "type": "t_string_storage"
      },
      {
        "astId": 3373,
        "contract": "contracts/space/Space.sol:Space",
        "label": "_nonces",
        "offset": 0,
        "slot": "7",
        "type": "t_mapping(t_address,t_uint256)"
      },
      {
        "astId": 3438,
        "contract": "contracts/space/Space.sol:Space",
        "label": "_status",
        "offset": 0,
        "slot": "8",
        "type": "t_uint256"
      },
      {
        "astId": 7344,
        "contract": "contracts/space/Space.sol:Space",
        "label": "x",
        "offset": 0,
        "slot": "9",
        "type": "t_uint256"
      },
      {
        "astId": 7347,
        "contract": "contracts/space/Space.sol:Space",
        "label": "y",
        "offset": 0,
        "slot": "10",
        "type": "t_uint256"
      },
      {
        "astId": 7356,
        "contract": "contracts/space/Space.sol:Space",
        "label": "creationId",
        "offset": 0,
        "slot": "11",
        "type": "t_uint256"
      },
      {
        "astId": 7370,
        "contract": "contracts/space/Space.sol:Space",
        "label": "daoFeePercent",
        "offset": 0,
        "slot": "12",
        "type": "t_uint256"
      },
      {
        "astId": 7381,
        "contract": "contracts/space/Space.sol:Space",
        "label": "share",
        "offset": 0,
        "slot": "13",
        "type": "t_struct(State)6289_storage"
      },
      {
        "astId": 7384,
        "contract": "contracts/space/Space.sol:Space",
        "label": "staking",
        "offset": 0,
        "slot": "18",
        "type": "t_struct(State)6831_storage"
      }
    ],
    "types": {
      "t_address": {
        "encoding": "inplace",
        "label": "address",
        "numberOfBytes": "20"
      },
      "t_array(t_address)dyn_storage": {
        "base": "t_address",
        "encoding": "dynamic_array",
        "label": "address[]",
        "numberOfBytes": "32"
      },
      "t_mapping(t_address,t_mapping(t_address,t_uint256))": {
        "encoding": "mapping",
        "key": "t_address",
        "label": "mapping(address => mapping(address => uint256))",
        "numberOfBytes": "32",
        "value": "t_mapping(t_address,t_uint256)"
      },
      "t_mapping(t_address,t_struct(Contributor)6264_storage)": {
        "encoding": "mapping",
        "key": "t_address",
        "label": "mapping(address => struct Share.Contributor)",
        "numberOfBytes": "32",
        "value": "t_struct(Contributor)6264_storage"
      },
      "t_mapping(t_address,t_struct(UserRewards)6836_storage)": {
        "encoding": "mapping",
        "key": "t_address",
        "label": "mapping(address => struct Staking.UserRewards)",
        "numberOfBytes": "32",
        "value": "t_struct(UserRewards)6836_storage"
      },
      "t_mapping(t_address,t_uint256)": {
        "encoding": "mapping",
        "key": "t_address",
        "label": "mapping(address => uint256)",
        "numberOfBytes": "32",
        "value": "t_uint256"
      },
      "t_string_storage": {
        "encoding": "bytes",
        "label": "string",
        "numberOfBytes": "32"
      },
      "t_struct(Contributor)6264_storage": {
        "encoding": "inplace",
        "label": "struct Share.Contributor",
        "members": [
          {
            "astId": 6259,
            "contract": "contracts/space/Space.sol:Space",
            "label": "share",
            "offset": 0,
            "slot": "0",
            "type": "t_uint256"
          },
          {
            "astId": 6261,
            "contract": "contracts/space/Space.sol:Space",
            "label": "rewards",
            "offset": 0,
            "slot": "1",
            "type": "t_uint256"
          },
          {
            "astId": 6263,
            "contract": "contracts/space/Space.sol:Space",
            "label": "checkpoint",
            "offset": 0,
            "slot": "2",
            "type": "t_uint256"
          }
        ],
        "numberOfBytes": "96"
      },
      "t_struct(State)6289_storage": {
        "encoding": "inplace",
        "label": "struct Share.State",
        "members": [
          {
            "astId": 6276,
            "contract": "contracts/space/Space.sol:Space",
            "label": "daoFees",
            "offset": 0,
            "slot": "0",
            "type": "t_uint256"
          },
          {
            "astId": 6278,
            "contract": "contracts/space/Space.sol:Space",
            "label": "totalShare",
            "offset": 0,
            "slot": "1",
            "type": "t_uint256"
          },
          {
            "astId": 6280,
            "contract": "contracts/space/Space.sol:Space",
            "label": "accumulatedRewardsPerShare",
            "offset": 0,
            "slot": "2",
            "type": "t_uint256"
          },
          {
            "astId": 6285,
            "contract": "contracts/space/Space.sol:Space",
            "label": "contributors",
            "offset": 0,
            "slot": "3",
            "type": "t_mapping(t_address,t_struct(Contributor)6264_storage)"
          },
          {
            "astId": 6288,
            "contract": "contracts/space/Space.sol:Space",
            "label": "contributorAddresses",
            "offset": 0,
            "slot": "4",
            "type": "t_array(t_address)dyn_storage"
          }
        ],
        "numberOfBytes": "160"
      },
      "t_struct(State)6831_storage": {
        "encoding": "inplace",
        "label": "struct Staking.State",
        "members": [
          {
            "astId": 6817,
            "contract": "contracts/space/Space.sol:Space",
            "label": "stakingFees",
            "offset": 0,
            "slot": "0",
            "type": "t_uint256"
          },
          {
            "astId": 6819,
            "contract": "contracts/space/Space.sol:Space",
            "label": "totalStaked",
            "offset": 0,
            "slot": "1",
            "type": "t_uint256"
          },
          {
            "astId": 6821,
            "contract": "contracts/space/Space.sol:Space",
            "label": "accumulatedRewardsPerToken",
            "offset": 0,
            "slot": "2",
            "type": "t_uint256"
          },
          {
            "astId": 6825,
            "contract": "contracts/space/Space.sol:Space",
            "label": "userStake",
            "offset": 0,
            "slot": "3",
            "type": "t_mapping(t_address,t_uint256)"
          },
          {
            "astId": 6830,
            "contract": "contracts/space/Space.sol:Space",
            "label": "accumulatedRewards",
            "offset": 0,
            "slot": "4",
            "type": "t_mapping(t_address,t_struct(UserRewards)6836_storage)"
          }
        ],
        "numberOfBytes": "160"
      },
      "t_struct(UserRewards)6836_storage": {
        "encoding": "inplace",
        "label": "struct Staking.UserRewards",
        "members": [
          {
            "astId": 6833,
            "contract": "contracts/space/Space.sol:Space",
            "label": "accumulated",
            "offset": 0,
            "slot": "0",
            "type": "t_uint256"
          },
          {
            "astId": 6835,
            "contract": "contracts/space/Space.sol:Space",
            "label": "checkpoint",
            "offset": 0,
            "slot": "1",
            "type": "t_uint256"
          }
        ],
        "numberOfBytes": "64"
      },
      "t_uint256": {
        "encoding": "inplace",
        "label": "uint256",
        "numberOfBytes": "32"
      }
    }
  }
}