{
  "address": "0x1f716bc526465101349273087367ea9850CdFC17",
  "abi": [
    {
      "inputs": [
        {
          "internalType": "address",
          "name": "target",
          "type": "address"
        }
      ],
      "name": "AddressEmptyCode",
      "type": "error"
    },
    {
      "inputs": [
        {
          "internalType": "address",
          "name": "account",
          "type": "address"
        }
      ],
      "name": "AddressInsufficientBalance",
      "type": "error"
    },
    {
      "inputs": [],
      "name": "FailedInnerCall",
      "type": "error"
    },
    {
      "inputs": [
        {
          "internalType": "address",
          "name": "token",
          "type": "address"
        }
      ],
      "name": "SafeERC20FailedOperation",
      "type": "error"
    },
    {
      "anonymous": false,
      "inputs": [
        {
          "indexed": false,
          "internalType": "address",
          "name": "user",
          "type": "address"
        },
        {
          "indexed": false,
          "internalType": "uint256",
          "name": "amount",
          "type": "uint256"
        }
      ],
      "name": "Claimed",
      "type": "event"
    },
    {
      "anonymous": false,
      "inputs": [
        {
          "indexed": false,
          "internalType": "address",
          "name": "sender",
          "type": "address"
        },
        {
          "indexed": false,
          "internalType": "uint256",
          "name": "stakingFee",
          "type": "uint256"
        }
      ],
      "name": "Received",
      "type": "event"
    },
    {
      "anonymous": false,
      "inputs": [
        {
          "indexed": false,
          "internalType": "uint256",
          "name": "accumulated",
          "type": "uint256"
        }
      ],
      "name": "RewardsPerTokenUpdated",
      "type": "event"
    },
    {
      "anonymous": false,
      "inputs": [
        {
          "indexed": false,
          "internalType": "address",
          "name": "user",
          "type": "address"
        },
        {
          "indexed": false,
          "internalType": "uint256",
          "name": "amount",
          "type": "uint256"
        }
      ],
      "name": "Staked",
      "type": "event"
    },
    {
      "anonymous": false,
      "inputs": [
        {
          "indexed": false,
          "internalType": "address",
          "name": "user",
          "type": "address"
        },
        {
          "indexed": false,
          "internalType": "uint256",
          "name": "amount",
          "type": "uint256"
        }
      ],
      "name": "Unstaked",
      "type": "event"
    },
    {
      "anonymous": false,
      "inputs": [
        {
          "indexed": false,
          "internalType": "address",
          "name": "user",
          "type": "address"
        },
        {
          "indexed": false,
          "internalType": "uint256",
          "name": "rewards",
          "type": "uint256"
        },
        {
          "indexed": false,
          "internalType": "uint256",
          "name": "checkpoint",
          "type": "uint256"
        }
      ],
      "name": "UserRewardsUpdated",
      "type": "event"
    },
    {
      "inputs": [],
      "name": "PER_TOKEN_PRECISION",
      "outputs": [
        {
          "internalType": "uint256",
          "name": "",
          "type": "uint256"
        }
      ],
      "stateMutability": "view",
      "type": "function"
    }
  ],
  "transactionHash": "0x1ccfb84e3887fc18fcfb96035768fc80c4f696f4c586b2b9b96907250d23a3d5",
  "args": [],
  "numDeployments": 1,
  "solcInputHash": "d2dbc9be78a7d0dbcd359efd8d7b4138",
  "bytecode": "0x610a0061003a600b82828239805160001a60731461002d57634e487b7160e01b600052600060045260246000fd5b30600052607381538281f3fe73000000000000000000000000000000000000000030146080604052600436106100875760003560e01c8063abe9c58011610065578063abe9c580146100f3578063ccf361f214610106578063e21c40c214610126578063ecba345b1461014657600080fd5b80630189422a1461008c578063204c022a146100ae578063588f017e146100d3575b600080fd5b81801561009857600080fd5b506100ac6100a736600461088d565b610155565b005b6100c16100bc3660046108af565b6101fd565b60405190815260200160405180910390f35b8180156100df57600080fd5b506100ac6100ee36600461088d565b61020e565b6100c16101013660046108c8565b6102ae565b81801561011257600080fd5b506100ac6101213660046108af565b61033c565b81801561013257600080fd5b506100c16101413660046108af565b610349565b6100c1670de0b6b3a764000081565b3361016083826103c9565b5081836001016000828254610175919061091a565b90915550506001600160a01b0381166000908152600384016020526040812080548492906101a490849061091a565b909155506101b590503082846104f4565b604080516001600160a01b0383168152602081018490527f0f5bb82176feb1b5e747e28471aa92156a04d9f3ab9f45f28e2d704232b93f7591015b60405180910390a1505050565b60006102088261056d565b92915050565b3361021983826103c9565b508183600101600082825461022e919061092d565b90915550506001600160a01b03811660009081526003840160205260408120805484929061025d90849061092d565b9091555061026f9050308281856105b5565b604080516001600160a01b0383168152602081018490527f9e71bc8eea02a63969f509818f2dafb9254532904319f9dbda79b67bd34a5f3d91016101f0565b6001600160a01b038116600090815260048301602090815260408083208151808301909252805482526001015491810191909152816102ec8561056d565b90506000610326866003016000876001600160a01b03166001600160a01b03168152602001908152602001600020548460200151846105f4565b8351610332919061092d565b9695505050505050565b61034581610627565b5050565b60003361035683826103c9565b506001600160a01b038116600090815260048401602052604081208054919055610380828261068a565b604080516001600160a01b0384168152602081018390527fd8138f8a3f377c5259ca548e70e4c2de94f129f5a11036a15b69513cba2b426a910160405180910390a19392505050565b60408051808201909152600080825260208201526103e683610627565b506001600160a01b0382166000908152600484016020908152604091829020825180840190935280548352600101549082018190526002850154900361042d579050610208565b610467846003016000856001600160a01b03166001600160a01b0316815260200190815260200160002054826020015186600201546105f4565b8151829061047690839061092d565b905250600284015460208281019182526001600160a01b0385166000818152600488018352604090819020855180825594516001909101819055815192835292820193909352918201527f5b9aaf4cc5141c090a75f8b8a627863eba92df81f0c83c096350da9b79aedd049060600160405180910390a19392505050565b6040516001600160a01b0383811660248301526044820183905261056891859182169063a9059cbb906064015b604051602081830303815290604052915060e01b6020820180517bffffffffffffffffffffffffffffffffffffffffffffffffffffffff8381831617835250505050610732565b505050565b6000816001015460000361058357506002015490565b6001820154825461059c90670de0b6b3a7640000610940565b6105a69190610957565b8260020154610208919061092d565b6040516001600160a01b0384811660248301528381166044830152606482018390526105ee9186918216906323b872dd90608401610521565b50505050565b6000670de0b6b3a7640000610609848461091a565b6106139086610940565b61061d9190610957565b90505b9392505050565b6000806106338361056d565b6002840154909150811480159061064957600084555b600284018290556040518281527fe972555b20cae8150e291bb40efce3ef4e3ed6b6b2c39c029346600e95469d489060200160405180910390a15092915050565b6000826001600160a01b03168260405160006040518083038185875af1925050503d80600081146106d7576040519150601f19603f3d011682016040523d82523d6000602084013e6106dc565b606091505b50509050806105685760405162461bcd60e51b815260206004820152601360248201527f455448207472616e73666572206661696c65640000000000000000000000000060448201526064015b60405180910390fd5b60006107476001600160a01b03841683610795565b9050805160001415801561076c57508080602001905181019061076a9190610979565b155b1561056857604051635274afe760e01b81526001600160a01b0384166004820152602401610729565b60606106208383600084600080856001600160a01b031684866040516107bb919061099b565b60006040518083038185875af1925050503d80600081146107f8576040519150601f19603f3d011682016040523d82523d6000602084013e6107fd565b606091505b509150915061033286838360608261081d5761081882610864565b610620565b815115801561083457506001600160a01b0384163b155b1561085d57604051639996b31560e01b81526001600160a01b0385166004820152602401610729565b5080610620565b8051156108745780518082602001fd5b604051630a12f52160e11b815260040160405180910390fd5b600080604083850312156108a057600080fd5b50508035926020909101359150565b6000602082840312156108c157600080fd5b5035919050565b600080604083850312156108db57600080fd5b8235915060208301356001600160a01b03811681146108f957600080fd5b809150509250929050565b634e487b7160e01b600052601160045260246000fd5b8181038181111561020857610208610904565b8082018082111561020857610208610904565b808202811582820484141761020857610208610904565b60008261097457634e487b7160e01b600052601260045260246000fd5b500490565b60006020828403121561098b57600080fd5b8151801515811461062057600080fd5b6000825160005b818110156109bc57602081860181015185830152016109a2565b50600092019182525091905056fea264697066735822122008f062efefd2bfccd7a2b584e4cad648d2252b707c2733fcc5c2fef83d96817164736f6c63430008140033",
  "libraries": {},
  "devdoc": {
    "errors": {
      "AddressEmptyCode(address)": [
        {
          "details": "There's no code at `target` (it is not a contract)."
        }
      ],
      "AddressInsufficientBalance(address)": [
        {
          "details": "The ETH balance of the account is not enough to perform the operation."
        }
      ],
      "FailedInnerCall()": [
        {
          "details": "A call to an address target failed. The target may have reverted."
        }
      ],
      "SafeERC20FailedOperation(address)": [
        {
          "details": "An operation with an ERC20 token failed."
        }
      ]
    },
    "kind": "dev",
    "methods": {
      "currentUserRewards(Staking.State storage,address)": {
        "details": "This repeats the logic used on transactions, but doesn't update the storage."
      }
    },
    "version": 1
  },
  "userdoc": {
    "kind": "user",
    "methods": {
      "claim(Staking.State storage)": {
        "notice": "Claim all rewards for the caller."
      },
      "currentRewardsPerToken(Staking.State storage)": {
        "notice": "Calculate and return current rewards per token."
      },
      "currentUserRewards(Staking.State storage,address)": {
        "notice": "Calculate and return current rewards for a user."
      },
      "stake(Staking.State storage,uint256)": {
        "notice": "Stake tokens."
      },
      "unstake(Staking.State storage,uint256)": {
        "notice": "Unstake tokens."
      }
    },
    "version": 1
  },
  "storageLayout": {
    "storage": [],
    "types": null
  }
}