{
  "address": "0xCD7Ff895eae1b40477b34053075648c5DA55EC9F",
  "abi": [
    {
      "inputs": [
        {
          "internalType": "address",
          "name": "_stakingToken",
          "type": "address"
        }
      ],
      "stateMutability": "nonpayable",
      "type": "constructor"
    },
    {
      "inputs": [
        {
          "internalType": "address",
          "name": "target",
          "type": "address"
        }
      ],
      "name": "AddressEmptyCode",
      "type": "error"
    },
    {
      "inputs": [
        {
          "internalType": "address",
          "name": "account",
          "type": "address"
        }
      ],
      "name": "AddressInsufficientBalance",
      "type": "error"
    },
    {
      "inputs": [],
      "name": "FailedInnerCall",
      "type": "error"
    },
    {
      "inputs": [],
      "name": "ReentrancyGuardReentrantCall",
      "type": "error"
    },
    {
      "inputs": [
        {
          "internalType": "address",
          "name": "token",
          "type": "address"
        }
      ],
      "name": "SafeERC20FailedOperation",
      "type": "error"
    },
    {
      "anonymous": false,
      "inputs": [
        {
          "indexed": false,
          "internalType": "address",
          "name": "user",
          "type": "address"
        },
        {
          "indexed": false,
          "internalType": "uint256",
          "name": "amount",
          "type": "uint256"
        }
      ],
      "name": "Claimed",
      "type": "event"
    },
    {
      "anonymous": false,
      "inputs": [
        {
          "indexed": false,
          "internalType": "address",
          "name": "sender",
          "type": "address"
        },
        {
          "indexed": false,
          "internalType": "uint256",
          "name": "stakingFee",
          "type": "uint256"
        }
      ],
      "name": "Received",
      "type": "event"
    },
    {
      "anonymous": false,
      "inputs": [
        {
          "indexed": false,
          "internalType": "uint256",
          "name": "accumulated",
          "type": "uint256"
        }
      ],
      "name": "RewardsPerTokenUpdated",
      "type": "event"
    },
    {
      "anonymous": false,
      "inputs": [
        {
          "indexed": false,
          "internalType": "address",
          "name": "user",
          "type": "address"
        },
        {
          "indexed": false,
          "internalType": "uint256",
          "name": "amount",
          "type": "uint256"
        }
      ],
      "name": "Staked",
      "type": "event"
    },
    {
      "anonymous": false,
      "inputs": [
        {
          "indexed": false,
          "internalType": "address",
          "name": "user",
          "type": "address"
        },
        {
          "indexed": false,
          "internalType": "uint256",
          "name": "amount",
          "type": "uint256"
        }
      ],
      "name": "Unstaked",
      "type": "event"
    },
    {
      "anonymous": false,
      "inputs": [
        {
          "indexed": false,
          "internalType": "address",
          "name": "user",
          "type": "address"
        },
        {
          "indexed": false,
          "internalType": "uint256",
          "name": "rewards",
          "type": "uint256"
        },
        {
          "indexed": false,
          "internalType": "uint256",
          "name": "checkpoint",
          "type": "uint256"
        }
      ],
      "name": "UserRewardsUpdated",
      "type": "event"
    },
    {
      "stateMutability": "payable",
      "type": "fallback"
    },
    {
      "inputs": [],
      "name": "PER_TOKEN_PRECISION",
      "outputs": [
        {
          "internalType": "uint256",
          "name": "",
          "type": "uint256"
        }
      ],
      "stateMutability": "view",
      "type": "function"
    },
    {
      "inputs": [
        {
          "internalType": "address",
          "name": "",
          "type": "address"
        }
      ],
      "name": "accumulatedRewards",
      "outputs": [
        {
          "internalType": "uint256",
          "name": "accumulated",
          "type": "uint256"
        },
        {
          "internalType": "uint256",
          "name": "checkpoint",
          "type": "uint256"
        }
      ],
      "stateMutability": "view",
      "type": "function"
    },
    {
      "inputs": [],
      "name": "accumulatedRewardsPerToken",
      "outputs": [
        {
          "internalType": "uint256",
          "name": "",
          "type": "uint256"
        }
      ],
      "stateMutability": "view",
      "type": "function"
    },
    {
      "inputs": [],
      "name": "claim",
      "outputs": [
        {
          "internalType": "uint256",
          "name": "",
          "type": "uint256"
        }
      ],
      "stateMutability": "nonpayable",
      "type": "function"
    },
    {
      "inputs": [],
      "name": "currentRewardsPerToken",
      "outputs": [
        {
          "internalType": "uint256",
          "name": "",
          "type": "uint256"
        }
      ],
      "stateMutability": "view",
      "type": "function"
    },
    {
      "inputs": [
        {
          "internalType": "address",
          "name": "user",
          "type": "address"
        }
      ],
      "name": "currentUserRewards",
      "outputs": [
        {
          "internalType": "uint256",
          "name": "",
          "type": "uint256"
        }
      ],
      "stateMutability": "view",
      "type": "function"
    },
    {
      "inputs": [],
      "name": "daoFeePercent",
      "outputs": [
        {
          "internalType": "uint256",
          "name": "",
          "type": "uint256"
        }
      ],
      "stateMutability": "view",
      "type": "function"
    },
    {
      "inputs": [],
      "name": "distribute",
      "outputs": [],
      "stateMutability": "nonpayable",
      "type": "function"
    },
    {
      "inputs": [
        {
          "internalType": "uint256",
          "name": "amount",
          "type": "uint256"
        }
      ],
      "name": "stake",
      "outputs": [],
      "stateMutability": "nonpayable",
      "type": "function"
    },
    {
      "inputs": [],
      "name": "stakingFees",
      "outputs": [
        {
          "internalType": "uint256",
          "name": "",
          "type": "uint256"
        }
      ],
      "stateMutability": "view",
      "type": "function"
    },
    {
      "inputs": [],
      "name": "stakingToken",
      "outputs": [
        {
          "internalType": "contract IERC20",
          "name": "",
          "type": "address"
        }
      ],
      "stateMutability": "view",
      "type": "function"
    },
    {
      "inputs": [],
      "name": "totalStaked",
      "outputs": [
        {
          "internalType": "uint256",
          "name": "",
          "type": "uint256"
        }
      ],
      "stateMutability": "view",
      "type": "function"
    },
    {
      "inputs": [
        {
          "internalType": "uint256",
          "name": "amount",
          "type": "uint256"
        }
      ],
      "name": "unstake",
      "outputs": [],
      "stateMutability": "nonpayable",
      "type": "function"
    },
    {
      "inputs": [
        {
          "internalType": "address",
          "name": "",
          "type": "address"
        }
      ],
      "name": "userStake",
      "outputs": [
        {
          "internalType": "uint256",
          "name": "",
          "type": "uint256"
        }
      ],
      "stateMutability": "view",
      "type": "function"
    },
    {
      "stateMutability": "payable",
      "type": "receive"
    }
  ],
  "transactionHash": "0xa25ea2f2806b5341663103185a24e1c26393e56c1edae7e0c1570631bf131233",
  "args": [
    "0x45aBBC64421a54CbffF878985AE6c4F0cfacfDb7"
  ],
  "numDeployments": 2,
  "solcInputHash": "141e7bb4098e7b8e9c3e3b48ea641b97",
  "bytecode": "0x60a06040526706f05b59d3b200006002556000600355600060065534801561002657600080fd5b50604051610d7a380380610d7a8339810160408190526100459161005b565b60016000556001600160a01b031660805261008b565b60006020828403121561006d57600080fd5b81516001600160a01b038116811461008457600080fd5b9392505050565b608051610cc66100b4600039600081816101e60152818161037a015261056d0152610cc66000f3fe6080604052600436106100d55760003560e01c806373f273fc11610079578063a694fc3a11610056578063a694fc3a1461029f578063babd8373146102bf578063e4fc6b6d146102d5578063ecba345b146102ea57005b806373f273fc14610220578063817b1cd214610269578063a2dc05741461027f57005b80634e71d92d116100b25780634e71d92d1461017c57806368e5585d146101915780636dca7e7b146101be57806372f702f3146101d457005b8063083966461461011e5780632e17de7814610146578063389621861461016657005b3661011c573460038190556040805133815260208101929092527f88a5966d370b9919b20f3e2c13ff65706f196a4e32cc2c12bf57088f88525874910160405180910390a1005b005b34801561012a57600080fd5b50610133610306565b6040519081526020015b60405180910390f35b34801561015257600080fd5b5061011c610161366004610b88565b610315565b34801561017257600080fd5b5061013360065481565b34801561018857600080fd5b506101336103f2565b34801561019d57600080fd5b506101336101ac366004610ba1565b60056020526000908152604090205481565b3480156101ca57600080fd5b5061013360035481565b3480156101e057600080fd5b506102087f000000000000000000000000000000000000000000000000000000000000000081565b6040516001600160a01b03909116815260200161013d565b34801561022c57600080fd5b5061025461023b366004610ba1565b6007602052600090815260409020805460019091015482565b6040805192835260208301919091520161013d565b34801561027557600080fd5b5061013360045481565b34801561028b57600080fd5b5061013361029a366004610ba1565b610480565b3480156102ab57600080fd5b5061011c6102ba366004610b88565b610508565b3480156102cb57600080fd5b5061013360025481565b3480156102e157600080fd5b5061011c6105d4565b3480156102f657600080fd5b50610133670de0b6b3a764000081565b60006103106105dc565b905090565b61031d61061e565b3361032781610661565b50816004600082825461033a9190610be0565b90915550506001600160a01b03811660009081526005602052604081208054849290610367908490610be0565b909155506103a190506001600160a01b037f000000000000000000000000000000000000000000000000000000000000000016828461077d565b604080516001600160a01b0383168152602081018490527f0f5bb82176feb1b5e747e28471aa92156a04d9f3ab9f45f28e2d704232b93f7591015b60405180910390a1506103ef6001600055565b50565b60006103fc61061e565b3361040681610661565b506001600160a01b0381166000908152600760205260408120805491905561042e82826107f6565b604080516001600160a01b0384168152602081018390527fd8138f8a3f377c5259ca548e70e4c2de94f129f5a11036a15b69513cba2b426a910160405180910390a191505061047d6001600055565b90565b6001600160a01b03811660009081526007602090815260408083208151808301909252805482526001015491810191909152816104bb6105dc565b905060006104f360056000876001600160a01b03166001600160a01b03168152602001908152602001600020548460200151846108b8565b83516104ff9190610bf3565b95945050505050565b61051061061e565b3361051a81610661565b50816004600082825461052d9190610bf3565b90915550506001600160a01b0381166000908152600560205260408120805484929061055a908490610bf3565b9091555061059590506001600160a01b037f0000000000000000000000000000000000000000000000000000000000000000168230856108eb565b604080516001600160a01b0383168152602081018490527f9e71bc8eea02a63969f509818f2dafb9254532904319f9dbda79b67bd34a5f3d91016103dc565b6103ef61092a565b60006004546000036105ef575060065490565b60045460035461060790670de0b6b3a7640000610c06565b6106119190610c1d565b6006546103109190610bf3565b60026000540361065a576040517f3ee5aeb500000000000000000000000000000000000000000000000000000000815260040160405180910390fd5b6002600055565b604080518082019091526000808252602082015261067d61092a565b506001600160a01b0382166000908152600760209081526040918290208251808401909352805483526001015490820181905260065490036106bf5792915050565b6106f560056000856001600160a01b03166001600160a01b031681526020019081526020016000205482602001516006546108b8565b81518290610704908390610bf3565b90525060065460208281019182526001600160a01b038516600081815260078352604090819020855180825594516001909101819055815192835292820193909352918201527f5b9aaf4cc5141c090a75f8b8a627863eba92df81f0c83c096350da9b79aedd049060600160405180910390a192915050565b6040516001600160a01b038381166024830152604482018390526107f191859182169063a9059cbb906064015b604051602081830303815290604052915060e01b6020820180517bffffffffffffffffffffffffffffffffffffffffffffffffffffffff8381831617835250505050610988565b505050565b6000826001600160a01b03168260405160006040518083038185875af1925050503d8060008114610843576040519150601f19603f3d011682016040523d82523d6000602084013e610848565b606091505b50509050806107f1576040517f08c379a000000000000000000000000000000000000000000000000000000000815260206004820152601360248201527f455448207472616e73666572206661696c65640000000000000000000000000060448201526064015b60405180910390fd5b6000670de0b6b3a76400006108cd8484610be0565b6108d79086610c06565b6108e19190610c1d565b90505b9392505050565b6040516001600160a01b0384811660248301528381166044830152606482018390526109249186918216906323b872dd906084016107aa565b50505050565b6000806109356105dc565b600654909150811480159061094a5760006003555b60068290556040518281527fe972555b20cae8150e291bb40efce3ef4e3ed6b6b2c39c029346600e95469d489060200160405180910390a150919050565b600061099d6001600160a01b03841683610a04565b905080516000141580156109c25750808060200190518101906109c09190610c3f565b155b156107f1576040517f5274afe70000000000000000000000000000000000000000000000000000000081526001600160a01b03841660048201526024016108af565b6060610a1283836000610a1b565b90505b92915050565b606081471015610a59576040517fcd7860590000000000000000000000000000000000000000000000000000000081523060048201526024016108af565b600080856001600160a01b03168486604051610a759190610c61565b60006040518083038185875af1925050503d8060008114610ab2576040519150601f19603f3d011682016040523d82523d6000602084013e610ab7565b606091505b5091509150610ac7868383610ad1565b9695505050505050565b606082610ae657610ae182610b46565b6108e4565b8151158015610afd57506001600160a01b0384163b155b15610b3f576040517f9996b3150000000000000000000000000000000000000000000000000000000081526001600160a01b03851660048201526024016108af565b50806108e4565b805115610b565780518082602001fd5b6040517f1425ea4200000000000000000000000000000000000000000000000000000000815260040160405180910390fd5b600060208284031215610b9a57600080fd5b5035919050565b600060208284031215610bb357600080fd5b81356001600160a01b03811681146108e457600080fd5b634e487b7160e01b600052601160045260246000fd5b81810381811115610a1557610a15610bca565b80820180821115610a1557610a15610bca565b8082028115828204841417610a1557610a15610bca565b600082610c3a57634e487b7160e01b600052601260045260246000fd5b500490565b600060208284031215610c5157600080fd5b815180151581146108e457600080fd5b6000825160005b81811015610c825760208186018101518583015201610c68565b50600092019182525091905056fea264697066735822122019204afeef5d026c67fba6f2dcbcb3bef383a2056ec5d10ca013a9b3105a2ee864736f6c63430008140033",
  "libraries": {},
  "devdoc": {
    "errors": {
      "AddressEmptyCode(address)": [
        {
          "details": "There's no code at `target` (it is not a contract)."
        }
      ],
      "AddressInsufficientBalance(address)": [
        {
          "details": "The ETH balance of the account is not enough to perform the operation."
        }
      ],
      "FailedInnerCall()": [
        {
          "details": "A call to an address target failed. The target may have reverted."
        }
      ],
      "ReentrancyGuardReentrantCall()": [
        {
          "details": "Unauthorized reentrant call."
        }
      ],
      "SafeERC20FailedOperation(address)": [
        {
          "details": "An operation with an ERC20 token failed."
        }
      ]
    },
    "kind": "dev",
    "methods": {
      "currentUserRewards(address)": {
        "details": "This repeats the logic used on transactions, but doesn't update the storage."
      }
    },
    "version": 1
  },
  "userdoc": {
    "kind": "user",
    "methods": {
      "claim()": {
        "notice": "Claim all rewards for the caller."
      },
      "currentRewardsPerToken()": {
        "notice": "Calculate and return current rewards per token."
      },
      "currentUserRewards(address)": {
        "notice": "Calculate and return current rewards for a user."
      },
      "stake(uint256)": {
        "notice": "Stake tokens."
      },
      "unstake(uint256)": {
        "notice": "Unstake tokens."
      }
    },
    "version": 1
  },
  "storageLayout": {
    "storage": [
      {
        "astId": 3438,
        "contract": "contracts/space/StakingRewards.sol:StakingRewards",
        "label": "_status",
        "offset": 0,
        "slot": "0",
        "type": "t_uint256"
      },
      {
        "astId": 8845,
        "contract": "contracts/space/StakingRewards.sol:StakingRewards",
        "label": "token",
        "offset": 0,
        "slot": "1",
        "type": "t_address"
      },
      {
        "astId": 8848,
        "contract": "contracts/space/StakingRewards.sol:StakingRewards",
        "label": "daoFeePercent",
        "offset": 0,
        "slot": "2",
        "type": "t_uint256"
      },
      {
        "astId": 8851,
        "contract": "contracts/space/StakingRewards.sol:StakingRewards",
        "label": "stakingFees",
        "offset": 0,
        "slot": "3",
        "type": "t_uint256"
      },
      {
        "astId": 8856,
        "contract": "contracts/space/StakingRewards.sol:StakingRewards",
        "label": "totalStaked",
        "offset": 0,
        "slot": "4",
        "type": "t_uint256"
      },
      {
        "astId": 8860,
        "contract": "contracts/space/StakingRewards.sol:StakingRewards",
        "label": "userStake",
        "offset": 0,
        "slot": "5",
        "type": "t_mapping(t_address,t_uint256)"
      },
      {
        "astId": 8863,
        "contract": "contracts/space/StakingRewards.sol:StakingRewards",
        "label": "accumulatedRewardsPerToken",
        "offset": 0,
        "slot": "6",
        "type": "t_uint256"
      },
      {
        "astId": 8868,
        "contract": "contracts/space/StakingRewards.sol:StakingRewards",
        "label": "accumulatedRewards",
        "offset": 0,
        "slot": "7",
        "type": "t_mapping(t_address,t_struct(UserRewards)8909_storage)"
      }
    ],
    "types": {
      "t_address": {
        "encoding": "inplace",
        "label": "address",
        "numberOfBytes": "20"
      },
      "t_mapping(t_address,t_struct(UserRewards)8909_storage)": {
        "encoding": "mapping",
        "key": "t_address",
        "label": "mapping(address => struct StakingRewards.UserRewards)",
        "numberOfBytes": "32",
        "value": "t_struct(UserRewards)8909_storage"
      },
      "t_mapping(t_address,t_uint256)": {
        "encoding": "mapping",
        "key": "t_address",
        "label": "mapping(address => uint256)",
        "numberOfBytes": "32",
        "value": "t_uint256"
      },
      "t_struct(UserRewards)8909_storage": {
        "encoding": "inplace",
        "label": "struct StakingRewards.UserRewards",
        "members": [
          {
            "astId": 8906,
            "contract": "contracts/space/StakingRewards.sol:StakingRewards",
            "label": "accumulated",
            "offset": 0,
            "slot": "0",
            "type": "t_uint256"
          },
          {
            "astId": 8908,
            "contract": "contracts/space/StakingRewards.sol:StakingRewards",
            "label": "checkpoint",
            "offset": 0,
            "slot": "1",
            "type": "t_uint256"
          }
        ],
        "numberOfBytes": "64"
      },
      "t_uint256": {
        "encoding": "inplace",
        "label": "uint256",
        "numberOfBytes": "32"
      }
    }
  }
}