{
  "address": "0xA74750dB4148c7b59b9Fc858c03bF94aD0Bc76Cd",
  "abi": [
    {
      "inputs": [
        {
          "internalType": "address",
          "name": "_founder",
          "type": "address"
        },
        {
          "internalType": "address",
          "name": "_space",
          "type": "address"
        },
        {
          "internalType": "string",
          "name": "_name",
          "type": "string"
        },
        {
          "internalType": "string",
          "name": "_symbol",
          "type": "string"
        }
      ],
      "stateMutability": "nonpayable",
      "type": "constructor"
    },
    {
      "inputs": [],
      "name": "ECDSAInvalidSignature",
      "type": "error"
    },
    {
      "inputs": [
        {
          "internalType": "uint256",
          "name": "length",
          "type": "uint256"
        }
      ],
      "name": "ECDSAInvalidSignatureLength",
      "type": "error"
    },
    {
      "inputs": [
        {
          "internalType": "bytes32",
          "name": "s",
          "type": "bytes32"
        }
      ],
      "name": "ECDSAInvalidSignatureS",
      "type": "error"
    },
    {
      "inputs": [
        {
          "internalType": "address",
          "name": "spender",
          "type": "address"
        },
        {
          "internalType": "uint256",
          "name": "allowance",
          "type": "uint256"
        },
        {
          "internalType": "uint256",
          "name": "needed",
          "type": "uint256"
        }
      ],
      "name": "ERC20InsufficientAllowance",
      "type": "error"
    },
    {
      "inputs": [
        {
          "internalType": "address",
          "name": "sender",
          "type": "address"
        },
        {
          "internalType": "uint256",
          "name": "balance",
          "type": "uint256"
        },
        {
          "internalType": "uint256",
          "name": "needed",
          "type": "uint256"
        }
      ],
      "name": "ERC20InsufficientBalance",
      "type": "error"
    },
    {
      "inputs": [
        {
          "internalType": "address",
          "name": "approver",
          "type": "address"
        }
      ],
      "name": "ERC20InvalidApprover",
      "type": "error"
    },
    {
      "inputs": [
        {
          "internalType": "address",
          "name": "receiver",
          "type": "address"
        }
      ],
      "name": "ERC20InvalidReceiver",
      "type": "error"
    },
    {
      "inputs": [
        {
          "internalType": "address",
          "name": "sender",
          "type": "address"
        }
      ],
      "name": "ERC20InvalidSender",
      "type": "error"
    },
    {
      "inputs": [
        {
          "internalType": "address",
          "name": "spender",
          "type": "address"
        }
      ],
      "name": "ERC20InvalidSpender",
      "type": "error"
    },
    {
      "inputs": [
        {
          "internalType": "uint256",
          "name": "deadline",
          "type": "uint256"
        }
      ],
      "name": "ERC2612ExpiredSignature",
      "type": "error"
    },
    {
      "inputs": [
        {
          "internalType": "address",
          "name": "signer",
          "type": "address"
        },
        {
          "internalType": "address",
          "name": "owner",
          "type": "address"
        }
      ],
      "name": "ERC2612InvalidSigner",
      "type": "error"
    },
    {
      "inputs": [
        {
          "internalType": "address",
          "name": "account",
          "type": "address"
        },
        {
          "internalType": "uint256",
          "name": "currentNonce",
          "type": "uint256"
        }
      ],
      "name": "InvalidAccountNonce",
      "type": "error"
    },
    {
      "inputs": [],
      "name": "InvalidShortString",
      "type": "error"
    },
    {
      "inputs": [],
      "name": "ReentrancyGuardReentrantCall",
      "type": "error"
    },
    {
      "inputs": [
        {
          "internalType": "string",
          "name": "str",
          "type": "string"
        }
      ],
      "name": "StringTooLong",
      "type": "error"
    },
    {
      "anonymous": false,
      "inputs": [
        {
          "indexed": true,
          "internalType": "address",
          "name": "owner",
          "type": "address"
        },
        {
          "indexed": true,
          "internalType": "address",
          "name": "spender",
          "type": "address"
        },
        {
          "indexed": false,
          "internalType": "uint256",
          "name": "value",
          "type": "uint256"
        }
      ],
      "name": "Approval",
      "type": "event"
    },
    {
      "anonymous": false,
      "inputs": [],
      "name": "EIP712DomainChanged",
      "type": "event"
    },
    {
      "anonymous": false,
      "inputs": [
        {
          "indexed": true,
          "internalType": "enum Token.TradeType",
          "name": "tradeType",
          "type": "uint8"
        },
        {
          "indexed": true,
          "internalType": "address",
          "name": "account",
          "type": "address"
        },
        {
          "indexed": false,
          "internalType": "uint256",
          "name": "ethAmount",
          "type": "uint256"
        },
        {
          "indexed": false,
          "internalType": "uint256",
          "name": "tokenAmount",
          "type": "uint256"
        },
        {
          "indexed": false,
          "internalType": "uint256",
          "name": "fee",
          "type": "uint256"
        }
      ],
      "name": "Trade",
      "type": "event"
    },
    {
      "anonymous": false,
      "inputs": [
        {
          "indexed": true,
          "internalType": "address",
          "name": "from",
          "type": "address"
        },
        {
          "indexed": true,
          "internalType": "address",
          "name": "to",
          "type": "address"
        },
        {
          "indexed": false,
          "internalType": "uint256",
          "name": "value",
          "type": "uint256"
        }
      ],
      "name": "Transfer",
      "type": "event"
    },
    {
      "stateMutability": "payable",
      "type": "fallback"
    },
    {
      "inputs": [],
      "name": "DOMAIN_SEPARATOR",
      "outputs": [
        {
          "internalType": "bytes32",
          "name": "",
          "type": "bytes32"
        }
      ],
      "stateMutability": "view",
      "type": "function"
    },
    {
      "inputs": [],
      "name": "FEE_RATE",
      "outputs": [
        {
          "internalType": "uint256",
          "name": "",
          "type": "uint256"
        }
      ],
      "stateMutability": "view",
      "type": "function"
    },
    {
      "inputs": [
        {
          "internalType": "address",
          "name": "owner",
          "type": "address"
        },
        {
          "internalType": "address",
          "name": "spender",
          "type": "address"
        }
      ],
      "name": "allowance",
      "outputs": [
        {
          "internalType": "uint256",
          "name": "",
          "type": "uint256"
        }
      ],
      "stateMutability": "view",
      "type": "function"
    },
    {
      "inputs": [
        {
          "internalType": "address",
          "name": "spender",
          "type": "address"
        },
        {
          "internalType": "uint256",
          "name": "value",
          "type": "uint256"
        }
      ],
      "name": "approve",
      "outputs": [
        {
          "internalType": "bool",
          "name": "",
          "type": "bool"
        }
      ],
      "stateMutability": "nonpayable",
      "type": "function"
    },
    {
      "inputs": [
        {
          "internalType": "address",
          "name": "account",
          "type": "address"
        }
      ],
      "name": "balanceOf",
      "outputs": [
        {
          "internalType": "uint256",
          "name": "",
          "type": "uint256"
        }
      ],
      "stateMutability": "view",
      "type": "function"
    },
    {
      "inputs": [],
      "name": "buy",
      "outputs": [],
      "stateMutability": "payable",
      "type": "function"
    },
    {
      "inputs": [],
      "name": "decimals",
      "outputs": [
        {
          "internalType": "uint8",
          "name": "",
          "type": "uint8"
        }
      ],
      "stateMutability": "view",
      "type": "function"
    },
    {
      "inputs": [],
      "name": "eip712Domain",
      "outputs": [
        {
          "internalType": "bytes1",
          "name": "fields",
          "type": "bytes1"
        },
        {
          "internalType": "string",
          "name": "name",
          "type": "string"
        },
        {
          "internalType": "string",
          "name": "version",
          "type": "string"
        },
        {
          "internalType": "uint256",
          "name": "chainId",
          "type": "uint256"
        },
        {
          "internalType": "address",
          "name": "verifyingContract",
          "type": "address"
        },
        {
          "internalType": "bytes32",
          "name": "salt",
          "type": "bytes32"
        },
        {
          "internalType": "uint256[]",
          "name": "extensions",
          "type": "uint256[]"
        }
      ],
      "stateMutability": "view",
      "type": "function"
    },
    {
      "inputs": [],
      "name": "founder",
      "outputs": [
        {
          "internalType": "address",
          "name": "",
          "type": "address"
        }
      ],
      "stateMutability": "view",
      "type": "function"
    },
    {
      "inputs": [],
      "name": "getExcessEth",
      "outputs": [
        {
          "internalType": "uint256",
          "name": "",
          "type": "uint256"
        }
      ],
      "stateMutability": "view",
      "type": "function"
    },
    {
      "inputs": [],
      "name": "getExcessToken",
      "outputs": [
        {
          "internalType": "uint256",
          "name": "",
          "type": "uint256"
        }
      ],
      "stateMutability": "view",
      "type": "function"
    },
    {
      "inputs": [],
      "name": "initialX",
      "outputs": [
        {
          "internalType": "uint256",
          "name": "",
          "type": "uint256"
        }
      ],
      "stateMutability": "view",
      "type": "function"
    },
    {
      "inputs": [],
      "name": "initialY",
      "outputs": [
        {
          "internalType": "uint256",
          "name": "",
          "type": "uint256"
        }
      ],
      "stateMutability": "view",
      "type": "function"
    },
    {
      "inputs": [],
      "name": "k",
      "outputs": [
        {
          "internalType": "uint256",
          "name": "",
          "type": "uint256"
        }
      ],
      "stateMutability": "view",
      "type": "function"
    },
    {
      "inputs": [],
      "name": "name",
      "outputs": [
        {
          "internalType": "string",
          "name": "",
          "type": "string"
        }
      ],
      "stateMutability": "view",
      "type": "function"
    },
    {
      "inputs": [
        {
          "internalType": "address",
          "name": "owner",
          "type": "address"
        }
      ],
      "name": "nonces",
      "outputs": [
        {
          "internalType": "uint256",
          "name": "",
          "type": "uint256"
        }
      ],
      "stateMutability": "view",
      "type": "function"
    },
    {
      "inputs": [
        {
          "internalType": "address",
          "name": "owner",
          "type": "address"
        },
        {
          "internalType": "address",
          "name": "spender",
          "type": "address"
        },
        {
          "internalType": "uint256",
          "name": "value",
          "type": "uint256"
        },
        {
          "internalType": "uint256",
          "name": "deadline",
          "type": "uint256"
        },
        {
          "internalType": "uint8",
          "name": "v",
          "type": "uint8"
        },
        {
          "internalType": "bytes32",
          "name": "r",
          "type": "bytes32"
        },
        {
          "internalType": "bytes32",
          "name": "s",
          "type": "bytes32"
        }
      ],
      "name": "permit",
      "outputs": [],
      "stateMutability": "nonpayable",
      "type": "function"
    },
    {
      "inputs": [
        {
          "internalType": "uint256",
          "name": "tokenAmount",
          "type": "uint256"
        }
      ],
      "name": "sell",
      "outputs": [],
      "stateMutability": "payable",
      "type": "function"
    },
    {
      "inputs": [],
      "name": "space",
      "outputs": [
        {
          "internalType": "address",
          "name": "",
          "type": "address"
        }
      ],
      "stateMutability": "view",
      "type": "function"
    },
    {
      "inputs": [],
      "name": "symbol",
      "outputs": [
        {
          "internalType": "string",
          "name": "",
          "type": "string"
        }
      ],
      "stateMutability": "view",
      "type": "function"
    },
    {
      "inputs": [],
      "name": "totalSupply",
      "outputs": [
        {
          "internalType": "uint256",
          "name": "",
          "type": "uint256"
        }
      ],
      "stateMutability": "view",
      "type": "function"
    },
    {
      "inputs": [
        {
          "internalType": "address",
          "name": "to",
          "type": "address"
        },
        {
          "internalType": "uint256",
          "name": "value",
          "type": "uint256"
        }
      ],
      "name": "transfer",
      "outputs": [
        {
          "internalType": "bool",
          "name": "",
          "type": "bool"
        }
      ],
      "stateMutability": "nonpayable",
      "type": "function"
    },
    {
      "inputs": [
        {
          "internalType": "address",
          "name": "from",
          "type": "address"
        },
        {
          "internalType": "address",
          "name": "to",
          "type": "address"
        },
        {
          "internalType": "uint256",
          "name": "value",
          "type": "uint256"
        }
      ],
      "name": "transferFrom",
      "outputs": [
        {
          "internalType": "bool",
          "name": "",
          "type": "bool"
        }
      ],
      "stateMutability": "nonpayable",
      "type": "function"
    },
    {
      "inputs": [],
      "name": "withdrawExcessEth",
      "outputs": [],
      "stateMutability": "nonpayable",
      "type": "function"
    },
    {
      "inputs": [],
      "name": "withdrawExcessToken",
      "outputs": [],
      "stateMutability": "nonpayable",
      "type": "function"
    },
    {
      "inputs": [],
      "name": "x",
      "outputs": [
        {
          "internalType": "uint256",
          "name": "",
          "type": "uint256"
        }
      ],
      "stateMutability": "view",
      "type": "function"
    },
    {
      "inputs": [],
      "name": "y",
      "outputs": [
        {
          "internalType": "uint256",
          "name": "",
          "type": "uint256"
        }
      ],
      "stateMutability": "view",
      "type": "function"
    },
    {
      "stateMutability": "payable",
      "type": "receive"
    }
  ],
  "transactionHash": "0x03780f685b34f20138ec528cf9149aa4175ef14e43ec970b8299fccb8c38b7e1",
  "args": [
    "0x45aBBC64421a54CbffF878985AE6c4F0cfacfDb7",
    "0x45aBBC64421a54CbffF878985AE6c4F0cfacfDb7",
    "xToken",
    "XTOKEN"
  ],
  "numDeployments": 5,
  "solcInputHash": "769555c07581301a30d27c8e9f2f4cc4",
  "bytecode": "0x6101a06040526801a055690d9db800006009556b037790a0e8714009b49c0000600a553480156200002f57600080fd5b5060405162001e5538038062001e558339810160408190526200005291620002d8565b6040805180820190915260018152603160f81b602082015282908190818460036200007e8382620003f7565b5060046200008d8282620003f7565b506200009f9150839050600562000169565b61012052620000b081600662000169565b61014052815160208084019190912060e052815190820120610100524660a0526200013e60e05161010051604080517f8b73c3c69bb8fe3d512ecc4cf759cc79239f7b179b0ffacaa9a75d522b39400f60208201529081019290925260608201524660808201523060a082015260009060c00160405160208183030381529060405280519060200120905090565b60805250503060c05250506001600855506001600160a01b039182166101605216610180526200051d565b600060208351101562000189576200018183620001a2565b90506200019c565b81620001968482620003f7565b5060ff90505b92915050565b600080829050601f81511115620001d9578260405163305a27a960e01b8152600401620001d09190620004c3565b60405180910390fd5b8051620001e682620004f8565b179392505050565b80516001600160a01b03811681146200020657600080fd5b919050565b634e487b7160e01b600052604160045260246000fd5b60005b838110156200023e57818101518382015260200162000224565b50506000910152565b600082601f8301126200025957600080fd5b81516001600160401b03808211156200027657620002766200020b565b604051601f8301601f19908116603f01168101908282118183101715620002a157620002a16200020b565b81604052838152866020858801011115620002bb57600080fd5b620002ce84602083016020890162000221565b9695505050505050565b60008060008060808587031215620002ef57600080fd5b620002fa85620001ee565b93506200030a60208601620001ee565b60408601519093506001600160401b03808211156200032857600080fd5b620003368883890162000247565b935060608701519150808211156200034d57600080fd5b506200035c8782880162000247565b91505092959194509250565b600181811c908216806200037d57607f821691505b6020821081036200039e57634e487b7160e01b600052602260045260246000fd5b50919050565b601f821115620003f257600081815260208120601f850160051c81016020861015620003cd5750805b601f850160051c820191505b81811015620003ee57828155600101620003d9565b5050505b505050565b81516001600160401b038111156200041357620004136200020b565b6200042b8162000424845462000368565b84620003a4565b602080601f8311600181146200046357600084156200044a5750858301515b600019600386901b1c1916600185901b178555620003ee565b600085815260208120601f198616915b82811015620004945788860151825594840194600190910190840162000473565b5085821015620004b35787850151600019600388901b60f8161c191681555b5050505050600190811b01905550565b6020815260008251806020840152620004e481604085016020870162000221565b601f01601f19169190910160400192915050565b805160208083015191908110156200039e5760001960209190910360031b1b16919050565b60805160a05160c05160e05161010051610120516101405161016051610180516118ab620005aa600039600081816102290152818161060c01526107a30152600081816102da01528181610555015261070901526000610f1801526000610eeb01526000610dfa01526000610dd201526000610d2d01526000610d5701526000610d8101526118ab6000f3fe60806040526004361061013d5760003560e01c806306fdde0314610146578063095ea7b3146101715780630c0f9f2d146101a15780630c55699c146101cc57806318160ddd146101e257806323b872dd146101f757806327af9e38146102175780632d11c58a14610258578063313ce5671461026d57806332d5d74e146102895780633644e5151461029e5780634d4beb3b146102b35780634d853ee5146102c857806370a08231146102fc5780637ecebe001461031c57806382a00b3c1461033c57806384b0196e1461035157806395d89b4114610379578063a56dfe4a1461038e578063a6f2ae3a146103a4578063a9059cbb146103ac578063b4f40c61146103cc578063d505accf146103f2578063d955b0f314610412578063dd62ed3e14610432578063e4849b3214610452578063ffdd6dd81461046557005b3661014457005b005b34801561015257600080fd5b5061015b61047a565b60405161016891906114f1565b60405180910390f35b34801561017d57600080fd5b5061019161018c366004611527565b61050c565b6040519015158152602001610168565b3480156101ad57600080fd5b506101be6801a055690d9db8000081565b604051908152602001610168565b3480156101d857600080fd5b506101be60095481565b3480156101ee57600080fd5b506002546101be565b34801561020357600080fd5b50610191610212366004611551565b610526565b34801561022357600080fd5b5061024b7f000000000000000000000000000000000000000000000000000000000000000081565b604051610168919061158d565b34801561026457600080fd5b506101be600181565b34801561027957600080fd5b5060405160128152602001610168565b34801561029557600080fd5b5061014461054a565b3480156102aa57600080fd5b506101be61068a565b3480156102bf57600080fd5b506101be610699565b3480156102d457600080fd5b5061024b7f000000000000000000000000000000000000000000000000000000000000000081565b34801561030857600080fd5b506101be6103173660046115a1565b6106c5565b34801561032857600080fd5b506101be6103373660046115a1565b6106e0565b34801561034857600080fd5b506101446106fe565b34801561035d57600080fd5b506103666107cb565b60405161016897969594939291906115bc565b34801561038557600080fd5b5061015b610811565b34801561039a57600080fd5b506101be600a5481565b610144610820565b3480156103b857600080fd5b506101916103c7366004611527565b610941565b3480156103d857600080fd5b506101be6e2d1b9925c562f6775f79c851154be160251b81565b3480156103fe57600080fd5b5061014461040d366004611652565b61094f565b34801561041e57600080fd5b506101be6b037790a0e8714009b49c000081565b34801561043e57600080fd5b506101be61044d3660046116c5565b610a89565b6101446104603660046116f8565b610ab4565b34801561047157600080fd5b506101be610c51565b60606003805461048990611711565b80601f01602080910402602001604051908101604052809291908181526020018280546104b590611711565b80156105025780601f106104d757610100808354040283529160200191610502565b820191906000526020600020905b8154815290600101906020018083116104e557829003601f168201915b5050505050905090565b60003361051a818585610c5c565b60019150505b92915050565b600033610534858285610c6e565b61053f858585610cc1565b506001949350505050565b336001600160a01b037f0000000000000000000000000000000000000000000000000000000000000000161461059b5760405162461bcd60e51b81526004016105929061174b565b60405180910390fd5b60006105a5610c51565b9050600081116105f55760405162461bcd60e51b815260206004820152601b60248201527a4e6f2065786365737320546f6b656e20746f20776974686472617760281b6044820152606401610592565b60405163a9059cbb60e01b81526001600160a01b037f000000000000000000000000000000000000000000000000000000000000000016600482015260248101829052309063a9059cbb906044016020604051808303816000875af1158015610662573d6000803e3d6000fd5b505050506040513d601f19601f820116820180604052508101906106869190611771565b5050565b6000610694610d20565b905090565b6000806801a055690d9db800006009546106b391906117a9565b90506106bf81476117a9565b91505090565b6001600160a01b031660009081526020819052604090205490565b6001600160a01b038116600090815260076020526040812054610520565b336001600160a01b037f000000000000000000000000000000000000000000000000000000000000000016146107465760405162461bcd60e51b81526004016105929061174b565b6000610750610699565b90506000811161079e5760405162461bcd60e51b81526020600482015260196024820152784e6f206578636573732045544820746f20776974686472617760381b6044820152606401610592565b6107c87f000000000000000000000000000000000000000000000000000000000000000082610e4b565b50565b6000606080600080600060606107df610ee4565b6107e7610f11565b60408051600080825260208201909252600f60f81b9b939a50919850469750309650945092509050565b60606004805461048990611711565b610828610f3e565b34806108825760405162461bcd60e51b8152602060048201526024808201527f45544820616d6f756e74206d7573742062652067726561746572207468616e206044820152637a65726f60e01b6064820152608401610592565b600060646108916001846117bc565b61089b91906117d3565b905060006108a982846117a9565b90506000816009546108bb91906117f5565b905060006108db826e2d1b9925c562f6775f79c851154be160251b6117d3565b9050600081600a546108ed91906117a9565b6009849055600a83905590506109033382610f68565b3360006000805160206118568339815191528884896040516109279392919061181e565b60405180910390a350505050505061093f6001600855565b565b60003361051a818585610cc1565b834211156109735760405163313c898160e11b815260048101859052602401610592565b60007f6e71edae12b1b97f4d1f60370fef10105fa2faae0126114a169c64845d6126c98888886109c08c6001600160a01b0316600090815260076020526040902080546001810190915590565b6040805160208101969096526001600160a01b0394851690860152929091166060840152608083015260a082015260c0810186905260e0016040516020818303038152906040528051906020012090506000610a1b82610f9e565b90506000610a2b82878787610fcb565b9050896001600160a01b0316816001600160a01b031614610a72576040516325c0072360e11b81526001600160a01b0380831660048301528b166024820152604401610592565b610a7d8a8a8a610c5c565b50505050505050505050565b6001600160a01b03918216600090815260016020908152604080832093909416825291909152205490565b610abc610f3e565b60008111610b1b5760405162461bcd60e51b815260206004820152602660248201527f546f6b656e20616d6f756e74206d7573742062652067726561746572207468616044820152656e207a65726f60d01b6064820152608401610592565b60006064610b2a6001846117bc565b610b3491906117d3565b90506000610b4282846117a9565b9050600081600a54610b5491906117f5565b90506000610b74826e2d1b9925c562f6775f79c851154be160251b6117d3565b9050600081600954610b8691906117a9565b600a84905560098390556040516323b872dd60e01b81523360048201523060248201819052604482018990529192506323b872dd906064016020604051808303816000875af1158015610bdd573d6000803e3d6000fd5b505050506040513d601f19601f82011682018060405250810190610c019190611771565b50610c0c3085610ff9565b610c163382610e4b565b336001600080516020611856833981519152838989604051610c3a9392919061181e565b60405180910390a350505050506107c86001600855565b6000610694306106c5565b610c69838383600161102f565b505050565b6000610c7a8484610a89565b90506000198114610cbb5781811015610cac57828183604051637dc7a0d960e11b815260040161059293929190611834565b610cbb8484848403600061102f565b50505050565b6001600160a01b038316610ceb576000604051634b637e8f60e11b8152600401610592919061158d565b6001600160a01b038216610d1557600060405163ec442f0560e01b8152600401610592919061158d565b610c69838383611104565b6000306001600160a01b037f000000000000000000000000000000000000000000000000000000000000000016148015610d7957507f000000000000000000000000000000000000000000000000000000000000000046145b15610da357507f000000000000000000000000000000000000000000000000000000000000000090565b610694604080517f8b73c3c69bb8fe3d512ecc4cf759cc79239f7b179b0ffacaa9a75d522b39400f60208201527f0000000000000000000000000000000000000000000000000000000000000000918101919091527f000000000000000000000000000000000000000000000000000000000000000060608201524660808201523060a082015260009060c00160405160208183030381529060405280519060200120905090565b6000826001600160a01b03168260405160006040518083038185875af1925050503d8060008114610e98576040519150601f19603f3d011682016040523d82523d6000602084013e610e9d565b606091505b5050905080610c695760405162461bcd60e51b8152602060048201526013602482015272115512081d1c985b9cd9995c8819985a5b1959606a1b6044820152606401610592565b60606106947f0000000000000000000000000000000000000000000000000000000000000000600561121b565b60606106947f0000000000000000000000000000000000000000000000000000000000000000600661121b565b600260085403610f6157604051633ee5aeb560e01b815260040160405180910390fd5b6002600855565b6001600160a01b038216610f9257600060405163ec442f0560e01b8152600401610592919061158d565b61068660008383611104565b6000610520610fab610d20565b8360405161190160f01b8152600281019290925260228201526042902090565b600080600080610fdd888888886112c6565b925092509250610fed828261138b565b50909695505050505050565b6001600160a01b038216611023576000604051634b637e8f60e11b8152600401610592919061158d565b61068682600083611104565b6001600160a01b03841661105957600060405163e602df0560e01b8152600401610592919061158d565b6001600160a01b038316611083576000604051634a1406b160e11b8152600401610592919061158d565b6001600160a01b0380851660009081526001602090815260408083209387168352929052208290558015610cbb57826001600160a01b0316846001600160a01b03167f8c5be1e5ebec7d5bd14f71427d1e84f3dd0314c0f7b2291e5b200ac8c7c3b925846040516110f691815260200190565b60405180910390a350505050565b6001600160a01b03831661112f57806002600082825461112491906117f5565b9091555061118e9050565b6001600160a01b0383166000908152602081905260409020548181101561116f5783818360405163391434e360e21b815260040161059293929190611834565b6001600160a01b03841660009081526020819052604090209082900390555b6001600160a01b0382166111aa576002805482900390556111c9565b6001600160a01b03821660009081526020819052604090208054820190555b816001600160a01b0316836001600160a01b03167fddf252ad1be2c89b69c2b068fc378daa952ba7f163c4a11628f55a4df523b3ef8360405161120e91815260200190565b60405180910390a3505050565b606060ff83146112355761122e83611444565b9050610520565b81805461124190611711565b80601f016020809104026020016040519081016040528092919081815260200182805461126d90611711565b80156112ba5780601f1061128f576101008083540402835291602001916112ba565b820191906000526020600020905b81548152906001019060200180831161129d57829003601f168201915b50505050509050610520565b600080806fa2a8918ca85bafe22016d0b997e4df60600160ff1b038411156112f75750600091506003905082611381565b604080516000808252602082018084528a905260ff891692820192909252606081018790526080810186905260019060a0016020604051602081039080840390855afa15801561134b573d6000803e3d6000fd5b5050604051601f1901519150506001600160a01b03811661137757506000925060019150829050611381565b9250600091508190505b9450945094915050565b600082600381111561139f5761139f611808565b036113a8575050565b60018260038111156113bc576113bc611808565b036113da5760405163f645eedf60e01b815260040160405180910390fd5b60028260038111156113ee576113ee611808565b0361140f5760405163fce698f760e01b815260048101829052602401610592565b600382600381111561142357611423611808565b03610686576040516335e2f38360e21b815260048101829052602401610592565b6060600061145183611483565b604080516020808252818301909252919250600091906020820181803683375050509182525060208101929092525090565b600060ff8216601f81111561052057604051632cd44ac360e21b815260040160405180910390fd5b6000815180845260005b818110156114d1576020818501810151868301820152016114b5565b506000602082860101526020601f19601f83011685010191505092915050565b60208152600061150460208301846114ab565b9392505050565b80356001600160a01b038116811461152257600080fd5b919050565b6000806040838503121561153a57600080fd5b6115438361150b565b946020939093013593505050565b60008060006060848603121561156657600080fd5b61156f8461150b565b925061157d6020850161150b565b9150604084013590509250925092565b6001600160a01b0391909116815260200190565b6000602082840312156115b357600080fd5b6115048261150b565b60ff60f81b881681526000602060e0818401526115dc60e084018a6114ab565b83810360408501526115ee818a6114ab565b606085018990526001600160a01b038816608086015260a0850187905284810360c0860152855180825283870192509083019060005b8181101561164057835183529284019291840191600101611624565b50909c9b505050505050505050505050565b600080600080600080600060e0888a03121561166d57600080fd5b6116768861150b565b96506116846020890161150b565b95506040880135945060608801359350608088013560ff811681146116a857600080fd5b9699959850939692959460a0840135945060c09093013592915050565b600080604083850312156116d857600080fd5b6116e18361150b565b91506116ef6020840161150b565b90509250929050565b60006020828403121561170a57600080fd5b5035919050565b600181811c9082168061172557607f821691505b60208210810361174557634e487b7160e01b600052602260045260246000fd5b50919050565b6020808252600c908201526b27b7363c902337bab73232b960a11b604082015260600190565b60006020828403121561178357600080fd5b8151801515811461150457600080fd5b634e487b7160e01b600052601160045260246000fd5b8181038181111561052057610520611793565b808202811582820484141761052057610520611793565b6000826117f057634e487b7160e01b600052601260045260246000fd5b500490565b8082018082111561052057610520611793565b634e487b7160e01b600052602160045260246000fd5b9283526020830191909152604082015260600190565b6001600160a01b03939093168352602083019190915260408201526060019056fef660d6af156f2b284576f789df6df4915f78d4fef681203d39da097c588c8532a2646970667358221220e7c37dbb6588e76345395a6659fc9ce38061b91d80205686ec3963db9a4081df64736f6c63430008140033",
  "libraries": {},
  "devdoc": {
    "errors": {
      "ECDSAInvalidSignature()": [
        {
          "details": "The signature derives the `address(0)`."
        }
      ],
      "ECDSAInvalidSignatureLength(uint256)": [
        {
          "details": "The signature has an invalid length."
        }
      ],
      "ECDSAInvalidSignatureS(bytes32)": [
        {
          "details": "The signature has an S value that is in the upper half order."
        }
      ],
      "ERC20InsufficientAllowance(address,uint256,uint256)": [
        {
          "details": "Indicates a failure with the `spender`s `allowance`. Used in transfers.",
          "params": {
            "allowance": "Amount of tokens a `spender` is allowed to operate with.",
            "needed": "Minimum amount required to perform a transfer.",
            "spender": "Address that may be allowed to operate on tokens without being their owner."
          }
        }
      ],
      "ERC20InsufficientBalance(address,uint256,uint256)": [
        {
          "details": "Indicates an error related to the current `balance` of a `sender`. Used in transfers.",
          "params": {
            "balance": "Current balance for the interacting account.",
            "needed": "Minimum amount required to perform a transfer.",
            "sender": "Address whose tokens are being transferred."
          }
        }
      ],
      "ERC20InvalidApprover(address)": [
        {
          "details": "Indicates a failure with the `approver` of a token to be approved. Used in approvals.",
          "params": {
            "approver": "Address initiating an approval operation."
          }
        }
      ],
      "ERC20InvalidReceiver(address)": [
        {
          "details": "Indicates a failure with the token `receiver`. Used in transfers.",
          "params": {
            "receiver": "Address to which tokens are being transferred."
          }
        }
      ],
      "ERC20InvalidSender(address)": [
        {
          "details": "Indicates a failure with the token `sender`. Used in transfers.",
          "params": {
            "sender": "Address whose tokens are being transferred."
          }
        }
      ],
      "ERC20InvalidSpender(address)": [
        {
          "details": "Indicates a failure with the `spender` to be approved. Used in approvals.",
          "params": {
            "spender": "Address that may be allowed to operate on tokens without being their owner."
          }
        }
      ],
      "ERC2612ExpiredSignature(uint256)": [
        {
          "details": "Permit deadline has expired."
        }
      ],
      "ERC2612InvalidSigner(address,address)": [
        {
          "details": "Mismatched signature."
        }
      ],
      "InvalidAccountNonce(address,uint256)": [
        {
          "details": "The nonce used for an `account` is not the expected current nonce."
        }
      ],
      "ReentrancyGuardReentrantCall()": [
        {
          "details": "Unauthorized reentrant call."
        }
      ]
    },
    "events": {
      "Approval(address,address,uint256)": {
        "details": "Emitted when the allowance of a `spender` for an `owner` is set by a call to {approve}. `value` is the new allowance."
      },
      "EIP712DomainChanged()": {
        "details": "MAY be emitted to signal that the domain could have changed."
      },
      "Transfer(address,address,uint256)": {
        "details": "Emitted when `value` tokens are moved from one account (`from`) to another (`to`). Note that `value` may be zero."
      }
    },
    "kind": "dev",
    "methods": {
      "DOMAIN_SEPARATOR()": {
        "details": "Returns the domain separator used in the encoding of the signature for {permit}, as defined by {EIP712}."
      },
      "allowance(address,address)": {
        "details": "See {IERC20-allowance}."
      },
      "approve(address,uint256)": {
        "details": "See {IERC20-approve}. NOTE: If `value` is the maximum `uint256`, the allowance is not updated on `transferFrom`. This is semantically equivalent to an infinite approval. Requirements: - `spender` cannot be the zero address."
      },
      "balanceOf(address)": {
        "details": "See {IERC20-balanceOf}."
      },
      "decimals()": {
        "details": "Returns the number of decimals used to get its user representation. For example, if `decimals` equals `2`, a balance of `505` tokens should be displayed to a user as `5.05` (`505 / 10 ** 2`). Tokens usually opt for a value of 18, imitating the relationship between Ether and Wei. This is the default value returned by this function, unless it's overridden. NOTE: This information is only used for _display_ purposes: it in no way affects any of the arithmetic of the contract, including {IERC20-balanceOf} and {IERC20-transfer}."
      },
      "eip712Domain()": {
        "details": "See {IERC-5267}."
      },
      "name()": {
        "details": "Returns the name of the token."
      },
      "nonces(address)": {
        "details": "Returns the current nonce for `owner`. This value must be included whenever a signature is generated for {permit}. Every successful call to {permit} increases ``owner``'s nonce by one. This prevents a signature from being used multiple times."
      },
      "permit(address,address,uint256,uint256,uint8,bytes32,bytes32)": {
        "details": "Sets `value` as the allowance of `spender` over ``owner``'s tokens, given ``owner``'s signed approval. IMPORTANT: The same issues {IERC20-approve} has related to transaction ordering also apply here. Emits an {Approval} event. Requirements: - `spender` cannot be the zero address. - `deadline` must be a timestamp in the future. - `v`, `r` and `s` must be a valid `secp256k1` signature from `owner` over the EIP712-formatted function arguments. - the signature must use ``owner``'s current nonce (see {nonces}). For more information on the signature format, see the https://eips.ethereum.org/EIPS/eip-2612#specification[relevant EIP section]. CAUTION: See Security Considerations above."
      },
      "symbol()": {
        "details": "Returns the symbol of the token, usually a shorter version of the name."
      },
      "totalSupply()": {
        "details": "See {IERC20-totalSupply}."
      },
      "transfer(address,uint256)": {
        "details": "See {IERC20-transfer}. Requirements: - `to` cannot be the zero address. - the caller must have a balance of at least `value`."
      },
      "transferFrom(address,address,uint256)": {
        "details": "See {IERC20-transferFrom}. Emits an {Approval} event indicating the updated allowance. This is not required by the EIP. See the note at the beginning of {ERC20}. NOTE: Does not update the allowance if the current allowance is the maximum `uint256`. Requirements: - `from` and `to` cannot be the zero address. - `from` must have a balance of at least `value`. - the caller must have allowance for ``from``'s tokens of at least `value`."
      }
    },
    "version": 1
  },
  "userdoc": {
    "kind": "user",
    "methods": {},
    "version": 1
  },
  "storageLayout": {
    "storage": [
      {
        "astId": 1817,
        "contract": "contracts/space/Token.sol:Token",
        "label": "_balances",
        "offset": 0,
        "slot": "0",
        "type": "t_mapping(t_address,t_uint256)"
      },
      {
        "astId": 1823,
        "contract": "contracts/space/Token.sol:Token",
        "label": "_allowances",
        "offset": 0,
        "slot": "1",
        "type": "t_mapping(t_address,t_mapping(t_address,t_uint256))"
      },
      {
        "astId": 1825,
        "contract": "contracts/space/Token.sol:Token",
        "label": "_totalSupply",
        "offset": 0,
        "slot": "2",
        "type": "t_uint256"
      },
      {
        "astId": 1827,
        "contract": "contracts/space/Token.sol:Token",
        "label": "_name",
        "offset": 0,
        "slot": "3",
        "type": "t_string_storage"
      },
      {
        "astId": 1829,
        "contract": "contracts/space/Token.sol:Token",
        "label": "_symbol",
        "offset": 0,
        "slot": "4",
        "type": "t_string_storage"
      },
      {
        "astId": 4463,
        "contract": "contracts/space/Token.sol:Token",
        "label": "_nameFallback",
        "offset": 0,
        "slot": "5",
        "type": "t_string_storage"
      },
      {
        "astId": 4465,
        "contract": "contracts/space/Token.sol:Token",
        "label": "_versionFallback",
        "offset": 0,
        "slot": "6",
        "type": "t_string_storage"
      },
      {
        "astId": 3373,
        "contract": "contracts/space/Token.sol:Token",
        "label": "_nonces",
        "offset": 0,
        "slot": "7",
        "type": "t_mapping(t_address,t_uint256)"
      },
      {
        "astId": 3438,
        "contract": "contracts/space/Token.sol:Token",
        "label": "_status",
        "offset": 0,
        "slot": "8",
        "type": "t_uint256"
      },
      {
        "astId": 9673,
        "contract": "contracts/space/Token.sol:Token",
        "label": "x",
        "offset": 0,
        "slot": "9",
        "type": "t_uint256"
      },
      {
        "astId": 9676,
        "contract": "contracts/space/Token.sol:Token",
        "label": "y",
        "offset": 0,
        "slot": "10",
        "type": "t_uint256"
      }
    ],
    "types": {
      "t_address": {
        "encoding": "inplace",
        "label": "address",
        "numberOfBytes": "20"
      },
      "t_mapping(t_address,t_mapping(t_address,t_uint256))": {
        "encoding": "mapping",
        "key": "t_address",
        "label": "mapping(address => mapping(address => uint256))",
        "numberOfBytes": "32",
        "value": "t_mapping(t_address,t_uint256)"
      },
      "t_mapping(t_address,t_uint256)": {
        "encoding": "mapping",
        "key": "t_address",
        "label": "mapping(address => uint256)",
        "numberOfBytes": "32",
        "value": "t_uint256"
      },
      "t_string_storage": {
        "encoding": "bytes",
        "label": "string",
        "numberOfBytes": "32"
      },
      "t_uint256": {
        "encoding": "inplace",
        "label": "uint256",
        "numberOfBytes": "32"
      }
    }
  }
}